{"abi":[{"type":"constructor","inputs":[{"name":"_verificationLogger","type":"address","internalType":"address"},{"name":"_userRegistry","type":"address","internalType":"address"},{"name":"_trustScore","type":"address","internalType":"address"},{"name":"_faceVerificationManager","type":"address","internalType":"address"}],"stateMutability":"nonpayable"},{"type":"function","name":"AADHAAR_VERIFICATION_SCORE","inputs":[],"outputs":[{"name":"","type":"uint256","internalType":"uint256"}],"stateMutability":"view"},{"type":"function","name":"DEFAULT_ADMIN_ROLE","inputs":[],"outputs":[{"name":"","type":"bytes32","internalType":"bytes32"}],"stateMutability":"view"},{"type":"function","name":"MAX_FAILED_ATTEMPTS","inputs":[],"outputs":[{"name":"","type":"uint256","internalType":"uint256"}],"stateMutability":"view"},{"type":"function","name":"MAX_RETRY_ATTEMPTS","inputs":[],"outputs":[{"name":"","type":"uint256","internalType":"uint256"}],"stateMutability":"view"},{"type":"function","name":"RETRY_COOLDOWN","inputs":[],"outputs":[{"name":"","type":"uint256","internalType":"uint256"}],"stateMutability":"view"},{"type":"function","name":"UIDAI_ORACLE_ROLE","inputs":[],"outputs":[{"name":"","type":"bytes32","internalType":"bytes32"}],"stateMutability":"view"},{"type":"function","name":"VERIFIER_ROLE","inputs":[],"outputs":[{"name":"","type":"bytes32","internalType":"bytes32"}],"stateMutability":"view"},{"type":"function","name":"aadhaarVerifications","inputs":[{"name":"","type":"address","internalType":"address"}],"outputs":[{"name":"user","type":"address","internalType":"address"},{"name":"aadhaarHashCommitment","type":"bytes32","internalType":"bytes32"},{"name":"otpHash","type":"bytes32","internalType":"bytes32"},{"name":"timestamp","type":"uint256","internalType":"uint256"},{"name":"isVerified","type":"bool","internalType":"bool"},{"name":"isActive","type":"bool","internalType":"bool"},{"name":"verificationMethod","type":"string","internalType":"string"},{"name":"retryCount","type":"uint256","internalType":"uint256"},{"name":"lastRetry","type":"uint256","internalType":"uint256"}],"stateMutability":"view"},{"type":"function","name":"bulkCompleteAadhaarVerification","inputs":[{"name":"users","type":"address[]","internalType":"address[]"},{"name":"successes","type":"bool[]","internalType":"bool[]"},{"name":"signatures","type":"bytes[]","internalType":"bytes[]"}],"outputs":[],"stateMutability":"nonpayable"},{"type":"function","name":"canRetryVerification","inputs":[{"name":"user","type":"address","internalType":"address"}],"outputs":[{"name":"","type":"bool","internalType":"bool"}],"stateMutability":"view"},{"type":"function","name":"completeAadhaarVerification","inputs":[{"name":"user","type":"address","internalType":"address"},{"name":"success","type":"bool","internalType":"bool"},{"name":"uidaiSignature","type":"bytes","internalType":"bytes"}],"outputs":[],"stateMutability":"nonpayable"},{"type":"function","name":"faceVerificationManager","inputs":[],"outputs":[{"name":"","type":"address","internalType":"contract IFaceVerificationManager"}],"stateMutability":"view"},{"type":"function","name":"failedAttempts","inputs":[{"name":"","type":"address","internalType":"address"}],"outputs":[{"name":"","type":"uint256","internalType":"uint256"}],"stateMutability":"view"},{"type":"function","name":"getAadhaarVerificationInfo","inputs":[{"name":"user","type":"address","internalType":"address"}],"outputs":[{"name":"aadhaarHashCommitment","type":"bytes32","internalType":"bytes32"},{"name":"timestamp","type":"uint256","internalType":"uint256"},{"name":"isVerified","type":"bool","internalType":"bool"},{"name":"verificationMethod","type":"string","internalType":"string"},{"name":"retryCount","type":"uint256","internalType":"uint256"},{"name":"failedAttemptCount","type":"uint256","internalType":"uint256"}],"stateMutability":"view"},{"type":"function","name":"getRoleAdmin","inputs":[{"name":"role","type":"bytes32","internalType":"bytes32"}],"outputs":[{"name":"","type":"bytes32","internalType":"bytes32"}],"stateMutability":"view"},{"type":"function","name":"getVerificationMethodStats","inputs":[{"name":"method","type":"string","internalType":"string"}],"outputs":[{"name":"totalRequests","type":"uint256","internalType":"uint256"},{"name":"successfulVerifications","type":"uint256","internalType":"uint256"}],"stateMutability":"view"},{"type":"function","name":"grantRole","inputs":[{"name":"role","type":"bytes32","internalType":"bytes32"},{"name":"account","type":"address","internalType":"address"}],"outputs":[],"stateMutability":"nonpayable"},{"type":"function","name":"hasRole","inputs":[{"name":"role","type":"bytes32","internalType":"bytes32"},{"name":"account","type":"address","internalType":"address"}],"outputs":[{"name":"","type":"bool","internalType":"bool"}],"stateMutability":"view"},{"type":"function","name":"isAadhaarVerified","inputs":[{"name":"user","type":"address","internalType":"address"}],"outputs":[{"name":"","type":"bool","internalType":"bool"}],"stateMutability":"view"},{"type":"function","name":"renounceRole","inputs":[{"name":"role","type":"bytes32","internalType":"bytes32"},{"name":"callerConfirmation","type":"address","internalType":"address"}],"outputs":[],"stateMutability":"nonpayable"},{"type":"function","name":"requestAadhaarVerification","inputs":[{"name":"aadhaarHashCommitment","type":"bytes32","internalType":"bytes32"},{"name":"otpHash","type":"bytes32","internalType":"bytes32"},{"name":"verificationMethod","type":"string","internalType":"string"}],"outputs":[],"stateMutability":"nonpayable"},{"type":"function","name":"resetFailedAttempts","inputs":[{"name":"user","type":"address","internalType":"address"}],"outputs":[],"stateMutability":"nonpayable"},{"type":"function","name":"revokeAadhaarVerification","inputs":[{"name":"user","type":"address","internalType":"address"},{"name":"reason","type":"string","internalType":"string"}],"outputs":[],"stateMutability":"nonpayable"},{"type":"function","name":"revokeRole","inputs":[{"name":"role","type":"bytes32","internalType":"bytes32"},{"name":"account","type":"address","internalType":"address"}],"outputs":[],"stateMutability":"nonpayable"},{"type":"function","name":"supportsInterface","inputs":[{"name":"interfaceId","type":"bytes4","internalType":"bytes4"}],"outputs":[{"name":"","type":"bool","internalType":"bool"}],"stateMutability":"view"},{"type":"function","name":"trustScore","inputs":[],"outputs":[{"name":"","type":"address","internalType":"contract ITrustScore"}],"stateMutability":"view"},{"type":"function","name":"usedAadhaarHashes","inputs":[{"name":"","type":"bytes32","internalType":"bytes32"}],"outputs":[{"name":"","type":"bool","internalType":"bool"}],"stateMutability":"view"},{"type":"function","name":"userRegistry","inputs":[],"outputs":[{"name":"","type":"address","internalType":"contract IUserIdentityRegistry"}],"stateMutability":"view"},{"type":"function","name":"verificationLogger","inputs":[],"outputs":[{"name":"","type":"address","internalType":"contract IVerificationLogger"}],"stateMutability":"view"},{"type":"event","name":"AadhaarVerificationCompleted","inputs":[{"name":"user","type":"address","indexed":true,"internalType":"address"},{"name":"success","type":"bool","indexed":false,"internalType":"bool"},{"name":"method","type":"string","indexed":false,"internalType":"string"}],"anonymous":false},{"type":"event","name":"AadhaarVerificationRequested","inputs":[{"name":"user","type":"address","indexed":true,"internalType":"address"},{"name":"aadhaarHashCommitment","type":"bytes32","indexed":false,"internalType":"bytes32"}],"anonymous":false},{"type":"event","name":"AadhaarVerificationRevoked","inputs":[{"name":"user","type":"address","indexed":true,"internalType":"address"},{"name":"reason","type":"string","indexed":false,"internalType":"string"}],"anonymous":false},{"type":"event","name":"RetryAttempt","inputs":[{"name":"user","type":"address","indexed":true,"internalType":"address"},{"name":"attemptNumber","type":"uint256","indexed":false,"internalType":"uint256"}],"anonymous":false},{"type":"event","name":"RoleAdminChanged","inputs":[{"name":"role","type":"bytes32","indexed":true,"internalType":"bytes32"},{"name":"previousAdminRole","type":"bytes32","indexed":true,"internalType":"bytes32"},{"name":"newAdminRole","type":"bytes32","indexed":true,"internalType":"bytes32"}],"anonymous":false},{"type":"event","name":"RoleGranted","inputs":[{"name":"role","type":"bytes32","indexed":true,"internalType":"bytes32"},{"name":"account","type":"address","indexed":true,"internalType":"address"},{"name":"sender","type":"address","indexed":true,"internalType":"address"}],"anonymous":false},{"type":"event","name":"RoleRevoked","inputs":[{"name":"role","type":"bytes32","indexed":true,"internalType":"bytes32"},{"name":"account","type":"address","indexed":true,"internalType":"address"},{"name":"sender","type":"address","indexed":true,"internalType":"address"}],"anonymous":false},{"type":"error","name":"AccessControlBadConfirmation","inputs":[]},{"type":"error","name":"AccessControlUnauthorizedAccount","inputs":[{"name":"account","type":"address","internalType":"address"},{"name":"neededRole","type":"bytes32","internalType":"bytes32"}]},{"type":"error","name":"ReentrancyGuardReentrantCall","inputs":[]}],"bytecode":{"object":"0x6080604052346100335761001d610014610120565b92919091610315565b610025610038565b6142b66105f182396142b690f35b61003e565b60405190565b5f80fd5b601f801991011690565b634e487b7160e01b5f52604160045260245ffd5b9061006a90610042565b810190811060018060401b0382111761008257604052565b61004c565b9061009a610093610038565b9283610060565b565b5f80fd5b60018060a01b031690565b6100b4906100a0565b90565b6100c0816100ab565b036100c757565b5f80fd5b905051906100d8826100b7565b565b60808183031261011b576100f0825f83016100cb565b9261011861010184602085016100cb565b9361010f81604086016100cb565b936060016100cb565b90565b61009c565b61013e6148a78038038061013381610087565b9283398101906100da565b90919293565b90565b90565b5f1b90565b61016361015e61016892610144565b61014a565b610147565b90565b6101745f61014f565b90565b7f0ce23c3e399818cfee81a7ab0880f714e53d7672b08df0fa62f2843416e1ea0990565b7fe1ceeff6b472ab50a3f14f1250b328fe9202ddcea2fbd5653ecc80b83d8c4e3190565b90565b6101d66101d16101db926100a0565b6101bf565b6100a0565b90565b6101e7906101c2565b90565b6101f3906101de565b90565b9061020760018060a01b039161014a565b9181191691161790565b61021a906101de565b90565b90565b9061023561023061023c92610211565b61021d565b82546101f6565b9055565b610249906101c2565b90565b61025590610240565b90565b61026190610240565b90565b90565b9061027c61027761028392610258565b610264565b82546101f6565b9055565b610290906101c2565b90565b61029c90610287565b90565b6102a890610287565b90565b90565b906102c36102be6102ca9261029f565b6102ab565b82546101f6565b9055565b6102d7906101c2565b90565b6102e3906102ce565b90565b6102ef906102ce565b90565b90565b9061030a610305610311926102e6565b6102f2565b82546101f6565b9055565b61038f61039b9361038a6103836103a2979561037e61037761039697610339610428565b61034b61034461016b565b33906104df565b5061035e610357610177565b33906104df565b5061037161036a61019b565b33906104df565b506101ea565b6005610220565b61024c565b6006610267565b610293565b60076102ae565b6102da565b60086102f5565b565b90565b90565b6103be6103b96103c3926103a4565b6101bf565b6103a7565b90565b6103d060016103aa565b90565b906103df5f199161014a565b9181191691161790565b6103fd6103f8610402926103a7565b6101bf565b6103a7565b90565b90565b9061041d610418610424926103e9565b610405565b82546103d3565b9055565b61043a6104336103c6565b6001610408565b565b5f90565b151590565b61044e90610147565b90565b9061045b90610445565b5f5260205260405f2090565b610470906101c2565b90565b61047c90610467565b90565b9061048990610473565b5f5260205260405f2090565b906104a160ff9161014a565b9181191691161790565b6104b490610440565b90565b90565b906104cf6104ca6104d6926104ab565b6104b7565b8254610495565b9055565b5f0190565b6104e761043c565b506104fc6104f68284906105b6565b15610440565b5f1461058457610523600161051e5f610516818690610451565b01859061047f565b6104ba565b9061052c6105e3565b9061056961056361055d7f2f8788117e7eff1d82e926ec794901d17c78024a50270940304540a733656f0d95610445565b92610473565b92610473565b92610572610038565b8061057c816104da565b0390a4600190565b50505f90565b5f1c90565b60ff1690565b6105a16105a69161058a565b61058f565b90565b6105b39054610595565b90565b6105dc915f6105d16105d7936105ca61043c565b5082610451565b0161047f565b6105a9565b90565b5f90565b6105eb6105df565b50339056fe60806040526004361015610013575b61167c565b61001d5f356101ec565b806301ffc9a7146101e7578063128db35a146101e2578063200f0154146101dd578063248a9ca3146101d85780632f2ff15d146101d35780633078d998146101ce57806332627ec7146101c957806336568abe146101c457806336c9b828146101bf5780633ee1aa79146101ba5780634bf04675146101b55780635c7460d6146101b057806360e21ded146101ab57806364fafd9e146101a65780636d52d194146101a15780636f2b34df1461019c57806391d14854146101975780639ab868f014610192578063a217fddf1461018d578063a3de1bfb14610188578063b06e0b6014610183578063b35aaff01461017e578063ccdbe7bc14610179578063d547741f14610174578063d9a8781b1461016f578063e1300c881461016a578063e29b352114610165578063e7705db6146101605763efee29a30361000e57611640565b6115ac565b611548565b6114fb565b611458565b611424565b6113ef565b61134f565b610fd3565b610f66565b610f02565b610e94565b610e5e565b610e29565b610dbe565b610d39565b610cb3565b610c7e565b610bdc565b6108a5565b610801565b610775565b610740565b610689565b6105bb565b610559565b6104bf565b61031b565b610278565b60e01c90565b60405190565b5f80fd5b5f80fd5b5f80fd5b63ffffffff60e01b1690565b61021981610204565b0361022057565b5f80fd5b9050359061023182610210565b565b9060208282031261024c57610249915f01610224565b90565b6101fc565b151590565b61025f90610251565b9052565b9190610276905f60208501940190610256565b565b346102a8576102a461029361028e366004610233565b611684565b61029b6101f2565b91829182610263565b0390f35b6101f8565b5f9103126102b757565b6101fc565b90565b90565b90565b6102d96102d46102de926102bc565b6102c2565b6102bf565b90565b6102eb60326102c5565b90565b6102f66102e1565b90565b610302906102bf565b9052565b9190610319905f602085019401906102f9565b565b3461034b5761032b3660046102ad565b6103476103366102ee565b61033e6101f2565b91829182610306565b0390f35b6101f8565b60018060a01b031690565b61036490610350565b90565b6103708161035b565b0361037757565b5f80fd5b9050359061038882610367565b565b5f80fd5b5f80fd5b601f801991011690565b634e487b7160e01b5f52604160045260245ffd5b906103ba90610392565b810190811067ffffffffffffffff8211176103d457604052565b61039c565b906103ec6103e56101f2565b92836103b0565b565b67ffffffffffffffff811161040c57610408602091610392565b0190565b61039c565b90825f939282370152565b9092919261043161042c826103ee565b6103d9565b9381855260208501908284011161044d5761044b92610411565b565b61038e565b9080601f830112156104705781602061046d9335910161041c565b90565b61038a565b9190916040818403126104b55761048e835f830161037b565b92602082013567ffffffffffffffff81116104b0576104ad9201610452565b90565b610200565b6101fc565b5f0190565b346104ee576104d86104d2366004610475565b90611cc0565b6104e06101f2565b806104ea816104ba565b0390f35b6101f8565b90565b6104ff816104f3565b0361050657565b5f80fd5b90503590610517826104f6565b565b906020828203126105325761052f915f0161050a565b90565b6101fc565b610540906104f3565b9052565b9190610557905f60208501940190610537565b565b346105895761058561057461056f366004610519565b611ce6565b61057c6101f2565b91829182610544565b0390f35b6101f8565b91906040838203126105b657806105aa6105b3925f860161050a565b9360200161037b565b90565b6101fc565b346105ea576105d46105ce36600461058e565b90611d31565b6105dc6101f2565b806105e6816104ba565b0390f35b6101f8565b1c90565b60018060a01b031690565b61060e90600861061393026105ef565b6105f3565b90565b9061062191546105fe565b90565b61063060075f90610616565b90565b61064761064261064c92610350565b6102c2565b610350565b90565b61065890610633565b90565b6106649061064f565b90565b6106709061065b565b9052565b9190610687905f60208501940190610667565b565b346106b9576106993660046102ad565b6106b56106a4610624565b6106ac6101f2565b91829182610674565b0390f35b6101f8565b906020828203126106d7576106d4915f0161037b565b90565b6101fc565b6106e59061064f565b90565b906106f2906106dc565b5f5260205260405f2090565b90565b61071190600861071693026105ef565b6106fe565b90565b906107249154610701565b90565b61073d906107386004915f926106e8565b610719565b90565b346107705761076c61075b6107563660046106be565b610727565b6107636101f2565b91829182610306565b0390f35b6101f8565b346107a45761078e61078836600461058e565b90611d3d565b6107966101f2565b806107a0816104ba565b0390f35b6101f8565b906020828203126107d9575f82013567ffffffffffffffff81116107d4576107d19201610452565b90565b610200565b6101fc565b9160206107ff9294936107f860408201965f8301906102f9565b01906102f9565b565b34610832576108196108143660046107a9565b611da5565b9061082e6108256101f2565b928392836107de565b0390f35b6101f8565b60018060a01b031690565b61085290600861085793026105ef565b610837565b90565b906108659154610842565b90565b61087460085f9061085a565b90565b6108809061064f565b90565b61088c90610877565b9052565b91906108a3905f60208501940190610883565b565b346108d5576108b53660046102ad565b6108d16108c0610868565b6108c86101f2565b91829182610890565b0390f35b6101f8565b67ffffffffffffffff81116108f25760208091020190565b61039c565b5f80fd5b9092919261091061090b826108da565b6103d9565b938185526020808601920283019281841161094d57915b8383106109345750505050565b60208091610942848661037b565b815201920191610927565b6108f7565b9080601f830112156109705781602061096d933591016108fb565b90565b61038a565b67ffffffffffffffff811161098d5760208091020190565b61039c565b61099b81610251565b036109a257565b5f80fd5b905035906109b382610992565b565b909291926109ca6109c582610975565b6103d9565b9381855260208086019202830192818411610a0757915b8383106109ee5750505050565b602080916109fc84866109a6565b8152019201916109e1565b6108f7565b9080601f83011215610a2a57816020610a27933591016109b5565b90565b61038a565b67ffffffffffffffff8111610a475760208091020190565b61039c565b67ffffffffffffffff8111610a6a57610a66602091610392565b0190565b61039c565b90929192610a84610a7f82610a4c565b6103d9565b93818552602085019082840111610aa057610a9e92610411565b565b61038e565b9080601f83011215610ac357816020610ac093359101610a6f565b90565b61038a565b929190610adc610ad782610a2f565b6103d9565b9381855260208086019202810191838311610b335781905b838210610b02575050505050565b813567ffffffffffffffff8111610b2e57602091610b238784938701610aa5565b815201910190610af4565b61038a565b6108f7565b9080601f83011215610b5657816020610b5393359101610ac8565b90565b61038a565b91606083830312610bd7575f83013567ffffffffffffffff8111610bd25782610b85918501610952565b92602081013567ffffffffffffffff8111610bcd5783610ba6918301610a0c565b92604082013567ffffffffffffffff8111610bc857610bc59201610b38565b90565b610200565b610200565b610200565b6101fc565b34610c0b57610bf5610bef366004610b5b565b91612028565b610bfd6101f2565b80610c07816104ba565b0390f35b6101f8565b60018060a01b031690565b610c2b906008610c3093026105ef565b610c10565b90565b90610c3e9154610c1b565b90565b610c4d60065f90610c33565b90565b610c599061064f565b90565b610c6590610c50565b9052565b9190610c7c905f60208501940190610c5c565b565b34610cae57610c8e3660046102ad565b610caa610c99610c41565b610ca16101f2565b91829182610c69565b0390f35b6101f8565b34610ce357610cdf610cce610cc93660046106be565b612035565b610cd66101f2565b91829182610263565b0390f35b6101f8565b91606083830312610d3457610cff825f850161050a565b92610d0d836020830161050a565b92604082013567ffffffffffffffff8111610d2f57610d2c9201610452565b90565b610200565b6101fc565b34610d6857610d52610d4c366004610ce8565b9161305a565b610d5a6101f2565b80610d64816104ba565b0390f35b6101f8565b91606083830312610db957610d84825f850161037b565b92610d9283602083016109a6565b92604082013567ffffffffffffffff8111610db457610db19201610aa5565b90565b610200565b6101fc565b34610ded57610dd7610dd1366004610d6d565b916138e6565b610ddf6101f2565b80610de9816104ba565b0390f35b6101f8565b90565b610e09610e04610e0e92610df2565b6102c2565b6102bf565b90565b610e1b6003610df5565b90565b610e26610e11565b90565b34610e5957610e393660046102ad565b610e55610e44610e1e565b610e4c6101f2565b91829182610306565b0390f35b6101f8565b34610e8f57610e8b610e7a610e7436600461058e565b90613909565b610e826101f2565b91829182610263565b0390f35b6101f8565b34610ec257610eac610ea73660046106be565b613a9e565b610eb46101f2565b80610ebe816104ba565b0390f35b6101f8565b90565b5f1b90565b610ee3610ede610ee892610ec7565b610eca565b6104f3565b90565b610ef45f610ecf565b90565b610eff610eeb565b90565b34610f3257610f123660046102ad565b610f2e610f1d610ef7565b610f256101f2565b91829182610544565b0390f35b6101f8565b7fe1ceeff6b472ab50a3f14f1250b328fe9202ddcea2fbd5653ecc80b83d8c4e3190565b610f63610f37565b90565b34610f9657610f763660046102ad565b610f92610f81610f5b565b610f896101f2565b91829182610544565b0390f35b6101f8565b90565b610fb2610fad610fb792610f9b565b6102c2565b6102bf565b90565b610fc5611c20610f9e565b90565b610fd0610fba565b90565b3461100357610fe33660046102ad565b610fff610fee610fc8565b610ff66101f2565b91829182610306565b0390f35b6101f8565b90611012906106dc565b5f5260205260405f2090565b5f1c90565b60018060a01b031690565b61103a61103f9161101e565b611023565b90565b61104c905461102e565b90565b90565b61105e6110639161101e565b61104f565b90565b6110709054611052565b90565b61107f6110849161101e565b6106fe565b90565b6110919054611073565b90565b60ff1690565b6110a66110ab9161101e565b611094565b90565b6110b8905461109a565b90565b60081c90565b6110cd6110d2916110bb565b611094565b90565b6110df90546110c1565b90565b634e487b7160e01b5f52602260045260245ffd5b9060016002830492168015611116575b602083101461111157565b6110e2565b91607f1691611106565b60209181520190565b5f5260205f2090565b905f929180549061114c611145836110f6565b8094611120565b916001811690815f146111a35750600114611167575b505050565b6111749192939450611129565b915f925b81841061118b57505001905f8080611162565b60018160209295939554848601520191019290611178565b92949550505060ff19168252151560200201905f8080611162565b906111c891611132565b90565b906111eb6111e4926111db6101f2565b938480926111be565b03836103b0565b565b6111f8906002611008565b6112035f8201611042565b9161121060018301611066565b9161121d60028201611066565b9161122a60038301611087565b91611237600482016110ae565b91611244600483016110d5565b91611251600582016111cb565b9161126a600761126360068501611087565b9301611087565b90565b6112769061035b565b9052565b5190565b60209181520190565b90825f9392825e0152565b6112b16112ba6020936112bf936112a88161127a565b9384809361127e565b95869101611287565b610392565b0190565b946101009661132461132e9261131a6113469861134d9d9f9e9c969761133b996113066113109260208f6112ff61012082019e5f83019061126d565b0190610537565b60408d0190610537565b60608b01906102f9565b6080890190610256565b60a0870190610256565b84820360c0860152611292565b9660e08301906102f9565b01906102f9565b565b346113895761138561136a6113653660046106be565b6111ed565b9561137c9997999591959492946101f2565b998a998a6112c3565b0390f35b6101f8565b611397906104f3565b90565b906113a49061138e565b5f5260205260405f2090565b6113c09060086113c593026105ef565b611094565b90565b906113d391546113b0565b90565b6113ec906113e76003915f9261139a565b6113c8565b90565b3461141f5761141b61140a611405366004610519565b6113d6565b6114126101f2565b91829182610263565b0390f35b6101f8565b346114535761143d61143736600461058e565b90613ad3565b6114456101f2565b8061144f816104ba565b0390f35b6101f8565b346114885761148461147361146e3660046106be565b613bdb565b61147b6101f2565b91829182610263565b0390f35b6101f8565b60018060a01b031690565b6114a89060086114ad93026105ef565b61148d565b90565b906114bb9154611498565b90565b6114ca60055f906114b0565b90565b6114d69061064f565b90565b6114e2906114cd565b9052565b91906114f9905f602085019401906114d9565b565b3461152b5761150b3660046102ad565b6115276115166114be565b61151e6101f2565b918291826114e6565b0390f35b6101f8565b61153a6003610df5565b90565b611545611530565b90565b34611578576115583660046102ad565b61157461156361153d565b61156b6101f2565b91829182610306565b0390f35b6101f8565b7f0ce23c3e399818cfee81a7ab0880f714e53d7672b08df0fa62f2843416e1ea0990565b6115a961157d565b90565b346115dc576115bc3660046102ad565b6115d86115c76115a1565b6115cf6101f2565b91829182610544565b0390f35b6101f8565b916116379161163e9698979561161f60a09661161561162c9561160b60c08a01965f8b0190610537565b60208901906102f9565b6040870190610256565b8482036060860152611292565b9660808301906102f9565b01906102f9565b565b346116775761167361165b6116563660046106be565b613ccd565b9261166a9694969291926101f2565b968796876115e1565b0390f35b6101f8565b5f80fd5b5f90565b61168c611680565b50806116a76116a1637965db0b60e01b610204565b91610204565b149081156116b4575b5090565b6116be9150613d6c565b5f6116b0565b906116de916116d96116d461157d565b613d92565b611a4e565b565b5f7f41616468616172206e6f74207665726966696564000000000000000000000000910152565b611714601460209261127e565b61171d816116e0565b0190565b6117369060208101905f818303910152611707565b90565b1561174057565b6117486101f2565b62461bcd60e51b81528061175e60048201611721565b0390fd5b9061176e60ff91610eca565b9181191691161790565b61178190610251565b90565b90565b9061179c6117976117a392611778565b611784565b8254611762565b9055565b60081b90565b906117ba61ff00916117a7565b9181191691161790565b906117d96117d46117e092611778565b611784565b82546117ad565b9055565b6117f06117f59161101e565b610c10565b90565b61180290546117e4565b90565b5f80fd5b60e01b90565b5f91031261181957565b6101fc565b5f7f6161646861617200000000000000000000000000000000000000000000000000910152565b611852600760209261127e565b61185b8161181e565b0190565b929160406118886118909361187b60608801915f89019061126d565b8681036020880152611845565b940190610256565b565b61189a6101f2565b3d5f823e3d90fd5b6118ae6118b39161101e565b6105f3565b90565b6118c090546118a2565b90565b90565b6118da6118d56118df926102bf565b6102c2565b6118c3565b90565b634e487b7160e01b5f52601160045260245ffd5b6118ff906118c3565b600160ff1b811461190f575f0390565b6118e2565b61191d906118c3565b9052565b5f7f4161646861617220766572696669636174696f6e207265766f6b656400000000910152565b611955601c60209261127e565b61195e81611921565b0190565b6119846119919361197a60608401945f85019061126d565b6020830190611914565b6040818303910152611948565b90565b6119a06119a59161101e565b61148d565b90565b6119b29054611994565b90565b90565b60200190565b5190565b5f7f414144484141525f564552494649434154494f4e5f5245564f4b454400000000910152565b6119f6601c60209261127e565b6119ff816119c2565b0190565b916040611a34929493611a2d611a22606083018381035f8501526119e9565b96602083019061126d565b0190610537565b565b611a4b9160208201915f818403910152611292565b90565b611a6d611a686004611a6260028590611008565b016110ae565b611739565b611a855f6004611a7f60028590611008565b01611787565b611a9d5f6004611a9760028590611008565b016117c4565b611aaf611aaa60066117f8565b610c50565b63df551ce8825f92803b15611cbb57611adb5f8094611ae6611acf6101f2565b97889687958694611809565b84526004840161185f565b03925af18015611cb657611c8a575b50611b08611b0360076118b6565b61065b565b630cc9ec5b82611b26611b21611b1c6102e1565b6118c6565b6118f6565b92803b15611c8557611b4b5f8094611b56611b3f6101f2565b97889687958694611809565b845260048401611962565b03925af18015611c8057611c54575b50611b78611b7360056119a8565b6114cd565b635260590a82611b87856119b5565b611b99611b93826119be565b916119b8565b2092803b15611c4f57611bbf5f8094611bca611bb36101f2565b97889687958694611809565b845260048401611a03565b03925af18015611c4a57611c1e575b50611c19611c077f167e94ae83c3aeef2ed7a4010f803c44fd9a9f4bbf8432af2141c984ba2398bb926106dc565b92611c106101f2565b91829182611a36565b0390a2565b611c3d905f3d8111611c43575b611c3581836103b0565b81019061180f565b5f611bd9565b503d611c2b565b611892565b611805565b611c73905f3d8111611c79575b611c6b81836103b0565b81019061180f565b5f611b65565b503d611c61565b611892565b611805565b611ca9905f3d8111611caf575b611ca181836103b0565b81019061180f565b5f611af5565b503d611c97565b611892565b611805565b90611cca916116c4565b565b5f90565b90611cda9061138e565b5f5260205260405f2090565b6001611cfe611d0492611cf7611ccc565b505f611cd0565b01611066565b90565b90611d2291611d1d611d1882611ce6565b613d92565b611d24565b565b90611d2e91613da6565b50565b90611d3b91611d07565b565b9080611d58611d52611d4d613e55565b61035b565b9161035b565b03611d6957611d6691613e62565b50565b5f63334bd91960e11b815280611d81600482016104ba565b0390fd5b5f90565b611d9d611d98611da292610ec7565b6102c2565b6102bf565b90565b50611dae611d85565b50611db7611d85565b505f90611dcd611dc75f93611d89565b92611d89565b90565b90611deb9291611de6611de1610f37565b613d92565b611f18565b565b5190565b5190565b5190565b5f7f4172726179206c656e67746873206d757374206d617463680000000000000000910152565b611e2d601860209261127e565b611e3681611df9565b0190565b611e4f9060208101905f818303910152611e20565b90565b15611e5957565b611e616101f2565b62461bcd60e51b815280611e7760048201611e3a565b0390fd5b6001611e8791016102bf565b90565b634e487b7160e01b5f52603260045260245ffd5b90611ea882611ded565b811015611eb9576020809102010190565b611e8a565b611ec8905161035b565b90565b90611ed582611df1565b811015611ee6576020809102010190565b611e8a565b611ef59051610251565b90565b90611f0282611df5565b811015611f13576020809102010190565b611e8a565b90611f2282611ded565b611f3c611f36611f3184611df1565b6102bf565b916102bf565b1480611ff9575b611f4c90611e52565b611f555f611d89565b5b80611f71611f6b611f6686611ded565b6102bf565b916102bf565b1015611ff357611fae90611fa46004611f9e6002611f98611f93898790611e9e565b611ebe565b90611008565b016110d5565b611fb3575b611e7b565b611f56565b611fee611fc9611fc4868490611e9e565b611ebe565b611fdc611fd7868590611ecb565b611eeb565b611fe7888590611ef8565b51916138e6565b611fa9565b50505050565b50611f4c61200682611df1565b61202061201a61201587611df5565b6102bf565b916102bf565b149050611f43565b906120339291611dd0565b565b61203d611680565b50612055600461204f60028490611008565b016110ae565b9081612060575b5090565b61207891506120726004916002611008565b016110d5565b5f61205c565b90612091929161208c613f2f565b612ae8565b612099613f94565b565b905051906120a882610992565b565b906020828203126120c3576120c0915f0161209b565b90565b6101fc565b91906120db905f6020850194019061126d565b565b5f7f55736572206e6f74207265676973746572656400000000000000000000000000910152565b612111601360209261127e565b61211a816120dd565b0190565b6121339060208101905f818303910152612104565b90565b1561213d57565b6121456101f2565b62461bcd60e51b81528061215b6004820161211e565b0390fd5b5f7f4964656e74697479206973206c6f636b65640000000000000000000000000000910152565b612193601260209261127e565b61219c8161215f565b0190565b6121b59060208101905f818303910152612186565b90565b156121bf57565b6121c76101f2565b62461bcd60e51b8152806121dd600482016121a0565b0390fd5b6121ed6121f29161101e565b610837565b90565b6121ff90546121e1565b90565b5f7f4661636520766572696669636174696f6e207265717569726564206669727374910152565b6122356020809261127e565b61223e81612202565b0190565b6122579060208101905f818303910152612229565b90565b1561226157565b6122696101f2565b62461bcd60e51b81528061227f60048201612242565b0390fd5b60207f6976650000000000000000000000000000000000000000000000000000000000917f4161646861617220766572696669636174696f6e20616c7265616479206163745f8201520152565b6122dd602360409261127e565b6122e681612283565b0190565b6122ff9060208101905f8183039101526122d0565b90565b1561230957565b6123116101f2565b62461bcd60e51b815280612327600482016122ea565b0390fd5b5f7f41616468616172206861736820616c7265616479207573656400000000000000910152565b61235f601960209261127e565b6123688161232b565b0190565b6123819060208101905f818303910152612352565b90565b1561238b57565b6123936101f2565b62461bcd60e51b8152806123a96004820161236c565b0390fd5b5f7f496e76616c696420416164686161722068617368000000000000000000000000910152565b6123e1601460209261127e565b6123ea816123ad565b0190565b6124039060208101905f8183039101526123d4565b90565b1561240d57565b6124156101f2565b62461bcd60e51b81528061242b600482016123ee565b0390fd5b5f7f496e76616c6964204f5450206861736800000000000000000000000000000000910152565b612463601060209261127e565b61246c8161242f565b0190565b6124859060208101905f818303910152612456565b90565b1561248f57565b6124976101f2565b62461bcd60e51b8152806124ad60048201612470565b0390fd5b5f7f456d70747920766572696669636174696f6e206d6574686f6400000000000000910152565b6124e5601960209261127e565b6124ee816124b1565b0190565b6125079060208101905f8183039101526124d8565b90565b1561251157565b6125196101f2565b62461bcd60e51b81528061252f600482016124f2565b0390fd5b5f7f546f6f206d616e79206661696c656420617474656d7074730000000000000000910152565b612567601860209261127e565b61257081612533565b0190565b6125899060208101905f81830391015261255a565b90565b1561259357565b61259b6101f2565b62461bcd60e51b8152806125b160048201612574565b0390fd5b90565b6125c76125cd919392936102bf565b926102bf565b82018092116125d857565b6118e2565b5f7f526574727920636f6f6c646f776e206e6f742065787069726564000000000000910152565b612611601a60209261127e565b61261a816125dd565b0190565b6126339060208101905f818303910152612604565b90565b1561263d57565b6126456101f2565b62461bcd60e51b81528061265b6004820161261e565b0390fd5b90565b61267661267161267b9261265f565b6102c2565b6102bf565b90565b6126896101206103d9565b90565b906126969061035b565b9052565b906126a4906104f3565b9052565b906126b2906102bf565b9052565b906126c090610251565b9052565b52565b906126d860018060a01b0391610eca565b9181191691161790565b90565b906126fa6126f5612701926106dc565b6126e2565b82546126c7565b9055565b61270f90516104f3565b90565b9061271e5f1991610eca565b9181191691161790565b6127319061101e565b90565b906127496127446127509261138e565b612728565b8254612712565b9055565b61275e90516102bf565b90565b61277561277061277a926102bf565b6102c2565b6102bf565b90565b90565b9061279561279061279c92612761565b61277d565b8254612712565b9055565b5190565b601f602091010490565b1b90565b919060086127cd9102916127c75f19846127ae565b926127ae565b9181191691161790565b91906127ed6127e86127f593612761565b61277d565b9083546127b2565b9055565b61280b91612805611d85565b916127d7565b565b5b818110612819575050565b806128265f6001936127f9565b0161280e565b9190601f811161283c575b505050565b61284861286d93611129565b906020612854846127a4565b83019310612875575b612866906127a4565b019061280d565b5f8080612837565b91506128668192905061285d565b90612893905f19906008026105ef565b191690565b816128a291612883565b906002021790565b906128b48161127a565b9067ffffffffffffffff8211612974576128d8826128d285546110f6565b8561282c565b602090601f831160011461290c579180916128fb935f92612900575b5050612898565b90555b565b90915001515f806128f4565b601f1983169161291b85611129565b925f5b81811061295c57509160029391856001969410612942575b505050020190556128fe565b612952910151601f841690612883565b90555f8080612936565b9193602060018192878701518155019501920161291e565b61039c565b90612983916128aa565b565b90612a606101006007612a66946129a95f82016129a35f8801611ebe565b906126e5565b6129c2600182016129bc60208801612705565b90612734565b6129db600282016129d560408801612705565b90612734565b6129f4600382016129ee60608801612754565b90612780565b612a0d60048201612a0760808801611eeb565b90611787565b612a2660048201612a2060a08801611eeb565b906117c4565b612a3f60058201612a3960c088016127a0565b90612979565b612a5860068201612a5260e08801612754565b90612780565b019201612754565b90612780565b565b90612a7291612985565b565b5f7f414144484141525f564552494649434154494f4e5f5245515545535445440000910152565b612aa8601e60209261127e565b612ab181612a74565b0190565b916040612ae6929493612adf612ad4606083018381035f850152612a9b565b96602083019061126d565b0190610537565b565b9091612b2b6020612b01612afc60066117f8565b610c50565b63c3c5a54790612b203392612b146101f2565b95869485938493611809565b8352600483016120c8565b03915afa801561305557612b46915f91613027575b50612136565b612b876020612b5d612b5860066117f8565b610c50565b63e2b104ec90612b7c3392612b706101f2565b95869485938493611809565b8352600483016120c8565b03915afa90811561302257612bad91612ba8915f91612ff4575b5015610251565b6121b8565b612bee6020612bc4612bbf60086121f5565b610877565b636272814490612be33392612bd76101f2565b95869485938493611809565b8352600483016120c8565b03915afa8015612fef57612c09915f91612fc1575b5061225a565b612c31612c2c612c266004612c2060023390611008565b016110d5565b15610251565b612302565b612c56612c51612c4b612c466003869061139a565b6110ae565b15610251565b612384565b612c7b82612c74612c6e612c695f610ecf565b6104f3565b916104f3565b1415612406565b612ca083612c99612c93612c8e5f610ecf565b6104f3565b916104f3565b1415612488565b612ccc612cb4612caf836119b5565b6119be565b612cc6612cc05f611d89565b916102bf565b1161250a565b612d02612ce3612cde600433906106e8565b611087565b612cfc612cf6612cf1610e11565b6102bf565b916102bf565b1061258c565b612d16612d1160023390611008565b6125b5565b92612d2360068501611087565b612d35612d2f5f611d89565b916102bf565b11612f83575b339183919042905f6001919288600601612d5490611087565b6001612d5f90612662565b612d68916125b8565b944296612d7361267e565b985f8a0190612d819161268c565b6020890190612d8f9161269a565b6040880190612d9d9161269a565b6060870190612dab916126a8565b6080860190612db9916126b6565b60a0850190612dc7916126b6565b60c0840190612dd5916126c4565b60e0830190612de3916126a8565b610100820190612df2916126a8565b600233612dfe91611008565b90612e0891612a68565b6001600382612e169161139a565b90612e2091611787565b612e2a60056119a8565b612e33906114cd565b635260590a338392803b15612f7e57612e5f5f8094612e6a612e536101f2565b97889687958694611809565b845260048401612ab5565b03925af18015612f7957612f4d575b5033612eba612ea87fd57c68bf16e5838155e2f2f6660208c80a010ea19391c95fbed1df82e24b1854926106dc565b92612eb16101f2565b91829182610544565b0390a2612ec960068201611087565b612edb612ed55f611d89565b916102bf565b11612ee4575b50565b612f04612ef46006339301611087565b612efe6001612662565b906125b8565b90612f44612f327f30ff2bec84f72357de7212ce8650c52e73468e1a5ef796a126339f156d4d52fd926106dc565b92612f3b6101f2565b91829182610306565b0390a25f612ee1565b612f6c905f3d8111612f72575b612f6481836103b0565b81019061180f565b5f612e79565b503d612f5a565b611892565b611805565b612fbc42612fb5612faf612faa612f9c60078a01611087565b612fa4610fba565b906125b8565b6102bf565b916102bf565b1015612636565b612d3b565b612fe2915060203d8111612fe8575b612fda81836103b0565b8101906120aa565b5f612c03565b503d612fd0565b611892565b613015915060203d811161301b575b61300d81836103b0565b8101906120aa565b5f612ba1565b503d613003565b611892565b613048915060203d811161304e575b61304081836103b0565b8101906120aa565b5f612b40565b503d613036565b611892565b90613065929161207e565b565b90613082929161307d613078610f37565b613d92565b613523565b565b5f7f4e6f20616374697665204161646861617220766572696669636174696f6e0000910152565b6130b8601e60209261127e565b6130c181613084565b0190565b6130da9060208101905f8183039101526130ab565b90565b156130e457565b6130ec6101f2565b62461bcd60e51b815280613102600482016130c5565b0390fd5b5f7f496e76616c6964205549444149207369676e6174757265000000000000000000910152565b61313a601760209261127e565b61314381613106565b0190565b61315c9060208101905f81830391015261312d565b90565b1561316657565b61316e6101f2565b62461bcd60e51b81528061318460048201613147565b0390fd5b613191906102bf565b5f19811461319f5760010190565b6118e2565b90565b6131bb6131b66131c0926131a4565b6102c2565b6118c3565b90565b6131cc906131a7565b9052565b5f7f4161646861617220766572696669636174696f6e206661696c65640000000000910152565b613204601b60209261127e565b61320d816131d0565b0190565b6132336132409361322960608401945f85019061126d565b60208301906131c3565b60408183039101526131f7565b90565b5f7f4161646861617220766572696669636174696f6e20636f6d706c657465640000910152565b613277601e60209261127e565b61328081613243565b0190565b6132a66132b39361329c60608401945f85019061126d565b6020830190611914565b604081830391015261326a565b90565b906132c86132c3836103ee565b6103d9565b918252565b5f7f414144484141525f564552494649434154494f4e5f4641494c45440000000000910152565b6132fe601b6132b6565b9061330b602083016132cd565b565b6133156132f4565b90565b5f7f414144484141525f564552494649434154494f4e5f5355434345535300000000910152565b613349601c6132b6565b9061335660208301613318565b565b61336061333f565b90565b905090565b905f929180549061338261337b836110f6565b8094613363565b916001811690815f146133d4575060011461339d575b505050565b6133aa9192939450611129565b5f905b8382106133c057505001905f8080613398565b6001816020925484860152019101906133ad565b92949550505060ff191682528015150201905f8080613398565b60f81b90565b6133fd906133ee565b90565b613409906133f4565b90565b61341861341d91610251565b613400565b9052565b6134316134389160019493613368565b809261340c565b0190565b60409061346861345d61346f9597969460608401908482035f860152611292565b96602083019061126d565b0190610537565b565b905f929180549061348b613484836110f6565b809461127e565b916001811690815f146134e257506001146134a6575b505050565b6134b39192939450611129565b915f925b8184106134ca57505001905f80806134a1565b600181602092959395548486015201910192906134b7565b92949550505060ff19168252151560200201905f80806134a1565b916135209261351360408201935f830190610256565b6020818403910152613471565b90565b916135546135599161354a613545600461353f60028990611008565b016110d5565b6130dd565b8490849091614145565b61315f565b61357181600461356b60028690611008565b01611787565b805f146138125761358a61358560066117f8565b610c50565b63df551ce883600192803b1561380d576135b75f80946135c26135ab6101f2565b97889687958694611809565b84526004840161185f565b03925af18015613808576137dc575b506135e46135df60076118b6565b61065b565b630cc9ec5b836135fa6135f56102e1565b6118c6565b92803b156137d75761361f5f809461362a6136136101f2565b97889687958694611809565b845260048401613284565b03925af180156137d2576137a6575b506136576136465f611d89565b613652600485906106e8565b612780565b5b61366a61366560056119a8565b6114cd565b635260590a825f146137995761367e613358565b5b8492600561368f60028890611008565b016136bb86916136ac6136a06101f2565b93849260208401613421565b602082018103825203826103b0565b6136cd6136c7826119be565b916119b8565b2092813b15613794575f6136f4916136ff82966136e86101f2565b98899788968795611809565b85526004850161343c565b03925af1801561378f57613763575b50600561371e8392936002611008565b016137497f37555b62638166a2e19398e6c2faa912328cb54534247eb3f1ed93bd9cf74136926106dc565b9261375e6137556101f2565b928392836134fd565b0390a2565b613782905f3d8111613788575b61377a81836103b0565b81019061180f565b5f61370e565b503d613770565b611892565b611805565b6137a161330d565b61367f565b6137c5905f3d81116137cb575b6137bd81836103b0565b81019061180f565b5f613639565b503d6137b3565b611892565b611805565b6137fb905f3d8111613801575b6137f381836103b0565b81019061180f565b5f6135d1565b503d6137e9565b611892565b611805565b61382a5f600461382460028690611008565b016117c4565b613850613839600484906106e8565b61384a61384582611087565b613188565b90612780565b61386261385d60076118b6565b61065b565b630cc9ec5b8360091992803b156138e1576138905f809461389b6138846101f2565b97889687958694611809565b845260048401613211565b03925af180156138dc576138b0575b50613658565b6138cf905f3d81116138d5575b6138c781836103b0565b81019061180f565b5f6138aa565b503d6138bd565b611892565b611805565b906138f19291613067565b565b906138fd906106dc565b5f5260205260405f2090565b61392f915f61392461392a9361391d611680565b5082611cd0565b016138f3565b6110ae565b90565b61394b9061394661394161157d565b613d92565b6139e7565b565b60207f5345540000000000000000000000000000000000000000000000000000000000917f414144484141525f564552494649434154494f4e5f415454454d5054535f52455f8201520152565b6139a7602360409261127e565b6139b08161394d565b0190565b9160406139e59294936139de6139d3606083018381035f85015261399a565b96602083019061126d565b0190610537565b565b613a046139f35f611d89565b6139ff600484906106e8565b612780565b613a16613a1160056119a8565b6114cd565b90635260590a90613a265f610ecf565b92803b15613a9957613a4b5f8094613a56613a3f6101f2565b97889687958694611809565b8452600484016139b4565b03925af18015613a9457613a68575b50565b613a87905f3d8111613a8d575b613a7f81836103b0565b81019061180f565b5f613a65565b503d613a75565b611892565b611805565b613aa790613932565b565b90613ac491613abf613aba82611ce6565b613d92565b613ac6565b565b90613ad091613e62565b50565b90613add91613aa9565b565b613aea6101206103d9565b90565b90613bcd613bc36007613afe613adf565b94613b15613b0d5f8301611042565b5f880161268c565b613b2d613b2460018301611066565b6020880161269a565b613b45613b3c60028301611066565b6040880161269a565b613b5d613b5460038301611087565b606088016126a8565b613b75613b6c600483016110ae565b608088016126b6565b613b8d613b84600483016110d5565b60a088016126b6565b613ba5613b9c600583016111cb565b60c088016126c4565b613bbd613bb460068301611087565b60e088016126a8565b01611087565b61010084016126a8565b565b613bd890613aed565b90565b613be3611680565b50613bf8613bf3600483906106e8565b611087565b613c11613c0b613c06610e11565b6102bf565b916102bf565b1015613cc357613c2e6006613c2860028490611008565b01611087565b613c47613c41613c3c611530565b6102bf565b916102bf565b1015613cbe57613c5b613c60916002611008565b613bcf565b613c6c60e08201612754565b613c7e613c785f611d89565b916102bf565b11613c895750600190565b613cb9613cb3613cae613ca0610100429501612754565b613ca8610fba565b906125b8565b6102bf565b916102bf565b101590565b505f90565b505f90565b606090565b90613cd6611ccc565b50613cdf611d85565b50613ce8611680565b50613cf1613cc8565b50613cfa611d85565b50613d03611d85565b50613d18613d1360028490611008565b613bcf565b613d2460208201612705565b92613d3160608301612754565b93613d3e60808401611eeb565b93613d63613d5e613d5660e060c08801519701612754565b9460046106e8565b611087565b91959493929190565b613d74611680565b50613d8e613d886301ffc9a760e01b610204565b91610204565b1490565b613da490613d9e613e55565b90614245565b565b613dae611680565b50613dc3613dbd828490613909565b15610251565b5f14613e4b57613dea6001613de55f613ddd818690611cd0565b0185906138f3565b611787565b90613df3613e55565b90613e30613e2a613e247f2f8788117e7eff1d82e926ec794901d17c78024a50270940304540a733656f0d9561138e565b926106dc565b926106dc565b92613e396101f2565b80613e43816104ba565b0390a4600190565b50505f90565b5f90565b613e5d613e51565b503390565b613e6a611680565b50613e76818390613909565b5f14613efd57613e9c5f613e975f613e8f818690611cd0565b0185906138f3565b611787565b90613ea5613e55565b90613ee2613edc613ed67ff6391f5c32d9c69d2a47ea670b442974b53935d1edc7fd64eb21e047a839171b9561138e565b926106dc565b926106dc565b92613eeb6101f2565b80613ef5816104ba565b0390a4600190565b50505f90565b90565b613f1a613f15613f1f92613f03565b6102c2565b6102bf565b90565b613f2c6002613f06565b90565b613f396001611087565b613f52613f4c613f47613f22565b6102bf565b916102bf565b14613f6b57613f69613f62613f22565b6001612780565b565b5f633ee5aeb560e01b815280613f83600482016104ba565b0390fd5b613f916001612662565b90565b613fa6613f9f613f87565b6001612780565b565b90565b613fbf613fba613fc492613fa8565b6102c2565b6102bf565b90565b5f7f496e76616c6964207369676e6174757265206c656e6774680000000000000000910152565b613ffb601860209261127e565b61400481613fc7565b0190565b61401d9060208101905f818303910152613fee565b90565b1561402757565b61402f6101f2565b62461bcd60e51b81528061404560048201614008565b0390fd5b61405d61405861406292610ec7565b6102c2565b610350565b90565b61406e90614049565b90565b5f7f496e76616c696420757365722061646472657373000000000000000000000000910152565b6140a5601460209261127e565b6140ae81614071565b0190565b6140c79060208101905f818303910152614098565b90565b156140d157565b6140d96101f2565b62461bcd60e51b8152806140ef600482016140b2565b0390fd5b60601b90565b614102906140f3565b90565b61410e906140f9565b90565b61411d6141229161035b565b614105565b9052565b6014816141396141419360019695614111565b01809261340c565b0190565b906141c76141e092614155611680565b5061417c614162866119be565b61417561416f6041613fab565b916102bf565b1015614020565b6141a18161419a61419461418f5f614065565b61035b565b9161035b565b14156140ca565b6141b86141ac6101f2565b93849260208401614126565b602082018103825203826103b0565b6141d96141d3826119be565b916119b8565b20916119be565b6141f26141ec5f611d89565b916102bf565b1190816141fe575b5090565b905061421a61421461420f5f610ecf565b6104f3565b916104f3565b14155f6141fa565b91602061424392949361423c60408201965f83019061126d565b0190610537565b565b9061425a614254838390613909565b15610251565b614262575050565b61427c5f92839263e2517d3f60e01b845260048401614222565b0390fdfea2646970667358221220b603386bf1f2b67c8b7dc8ec3317a1076cf628ed52c0131ea557a58d03f3e72164736f6c634300081e0033","linkReferences":{}},"methodIdentifiers":{"AADHAAR_VERIFICATION_SCORE()":"128db35a","DEFAULT_ADMIN_ROLE()":"a217fddf","MAX_FAILED_ATTEMPTS()":"6f2b34df","MAX_RETRY_ATTEMPTS()":"e29b3521","RETRY_COOLDOWN()":"b06e0b60","UIDAI_ORACLE_ROLE()":"a3de1bfb","VERIFIER_ROLE()":"e7705db6","aadhaarVerifications(address)":"b35aaff0","bulkCompleteAadhaarVerification(address[],bool[],bytes[])":"4bf04675","canRetryVerification(address)":"d9a8781b","completeAadhaarVerification(address,bool,bytes)":"6d52d194","faceVerificationManager()":"3ee1aa79","failedAttempts(address)":"32627ec7","getAadhaarVerificationInfo(address)":"efee29a3","getRoleAdmin(bytes32)":"248a9ca3","getVerificationMethodStats(string)":"36c9b828","grantRole(bytes32,address)":"2f2ff15d","hasRole(bytes32,address)":"91d14854","isAadhaarVerified(address)":"60e21ded","renounceRole(bytes32,address)":"36568abe","requestAadhaarVerification(bytes32,bytes32,string)":"64fafd9e","resetFailedAttempts(address)":"9ab868f0","revokeAadhaarVerification(address,string)":"200f0154","revokeRole(bytes32,address)":"d547741f","supportsInterface(bytes4)":"01ffc9a7","trustScore()":"3078d998","usedAadhaarHashes(bytes32)":"ccdbe7bc","userRegistry()":"5c7460d6","verificationLogger()":"e1300c88"},"id":22}