{"abi":[{"type":"constructor","inputs":[{"name":"_verificationLogger","type":"address","internalType":"address"},{"name":"_guardianManager","type":"address","internalType":"address"},{"name":"_trustScore","type":"address","internalType":"address"},{"name":"_walletImplementation","type":"address","internalType":"address"},{"name":"_entryPoint","type":"address","internalType":"address"}],"stateMutability":"nonpayable"},{"type":"receive","stateMutability":"payable"},{"type":"function","name":"DEFAULT_ADMIN_ROLE","inputs":[],"outputs":[{"name":"","type":"bytes32","internalType":"bytes32"}],"stateMutability":"view"},{"type":"function","name":"PAYMASTER_ROLE","inputs":[],"outputs":[{"name":"","type":"bytes32","internalType":"bytes32"}],"stateMutability":"view"},{"type":"function","name":"WALLET_ADMIN_ROLE","inputs":[],"outputs":[{"name":"","type":"bytes32","internalType":"bytes32"}],"stateMutability":"view"},{"type":"function","name":"addSessionKey","inputs":[{"name":"wallet","type":"address","internalType":"address"},{"name":"sessionKey","type":"address","internalType":"address"},{"name":"validUntil","type":"uint256","internalType":"uint256"},{"name":"spendingLimit","type":"uint256","internalType":"uint256"},{"name":"allowedFunctions","type":"string[]","internalType":"string[]"},{"name":"allowedContracts","type":"address[]","internalType":"address[]"}],"outputs":[],"stateMutability":"nonpayable"},{"type":"function","name":"allWallets","inputs":[{"name":"","type":"uint256","internalType":"uint256"}],"outputs":[{"name":"","type":"address","internalType":"address"}],"stateMutability":"view"},{"type":"function","name":"confirmRecovery","inputs":[{"name":"recoveryId","type":"uint256","internalType":"uint256"},{"name":"wallet","type":"address","internalType":"address"}],"outputs":[],"stateMutability":"nonpayable"},{"type":"function","name":"createWallet","inputs":[{"name":"walletType","type":"uint8","internalType":"enum AAWalletManager.WalletType"},{"name":"salt","type":"bytes32","internalType":"bytes32"},{"name":"initialSigners","type":"address[]","internalType":"address[]"},{"name":"signatureThreshold","type":"uint256","internalType":"uint256"},{"name":"trustScoreThreshold","type":"uint256","internalType":"uint256"},{"name":"dailySpendingLimit","type":"uint256","internalType":"uint256"}],"outputs":[{"name":"","type":"address","internalType":"address"}],"stateMutability":"payable"},{"type":"function","name":"creationFee","inputs":[],"outputs":[{"name":"","type":"uint256","internalType":"uint256"}],"stateMutability":"view"},{"type":"function","name":"deployWallet","inputs":[{"name":"walletAddress","type":"address","internalType":"address"}],"outputs":[],"stateMutability":"nonpayable"},{"type":"function","name":"entryPoint","inputs":[],"outputs":[{"name":"","type":"address","internalType":"address"}],"stateMutability":"view"},{"type":"function","name":"executeRecovery","inputs":[{"name":"recoveryId","type":"uint256","internalType":"uint256"},{"name":"wallet","type":"address","internalType":"address"}],"outputs":[],"stateMutability":"nonpayable"},{"type":"function","name":"executeUserOp","inputs":[{"name":"userOp","type":"tuple","internalType":"struct IUserOp.UserOperation","components":[{"name":"sender","type":"address","internalType":"address"},{"name":"nonce","type":"uint256","internalType":"uint256"},{"name":"initCode","type":"bytes","internalType":"bytes"},{"name":"callData","type":"bytes","internalType":"bytes"},{"name":"callGasLimit","type":"uint256","internalType":"uint256"},{"name":"verificationGasLimit","type":"uint256","internalType":"uint256"},{"name":"preVerificationGas","type":"uint256","internalType":"uint256"},{"name":"maxFeePerGas","type":"uint256","internalType":"uint256"},{"name":"maxPriorityFeePerGas","type":"uint256","internalType":"uint256"},{"name":"paymasterAndData","type":"bytes","internalType":"bytes"},{"name":"signature","type":"bytes","internalType":"bytes"}]},{"name":"userOpHash","type":"bytes32","internalType":"bytes32"}],"outputs":[{"name":"","type":"bool","internalType":"bool"}],"stateMutability":"nonpayable"},{"type":"function","name":"getAllWallets","inputs":[],"outputs":[{"name":"","type":"address[]","internalType":"address[]"}],"stateMutability":"view"},{"type":"function","name":"getRecoveries","inputs":[{"name":"wallet","type":"address","internalType":"address"}],"outputs":[{"name":"","type":"uint256","internalType":"uint256"}],"stateMutability":"view"},{"type":"function","name":"getRoleAdmin","inputs":[{"name":"role","type":"bytes32","internalType":"bytes32"}],"outputs":[{"name":"","type":"bytes32","internalType":"bytes32"}],"stateMutability":"view"},{"type":"function","name":"getSessionKeys","inputs":[{"name":"wallet","type":"address","internalType":"address"}],"outputs":[{"name":"","type":"address[]","internalType":"address[]"}],"stateMutability":"view"},{"type":"function","name":"getUserWallet","inputs":[{"name":"user","type":"address","internalType":"address"}],"outputs":[{"name":"","type":"address","internalType":"address"}],"stateMutability":"view"},{"type":"function","name":"getWallet","inputs":[{"name":"walletAddress","type":"address","internalType":"address"}],"outputs":[{"name":"owner","type":"address","internalType":"address"},{"name":"walletType","type":"uint8","internalType":"enum AAWalletManager.WalletType"},{"name":"status","type":"uint8","internalType":"enum AAWalletManager.WalletStatus"},{"name":"nonce","type":"uint256","internalType":"uint256"},{"name":"isDeployed","type":"bool","internalType":"bool"},{"name":"dailySpendingLimit","type":"uint256","internalType":"uint256"},{"name":"spentToday","type":"uint256","internalType":"uint256"}],"stateMutability":"view"},{"type":"function","name":"getWalletStats","inputs":[{"name":"wallet","type":"address","internalType":"address"}],"outputs":[{"name":"","type":"tuple","internalType":"struct AAWalletManager.UserOpStats","components":[{"name":"totalOps","type":"uint256","internalType":"uint256"},{"name":"successfulOps","type":"uint256","internalType":"uint256"},{"name":"failedOps","type":"uint256","internalType":"uint256"},{"name":"totalGasUsed","type":"uint256","internalType":"uint256"},{"name":"totalFeesPaid","type":"uint256","internalType":"uint256"},{"name":"lastOpTimestamp","type":"uint256","internalType":"uint256"}]}],"stateMutability":"view"},{"type":"function","name":"grantRole","inputs":[{"name":"role","type":"bytes32","internalType":"bytes32"},{"name":"account","type":"address","internalType":"address"}],"outputs":[],"stateMutability":"nonpayable"},{"type":"function","name":"guardianManager","inputs":[],"outputs":[{"name":"","type":"address","internalType":"contract IGuardianManager"}],"stateMutability":"view"},{"type":"function","name":"hasRole","inputs":[{"name":"role","type":"bytes32","internalType":"bytes32"},{"name":"account","type":"address","internalType":"address"}],"outputs":[{"name":"","type":"bool","internalType":"bool"}],"stateMutability":"view"},{"type":"function","name":"isSessionKeyValid","inputs":[{"name":"wallet","type":"address","internalType":"address"},{"name":"sessionKey","type":"address","internalType":"address"}],"outputs":[{"name":"","type":"bool","internalType":"bool"}],"stateMutability":"view"},{"type":"function","name":"ownerToWallet","inputs":[{"name":"","type":"address","internalType":"address"}],"outputs":[{"name":"","type":"address","internalType":"address"}],"stateMutability":"view"},{"type":"function","name":"recoveries","inputs":[{"name":"","type":"address","internalType":"address"},{"name":"","type":"uint256","internalType":"uint256"}],"outputs":[{"name":"id","type":"uint256","internalType":"uint256"},{"name":"wallet","type":"address","internalType":"address"},{"name":"newOwner","type":"address","internalType":"address"},{"name":"requestedAt","type":"uint256","internalType":"uint256"},{"name":"executeAfter","type":"uint256","internalType":"uint256"},{"name":"isExecuted","type":"bool","internalType":"bool"},{"name":"isCancelled","type":"bool","internalType":"bool"},{"name":"reason","type":"string","internalType":"string"}],"stateMutability":"view"},{"type":"function","name":"recoveryCounter","inputs":[],"outputs":[{"name":"","type":"uint256","internalType":"uint256"}],"stateMutability":"view"},{"type":"function","name":"recoveryDelay","inputs":[],"outputs":[{"name":"","type":"uint256","internalType":"uint256"}],"stateMutability":"view"},{"type":"function","name":"renounceRole","inputs":[{"name":"role","type":"bytes32","internalType":"bytes32"},{"name":"callerConfirmation","type":"address","internalType":"address"}],"outputs":[],"stateMutability":"nonpayable"},{"type":"function","name":"requestRecovery","inputs":[{"name":"wallet","type":"address","internalType":"address"},{"name":"newOwner","type":"address","internalType":"address"},{"name":"reason","type":"string","internalType":"string"}],"outputs":[{"name":"","type":"uint256","internalType":"uint256"}],"stateMutability":"nonpayable"},{"type":"function","name":"revokeRole","inputs":[{"name":"role","type":"bytes32","internalType":"bytes32"},{"name":"account","type":"address","internalType":"address"}],"outputs":[],"stateMutability":"nonpayable"},{"type":"function","name":"revokeSessionKey","inputs":[{"name":"wallet","type":"address","internalType":"address"},{"name":"sessionKey","type":"address","internalType":"address"}],"outputs":[],"stateMutability":"nonpayable"},{"type":"function","name":"saltToWallet","inputs":[{"name":"","type":"bytes32","internalType":"bytes32"}],"outputs":[{"name":"","type":"address","internalType":"address"}],"stateMutability":"view"},{"type":"function","name":"sessionKeys","inputs":[{"name":"","type":"address","internalType":"address"},{"name":"","type":"address","internalType":"address"}],"outputs":[{"name":"keyAddress","type":"address","internalType":"address"},{"name":"validUntil","type":"uint256","internalType":"uint256"},{"name":"spendingLimit","type":"uint256","internalType":"uint256"},{"name":"spentAmount","type":"uint256","internalType":"uint256"},{"name":"isActive","type":"bool","internalType":"bool"}],"stateMutability":"view"},{"type":"function","name":"setCreationFee","inputs":[{"name":"newFee","type":"uint256","internalType":"uint256"}],"outputs":[],"stateMutability":"nonpayable"},{"type":"function","name":"setRecoveryDelay","inputs":[{"name":"newDelay","type":"uint256","internalType":"uint256"}],"outputs":[],"stateMutability":"nonpayable"},{"type":"function","name":"supportsInterface","inputs":[{"name":"interfaceId","type":"bytes4","internalType":"bytes4"}],"outputs":[{"name":"","type":"bool","internalType":"bool"}],"stateMutability":"view"},{"type":"function","name":"trustScore","inputs":[],"outputs":[{"name":"","type":"address","internalType":"contract ITrustScore"}],"stateMutability":"view"},{"type":"function","name":"updateSigners","inputs":[{"name":"wallet","type":"address","internalType":"address"},{"name":"newSigners","type":"address[]","internalType":"address[]"},{"name":"newThreshold","type":"uint256","internalType":"uint256"}],"outputs":[],"stateMutability":"nonpayable"},{"type":"function","name":"updateWalletSettings","inputs":[{"name":"wallet","type":"address","internalType":"address"},{"name":"newDailyLimit","type":"uint256","internalType":"uint256"},{"name":"newTrustThreshold","type":"uint256","internalType":"uint256"}],"outputs":[],"stateMutability":"nonpayable"},{"type":"function","name":"userOpStats","inputs":[{"name":"","type":"address","internalType":"address"}],"outputs":[{"name":"totalOps","type":"uint256","internalType":"uint256"},{"name":"successfulOps","type":"uint256","internalType":"uint256"},{"name":"failedOps","type":"uint256","internalType":"uint256"},{"name":"totalGasUsed","type":"uint256","internalType":"uint256"},{"name":"totalFeesPaid","type":"uint256","internalType":"uint256"},{"name":"lastOpTimestamp","type":"uint256","internalType":"uint256"}],"stateMutability":"view"},{"type":"function","name":"verificationLogger","inputs":[],"outputs":[{"name":"","type":"address","internalType":"contract IVerificationLogger"}],"stateMutability":"view"},{"type":"function","name":"walletImplementation","inputs":[],"outputs":[{"name":"","type":"address","internalType":"address"}],"stateMutability":"view"},{"type":"function","name":"walletSessionKeys","inputs":[{"name":"","type":"address","internalType":"address"},{"name":"","type":"uint256","internalType":"uint256"}],"outputs":[{"name":"","type":"address","internalType":"address"}],"stateMutability":"view"},{"type":"function","name":"wallets","inputs":[{"name":"","type":"address","internalType":"address"}],"outputs":[{"name":"walletAddress","type":"address","internalType":"address"},{"name":"owner","type":"address","internalType":"address"},{"name":"walletType","type":"uint8","internalType":"enum AAWalletManager.WalletType"},{"name":"status","type":"uint8","internalType":"enum AAWalletManager.WalletStatus"},{"name":"createdAt","type":"uint256","internalType":"uint256"},{"name":"lastUsed","type":"uint256","internalType":"uint256"},{"name":"salt","type":"bytes32","internalType":"bytes32"},{"name":"nonce","type":"uint256","internalType":"uint256"},{"name":"isDeployed","type":"bool","internalType":"bool"},{"name":"trustScoreThreshold","type":"uint256","internalType":"uint256"},{"name":"signatureThreshold","type":"uint256","internalType":"uint256"},{"name":"dailySpendingLimit","type":"uint256","internalType":"uint256"},{"name":"spentToday","type":"uint256","internalType":"uint256"},{"name":"lastResetDay","type":"uint256","internalType":"uint256"}],"stateMutability":"view"},{"type":"function","name":"withdrawFees","inputs":[{"name":"recipient","type":"address","internalType":"address payable"}],"outputs":[],"stateMutability":"nonpayable"},{"type":"event","name":"DailyLimitUpdated","inputs":[{"name":"wallet","type":"address","indexed":true,"internalType":"address"},{"name":"newLimit","type":"uint256","indexed":false,"internalType":"uint256"}],"anonymous":false},{"type":"event","name":"RecoveryConfirmed","inputs":[{"name":"recoveryId","type":"uint256","indexed":true,"internalType":"uint256"},{"name":"guardian","type":"address","indexed":true,"internalType":"address"}],"anonymous":false},{"type":"event","name":"RecoveryExecuted","inputs":[{"name":"recoveryId","type":"uint256","indexed":true,"internalType":"uint256"},{"name":"wallet","type":"address","indexed":true,"internalType":"address"}],"anonymous":false},{"type":"event","name":"RecoveryRequested","inputs":[{"name":"recoveryId","type":"uint256","indexed":true,"internalType":"uint256"},{"name":"wallet","type":"address","indexed":true,"internalType":"address"},{"name":"newOwner","type":"address","indexed":true,"internalType":"address"}],"anonymous":false},{"type":"event","name":"RoleAdminChanged","inputs":[{"name":"role","type":"bytes32","indexed":true,"internalType":"bytes32"},{"name":"previousAdminRole","type":"bytes32","indexed":true,"internalType":"bytes32"},{"name":"newAdminRole","type":"bytes32","indexed":true,"internalType":"bytes32"}],"anonymous":false},{"type":"event","name":"RoleGranted","inputs":[{"name":"role","type":"bytes32","indexed":true,"internalType":"bytes32"},{"name":"account","type":"address","indexed":true,"internalType":"address"},{"name":"sender","type":"address","indexed":true,"internalType":"address"}],"anonymous":false},{"type":"event","name":"RoleRevoked","inputs":[{"name":"role","type":"bytes32","indexed":true,"internalType":"bytes32"},{"name":"account","type":"address","indexed":true,"internalType":"address"},{"name":"sender","type":"address","indexed":true,"internalType":"address"}],"anonymous":false},{"type":"event","name":"SessionKeyAdded","inputs":[{"name":"wallet","type":"address","indexed":true,"internalType":"address"},{"name":"sessionKey","type":"address","indexed":true,"internalType":"address"},{"name":"validUntil","type":"uint256","indexed":false,"internalType":"uint256"}],"anonymous":false},{"type":"event","name":"SessionKeyRevoked","inputs":[{"name":"wallet","type":"address","indexed":true,"internalType":"address"},{"name":"sessionKey","type":"address","indexed":true,"internalType":"address"}],"anonymous":false},{"type":"event","name":"SignersUpdated","inputs":[{"name":"wallet","type":"address","indexed":true,"internalType":"address"},{"name":"newSigners","type":"address[]","indexed":false,"internalType":"address[]"},{"name":"newThreshold","type":"uint256","indexed":false,"internalType":"uint256"}],"anonymous":false},{"type":"event","name":"UserOpExecuted","inputs":[{"name":"wallet","type":"address","indexed":true,"internalType":"address"},{"name":"userOpHash","type":"bytes32","indexed":true,"internalType":"bytes32"},{"name":"success","type":"bool","indexed":false,"internalType":"bool"}],"anonymous":false},{"type":"event","name":"WalletCreated","inputs":[{"name":"wallet","type":"address","indexed":true,"internalType":"address"},{"name":"owner","type":"address","indexed":true,"internalType":"address"},{"name":"walletType","type":"uint8","indexed":false,"internalType":"enum AAWalletManager.WalletType"},{"name":"salt","type":"bytes32","indexed":false,"internalType":"bytes32"}],"anonymous":false},{"type":"event","name":"WalletDeployed","inputs":[{"name":"wallet","type":"address","indexed":true,"internalType":"address"},{"name":"owner","type":"address","indexed":true,"internalType":"address"}],"anonymous":false},{"type":"event","name":"WalletStatusChanged","inputs":[{"name":"wallet","type":"address","indexed":true,"internalType":"address"},{"name":"oldStatus","type":"uint8","indexed":false,"internalType":"enum AAWalletManager.WalletStatus"},{"name":"newStatus","type":"uint8","indexed":false,"internalType":"enum AAWalletManager.WalletStatus"}],"anonymous":false},{"type":"error","name":"AccessControlBadConfirmation","inputs":[]},{"type":"error","name":"AccessControlUnauthorizedAccount","inputs":[{"name":"account","type":"address","internalType":"address"},{"name":"neededRole","type":"bytes32","internalType":"bytes32"}]},{"type":"error","name":"Create2EmptyBytecode","inputs":[]},{"type":"error","name":"FailedDeployment","inputs":[]},{"type":"error","name":"InsufficientBalance","inputs":[{"name":"balance","type":"uint256","internalType":"uint256"},{"name":"needed","type":"uint256","internalType":"uint256"}]},{"type":"error","name":"ReentrancyGuardReentrantCall","inputs":[]}],"bytecode":{"object":"0x6080604052346100335761001d610014610130565b9392909261066b565b610025610038565b617e656109cd8239617e6590f35b61003e565b60405190565b5f80fd5b601f801991011690565b634e487b7160e01b5f52604160045260245ffd5b9061006a90610042565b810190811060018060401b0382111761008257604052565b61004c565b9061009a610093610038565b9283610060565b565b5f80fd5b60018060a01b031690565b6100b4906100a0565b90565b6100c0816100ab565b036100c757565b5f80fd5b905051906100d8826100b7565b565b919060a08382031261012b576100f2815f85016100cb565b9261010082602083016100cb565b9261012861011184604085016100cb565b9361011f81606086016100cb565b936080016100cb565b90565b61009c565b61014e6188328038038061014381610087565b9283398101906100da565b9091929394565b90565b90565b61016f61016a61017492610155565b610158565b6100a0565b90565b6101809061015b565b90565b60209181520190565b5f7f496e76616c696420766572696669636174696f6e206c6f676765720000000000910152565b6101c0601b602092610183565b6101c98161018c565b0190565b6101e29060208101905f8183039101526101b3565b90565b156101ec57565b6101f4610038565b62461bcd60e51b81528061020a600482016101cd565b0390fd5b5f7f496e76616c696420677561726469616e206d616e616765720000000000000000910152565b6102426018602092610183565b61024b8161020e565b0190565b6102649060208101905f818303910152610235565b90565b1561026e57565b610276610038565b62461bcd60e51b81528061028c6004820161024f565b0390fd5b5f7f496e76616c69642074727573742073636f726500000000000000000000000000910152565b6102c46013602092610183565b6102cd81610290565b0190565b6102e69060208101905f8183039101526102b7565b90565b156102f057565b6102f8610038565b62461bcd60e51b81528061030e600482016102d1565b0390fd5b5f7f496e76616c69642077616c6c657420696d706c656d656e746174696f6e000000910152565b610346601d602092610183565b61034f81610312565b0190565b6103689060208101905f818303910152610339565b90565b1561037257565b61037a610038565b62461bcd60e51b81528061039060048201610353565b0390fd5b5f7f496e76616c696420656e74727920706f696e7400000000000000000000000000910152565b6103c86013602092610183565b6103d181610394565b0190565b6103ea9060208101905f8183039101526103bb565b90565b156103f457565b6103fc610038565b62461bcd60e51b815280610412600482016103d5565b0390fd5b90565b5f1b90565b61043261042d61043792610155565b610419565b610416565b90565b6104435f61041e565b90565b7fbf18f3bdda8a65fc5ec294c2c787f805aceec15eed9fe17fdb6588866be113dc90565b7f3a43d4210774a09c5d26191d1150219028070cec811f3e6f8ab498268dd6140c90565b6104a261049d6104a7926100a0565b610158565b6100a0565b90565b6104b39061048e565b90565b6104bf906104aa565b90565b906104d360018060a01b0391610419565b9181191691161790565b6104e6906104aa565b90565b90565b906105016104fc610508926104dd565b6104e9565b82546104c2565b9055565b6105159061048e565b90565b6105219061050c565b90565b61052d9061050c565b90565b90565b9061054861054361054f92610524565b610530565b82546104c2565b9055565b61055c9061048e565b90565b61056890610553565b90565b61057490610553565b90565b90565b9061058f61058a6105969261056b565b610577565b82546104c2565b9055565b6105a39061048e565b90565b6105af9061059a565b90565b90565b906105ca6105c56105d1926105a6565b6105b2565b82546104c2565b9055565b90565b90565b6105ef6105ea6105f4926105d5565b610158565b6105d8565b90565b906106035f1991610419565b9181191691161790565b61062161061c610626926105d8565b610158565b6105d8565b90565b90565b9061064161063c6106489261060d565b610629565b82546105f7565b9055565b90565b61066361065e6106689261064c565b610158565b6105d8565b90565b61079f6107ad9361079a6107936107b498979561078e6107876107a6976106906107e6565b6106b5816106ae6106a86106a35f610177565b6100ab565b916100ab565b14156101e5565b6106da846106d36106cd6106c85f610177565b6100ab565b916100ab565b1415610267565b6106ff876106f86106f26106ed5f610177565b6100ab565b916100ab565b14156102e9565b6107248a61071d6107176107125f610177565b6100ab565b916100ab565b141561036b565b6107498c61074261073c6107375f610177565b6100ab565b916100ab565b14156103ed565b61075b61075461043a565b33906108bb565b5061076e610767610446565b33906108bb565b5061078161077a61046a565b33906108bb565b506104b6565b600b6104ec565b610518565b600c610533565b61055f565b600d61057a565b600e6105b5565b600f6105b5565b6107ce6107c766038d7ea4c680006105db565b601061062c565b6107e46107dd6202a30061064f565b601161062c565b565b6107ee61081c565b565b90565b61080761080261080c926107f0565b610158565b6105d8565b90565b61081960016107f3565b90565b61082e61082761080f565b600161062c565b565b5f90565b151590565b61084290610416565b90565b9061084f90610839565b5f5260205260405f2090565b90610865906105a6565b5f5260205260405f2090565b9061087d60ff91610419565b9181191691161790565b61089090610834565b90565b90565b906108ab6108a66108b292610887565b610893565b8254610871565b9055565b5f0190565b6108c3610830565b506108d86108d2828490610992565b15610834565b5f14610960576108ff60016108fa5f6108f2818690610845565b01859061085b565b610896565b906109086109bf565b9061094561093f6109397f2f8788117e7eff1d82e926ec794901d17c78024a50270940304540a733656f0d95610839565b926105a6565b926105a6565b9261094e610038565b80610958816108b6565b0390a4600190565b50505f90565b5f1c90565b60ff1690565b61097d61098291610966565b61096b565b90565b61098f9054610971565b90565b6109b8915f6109ad6109b3936109a6610830565b5082610845565b0161085b565b610985565b90565b5f90565b6109c76109bb565b50339056fe60a06040526004361015610015575b366122c457005b61001f5f356102ee565b806301ffc9a7146102e957806304d0a647146102e4578063092efc15146102df578063132ff840146102da578063133d93a1146102d5578063164e68de146102d05780631bfa8601146102cb5780631f091782146102c65780631f432fa9146102c1578063248a9ca3146102bc578063289cb4a1146102b75780632f2ff15d146102b25780633078d998146102ad57806336568abe146102a85780633758ca7a146102a357806337adfa361461029e5780634ca660a81461029957806354cb0ecd146102945780635c7d92361461028f5780635ed3fcd31461028a57806368f0c713146102855780636e7a33f81461028057806372a916d01461027b5780638117abc11461027657806381e9c8d1146102715780638931e8281461026c57806389b08f11146102675780638aaa6a40146102625780638cf8350f1461025d5780638eb8bd8f1461025857806391d14854146102535780639600455e1461024e57806396ade1f9146102495780639ad5479314610244578063a217fddf1461023f578063a8403e901461023a578063b034963114610235578063b0d691fe14610230578063b7d862251461022b578063c8cc2fc214610226578063d547741f14610221578063dce0b4e41461021c578063de61edfc14610217578063e1300c88146102125763fde5354d0361000e5761228f565b61225a565b6121b6565b611f6f565b611f2c565b611ef9565b611ec6565b611e91565b611e4d565b611da9565b611d23565b611cb3565b611c79565b611b77565b611aee565b611abb565b611a86565b611a06565b61193e565b6116bf565b6115fb565b6115c6565b61157b565b61147b565b61140b565b6113ca565b6112f7565b611040565b610fa1565b610f6c565b610f08565b610e8a565b610e55565b610daf565b610d4e565b610d19565b610ca4565b610c36565b610bd4565b610b02565b610a80565b6109e9565b610977565b610508565b61037a565b60e01c90565b60405190565b5f80fd5b5f80fd5b5f80fd5b63ffffffff60e01b1690565b61031b81610306565b0361032257565b5f80fd5b9050359061033382610312565b565b9060208282031261034e5761034b915f01610326565b90565b6102fe565b151590565b61036190610353565b9052565b9190610378905f60208501940190610358565b565b346103aa576103a6610395610390366004610335565b6122cc565b61039d6102f4565b91829182610365565b0390f35b6102fa565b60018060a01b031690565b6103c3906103af565b90565b6103cf816103ba565b036103d657565b5f80fd5b905035906103e7826103c6565b565b90602082820312610402576103ff915f016103da565b90565b6102fe565b610410906103ba565b9052565b634e487b7160e01b5f52602160045260245ffd5b6004111561043257565b610414565b9061044182610428565b565b61044c90610437565b90565b61045890610443565b9052565b6004111561046657565b610414565b906104758261045c565b565b6104809061046b565b90565b61048c90610477565b9052565b90565b61049c90610490565b9052565b949290979695939160e08601985f87016104b991610407565b602086016104c69161044f565b604085016104d391610483565b606084016104e091610493565b608083016104ed91610358565b60a082016104fa91610493565b60c00161050691610493565b565b3461053f5761053b61052361051e3660046103e9565b6125e8565b936105329795979391936102f4565b978897886104a0565b0390f35b6102fa565b61054d81610490565b0361055457565b5f80fd5b9050359061056582610544565b565b919060408382031261058f578061058361058c925f86016103da565b93602001610558565b90565b6102fe565b90565b6105ab6105a66105b0926103af565b610594565b6103af565b90565b6105bc90610597565b90565b6105c8906105b3565b90565b906105d5906105bf565b5f5260205260405f2090565b634e487b7160e01b5f52603260045260245ffd5b5490565b5f5260205f2090565b61060b816105f5565b8210156106255761061d6008916105f9565b910201905f90565b6105e1565b5f1c90565b90565b61063e6106439161062a565b61062f565b90565b6106509054610632565b90565b60018060a01b031690565b61066a61066f9161062a565b610653565b90565b61067c905461065e565b90565b60ff1690565b6106916106969161062a565b61067f565b90565b6106a39054610685565b90565b60081c90565b6106b86106bd916106a6565b61067f565b90565b6106ca90546106ac565b90565b634e487b7160e01b5f52602260045260245ffd5b9060016002830492168015610701575b60208310146106fc57565b6106cd565b91607f16916106f1565b60209181520190565b5f5260205f2090565b905f9291805490610737610730836106e1565b809461070b565b916001811690815f1461078e5750600114610752575b505050565b61075f9192939450610714565b915f925b81841061077657505001905f808061074d565b60018160209295939554848601520191019290610763565b92949550505060ff19168252151560200201905f808061074d565b906107b39161071d565b90565b601f801991011690565b634e487b7160e01b5f52604160045260245ffd5b906107de906107b6565b810190811067ffffffffffffffff8211176107f857604052565b6107c0565b9061081d6108169261080d6102f4565b938480926107a9565b03836107d4565b565b61082a9060056105cb565b90610834826105f5565b8110156108ae5761084491610602565b50906108515f8301610646565b9161085e60018201610672565b9161086b60028301610672565b9161087860048201610646565b9161088560058301610646565b9161089260068201610699565b916108ab60076108a4600685016106c0565b93016107fd565b90565b5f80fd5b5190565b60209181520190565b90825f9392825e0152565b6108e96108f26020936108f7936108e0816108b2565b938480936108b6565b958691016108bf565b6107b6565b0190565b95939196949290966101008701975f880161091591610493565b6020870161092291610407565b6040860161092f91610407565b6060850161093c91610493565b6080840161094991610493565b60a0830161095691610358565b60c0820161096391610358565b8082039060e00152610974916108ca565b90565b346109b2576109ae61099361098d366004610567565b9061081f565b946109a59896989491949392936102f4565b988998896108fb565b0390f35b6102fa565b91906040838203126109df57806109d36109dc925f8601610558565b936020016103da565b90565b6102fe565b5f0190565b34610a1857610a026109fc3660046109b7565b90612dc9565b610a0a6102f4565b80610a14816109e4565b0390f35b6102fa565b5f910312610a2757565b6102fe565b7fbf18f3bdda8a65fc5ec294c2c787f805aceec15eed9fe17fdb6588866be113dc90565b610a58610a2c565b90565b90565b610a6790610a5b565b9052565b9190610a7e905f60208501940190610a5e565b565b34610ab057610a90366004610a1d565b610aac610a9b610a50565b610aa36102f4565b91829182610a6b565b0390f35b6102fa565b610abe906103af565b90565b610aca81610ab5565b03610ad157565b5f80fd5b90503590610ae282610ac1565b565b90602082820312610afd57610afa915f01610ad5565b90565b6102fe565b34610b3057610b1a610b15366004610ae4565b613458565b610b226102f4565b80610b2c816109e4565b0390f35b6102fa565b5190565b60209181520190565b60200190565b610b51906103ba565b9052565b90610b6281602093610b48565b0190565b60200190565b90610b89610b83610b7c84610b35565b8093610b39565b92610b42565b905f5b818110610b995750505090565b909192610bb2610bac6001928651610b55565b94610b66565b9101919091610b8c565b610bd19160208201915f818403910152610b6c565b90565b34610c0457610be4366004610a1d565b610c00610bef613474565b610bf76102f4565b91829182610bbc565b0390f35b6102fa565b9190604083820312610c315780610c25610c2e925f86016103da565b936020016103da565b90565b6102fe565b34610c6557610c4f610c49366004610c09565b90613665565b610c576102f4565b80610c61816109e4565b0390f35b6102fa565b9091606082840312610c9f57610c9c610c85845f85016103da565b93610c938160208601610558565b93604001610558565b90565b6102fe565b34610cd357610cbd610cb7366004610c6a565b916138d9565b610cc56102f4565b80610ccf816109e4565b0390f35b6102fa565b610ce181610a5b565b03610ce857565b5f80fd5b90503590610cf982610cd8565b565b90602082820312610d1457610d11915f01610cec565b90565b6102fe565b34610d4957610d45610d34610d2f366004610cfb565b613a5e565b610d3c6102f4565b91829182610a6b565b0390f35b6102fa565b34610d7d57610d67610d613660046109b7565b906141a3565b610d6f6102f4565b80610d79816109e4565b0390f35b6102fa565b9190604083820312610daa5780610d9e610da7925f8601610cec565b936020016103da565b90565b6102fe565b34610dde57610dc8610dc2366004610d82565b906141d9565b610dd06102f4565b80610dda816109e4565b0390f35b6102fa565b1c90565b60018060a01b031690565b610e02906008610e079302610de3565b610de7565b90565b90610e159154610df2565b90565b610e24600d5f90610e0a565b90565b610e30906105b3565b90565b610e3c90610e27565b9052565b9190610e53905f60208501940190610e33565b565b34610e8557610e65366004610a1d565b610e81610e70610e18565b610e786102f4565b91829182610e40565b0390f35b6102fa565b34610eb957610ea3610e9d366004610d82565b906141e5565b610eab6102f4565b80610eb5816109e4565b0390f35b6102fa565b610ece906008610ed39302610de3565b61062f565b90565b90610ee19154610ebe565b90565b610ef060115f90610ed6565b90565b9190610f06905f60208501940190610493565b565b34610f3857610f18366004610a1d565b610f34610f23610ee4565b610f2b6102f4565b91829182610ef3565b0390f35b6102fa565b7f3a43d4210774a09c5d26191d1150219028070cec811f3e6f8ab498268dd6140c90565b610f69610f3d565b90565b34610f9c57610f7c366004610a1d565b610f98610f87610f61565b610f8f6102f4565b91829182610a6b565b0390f35b6102fa565b34610fd157610fcd610fbc610fb73660046103e9565b61422d565b610fc46102f4565b91829182610ef3565b0390f35b6102fa565b90610fe0906105bf565b5f5260205260405f2090565b610ffc9060086110019302610de3565b610653565b90565b9061100f9154610fec565b90565b611028906110236003915f92610fd6565b611004565b90565b919061103e905f60208501940190610407565b565b346110705761106c61105b6110563660046103e9565b611012565b6110636102f4565b9182918261102b565b0390f35b6102fa565b5f80fd5b9061108c6110856102f4565b92836107d4565b565b67ffffffffffffffff81116110a65760208091020190565b6107c0565b5f80fd5b5f80fd5b67ffffffffffffffff81116110d1576110cd6020916107b6565b0190565b6107c0565b90825f939282370152565b909291926110f66110f1826110b3565b611079565b9381855260208501908284011161111257611110926110d6565b565b6110af565b9080601f8301121561113557816020611132933591016110e1565b90565b611075565b92919061114e6111498261108e565b611079565b93818552602080860192028101918383116111a55781905b838210611174575050505050565b813567ffffffffffffffff81116111a0576020916111958784938701611117565b815201910190611166565b611075565b6110ab565b9080601f830112156111c8578160206111c59335910161113a565b90565b611075565b67ffffffffffffffff81116111e55760208091020190565b6107c0565b909291926111ff6111fa826111cd565b611079565b938185526020808601920283019281841161123c57915b8383106112235750505050565b6020809161123184866103da565b815201920191611216565b6110ab565b9080601f8301121561125f5781602061125c933591016111ea565b90565b611075565b9160c0838303126112f25761127b825f85016103da565b9261128983602083016103da565b926112978160408401610558565b926112a58260608501610558565b92608081013567ffffffffffffffff81116112ed57836112c69183016111aa565b9260a082013567ffffffffffffffff81116112e8576112e59201611241565b90565b610302565b610302565b6102fe565b3461132c5761131661130a366004611264565b94939093929192614962565b61131e6102f4565b80611328816109e4565b0390f35b6102fa565b6004111561133b57565b5f80fd5b9050359061134c82611331565b565b909160c0828403126113c557611366835f840161133f565b926113748160208501610cec565b92604081013567ffffffffffffffff81116113c05782611395918301611241565b926113bd6113a68460608501610558565b936113b48160808601610558565b9360a001610558565b90565b610302565b6102fe565b6113f86113e76113db36600461134e565b94939093929192615805565b6113ef6102f4565b9182918261102b565b0390f35b61140860095f90610ed6565b90565b3461143b5761141b366004610a1d565b6114376114266113fc565b61142e6102f4565b91829182610ef3565b0390f35b6102fa565b61144990610a5b565b90565b9061145690611440565b5f5260205260405f2090565b611478906114736004915f9261144c565b611004565b90565b346114ab576114a7611496611491366004610cfb565b611462565b61149e6102f4565b9182918261102b565b0390f35b6102fa565b906114ba906105bf565b5f5260205260405f2090565b6114d19060066114b0565b906114dd5f8301610646565b916114ea60018201610646565b916114f760028301610646565b9161150460038201610646565b9161151d600561151660048501610646565b9301610646565b90565b91946115686115729298979561155e60a0966115546115799a61154a60c08a019e5f8b0190610493565b6020890190610493565b6040870190610493565b6060850190610493565b6080830190610493565b0190610493565b565b346115b2576115ae6115966115913660046103e9565b6114c6565b926115a59694969291926102f4565b96879687611520565b0390f35b6102fa565b6115c3600e5f90611004565b90565b346115f6576115d6366004610a1d565b6115f26115e16115b7565b6115e96102f4565b9182918261102b565b0390f35b6102fa565b3461162c57611628611617611611366004610c09565b90615959565b61161f6102f4565b91829182610365565b0390f35b6102fa565b61163a90610490565b9052565b9060a0806116a8936116565f8201515f860190611631565b61166860208201516020860190611631565b61167a60408201516040860190611631565b61168c60608201516060860190611631565b61169e60808201516080860190611631565b0151910190611631565b565b91906116bd905f60c0850194019061163e565b565b346116ef576116eb6116da6116d53660046103e9565b615ad4565b6116e26102f4565b918291826116aa565b0390f35b6102fa565b906116fe906105bf565b5f5260205260405f2090565b60a01c90565b60ff1690565b6117226117279161170a565b611710565b90565b6117349054611716565b90565b60a81c90565b60ff1690565b61174f61175491611737565b61173d565b90565b6117619054611743565b90565b90565b6117736117789161062a565b611764565b90565b6117859054611767565b90565b6117939060026116f4565b9061179f5f8301610672565b916117ac60018201610672565b916117b96001830161172a565b916117c660018201611757565b916117d360028301610646565b916117e060038201610646565b916117ed6004830161177b565b916117fa60058201610646565b9161180760068301610699565b9161181460078201610646565b9161182160098301610646565b9161182e600a8201610646565b91611847600c611840600b8501610646565b9301610646565b90565b9e9d9c9b9a999897969594939291909e6080526080516101c0019e6080515f0161187391610407565b60805160200161188291610407565b6080516040016118919161044f565b6080516060016118a091610483565b6080516080016118af91610493565b60805160a0016118be91610493565b60805160c0016118cd91610a5e565b60805160e0016118dc91610493565b608051610100016118ec91610358565b608051610120016118fc91610493565b6080516101400161190c91610493565b6080516101600161191c91610493565b6080516101800161192c91610493565b6080516101a00161193c91610493565b565b346119815761197d6119596119543660046103e9565b611788565b9a6119749e9c9e9a919a9992999893989794979695966102f4565b9e8f9e8f61184a565b0390f35b6102fa565b90611990906105bf565b5f5260205260405f2090565b5490565b5f5260205f2090565b6119b28161199c565b8210156119cc576119c46001916119a0565b910201905f90565b6105e1565b6119dc906008611986565b6119e58161199c565b821015611a02576119ff916119f9916119a9565b90611004565b90565b5f80fd5b34611a3757611a33611a22611a1c366004610567565b906119d1565b611a2a6102f4565b9182918261102b565b0390f35b6102fa565b90602082820312611a5557611a52915f01610558565b90565b6102fe565b600a611a658161199c565b821015611a8257611a7f91611a79916119a9565b90611004565b90565b5f80fd5b34611ab657611ab2611aa1611a9c366004611a3c565b611a5a565b611aa96102f4565b9182918261102b565b0390f35b6102fa565b34611ae957611ad3611ace366004611a3c565b615b1b565b611adb6102f4565b80611ae5816109e4565b0390f35b6102fa565b34611b1f57611b1b611b0a611b04366004610d82565b90615b3c565b611b126102f4565b91829182610365565b0390f35b6102fa565b9091606082840312611b7257611b3c835f84016103da565b9260208301359067ffffffffffffffff8211611b6d57611b6181611b6a938601611241565b93604001610558565b90565b610302565b6102fe565b34611ba657611b90611b8a366004611b24565b91615d03565b611b986102f4565b80611ba2816109e4565b0390f35b6102fa565b90611bb5906105bf565b5f5260205260405f2090565b90611bcb906105bf565b5f5260205260405f2090565b90611be6611beb926007611bab565b611bc1565b611bf65f8201610672565b91611c0360018301610646565b91611c1060028201610646565b91611c296004611c2260038501610646565b9301610699565b90565b90959492611c7794611c66611c7092611c5c608096611c5260a088019c5f890190610407565b6020870190610493565b6040850190610493565b6060830190610493565b0190610358565b565b34611cae57611caa611c95611c8f366004610c09565b90611bd7565b91611ca19593956102f4565b95869586611c2c565b0390f35b6102fa565b34611ce357611cdf611cce611cc93660046103e9565b615f0d565b611cd66102f4565b9182918261102b565b0390f35b6102fa565b90565b5f1b90565b611d04611cff611d0992611ce8565b611ceb565b610a5b565b90565b611d155f611cf0565b90565b611d20611d0c565b90565b34611d5357611d33366004610a1d565b611d4f611d3e611d18565b611d466102f4565b91829182610a6b565b0390f35b6102fa565b91606083830312611da457611d6f825f85016103da565b92611d7d83602083016103da565b92604082013567ffffffffffffffff8111611d9f57611d9c9201611117565b90565b610302565b6102fe565b34611dda57611dd6611dc5611dbf366004611d58565b91616637565b611dcd6102f4565b91829182610ef3565b0390f35b6102fa565b60018060a01b031690565b611dfa906008611dff9302610de3565b611ddf565b90565b90611e0d9154611dea565b90565b611e1c600c5f90611e02565b90565b611e28906105b3565b90565b611e3490611e1f565b9052565b9190611e4b905f60208501940190611e2b565b565b34611e7d57611e5d366004610a1d565b611e79611e68611e10565b611e706102f4565b91829182611e38565b0390f35b6102fa565b611e8e600f5f90611004565b90565b34611ec157611ea1366004610a1d565b611ebd611eac611e82565b611eb46102f4565b9182918261102b565b0390f35b6102fa565b34611ef457611ede611ed9366004611a3c565b616675565b611ee66102f4565b80611ef0816109e4565b0390f35b6102fa565b34611f2757611f11611f0c3660046103e9565b616be7565b611f196102f4565b80611f23816109e4565b0390f35b6102fa565b34611f5b57611f45611f3f366004610d82565b90616c1c565b611f4d6102f4565b80611f57816109e4565b0390f35b6102fa565b611f6c60105f90610ed6565b90565b34611f9f57611f7f366004610a1d565b611f9b611f8a611f60565b611f926102f4565b91829182610ef3565b0390f35b6102fa565b5f80fd5b5f80fd5b67ffffffffffffffff8111611fca57611fc66020916107b6565b0190565b6107c0565b90929192611fe4611fdf82611fac565b611079565b9381855260208501908284011161200057611ffe926110d6565b565b6110af565b9080601f830112156120235781602061202093359101611fcf565b90565b611075565b9190916101608184031261216c57612041610160611079565b9261204e815f84016103da565b5f85015261205f8160208401610558565b6020850152604082013567ffffffffffffffff81116121675781612084918401612005565b6040850152606082013567ffffffffffffffff811161216257816120a9918401612005565b60608501526120bb8160808401610558565b60808501526120cd8160a08401610558565b60a08501526120df8160c08401610558565b60c08501526120f18160e08401610558565b60e0850152612104816101008401610558565b61010085015261012082013567ffffffffffffffff811161215d578161212b918401612005565b61012085015261014082013567ffffffffffffffff8111612158576121509201612005565b610140830152565b611fa8565b611fa8565b611fa8565b611fa8565b611fa4565b91906040838203126121b1575f8301359067ffffffffffffffff82116121ac576121a0816121a9938601612028565b93602001610cec565b90565b610302565b6102fe565b346121e7576121e36121d26121cc366004612171565b90617370565b6121da6102f4565b91829182610365565b0390f35b6102fa565b60018060a01b031690565b61220790600861220c9302610de3565b6121ec565b90565b9061221a91546121f7565b90565b612229600b5f9061220f565b90565b612235906105b3565b90565b6122419061222c565b9052565b9190612258905f60208501940190612238565b565b3461228a5761226a366004610a1d565b61228661227561221d565b61227d6102f4565b91829182612245565b0390f35b6102fa565b346122bf576122bb6122aa6122a53660046103e9565b617385565b6122b26102f4565b91829182610bbc565b0390f35b6102fa565b5f80fd5b5f90565b6122d46122c8565b50806122ef6122e9637965db0b60e01b610306565b91610306565b149081156122fc575b5090565b61230691506173a4565b5f6122f8565b5f90565b5f90565b5f90565b5f90565b90612326906103ba565b9052565b9061233490610437565b9052565b906123429061046b565b9052565b9061235090610490565b9052565b9061235e90610a5b565b9052565b9061236c90610353565b9052565b60209181520190565b612383905461065e565b90565b60010190565b906123a96123a361239c8461199c565b8093612370565b926119a0565b905f5b8181106123b95750505090565b9091926123d96123d36001926123ce87612379565b610b55565b94612386565b91019190916123ac565b906123ed9161238c565b90565b90612410612409926124006102f4565b938480926123e3565b03836107d4565b565b52565b6124206101e0611079565b90565b9061259961258f600c612434612415565b9461244b6124435f8301610672565b5f880161231c565b61246361245a60018301610672565b6020880161231c565b61247b6124726001830161172a565b6040880161232a565b61249361248a60018301611757565b60608801612338565b6124ab6124a260028301610646565b60808801612346565b6124c36124ba60038301610646565b60a08801612346565b6124db6124d26004830161177b565b60c08801612354565b6124f36124ea60058301610646565b60e08801612346565b61250c61250260068301610699565b6101008801612362565b61252561251b60078301610646565b6101208801612346565b61253e612534600883016123f0565b6101408801612412565b61255761254d60098301610646565b6101608801612346565b612570612566600a8301610646565b6101808801612346565b61258961257f600b8301610646565b6101a08801612346565b01610646565b6101c08401612346565b565b6125a490612423565b90565b6125b190516103ba565b90565b6125be9051610437565b90565b6125cb905161046b565b90565b6125d89051610490565b90565b6125e59051610353565b90565b61263561263a916125f761230c565b50612600612310565b50612609612314565b50612612612318565b5061261b6122c8565b50612624612318565b5061262d612318565b5060026116f4565b61259b565b612646602082016125a7565b612652604083016125b4565b9261265f606084016125c1565b9261266c60e082016125ce565b9261267a61010083016125db565b926126956101a061268e61018086016125ce565b94016125ce565b9196959493929190565b90565b6126b66126b16126bb92611ce8565b610594565b610490565b90565b5490565b5f7f496e76616c6964207265636f7665727920494400000000000000000000000000910152565b6126f660136020926108b6565b6126ff816126c2565b0190565b6127189060208101905f8183039101526126e9565b90565b1561272257565b61272a6102f4565b62461bcd60e51b81528061274060048201612703565b0390fd5b90565b61275b61275661276092612744565b610594565b610490565b90565b634e487b7160e01b5f52601160045260245ffd5b61278661278c91939293610490565b92610490565b820391821161279757565b612763565b5f5260205f2090565b6127ae816126be565b8210156127c8576127c060089161279c565b910201905f90565b6105e1565b90565b5f7f5265636f76657279206e6f742061637469766500000000000000000000000000910152565b61280460136020926108b6565b61280d816127d0565b0190565b6128269060208101905f8183039101526127f7565b90565b1561283057565b6128386102f4565b62461bcd60e51b81528061284e60048201612811565b0390fd5b90565b6128616128669161062a565b611ddf565b90565b6128739054612855565b90565b5f80fd5b60e01b90565b61288981610353565b0361289057565b5f80fd5b905051906128a182612880565b565b906020828203126128bc576128b9915f01612894565b90565b6102fe565b9160206128e29294936128db60408201965f830190610407565b0190610407565b565b6128ec6102f4565b3d5f823e3d90fd5b5f7f4e6f74206120677561726469616e000000000000000000000000000000000000910152565b612928600e6020926108b6565b612931816128f4565b0190565b61294a9060208101905f81830391015261291b565b90565b1561295457565b61295c6102f4565b62461bcd60e51b81528061297260048201612935565b0390fd5b60016129829101610490565b90565b5f7f416c726561647920617070726f76656400000000000000000000000000000000910152565b6129b960106020926108b6565b6129c281612985565b0190565b6129db9060208101905f8183039101526129ac565b90565b156129e557565b6129ed6102f4565b62461bcd60e51b815280612a03600482016129c6565b0390fd5b612a16612a1c91939293610490565b92610490565b8201809211612a2757565b612763565b90612a3e612a39836111cd565b611079565b918252565b369037565b90612a6d612a5583612a2c565b92602080612a6386936111cd565b9201910390612a43565b565b90612a7982610b35565b811015612a8a576020809102010190565b6105e1565b634e487b7160e01b5f525f60045260245ffd5b612ab1612ab791939293610490565b92610490565b91612ac3838202610490565b928184041490151715612ad257565b612763565b600190818003010490565b1b90565b91906008612b01910291612afb5f1984612ae2565b92612ae2565b9181191691161790565b612b1f612b1a612b2492610490565b610594565b610490565b90565b90565b9190612b40612b3b612b4893612b0b565b612b27565b908354612ae6565b9055565b612b5e91612b58612318565b91612b2a565b565b5b818110612b6c575050565b80612b795f600193612b4c565b01612b61565b90612b92905f1990602003600802610de3565b8154169055565b9091828110612ba8575b505050565b612bc6612bc0612bba612bd195612ad7565b92612ad7565b926119a0565b918201910190612b60565b5f8080612ba3565b90680100000000000000008111612c025781612bf7612c009361199c565b90828155612b99565b565b6107c0565b91906008612c27910291612c2160018060a01b0384612ae2565b92612ae2565b9181191691161790565b90565b612c3d82610b35565b9167ffffffffffffffff8311612ca057612c6b612c65600192612c608686612bd9565b610b42565b926119a0565b9204915f5b838110612c7d5750505050565b6001906020612c93612c8e866125a7565b612c31565b9401938184015501612c70565b6107c0565b90612caf91612c34565b565b612cbd612cc29161062a565b6121ec565b90565b612ccf9054612cb1565b90565b90565b612ce1612ce691610490565b612cd2565b9052565b60601b90565b612cf990612cea565b90565b612d0590612cf0565b90565b612d14612d19916103ba565b612cfc565b9052565b602081612d30612d389360149695612cd5565b018092612d08565b0190565b60200190565b5190565b5f910312612d5057565b6102fe565b5f7f5245434f564552595f434f4e4649524d45440000000000000000000000000000910152565b612d8960126020926108b6565b612d9281612d55565b0190565b916040612dc7929493612dc0612db5606083018381035f850152612d7c565b966020830190610407565b0190610a5e565b565b9190612e28612e22612de5612de0600585906105cb565b61269f565b85612df8612df25f6126a2565b91610490565b1180613168575b612e089061271b565b612e1c86612e166001612747565b90612777565b906127a5565b506127cd565b90612e3e612e3860068401610699565b15610353565b80613148575b612e4d90612829565b612e61612e5c600283906116f4565b612852565b6020612e75612e70600c612869565b611e1f565b612e86600163d4ee97349401610672565b90612ea33394612eae612e976102f4565b9687958694859461287a565b8452600484016128c1565b03915afa801561314357612ec9915f91613115575b5061294d565b612ed25f6126a2565b5b80612ef1612eeb612ee66003870161199c565b610490565b91610490565b1015612f3857612f3390612f2e612f15612f0f6003870184906119a9565b90611004565b612f27612f21336103ba565b916103ba565b14156129de565b612976565b612ed3565b5091612f61612f5c612f4c6003850161199c565b612f566001612747565b90612a07565b612a48565b93612f6b5f6126a2565b5b80612f8a612f84612f7f6003880161199c565b610490565b91610490565b1015612fca57612fc590612fc0612fae612fa86003880184906119a9565b90611004565b612fbb8991849092612a6f565b61231c565b612976565b612f6c565b5092916003612ffb9295612ff433612fef8391612fe886880161199c565b9092612a6f565b61231c565b9101612ca5565b61300d613008600b612cc5565b61222c565b90635260590a903390613040856130316130256102f4565b93849260208401612d1d565b602082018103825203826107d4565b61305261304c82612d42565b91612d3c565b2092803b15613110576130785f809461308361306c6102f4565b9788968795869461287a565b845260048401612d96565b03925af1801561310b576130df575b50336130c76130c17f49d06681c1874094b776a296510d874c015af2f22bb12ce91281ce24c488f92993612b0b565b916105bf565b916130d06102f4565b806130da816109e4565b0390a3565b6130fe905f3d8111613104575b6130f681836107d4565b810190612d46565b5f613092565b503d6130ec565b6128e4565b612876565b613136915060203d811161313c575b61312e81836107d4565b8101906128a3565b5f612ec3565b503d613124565b6128e4565b50612e4d61316161315b600685016106c0565b15610353565b9050612e44565b50612e088661318761318161317c856126be565b610490565b91610490565b11159050612dff565b6131a9906131a461319f611d0c565b6173ca565b6133d6565b565b6131bf6131ba6131c492611ce8565b610594565b6103af565b90565b6131d0906131ab565b90565b6131dc906105b3565b90565b5f7f496e76616c696420726563697069656e74000000000000000000000000000000910152565b61321360116020926108b6565b61321c816131df565b0190565b6132359060208101905f818303910152613206565b90565b1561323f57565b6132476102f4565b62461bcd60e51b81528061325d60048201613220565b0390fd5b61326a906105b3565b90565b5f7f4e6f206665657320746f20776974686472617700000000000000000000000000910152565b6132a160136020926108b6565b6132aa8161326d565b0190565b6132c39060208101905f818303910152613294565b90565b156132cd57565b6132d56102f4565b62461bcd60e51b8152806132eb600482016132ae565b0390fd5b905090565b6132ff5f80926132ef565b0190565b61330c906132f4565b90565b9061332161331c83611fac565b611079565b918252565b606090565b3d5f146133465761333b3d61330f565b903d5f602084013e5b565b61334e613326565b90613344565b5f7f5769746864726177616c206661696c6564000000000000000000000000000000910152565b61338860116020926108b6565b61339181613354565b0190565b6133aa9060208101905f81830391015261337b565b90565b156133b457565b6133bc6102f4565b62461bcd60e51b8152806133d260048201613395565b0390fd5b5f8061345692613401816133fa6133f46133ef866131c7565b6103ba565b916131d3565b1415613238565b61343061340d30613261565b319161342b8361342561341f876126a2565b91610490565b116132c6565b6131d3565b906134396102f4565b908161344481613303565b03925af161345061332b565b506133ad565b565b61346190613190565b565b606090565b613471906123f0565b90565b61347c613463565b50613487600a613468565b90565b5f7f4e6f742077616c6c6574206f776e657200000000000000000000000000000000910152565b6134be60106020926108b6565b6134c78161348a565b0190565b6134e09060208101905f8183039101526134b1565b90565b156134ea57565b6134f26102f4565b62461bcd60e51b815280613508600482016134cb565b0390fd5b5f7f53657373696f6e206b6579206e6f742061637469766500000000000000000000910152565b61354060166020926108b6565b6135498161350c565b0190565b6135629060208101905f818303910152613533565b90565b1561356c57565b6135746102f4565b62461bcd60e51b81528061358a6004820161354d565b0390fd5b9061359a60ff91611ceb565b9181191691161790565b6135ad90610353565b90565b90565b906135c86135c36135cf926135a4565b6135b0565b825461358e565b9055565b6014816135e56135ed93839695612d08565b018092612d08565b0190565b5f7f53455353494f4e5f4b45595f5245564f4b454400000000000000000000000000910152565b61362560136020926108b6565b61362e816135f1565b0190565b91604061366392949361365c613651606083018381035f850152613618565b966020830190610407565b0190610a5e565b565b61369f613687600161368161367c600286906116f4565b612852565b01610672565b613699613693336103ba565b916103ba565b146134e3565b6136c86136c360046136bd6136b660078690611bab565b8690611bc1565b01610699565b613565565b6136ea5f60046136e46136dd60078690611bab565b8690611bc1565b016135b3565b6136fc6136f7600b612cc5565b61222c565b635260590a338361372e869161371f6137136102f4565b938492602084016135d3565b602082018103825203826107d4565b61374061373a82612d42565b91612d3c565b2092803b156137fe576137665f809461377161375a6102f4565b9788968795869461287a565b845260048401613632565b03925af180156137f9576137cd575b50906137b56137af7f744157ccffbd293a2e8644928cd7d23d650f869b88f72d7bfea8041b76ca6bec936105bf565b916105bf565b916137be6102f4565b806137c8816109e4565b0390a3565b6137ec905f3d81116137f2575b6137e481836107d4565b810190612d46565b5f613780565b503d6137da565b6128e4565b612876565b9061380f5f1991611ceb565b9181191691161790565b9061382e61382961383592612b0b565b612b27565b8254613803565b9055565b60209392613859601483613851889561386197612d08565b018092612cd5565b018092612cd5565b0190565b5f7f57414c4c45545f53455454494e47535f55504441544544000000000000000000910152565b61389960176020926108b6565b6138a281613865565b0190565b9160406138d79294936138d06138c5606083018381035f85015261388c565b966020830190610407565b0190610a5e565b565b90916139306138f26138ed600285906116f4565b612852565b61391961390160018301610672565b61391361390d336103ba565b916103ba565b146134e3565b61392685600a8301613819565b6007839101613819565b61394261393d600b612cc5565b61222c565b90635260590a90339061397785613968889361395c6102f4565b94859360208501613839565b602082018103825203826107d4565b61398961398382612d42565b91612d3c565b2092803b15613a3f576139af5f80946139ba6139a36102f4565b9788968795869461287a565b8452600484016138a6565b03925af18015613a3a57613a0e575b50613a096139f77f074424510750f675220b94bac388bff82d6407b38f341b0226af2ab45af33dc2926105bf565b92613a006102f4565b91829182610ef3565b0390a2565b613a2d905f3d8111613a33575b613a2581836107d4565b810190612d46565b5f6139c9565b503d613a1b565b6128e4565b612876565b5f90565b90613a5290611440565b5f5260205260405f2090565b6001613a76613a7c92613a6f613a44565b505f613a48565b0161177b565b90565b90613a9191613a8c6173eb565b613e0b565b613a99617450565b565b5f7f5265636f766572792064656c6179206e6f74206d657400000000000000000000910152565b613acf60166020926108b6565b613ad881613a9b565b0190565b613af19060208101905f818303910152613ac2565b90565b15613afb57565b613b036102f4565b62461bcd60e51b815280613b1960048201613adc565b0390fd5b90505190613b2a826103c6565b565b90929192613b41613b3c826111cd565b611079565b9381855260208086019202830192818411613b7e57915b838310613b655750505050565b60208091613b738486613b1d565b815201920191613b58565b6110ab565b9080601f83011215613ba157816020613b9e93519101613b2c565b90565b611075565b90505190613bb382610544565b565b9091606082840312613c02575f82015167ffffffffffffffff8111613bfd57613be384613bfa928501613b83565b93613bf18160208601613ba6565b93604001612894565b90565b610302565b6102fe565b5f7f496e73756666696369656e7420677561726469616e20617070726f76616c7300910152565b613c3b601f6020926108b6565b613c4481613c07565b0190565b613c5d9060208101905f818303910152613c2e565b90565b15613c6757565b613c6f6102f4565b62461bcd60e51b815280613c8560048201613c48565b0390fd5b90613c9a60018060a01b0391611ceb565b9181191691161790565b90613cb9613cb4613cc0926105bf565b612c31565b8254613c89565b9055565b60a81b90565b90613cd960ff60a81b91613cc4565b9181191691161790565b613cec9061046b565b90565b90565b90613d07613d02613d0e92613ce3565b613cef565b8254613cca565b9055565b9190613d28613d23613d30936105bf565b612c31565b908354612c07565b9055565b613d4691613d4061230c565b91613d12565b565b60149392613d68602083613d608895613d7097612cd5565b018092612d08565b018092612d08565b0190565b5f7f5245434f564552595f4558454355544544000000000000000000000000000000910152565b613da860116020926108b6565b613db181613d74565b0190565b916040613de6929493613ddf613dd4606083018381035f850152613d9b565b966020830190610407565b0190610a5e565b565b916020613e09929493613e0260408201965f830190610483565b0190610483565b565b613e68613e62613e25613e20600586906105cb565b61269f565b83613e38613e325f6126a2565b91610490565b118061417b575b613e489061271b565b613e5c84613e566001612747565b90612777565b906127a5565b506127cd565b613e7d613e7760068301610699565b15610353565b8061415b575b613e8c90612829565b613eb442613ead613ea7613ea260058601610646565b610490565b91610490565b1015613af4565b613ec8613ec3600285906116f4565b612852565b90613f145f613edf613eda600c612869565b611e1f565b63c0965bd790613f09613ef460018801610672565b92613efd6102f4565b9586948593849361287a565b83526004830161102b565b03915afa801561415657613f52915f80929050614133575b50613f4b613f45613f3f6003860161199c565b92610490565b91610490565b1015613c60565b613f606001600683016135b3565b613f92613f6f60018401610672565b92613f88613f7f60028501610672565b60018301613ca4565b60015f9101613cf2565b613fa75f613fa260038590610fd6565b613d34565b613fc784613fc26003613fbc60028601610672565b90610fd6565b613ca4565b613fd9613fd4600b612cc5565b61222c565b91613feb6002635260590a9301610672565b90614018856140098893613ffd6102f4565b94859360208501613d48565b602082018103825203826107d4565b61402a61402482612d42565b91612d3c565b2092803b1561412e576140505f809461405b6140446102f4565b9788968795869461287a565b845260048401613db5565b03925af18015614129576140fd575b508161409f6140997fbdd579cd1fe7b2900a091daff9c05a996778a8b5d2c00f64d37d2ef13ca2e0e293612b0b565b916105bf565b916140a86102f4565b806140b2816109e4565b0390a36002905f6140e37f2b317581c583287062e6f6228718be5303842a772984e1f9d4cbc201533a4d5a926105bf565b926140f86140ef6102f4565b92839283613de8565b0390a2565b61411c905f3d8111614122575b61411481836107d4565b810190612d46565b5f61406a565b503d61410a565b6128e4565b612876565b61414f91503d805f833e61414781836107d4565b810190613bb5565b5090613f2c565b6128e4565b50613e8c61417461416e600684016106c0565b15610353565b9050613e83565b50613e488461419a61419461418f856126be565b610490565b91610490565b11159050613e3f565b906141ad91613a7f565b565b906141ca916141c56141c082613a5e565b6173ca565b6141cc565b565b906141d691617464565b50565b906141e3916141af565b565b90806142006141fa6141f561750f565b6103ba565b916103ba565b036142115761420e9161751c565b50565b5f63334bd91960e11b815280614229600482016109e4565b0390fd5b6142446142499161423c612318565b5060056105cb565b6105f5565b90565b5f7f496e76616c69642073657373696f6e206b657900000000000000000000000000910152565b61428060136020926108b6565b6142898161424c565b0190565b6142a29060208101905f818303910152614273565b90565b156142ac57565b6142b46102f4565b62461bcd60e51b8152806142ca6004820161428d565b0390fd5b5f7f496e76616c69642076616c696469747920706572696f64000000000000000000910152565b61430260176020926108b6565b61430b816142ce565b0190565b6143249060208101905f8183039101526142f5565b90565b1561432e57565b6143366102f4565b62461bcd60e51b81528061434c6004820161430f565b0390fd5b61435a60e0611079565b90565b52565b5190565b60200190565b5490565b600190818003010490565b5f5260205f2090565b5b81811061438e575050565b8061439b5f600193612b4c565b01614383565b906143b1905f1990600802610de3565b191690565b816143c0916143a1565b906002021790565b905f916143df6143d782610714565b9283546143b6565b905555565b601f602091010490565b919290602082105f1461444757601f8411600114614417576144119293506143b6565b90555b5b565b509061443d61444293600161443461442e85610714565b926143e4565b82019101614382565b6143c8565b614414565b5061447e8293614458600194610714565b614477614464856143e4565b820192601f861680614489575b506143e4565b0190614382565b600202179055614415565b61449590888603612b7f565b5f614471565b9290916801000000000000000082116144fb576020115f146144ec57602081105f146144d0576144ca916143b6565b90555b5b565b60019160ff19166144e084610714565b556002020190556144cd565b600191506002020190556144ce565b6107c0565b90815461450c816106e1565b90818311614535575b818310614523575b50505050565b61452c936143ee565b5f80808061451d565b6145418383838761449b565b614515565b5f61455091614500565b565b905f036145645761456290614546565b565b612a8f565b5b818110614575575050565b806145825f600193614552565b0161456a565b9091828110614597575b505050565b6145b56145af6145a96145c09561436e565b9261436e565b92614379565b918201910190614569565b5f8080614592565b906801000000000000000081116145f157816145e66145ef9361436a565b90828155614588565b565b6107c0565b5190565b5190565b9190601f811161460e575b505050565b61461a61463f93610714565b906020614626846143e4565b83019310614647575b614638906143e4565b0190614382565b5f8080614609565b91506146388192905061462f565b9061465f816108b2565b9067ffffffffffffffff821161471f576146838261467d85546106e1565b856145fe565b602090601f83116001146146b7579180916146a6935f926146ab575b50506143b6565b90555b565b90915001515f8061469f565b601f198316916146c685610714565b925f5b818110614707575091600293918560019694106146ed575b505050020190556146a9565b6146fd910151601f8416906143a1565b90555f80806146e1565b919360206001819287870151815501950192016146c9565b6107c0565b9061472e91614655565b565b61475561474f61473f846145f6565b9361474a85856145c8565b614364565b91614379565b5f915b8383106147655750505050565b600160208261477d61477784956145fa565b86614724565b01920192019190614758565b9061479391614730565b565b5190565b9061484160c06006614847946147bc5f82016147b65f88016125a7565b90613ca4565b6147d5600182016147cf602088016125ce565b90613819565b6147ee600282016147e8604088016125ce565b90613819565b61480760038201614801606088016125ce565b90613819565b6148206004820161481a608088016125db565b906135b3565b6148396005820161483360a08801614360565b90614789565b019201614795565b90612ca5565b565b9061485391614799565b565b90565b5f5260205f2090565b5490565b61486e81614861565b82101561488857614880600191614858565b910201905f90565b6105e1565b90815491680100000000000000008310156148bd57826148b59160016148bb95018155614865565b90613d12565b565b6107c0565b602093926148e26014836148da82956148ea97612d08565b018092612d08565b018092612cd5565b0190565b5f7f53455353494f4e5f4b45595f4144444544000000000000000000000000000000910152565b61492260116020926108b6565b61492b816148ee565b0190565b91604061496092949361495961494e606083018381035f850152614915565b966020830190610407565b0190610a5e565b565b929094939193600284614974916116f4565b61497d90612852565b60010161498990610672565b33614993906103ba565b9061499d906103ba565b146149a7906134e3565b855f6149b2906131c7565b6149bb906103ba565b906149c5906103ba565b14156149d0906142a5565b84426149db90610490565b906149e590610490565b116149ef90614327565b859285925f906001929394614a02614350565b965f880190614a109161231c565b6020870190614a1e91612346565b6040860190614a2c91612346565b614a35906126a2565b6060850190614a4391612346565b6080840190614a5191612362565b60a0830190614a5f9161435d565b60c0820190614a6d91612412565b600782614a7991611bab565b84614a8391611bc1565b90614a8d91614849565b600881614a9991611986565b614aa290614855565b83614aac9161488d565b614ab6600b612cc5565b614abf9061222c565b635260590a3383868691614ad16102f4565b9283926020840192614ae2936148c2565b602082018103825203614af590826107d4565b614afe81612d42565b90614b0890612d3c565b2092803b15614bca57614b2e5f8094614b39614b226102f4565b9788968795869461287a565b84526004840161492f565b03925af18015614bc557614b99575b50919091614b94614b82614b7c7f0a6d9afd1f170f57d364c635ad79331e3892ddbc20beac9eedc3995cb2382bad936105bf565b936105bf565b93614b8b6102f4565b91829182610ef3565b0390a3565b614bb8905f3d8111614bbe575b614bb081836107d4565b810190612d46565b5f614b48565b503d614ba6565b6128e4565b612876565b90614be6969594939291614be16173eb565b61534e565b90614bef617450565b565b5f7f496e73756666696369656e74206372656174696f6e2066656500000000000000910152565b614c2560196020926108b6565b614c2e81614bf1565b0190565b614c479060208101905f818303910152614c18565b90565b15614c5157565b614c596102f4565b62461bcd60e51b815280614c6f60048201614c32565b0390fd5b5f7f496e76616c69642073616c740000000000000000000000000000000000000000910152565b614ca7600c6020926108b6565b614cb081614c73565b0190565b614cc99060208101905f818303910152614c9a565b90565b15614cd357565b614cdb6102f4565b62461bcd60e51b815280614cf160048201614cb4565b0390fd5b5f7f57616c6c657420616c72656164792065786973747320666f7220757365720000910152565b614d29601e6020926108b6565b614d3281614cf5565b0190565b614d4b9060208101905f818303910152614d1c565b90565b15614d5557565b614d5d6102f4565b62461bcd60e51b815280614d7360048201614d36565b0390fd5b5f7f53616c7420616c72656164792075736564000000000000000000000000000000910152565b614dab60116020926108b6565b614db481614d77565b0190565b614dcd9060208101905f818303910152614d9e565b90565b15614dd757565b614ddf6102f4565b62461bcd60e51b815280614df560048201614db8565b0390fd5b90565b614e10614e0b614e1592614df9565b610594565b610490565b90565b60207f7300000000000000000000000000000000000000000000000000000000000000917f4d756c7469536967206e65656473206174206c656173742032207369676e65725f8201520152565b614e7260216040926108b6565b614e7b81614e18565b0190565b614e949060208101905f818303910152614e65565b90565b15614e9e57565b614ea66102f4565b62461bcd60e51b815280614ebc60048201614e7f565b0390fd5b5f7f496e76616c6964207468726573686f6c64000000000000000000000000000000910152565b614ef460116020926108b6565b614efd81614ec0565b0190565b614f169060208101905f818303910152614ee7565b90565b15614f2057565b614f286102f4565b62461bcd60e51b815280614f3e60048201614f01565b0390fd5b90565b614f59614f54614f5e92614f42565b610594565b610490565b90565b634e487b7160e01b5f52601260045260245ffd5b614f81614f8791610490565b91610490565b908115614f92570490565b614f61565b614fa26101e0611079565b90565b60a01b90565b90614fba60ff60a01b91614fa5565b9181191691161790565b614fcd90610437565b90565b90565b90614fe8614fe3614fef92614fc4565b614fd0565b8254614fab565b9055565b614ffd9051610a5b565b90565b6150099061062a565b90565b9061502161501c61502892611440565b615000565b8254613803565b9055565b906151a36101c0600c6151a9946150505f820161504a5f88016125a7565b90613ca4565b61506960018201615063602088016125a7565b90613ca4565b6150826001820161507c604088016125b4565b90614fd3565b61509b60018201615095606088016125c1565b90613cf2565b6150b4600282016150ae608088016125ce565b90613819565b6150cd600382016150c760a088016125ce565b90613819565b6150e6600482016150e060c08801614ff3565b9061500c565b6150ff600582016150f960e088016125ce565b90613819565b6151196006820161511361010088016125db565b906135b3565b6151336007820161512d61012088016125ce565b90613819565b61514d600882016151476101408801614795565b90612ca5565b6151676009820161516161016088016125ce565b90613819565b615181600a820161517b61018088016125ce565b90613819565b61519b600b82016151956101a088016125ce565b90613819565b0192016125ce565b90613819565b565b906151b59161502c565b565b6151c160c0611079565b90565b9061525360a06005615259946151e75f82016151e15f88016125ce565b90613819565b615200600182016151fa602088016125ce565b90613819565b61521960028201615213604088016125ce565b90613819565b6152326003820161522c606088016125ce565b90613819565b61524b60048201615245608088016125ce565b90613819565b0192016125ce565b90613819565b565b90615265916151c4565b565b61527090610437565b90565b90565b61528261528791610a5b565b615273565b9052565b602093926152ab6014836152a388956152b397612d08565b018092612cd5565b018092615276565b0190565b5f7f41415f57414c4c45545f43524541544544000000000000000000000000000000910152565b6152eb60116020926108b6565b6152f4816152b7565b0190565b916040615329929493615322615317606083018381035f8501526152de565b966020830190610407565b0190610a5e565b565b91602061534c92949361534560408201965f83019061044f565b0190610a5e565b565b95919495939290935061537d3461537661537061536b6010610646565b610490565b91610490565b1015614c4a565b6153a28561539b6153956153905f611cf0565b610a5b565b91610a5b565b1415614ccc565b6153d96153b96153b460033390610fd6565b610672565b6153d36153cd6153c85f6131c7565b6103ba565b916103ba565b14614d4e565b6154106153f06153eb6004889061144c565b610672565b61540a6154046153ff5f6131c7565b6103ba565b916103ba565b14614dd0565b8361542461541e6002610437565b91610437565b1461578f575b8433615435916175bd565b958692339486935f9342428b905f925f94959697985f9a426201518061545a90614f45565b61546391614f75565b9c61546c614f97565b9e8f915f83019061547c9161231c565b602082019061548a9161231c565b604001906154979161232a565b60608d01906154a591612338565b60808c01906154b391612346565b60a08b01906154c191612346565b60c08a01906154cf91612354565b6154d8906126a2565b60e08901906154e691612346565b6101008801906154f591612362565b61012087019061550491612346565b61014086019061551391612412565b61016085019061552291612346565b61018084019061553191612346565b61553a906126a2565b6101a083019061554991612346565b6101c082019061555891612346565b600284615564916116f4565b9061556e916151ab565b8260033361557b91610fd6565b9061558591613ca4565b826004836155929161144c565b9061559c91613ca4565b600a6155a790614855565b836155b19161488d565b5f5f5f5f5f915f936155c16151b7565b956155cb906126a2565b5f8701906155d891612346565b6155e1906126a2565b60208601906155ef91612346565b6155f8906126a2565b604085019061560691612346565b61560f906126a2565b606084019061561d91612346565b615626906126a2565b608083019061563491612346565b61563d906126a2565b60a082019061564b91612346565b600684615657916114b0565b906156619161525b565b61566b600b612cc5565b6156749061222c565b635260590a33858461568590615267565b869161568f6102f4565b92839260208401926156a09361528b565b6020820181038252036156b390826107d4565b6156bc81612d42565b906156c690612d3c565b2092803b1561578a576156ec5f80946156f76156e06102f4565b9788968795869461287a565b8452600484016152f8565b03925af1801561578557615759575b508233919261573e6157387fa6ba52eca159b20bf5b39e325d9ff90ac68464e886d333dfadfadc3c5302d293936105bf565b936105bf565b9361575361574a6102f4565b9283928361532b565b0390a390565b615778905f3d811161577e575b61577081836107d4565b810190612d46565b5f615706565b503d615766565b6128e4565b612876565b6157b561579b82610b35565b6157ae6157a86002614dfc565b91610490565b1015614e97565b826157c86157c25f6126a2565b91610490565b11806157dd575b6157d890614f19565b61542a565b506157d8836157fc6157f66157f185610b35565b610490565b91610490565b111590506157cf565b9061581b959493929161581661230c565b614bcf565b90565b9061583061582b8361108e565b611079565b918252565b61583e906107fd565b90565b9061584b8261436a565b6158548161581e565b926158626020850191614379565b5f915b8383106158725750505050565b60016020819261588185615835565b815201920192019190615865565b61589960e0611079565b90565b9061594b61594260066158ad61588f565b946158c46158bc5f8301610672565b5f880161231c565b6158dc6158d360018301610646565b60208801612346565b6158f46158eb60028301610646565b60408801612346565b61590c61590360038301610646565b60608801612346565b61592461591b60048301610699565b60808801612362565b61593c61593360058301615841565b60a0880161435d565b016123f0565b60c08401612412565b565b6159569061589c565b90565b61597e916159746159799261596c6122c8565b506007611bab565b611bc1565b61594d565b61598a608082016125db565b9081615995575b5090565b90506159b56159af6159aa60204294016125ce565b610490565b91610490565b11155f615991565b6159c760c0611079565b90565b5f90565b6159d66159bd565b9060208080808080876159e76159ca565b8152016159f26159ca565b8152016159fd6159ca565b815201615a086159ca565b815201615a136159ca565b815201615a1e6159ca565b81525050565b615a2c6159ce565b90565b90615ac6615abd6005615a406159bd565b94615a57615a4f5f8301610646565b5f8801612346565b615a6f615a6660018301610646565b60208801612346565b615a87615a7e60028301610646565b60408801612346565b615a9f615a9660038301610646565b60608801612346565b615ab7615aae60048301610646565b60808801612346565b01610646565b60a08401612346565b565b615ad190615a2f565b90565b615aeb615af091615ae3615a24565b5060066114b0565b615ac8565b90565b615b0c90615b07615b02610a2c565b6173ca565b615b0e565b565b615b19906011613819565b565b615b2490615af3565b565b90615b30906105bf565b5f5260205260405f2090565b615b62915f615b57615b5d93615b506122c8565b5082613a48565b01615b26565b610699565b90565b5f7f4e6f742061206d756c74697369672077616c6c65740000000000000000000000910152565b615b9960156020926108b6565b615ba281615b65565b0190565b615bbb9060208101905f818303910152615b8c565b90565b15615bc557565b615bcd6102f4565b62461bcd60e51b815280615be360048201615ba6565b0390fd5b5f7f4d696e696d756d2032207369676e657273207265717569726564000000000000910152565b615c1b601a6020926108b6565b615c2481615be7565b0190565b615c3d9060208101905f818303910152615c0e565b90565b15615c4757565b615c4f6102f4565b62461bcd60e51b815280615c6560048201615c28565b0390fd5b5f7f5349474e4552535f555044415445440000000000000000000000000000000000910152565b615c9d600f6020926108b6565b615ca681615c69565b0190565b916040615cdb929493615cd4615cc9606083018381035f850152615c90565b966020830190610407565b0190610a5e565b565b92916020615cf9615d019360408701908782035f890152610b6c565b940190610493565b565b615dc9615d1a615d15600284906116f4565b612852565b615d41615d2960018301610672565b615d3b615d35336103ba565b916103ba565b146134e3565b615d69615d506001830161172a565b615d63615d5d6002610437565b91610437565b14615bbe565b615d8f615d7585610b35565b615d88615d826002614dfc565b91610490565b1015615c40565b84615da2615d9c5f6126a2565b91610490565b1180615ee5575b615db290614f19565b615dbf8460088301612ca5565b6009859101613819565b615ddb615dd6600b612cc5565b61222c565b635260590a3383615e16615dee87610b35565b91615e0789615dfb6102f4565b94859360208501613839565b602082018103825203826107d4565b615e28615e2282612d42565b91612d3c565b2092803b15615ee057615e4e5f8094615e59615e426102f4565b9788968795869461287a565b845260048401615caa565b03925af18015615edb57615eaf575b509091615e957f6f8c25f4ead087c594c69b3eeda8bf24114aa4cdcd34adfb98ed343c6c5f800f926105bf565b92615eaa615ea16102f4565b92839283615cdd565b0390a2565b615ece905f3d8111615ed4575b615ec681836107d4565b810190612d46565b5f615e68565b503d615ebc565b6128e4565b612876565b50615db285615f04615efe615ef988610b35565b610490565b91610490565b11159050615da9565b615f24615f2991615f1c61230c565b506003610fd6565b610672565b90565b90615f40939291615f3b6173eb565b616281565b90615f49617450565b565b5f7f57616c6c657420646f6573206e6f742065786973740000000000000000000000910152565b615f7f60156020926108b6565b615f8881615f4b565b0190565b615fa19060208101905f818303910152615f72565b90565b15615fab57565b615fb36102f4565b62461bcd60e51b815280615fc960048201615f8c565b0390fd5b60207f207265636f766572790000000000000000000000000000000000000000000000917f57616c6c657420646f6573206e6f7420737570706f727420677561726469616e5f8201520152565b61602760296040926108b6565b61603081615fcd565b0190565b6160499060208101905f81830391015261601a565b90565b1561605357565b61605b6102f4565b62461bcd60e51b81528061607160048201616034565b0390fd5b61607e90610490565b5f19811461608c5760010190565b612763565b61609c610120611079565b90565b52565b60081b90565b906160b561ff00916160a2565b9181191691161790565b906160d46160cf6160db926135a4565b6135b0565b82546160a8565b9055565b906161ba61010060076161c0946161035f82016160fd5f88016125ce565b90613819565b61611c60018201616116602088016125a7565b90613ca4565b6161356002820161612f604088016125a7565b90613ca4565b61614e6003820161614860608801614795565b90612ca5565b61616760048201616161608088016125ce565b90613819565b6161806005820161617a60a088016125ce565b90613819565b6161996006820161619360c088016125db565b906135b3565b6161b2600682016161ac60e088016125db565b906160bf565b0192016145fa565b90614724565b565b91906161d3576161d1916160df565b565b612a8f565b90815491680100000000000000008310156162085782616200916001616206950181556127a5565b906161c2565b565b6107c0565b5f7f5245434f564552595f5245515545535445440000000000000000000000000000910152565b61624160126020926108b6565b61624a8161620d565b0190565b91604061627f92949361627861626d606083018381035f850152616234565b966020830190610407565b0190610a5e565b565b91909150616299616294600284906116f4565b612852565b6162bf6162a75f8301610672565b6162b96162b3866103ba565b916103ba565b14615fa4565b6162e76162ce6001830161172a565b6162e16162db6001610437565b91610437565b1461604c565b6162f96162f4600c612869565b611e1f565b602063d4ee97349161630d60018501610672565b9061632a339461633561631e6102f4565b9687958694859461287a565b8452600484016128c1565b03915afa801561663257616350915f91616604575b5061294d565b61635a6009610646565b61636390616075565b61636e906009613819565b6163786009610646565b938490849084600161638990612747565b61639290612a48565b424261639e6011610646565b6163a791612a07565b915f935f95966163b5616091565b985f8a01906163c391612346565b60208901906163d19161231c565b60408801906163df9161231c565b60608701906163ed91612412565b60808601906163fb91612346565b60a085019061640991612346565b60c084019061641791612362565b60e083019061642591612362565b6101008201906164349161609f565b3381606001515f616444906126a2565b61644d91612a6f565b906164579161231c565b600584616463916105cb565b61646c9061269f565b90616476916161d8565b6002816001019061648691613cf2565b616490600b612cc5565b6164999061222c565b90635260590a906001016164ac90610672565b858585916164b86102f4565b92839260208401926164c993613d48565b6020820181038252036164dc90826107d4565b6164e581612d42565b906164ef90612d3c565b2092803b156165ff576165155f80946165206165096102f4565b9788968795869461287a565b84526004840161624e565b03925af180156165fa576165ce575b5082908261656f6165696165637f60869538b99d1160ad7d1a7931b389406d9354720eb2d5cf1586de961f380f7d95612b0b565b926105bf565b926105bf565b926165786102f4565b80616582816109e4565b0390a45f9060026165b37f2b317581c583287062e6f6228718be5303842a772984e1f9d4cbc201533a4d5a926105bf565b926165c86165bf6102f4565b92839283613de8565b0390a290565b6165ed905f3d81116165f3575b6165e581836107d4565b810190612d46565b5f61652f565b503d6165db565b6128e4565b612876565b616625915060203d811161662b575b61661d81836107d4565b8101906128a3565b5f61634a565b503d616613565b6128e4565b9061664a9291616645612318565b615f2c565b90565b6166669061666161665c610a2c565b6173ca565b616668565b565b616673906010613819565b565b61667e9061664d565b565b6166919061668c6173eb565b616975565b616699617450565b565b5f7f4e6f7420617574686f72697a6564000000000000000000000000000000000000910152565b6166cf600e6020926108b6565b6166d88161669b565b0190565b6166f19060208101905f8183039101526166c2565b90565b156166fb57565b6167036102f4565b62461bcd60e51b815280616719600482016166dc565b0390fd5b5f7f57616c6c657420616c7265616479206465706c6f796564000000000000000000910152565b61675160176020926108b6565b61675a8161671d565b0190565b6167739060208101905f818303910152616744565b90565b1561677d57565b6167856102f4565b62461bcd60e51b81528061679b6004820161675e565b0390fd5b906167bc6167b66167af8461199c565b8093610b39565b926119a0565b905f5b8181106167cc5750505090565b9091926167ec6167e66001926167e187612379565b610b55565b94612386565b91019190916167bf565b9392906168216040916168299461681460608901925f8a0190610407565b878203602089015261679f565b940190610493565b565b6168506168479260209261683e81612d42565b948580936132ef565b938491016108bf565b0190565b8061686560149261686c9594612d08565b019061682b565b90565b5f7f4465706c6f796d656e742061646472657373206d69736d617463680000000000910152565b6168a3601b6020926108b6565b6168ac8161686f565b0190565b6168c59060208101905f818303910152616896565b90565b156168cf57565b6168d76102f4565b62461bcd60e51b8152806168ed600482016168b0565b0390fd5b6168fd81601493612d08565b0190565b5f7f41415f57414c4c45545f4445504c4f5945440000000000000000000000000000910152565b61693560126020926108b6565b61693e81616901565b0190565b91604061697392949361696c616961606083018381035f850152616928565b966020830190610407565b0190610a5e565b565b616989616984600283906116f4565b612852565b9061699660018301610672565b6169a86169a2336103ba565b916103ba565b148015616bca575b6169b9906166f4565b6169d66169d16169cb60068501610699565b15610353565b616776565b616a8b616a736169e6600e610672565b616a566169f560018701610672565b91616a306008880193616a21616a0d60098b01610646565b616a156102f4565b968793602085016167f6565b602082018103825203846107d4565b616a47616a3b6102f4565b93849260208401616854565b602082018103825203826107d4565b5f90616a6e616a676004880161177b565b91926126a2565b617672565b616a85616a7f846103ba565b916103ba565b146168c8565b616a996001600684016135b3565b616aab616aa6600b612cc5565b61222c565b90635260590a616abd60018501610672565b616ad8616ae784616acc6102f4565b928391602083016168f1565b602082018103825203826107d4565b616af9616af382612d42565b91612d3c565b2093803b15616bc557616b1f5f8094616b2a616b136102f4565b9889968795869461287a565b845260048401616942565b03925af1908115616bc057616b4992600192616b94575b509201610672565b616b7c616b767ff25144576b87c0db53fd13e964c2b18299ee19d7d44d4b2636144644acff745b936105bf565b916105bf565b91616b856102f4565b80616b8f816109e4565b0390a3565b616bb3905f3d8111616bb9575b616bab81836107d4565b810190612d46565b5f616b41565b503d616ba1565b6128e4565b612876565b506169b9616be0616bd9610a2c565b3390615b3c565b90506169b0565b616bf090616680565b565b90616c0d91616c08616c0382613a5e565b6173ca565b616c0f565b565b90616c199161751c565b50565b90616c2691616bf2565b565b90616c439291616c3e616c39610f3d565b6173ca565b616c46565b90565b90616c599291616c546173eb565b616f74565b90616c62617450565b565b5f7f496e76616c69642077616c6c6574000000000000000000000000000000000000910152565b616c98600e6020926108b6565b616ca181616c64565b0190565b616cba9060208101905f818303910152616c8b565b90565b15616cc457565b616ccc6102f4565b62461bcd60e51b815280616ce260048201616ca5565b0390fd5b5f7f57616c6c6574206e6f7420616374697665000000000000000000000000000000910152565b616d1a60116020926108b6565b616d2381616ce6565b0190565b616d3c9060208101905f818303910152616d0d565b90565b15616d4657565b616d4e6102f4565b62461bcd60e51b815280616d6460048201616d27565b0390fd5b5f7f496e76616c6964206e6f6e636500000000000000000000000000000000000000910152565b616d9c600d6020926108b6565b616da581616d68565b0190565b616dbe9060208101905f818303910152616d8f565b90565b15616dc857565b616dd06102f4565b62461bcd60e51b815280616de660048201616da9565b0390fd5b616df6616dfb9161062a565b610de7565b90565b616e089054616dea565b90565b90602082820312616e2457616e21915f01613ba6565b90565b6102fe565b5f7f496e73756666696369656e742074727573742073636f72650000000000000000910152565b616e5d60186020926108b6565b616e6681616e29565b0190565b616e7f9060208101905f818303910152616e50565b90565b15616e8957565b616e916102f4565b62461bcd60e51b815280616ea760048201616e6a565b0390fd5b90565b60f81b90565b616ebd90616eae565b90565b616ec990616eb4565b90565b616ed8616edd91610353565b616ec0565b9052565b602081616ef4616efc9360019695615276565b018092616ecc565b0190565b5f7f555345525f4f505f455845435554454400000000000000000000000000000000910152565b616f3460106020926108b6565b616f3d81616f00565b0190565b916040616f72929493616f6b616f60606083018381035f850152616f27565b966020830190610407565b0190610a5e565b565b91909150616f96616f916002616f8b5f86016125a7565b906116f4565b612852565b616fc6616fa45f8301610672565b616fc0616fba616fb55f88016125a7565b6103ba565b916103ba565b14616cbd565b616fed616fd560018301611757565b616fe7616fe15f61046b565b9161046b565b14616d3f565b61701f616ffc602085016125ce565b61701961701361700e60058601610646565b610490565b91610490565b14616dc1565b61703d6005820161703761703282610646565b616075565b90613819565b61704960078201610646565b61705b6170555f6126a2565b91610490565b116172b2575b61707e61706f5f85016125a7565b6170788561775f565b9061780f565b61708783617c16565b9261714b6170a96170a4600661709e5f86016125a7565b906114b0565b616eab565b6170c65f82016170c06170bb82610646565b616075565b90613819565b855f1461728f576170eb600182016170e56170e082610646565b616075565b90613819565b5b617141617125617113617101608087016125ce565b61710d60a088016125ce565b90612a07565b61711f60c087016125ce565b90612a07565b61713b600384019161713683610646565b612a07565b90613819565b6005429101613819565b6171584260038401613819565b61716a617165600b612cc5565b61222c565b9161717c6001635260590a9201610672565b846171a8879161719961718d6102f4565b93849260208401616ee1565b602082018103825203826107d4565b6171ba6171b482612d42565b91612d3c565b2093803b1561728a576171e05f80946171eb6171d46102f4565b9889968795869461287a565b845260048401616f41565b03925af190811561728557617208925f92617259575b50016125a7565b90829161725361724161723b7f1d37003d582394f4347efaf777cdc2feb177c98ed4ac83f68f0e03d58989d4bd936105bf565b93611440565b9361724a6102f4565b91829182610365565b0390a390565b61727890833d811161727e575b61727081836107d4565b810190612d46565b5f617201565b503d617266565b6128e4565b612876565b6172ad600282016172a76172a282610646565b616075565b90613819565b6170ec565b6172fe60206172c96172c4600d616dfe565b610e27565b635e09eea1906172f36172de60018701610672565b926172e76102f4565b9586948593849361287a565b83526004830161102b565b03915afa801561736b57617338915f9161733d575b5061733161732b61732660078601610646565b610490565b91610490565b1015616e82565b617061565b61735e915060203d8111617364575b61735681836107d4565b810190616e0b565b5f617313565b503d61734c565b6128e4565b906173829161737d6122c8565b616c28565b90565b61739c6173a191617394613463565b506008611986565b613468565b90565b6173ac6122c8565b506173c66173c06301ffc9a760e01b610306565b91610306565b1490565b6173dc906173d661750f565b90617da2565b565b6173e86002614dfc565b90565b6173f56001610646565b61740e6174086174036173de565b610490565b91610490565b146174275761742561741e6173de565b6001613819565b565b5f633ee5aeb560e01b81528061743f600482016109e4565b0390fd5b61744d6001612747565b90565b61746261745b617443565b6001613819565b565b61746c6122c8565b5061748161747b828490615b3c565b15610353565b5f14617509576174a860016174a35f61749b818690613a48565b018590615b26565b6135b3565b906174b161750f565b906174ee6174e86174e27f2f8788117e7eff1d82e926ec794901d17c78024a50270940304540a733656f0d95611440565b926105bf565b926105bf565b926174f76102f4565b80617501816109e4565b0390a4600190565b50505f90565b61751761230c565b503390565b6175246122c8565b50617530818390615b3c565b5f146175b7576175565f6175515f617549818690613a48565b018590615b26565b6135b3565b9061755f61750f565b9061759c6175966175907ff6391f5c32d9c69d2a47ea670b442974b53935d1edc7fd64eb21e047a839171b95611440565b926105bf565b926105bf565b926175a56102f4565b806175af816109e4565b0390a4600190565b50505f90565b6175f2617627617640936175cf61230c565b506176016175dd600e610672565b916175e66102f4565b9485916020830161102b565b602082018103825203846107d4565b61761861760c6102f4565b93849260208401616854565b602082018103825203826107d4565b61763961763382612d42565b91612d3c565b2090617ddd565b90565b61764c906105b3565b90565b91602061767092949361766960408201965f830190610493565b0190610493565b565b91909161767d61230c565b5061768730617643565b3161769a61769483610490565b91610490565b10617737576176a882612d42565b6176ba6176b45f6126a2565b91610490565b1461771b5760208251920190f5903d151982151661771057816176ed6176e76176e25f6131c7565b6103ba565b916103ba565b146176f457565b5f63b06ebf3d60e01b81528061770c600482016109e4565b0390fd5b6040513d5f823e3d90fd5b5f631328927760e21b815280617733600482016109e4565b0390fd5b61774030617643565b3161775b5f92839263cf47918160e01b84526004840161764f565b0390fd5b61778a9061776b612318565b5061778460e061777d608084016125ce565b92016125ce565b90612aa2565b90565b5f7f4461696c79207370656e64696e67206c696d6974206578636565646564000000910152565b6177c1601d6020926108b6565b6177ca8161778d565b0190565b6177e39060208101905f8183039101526177b4565b90565b156177ed57565b6177f56102f4565b62461bcd60e51b81528061780b600482016177ce565b0390fd5b61781d6178229160026116f4565b612852565b61782e600a8201610646565b61784061783a5f6126a2565b91610490565b14617905576178d6600b6178dc936178644261785e62015180614f45565b90614f75565b8061788261787c617877600c8901610646565b610490565b91610490565b116178de575b506178c56178a161789a848701610646565b8390612a07565b6178be6178b86178b3600a8901610646565b610490565b91610490565b11156177e6565b9201916178d183610646565b612a07565b90613819565b565b6178ff906178f66178ee5f6126a2565b858801613819565b600c8601613819565b5f617888565b5050565b90565b61792061791b61792592617909565b610594565b610490565b90565b5f7f496e73756666696369656e742063616c6c206761730000000000000000000000910152565b61795c60156020926108b6565b61796581617928565b0190565b61797e9060208101905f81830391015261794f565b90565b1561798857565b6179906102f4565b62461bcd60e51b8152806179a660048201617969565b0390fd5b90565b6179c16179bc6179c6926179aa565b610594565b610490565b90565b5f7f496e73756666696369656e7420766572696669636174696f6e20676173000000910152565b6179fd601d6020926108b6565b617a06816179c9565b0190565b617a1f9060208101905f8183039101526179f0565b90565b15617a2957565b617a316102f4565b62461bcd60e51b815280617a4760048201617a0a565b0390fd5b60207f7300000000000000000000000000000000000000000000000000000000000000917f496e73756666696369656e74207072652d766572696669636174696f6e2067615f8201520152565b617aa560216040926108b6565b617aae81617a4b565b0190565b617ac79060208101905f818303910152617a98565b90565b15617ad157565b617ad96102f4565b62461bcd60e51b815280617aef60048201617ab2565b0390fd5b5f7f496e76616c6964206761732070726963696e6700000000000000000000000000910152565b617b2760136020926108b6565b617b3081617af3565b0190565b617b499060208101905f818303910152617b1a565b90565b15617b5357565b617b5b6102f4565b62461bcd60e51b815280617b7160048201617b34565b0390fd5b90565b617b8c617b87617b9192617b75565b610594565b610490565b90565b5f7f47617320707269636520746f6f20686967680000000000000000000000000000910152565b617bc860126020926108b6565b617bd181617b94565b0190565b617bea9060208101905f818303910152617bbb565b90565b15617bf457565b617bfc6102f4565b62461bcd60e51b815280617c1260048201617bd5565b0390fd5b617c1e6122c8565b50617c2c6060820151612d42565b617c3e617c385f6126a2565b91610490565b14617d7a57617c6d617c52608083016125ce565b617c66617c6061520861790c565b91610490565b1015617981565b617c98617c7c60a083016125ce565b617c91617c8b620186a06179ad565b91610490565b1015617a22565b617cc2617ca760c083016125ce565b617cbb617cb561520861790c565b91610490565b1015617aca565b617cf6617cd160e083016125ce565b617cef617ce9617ce461010086016125ce565b610490565b91610490565b1015617b4c565b617d23617d0560e083016125ce565b617d1c617d1664e8d4a51000617b78565b91610490565b1115617bed565b617d2f608082016125ce565b617d43617d3d61520861790c565b91610490565b10159081617d50575b5090565b617d5d915060a0016125ce565b617d72617d6c620186a06179ad565b91610490565b10155f617d4c565b505f90565b916020617da0929493617d9960408201965f830190610407565b0190610a5e565b565b90617db7617db1838390615b3c565b15610353565b617dbf575050565b617dd95f92839263e2517d3f60e01b845260048401617d7f565b0390fd5b90617dfb91617dea61230c565b5090617df530617643565b91617dfe565b90565b91600b92617e0a61230c565b50604051926040840152602083015281520160ff8153605560018060a01b039120169056fea2646970667358221220aa4fd1235bc0fa957f93d54b27273d87bb1555583f8678468d03358b77d285ec64736f6c634300081e0033","linkReferences":{}},"methodIdentifiers":{"DEFAULT_ADMIN_ROLE()":"a217fddf","PAYMASTER_ROLE()":"37adfa36","WALLET_ADMIN_ROLE()":"133d93a1","addSessionKey(address,address,uint256,uint256,string[],address[])":"5c7d9236","allWallets(uint256)":"8cf8350f","confirmRecovery(uint256,address)":"132ff840","createWallet(uint8,bytes32,address[],uint256,uint256,uint256)":"5ed3fcd3","creationFee()":"dce0b4e4","deployWallet(address)":"c8cc2fc2","entryPoint()":"b0d691fe","executeRecovery(uint256,address)":"289cb4a1","executeUserOp((address,uint256,bytes,bytes,uint256,uint256,uint256,uint256,uint256,bytes,bytes),bytes32)":"de61edfc","getAllWallets()":"1bfa8601","getRecoveries(address)":"4ca660a8","getRoleAdmin(bytes32)":"248a9ca3","getSessionKeys(address)":"fde5354d","getUserWallet(address)":"9ad54793","getWallet(address)":"04d0a647","getWalletStats(address)":"8931e828","grantRole(bytes32,address)":"2f2ff15d","guardianManager()":"b0349631","hasRole(bytes32,address)":"91d14854","isSessionKeyValid(address,address)":"81e9c8d1","ownerToWallet(address)":"54cb0ecd","recoveries(address,uint256)":"092efc15","recoveryCounter()":"68f0c713","recoveryDelay()":"3758ca7a","renounceRole(bytes32,address)":"36568abe","requestRecovery(address,address,string)":"a8403e90","revokeRole(bytes32,address)":"d547741f","revokeSessionKey(address,address)":"1f091782","saltToWallet(bytes32)":"6e7a33f8","sessionKeys(address,address)":"96ade1f9","setCreationFee(uint256)":"b7d86225","setRecoveryDelay(uint256)":"8eb8bd8f","supportsInterface(bytes4)":"01ffc9a7","trustScore()":"3078d998","updateSigners(address,address[],uint256)":"9600455e","updateWalletSettings(address,uint256,uint256)":"1f432fa9","userOpStats(address)":"72a916d0","verificationLogger()":"e1300c88","walletImplementation()":"8117abc1","walletSessionKeys(address,uint256)":"8aaa6a40","wallets(address)":"89b08f11","withdrawFees(address)":"164e68de"},"id":62}