{"abi":[{"type":"constructor","inputs":[{"name":"_entryPoint","type":"address","internalType":"address"},{"name":"_trustScore","type":"address","internalType":"address"},{"name":"_verificationLogger","type":"address","internalType":"address"},{"name":"_alchemyPolicyId","type":"string","internalType":"string"},{"name":"_alchemyAppId","type":"string","internalType":"string"},{"name":"_alchemyPaymaster","type":"address","internalType":"address"}],"stateMutability":"nonpayable"},{"type":"receive","stateMutability":"payable"},{"type":"function","name":"ADMIN_ROLE","inputs":[],"outputs":[{"name":"","type":"bytes32","internalType":"bytes32"}],"stateMutability":"view"},{"type":"function","name":"DEFAULT_ADMIN_ROLE","inputs":[],"outputs":[{"name":"","type":"bytes32","internalType":"bytes32"}],"stateMutability":"view"},{"type":"function","name":"OPERATOR_ROLE","inputs":[],"outputs":[{"name":"","type":"bytes32","internalType":"bytes32"}],"stateMutability":"view"},{"type":"function","name":"alchemyConfig","inputs":[],"outputs":[{"name":"policyId","type":"string","internalType":"string"},{"name":"appId","type":"string","internalType":"string"},{"name":"alchemyPaymaster","type":"address","internalType":"address"},{"name":"useAlchemyBackend","type":"bool","internalType":"bool"},{"name":"maxSponsoredGas","type":"uint256","internalType":"uint256"}],"stateMutability":"view"},{"type":"function","name":"dailyGasUsed","inputs":[{"name":"","type":"address","internalType":"address"},{"name":"","type":"uint256","internalType":"uint256"}],"outputs":[{"name":"","type":"uint256","internalType":"uint256"}],"stateMutability":"view"},{"type":"function","name":"emergencyWithdraw","inputs":[],"outputs":[],"stateMutability":"nonpayable"},{"type":"function","name":"entryPoint","inputs":[],"outputs":[{"name":"","type":"address","internalType":"address"}],"stateMutability":"view"},{"type":"function","name":"getPaymasterData","inputs":[{"name":"user","type":"address","internalType":"address"},{"name":"dapp","type":"address","internalType":"address"},{"name":"gasLimit","type":"uint256","internalType":"uint256"}],"outputs":[{"name":"paymasterData","type":"bytes","internalType":"bytes"}],"stateMutability":"view"},{"type":"function","name":"getRoleAdmin","inputs":[{"name":"role","type":"bytes32","internalType":"bytes32"}],"outputs":[{"name":"","type":"bytes32","internalType":"bytes32"}],"stateMutability":"view"},{"type":"function","name":"grantRole","inputs":[{"name":"role","type":"bytes32","internalType":"bytes32"},{"name":"account","type":"address","internalType":"address"}],"outputs":[],"stateMutability":"nonpayable"},{"type":"function","name":"hasRole","inputs":[{"name":"role","type":"bytes32","internalType":"bytes32"},{"name":"account","type":"address","internalType":"address"}],"outputs":[{"name":"","type":"bool","internalType":"bool"}],"stateMutability":"view"},{"type":"function","name":"monthlyGasUsed","inputs":[{"name":"","type":"address","internalType":"address"},{"name":"","type":"uint256","internalType":"uint256"}],"outputs":[{"name":"","type":"uint256","internalType":"uint256"}],"stateMutability":"view"},{"type":"function","name":"onboardingGasAllowance","inputs":[],"outputs":[{"name":"","type":"uint256","internalType":"uint256"}],"stateMutability":"view"},{"type":"function","name":"onboardingGasUsed","inputs":[{"name":"","type":"address","internalType":"address"}],"outputs":[{"name":"","type":"uint256","internalType":"uint256"}],"stateMutability":"view"},{"type":"function","name":"onboardingPeriod","inputs":[],"outputs":[{"name":"","type":"uint256","internalType":"uint256"}],"stateMutability":"view"},{"type":"function","name":"recordGasSponsorship","inputs":[{"name":"user","type":"address","internalType":"address"},{"name":"dapp","type":"address","internalType":"address"},{"name":"gasUsed","type":"uint256","internalType":"uint256"},{"name":"ruleUsed","type":"string","internalType":"string"}],"outputs":[],"stateMutability":"nonpayable"},{"type":"function","name":"renounceRole","inputs":[{"name":"role","type":"bytes32","internalType":"bytes32"},{"name":"callerConfirmation","type":"address","internalType":"address"}],"outputs":[],"stateMutability":"nonpayable"},{"type":"function","name":"revokeRole","inputs":[{"name":"role","type":"bytes32","internalType":"bytes32"},{"name":"account","type":"address","internalType":"address"}],"outputs":[],"stateMutability":"nonpayable"},{"type":"function","name":"setOnboardingSettings","inputs":[{"name":"gasAllowance","type":"uint256","internalType":"uint256"},{"name":"period","type":"uint256","internalType":"uint256"}],"outputs":[],"stateMutability":"nonpayable"},{"type":"function","name":"shouldSponsorGas","inputs":[{"name":"user","type":"address","internalType":"address"},{"name":"","type":"address","internalType":"address"},{"name":"gasRequested","type":"uint256","internalType":"uint256"}],"outputs":[{"name":"shouldSponsor","type":"bool","internalType":"bool"},{"name":"maxGas","type":"uint256","internalType":"uint256"},{"name":"ruleUsed","type":"string","internalType":"string"}],"stateMutability":"view"},{"type":"function","name":"sponsorshipRules","inputs":[{"name":"","type":"bytes32","internalType":"bytes32"}],"outputs":[{"name":"minTrustScore","type":"uint256","internalType":"uint256"},{"name":"maxGasPerOp","type":"uint256","internalType":"uint256"},{"name":"maxGasPerDay","type":"uint256","internalType":"uint256"},{"name":"maxGasPerMonth","type":"uint256","internalType":"uint256"},{"name":"isActive","type":"bool","internalType":"bool"},{"name":"description","type":"string","internalType":"string"}],"stateMutability":"view"},{"type":"function","name":"supportsInterface","inputs":[{"name":"interfaceId","type":"bytes4","internalType":"bytes4"}],"outputs":[{"name":"","type":"bool","internalType":"bool"}],"stateMutability":"view"},{"type":"function","name":"totalGasSponsored","inputs":[{"name":"","type":"address","internalType":"address"}],"outputs":[{"name":"","type":"uint256","internalType":"uint256"}],"stateMutability":"view"},{"type":"function","name":"trustScore","inputs":[],"outputs":[{"name":"","type":"address","internalType":"contract ITrustScore"}],"stateMutability":"view"},{"type":"function","name":"updateAlchemyConfig","inputs":[{"name":"policyId","type":"string","internalType":"string"},{"name":"appId","type":"string","internalType":"string"},{"name":"alchemyPaymaster","type":"address","internalType":"address"},{"name":"maxSponsoredGas","type":"uint256","internalType":"uint256"}],"outputs":[],"stateMutability":"nonpayable"},{"type":"function","name":"updateSponsorshipRule","inputs":[{"name":"ruleId","type":"string","internalType":"string"},{"name":"minTrustScore","type":"uint256","internalType":"uint256"},{"name":"maxGasPerOp","type":"uint256","internalType":"uint256"},{"name":"maxGasPerDay","type":"uint256","internalType":"uint256"},{"name":"maxGasPerMonth","type":"uint256","internalType":"uint256"},{"name":"isActive","type":"bool","internalType":"bool"},{"name":"description","type":"string","internalType":"string"}],"outputs":[],"stateMutability":"nonpayable"},{"type":"function","name":"userOnboardingStart","inputs":[{"name":"","type":"address","internalType":"address"}],"outputs":[{"name":"","type":"uint256","internalType":"uint256"}],"stateMutability":"view"},{"type":"function","name":"verificationLogger","inputs":[],"outputs":[{"name":"","type":"address","internalType":"contract IVerificationLogger"}],"stateMutability":"view"},{"type":"function","name":"whitelistDApp","inputs":[{"name":"dapp","type":"address","internalType":"address"},{"name":"whitelisted","type":"bool","internalType":"bool"}],"outputs":[],"stateMutability":"nonpayable"},{"type":"function","name":"whitelistedDApps","inputs":[{"name":"","type":"address","internalType":"address"}],"outputs":[{"name":"","type":"bool","internalType":"bool"}],"stateMutability":"view"},{"type":"event","name":"AlchemyConfigUpdated","inputs":[{"name":"policyId","type":"string","indexed":false,"internalType":"string"},{"name":"appId","type":"string","indexed":false,"internalType":"string"},{"name":"paymaster","type":"address","indexed":false,"internalType":"address"}],"anonymous":false},{"type":"event","name":"GasSponsored","inputs":[{"name":"user","type":"address","indexed":true,"internalType":"address"},{"name":"dapp","type":"address","indexed":true,"internalType":"address"},{"name":"gasAmount","type":"uint256","indexed":false,"internalType":"uint256"},{"name":"trustScore","type":"uint256","indexed":false,"internalType":"uint256"},{"name":"ruleUsed","type":"string","indexed":false,"internalType":"string"}],"anonymous":false},{"type":"event","name":"OnboardingGasProvided","inputs":[{"name":"user","type":"address","indexed":true,"internalType":"address"},{"name":"gasAmount","type":"uint256","indexed":false,"internalType":"uint256"},{"name":"remainingAllowance","type":"uint256","indexed":false,"internalType":"uint256"}],"anonymous":false},{"type":"event","name":"RoleAdminChanged","inputs":[{"name":"role","type":"bytes32","indexed":true,"internalType":"bytes32"},{"name":"previousAdminRole","type":"bytes32","indexed":true,"internalType":"bytes32"},{"name":"newAdminRole","type":"bytes32","indexed":true,"internalType":"bytes32"}],"anonymous":false},{"type":"event","name":"RoleGranted","inputs":[{"name":"role","type":"bytes32","indexed":true,"internalType":"bytes32"},{"name":"account","type":"address","indexed":true,"internalType":"address"},{"name":"sender","type":"address","indexed":true,"internalType":"address"}],"anonymous":false},{"type":"event","name":"RoleRevoked","inputs":[{"name":"role","type":"bytes32","indexed":true,"internalType":"bytes32"},{"name":"account","type":"address","indexed":true,"internalType":"address"},{"name":"sender","type":"address","indexed":true,"internalType":"address"}],"anonymous":false},{"type":"event","name":"SponsorshipRuleUpdated","inputs":[{"name":"ruleId","type":"bytes32","indexed":true,"internalType":"bytes32"},{"name":"minTrustScore","type":"uint256","indexed":false,"internalType":"uint256"},{"name":"maxGasPerOp","type":"uint256","indexed":false,"internalType":"uint256"},{"name":"isActive","type":"bool","indexed":false,"internalType":"bool"}],"anonymous":false},{"type":"error","name":"AccessControlBadConfirmation","inputs":[]},{"type":"error","name":"AccessControlUnauthorizedAccount","inputs":[{"name":"account","type":"address","internalType":"address"},{"name":"neededRole","type":"bytes32","internalType":"bytes32"}]},{"type":"error","name":"ReentrancyGuardReentrantCall","inputs":[]}],"bytecode":{"object":"0x60a06040523461003f57610020610014610208565b9493909392919261098c565b610028610044565b61313c611349823960805181610fbe015261313c90f35b61004a565b60405190565b5f80fd5b601f801991011690565b634e487b7160e01b5f52604160045260245ffd5b906100769061004e565b810190811060018060401b0382111761008e57604052565b610058565b906100a661009f610044565b928361006c565b565b5f80fd5b5f80fd5b60018060a01b031690565b6100c4906100b0565b90565b6100d0816100bb565b036100d757565b5f80fd5b905051906100e8826100c7565b565b5f80fd5b5f80fd5b60018060401b03811161010e5761010a60209161004e565b0190565b610058565b90825f9392825e0152565b9092919261013361012e826100f2565b610093565b9381855260208501908284011161014f5761014d92610113565b565b6100ee565b9080601f830112156101725781602061016f9351910161011e565b90565b6100ea565b909160c0828403126102035761018f835f84016100db565b9261019d81602085016100db565b926101ab82604083016100db565b92606082015160018060401b0381116101fe57836101ca918401610154565b9260808301519060018060401b0382116101f9576101ed816101f6938601610154565b9360a0016100db565b90565b6100ac565b6100ac565b6100a8565b6102266144858038038061021b81610093565b928339810190610177565b909192939495565b90565b90565b61024861024361024d9261022e565b610231565b6100b0565b90565b61025990610234565b90565b60209181520190565b5f7f496e76616c696420456e747279506f696e740000000000000000000000000000910152565b610299601260209261025c565b6102a281610265565b0190565b6102bb9060208101905f81830391015261028c565b90565b156102c557565b6102cd610044565b62461bcd60e51b8152806102e3600482016102a6565b0390fd5b5f7f496e76616c696420547275737453636f72650000000000000000000000000000910152565b61031b601260209261025c565b610324816102e7565b0190565b61033d9060208101905f81830391015261030e565b90565b1561034757565b61034f610044565b62461bcd60e51b81528061036560048201610328565b0390fd5b5f7f496e76616c696420566572696669636174696f6e4c6f67676572000000000000910152565b61039d601a60209261025c565b6103a681610369565b0190565b6103bf9060208101905f818303910152610390565b90565b156103c957565b6103d1610044565b62461bcd60e51b8152806103e7600482016103aa565b0390fd5b6103ff6103fa610404926100b0565b610231565b6100b0565b90565b610410906103eb565b90565b61041c90610407565b90565b5f1b90565b9061043560018060a01b039161041f565b9181191691161790565b61044890610407565b90565b90565b9061046361045e61046a9261043f565b61044b565b8254610424565b9055565b610477906103eb565b90565b6104839061046e565b90565b61048f9061046e565b90565b90565b906104aa6104a56104b192610486565b610492565b8254610424565b9055565b90565b6104cc6104c76104d19261022e565b61041f565b6104b5565b90565b6104dd5f6104b8565b90565b7fa49807205ce4d355092ef5a8a18f56e8913cf4a201fbe287825b095693c2177590565b7f97667070c54ef182b0f5858b034beac1b6f3089aa2d3188bb1e8929f4fa9b92990565b61053260a0610093565b90565b52565b90610542906100bb565b9052565b151590565b9061055590610546565b9052565b90565b90565b61057361056e61057892610559565b610231565b61055c565b90565b906105859061055c565b9052565b5190565b5190565b634e487b7160e01b5f52602260045260245ffd5b90600160028304921680156105c5575b60208310146105c057565b610591565b91607f16916105b5565b5f5260205f2090565b601f602091010490565b1b90565b919060086106019102916105fb5f19846105e2565b926105e2565b9181191691161790565b61061f61061a6106249261055c565b610231565b61055c565b90565b90565b919061064061063b6106489361060b565b610627565b9083546105e6565b9055565b5f90565b6106629161065c61064c565b9161062a565b565b5b818110610670575050565b8061067d5f600193610650565b01610665565b9190601f8111610693575b505050565b61069f6106c4936105cf565b9060206106ab846105d8565b830193106106cc575b6106bd906105d8565b0190610664565b5f808061068e565b91506106bd819290506106b4565b1c90565b906106ee905f19906008026106da565b191690565b816106fd916106de565b906002021790565b9061070f8161058d565b9060018060401b0382116107cd576107318261072b85546105a5565b85610683565b602090601f831160011461076557918091610754935f92610759575b50506106f3565b90555b565b90915001515f8061074d565b601f19831691610774856105cf565b925f5b8181106107b55750916002939185600196941061079b575b50505002019055610757565b6107ab910151601f8416906106de565b90555f808061078f565b91936020600181928787015181550195019201610777565b610058565b906107dc91610705565b565b6107e890516100bb565b90565b6107f4906103eb565b90565b610800906107eb565b90565b90565b9061081b610816610822926107f7565b610803565b8254610424565b9055565b6108309051610546565b90565b60a01b90565b9061084860ff60a01b91610833565b9181191691161790565b61085b90610546565b90565b90565b9061087661087161087d92610852565b61085e565b8254610839565b9055565b61088b905161055c565b90565b9061089a5f199161041f565b9181191691161790565b906108b96108b46108c09261060b565b610627565b825461088e565b9055565b9061093a60806003610940946108e75f82016108e15f8801610589565b906107d2565b610900600182016108fa60208801610589565b906107d2565b61091960028201610913604088016107de565b90610806565b6109326002820161092c60608801610826565b90610861565b019201610881565b906108a4565b565b9061094c916108c4565b565b90565b61096561096061096a9261094e565b610231565b61055c565b90565b90565b61098461097f6109899261096d565b610231565b61055c565b90565b610ac193610a3b610a34610ab895610a2f610a28610ac89b97610ab3976109b1610b2a565b6109d6816109cf6109c96109c45f610250565b6100bb565b916100bb565b14156102be565b6109fb826109f46109ee6109e95f610250565b6100bb565b916100bb565b1415610340565b610a2085610a19610a13610a0e5f610250565b6100bb565b916100bb565b14156103c2565b608052610413565b600261044e565b61047a565b6003610495565b610a4d610a466104d4565b3390610bb5565b50610a60610a596104e0565b3390610bb5565b50610a73610a6c610504565b3390610bb5565b509491610aaa600191610aa16298968095610a98610a8f610528565b9a5f8c01610535565b60208a01610535565b60408801610538565b6060860161054b565b61055f565b6080830161057b565b6004610942565b610ade610ad7621e8480610951565b600f6108a4565b610af4610aed62093a80610970565b60106108a4565b610afc610fdd565b565b90565b610b15610b10610b1a92610afe565b610231565b61055c565b90565b610b276001610b01565b90565b610b3c610b35610b1d565b60016108a4565b565b5f90565b610b4b906104b5565b90565b90610b5890610b42565b5f5260205260405f2090565b90610b6e906107f7565b5f5260205260405f2090565b90610b8660ff9161041f565b9181191691161790565b90610ba5610ba0610bac92610852565b61085e565b8254610b7a565b9055565b5f0190565b610bbd610b3e565b50610bd2610bcc82849061130e565b15610546565b5f14610c5a57610bf96001610bf45f610bec818690610b4e565b018590610b64565b610b90565b90610c0261133b565b90610c3f610c39610c337f2f8788117e7eff1d82e926ec794901d17c78024a50270940304540a733656f0d95610b42565b926107f7565b926107f7565b92610c48610044565b80610c5281610bb0565b0390a4600190565b50505f90565b610c6a60c0610093565b90565b90565b610c84610c7f610c8992610c6d565b610231565b61055c565b90565b90565b610ca3610c9e610ca892610c8c565b610231565b61055c565b90565b90565b610cc2610cbd610cc792610cab565b610231565b61055c565b90565b90610cdc610cd7836100f2565b610093565b918252565b5f7f484947485f545255535400000000000000000000000000000000000000000000910152565b610d12600a610cca565b90610d1f60208301610ce1565b565b610d29610d08565b90565b90610d3690610b42565b5f5260205260405f2090565b90610dd160a06005610dd794610d655f8201610d5f5f8801610881565b906108a4565b610d7e60018201610d7860208801610881565b906108a4565b610d9760028201610d9160408801610881565b906108a4565b610db060038201610daa60608801610881565b906108a4565b610dc960048201610dc360808801610826565b90610b90565b019201610589565b906107d2565b565b90610de391610d42565b565b90565b610dfc610df7610e0192610de5565b610231565b61055c565b90565b90565b610e1b610e16610e2092610e04565b610231565b61055c565b90565b90565b610e3a610e35610e3f92610e23565b610231565b61055c565b90565b90565b610e59610e54610e5e92610e42565b610231565b61055c565b90565b5f7f4d454449554d5f54525553540000000000000000000000000000000000000000910152565b610e92600c610cca565b90610e9f60208301610e61565b565b610ea9610e88565b90565b90565b610ec3610ebe610ec892610eac565b610231565b61055c565b90565b90565b610ee2610edd610ee792610ecb565b610231565b61055c565b90565b90565b610f01610efc610f0692610eea565b610231565b61055c565b90565b5f7f4c4f575f54525553540000000000000000000000000000000000000000000000910152565b610f3a6009610cca565b90610f4760208301610f09565b565b610f51610f30565b90565b90565b610f6b610f66610f7092610f54565b610231565b61055c565b90565b90565b610f8a610f85610f8f92610f73565b610231565b61055c565b90565b5f7f42415349435f5553455200000000000000000000000000000000000000000000910152565b610fc3600a610cca565b90610fd060208301610f92565b565b610fda610fb9565b90565b61109e61101f611059605a611050611047620f42406110426110396298968061103461102b630bebc2009561102660019a5f611017610c60565b9e8f92610c70565b910161057b565b610c8f565b60208b0161057b565b61055f565b6040880161057b565b610cae565b6060850161057b565b6080830161054b565b61106d611064610d21565b60a08301610535565b61109960087fd1d4624aeebc2451363b23ddd66c1365beff0a356922e1290489aaea693c859490610d2c565b610dd9565b61115f6110e061111a60326111116111086207a1206111036110fa624c4b406110f56110ec6305f5e100956110e760019a5f6110d8610c60565b9e8f92610de8565b910161057b565b610e07565b60208b0161057b565b610e26565b6040880161057b565b610e45565b6060850161057b565b6080830161054b565b61112e611125610ea1565b60a08301610535565b61115a60087fd77e7adc0a5a8ec0d68b50a6c7efe5f191fe0db7305872d733ad4729938ac03990610d2c565b610dd9565b6112206111a16111db60196111d26111c96203d0906111c46111bb620f42406111b66111ad6301312d00956111a860019a5f611199610c60565b9e8f92610eaf565b910161057b565b610ece565b60208b0161057b565b610c8f565b6040880161057b565b610eed565b6060850161057b565b6080830161054b565b6111ef6111e6610f49565b60a08301610535565b61121b60087fe8977ba41feab1bcffffa042fa3757d0a83a74799c57603a133de133e103ce1d90610d2c565b610dd9565b6112e061126161129b600a611292611289620186a061128461127b6207a12061127661126d629896809561126860019a5f611259610c60565b9e8f92610f57565b910161057b565b610f76565b60208b0161057b565b610e07565b6040880161057b565b61055f565b6060850161057b565b6080830161054b565b6112af6112a6610fd2565b60a08301610535565b6112db60087f92c4f4eb9975ee6e6f49e6b7923a0bf529ea173c3a3a900c957fae2c2a0648d090610d2c565b610dd9565b565b5f1c90565b60ff1690565b6112f96112fe916112e2565b6112e7565b90565b61130b90546112ed565b90565b611334915f61132961132f93611322610b3e565b5082610b4e565b01610b64565b611301565b90565b5f90565b611343611337565b50339056fe60806040526004361015610015575b366114d157005b61001f5f356101fe565b806301ffc9a7146101f9578063035e44f7146101f4578063248a9ca3146101ef5780632f2ff15d146101ea5780633078d998146101e557806336568abe146101e05780635358dae3146101db57806355fdab1a146101d65780635b7fefaf146101d157806372aebcfb146101cc57806375b238fc146101c757806379d1557d146101c257806386c70943146101bd578063896a5bab146101b857806391d14854146101b35780639b71921f146101ae578063a217fddf146101a9578063a3e49c0c146101a4578063af715af61461019f578063b0d691fe1461019a578063bfdf70ea14610195578063c41a2c7914610190578063d547741f1461018b578063d957d67114610186578063db2e21bc14610181578063e1300c881461017c578063ea10800b14610177578063f3d937ca14610172578063f5b541a61461016d5763fac61ae00361000e5761149b565b611445565b6113e1565b61139c565b6112d1565b611230565b6111f6565b611121565b6110ec565b61105e565b610ff5565b610f87565b610f3c565b610e0a565b610d98565b610d03565b610ccd565b610c06565b610ab7565b610a69565b610a01565b61070d565b610689565b610604565b6105b7565b610582565b6104d1565b61046a565b6103cf565b61028a565b60e01c90565b60405190565b5f80fd5b5f80fd5b5f80fd5b63ffffffff60e01b1690565b61022b81610216565b0361023257565b5f80fd5b9050359061024382610222565b565b9060208282031261025e5761025b915f01610236565b90565b61020e565b151590565b61027190610263565b9052565b9190610288905f60208501940190610268565b565b346102ba576102b66102a56102a0366004610245565b6114d9565b6102ad610204565b91829182610275565b0390f35b61020a565b60018060a01b031690565b6102d3906102bf565b90565b6102df816102ca565b036102e657565b5f80fd5b905035906102f7826102d6565b565b906020828203126103125761030f915f016102ea565b90565b61020e565b90565b61032e610329610333926102bf565b610317565b6102bf565b90565b61033f9061031a565b90565b61034b90610336565b90565b9061035890610342565b5f5260205260405f2090565b1c90565b90565b61037b9060086103809302610364565b610368565b90565b9061038e915461036b565b90565b6103a7906103a2600b915f9261034e565b610383565b90565b90565b6103b6906103aa565b9052565b91906103cd905f602085019401906103ad565b565b346103ff576103fb6103ea6103e53660046102f9565b610391565b6103f2610204565b918291826103ba565b0390f35b61020a565b90565b61041081610404565b0361041757565b5f80fd5b9050359061042882610407565b565b9060208282031261044357610440915f0161041b565b90565b61020e565b61045190610404565b9052565b9190610468905f60208501940190610448565b565b3461049a5761049661048561048036600461042a565b611557565b61048d610204565b91829182610455565b0390f35b61020a565b91906040838203126104c757806104bb6104c4925f860161041b565b936020016102ea565b90565b61020e565b5f0190565b34610500576104ea6104e436600461049f565b906115a2565b6104f2610204565b806104fc816104cc565b0390f35b61020a565b5f91031261050f57565b61020e565b60018060a01b031690565b61052f9060086105349302610364565b610514565b90565b90610542915461051f565b90565b61055160025f90610537565b90565b61055d90610336565b90565b61056990610554565b9052565b9190610580905f60208501940190610560565b565b346105b257610592366004610505565b6105ae61059d610545565b6105a5610204565b9182918261056d565b0390f35b61020a565b346105e6576105d06105ca36600461049f565b906115ae565b6105d8610204565b806105e2816104cc565b0390f35b61020a565b610601906105fc600d915f9261034e565b610383565b90565b346106345761063061061f61061a3660046102f9565b6105eb565b610627610204565b918291826103ba565b0390f35b61020a565b610642816103aa565b0361064957565b5f80fd5b9050359061065a82610639565b565b91906040838203126106845780610678610681925f860161064d565b9360200161064d565b90565b61020e565b346106b8576106a261069c36600461065c565b90611663565b6106aa610204565b806106b4816104cc565b0390f35b61020a565b6106c681610263565b036106cd57565b5f80fd5b905035906106de826106bd565b565b919060408382031261070857806106fc610705925f86016102ea565b936020016106d1565b90565b61020e565b3461073c576107266107203660046106e0565b906116e6565b61072e610204565b80610738816104cc565b0390f35b61020a565b634e487b7160e01b5f52602260045260245ffd5b9060016002830492168015610775575b602083101461077057565b610741565b91607f1691610765565b60209181520190565b5f5260205f2090565b905f92918054906107ab6107a483610755565b809461077f565b916001811690815f1461080257506001146107c6575b505050565b6107d39192939450610788565b915f925b8184106107ea57505001905f80806107c1565b600181602092959395548486015201910192906107d7565b92949550505060ff19168252151560200201905f80806107c1565b9061082791610791565b90565b601f801991011690565b634e487b7160e01b5f52604160045260245ffd5b906108529061082a565b810190811067ffffffffffffffff82111761086c57604052565b610834565b9061089161088a92610881610204565b9384809261081d565b0383610848565b565b5f1c90565b60018060a01b031690565b6108af6108b491610893565b610898565b90565b6108c190546108a3565b90565b60a01c90565b60ff1690565b6108dc6108e1916108c4565b6108ca565b90565b6108ee90546108d0565b90565b6108fd61090291610893565b610368565b90565b61090f90546108f1565b90565b600461091f5f8201610871565b9161092c60018301610871565b91610939600282016108b7565b91610952600361094b600285016108e4565b9301610905565b90565b5190565b60209181520190565b90825f9392825e0152565b61098c61099560209361099a9361098381610955565b93848093610959565b95869101610962565b61082a565b0190565b6109a7906102ca565b9052565b906109ff946109ee6109e36080956109d56109f8959b9a989b60a08801908882035f8a015261096d565b90868203602088015261096d565b98604085019061099e565b6060830190610268565b01906103ad565b565b34610a3557610a11366004610505565b610a31610a1c610912565b91610a28959395610204565b958695866109ab565b0390f35b61020a565b7fa49807205ce4d355092ef5a8a18f56e8913cf4a201fbe287825b095693c2177590565b610a66610a3a565b90565b34610a9957610a79366004610505565b610a95610a84610a5e565b610a8c610204565b91829182610455565b0390f35b61020a565b610ab490610aaf600e915f9261034e565b610383565b90565b34610ae757610ae3610ad2610acd3660046102f9565b610a9e565b610ada610204565b918291826103ba565b0390f35b61020a565b5f80fd5b5f80fd5b90610b07610b00610204565b9283610848565b565b67ffffffffffffffff8111610b2757610b2360209161082a565b0190565b610834565b90825f939282370152565b90929192610b4c610b4782610b09565b610af4565b93818552602085019082840111610b6857610b6692610b2c565b565b610af0565b9080601f83011215610b8b57816020610b8893359101610b37565b90565b610aec565b608081830312610c01575f81013567ffffffffffffffff8111610bfc5782610bb9918301610b6d565b92602082013567ffffffffffffffff8111610bf757610bdd84610bf4928501610b6d565b93610beb81604086016102ea565b9360600161064d565b90565b610212565b610212565b61020e565b34610c3857610c22610c19366004610b90565b929190916119e3565b610c2a610204565b80610c34816104cc565b0390f35b61020a565b9091606082840312610c7257610c6f610c58845f85016102ea565b93610c6681602086016102ea565b9360400161064d565b90565b61020e565b5190565b60209181520190565b610ca3610cac602093610cb193610c9a81610c77565b93848093610c7b565b95869101610962565b61082a565b0190565b610cca9160208201915f818403910152610c84565b90565b34610cfe57610cfa610ce9610ce3366004610c3d565b91611c13565b610cf1610204565b91829182610cb5565b0390f35b61020a565b34610d3457610d30610d1f610d1936600461049f565b90611d33565b610d27610204565b91829182610275565b0390f35b61020a565b90608082820312610d9357610d50815f84016102ea565b92610d5e82602085016102ea565b92610d6c836040830161064d565b92606082013567ffffffffffffffff8111610d8e57610d8b9201610b6d565b90565b610212565b61020e565b34610dca57610db4610dab366004610d39565b92919091612493565b610dbc610204565b80610dc6816104cc565b0390f35b61020a565b90565b5f1b90565b610deb610de6610df092610dcf565b610dd2565b610404565b90565b610dfc5f610dd7565b90565b610e07610df3565b90565b34610e3a57610e1a366004610505565b610e36610e25610dff565b610e2d610204565b91829182610455565b0390f35b61020a565b610e4890610404565b90565b90610e5590610e3f565b5f5260205260405f2090565b610e6d610e7291610893565b6108ca565b90565b610e7f9054610e61565b90565b610e8d906008610e4b565b90610e995f8301610905565b91610ea660018201610905565b91610eb360028301610905565b91610ec060038201610905565b91610ed96005610ed260048501610e75565b9301610871565b90565b92610f399694610f18610f2292610f0e610f2c96999599610f0460c08a019b5f8b01906103ad565b60208901906103ad565b60408701906103ad565b60608501906103ad565b6080830190610268565b60a081840391015261096d565b90565b34610f7357610f6f610f57610f5236600461042a565b610e82565b92610f66969496929192610204565b96879687610edc565b0390f35b61020a565b610f84600f5f90610383565b90565b34610fb757610f97366004610505565b610fb3610fa2610f78565b610faa610204565b918291826103ba565b0390f35b61020a565b7f000000000000000000000000000000000000000000000000000000000000000090565b9190610ff3905f6020850194019061099e565b565b3461102557611005366004610505565b611021611010610fbc565b611018610204565b91829182610fe0565b0390f35b61020a565b61104e61105b94929361104460608401955f850190610268565b60208301906103ad565b604081840391015261096d565b90565b346110925761108e61107a611074366004610c3d565b91612654565b611085939193610204565b9384938461102a565b0390f35b61020a565b906110a190610342565b5f5260205260405f2090565b6110bd9060086110c29302610364565b6108ca565b90565b906110d091546110ad565b90565b6110e9906110e4600c915f92611097565b6110c5565b90565b3461111c576111186111076111023660046102f9565b6110d3565b61110f610204565b91829182610275565b0390f35b61020a565b346111505761113a61113436600461049f565b90612971565b611142610204565b8061114c816104cc565b0390f35b61020a565b9060e0828203126111f1575f82013567ffffffffffffffff81116111ec578161117f918401610b6d565b9261118d826020850161064d565b9261119b836040830161064d565b926111a9816060840161064d565b926111b7826080850161064d565b926111c58360a083016106d1565b9260c082013567ffffffffffffffff81116111e7576111e49201610b6d565b90565b610212565b610212565b61020e565b3461122b57611215611209366004611155565b95949094939193612b7c565b61121d610204565b80611227816104cc565b0390f35b61020a565b3461125e57611240366004610505565b611248612c09565b611250610204565b8061125a816104cc565b0390f35b61020a565b60018060a01b031690565b61127e9060086112839302610364565b611263565b90565b90611291915461126e565b90565b6112a060035f90611286565b90565b6112ac90610336565b90565b6112b8906112a3565b9052565b91906112cf905f602085019401906112af565b565b34611301576112e1366004610505565b6112fd6112ec611294565b6112f4610204565b918291826112bc565b0390f35b61020a565b919060408382031261132e578061132261132b925f86016102ea565b9360200161064d565b90565b61020e565b9061133d90610342565b5f5260205260405f2090565b61135d611358611362926103aa565b610317565b6103aa565b90565b9061136f90611349565b5f5260205260405f2090565b6113946113999261138f6009935f94611333565b611365565b610383565b90565b346113cd576113c96113b86113b2366004611306565b9061137b565b6113c0610204565b918291826103ba565b0390f35b61020a565b6113de60105f90610383565b90565b34611411576113f1366004610505565b61140d6113fc6113d2565b611404610204565b918291826103ba565b0390f35b61020a565b7f97667070c54ef182b0f5858b034beac1b6f3089aa2d3188bb1e8929f4fa9b92990565b611442611416565b90565b3461147557611455366004610505565b61147161146061143a565b611468610204565b91829182610455565b0390f35b61020a565b6114936114989261148e600a935f94611333565b611365565b610383565b90565b346114cc576114c86114b76114b1366004611306565b9061147a565b6114bf610204565b918291826103ba565b0390f35b61020a565b5f80fd5b5f90565b6114e16114d5565b50806114fc6114f6637965db0b60e01b610216565b91610216565b14908115611509575b5090565b6115139150612c13565b5f611505565b5f90565b9061152790610e3f565b5f5260205260405f2090565b90565b61154261154791610893565b611533565b90565b6115549054611536565b90565b600161156f61157592611568611519565b505f61151d565b0161154a565b90565b906115939161158e61158982611557565b612c39565b611595565b565b9061159f91612c4d565b50565b906115ac91611578565b565b90806115c96115c36115be612cfc565b6102ca565b916102ca565b036115da576115d791612d09565b50565b5f63334bd91960e11b8152806115f2600482016104cc565b0390fd5b906116109161160b611606610a3a565b612c39565b61164b565b565b9061161e5f1991610dd2565b9181191691161790565b90565b9061164061163b61164792611349565b611628565b8254611612565b9055565b9061165a61166192600f61162b565b601061162b565b565b9061166d916115f6565b565b906116899161168461167f610a3a565b612c39565b6116d0565b565b9061169760ff91610dd2565b9181191691161790565b6116aa90610263565b90565b90565b906116c56116c06116cc926116a1565b6116ad565b825461168b565b9055565b6116df6116e49291600c611097565b6116b0565b565b906116f09161166f565b565b9061170e939291611709611704610a3a565b612c39565b61196c565b565b601f602091010490565b1b90565b919060086117399102916117335f198461171a565b9261171a565b9181191691161790565b919061175961175461176193611349565b611628565b90835461171e565b9055565b5f90565b61177b91611775611765565b91611743565b565b5b818110611789575050565b806117965f600193611769565b0161177e565b9190601f81116117ac575b505050565b6117b86117dd93610788565b9060206117c484611710565b830193106117e5575b6117d690611710565b019061177d565b5f80806117a7565b91506117d6819290506117cd565b90611803905f1990600802610364565b191690565b81611812916117f3565b906002021790565b9061182481610955565b9067ffffffffffffffff82116118e457611848826118428554610755565b8561179c565b602090601f831160011461187c5791809161186b935f92611870575b5050611808565b90555b565b90915001515f80611864565b601f1983169161188b85610788565b925f5b8181106118cc575091600293918560019694106118b2575b5050500201905561186e565b6118c2910151601f8416906117f3565b90555f80806118a6565b9193602060018192878701518155019501920161188e565b610834565b906118f39161181a565b565b9061190660018060a01b0391610dd2565b9181191691161790565b90565b9061192861192361192f92610342565b611910565b82546118f5565b9055565b93929061196261196a9361195460409360608901908982035f8b015261096d565b90878203602089015261096d565b94019061099e565b565b90926119a59061197f835f6004016118e9565b61198d8560016004016118e9565b61199b846002600401611913565b600360040161162b565b9190916119de7fdf7a7c62a6e60a168322e0b6e0d51d1cecb4fab5c828ca6aa972916521ed307d936119d5610204565b93849384611933565b0390a1565b906119ef9392916116f2565b565b606090565b6119ff90610336565b90565b5f80fd5b60e01b90565b90505190611a19826106bd565b565b90505190611a2882610639565b565b90929192611a3f611a3a82610b09565b610af4565b93818552602085019082840111611a5b57611a5992610962565b565b610af0565b9080601f83011215611a7e57816020611a7b93519101611a2a565b90565b610aec565b91606083830312611acf57611a9a825f8501611a0c565b92611aa88360208301611a1b565b92604082015167ffffffffffffffff8111611aca57611ac79201611a60565b90565b610212565b61020e565b604090611afd611b049496959396611af360608401985f85019061099e565b602083019061099e565b01906103ad565b565b611b0e610204565b3d5f823e3d90fd5b90611b28611b2383610b09565b610af4565b918252565b611b365f611b16565b90565b611b41611b2d565b90565b905090565b611b6e611b6592602092611b5c81610955565b94858093611b44565b93849101610962565b0190565b611b7b91611b49565b90565b60200190565b60601b90565b611b9390611b84565b90565b611b9f90611b8a565b90565b611bae611bb3916102ca565b611b96565b9052565b90565b611bc6611bcb916103aa565b611bb7565b9052565b90565b611bde611be391610404565b611bcf565b9052565b60209392611c07601483611bff8895611c0f97611ba2565b018092611bba565b018092611bd2565b0190565b905f91611c1e6119f1565b50611c4b611c2b306119f6565b91611c5663bfdf70ea919496611c3f610204565b97889687958695611a06565b855260048501611ad4565b03915afa908115611d2e575f8080929093611d03575b50611c7a9092919215610263565b611cf657611cf390611ce4611cae611cbd611c9860026004016108b7565b9395611ca2610204565b92839160208301611b72565b60208201810382520382610848565b611ccf611cc982610c77565b91611b7e565b20611cd8610204565b94859360208501611be7565b60208201810382520382610848565b90565b5050611d00611b39565b90565b9050611c7a9250611d2691503d805f833e611d1e8183610848565b810190611a83565b919092611c6c565b611b06565b611d59915f611d4e611d5493611d476114d5565b508261151d565b01611097565b610e75565b90565b90611d78939291611d73611d6e611416565b612c39565b611d7a565b565b90611d8e939291611d89612dd6565b612035565b611d96612e5a565b565b90565b611daf611daa611db492611d98565b610317565b6103aa565b90565b634e487b7160e01b5f52601260045260245ffd5b634e487b7160e01b5f52601160045260245ffd5b611deb611df1916103aa565b916103aa565b908115611dfc570490565b611db7565b90565b611e18611e13611e1d92611e01565b610317565b6103aa565b90565b611e2f611e35919392936103aa565b926103aa565b8201809211611e4057565b611dcb565b5f7f4f4e424f415244494e4700000000000000000000000000000000000000000000910152565b611e78600a8092611b44565b611e8181611e45565b0190565b611e8e90611e6c565b90565b611e9d611ea291610893565b610514565b90565b611eaf9054611e91565b90565b5f910312611ebc57565b61020e565b611ed5611ed0611eda92610dcf565b610317565b6103aa565b90565b611eec611ef2919392936103aa565b926103aa565b8203918211611efd57565b611dcb565b916020611f23929493611f1c60408201965f8301906103ad565b01906103ad565b565b611f31611f3691610893565b611263565b90565b611f439054611f25565b90565b91611f65601484611f5d611f6c9796602096611ba2565b018092611bba565b0190611b49565b90565b5f7f4741535f53504f4e534f52454400000000000000000000000000000000000000910152565b611fa3600d602092610959565b611fac81611f6f565b0190565b916040611fe1929493611fda611fcf606083018381035f850152611f96565b96602083019061099e565b0190610448565b565b90602082820312611ffc57611ff9915f01611a1b565b90565b61020e565b61202561203294929361201b60608401955f8501906103ad565b60208301906103ad565b604081840391015261096d565b90565b926120c561204f4261204962015180611d9b565b90611ddf565b6120976120684261206262278d00611e04565b90611ddf565b91612091612082889261207d60098c90611333565b611365565b9161208c83610905565b611e20565b9061162b565b6120bf6120b086926120ab600a8a90611333565b611365565b916120ba83610905565b611e20565b9061162b565b6120ed836120e76120d8600b889061034e565b916120e283610905565b611e20565b9061162b565b612108612117826120fc610204565b92839160208301611b72565b60208201810382520382610848565b61212961212382610c77565b91611b7e565b2061217561216f612138610204565b6121578161214860208201611e85565b60208201810382520382610848565b61216961216382610c77565b91611b7e565b20610404565b91610404565b145f146124005761219061218b600d869061034e565b610905565b6121a261219c5f611ec1565b916103aa565b146123e6575b6121d0836121ca6121bb600e889061034e565b916121c583610905565b611e20565b9061162b565b8383906121fa6121e0600f610905565b6121f46121ef600e8a9061034e565b610905565b90611edd565b6122247f9ed7ba4a947d65440b041a503697593284053150e4495df6342856ebcb08c53592610342565b92612239612230610204565b92839283611f02565b0390a25b61224f61224a6003611f39565b6112a3565b90635260590a8584612283879161227486612268610204565b94859360208501611f46565b60208201810382520382610848565b61229561228f82610c77565b91611b7e565b2093803b156123e1576122bb5f80946122c66122af610204565b98899687958694611a06565b845260048401611fb0565b03925af19182156123dc5761231a926123b0575b506020859394956122f36122ee6002611ea5565b610554565b61230f635e09eea1612303610204565b96879485938493611a06565b835260048301610fe0565b03915afa9182156123ab575f9261237b575b509361237661236461235e7f9543535de760ea9df87476ce46f978f26028275b113299cb60ad95467c8df4c495610342565b95610342565b9561236d610204565b93849384612001565b0390a3565b61239d91925060203d81116123a4575b6123958183610848565b810190611fe3565b905f61232c565b503d61238b565b611b06565b6123cf905f3d81116123d5575b6123c78183610848565b810190611eb2565b5f6122da565b503d6123bd565b611b06565b611a02565b6123fb426123f6600d879061034e565b61162b565b6121a8565b61241261240d6002611ea5565b610554565b6352ce43fc85823b1561248e576124489261243d5f8094612431610204565b96879586948593611a06565b835260048301610fe0565b03925af180156124895761245d575b5061223d565b61247c905f3d8111612482575b6124748183610848565b810190611eb2565b5f612457565b503d61246a565b611b06565b611a02565b9061249f939291611d5c565b565b606090565b6124b0600a611b16565b906124bd60208301611e45565b565b6124c76124a6565b90565b60016124d691016103aa565b90565b5190565b634e487b7160e01b5f52603260045260245ffd5b906124fb826124d9565b81101561250c576020809102010190565b6124dd565b61251b9051610404565b90565b90612528906103aa565b9052565b9061253690610263565b9052565b52565b61254760c0610af4565b90565b906125e16125d8600561255b61253d565b9461257261256a5f8301610905565b5f880161251e565b61258a61258160018301610905565b6020880161251e565b6125a261259960028301610905565b6040880161251e565b6125ba6125b160038301610905565b6060880161251e565b6125d26125c960048301610e75565b6080880161252c565b01610871565b60a0840161253a565b565b6125ec9061254a565b90565b6125f99051610263565b90565b61260690516103aa565b90565b5f7f4e4f5f52554c455f4d4154434845440000000000000000000000000000000000910152565b61263a600f611b16565b9061264760208301612609565b565b612651612630565b90565b92905061265f6114d5565b50612668611765565b506126716124a1565b5061267b83612e6e565b6128f7575b6126c160206126976126926002611ea5565b610554565b635e09eea1906126b687926126aa610204565b95869485938493611a06565b835260048301610fe0565b03915afa9081156128f2575f916128c4575b506126dc612f97565b6126e55f611ec1565b945b856127026126fc6126f7856124d9565b6103aa565b916103aa565b10156128a75761272d61272861272161271c858a906124f1565b612511565b6008610e4b565b6125e3565b9561274361273d608089016125ef565b15610263565b61289a578361276461275e6127595f8b016125fc565b6103aa565b916103aa565b1061288d578561278761278161277c60208b016125fc565b6103aa565b916103aa565b11612880576127a24261279c62015180611d9b565b90611ddf565b6127df6127d86127d36127c1426127bb62278d00611e04565b90611ddf565b936127ce60098890611333565b611365565b610905565b8890611e20565b6127fc6127f66127f160408c016125fc565b6103aa565b916103aa565b116128725761282161281c61282892612817600a8790611333565b611365565b610905565b8790611e20565b61284561283f61283a60608b016125fc565b6103aa565b916103aa565b1161285c575050505060a060019293015191929190565b61286a91929396505b6124ca565b9491906126e7565b5061286a9192939650612865565b61286a9192939650612865565b61286a9192939650612865565b61286a9192939650612865565b5050509150505f906128b85f611ec1565b906128c1612649565b90565b6128e5915060203d81116128eb575b6128dd8183610848565b810190611fe3565b5f6126d3565b503d6128d3565b611b06565b61291e612904600f610905565b612918612913600e879061034e565b610905565b90611edd565b61293061292a846103aa565b916103aa565b1061268057909150600191906129446124bf565b90565b906129629161295d61295882611557565b612c39565b612964565b565b9061296e91612d09565b50565b9061297b91612947565b565b9061299c969594939291612997612992610a3a565b612c39565b612a84565b565b6129a860c0610af4565b90565b5190565b90612a3e60a06005612a44946129d25f82016129cc5f88016125fc565b9061162b565b6129eb600182016129e5602088016125fc565b9061162b565b612a04600282016129fe604088016125fc565b9061162b565b612a1d60038201612a17606088016125fc565b9061162b565b612a3660048201612a30608088016125ef565b906116b0565b0192016129ab565b906118e9565b565b90612a50916129af565b565b604090612a7b612a829496959396612a7160608401985f8501906103ad565b60208301906103ad565b0190610268565b565b612b34929693612b1a612aaf612abe612b239499989599612aa3610204565b92839160208301611b72565b60208201810382520382610848565b612ad0612aca82610c77565b91611b7e565b2095612b118995612b088c95612aff8c9597612af6612aed61299e565b9b5f8d0161251e565b60208b0161251e565b6040890161251e565b6060870161251e565b6080850161252c565b60a0830161253a565b612b2f60088490610e4b565b612a46565b91929092612b77612b657ff47aced36a6d896f7bec0d6b0fa2686c1ea05fbe2de5296185b967dc3590bb5494610e3f565b94612b6e610204565b93849384612a52565b0390a2565b90612b8b96959493929161297d565b565b612b9d612b98610df3565b612c39565b612ba5612bcb565b565b612bb09061031a565b90565b612bbc90612ba7565b90565b612bc890610336565b90565b5f808080612be0612bdb33612bb3565b612bbf565b612be9306119f6565b3190828215612c00575bf115612bfb57565b611b06565b506108fc612bf3565b612c11612b8d565b565b612c1b6114d5565b50612c35612c2f6301ffc9a760e01b610216565b91610216565b1490565b612c4b90612c45612cfc565b906130cb565b565b612c556114d5565b50612c6a612c64828490611d33565b15610263565b5f14612cf257612c916001612c8c5f612c8481869061151d565b018590611097565b6116b0565b90612c9a612cfc565b90612cd7612cd1612ccb7f2f8788117e7eff1d82e926ec794901d17c78024a50270940304540a733656f0d95610e3f565b92610342565b92610342565b92612ce0610204565b80612cea816104cc565b0390a4600190565b50505f90565b5f90565b612d04612cf8565b503390565b612d116114d5565b50612d1d818390611d33565b5f14612da457612d435f612d3e5f612d3681869061151d565b018590611097565b6116b0565b90612d4c612cfc565b90612d89612d83612d7d7ff6391f5c32d9c69d2a47ea670b442974b53935d1edc7fd64eb21e047a839171b95610e3f565b92610342565b92610342565b92612d92610204565b80612d9c816104cc565b0390a4600190565b50505f90565b90565b612dc1612dbc612dc692612daa565b610317565b6103aa565b90565b612dd36002612dad565b90565b612de06001610905565b612df9612df3612dee612dc9565b6103aa565b916103aa565b14612e1257612e10612e09612dc9565b600161162b565b565b5f633ee5aeb560e01b815280612e2a600482016104cc565b0390fd5b90565b612e45612e40612e4a92612e2e565b610317565b6103aa565b90565b612e576001612e31565b90565b612e6c612e65612e4d565b600161162b565b565b612e766114d5565b50612e8b612e86600d839061034e565b610905565b612e9d612e975f611ec1565b916103aa565b14612ee057612ec090612eba612eb54292600d61034e565b610905565b90611edd565b612edb612ed5612ed06010610905565b6103aa565b916103aa565b111590565b50600190565b606090565b90565b612f02612efd612f0792612eeb565b610317565b6103aa565b90565b67ffffffffffffffff8111612f225760208091020190565b610834565b90612f39612f3483612f0a565b610af4565b918252565b369037565b90612f68612f5083612f27565b92602080612f5e8693612f0a565b9201910390612f3e565b565b90612f7490610404565b9052565b90565b612f8f612f8a612f9492612f78565b610317565b6103aa565b90565b612f9f612ee6565b50612fb2612fad6004612eee565b612f43565b612fee7fd1d4624aeebc2451363b23ddd66c1365beff0a356922e1290489aaea693c8594612fe983612fe35f611ec1565b906124f1565b612f6a565b61302b7fd77e7adc0a5a8ec0d68b50a6c7efe5f191fe0db7305872d733ad4729938ac039613026836130206001612e31565b906124f1565b612f6a565b6130687fe8977ba41feab1bcffffa042fa3757d0a83a74799c57603a133de133e103ce1d6130638361305d6002612dad565b906124f1565b612f6a565b6130a57f92c4f4eb9975ee6e6f49e6b7923a0bf529ea173c3a3a900c957fae2c2a0648d06130a08361309a6003612f7b565b906124f1565b612f6a565b90565b9160206130c99294936130c260408201965f83019061099e565b0190610448565b565b906130e06130da838390611d33565b15610263565b6130e8575050565b6131025f92839263e2517d3f60e01b8452600484016130a8565b0390fdfea26469706673582212201dd0c3f6d8d3b7d7a8405695bc5c14feecdda62808e53daf098ecd89dca485e864736f6c634300081e0033","linkReferences":{}},"methodIdentifiers":{"ADMIN_ROLE()":"75b238fc","DEFAULT_ADMIN_ROLE()":"a217fddf","OPERATOR_ROLE()":"f5b541a6","alchemyConfig()":"72aebcfb","dailyGasUsed(address,uint256)":"ea10800b","emergencyWithdraw()":"db2e21bc","entryPoint()":"b0d691fe","getPaymasterData(address,address,uint256)":"896a5bab","getRoleAdmin(bytes32)":"248a9ca3","grantRole(bytes32,address)":"2f2ff15d","hasRole(bytes32,address)":"91d14854","monthlyGasUsed(address,uint256)":"fac61ae0","onboardingGasAllowance()":"af715af6","onboardingGasUsed(address)":"79d1557d","onboardingPeriod()":"f3d937ca","recordGasSponsorship(address,address,uint256,string)":"9b71921f","renounceRole(bytes32,address)":"36568abe","revokeRole(bytes32,address)":"d547741f","setOnboardingSettings(uint256,uint256)":"55fdab1a","shouldSponsorGas(address,address,uint256)":"bfdf70ea","sponsorshipRules(bytes32)":"a3e49c0c","supportsInterface(bytes4)":"01ffc9a7","totalGasSponsored(address)":"035e44f7","trustScore()":"3078d998","updateAlchemyConfig(string,string,address,uint256)":"86c70943","updateSponsorshipRule(string,uint256,uint256,uint256,uint256,bool,string)":"d957d671","userOnboardingStart(address)":"5358dae3","verificationLogger()":"e1300c88","whitelistDApp(address,bool)":"5b7fefaf","whitelistedDApps(address)":"c41a2c79"},"id":63}