{"abi":[{"type":"constructor","inputs":[{"name":"_verificationLogger","type":"address","internalType":"address"},{"name":"_userRegistry","type":"address","internalType":"address"},{"name":"_trustScore","type":"address","internalType":"address"}],"stateMutability":"nonpayable"},{"type":"function","name":"ADMIN_ROLE","inputs":[],"outputs":[{"name":"","type":"bytes32","internalType":"bytes32"}],"stateMutability":"view"},{"type":"function","name":"DEFAULT_ADMIN_ROLE","inputs":[],"outputs":[{"name":"","type":"bytes32","internalType":"bytes32"}],"stateMutability":"view"},{"type":"function","name":"ISSUER_ROLE","inputs":[],"outputs":[{"name":"","type":"bytes32","internalType":"bytes32"}],"stateMutability":"view"},{"type":"function","name":"MIN_TRUST_SCORE_FOR_CERTIFICATE","inputs":[],"outputs":[{"name":"","type":"uint256","internalType":"uint256"}],"stateMutability":"view"},{"type":"function","name":"approve","inputs":[{"name":"to","type":"address","internalType":"address"},{"name":"tokenId","type":"uint256","internalType":"uint256"}],"outputs":[],"stateMutability":"nonpayable"},{"type":"function","name":"balanceOf","inputs":[{"name":"owner","type":"address","internalType":"address"}],"outputs":[{"name":"","type":"uint256","internalType":"uint256"}],"stateMutability":"view"},{"type":"function","name":"certificates","inputs":[{"name":"","type":"uint256","internalType":"uint256"}],"outputs":[{"name":"id","type":"uint256","internalType":"uint256"},{"name":"holder","type":"address","internalType":"address"},{"name":"issuer","type":"address","internalType":"address"},{"name":"certificateType","type":"string","internalType":"string"},{"name":"metadataUri","type":"string","internalType":"string"},{"name":"issuedAt","type":"uint256","internalType":"uint256"},{"name":"expiresAt","type":"uint256","internalType":"uint256"},{"name":"isRevoked","type":"bool","internalType":"bool"},{"name":"zkProofHash","type":"bytes32","internalType":"bytes32"},{"name":"requiredTrustScore","type":"uint256","internalType":"uint256"}],"stateMutability":"view"},{"type":"function","name":"getApproved","inputs":[{"name":"tokenId","type":"uint256","internalType":"uint256"}],"outputs":[{"name":"","type":"address","internalType":"address"}],"stateMutability":"view"},{"type":"function","name":"getCertificatesByHolder","inputs":[{"name":"holder","type":"address","internalType":"address"}],"outputs":[{"name":"","type":"uint256[]","internalType":"uint256[]"}],"stateMutability":"view"},{"type":"function","name":"getRoleAdmin","inputs":[{"name":"role","type":"bytes32","internalType":"bytes32"}],"outputs":[{"name":"","type":"bytes32","internalType":"bytes32"}],"stateMutability":"view"},{"type":"function","name":"grantRole","inputs":[{"name":"role","type":"bytes32","internalType":"bytes32"},{"name":"account","type":"address","internalType":"address"}],"outputs":[],"stateMutability":"nonpayable"},{"type":"function","name":"hasRole","inputs":[{"name":"role","type":"bytes32","internalType":"bytes32"},{"name":"account","type":"address","internalType":"address"}],"outputs":[{"name":"","type":"bool","internalType":"bool"}],"stateMutability":"view"},{"type":"function","name":"holderCertificates","inputs":[{"name":"","type":"address","internalType":"address"},{"name":"","type":"uint256","internalType":"uint256"}],"outputs":[{"name":"","type":"uint256","internalType":"uint256"}],"stateMutability":"view"},{"type":"function","name":"isAccountLocked","inputs":[{"name":"account","type":"address","internalType":"address"}],"outputs":[{"name":"","type":"bool","internalType":"bool"}],"stateMutability":"view"},{"type":"function","name":"isApprovedForAll","inputs":[{"name":"owner","type":"address","internalType":"address"},{"name":"operator","type":"address","internalType":"address"}],"outputs":[{"name":"","type":"bool","internalType":"bool"}],"stateMutability":"view"},{"type":"function","name":"issueCertificate","inputs":[{"name":"holder","type":"address","internalType":"address"},{"name":"certificateType","type":"string","internalType":"string"},{"name":"metadataUri","type":"string","internalType":"string"},{"name":"validityPeriod","type":"uint256","internalType":"uint256"},{"name":"zkProofHash","type":"bytes32","internalType":"bytes32"},{"name":"identityCommitment","type":"bytes32","internalType":"bytes32"},{"name":"requiredTrustScore","type":"uint256","internalType":"uint256"}],"outputs":[{"name":"","type":"uint256","internalType":"uint256"}],"stateMutability":"nonpayable"},{"type":"function","name":"issuerCertificates","inputs":[{"name":"","type":"address","internalType":"address"},{"name":"","type":"uint256","internalType":"uint256"}],"outputs":[{"name":"","type":"uint256","internalType":"uint256"}],"stateMutability":"view"},{"type":"function","name":"lockAccount","inputs":[{"name":"account","type":"address","internalType":"address"},{"name":"reason","type":"string","internalType":"string"}],"outputs":[],"stateMutability":"nonpayable"},{"type":"function","name":"lockedAccounts","inputs":[{"name":"","type":"address","internalType":"address"}],"outputs":[{"name":"","type":"bool","internalType":"bool"}],"stateMutability":"view"},{"type":"function","name":"migrateCertificate","inputs":[{"name":"certificateId","type":"uint256","internalType":"uint256"},{"name":"newHolder","type":"address","internalType":"address"},{"name":"migrationProof","type":"bytes32","internalType":"bytes32"}],"outputs":[],"stateMutability":"nonpayable"},{"type":"function","name":"name","inputs":[],"outputs":[{"name":"","type":"string","internalType":"string"}],"stateMutability":"view"},{"type":"function","name":"ownerOf","inputs":[{"name":"tokenId","type":"uint256","internalType":"uint256"}],"outputs":[{"name":"","type":"address","internalType":"address"}],"stateMutability":"view"},{"type":"function","name":"renounceRole","inputs":[{"name":"role","type":"bytes32","internalType":"bytes32"},{"name":"callerConfirmation","type":"address","internalType":"address"}],"outputs":[],"stateMutability":"nonpayable"},{"type":"function","name":"revokeCertificate","inputs":[{"name":"certificateId","type":"uint256","internalType":"uint256"},{"name":"reason","type":"string","internalType":"string"}],"outputs":[],"stateMutability":"nonpayable"},{"type":"function","name":"revokeRole","inputs":[{"name":"role","type":"bytes32","internalType":"bytes32"},{"name":"account","type":"address","internalType":"address"}],"outputs":[],"stateMutability":"nonpayable"},{"type":"function","name":"safeTransferFrom","inputs":[{"name":"from","type":"address","internalType":"address"},{"name":"to","type":"address","internalType":"address"},{"name":"tokenId","type":"uint256","internalType":"uint256"}],"outputs":[],"stateMutability":"nonpayable"},{"type":"function","name":"safeTransferFrom","inputs":[{"name":"from","type":"address","internalType":"address"},{"name":"to","type":"address","internalType":"address"},{"name":"tokenId","type":"uint256","internalType":"uint256"},{"name":"data","type":"bytes","internalType":"bytes"}],"outputs":[],"stateMutability":"nonpayable"},{"type":"function","name":"setApprovalForAll","inputs":[{"name":"operator","type":"address","internalType":"address"},{"name":"approved","type":"bool","internalType":"bool"}],"outputs":[],"stateMutability":"nonpayable"},{"type":"function","name":"supportsInterface","inputs":[{"name":"interfaceId","type":"bytes4","internalType":"bytes4"}],"outputs":[{"name":"","type":"bool","internalType":"bool"}],"stateMutability":"view"},{"type":"function","name":"symbol","inputs":[],"outputs":[{"name":"","type":"string","internalType":"string"}],"stateMutability":"view"},{"type":"function","name":"tokenURI","inputs":[{"name":"tokenId","type":"uint256","internalType":"uint256"}],"outputs":[{"name":"","type":"string","internalType":"string"}],"stateMutability":"view"},{"type":"function","name":"transferFrom","inputs":[{"name":"from","type":"address","internalType":"address"},{"name":"to","type":"address","internalType":"address"},{"name":"tokenId","type":"uint256","internalType":"uint256"}],"outputs":[],"stateMutability":"nonpayable"},{"type":"function","name":"trustScore","inputs":[],"outputs":[{"name":"","type":"address","internalType":"contract ITrustScore"}],"stateMutability":"view"},{"type":"function","name":"unlockAccount","inputs":[{"name":"account","type":"address","internalType":"address"}],"outputs":[],"stateMutability":"nonpayable"},{"type":"function","name":"userRegistry","inputs":[],"outputs":[{"name":"","type":"address","internalType":"contract IUserIdentityRegistry"}],"stateMutability":"view"},{"type":"function","name":"verificationLogger","inputs":[],"outputs":[{"name":"","type":"address","internalType":"contract IVerificationLogger"}],"stateMutability":"view"},{"type":"function","name":"verifyCertificate","inputs":[{"name":"certificateId","type":"uint256","internalType":"uint256"}],"outputs":[{"name":"","type":"bool","internalType":"bool"}],"stateMutability":"view"},{"type":"event","name":"AccountLocked","inputs":[{"name":"account","type":"address","indexed":true,"internalType":"address"},{"name":"reason","type":"string","indexed":false,"internalType":"string"}],"anonymous":false},{"type":"event","name":"AccountUnlocked","inputs":[{"name":"account","type":"address","indexed":true,"internalType":"address"}],"anonymous":false},{"type":"event","name":"Approval","inputs":[{"name":"owner","type":"address","indexed":true,"internalType":"address"},{"name":"approved","type":"address","indexed":true,"internalType":"address"},{"name":"tokenId","type":"uint256","indexed":true,"internalType":"uint256"}],"anonymous":false},{"type":"event","name":"ApprovalForAll","inputs":[{"name":"owner","type":"address","indexed":true,"internalType":"address"},{"name":"operator","type":"address","indexed":true,"internalType":"address"},{"name":"approved","type":"bool","indexed":false,"internalType":"bool"}],"anonymous":false},{"type":"event","name":"CertificateIssued","inputs":[{"name":"certificateId","type":"uint256","indexed":true,"internalType":"uint256"},{"name":"holder","type":"address","indexed":true,"internalType":"address"},{"name":"issuer","type":"address","indexed":true,"internalType":"address"},{"name":"certificateType","type":"string","indexed":false,"internalType":"string"}],"anonymous":false},{"type":"event","name":"CertificateMigrated","inputs":[{"name":"certificateId","type":"uint256","indexed":true,"internalType":"uint256"},{"name":"oldHolder","type":"address","indexed":true,"internalType":"address"},{"name":"newHolder","type":"address","indexed":true,"internalType":"address"}],"anonymous":false},{"type":"event","name":"CertificateRevoked","inputs":[{"name":"certificateId","type":"uint256","indexed":true,"internalType":"uint256"},{"name":"revoker","type":"address","indexed":true,"internalType":"address"},{"name":"reason","type":"string","indexed":false,"internalType":"string"}],"anonymous":false},{"type":"event","name":"RoleAdminChanged","inputs":[{"name":"role","type":"bytes32","indexed":true,"internalType":"bytes32"},{"name":"previousAdminRole","type":"bytes32","indexed":true,"internalType":"bytes32"},{"name":"newAdminRole","type":"bytes32","indexed":true,"internalType":"bytes32"}],"anonymous":false},{"type":"event","name":"RoleGranted","inputs":[{"name":"role","type":"bytes32","indexed":true,"internalType":"bytes32"},{"name":"account","type":"address","indexed":true,"internalType":"address"},{"name":"sender","type":"address","indexed":true,"internalType":"address"}],"anonymous":false},{"type":"event","name":"RoleRevoked","inputs":[{"name":"role","type":"bytes32","indexed":true,"internalType":"bytes32"},{"name":"account","type":"address","indexed":true,"internalType":"address"},{"name":"sender","type":"address","indexed":true,"internalType":"address"}],"anonymous":false},{"type":"event","name":"Transfer","inputs":[{"name":"from","type":"address","indexed":true,"internalType":"address"},{"name":"to","type":"address","indexed":true,"internalType":"address"},{"name":"tokenId","type":"uint256","indexed":true,"internalType":"uint256"}],"anonymous":false},{"type":"error","name":"AccessControlBadConfirmation","inputs":[]},{"type":"error","name":"AccessControlUnauthorizedAccount","inputs":[{"name":"account","type":"address","internalType":"address"},{"name":"neededRole","type":"bytes32","internalType":"bytes32"}]},{"type":"error","name":"ERC721IncorrectOwner","inputs":[{"name":"sender","type":"address","internalType":"address"},{"name":"tokenId","type":"uint256","internalType":"uint256"},{"name":"owner","type":"address","internalType":"address"}]},{"type":"error","name":"ERC721InsufficientApproval","inputs":[{"name":"operator","type":"address","internalType":"address"},{"name":"tokenId","type":"uint256","internalType":"uint256"}]},{"type":"error","name":"ERC721InvalidApprover","inputs":[{"name":"approver","type":"address","internalType":"address"}]},{"type":"error","name":"ERC721InvalidOperator","inputs":[{"name":"operator","type":"address","internalType":"address"}]},{"type":"error","name":"ERC721InvalidOwner","inputs":[{"name":"owner","type":"address","internalType":"address"}]},{"type":"error","name":"ERC721InvalidReceiver","inputs":[{"name":"receiver","type":"address","internalType":"address"}]},{"type":"error","name":"ERC721InvalidSender","inputs":[{"name":"sender","type":"address","internalType":"address"}]},{"type":"error","name":"ERC721NonexistentToken","inputs":[{"name":"tokenId","type":"uint256","internalType":"uint256"}]},{"type":"error","name":"ReentrancyGuardReentrantCall","inputs":[]}],"bytecode":{"object":"0x6080604052346100305761001a610014610111565b91610368565b610022610035565b6157c461089082396157c490f35b61003b565b60405190565b5f80fd5b601f801991011690565b634e487b7160e01b5f52604160045260245ffd5b906100679061003f565b810190811060018060401b0382111761007f57604052565b610049565b90610097610090610035565b928361005d565b565b5f80fd5b60018060a01b031690565b6100b19061009d565b90565b6100bd816100a8565b036100c457565b5f80fd5b905051906100d5826100b4565b565b909160608284031261010c576101096100f2845f85016100c8565b9361010081602086016100c8565b936040016100c8565b90565b610099565b61012f6160548038038061012481610084565b9283398101906100d7565b909192565b60018060401b0381116101505761014c60209161003f565b0190565b610049565b9061016761016283610134565b610084565b918252565b5f7f456475636174696f6e616c204365727469666963617465730000000000000000910152565b61019d6018610155565b906101aa6020830161016c565b565b6101b4610193565b90565b5f7f4544554345525400000000000000000000000000000000000000000000000000910152565b6101e86007610155565b906101f5602083016101b7565b565b6101ff6101de565b90565b90565b90565b5f1b90565b61022161021c61022692610202565b610208565b610205565b90565b6102325f61020d565b90565b7fa49807205ce4d355092ef5a8a18f56e8913cf4a201fbe287825b095693c2177590565b90565b61027061026b6102759261009d565b610259565b61009d565b90565b6102819061025c565b90565b61028d90610278565b90565b906102a160018060a01b0391610208565b9181191691161790565b6102b490610278565b90565b90565b906102cf6102ca6102d6926102ab565b6102b7565b8254610290565b9055565b6102e39061025c565b90565b6102ef906102da565b90565b6102fb906102da565b90565b90565b9061031661031161031d926102f2565b6102fe565b8254610290565b9055565b61032a9061025c565b90565b61033690610321565b90565b61034290610321565b90565b90565b9061035d61035861036492610339565b610345565b8254610290565b9055565b916103d46103cd6103d9936103c86103c16103e0976103966103886101ac565b6103906101f7565b90610466565b6103a86103a1610229565b339061077c565b506103bb6103b4610235565b339061077c565b50610284565b600d6102ba565b6102e6565b600e610301565b61032d565b600f610348565b565b90565b90565b6103fc6103f7610401926103e2565b610259565b6103e5565b90565b61040e60016103e8565b90565b9061041d5f1991610208565b9181191691161790565b61043b610436610440926103e5565b610259565b6103e5565b90565b90565b9061045b61045661046292610427565b610443565b8254610411565b9055565b9061047091610484565b61048261047b610404565b6007610446565b565b9061048e916106c2565b565b5190565b634e487b7160e01b5f52602260045260245ffd5b90600160028304921680156104c8575b60208310146104c357565b610494565b91607f16916104b8565b5f5260205f2090565b601f602091010490565b1b90565b919060086105049102916104fe5f19846104e5565b926104e5565b9181191691161790565b919061052461051f61052c93610427565b610443565b9083546104e9565b9055565b5f90565b61054691610540610530565b9161050e565b565b5b818110610554575050565b806105615f600193610534565b01610549565b9190601f8111610577575b505050565b6105836105a8936104d2565b90602061058f846104db565b830193106105b0575b6105a1906104db565b0190610548565b5f8080610572565b91506105a181929050610598565b1c90565b906105d2905f19906008026105be565b191690565b816105e1916105c2565b906002021790565b906105f381610490565b9060018060401b0382116106b1576106158261060f85546104a8565b85610567565b602090601f831160011461064957918091610638935f9261063d575b50506105d7565b90555b565b90915001515f80610631565b601f19831691610658856104d2565b925f5b8181106106995750916002939185600196941061067f575b5050500201905561063b565b61068f910151601f8416906105c2565b90555f8080610673565b9193602060018192878701518155019501920161065b565b610049565b906106c0916105e9565b565b906106d06106d7925f6106b6565b60016106b6565b565b5f90565b151590565b6106eb90610205565b90565b906106f8906106e2565b5f5260205260405f2090565b61070d9061025c565b90565b61071990610704565b90565b9061072690610710565b5f5260205260405f2090565b9061073e60ff91610208565b9181191691161790565b610751906106dd565b90565b90565b9061076c61076761077392610748565b610754565b8254610732565b9055565b5f0190565b6107846106d9565b50610799610793828490610854565b156106dd565b5f14610822576107c160016107bc5f6107b4600686906106ee565b01859061071c565b610757565b906107ca610882565b906108076108016107fb7f2f8788117e7eff1d82e926ec794901d17c78024a50270940304540a733656f0d956106e2565b92610710565b92610710565b92610810610035565b8061081a81610777565b0390a4600190565b50505f90565b5f1c90565b60ff1690565b61083f61084491610828565b61082d565b90565b6108519054610833565b90565b61087b915f610870610876936108686106d9565b5060066106ee565b0161071c565b610847565b90565b5f90565b61088a61087e565b50339056fe60806040526004361015610013575b6117e8565b61001d5f3561026c565b806301ffc9a71461026757806306fdde0314610262578063081812fc1461025d578063095ea7b3146102585780631692a9421461025357806323b872dd1461024e578063248a9ca3146102495780632f2ff15d146102445780633078d9981461023f57806336568abe1461023a5780633fd863d81461023557806342842e0e146102305780635c7460d61461022b5780636352211e14610226578063663b3e221461022157806370a082311461021c57806374eb9b681461021757806375b238fc146102125780637e6c2cc21461020d57806382aefa2414610208578063905295e31461020357806391d14854146101fe578063947ff324146101f957806395d89b41146101f4578063a217fddf146101ef578063a22cb465146101ea578063a9137963146101e5578063b1466d1d146101e0578063b88d4fde146101db578063b8f74c3d146101d6578063c87b56dd146101d1578063d547741f146101cc578063dc501c0a146101c7578063e1300c88146101c2578063e18ac8ec146101bd578063e985e9c5146101b85763ebd0d8200361000e576117b3565b611728565b6116c6565b6115f2565b611550565b6114d7565b6114a2565b61146d565b6113ff565b6112f0565b611277565b611209565b611184565b611114565b6110de565b611073565b611040565b61100b565b610fa0565b610e27565b610dc3565b610d8e565b610d2e565b6109b4565b61097f565b6108dd565b6108a7565b610788565b610753565b610682565b610620565b610586565b610517565b6104e3565b610459565b6103a7565b6102f8565b60e01c90565b60405190565b5f80fd5b5f80fd5b5f80fd5b63ffffffff60e01b1690565b61029981610284565b036102a057565b5f80fd5b905035906102b182610290565b565b906020828203126102cc576102c9915f016102a4565b90565b61027c565b151590565b6102df906102d1565b9052565b91906102f6905f602085019401906102d6565b565b346103285761032461031361030e3660046102b3565b6117f0565b61031b610272565b918291826102e3565b0390f35b610278565b5f91031261033757565b61027c565b5190565b60209181520190565b90825f9392825e0152565b601f801991011690565b61037d61038660209361038b936103748161033c565b93848093610340565b95869101610349565b610354565b0190565b6103a49160208201915f81840391015261035e565b90565b346103d7576103b736600461032d565b6103d36103c2611816565b6103ca610272565b9182918261038f565b0390f35b610278565b90565b6103e8816103dc565b036103ef57565b5f80fd5b90503590610400826103df565b565b9060208282031261041b57610418915f016103f3565b90565b61027c565b60018060a01b031690565b61043490610420565b90565b6104409061042b565b9052565b9190610457905f60208501940190610437565b565b346104895761048561047461046f366004610402565b61182f565b61047c610272565b91829182610444565b0390f35b610278565b6104978161042b565b0361049e57565b5f80fd5b905035906104af8261048e565b565b91906040838203126104d957806104cd6104d6925f86016104a2565b936020016103f3565b90565b61027c565b5f0190565b34610512576104fc6104f63660046104b1565b9061184e565b610504610272565b8061050e816104de565b0390f35b610278565b346105475761054361053261052d366004610402565b611a21565b61053a610272565b918291826102e3565b0390f35b610278565b90916060828403126105815761057e610567845f85016104a2565b9361057581602086016104a2565b936040016103f3565b90565b61027c565b346105b55761059f61059936600461054c565b91611b6e565b6105a7610272565b806105b1816104de565b0390f35b610278565b90565b6105c6816105ba565b036105cd57565b5f80fd5b905035906105de826105bd565b565b906020828203126105f9576105f6915f016105d1565b90565b61027c565b610607906105ba565b9052565b919061061e905f602085019401906105fe565b565b346106505761064c61063b6106363660046105e0565b611c2f565b610643610272565b9182918261060b565b0390f35b610278565b919060408382031261067d578061067161067a925f86016105d1565b936020016104a2565b90565b61027c565b346106b15761069b610695366004610655565b90611c7b565b6106a3610272565b806106ad816104de565b0390f35b610278565b1c90565b60018060a01b031690565b6106d59060086106da93026106b6565b6106ba565b90565b906106e891546106c5565b90565b6106f7600f5f906106dd565b90565b90565b61071161070c61071692610420565b6106fa565b610420565b90565b610722906106fd565b90565b61072e90610719565b90565b61073a90610725565b9052565b9190610751905f60208501940190610731565b565b346107835761076336600461032d565b61077f61076e6106eb565b610776610272565b9182918261073e565b0390f35b610278565b346107b7576107a161079b366004610655565b90611c87565b6107a9610272565b806107b3816104de565b0390f35b610278565b6107c590610719565b90565b906107d2906107bc565b5f5260205260405f2090565b634e487b7160e01b5f52603260045260245ffd5b5490565b5f5260205f2090565b610808816107f2565b8210156108225761081a6001916107f6565b910201905f90565b6107de565b90565b61083a90600861083f93026106b6565b610827565b90565b9061084d915461082a565b90565b61085b90600a6107c8565b610864816107f2565b8210156108815761087e91610878916107ff565b90610842565b90565b5f80fd5b61088e906103dc565b9052565b91906108a5905f60208501940190610885565b565b346108d8576108d46108c36108bd3660046104b1565b90610850565b6108cb610272565b91829182610892565b0390f35b610278565b3461090c576108f66108f036600461054c565b91611cfd565b6108fe610272565b80610908816104de565b0390f35b610278565b60018060a01b031690565b61092c90600861093193026106b6565b610911565b90565b9061093f915461091c565b90565b61094e600e5f90610934565b90565b61095a90610719565b90565b61096690610951565b9052565b919061097d905f6020850194019061095d565b565b346109af5761098f36600461032d565b6109ab61099a610942565b6109a2610272565b9182918261096a565b0390f35b610278565b346109e4576109e06109cf6109ca366004610402565b611d13565b6109d7610272565b91829182610444565b0390f35b610278565b6109fd6109f8610a02926103dc565b6106fa565b6103dc565b90565b90610a0f906109e9565b5f5260205260405f2090565b5f1c90565b610a2c610a3191610a1b565b610827565b90565b610a3e9054610a20565b90565b60018060a01b031690565b610a58610a5d91610a1b565b610a41565b90565b610a6a9054610a4c565b90565b634e487b7160e01b5f52602260045260245ffd5b9060016002830492168015610aa1575b6020831014610a9c57565b610a6d565b91607f1691610a91565b60209181520190565b5f5260205f2090565b905f9291805490610ad7610ad083610a81565b8094610aab565b916001811690815f14610b2e5750600114610af2575b505050565b610aff9192939450610ab4565b915f925b818410610b1657505001905f8080610aed565b60018160209295939554848601520191019290610b03565b92949550505060ff19168252151560200201905f8080610aed565b90610b5391610abd565b90565b634e487b7160e01b5f52604160045260245ffd5b90610b7490610354565b810190811067ffffffffffffffff821117610b8e57604052565b610b56565b90610bb3610bac92610ba3610272565b93848092610b49565b0383610b6a565b565b60ff1690565b610bc7610bcc91610a1b565b610bb5565b90565b610bd99054610bbb565b90565b90565b610beb610bf091610a1b565b610bdc565b90565b610bfd9054610bdf565b90565b610c0b906009610a05565b90610c175f8301610a34565b91610c2460018201610a60565b91610c3160028301610a60565b91610c3e60038201610b93565b91610c4b60048301610b93565b91610c5860058201610a34565b91610c6560068301610a34565b91610c7260078201610bcf565b91610c8b6009610c8460088501610bf3565b9301610a34565b90565b959a99979196610d06610cfb610d2597610ced610d1095610d2c9e99610cdf610d1a9a6101209f8f610cd8604092610cce6101408401985f850190610885565b6020830190610437565b0190610437565b8c606081840391015261035e565b908a820360808c015261035e565b9c60a0890190610885565b60c0870190610885565b60e08501906102d6565b6101008301906105fe565b0190610885565b565b34610d6b57610d67610d49610d44366004610402565b610c00565b96610d5e9a989a969196959295949394610272565b9a8b9a8b610c8e565b0390f35b610278565b90602082820312610d8957610d86915f016104a2565b90565b61027c565b34610dbe57610dba610da9610da4366004610d70565b611d42565b610db1610272565b91829182610892565b0390f35b610278565b34610df357610def610dde610dd9366004610d70565b611da8565b610de6610272565b918291826102e3565b0390f35b610278565b7fa49807205ce4d355092ef5a8a18f56e8913cf4a201fbe287825b095693c2177590565b610e24610df8565b90565b34610e5757610e3736600461032d565b610e53610e42610e1c565b610e4a610272565b9182918261060b565b0390f35b610278565b5f80fd5b5f80fd5b90610e77610e70610272565b9283610b6a565b565b67ffffffffffffffff8111610e9757610e93602091610354565b0190565b610b56565b90825f939282370152565b90929192610ebc610eb782610e79565b610e64565b93818552602085019082840111610ed857610ed692610e9c565b565b610e60565b9080601f83011215610efb57816020610ef893359101610ea7565b90565b610e5c565b60e081830312610f9b57610f16825f83016104a2565b92602082013567ffffffffffffffff8111610f965783610f37918401610edd565b92604083013567ffffffffffffffff8111610f915781610f58918501610edd565b92610f6682606083016103f3565b92610f8e610f7784608085016105d1565b93610f858160a086016105d1565b9360c0016103f3565b90565b610280565b610280565b61027c565b34610fd757610fd3610fc2610fb6366004610f00565b95949094939193612e9e565b610fca610272565b91829182610892565b0390f35b610278565b7f114e74f6ea3bd819998f78687bfcb11b140da08e9b7d222fa9c1f1ba1f2aa12290565b611008610fdc565b90565b3461103b5761101b36600461032d565b611037611026611000565b61102e610272565b9182918261060b565b0390f35b610278565b3461106e57611058611053366004610d70565b613035565b611060610272565b8061106a816104de565b0390f35b610278565b346110a4576110a061108f611089366004610655565b90613040565b611097610272565b918291826102e3565b0390f35b610278565b6110b490600b6107c8565b6110bd816107f2565b8210156110da576110d7916110d1916107ff565b90610842565b90565b5f80fd5b3461110f5761110b6110fa6110f43660046104b1565b906110a9565b611102610272565b91829182610892565b0390f35b610278565b346111445761112436600461032d565b61114061112f61306a565b611137610272565b9182918261038f565b0390f35b610278565b90565b5f1b90565b61116561116061116a92611149565b61114c565b6105ba565b90565b6111765f611151565b90565b61118161116d565b90565b346111b45761119436600461032d565b6111b061119f611179565b6111a7610272565b9182918261060b565b0390f35b610278565b6111c2816102d1565b036111c957565b5f80fd5b905035906111da826111b9565b565b919060408382031261120457806111f8611201925f86016104a2565b936020016111cd565b90565b61027c565b346112385761122261121c3660046111dc565b90613080565b61122a610272565b80611234816104de565b0390f35b610278565b90916060828403126112725761126f611258845f85016103f3565b9361126681602086016104a2565b936040016105d1565b90565b61027c565b346112a65761129061128a36600461123d565b9161362d565b611298610272565b806112a2816104de565b0390f35b610278565b9190916040818403126112eb576112c4835f83016103f3565b92602082013567ffffffffffffffff81116112e6576112e39201610edd565b90565b610280565b61027c565b3461131f576113096113033660046112ab565b90613aea565b611311610272565b8061131b816104de565b0390f35b610278565b67ffffffffffffffff81116113425761133e602091610354565b0190565b610b56565b9092919261135c61135782611324565b610e64565b938185526020850190828401116113785761137692610e9c565b565b610e60565b9080601f8301121561139b5781602061139893359101611347565b90565b610e5c565b906080828203126113fa576113b7815f84016104a2565b926113c582602085016104a2565b926113d383604083016103f3565b92606082013567ffffffffffffffff81116113f5576113f2920161137d565b90565b610280565b61027c565b346114315761141b6114123660046113a0565b92919091613af6565b611423610272565b8061142d816104de565b0390f35b610278565b90565b61144d61144861145292611436565b6106fa565b6103dc565b90565b61145f604b611439565b90565b61146a611455565b90565b3461149d5761147d36600461032d565b611499611488611462565b611490610272565b91829182610892565b0390f35b610278565b346114d2576114ce6114bd6114b8366004610402565b613b6b565b6114c5610272565b9182918261038f565b0390f35b610278565b34611506576114f06114ea366004610655565b90613c01565b6114f8610272565b80611502816104de565b0390f35b610278565b91909160408184031261154b57611524835f83016104a2565b92602082013567ffffffffffffffff8111611546576115439201610edd565b90565b610280565b61027c565b3461157f5761156961156336600461150b565b90613da1565b611571610272565b8061157b816104de565b0390f35b610278565b60018060a01b031690565b61159f9060086115a493026106b6565b611584565b90565b906115b2915461158f565b90565b6115c1600d5f906115a7565b90565b6115cd90610719565b90565b6115d9906115c4565b9052565b91906115f0905f602085019401906115d0565b565b346116225761160236600461032d565b61161e61160d6115b5565b611615610272565b918291826115dd565b0390f35b610278565b5190565b60209181520190565b60200190565b611643906103dc565b9052565b906116548160209361163a565b0190565b60200190565b9061167b61167561166e84611627565b809361162b565b92611634565b905f5b81811061168b5750505090565b9091926116a461169e6001928651611647565b94611658565b910191909161167e565b6116c39160208201915f81840391015261165e565b90565b346116f6576116f26116e16116dc366004610d70565b613e60565b6116e9610272565b918291826116ae565b0390f35b610278565b91906040838203126117235780611717611720925f86016104a2565b936020016104a2565b90565b61027c565b346117595761175561174461173e3660046116fb565b90613e95565b61174c610272565b918291826102e3565b0390f35b610278565b90611768906107bc565b5f5260205260405f2090565b61178490600861178993026106b6565b610bb5565b90565b906117979154611774565b90565b6117b0906117ab600c915f9261175e565b61178c565b90565b346117e3576117df6117ce6117c9366004610d70565b61179a565b6117d6610272565b918291826102e3565b0390f35b610278565b5f80fd5b5f90565b611802906117fc6117ec565b50613ebd565b90565b606090565b61181390610b93565b90565b61181e611805565b506118285f61180a565b90565b5f90565b61184b9061183b61182b565b5061184581613efd565b50613f69565b90565b90611862919061185c613f88565b91613f95565b565b61186d90610719565b90565b5f80fd5b60e01b90565b905051906118878261048e565b565b906020828203126118a25761189f915f0161187a565b90565b61027c565b6118af610272565b3d5f823e3d90fd5b906118c1906103dc565b9052565b906118cf9061042b565b9052565b52565b906118e0906102d1565b9052565b906118ee906105ba565b9052565b6118fd610140610e64565b90565b906119f96119ef60096119116118f2565b946119286119205f8301610a34565b5f88016118b7565b61194061193760018301610a60565b602088016118c5565b61195861194f60028301610a60565b604088016118c5565b61197061196760038301610b93565b606088016118d3565b61198861197f60048301610b93565b608088016118d3565b6119a061199760058301610a34565b60a088016118b7565b6119b86119af60068301610a34565b60c088016118b7565b6119d06119c760078301610bcf565b60e088016118d6565b6119e96119df60088301610bf3565b61010088016118e4565b01610a34565b61012084016118b7565b565b611a0490611900565b90565b611a1190516102d1565b90565b611a1e90516103dc565b90565b611a296117ec565b50611a626020611a3830611864565b636352211e90611a578592611a4b610272565b95869485938493611874565b835260048301610892565b03915afa9081611ae8575b50155f14611adc576001611ad757611a8a611a8f915b6009610a05565b6119fb565b611aa4611a9e60e08301611a07565b156102d1565b9081611aaf575b5090565b9050611acf611ac9611ac460c0429401611a14565b6103dc565b916103dc565b11155f611aab565b505f90565b611a8a611a8f91611a83565b611b089060203d8111611b0d575b611b008183610b6a565b810190611889565b611a6d565b503d611af6565b611b28611b23611b2d92611149565b6106fa565b610420565b90565b611b3990611b14565b90565b604090611b65611b6c9496959396611b5b60608401985f850190610437565b6020830190610885565b0190610437565b565b919080611b8b611b85611b805f611b30565b61042b565b9161042b565b14611be257611ba39082611b9d613f88565b9161404d565b9182611bb7611bb18361042b565b9161042b565b03611bc157505050565b611bde9091925f9384936364283d7b60e01b855260048501611b3c565b0390fd5b611c05611bee5f611b30565b5f918291633250574960e11b835260048301610444565b0390fd5b5f90565b611c16906105ba565b90565b90611c2390611c0d565b5f5260205260405f2090565b6001611c48611c4e92611c40611c09565b506006611c19565b01610bf3565b90565b90611c6c91611c67611c6282611c2f565b6140b7565b611c6e565b565b90611c78916140cb565b50565b90611c8591611c51565b565b9080611ca2611c9c611c97613f88565b61042b565b9161042b565b03611cb357611cb091614177565b50565b5f63334bd91960e11b815280611ccb600482016104de565b0390fd5b90611ce1611cdc83610e79565b610e64565b918252565b611cef5f611ccf565b90565b611cfa611ce6565b90565b91611d119291611d0b611cf2565b92613af6565b565b611d2590611d1f61182b565b50613efd565b90565b5f90565b90611d36906107bc565b5f5260205260405f2090565b611d4a611d28565b5080611d66611d60611d5b5f611b30565b61042b565b9161042b565b14611d8157611d79611d7e916003611d2c565b610a34565b90565b611da4611d8d5f611b30565b5f9182916322718ad960e21b835260048301610444565b0390fd5b611dbf611dc491611db76117ec565b50600c61175e565b610bcf565b90565b90611de797969594939291611de2611ddd610fdc565b6140b7565b611dea565b90565b90611e0297969594939291611dfd614245565b612995565b90611e0b6142c9565b565b5f7f496e76616c696420686f6c646572206164647265737300000000000000000000910152565b611e416016602092610340565b611e4a81611e0d565b0190565b611e639060208101905f818303910152611e34565b90565b15611e6d57565b611e75610272565b62461bcd60e51b815280611e8b60048201611e4e565b0390fd5b90565b5190565b611eaa611ea5611eaf92611149565b6106fa565b6103dc565b90565b5f7f4365727469666963617465207479706520726571756972656400000000000000910152565b611ee66019602092610340565b611eef81611eb2565b0190565b611f089060208101905f818303910152611ed9565b90565b15611f1257565b611f1a610272565b62461bcd60e51b815280611f3060048201611ef3565b0390fd5b5f7f5a4b2070726f6f66207265717569726564000000000000000000000000000000910152565b611f686011602092610340565b611f7181611f34565b0190565b611f8a9060208101905f818303910152611f5b565b90565b15611f9457565b611f9c610272565b62461bcd60e51b815280611fb260048201611f75565b0390fd5b611fc2611fc791610a1b565b610911565b90565b611fd49054611fb6565b90565b90505190611fe4826111b9565b565b90602082820312611fff57611ffc915f01611fd7565b90565b61027c565b5f7f55736572206e6f74207265676973746572656400000000000000000000000000910152565b6120386013602092610340565b61204181612004565b0190565b61205a9060208101905f81830391015261202b565b90565b1561206457565b61206c610272565b62461bcd60e51b81528061208260048201612045565b0390fd5b5f7f4163636f756e74206973206c6f636b6564000000000000000000000000000000910152565b6120ba6011602092610340565b6120c381612086565b0190565b6120dc9060208101905f8183039101526120ad565b90565b156120e657565b6120ee610272565b62461bcd60e51b815280612104600482016120c7565b0390fd5b61211461211991610a1b565b6106ba565b90565b6121269054612108565b90565b90505190612136826103df565b565b906020828203126121515761214e915f01612129565b90565b61027c565b60207f7469666963617465000000000000000000000000000000000000000000000000917f496e73756666696369656e742074727573742073636f726520666f72206365725f8201520152565b6121b06028604092610340565b6121b981612156565b0190565b6121d29060208101905f8183039101526121a3565b90565b156121dc57565b6121e4610272565b62461bcd60e51b8152806121fa600482016121bd565b0390fd5b60207f7320636572746966696361746520747970650000000000000000000000000000917f496e73756666696369656e742074727573742073636f726520666f72207468695f8201520152565b6122586032604092610340565b612261816121fe565b0190565b61227a9060208101905f81830391015261224b565b90565b1561228457565b61228c610272565b62461bcd60e51b8152806122a260048201612265565b0390fd5b5f7f496e76616c6964205a4b2070726f6f6600000000000000000000000000000000910152565b6122da6010602092610340565b6122e3816122a6565b0190565b6122fc9060208101905f8183039101526122cd565b90565b1561230657565b61230e610272565b62461bcd60e51b815280612324600482016122e7565b0390fd5b634e487b7160e01b5f52601160045260245ffd5b612345906103dc565b5f1981146123535760010190565b612328565b906123645f199161114c565b9181191691161790565b90565b9061238661238161238d926109e9565b61236e565b8254612358565b9055565b6123a06123a6919392936103dc565b926103dc565b82018092116123b157565b612328565b6123c1610140610e64565b90565b6123ce905161042b565b90565b906123e260018060a01b039161114c565b9181191691161790565b90565b906124046123ff61240b926107bc565b6123ec565b82546123d1565b9055565b5190565b601f602091010490565b1b90565b9190600861243c9102916124365f198461241d565b9261241d565b9181191691161790565b919061245c612457612464936109e9565b61236e565b908354612421565b9055565b61247a91612474611d28565b91612446565b565b5b818110612488575050565b806124955f600193612468565b0161247d565b9190601f81116124ab575b505050565b6124b76124dc93610ab4565b9060206124c384612413565b830193106124e4575b6124d590612413565b019061247c565b5f80806124a6565b91506124d5819290506124cc565b90612502905f19906008026106b6565b191690565b81612511916124f2565b906002021790565b906125238161033c565b9067ffffffffffffffff82116125e357612547826125418554610a81565b8561249b565b602090601f831160011461257b5791809161256a935f9261256f575b5050612507565b90555b565b90915001515f80612563565b601f1983169161258a85610ab4565b925f5b8181106125cb575091600293918560019694106125b1575b5050500201905561256d565b6125c1910151601f8416906124f2565b90555f80806125a5565b9193602060018192878701518155019501920161258d565b610b56565b906125f291612519565b565b9061260060ff9161114c565b9181191691161790565b612613906102d1565b90565b90565b9061262e6126296126359261260a565b612616565b82546125f4565b9055565b61264390516105ba565b90565b61264f90610a1b565b90565b9061266761266261266e92611c0d565b612646565b8254612358565b9055565b90612767610120600961276d946126965f82016126905f8801611a14565b90612371565b6126af600182016126a9602088016123c4565b906123ef565b6126c8600282016126c2604088016123c4565b906123ef565b6126e1600382016126db6060880161240f565b906125e8565b6126fa600482016126f46080880161240f565b906125e8565b6127136005820161270d60a08801611a14565b90612371565b61272c6006820161272660c08801611a14565b90612371565b6127456007820161273f60e08801611a07565b90612619565b61275f600882016127596101008801612639565b90612652565b019201611a14565b90612371565b565b9061277991612672565b565b90565b5f5260205f2090565b5490565b61279481612787565b8210156127ae576127a660019161277e565b910201905f90565b6107de565b90815491680100000000000000008310156127e357826127db9160016127e19501815561278b565b90612446565b565b610b56565b5f9103126127f257565b61027c565b90565b90565b61281161280c612816926127f7565b6106fa565b6127fa565b90565b612822906127fd565b9052565b5f7f456475636174696f6e616c206365727469666963617465206973737565640000910152565b61285a601e602092610340565b61286381612826565b0190565b6128896128969361287f60608401945f850190610437565b6020830190612819565b604081830391015261284d565b90565b6128a56128aa91610a1b565b611584565b90565b6128b79054612899565b90565b90565b6128c96128ce916103dc565b6128ba565b9052565b905090565b6128fc6128f3926020926128ea8161033c565b948580936128d2565b93849101610349565b0190565b8061291160209261291895946128bd565b01906128d7565b90565b60200190565b5f7f43455254494649434154455f4953535545440000000000000000000000000000910152565b6129556012602092610340565b61295e81612921565b0190565b91604061299392949361298c612981606083018381035f850152612948565b966020830190610437565b01906105fe565b565b90955095909395929192506129c5856129be6129b86129b35f611b30565b61042b565b9161042b565b1415611e66565b6129f16129d96129d486611e8f565b611e92565b6129eb6129e55f611e96565b916103dc565b11611f0b565b612a1686612a0f612a09612a045f611151565b6105ba565b916105ba565b1415611f8d565b612a576020612a2d612a28600e611fca565b610951565b63c3c5a54790612a4c8992612a40610272565b95869485938493611874565b835260048301610444565b03915afa8015612e9957612a72915f91612e6b575b5061205d565b612a97612a92612a8c612a87600c899061175e565b610bcf565b156102d1565b6120df565b612ad86020612aae612aa9600f61211c565b610725565b635e09eea190612acd8992612ac1610272565b95869485938493611874565b835260048301610444565b03915afa908115612e66575f91612e38575b5080612af4611455565b612afd906103dc565b90612b07906103dc565b1015612b12906121d5565b81612b1c906103dc565b90612b26906103dc565b1015612b319061227d565b85858590612b3e92614411565b612b47906122ff565b612b516008610a34565b612b5a9061233c565b612b65906008612371565b612b6f6008610a34565b958693869333918742924290612b8491612391565b935f959697612b916123b6565b995f8b0190612b9f916118b7565b60208a0190612bad916118c5565b6040890190612bbb916118c5565b6060880190612bc9916118d3565b6080870190612bd7916118d3565b60a0860190612be5916118b7565b60c0850190612bf3916118b7565b60e0840190612c01916118d6565b610100830190612c10916118e4565b610120820190612c1f916118b7565b600984612c2b91610a05565b90612c359161276f565b600a82612c41916107c8565b612c4a9061277b565b83612c54916127b3565b600b33612c60916107c8565b612c699061277b565b83612c73916127b3565b8183612c7e916145ba565b612c88600f61211c565b612c9190610725565b630cc9ec5b83600f92803b15612e3357612cbe5f8094612cc9612cb2610272565b97889687958694611874565b845260048401612867565b03925af18015612e2e57612e02575b50612ceb612ce6600d6128ad565b6115c4565b635260590a8385612d1d8591612d0e612d02610272565b93849260208401612900565b60208201810382520382610b6a565b612d2f612d2982611e92565b9161291b565b2092803b15612dfd57612d555f8094612d60612d49610272565b97889687958694611874565b845260048401612962565b03925af18015612df857612dcc575b508291339192612dc6612db4612dae612da87f6f747fdac87b156ec553ed1d5b44a6d7f348858e9ae1bf353fd667d656053857946109e9565b946107bc565b946107bc565b94612dbd610272565b9182918261038f565b0390a490565b612deb905f3d8111612df1575b612de38183610b6a565b8101906127e8565b5f612d6f565b503d612dd9565b6118a7565b611870565b612e21905f3d8111612e27575b612e198183610b6a565b8101906127e8565b5f612cd8565b503d612e0f565b6118a7565b611870565b612e59915060203d8111612e5f575b612e518183610b6a565b810190612138565b5f612aea565b503d612e47565b6118a7565b612e8c915060203d8111612e92575b612e848183610b6a565b810190611fe6565b5f612a6c565b503d612e7a565b6118a7565b90612eb5969594939291612eb0611d28565b611dc7565b90565b612ed190612ecc612ec7610df8565b6140b7565b612f47565b565b5f7f4143434f554e545f554e4c4f434b454400000000000000000000000000000000910152565b612f076010602092610340565b612f1081612ed3565b0190565b916040612f45929493612f3e612f33606083018381035f850152612efa565b966020830190610437565b01906105fe565b565b612f5c5f612f57600c849061175e565b612619565b612f6e612f69600d6128ad565b6115c4565b635260590a82612f7d5f611151565b92803b1561303057612fa25f8094612fad612f96610272565b97889687958694611874565b845260048401612f14565b03925af1801561302b57612fff575b50612fe77fb7df7ef889418eecc895118f0d863c3074abf7769bfe39ba852192114c725dfc916107bc565b90612ff0610272565b80612ffa816104de565b0390a2565b61301e905f3d8111613024575b6130168183610b6a565b8101906127e8565b5f612fbc565b503d61300c565b6118a7565b611870565b61303e90612eb8565b565b613067915f61305c613062936130546117ec565b506006611c19565b0161175e565b610bcf565b90565b613072611805565b5061307d600161180a565b90565b6130949161308c613f88565b91909161465e565b565b906130b192916130ac6130a7610df8565b6140b7565b6130b3565b565b906130c692916130c1614245565b6133ab565b6130ce6142c9565b565b5f7f436572746966696361746520646f6573206e6f74206578697374000000000000910152565b613104601a602092610340565b61310d816130d0565b0190565b6131269060208101905f8183039101526130f7565b90565b1561313057565b613138610272565b62461bcd60e51b81528061314e60048201613111565b0390fd5b5f7f496e76616c6964206e657720686f6c6465720000000000000000000000000000910152565b6131866012602092610340565b61318f81613152565b0190565b6131a89060208101905f818303910152613179565b90565b156131b257565b6131ba610272565b62461bcd60e51b8152806131d060048201613193565b0390fd5b5f7f4e657720686f6c646572206e6f74207265676973746572656400000000000000910152565b6132086019602092610340565b613211816131d4565b0190565b61322a9060208101905f8183039101526131fb565b90565b1561323457565b61323c610272565b62461bcd60e51b81528061325260048201613215565b0390fd5b5f7f496e76616c6964206d6967726174696f6e2070726f6f66000000000000000000910152565b61328a6017602092610340565b61329381613256565b0190565b6132ac9060208101905f81830391015261327d565b90565b156132b657565b6132be610272565b62461bcd60e51b8152806132d460048201613297565b0390fd5b60601b90565b6132e7906132d8565b90565b6132f3906132de565b90565b6133026133079161042b565b6132ea565b9052565b6014939261332b6020836133238895613333976128bd565b0180926132f6565b0180926132f6565b0190565b5f7f43455254494649434154455f4d49475241544544000000000000000000000000910152565b61336b6014602092610340565b61337481613337565b0190565b9160406133a99294936133a2613397606083018381035f85015261335e565b966020830190610437565b01906105fe565b565b91613440906133dd6133bc85611d13565b6133d66133d06133cb5f611b30565b61042b565b9161042b565b1415613129565b613402836133fb6133f56133f05f611b30565b61042b565b9161042b565b14156131ab565b6020613416613411600e611fca565b610951565b63c3c5a547906134358692613429610272565b96879485938493611874565b835260048301610444565b03915afa9081156136285761346361346d92613472945f916135fa575b5061322d565b8490849091614813565b6132af565b613489600161348360098590610a05565b01610a60565b916134a282600161349c60098590610a05565b016123ef565b6134ad838290614942565b6134cb6134c46134bf600a85906107c8565b61277b565b82906127b3565b6134d783838391614a23565b6134e96134e4600d6128ad565b6115c4565b635260590a838361351c879161350d88613501610272565b9485936020850161330b565b60208201810382520382610b6a565b61352e61352882611e92565b9161291b565b2092803b156135f5576135545f809461355f613548610272565b97889687958694611874565b845260048401613378565b03925af180156135f0576135c4575b50916135ac6135a66135a07fe350de7c0875be22fb20f9a659c34215a5aa3da2c823cf0ceed15a01cedf1954956109e9565b926107bc565b926107bc565b926135b5610272565b806135bf816104de565b0390a4565b6135e3905f3d81116135e9575b6135db8183610b6a565b8101906127e8565b5f61356e565b503d6135d1565b6118a7565b611870565b61361b915060203d8111613621575b6136138183610b6a565b810190611fe6565b5f61345d565b503d613609565b6118a7565b906136389291613096565b565b906136549161364f61364a610fdc565b6140b7565b61386d565b565b5f7f436572746966696361746520616c7265616479207265766f6b65640000000000910152565b61368a601b602092610340565b61369381613656565b0190565b6136ac9060208101905f81830391015261367d565b90565b156136b657565b6136be610272565b62461bcd60e51b8152806136d460048201613697565b0390fd5b5f7f4e6f7420617574686f72697a656420746f207265766f6b650000000000000000910152565b61370c6018602092610340565b613715816136d8565b0190565b61372e9060208101905f8183039101526136ff565b90565b1561373857565b613740610272565b62461bcd60e51b81528061375660048201613719565b0390fd5b90565b61377161376c6137769261375a565b6106fa565b6127fa565b90565b6137829061375d565b9052565b5f7f4365727469666963617465207265766f6b656400000000000000000000000000910152565b6137ba6013602092610340565b6137c381613786565b0190565b6137e96137f6936137df60608401945f850190610437565b6020830190613779565b60408183039101526137ad565b90565b5f7f43455254494649434154455f5245564f4b454400000000000000000000000000910152565b61382d6013602092610340565b613836816137f9565b0190565b91604061386b929493613864613859606083018381035f850152613820565b966020830190610437565b01906105fe565b565b61387681611d13565b5061389f61389a613894600761388e60098690610a05565b01610bcf565b156102d1565b6136af565b6138b660026138b060098490610a05565b01610a60565b6138c86138c23361042b565b9161042b565b148015613acd575b6138d990613731565b6138f2600160076138ec60098590610a05565b01612619565b6139046138ff600f61211c565b610725565b630cc9ec5b613920600161391a60098690610a05565b01610a60565b60091992803b15613ac8576139485f809461395361393c610272565b97889687958694611874565b8452600484016137c7565b03925af18015613ac357613a97575b50613975613970600d6128ad565b6115c4565b635260590a613991600161398b60098690610a05565b01610a60565b836139bd86916139ae6139a2610272565b93849260208401612900565b60208201810382520382610b6a565b6139cf6139c982611e92565b9161291b565b2092803b15613a92576139f55f8094613a006139e9610272565b97889687958694611874565b84526004840161383a565b03925af18015613a8d57613a61575b5090339091613a5c613a4a613a447fe30209e229ea01f995092aa4cd5d70b4cd972c12645ab69fa4884bd9882f778f936109e9565b936107bc565b93613a53610272565b9182918261038f565b0390a3565b613a80905f3d8111613a86575b613a788183610b6a565b8101906127e8565b5f613a0f565b503d613a6e565b6118a7565b611870565b613ab6905f3d8111613abc575b613aae8183610b6a565b8101906127e8565b5f613962565b503d613aa4565b6118a7565b611870565b506138d9613ae3613adc610df8565b3390613040565b90506138d0565b90613af49161363a565b565b91613b1a9391613b0884828491611b6e565b613b10613f88565b9390919293614c14565b565b613b24611ce6565b90565b613b3590613b3b93926128d7565b906128d7565b90565b613b5d9291613b6991613b4f610272565b948592602084019283613b27565b90810382520383610b6a565b565b613b73611805565b50613b7d81613efd565b50613b86614d68565b90613b98613b9383611e8f565b611e92565b613baa613ba45f611e96565b916103dc565b115f14613bc857613bbe613bc49291614e1a565b90613b3e565b5b90565b5050613bd2613b1c565b613bc5565b90613bf291613bed613be882611c2f565b6140b7565b613bf4565b565b90613bfe91614177565b50565b90613c0b91613bd7565b565b90613c2791613c22613c1d610df8565b6140b7565b613c9d565b565b5f7f4143434f554e545f4c4f434b4544000000000000000000000000000000000000910152565b613c5d600e602092610340565b613c6681613c29565b0190565b916040613c9b929493613c94613c89606083018381035f850152613c50565b966020830190610437565b01906105fe565b565b613cb36001613cae600c849061175e565b612619565b613cc5613cc0600d6128ad565b6115c4565b635260590a82613cd485611e8f565b613ce6613ce082611e92565b9161291b565b2092803b15613d9c57613d0c5f8094613d17613d00610272565b97889687958694611874565b845260048401613c6a565b03925af18015613d9757613d6b575b50613d66613d547f2bcf25c46898734463874c82195a542179fda67b6987a392677c46f20e8546b2926107bc565b92613d5d610272565b9182918261038f565b0390a2565b613d8a905f3d8111613d90575b613d828183610b6a565b8101906127e8565b5f613d26565b503d613d78565b6118a7565b611870565b90613dab91613c0d565b565b606090565b60209181520190565b613dc59054610a20565b90565b60010190565b90613deb613de5613dde846107f2565b8093613db2565b926107f6565b905f5b818110613dfb5750505090565b909192613e1b613e15600192613e1087613dbb565b611647565b94613dc8565b9101919091613dee565b90613e2f91613dce565b90565b90613e52613e4b92613e42610272565b93848092613e25565b0383610b6a565b565b613e5d90613e32565b90565b613e77613e7c91613e6f613dad565b50600a6107c8565b613e54565b90565b90613e89906107bc565b5f5260205260405f2090565b613eba91613eb0613eb592613ea86117ec565b506005613e7f565b61175e565b610bcf565b90565b613ec56117ec565b5080613ee0613eda637965db0b60e01b610284565b91610284565b14908115613eed575b5090565b613ef79150614ec3565b5f613ee9565b613f0561182b565b50613f0f81614f2b565b9081613f2b613f25613f205f611b30565b61042b565b9161042b565b14613f34575090565b613f4f905f918291637e27328960e01b835260048301610892565b0390fd5b90613f5d906109e9565b5f5260205260405f2090565b613f80613f8591613f7861182b565b506004613f53565b610a60565b90565b613f9061182b565b503390565b91613fa39291600192614f4a565b565b60207f6500000000000000000000000000000000000000000000000000000000000000917f43657274696669636174657320617265206e6f6e2d7472616e7366657261626c5f8201520152565b613fff6021604092610340565b61400881613fa5565b0190565b6140219060208101905f818303910152613ff2565b90565b1561402b57565b614033610272565b62461bcd60e51b8152806140496004820161400c565b0390fd5b916140979261405a61182b565b5061406483614f2b565b61407e6140786140735f611b30565b61042b565b9161042b565b14801561409a575b61408f90614024565b919091615094565b90565b5061408f6140b06140a9610df8565b8490613040565b9050614086565b6140c9906140c3613f88565b90615238565b565b6140d36117ec565b506140e86140e2828490613040565b156102d1565b5f1461417157614110600161410b5f61410360068690611c19565b01859061175e565b612619565b90614119613f88565b9061415661415061414a7f2f8788117e7eff1d82e926ec794901d17c78024a50270940304540a733656f0d95611c0d565b926107bc565b926107bc565b9261415f610272565b80614169816104de565b0390a4600190565b50505f90565b61417f6117ec565b5061418b818390613040565b5f14614213576141b25f6141ad5f6141a560068690611c19565b01859061175e565b612619565b906141bb613f88565b906141f86141f26141ec7ff6391f5c32d9c69d2a47ea670b442974b53935d1edc7fd64eb21e047a839171b95611c0d565b926107bc565b926107bc565b92614201610272565b8061420b816104de565b0390a4600190565b50505f90565b90565b61423061422b61423592614219565b6106fa565b6103dc565b90565b614242600261421c565b90565b61424f6007610a34565b61426861426261425d614238565b6103dc565b916103dc565b146142815761427f614278614238565b6007612371565b565b5f633ee5aeb560e01b815280614299600482016104de565b0390fd5b90565b6142b46142af6142b99261429d565b6106fa565b6103dc565b90565b6142c660016142a0565b90565b6142db6142d46142bc565b6007612371565b565b5f7f496e76616c69642070726f6f6620686173680000000000000000000000000000910152565b6143116012602092610340565b61431a816142dd565b0190565b6143339060208101905f818303910152614304565b90565b1561433d57565b614345610272565b62461bcd60e51b81528061435b6004820161431e565b0390fd5b5f7f496e76616c696420636572746966696361746520747970650000000000000000910152565b6143936018602092610340565b61439c8161435f565b0190565b6143b59060208101905f818303910152614386565b90565b156143bf57565b6143c7610272565b62461bcd60e51b8152806143dd600482016143a0565b0390fd5b6143ed816014936132f6565b0190565b6143fa916128d7565b90565b61440961440e91610a1b565b6109e9565b90565b9161441a6117ec565b506144408361443961443361442e5f611151565b6105ba565b916105ba565b1415614336565b6144658261445e6144586144535f611b30565b61042b565b9161042b565b1415611e66565b61449161447961447483611e8f565b611e92565b61448b6144855f611e96565b916103dc565b116143b8565b61450a6145196144d36144e27f995d6740d1136538a0b8b9b0fe5c465d290f5847f8a73f01596685aa54e5dd62956144c7610272565b928391602083016143e1565b60208201810382520382610b6a565b6144f46144ee82611e92565b9161291b565b20926144fe610272565b928391602083016143f1565b60208201810382520382610b6a565b61452b61452582611e92565b9161291b565b209061454061453a85926105ba565b916105ba565b1415908161459d575b509081614580575b50908161455d575b5090565b61456791506143fd565b6145796145735f611e96565b916103dc565b115f614559565b905061459561458f83926105ba565b916105ba565b14155f614551565b90506145b26145ac84926105ba565b916105ba565b14155f614549565b90816145d66145d06145cb5f611b30565b61042b565b9161042b565b14614637576145ef91906145e95f611b30565b9161404d565b6146096146036145fe5f611b30565b61042b565b9161042b565b0361461057565b61463361461c5f611b30565b5f9182916339e3563760e11b835260048301610444565b0390fd5b61465a6146435f611b30565b5f918291633250574960e11b835260048301610444565b0390fd5b9190918261467c6146766146715f611b30565b61042b565b9161042b565b146146f0576146a08261469b61469460058590613e7f565b869061175e565b612619565b9190916146eb6146d96146d37f17307eab39ab6107e8899845ad3d59bd9653f200f220920489ca2b5937696c31936107bc565b936107bc565b936146e2610272565b918291826102e3565b0390a3565b61470b835f918291630b61174360e31b835260048301610444565b0390fd5b5f7f496e76616c696420636572746966696361746520494400000000000000000000910152565b6147436016602092610340565b61474c8161470f565b0190565b6147659060208101905f818303910152614736565b90565b1561476f57565b614777610272565b62461bcd60e51b81528061478d60048201614750565b0390fd5b5f7f496e76616c6964206e657720686f6c6465722061646472657373000000000000910152565b6147c5601a602092610340565b6147ce81614791565b0190565b6147e79060208101905f8183039101526147b8565b90565b156147f157565b6147f9610272565b62461bcd60e51b81528061480f600482016147d2565b0390fd5b61485e925061483d906148246117ec565b506148376148315f611e96565b916103dc565b11614768565b61485761485161484c5f611b30565b61042b565b9161042b565b14156147ea565b600190565b600161486f91016103dc565b90565b9061487d91036103dc565b90565b634e487b7160e01b5f52603160045260245ffd5b61489d81612787565b80156148be5760019003906148bb6148b5838361278b565b90612468565b55565b614880565b60207f6c69737400000000000000000000000000000000000000000000000000000000917f4365727469666963617465206e6f7420666f756e6420696e20686f6c646572205f8201520152565b61491d6024604092610340565b614926816148c3565b0190565b61493f9060208101905f818303910152614910565b90565b61495061495591600a6107c8565b61277b565b61495e81612787565b6149675f611e96565b5b8061497b614975846103dc565b916103dc565b1015614a015761499561498f84839061278b565b90610842565b6149a76149a1866103dc565b916103dc565b146149ba576149b590614863565b614968565b6149ff93506149f46149ed6149e76149fa946149e187916149db60016142a0565b90614872565b9061278b565b90610842565b918461278b565b90612446565b614894565b565b614a09610272565b62461bcd60e51b815280614a1f6004820161492a565b0390fd5b9080614a3f614a39614a345f611b30565b61042b565b9161042b565b14614ada57614a589083614a525f611b30565b9161404d565b9081614a74614a6e614a695f611b30565b61042b565b9161042b565b145f14614a9a57614a96835f918291637e27328960e01b835260048301610892565b0390fd5b819291614aaf614aa98361042b565b9161042b565b03614ab957505050565b614ad69091925f9384936364283d7b60e01b855260048501611b3c565b0390fd5b614afd614ae65f611b30565b5f918291633250574960e11b835260048301610444565b0390fd5b614b0a906106fd565b90565b614b1690614b01565b90565b614b2290610719565b90565b90505190614b3282610290565b565b90602082820312614b4d57614b4a915f01614b25565b90565b61027c565b60209181520190565b614b7a614b83602093614b8893614b7181611e92565b93848093614b52565b95869101610349565b610354565b0190565b9092614bbf90614bb5614bcc9694614bab60808601975f870190610437565b6020850190610437565b6040830190610885565b6060818403910152614b5b565b90565b90614be1614bdc83611324565b610e64565b918252565b606090565b3d5f14614c0657614bfb3d614bcf565b903d5f602084013e5b565b614c0e614be6565b90614c04565b9193843b614c2a614c245f611e96565b916103dc565b11614c37575b5050505050565b614c6f5f602094614c7a614c52614c4d8a614b0d565b614b19565b9463150b7a02929698614c63610272565b998a9889978896611874565b865260048601614b8c565b03925af180915f92614d38575b50155f14614cf557506001614ca257505b5f80808080614c30565b614caa614beb565b90614cb482611e92565b614cc6614cc05f611e96565b916103dc565b145f14614cec57614ce8905f918291633250574960e11b835260048301610444565b0390fd5b50602081519101fd5b614d0e614d08630a85bd0160e11b610284565b91610284565b03614d195750614c98565b614d34905f918291633250574960e11b835260048301610444565b0390fd5b614d5a91925060203d8111614d61575b614d528183610b6a565b810190614b34565b905f614c87565b503d614d48565b614d70611805565b50614d79613b1c565b90565b90614d8791016103dc565b90565b369037565b90614db4614d9c83611ccf565b92602080614daa8693610e79565b9201910390614d8a565b565b6001614dc291036103dc565b90565b90565b614ddc614dd7614de192614dc5565b6106fa565b6103dc565b90565b634e487b7160e01b5f52601260045260245ffd5b614e04614e0a916103dc565b916103dc565b908115614e15570490565b614de4565b614e22611805565b50614e3f614e2f826153c8565b614e3960016142a0565b90614d7c565b90614e4982614d8f565b91614e52611d28565b5060208301015b600115614ebc57614e6c614e9891614db6565b916f181899199a1a9b1b9c1cb0b131b232b360811b600a82061a8353614e92600a614dc8565b90614df8565b80614eab614ea55f611e96565b916103dc565b14614eb65790614e59565b50505b90565b5050614eb9565b614ecb6117ec565b5080614ee6614ee06380ac58cd60e01b610284565b91610284565b148015614f0a575b908115614efa575b5090565b614f049150615629565b5f614ef6565b5080614f25614f1f635b5e139f60e01b610284565b91610284565b14614eee565b614f42614f4791614f3a61182b565b506002613f53565b610a60565b90565b919092808015615071575b614f73575b505090614f6c614f7192916004613f53565b6123ef565b565b614f7c84613efd565b9180614f98614f92614f8d5f611b30565b61042b565b9161042b565b141580615056575b8061503c575b61501d575091614f6c91614f719493614fc2575b509192614f5a565b818490615001614ffb614ff57f8c5be1e5ebec7d5bd14f71427d1e84f3dd0314c0f7b2291e5b200ac8c7c3b925956107bc565b926107bc565b926109e9565b9261500a610272565b80615014816104de565b0390a45f614fba565b615038905f91829163a9fbf51f60e01b835260048301610444565b0390fd5b5061505161504b848390613e95565b156102d1565b614fa6565b508261506a6150648361042b565b9161042b565b1415614fa0565b508161508d6150876150825f611b30565b61042b565b9161042b565b1415614f55565b9061509d61182b565b506150a781614f2b565b92806150c36150bd6150b85f611b30565b61042b565b9161042b565b03615202575b50826150e56150df6150da5f611b30565b61042b565b9161042b565b036151ae575b816151066151006150fb5f611b30565b61042b565b9161042b565b03615178575b6151218261511c60028490613f53565b6123ef565b829161515f6151596151537fddf252ad1be2c89b69c2b068fc378daa952ba7f163c4a11628f55a4df523b3ef956107bc565b926107bc565b926109e9565b92615168610272565b80615172816104de565b0390a490565b6151a961518560016142a0565b6151a361519460038690611d2c565b9161519e83610a34565b614d7c565b90612371565b61510c565b6151cc6151ba5f611b30565b826151c45f611b30565b905f92614f4a565b6151fd6151d960016142a0565b6151f76151e860038790611d2c565b916151f283610a34565b614872565b90612371565b6150eb565b61520f9084908391615672565b5f6150c9565b91602061523692949361522f60408201965f830190610437565b01906105fe565b565b9061524d615247838390613040565b156102d1565b615255575050565b61526f5f92839263e2517d3f60e01b845260048401615215565b0390fd5b90565b61528a61528561528f92615273565b6106fa565b6103dc565b90565b90565b6152a96152a46152ae92615292565b6106fa565b6103dc565b90565b90565b6152c86152c36152cd926152b1565b6106fa565b6103dc565b90565b90565b6152e76152e26152ec926152d0565b6106fa565b6103dc565b90565b90565b61530661530161530b926152ef565b6106fa565b6103dc565b90565b90565b61532561532061532a9261530e565b6106fa565b6103dc565b90565b90565b61534461533f6153499261532d565b6106fa565b6103dc565b90565b90565b61536361535e6153689261534c565b6106fa565b6103dc565b90565b90565b61538261537d6153879261536b565b6106fa565b6103dc565b90565b90565b6153a161539c6153a69261538a565b6106fa565b6103dc565b90565b90565b6153c06153bb6153c5926153a9565b6106fa565b6103dc565b90565b6153d0611d28565b506153da5f611e96565b90806154096154037a184f03e93ff9f4daa797ed6e38ed64bf6a1f010000000000000000615276565b916103dc565b10156155e1575b8061543161542b6d04ee2d6d415b85acef81000000006152b4565b916103dc565b10156155a6575b8061545261544c662386f26fc100006152f2565b916103dc565b1015615572575b8061547061546a6305f5e100615330565b916103dc565b1015615541575b8061548c61548661271061536e565b916103dc565b1015615512575b806154a76154a160646153ac565b916103dc565b10156154e4575b6154c16154bb600a614dc8565b916103dc565b10156154cb575b90565b6154df906154d960016142a0565b90614d7c565b6154c8565b6154fb61550c916154f560646153ac565b90614df8565b91615506600261421c565b90614d7c565b906154ae565b61552a61553b9161552461271061536e565b90614df8565b91615535600461538d565b90614d7c565b90615493565b61555b61556c916155556305f5e100615330565b90614df8565b91615566600861534f565b90614d7c565b90615477565b61558f6155a091615589662386f26fc100006152f2565b90614df8565b9161559a6010615311565b90614d7c565b90615459565b6155ca6155db916155c46d04ee2d6d415b85acef81000000006152b4565b90614df8565b916155d560206152d3565b90614d7c565b90615438565b6156126156239161560c7a184f03e93ff9f4daa797ed6e38ed64bf6a1f010000000000000000615276565b90614df8565b9161561d6040615295565b90614d7c565b90615410565b6156316117ec565b5061564b6156456301ffc9a760e01b610284565b91610284565b1490565b91602061567092949361566960408201965f830190610437565b0190610885565b565b615687615681828486916156ee565b156102d1565b61569057505050565b6156aa6156a461569f5f611b30565b61042b565b9161042b565b145f146156d0576156cc825f918291637e27328960e01b835260048301610892565b0390fd5b6156ea5f92839263177e802f60e01b84526004840161564f565b0390fd5b91906156f86117ec565b508061571461570e6157095f611b30565b61042b565b9161042b565b14159283615723575b50505090565b809192935061573a6157348461042b565b9161042b565b1490811561577c575b50918215615756575b50505f808061571d565b61577491925061576861576e91613f69565b9261042b565b9161042b565b145f8061574c565b61578891508290613e95565b5f61574356fea2646970667358221220b06559cfb9da315adec6d93d0c3435dbea060c46315e969ef28c62f13ea5813a64736f6c634300081e0033","linkReferences":{}},"methodIdentifiers":{"ADMIN_ROLE()":"75b238fc","DEFAULT_ADMIN_ROLE()":"a217fddf","ISSUER_ROLE()":"82aefa24","MIN_TRUST_SCORE_FOR_CERTIFICATE()":"b8f74c3d","approve(address,uint256)":"095ea7b3","balanceOf(address)":"70a08231","certificates(uint256)":"663b3e22","getApproved(uint256)":"081812fc","getCertificatesByHolder(address)":"e18ac8ec","getRoleAdmin(bytes32)":"248a9ca3","grantRole(bytes32,address)":"2f2ff15d","hasRole(bytes32,address)":"91d14854","holderCertificates(address,uint256)":"3fd863d8","isAccountLocked(address)":"74eb9b68","isApprovedForAll(address,address)":"e985e9c5","issueCertificate(address,string,string,uint256,bytes32,bytes32,uint256)":"7e6c2cc2","issuerCertificates(address,uint256)":"947ff324","lockAccount(address,string)":"dc501c0a","lockedAccounts(address)":"ebd0d820","migrateCertificate(uint256,address,bytes32)":"a9137963","name()":"06fdde03","ownerOf(uint256)":"6352211e","renounceRole(bytes32,address)":"36568abe","revokeCertificate(uint256,string)":"b1466d1d","revokeRole(bytes32,address)":"d547741f","safeTransferFrom(address,address,uint256)":"42842e0e","safeTransferFrom(address,address,uint256,bytes)":"b88d4fde","setApprovalForAll(address,bool)":"a22cb465","supportsInterface(bytes4)":"01ffc9a7","symbol()":"95d89b41","tokenURI(uint256)":"c87b56dd","transferFrom(address,address,uint256)":"23b872dd","trustScore()":"3078d998","unlockAccount(address)":"905295e3","userRegistry()":"5c7460d6","verificationLogger()":"e1300c88","verifyCertificate(uint256)":"1692a942"},"id":80}