{"abi":[{"type":"constructor","inputs":[{"name":"_verificationLogger","type":"address","internalType":"address"}],"stateMutability":"nonpayable"},{"type":"function","name":"DEFAULT_ADMIN_ROLE","inputs":[],"outputs":[{"name":"","type":"bytes32","internalType":"bytes32"}],"stateMutability":"view"},{"type":"function","name":"REGISTRY_ADMIN_ROLE","inputs":[],"outputs":[{"name":"","type":"bytes32","internalType":"bytes32"}],"stateMutability":"view"},{"type":"function","name":"addressToName","inputs":[{"name":"","type":"address","internalType":"address"}],"outputs":[{"name":"","type":"string","internalType":"string"}],"stateMutability":"view"},{"type":"function","name":"batchRegisterContracts","inputs":[{"name":"names","type":"string[]","internalType":"string[]"},{"name":"addresses","type":"address[]","internalType":"address[]"},{"name":"versions","type":"string[]","internalType":"string[]"}],"outputs":[],"stateMutability":"nonpayable"},{"type":"function","name":"contractNames","inputs":[{"name":"","type":"uint256","internalType":"uint256"}],"outputs":[{"name":"","type":"string","internalType":"string"}],"stateMutability":"view"},{"type":"function","name":"contracts","inputs":[{"name":"","type":"string","internalType":"string"}],"outputs":[{"name":"contractAddress","type":"address","internalType":"address"},{"name":"name","type":"string","internalType":"string"},{"name":"version","type":"string","internalType":"string"},{"name":"deployedAt","type":"uint256","internalType":"uint256"},{"name":"isActive","type":"bool","internalType":"bool"},{"name":"codeHash","type":"bytes32","internalType":"bytes32"}],"stateMutability":"view"},{"type":"function","name":"deactivateContract","inputs":[{"name":"name","type":"string","internalType":"string"}],"outputs":[],"stateMutability":"nonpayable"},{"type":"function","name":"getActiveContracts","inputs":[],"outputs":[{"name":"","type":"string[]","internalType":"string[]"}],"stateMutability":"view"},{"type":"function","name":"getAllContracts","inputs":[],"outputs":[{"name":"","type":"string[]","internalType":"string[]"}],"stateMutability":"view"},{"type":"function","name":"getContractAddress","inputs":[{"name":"name","type":"string","internalType":"string"}],"outputs":[{"name":"","type":"address","internalType":"address"}],"stateMutability":"view"},{"type":"function","name":"getContractCodeHash","inputs":[{"name":"name","type":"string","internalType":"string"}],"outputs":[{"name":"","type":"bytes32","internalType":"bytes32"}],"stateMutability":"view"},{"type":"function","name":"getContractInfo","inputs":[{"name":"name","type":"string","internalType":"string"}],"outputs":[{"name":"","type":"tuple","internalType":"struct ContractRegistry.ContractInfo","components":[{"name":"contractAddress","type":"address","internalType":"address"},{"name":"name","type":"string","internalType":"string"},{"name":"version","type":"string","internalType":"string"},{"name":"deployedAt","type":"uint256","internalType":"uint256"},{"name":"isActive","type":"bool","internalType":"bool"},{"name":"codeHash","type":"bytes32","internalType":"bytes32"}]}],"stateMutability":"view"},{"type":"function","name":"getContractName","inputs":[{"name":"contractAddress","type":"address","internalType":"address"}],"outputs":[{"name":"","type":"string","internalType":"string"}],"stateMutability":"view"},{"type":"function","name":"getContractStats","inputs":[],"outputs":[{"name":"totalContracts","type":"uint256","internalType":"uint256"},{"name":"activeContracts","type":"uint256","internalType":"uint256"},{"name":"inactiveContracts","type":"uint256","internalType":"uint256"}],"stateMutability":"view"},{"type":"function","name":"getRoleAdmin","inputs":[{"name":"role","type":"bytes32","internalType":"bytes32"}],"outputs":[{"name":"","type":"bytes32","internalType":"bytes32"}],"stateMutability":"view"},{"type":"function","name":"grantRole","inputs":[{"name":"role","type":"bytes32","internalType":"bytes32"},{"name":"account","type":"address","internalType":"address"}],"outputs":[],"stateMutability":"nonpayable"},{"type":"function","name":"hasRole","inputs":[{"name":"role","type":"bytes32","internalType":"bytes32"},{"name":"account","type":"address","internalType":"address"}],"outputs":[{"name":"","type":"bool","internalType":"bool"}],"stateMutability":"view"},{"type":"function","name":"isContractActive","inputs":[{"name":"name","type":"string","internalType":"string"}],"outputs":[{"name":"","type":"bool","internalType":"bool"}],"stateMutability":"view"},{"type":"function","name":"isContractRegistered","inputs":[{"name":"name","type":"string","internalType":"string"}],"outputs":[{"name":"","type":"bool","internalType":"bool"}],"stateMutability":"view"},{"type":"function","name":"reactivateContract","inputs":[{"name":"name","type":"string","internalType":"string"}],"outputs":[],"stateMutability":"nonpayable"},{"type":"function","name":"registerContract","inputs":[{"name":"name","type":"string","internalType":"string"},{"name":"contractAddress","type":"address","internalType":"address"},{"name":"version","type":"string","internalType":"string"}],"outputs":[],"stateMutability":"nonpayable"},{"type":"function","name":"renounceRole","inputs":[{"name":"role","type":"bytes32","internalType":"bytes32"},{"name":"callerConfirmation","type":"address","internalType":"address"}],"outputs":[],"stateMutability":"nonpayable"},{"type":"function","name":"revokeRole","inputs":[{"name":"role","type":"bytes32","internalType":"bytes32"},{"name":"account","type":"address","internalType":"address"}],"outputs":[],"stateMutability":"nonpayable"},{"type":"function","name":"supportsInterface","inputs":[{"name":"interfaceId","type":"bytes4","internalType":"bytes4"}],"outputs":[{"name":"","type":"bool","internalType":"bool"}],"stateMutability":"view"},{"type":"function","name":"updateContract","inputs":[{"name":"name","type":"string","internalType":"string"},{"name":"newAddress","type":"address","internalType":"address"},{"name":"newVersion","type":"string","internalType":"string"}],"outputs":[],"stateMutability":"nonpayable"},{"type":"function","name":"verificationLogger","inputs":[],"outputs":[{"name":"","type":"address","internalType":"contract IVerificationLogger"}],"stateMutability":"view"},{"type":"function","name":"verifyCodeIntegrity","inputs":[{"name":"name","type":"string","internalType":"string"}],"outputs":[{"name":"","type":"bool","internalType":"bool"}],"stateMutability":"view"},{"type":"function","name":"verifyContract","inputs":[{"name":"name","type":"string","internalType":"string"},{"name":"expectedAddress","type":"address","internalType":"address"}],"outputs":[{"name":"","type":"bool","internalType":"bool"}],"stateMutability":"view"},{"type":"event","name":"ContractDeactivated","inputs":[{"name":"name","type":"string","indexed":true,"internalType":"string"},{"name":"contractAddress","type":"address","indexed":true,"internalType":"address"}],"anonymous":false},{"type":"event","name":"ContractRegistered","inputs":[{"name":"name","type":"string","indexed":true,"internalType":"string"},{"name":"contractAddress","type":"address","indexed":true,"internalType":"address"},{"name":"version","type":"string","indexed":false,"internalType":"string"}],"anonymous":false},{"type":"event","name":"ContractUpdated","inputs":[{"name":"name","type":"string","indexed":true,"internalType":"string"},{"name":"oldAddress","type":"address","indexed":true,"internalType":"address"},{"name":"newAddress","type":"address","indexed":true,"internalType":"address"}],"anonymous":false},{"type":"event","name":"RoleAdminChanged","inputs":[{"name":"role","type":"bytes32","indexed":true,"internalType":"bytes32"},{"name":"previousAdminRole","type":"bytes32","indexed":true,"internalType":"bytes32"},{"name":"newAdminRole","type":"bytes32","indexed":true,"internalType":"bytes32"}],"anonymous":false},{"type":"event","name":"RoleGranted","inputs":[{"name":"role","type":"bytes32","indexed":true,"internalType":"bytes32"},{"name":"account","type":"address","indexed":true,"internalType":"address"},{"name":"sender","type":"address","indexed":true,"internalType":"address"}],"anonymous":false},{"type":"event","name":"RoleRevoked","inputs":[{"name":"role","type":"bytes32","indexed":true,"internalType":"bytes32"},{"name":"account","type":"address","indexed":true,"internalType":"address"},{"name":"sender","type":"address","indexed":true,"internalType":"address"}],"anonymous":false},{"type":"error","name":"AccessControlBadConfirmation","inputs":[]},{"type":"error","name":"AccessControlUnauthorizedAccount","inputs":[{"name":"account","type":"address","internalType":"address"},{"name":"neededRole","type":"bytes32","internalType":"bytes32"}]}],"bytecode":{"object":"0x60806040523461002f576100196100146100f4565b6101ed565b610021610034565b613b6d6103dd8239613b6d90f35b61003a565b60405190565b5f80fd5b601f801991011690565b634e487b7160e01b5f52604160045260245ffd5b906100669061003e565b810190811060018060401b0382111761007e57604052565b610048565b9061009661008f610034565b928361005c565b565b5f80fd5b60018060a01b031690565b6100b09061009c565b90565b6100bc816100a7565b036100c357565b5f80fd5b905051906100d4826100b3565b565b906020828203126100ef576100ec915f016100c7565b90565b610098565b610112613f4a8038038061010781610083565b9283398101906100d6565b90565b90565b90565b5f1b90565b61013461012f61013992610115565b61011b565b610118565b90565b6101455f610120565b90565b7fbb28eb1a0cfabcecf96003fab466159bc2e051e49d79baf049890044e907244090565b90565b61018361017e6101889261009c565b61016c565b61009c565b90565b6101949061016f565b90565b6101a09061018b565b90565b906101b460018060a01b039161011b565b9181191691161790565b6101c79061018b565b90565b90565b906101e26101dd6101e9926101be565b6101ca565b82546101a3565b9055565b61021f610226916102066101ff61013c565b33906102cb565b50610219610212610148565b33906102cb565b50610197565b60046101cd565b565b5f90565b151590565b61023a90610118565b90565b9061024790610231565b5f5260205260405f2090565b61025c9061016f565b90565b61026890610253565b90565b906102759061025f565b5f5260205260405f2090565b9061028d60ff9161011b565b9181191691161790565b6102a09061022c565b90565b90565b906102bb6102b66102c292610297565b6102a3565b8254610281565b9055565b5f0190565b6102d3610228565b506102e86102e28284906103a2565b1561022c565b5f146103705761030f600161030a5f61030281869061023d565b01859061026b565b6102a6565b906103186103cf565b9061035561034f6103497f2f8788117e7eff1d82e926ec794901d17c78024a50270940304540a733656f0d95610231565b9261025f565b9261025f565b9261035e610034565b80610368816102c6565b0390a4600190565b50505f90565b5f1c90565b60ff1690565b61038d61039291610376565b61037b565b90565b61039f9054610381565b90565b6103c8915f6103bd6103c3936103b6610228565b508261023d565b0161026b565b610395565b90565b5f90565b6103d76103cb565b50339056fe60806040526004361015610013575b611441565b61001d5f356101dc565b806301ffc9a7146101d7578063022edd35146101d257806304433bbc146101cd57806318d3ce96146101c85780632202ce09146101c3578063248a9ca3146101be57806325754ea4146101b95780632f2ff15d146101b457806333ec58a5146101af57806336568abe146101aa5780633896f226146101a55780633ca6bb92146101a05780635cd74aa11461019b5780637037865014610196578063819f34b3146101915780638c5b83851461018c57806391d14854146101875780639f0bdb0d14610182578063a13da61d1461017d578063a217fddf14610178578063a738e97514610173578063bf584c4b1461016e578063d09ea4d714610169578063d547741f14610164578063dfe6b5d61461015f578063e1300c881461015a578063e2a04b62146101555763f299ad440361000e5761140c565b6113d7565b611349565b611274565b61120e565b6111da565b6111a5565b611142565b6110a4565b611036565b611001565b610fcb565b610f8f565b610d68565b610c6e565b610bf4565b610bbf565b610952565b61091e565b6108ea565b6106ea565b610665565b610630565b610597565b61055d565b610528565b6103a4565b610268565b60e01c90565b60405190565b5f80fd5b5f80fd5b5f80fd5b63ffffffff60e01b1690565b610209816101f4565b0361021057565b5f80fd5b9050359061022182610200565b565b9060208282031261023c57610239915f01610214565b90565b6101ec565b151590565b61024f90610241565b9052565b9190610266905f60208501940190610246565b565b346102985761029461028361027e366004610223565b611449565b61028b6101e2565b91829182610253565b0390f35b6101e8565b5f9103126102a757565b6101ec565b5190565b60209181520190565b60200190565b5190565b60209181520190565b90825f9392825e0152565b601f801991011690565b61030061030960209361030e936102f7816102bf565b938480936102c3565b958691016102cc565b6102d7565b0190565b9061031c916102e1565b90565b60200190565b90610339610332836102ac565b80926102b0565b908161034a602083028401946102b9565b925f915b83831061035d57505050505090565b9091929394602061037f61037983856001950387528951610312565b9761031f565b930193019193929061034e565b6103a19160208201915f818403910152610325565b90565b346103d4576103b436600461029d565b6103d06103bf611642565b6103c76101e2565b9182918261038c565b0390f35b6101e8565b5f80fd5b5f80fd5b634e487b7160e01b5f52604160045260245ffd5b906103ff906102d7565b810190811067ffffffffffffffff82111761041957604052565b6103e1565b9061043161042a6101e2565b92836103f5565b565b67ffffffffffffffff81116104515761044d6020916102d7565b0190565b6103e1565b90825f939282370152565b9092919261047661047182610433565b61041e565b938185526020850190828401116104925761049092610456565b565b6103dd565b9080601f830112156104b5578160206104b293359101610461565b90565b6103d9565b906020828203126104ea575f82013567ffffffffffffffff81116104e5576104e29201610497565b90565b6101f0565b6101ec565b60018060a01b031690565b610503906104ef565b90565b61050f906104fa565b9052565b9190610526905f60208501940190610506565b565b346105585761055461054361053e3660046104ba565b61180f565b61054b6101e2565b91829182610513565b0390f35b6101e8565b3461058d5761056d36600461029d565b6105896105786118a9565b6105806101e2565b9182918261038c565b0390f35b6101e8565b5f0190565b346105c5576105af6105aa3660046104ba565b611c69565b6105b76101e2565b806105c181610592565b0390f35b6101e8565b90565b6105d6816105ca565b036105dd57565b5f80fd5b905035906105ee826105cd565b565b9060208282031261060957610606915f016105e1565b90565b6101ec565b610617906105ca565b9052565b919061062e905f6020850194019061060e565b565b346106605761065c61064b6106463660046105f0565b611c9a565b6106536101e2565b9182918261061b565b0390f35b6101e8565b346106955761069161068061067b3660046104ba565b611cbb565b6106886101e2565b9182918261061b565b0390f35b6101e8565b6106a3816104fa565b036106aa57565b5f80fd5b905035906106bb8261069a565b565b91906040838203126106e557806106d96106e2925f86016105e1565b936020016106ae565b90565b6101ec565b34610719576107036106fd3660046106bd565b90611d07565b61070b6101e2565b8061071581610592565b0390f35b6101e8565b67ffffffffffffffff81116107365760208091020190565b6103e1565b5f80fd5b92919061075361074e8261071e565b61041e565b93818552602080860192028101918383116107aa5781905b838210610779575050505050565b813567ffffffffffffffff81116107a55760209161079a8784938701610497565b81520191019061076b565b6103d9565b61073b565b9080601f830112156107cd578160206107ca9335910161073f565b90565b6103d9565b67ffffffffffffffff81116107ea5760208091020190565b6103e1565b909291926108046107ff826107d2565b61041e565b938185526020808601920283019281841161084157915b8383106108285750505050565b6020809161083684866106ae565b81520192019161081b565b61073b565b9080601f8301121561086457816020610861933591016107ef565b90565b6103d9565b916060838303126108e5575f83013567ffffffffffffffff81116108e057826108939185016107af565b92602081013567ffffffffffffffff81116108db57836108b4918301610846565b92604082013567ffffffffffffffff81116108d6576108d392016107af565b90565b6101f0565b6101f0565b6101f0565b6101ec565b34610919576109036108fd366004610869565b91611f9d565b61090b6101e2565b8061091581610592565b0390f35b6101e8565b3461094d576109376109313660046106bd565b90611faa565b61093f6101e2565b8061094981610592565b0390f35b6101e8565b346109825761097e61096d6109683660046104ba565b611ff2565b6109756101e2565b91829182610253565b0390f35b6101e8565b90565b61099381610987565b0361099a57565b5f80fd5b905035906109ab8261098a565b565b906020828203126109c6576109c3915f0161099e565b90565b6101ec565b634e487b7160e01b5f52603260045260245ffd5b5490565b5f5260205f2090565b6109f5816109df565b821015610a0f57610a076001916109e3565b910201905f90565b6109cb565b634e487b7160e01b5f525f60045260245ffd5b634e487b7160e01b5f52602260045260245ffd5b9060016002830492168015610a5b575b6020831014610a5657565b610a27565b91607f1691610a4b565b5f5260205f2090565b905f9291805490610a88610a8183610a3b565b80946102c3565b916001811690815f14610adf5750600114610aa3575b505050565b610ab09192939450610a65565b915f925b818410610ac757505001905f8080610a9e565b60018160209295939554848601520191019290610ab4565b92949550505060ff19168252151560200201905f8080610a9e565b90610b0491610a6e565b90565b90610b27610b2092610b176101e2565b93848092610afa565b03836103f5565b565b905f10610b3c57610b3990610b07565b90565b610a14565b6003610b4c816109df565b821015610b6957610b6691610b60916109ec565b90610b29565b90565b5f80fd5b60209181520190565b610b95610b9e602093610ba393610b8c816102bf565b93848093610b6d565b958691016102cc565b6102d7565b0190565b610bbc9160208201915f818403910152610b76565b90565b34610bef57610beb610bda610bd53660046109ad565b610b41565b610be26101e2565b91829182610ba7565b0390f35b6101e8565b34610c2457610c20610c0f610c0a3660046104ba565b61202f565b610c176101e2565b91829182610253565b0390f35b6101e8565b9190604083820312610c69575f8301359067ffffffffffffffff8211610c6457610c5881610c61938601610497565b936020016106ae565b90565b6101f0565b6101ec565b34610c9f57610c9b610c8a610c84366004610c29565b9061218d565b610c926101e2565b91829182610253565b0390f35b6101e8565b610cad906104fa565b9052565b610cba90610987565b9052565b610cc790610241565b9052565b610cd4906105ca565b9052565b90610d4d9060a080610d1e610d0c60c08501610cfa5f8901515f880190610ca4565b602088015186820360208801526102e1565b604087015185820360408701526102e1565b94610d3160608201516060860190610cb1565b610d4360808201516080860190610cbe565b0151910190610ccb565b90565b610d659160208201915f818403910152610cd8565b90565b34610d9857610d94610d83610d7e3660046104ba565b612257565b610d8b6101e2565b91829182610d50565b0390f35b6101e8565b905090565b610dc7610dbe92602092610db5816102bf565b94858093610d9d565b938491016102cc565b0190565b90565b610dda610ddf91610987565b610dcb565b9052565b610df3610dfa9160209493610da2565b8092610dce565b0190565b610e12610e096101e2565b92839283610de3565b03902090565b610e2191610dfe565b90565b5f1c90565b60018060a01b031690565b610e40610e4591610e24565b610e29565b90565b610e529054610e34565b90565b90565b610e64610e6991610e24565b610e55565b90565b610e769054610e58565b90565b60ff1690565b610e8b610e9091610e24565b610e79565b90565b610e9d9054610e7f565b90565b90565b610eaf610eb491610e24565b610ea0565b90565b610ec19054610ea3565b90565b610ecf906001610e18565b90610edb5f8301610e48565b91610ee860018201610b07565b91610ef560028301610b07565b91610f0260038201610e6c565b91610f1b6005610f1460048501610e93565b9301610eb7565b90565b610f2790610987565b9052565b9194610f7c610f7160a095610f63610f8695610f8d9a9c9b999c610f5660c08a01925f8b0190610506565b88820360208a0152610b76565b908682036040880152610b76565b986060850190610f1e565b6080830190610246565b019061060e565b565b34610fc657610fc2610faa610fa53660046104ba565b610ec4565b92610fb99694969291926101e2565b96879687610f2b565b0390f35b6101e8565b34610ffc57610ff8610fe7610fe13660046106bd565b9061228c565b610fef6101e2565b91829182610253565b0390f35b6101e8565b346110315761102d61101c6110173660046104ba565b6122c2565b6110246101e2565b91829182610253565b0390f35b6101e8565b346110645761104e6110493660046104ba565b612609565b6110566101e2565b8061106081610592565b0390f35b6101e8565b90565b5f1b90565b61108561108061108a92611069565b61106c565b6105ca565b90565b6110965f611071565b90565b6110a161108d565b90565b346110d4576110b436600461029d565b6110d06110bf611099565b6110c76101e2565b9182918261061b565b0390f35b6101e8565b9160608383031261113d575f83013567ffffffffffffffff81116111385782611103918501610497565b9261111183602083016106ae565b92604082013567ffffffffffffffff8111611133576111309201610497565b90565b6101f0565b6101f0565b6101ec565b346111715761115b6111553660046110d9565b916133f1565b6111636101e2565b8061116d81610592565b0390f35b6101e8565b7fbb28eb1a0cfabcecf96003fab466159bc2e051e49d79baf049890044e907244090565b6111a2611176565b90565b346111d5576111b536600461029d565b6111d16111c061119a565b6111c86101e2565b9182918261061b565b0390f35b6101e8565b34611209576111f36111ed3660046110d9565b916137ef565b6111fb6101e2565b8061120581610592565b0390f35b6101e8565b3461123d576112276112213660046106bd565b90613826565b61122f6101e2565b8061123981610592565b0390f35b6101e8565b60409061126b611272949695939661126160608401985f850190610f1e565b6020830190610f1e565b0190610f1e565b565b346112a75761128436600461029d565b6112a361128f613857565b61129a9391936101e2565b93849384611242565b0390f35b6101e8565b1c90565b60018060a01b031690565b6112cb9060086112d093026112ac565b6112b0565b90565b906112de91546112bb565b90565b6112ed60045f906112d3565b90565b90565b61130761130261130c926104ef565b6112f0565b6104ef565b90565b611318906112f3565b90565b6113249061130f565b90565b6113309061131b565b9052565b9190611347905f60208501940190611327565b565b346113795761135936600461029d565b6113756113646112e1565b61136c6101e2565b91829182611334565b0390f35b6101e8565b9060208282031261139757611394915f016106ae565b90565b6101ec565b6113a59061130f565b90565b906113b29061139c565b5f5260205260405f2090565b6113d4906113cf6002915f926113a8565b610b29565b90565b34611407576114036113f26113ed36600461137e565b6113be565b6113fa6101e2565b91829182610ba7565b0390f35b6101e8565b3461143c5761143861142761142236600461137e565b613911565b61142f6101e2565b91829182610ba7565b0390f35b6101e8565b5f80fd5b5f90565b611451611445565b508061146c611466637965db0b60e01b6101f4565b916101f4565b14908115611479575b5090565b6114839150613930565b5f611475565b606090565b6114a261149d6114a792611069565b6112f0565b610987565b90565b60016114b69101610987565b90565b905f92918054906114d36114cc83610a3b565b8094610d9d565b916001811690815f1461152557506001146114ee575b505050565b6114fb9192939450610a65565b5f905b83821061151157505001905f80806114e9565b6001816020925484860152019101906114fe565b92949550505060ff191682528015150201905f80806114e9565b61154f61155691602094936114b9565b8092610dce565b0190565b61156e6115656101e2565b9283928361153f565b03902090565b61157d9161155a565b90565b634e487b7160e01b5f52601160045260245ffd5b61159d90610987565b5f1981146115ab5760010190565b611580565b906115c26115bd8361071e565b61041e565b918252565b606090565b5f5b8281106115da57505050565b6020906115e56115c7565b81840152016115ce565b906116146115fc836115b0565b9260208061160a869361071e565b92019103906115cc565b565b90611620826102ac565b811015611631576020809102010190565b6109cb565b61163f90610b07565b90565b61164a611489565b506116545f61148e565b61165d5f61148e565b5b8061167a61167461166f60036109df565b610987565b91610987565b10156116cb576116a3600461169d6001611696600386906109ec565b5090611574565b01610e93565b6116b6575b6116b1906114aa565b61165e565b906116c36116b191611594565b9190506116a8565b506116d5906115ef565b6116de5f61148e565b906116e85f61148e565b5b806117056116ff6116fa60036109df565b610987565b91610987565b10156117835761172e60046117286001611721600386906109ec565b5090611574565b01610e93565b611741575b61173c906114aa565b6116e9565b9161177b61173c91611774611758600387906109ec565b50856117648492611636565b61176e8383611616565b52611616565b5150611594565b929050611733565b50905090565b5f90565b5f7f436f6e747261637420696e616374697665206f72206e6f7420666f756e640000910152565b6117c1601e602092610b6d565b6117ca8161178d565b0190565b6117e39060208101905f8183039101526117b4565b90565b156117ed57565b6117f56101e2565b62461bcd60e51b81528061180b600482016117ce565b0390fd5b5f61184661184c9261181f611789565b5061183f61183a600461183460018590610e18565b01610e93565b6117e6565b6001610e18565b01610e48565b90565b90611859826109df565b611862816115b0565b9261187060208501916109e3565b5f915b8383106118805750505050565b60016020819261188f85611636565b815201920192019190611873565b6118a69061184f565b90565b6118b1611489565b506118bc600361189d565b90565b6118d8906118d36118ce611176565b613956565b611b1f565b565b6118ee6118e96118f392611069565b6112f0565b6104ef565b90565b6118ff906118da565b90565b5f7f436f6e7472616374206e6f7420666f756e640000000000000000000000000000910152565b6119366012602092610b6d565b61193f81611902565b0190565b6119589060208101905f818303910152611929565b90565b1561196257565b61196a6101e2565b62461bcd60e51b81528061198060048201611943565b0390fd5b5f7f436f6e747261637420616c726561647920616374697665000000000000000000910152565b6119b86017602092610b6d565b6119c181611984565b0190565b6119da9060208101905f8183039101526119ab565b90565b156119e457565b6119ec6101e2565b62461bcd60e51b815280611a02600482016119c5565b0390fd5b90611a1260ff9161106c565b9181191691161790565b611a2590610241565b90565b90565b90611a40611a3b611a4792611a1c565b611a28565b8254611a06565b9055565b611a57611a5c91610e24565b6112b0565b90565b611a699054611a4b565b90565b611a7591610da2565b90565b60200190565b5190565b5f80fd5b60e01b90565b5f910312611a9657565b6101ec565b5f7f434f4e54524143545f5245414354495641544544000000000000000000000000910152565b611acf6014602092610b6d565b611ad881611a9b565b0190565b916040611b0d929493611b06611afb606083018381035f850152611ac2565b966020830190610506565b019061060e565b565b611b176101e2565b3d5f823e3d90fd5b611b59611b385f611b3260018590610e18565b01610e48565b611b52611b4c611b475f6118f6565b6104fa565b916104fa565b141561195b565b611b81611b7c611b766004611b7060018690610e18565b01610e93565b15610241565b6119dd565b611b9a60016004611b9460018590610e18565b01611a2b565b611bac611ba76004611a5f565b61131b565b90635260590a90611bcf611bde3392611bc36101e2565b92839160208301611a6c565b602082018103825203826103f5565b611bf0611bea82611a7e565b91611a78565b2092803b15611c6457611c165f8094611c21611c0a6101e2565b97889687958694611a86565b845260048401611adc565b03925af18015611c5f57611c33575b50565b611c52905f3d8111611c58575b611c4a81836103f5565b810190611a8c565b5f611c30565b503d611c40565b611b0f565b611a82565b611c72906118bf565b565b5f90565b611c81906105ca565b90565b90611c8e90611c78565b5f5260205260405f2090565b6001611cb2611cb892611cab611c74565b505f611c84565b01610eb7565b90565b6005611cd4611cda92611ccc611c74565b506001610e18565b01610eb7565b90565b90611cf891611cf3611cee82611c9a565b613956565b611cfa565b565b90611d049161396a565b50565b90611d1191611cdd565b565b90611d2e9291611d29611d24611176565b613956565b611e84565b565b5190565b5f7f4172726179206c656e67746873206d757374206d617463680000000000000000910152565b611d686018602092610b6d565b611d7181611d34565b0190565b611d8a9060208101905f818303910152611d5b565b90565b15611d9457565b611d9c6101e2565b62461bcd60e51b815280611db260048201611d75565b0390fd5b90565b611dcd611dc8611dd292611db6565b6112f0565b610987565b90565b5f7f496e76616c69642062617463682073697a650000000000000000000000000000910152565b611e096012602092610b6d565b611e1281611dd5565b0190565b611e2b9060208101905f818303910152611dfc565b90565b15611e3557565b611e3d6101e2565b62461bcd60e51b815280611e5360048201611e16565b0390fd5b90611e6182611d30565b811015611e72576020809102010190565b6109cb565b611e8190516104fa565b90565b92919092611e91816102ac565b9283611ead611ea7611ea288611d30565b610987565b91610987565b1480611f6e575b611ebd90611d8d565b83611ed0611eca5f61148e565b91610987565b1180611f4d575b611ee090611e2e565b611ee95f61148e565b5b80611efd611ef787610987565b91610987565b1015611f4557611f4090611f3b611f15858390611616565b51611f29611f248a8590611e57565b611e77565b611f34888590611616565b51916133f1565b6114aa565b611eea565b509350505050565b50611ee084611f65611f5f6014611db9565b91610987565b11159050611ed7565b50611ebd611f7b86611d30565b611f95611f8f611f8a876102ac565b610987565b91610987565b149050611eb4565b90611fa89291611d13565b565b9080611fc5611fbf611fba613a15565b6104fa565b916104fa565b03611fd657611fd391613a22565b50565b5f63334bd91960e11b815280611fee60048201610592565b0390fd5b5f61200a61201092612002611445565b506001610e18565b01610e48565b61202a61202461201f5f6118f6565b6104fa565b916104fa565b141590565b612037611445565b5061204e5f61204860018490610e18565b01610e48565b61206861206261205d5f6118f6565b6104fa565b916104fa565b14159081612075575b5090565b61208d91506120876004916001610e18565b01610e93565b5f612071565b9061209d906104fa565b9052565b52565b906120ae90610987565b9052565b906120bc90610241565b9052565b906120ca906105ca565b9052565b6120d860c061041e565b90565b9061217261216960056120ec6120ce565b946121036120fb5f8301610e48565b5f8801612093565b61211b61211260018301610b07565b602088016120a1565b61213361212a60028301610b07565b604088016120a1565b61214b61214260038301610e6c565b606088016120a4565b61216361215a60048301610e93565b608088016120b2565b01610eb7565b60a084016120c0565b565b61217d906120db565b90565b61218a9051610241565b90565b6121a46121a99161219c611445565b506001610e18565b612174565b906121c76121c16121bb5f8501611e77565b926104fa565b916104fa565b1490816121d3575b5090565b6121e09150608001612180565b5f6121cf565b5f90565b5f90565b5f90565b5f90565b6121fe6120ce565b90602080808080808761220f6121e6565b81520161221a6115c7565b8152016122256115c7565b8152016122306121ea565b81520161223b6121ee565b8152016122466121f2565b81525050565b6122546121f6565b90565b61226e6122739161226661224c565b506001610e18565b612174565b90565b906122809061139c565b5f5260205260405f2090565b6122b2915f6122a76122ad936122a0611445565b5082611c84565b01612276565b610e93565b90565b6122bf90516105ca565b90565b6122d96122de916122d1611445565b506001610e18565b612174565b6122e95f8201611e77565b6123036122fd6122f85f6118f6565b6104fa565b916104fa565b1461233c5761233861233261232d60a06123266123215f8701611e77565b613ac3565b94016122b5565b6105ca565b916105ca565b1490565b505f90565b61235a90612355612350611176565b613956565b61246d565b565b5f7f436f6e747261637420616c726561647920696e61637469766500000000000000910152565b6123906019602092610b6d565b6123998161235c565b0190565b6123b29060208101905f818303910152612383565b90565b156123bc57565b6123c46101e2565b62461bcd60e51b8152806123da6004820161239d565b0390fd5b5f7f434f4e54524143545f4445414354495641544544000000000000000000000000910152565b6124126014602092610b6d565b61241b816123de565b0190565b91604061245092949361244961243e606083018381035f850152612405565b966020830190610506565b019061060e565b565b6124679061245e6101e2565b91829182611a6c565b03902090565b6124a76124865f61248060018590610e18565b01610e48565b6124a061249a6124955f6118f6565b6104fa565b916104fa565b141561195b565b6124c66124c160046124bb60018590610e18565b01610e93565b6123b5565b6124de5f60046124d860018590610e18565b01611a2b565b6124f06124eb6004611a5f565b61131b565b635260590a33612511612520856125056101e2565b92839160208301611a6c565b602082018103825203826103f5565b61253261252c82611a7e565b91611a78565b2092803b15612604576125585f809461256361254c6101e2565b97889687958694611a86565b84526004840161241f565b03925af180156125ff576125d3575b506125885f612582836001610e18565b01610e48565b6125bb6125b57f1468939b839c92a8b52e92f14f99f54c5c6088473cc6f57effe741b2c64990ef93612452565b9161139c565b916125c46101e2565b806125ce81610592565b0390a3565b6125f2905f3d81116125f8575b6125ea81836103f5565b810190611a8c565b5f612572565b503d6125e0565b611b0f565b611a82565b61261290612341565b565b9061262f929161262a612625611176565b613956565b612fb0565b565b5f7f496e76616c696420636f6e747261637420616464726573730000000000000000910152565b6126656018602092610b6d565b61266e81612631565b0190565b6126879060208101905f818303910152612658565b90565b1561269157565b6126996101e2565b62461bcd60e51b8152806126af60048201612672565b0390fd5b5f7f41646472657373206973206e6f74206120636f6e747261637400000000000000910152565b6126e76019602092610b6d565b6126f0816126b3565b0190565b6127099060208101905f8183039101526126da565b90565b1561271357565b61271b6101e2565b62461bcd60e51b815280612731600482016126f4565b0390fd5b90565b90565b61274f61274a61275492612738565b6112f0565b610987565b90565b5f7f496e76616c6964206e616d65206c656e67746800000000000000000000000000910152565b61278b6013602092610b6d565b61279481612757565b0190565b6127ad9060208101905f81830391015261277e565b90565b156127b757565b6127bf6101e2565b62461bcd60e51b8152806127d560048201612798565b0390fd5b5f7f496e76616c69642076657273696f6e206c656e67746800000000000000000000910152565b61280d6016602092610b6d565b612816816127d9565b0190565b61282f9060208101905f818303910152612800565b90565b1561283957565b6128416101e2565b62461bcd60e51b8152806128576004820161281a565b0390fd5b9061286e905f19906020036008026112ac565b8154169055565b1b90565b9190600861289491029161288e5f1984612875565b92612875565b9181191691161790565b6128b26128ad6128b792610987565b6112f0565b610987565b90565b90565b91906128d36128ce6128db9361289e565b6128ba565b908354612879565b9055565b5f90565b6128f5916128ef6128df565b916128bd565b565b5b818110612903575050565b806129105f6001936128e3565b016128f8565b90612926905f19906008026112ac565b191690565b8161293591612916565b906002021790565b905f9161295461294c82610a65565b92835461292b565b905555565b601f602091010490565b919290602082105f146129bc57601f841160011461298c5761298692935061292b565b90555b5b565b50906129b26129b79360016129a96129a385610a65565b92612959565b820191016128f7565b61293d565b612989565b506129f382936129cd600194610a65565b6129ec6129d985612959565b820192601f8616806129fe575b50612959565b01906128f7565b60020217905561298a565b612a0a9088860361285b565b5f6129e6565b929091680100000000000000008211612a70576020115f14612a6157602081105f14612a4557612a3f9161292b565b90555b5b565b60019160ff1916612a5584610a65565b55600202019055612a42565b60019150600202019055612a43565b6103e1565b908154612a8181610a3b565b90818311612aaa575b818310612a98575b50505050565b612aa193612963565b5f808080612a92565b612ab683838387612a10565b612a8a565b5f612ac591612a75565b565b905f03612ad957612ad790612abb565b565b610a14565b90565b5f5260205f2090565b5490565b612af781612aea565b821015612b1157612b09600191612ae1565b910201905f90565b6109cb565b9190601f8111612b26575b505050565b612b32612b5793610a65565b906020612b3e84612959565b83019310612b5f575b612b5090612959565b01906128f7565b5f8080612b21565b9150612b5081929050612b47565b90612b77816102bf565b9067ffffffffffffffff8211612c3757612b9b82612b958554610a3b565b85612b16565b602090601f8311600114612bcf57918091612bbe935f92612bc3575b505061292b565b90555b565b90915001515f80612bb7565b601f19831691612bde85610a65565b925f5b818110612c1f57509160029391856001969410612c05575b50505002019055612bc1565b612c15910151601f841690612916565b90555f8080612bf9565b91936020600181928787015181550195019201612be1565b6103e1565b9190612c4d57612c4b91612b6d565b565b610a14565b9081549168010000000000000000831015612c825782612c7a916001612c8095018155612aee565b90612c3c565b565b6103e1565b5f7f496e76616c696420636f6e747261637420636f64650000000000000000000000910152565b612cbb6015602092610b6d565b612cc481612c87565b0190565b612cdd9060208101905f818303910152612cae565b90565b15612ce757565b612cef6101e2565b62461bcd60e51b815280612d0560048201612cc8565b0390fd5b612d1360c061041e565b90565b90612d2760018060a01b039161106c565b9181191691161790565b90565b90612d49612d44612d509261139c565b612d31565b8254612d16565b9055565b5190565b90612d6291612b6d565b565b612d6e9051610987565b90565b90612d7d5f199161106c565b9181191691161790565b90612d9c612d97612da39261289e565b6128ba565b8254612d71565b9055565b612db090610e24565b90565b90612dc8612dc3612dcf92611c78565b612da7565b8254612d71565b9055565b90612e6260a06005612e6894612df65f8201612df05f8801611e77565b90612d34565b612e0f60018201612e0960208801612d54565b90612d58565b612e2860028201612e2260408801612d54565b90612d58565b612e4160038201612e3b60608801612d64565b90612d87565b612e5a60048201612e5460808801612180565b90611a2b565b0192016122b5565b90612db3565b565b90612e7491612dd3565b565b90612e88612e8383610433565b61041e565b918252565b5f7f434f4e54524143545f5550444154454400000000000000000000000000000000910152565b612ebe6010612e76565b90612ecb60208301612e8d565b565b612ed5612eb4565b90565b5f7f434f4e54524143545f5245474953544552454400000000000000000000000000910152565b612f096013612e76565b90612f1660208301612ed8565b565b612f20612eff565b90565b60601b90565b612f3290612f23565b90565b612f3e90612f29565b90565b612f4d612f52916104fa565b612f35565b9052565b91612f71612f6a612f789594601494610da2565b8092612f41565b0190610da2565b90565b604090612fa7612f9c612fae9597969460608401908482035f860152610b76565b966020830190610506565b019061060e565b565b919091612fd883612fd1612fcb612fc65f6118f6565b6104fa565b916104fa565b141561268a565b612ff5833b612fef612fe95f61148e565b91610987565b1161270c565b61300661300182612735565b611a7e565b6130186130125f61148e565b91610987565b11806133c0575b613028906127b0565b61303961303483612735565b611a7e565b61304b6130455f61148e565b91610987565b118061338f575b61305b90612832565b6130715f61306b60018490610e18565b01610e48565b61308b6130856130805f6118f6565b6104fa565b916104fa565b14805f14613338576130a76130a06003612ade565b8390612c52565b5b6131456130b485613ac3565b6130d9816130d26130cc6130c75f611071565b6105ca565b916105ca565b1415612ce0565b613134869161312b8691613122896131194291613110600195976131076130fe612d09565b9b5f8d01612093565b60208b016120a1565b604089016120a1565b606087016120a4565b608085016120b2565b60a083016120c0565b61314060018590610e18565b612e6a565b61315a82613155600287906113a8565b612d58565b61316c6131676004611a5f565b61131b565b61318661318061317b5f6118f6565b6104fa565b916104fa565b03613246575b5f146131e3579190916131dd6131cb6131c57f9cdf53a2180bc35fba548a5c453c528596a434c394e235e9fbbb1a686d99db2193612452565b9361139c565b936131d46101e2565b91829182610ba7565b0390a35b565b9050906131ef5f6118f6565b61322b61322561321f7f508230d9e989b49c651e1c7be29de727f16d9c1027f7660466911e442c3121fb95612452565b9261139c565b9261139c565b926132346101e2565b8061323e81610592565b0390a46131e1565b6132586132536004611a5f565b61131b565b635260590a825f1461332b5761326c612f18565b5b33928561329c899161328d8a6132816101e2565b94859360208501612f56565b602082018103825203826103f5565b6132ae6132a882611a7e565b91611a78565b2092813b15613326575f6132d5916132e082966132c96101e2565b98899788968795611a86565b855260048501612f7b565b03925af18015613321576132f5575b5061318c565b613314905f3d811161331a575b61330c81836103f5565b810190611a8c565b5f6132ef565b503d613302565b611b0f565b611a82565b613333612ecd565b61326d565b61334e5f61334860018590610e18565b01610e48565b8061336961336361335e5f6118f6565b6104fa565b916104fa565b03613375575b506130a8565b5f6133846133899260026113a8565b612ac7565b5f61336f565b5061305b6133a461339f84612735565b611a7e565b6133b76133b16014611db9565b91610987565b11159050613052565b506130286133d56133d083612735565b611a7e565b6133e86133e2603261273b565b91610987565b1115905061301f565b906133fc9291612614565b565b90613419929161341461340f611176565b613956565b613594565b565b5f7f496e76616c6964206e6577206164647265737300000000000000000000000000910152565b61344f6013602092610b6d565b6134588161341b565b0190565b6134719060208101905f818303910152613442565b90565b1561347b57565b6134836101e2565b62461bcd60e51b8152806134996004820161345c565b0390fd5b5f7f53616d6520616464726573730000000000000000000000000000000000000000910152565b6134d1600c602092610b6d565b6134da8161349d565b0190565b6134f39060208101905f8183039101526134c4565b90565b156134fd57565b6135056101e2565b62461bcd60e51b81528061351b600482016134de565b0390fd5b6014939261353b613534869361354395610da2565b8092612f41565b018092612f41565b0190565b6135546010602092610b6d565b61355d81612e8d565b0190565b91604061359292949361358b613580606083018381035f850152613547565b966020830190610506565b019061060e565b565b6135ce6135ad5f6135a760018590610e18565b01610e48565b6135c76135c16135bc5f6118f6565b6104fa565b916104fa565b141561195b565b6135f3826135ec6135e66135e15f6118f6565b6104fa565b916104fa565b1415613474565b61362561360c5f61360660018590610e18565b01610e48565b61361e613618856104fa565b916104fa565b14156134f6565b61367f61363e5f61363860018590610e18565b01610e48565b936136545f61364f600288906113a8565b612ac7565b61366b845f61366560018790610e18565b01612d34565b600261367960018590610e18565b01612d58565b61369742600361369160018590610e18565b01612d87565b6136b76136a383613ac3565b60056136b160018590610e18565b01612db3565b6136cc816136c7600285906113a8565b612d58565b6136de6136d96004611a5f565b61131b565b635260590a33836137118791613702886136f66101e2565b9485936020850161351f565b602082018103825203826103f5565b61372361371d82611a7e565b91611a78565b2092803b156137ea576137495f809461375461373d6101e2565b97889687958694611a86565b845260048401613561565b03925af180156137e5576137b9575b50916137a161379b6137957f508230d9e989b49c651e1c7be29de727f16d9c1027f7660466911e442c3121fb95612452565b9261139c565b9261139c565b926137aa6101e2565b806137b481610592565b0390a4565b6137d8905f3d81116137de575b6137d081836103f5565b810190611a8c565b5f613763565b503d6137c6565b611b0f565b611a82565b906137fa92916133fe565b565b906138179161381261380d82611c9a565b613956565b613819565b565b9061382391613a22565b50565b90613830916137fc565b565b61384161384791939293610987565b92610987565b820391821161385257565b611580565b61385f6128df565b506138686128df565b506138716128df565b5061387c60036109df565b906138865f61148e565b61388f5f61148e565b5b806138ac6138a66138a160036109df565b610987565b91610987565b10156138fd576138d560046138cf60016138c8600386906109ec565b5090611574565b01610e93565b6138e8575b6138e3906114aa565b613890565b906138f56138e391611594565b9190506138da565b50906139098284613832565b90565b606090565b61392861392d9161392061390c565b5060026113a8565b611636565b90565b613938611445565b5061395261394c6301ffc9a760e01b6101f4565b916101f4565b1490565b61396890613962613a15565b90613afc565b565b613972611445565b5061398761398182849061228c565b15610241565b5f14613a0f576139ae60016139a95f6139a1818690611c84565b018590612276565b611a2b565b906139b7613a15565b906139f46139ee6139e87f2f8788117e7eff1d82e926ec794901d17c78024a50270940304540a733656f0d95611c78565b9261139c565b9261139c565b926139fd6101e2565b80613a0781610592565b0390a4600190565b50505f90565b613a1d611789565b503390565b613a2a611445565b50613a3681839061228c565b5f14613abd57613a5c5f613a575f613a4f818690611c84565b018590612276565b611a2b565b90613a65613a15565b90613aa2613a9c613a967ff6391f5c32d9c69d2a47ea670b442974b53935d1edc7fd64eb21e047a839171b95611c78565b9261139c565b9261139c565b92613aab6101e2565b80613ab581610592565b0390a4600190565b50505f90565b613acb611c74565b50613ad4611c74565b503f90565b916020613afa929493613af360408201965f830190610506565b019061060e565b565b90613b11613b0b83839061228c565b15610241565b613b19575050565b613b335f92839263e2517d3f60e01b845260048401613ad9565b0390fdfea264697066735822122086b5af01d593309f8f053eca21c6d7e67712fa5e67e5231ecbebc3deecaeac4064736f6c634300081e0033","linkReferences":{}},"methodIdentifiers":{"DEFAULT_ADMIN_ROLE()":"a217fddf","REGISTRY_ADMIN_ROLE()":"bf584c4b","addressToName(address)":"e2a04b62","batchRegisterContracts(string[],address[],string[])":"33ec58a5","contractNames(uint256)":"3ca6bb92","contracts(string)":"8c5b8385","deactivateContract(string)":"a13da61d","getActiveContracts()":"022edd35","getAllContracts()":"18d3ce96","getContractAddress(string)":"04433bbc","getContractCodeHash(string)":"25754ea4","getContractInfo(string)":"819f34b3","getContractName(address)":"f299ad44","getContractStats()":"dfe6b5d6","getRoleAdmin(bytes32)":"248a9ca3","grantRole(bytes32,address)":"2f2ff15d","hasRole(bytes32,address)":"91d14854","isContractActive(string)":"5cd74aa1","isContractRegistered(string)":"3896f226","reactivateContract(string)":"2202ce09","registerContract(string,address,string)":"a738e975","renounceRole(bytes32,address)":"36568abe","revokeRole(bytes32,address)":"d547741f","supportsInterface(bytes4)":"01ffc9a7","updateContract(string,address,string)":"d09ea4d7","verificationLogger()":"e1300c88","verifyCodeIntegrity(string)":"9f0bdb0d","verifyContract(string,address)":"70378650"},"id":72}