{"abi":[{"type":"constructor","inputs":[{"name":"_verificationLogger","type":"address","internalType":"address"},{"name":"_certificateManager","type":"address","internalType":"address"},{"name":"_layerZeroEndpoint","type":"address","internalType":"address"}],"stateMutability":"nonpayable"},{"type":"receive","stateMutability":"payable"},{"type":"function","name":"BRIDGE_ADMIN_ROLE","inputs":[],"outputs":[{"name":"","type":"bytes32","internalType":"bytes32"}],"stateMutability":"view"},{"type":"function","name":"DEFAULT_ADMIN_ROLE","inputs":[],"outputs":[{"name":"","type":"bytes32","internalType":"bytes32"}],"stateMutability":"view"},{"type":"function","name":"RELAYER_ROLE","inputs":[],"outputs":[{"name":"","type":"bytes32","internalType":"bytes32"}],"stateMutability":"view"},{"type":"function","name":"_decodeAndExecuteMessage","inputs":[{"name":"srcChainId","type":"uint16","internalType":"uint16"},{"name":"payload","type":"bytes","internalType":"bytes"}],"outputs":[],"stateMutability":"nonpayable"},{"type":"function","name":"activeChainIds","inputs":[{"name":"","type":"uint256","internalType":"uint256"}],"outputs":[{"name":"","type":"uint16","internalType":"uint16"}],"stateMutability":"view"},{"type":"function","name":"bridgeFee","inputs":[],"outputs":[{"name":"","type":"uint256","internalType":"uint256"}],"stateMutability":"view"},{"type":"function","name":"certPointers","inputs":[{"name":"","type":"bytes32","internalType":"bytes32"}],"outputs":[{"name":"originChainId","type":"uint16","internalType":"uint16"},{"name":"originCertId","type":"uint256","internalType":"uint256"},{"name":"holder","type":"address","internalType":"address"},{"name":"certHash","type":"bytes32","internalType":"bytes32"},{"name":"syncedAt","type":"uint256","internalType":"uint256"},{"name":"isValid","type":"bool","internalType":"bool"}],"stateMutability":"view"},{"type":"function","name":"certificateManager","inputs":[],"outputs":[{"name":"","type":"address","internalType":"contract ICertificateManager"}],"stateMutability":"view"},{"type":"function","name":"chainNonces","inputs":[{"name":"","type":"uint16","internalType":"uint16"}],"outputs":[{"name":"","type":"uint64","internalType":"uint64"}],"stateMutability":"view"},{"type":"function","name":"configureSupportedChain","inputs":[{"name":"chainId","type":"uint16","internalType":"uint16"},{"name":"chainName","type":"string","internalType":"string"},{"name":"endpoint","type":"address","internalType":"address"},{"name":"trustedRemote","type":"address","internalType":"address"},{"name":"minConfirmations","type":"uint256","internalType":"uint256"},{"name":"maxGasLimit","type":"uint256","internalType":"uint256"},{"name":"baseFee","type":"uint256","internalType":"uint256"}],"outputs":[],"stateMutability":"nonpayable"},{"type":"function","name":"crossChainMessages","inputs":[{"name":"","type":"uint256","internalType":"uint256"}],"outputs":[{"name":"id","type":"uint256","internalType":"uint256"},{"name":"srcChainId","type":"uint16","internalType":"uint16"},{"name":"dstChainId","type":"uint16","internalType":"uint16"},{"name":"msgType","type":"uint8","internalType":"enum CrossChainManager.MessageType"},{"name":"sender","type":"address","internalType":"address"},{"name":"recipient","type":"address","internalType":"address"},{"name":"payload","type":"bytes","internalType":"bytes"},{"name":"payloadHash","type":"bytes32","internalType":"bytes32"},{"name":"timestamp","type":"uint256","internalType":"uint256"},{"name":"nonce","type":"uint64","internalType":"uint64"},{"name":"isProcessed","type":"bool","internalType":"bool"},{"name":"gasLimit","type":"uint256","internalType":"uint256"},{"name":"fee","type":"uint256","internalType":"uint256"}],"stateMutability":"view"},{"type":"function","name":"emergencyPauseEnabled","inputs":[],"outputs":[{"name":"","type":"bool","internalType":"bool"}],"stateMutability":"view"},{"type":"function","name":"estimateFee","inputs":[{"name":"dstChainId","type":"uint16","internalType":"uint16"},{"name":"payload","type":"bytes","internalType":"bytes"}],"outputs":[{"name":"","type":"uint256","internalType":"uint256"}],"stateMutability":"view"},{"type":"function","name":"getBridgeStats","inputs":[],"outputs":[{"name":"totalMessages","type":"uint256","internalType":"uint256"},{"name":"activeChains","type":"uint256","internalType":"uint256"},{"name":"pausedBridges","type":"uint256","internalType":"uint256"},{"name":"totalVolume","type":"uint256","internalType":"uint256"}],"stateMutability":"view"},{"type":"function","name":"getCertificatePointer","inputs":[{"name":"certHash","type":"bytes32","internalType":"bytes32"}],"outputs":[{"name":"","type":"tuple","internalType":"struct CrossChainManager.CertificatePointer","components":[{"name":"originChainId","type":"uint16","internalType":"uint16"},{"name":"originCertId","type":"uint256","internalType":"uint256"},{"name":"holder","type":"address","internalType":"address"},{"name":"certHash","type":"bytes32","internalType":"bytes32"},{"name":"syncedAt","type":"uint256","internalType":"uint256"},{"name":"isValid","type":"bool","internalType":"bool"}]}],"stateMutability":"view"},{"type":"function","name":"getChainConfig","inputs":[{"name":"chainId","type":"uint16","internalType":"uint16"}],"outputs":[{"name":"","type":"tuple","internalType":"struct CrossChainManager.ChainConfig","components":[{"name":"chainId","type":"uint16","internalType":"uint16"},{"name":"chainName","type":"string","internalType":"string"},{"name":"endpoint","type":"address","internalType":"address"},{"name":"trustedRemote","type":"address","internalType":"address"},{"name":"status","type":"uint8","internalType":"enum CrossChainManager.BridgeStatus"},{"name":"minConfirmations","type":"uint256","internalType":"uint256"},{"name":"maxGasLimit","type":"uint256","internalType":"uint256"},{"name":"baseFee","type":"uint256","internalType":"uint256"},{"name":"isActive","type":"bool","internalType":"bool"},{"name":"lastSyncTime","type":"uint256","internalType":"uint256"}]}],"stateMutability":"view"},{"type":"function","name":"getRoleAdmin","inputs":[{"name":"role","type":"bytes32","internalType":"bytes32"}],"outputs":[{"name":"","type":"bytes32","internalType":"bytes32"}],"stateMutability":"view"},{"type":"function","name":"getSupportedChains","inputs":[],"outputs":[{"name":"","type":"uint16[]","internalType":"uint16[]"}],"stateMutability":"view"},{"type":"function","name":"getUserCertificatesOnChain","inputs":[{"name":"user","type":"address","internalType":"address"},{"name":"chainId","type":"uint16","internalType":"uint16"}],"outputs":[{"name":"","type":"uint256[]","internalType":"uint256[]"}],"stateMutability":"view"},{"type":"function","name":"grantRole","inputs":[{"name":"role","type":"bytes32","internalType":"bytes32"},{"name":"account","type":"address","internalType":"address"}],"outputs":[],"stateMutability":"nonpayable"},{"type":"function","name":"hasRole","inputs":[{"name":"role","type":"bytes32","internalType":"bytes32"},{"name":"account","type":"address","internalType":"address"}],"outputs":[{"name":"","type":"bool","internalType":"bool"}],"stateMutability":"view"},{"type":"function","name":"isBridgeActive","inputs":[{"name":"chainId","type":"uint16","internalType":"uint16"}],"outputs":[{"name":"","type":"bool","internalType":"bool"}],"stateMutability":"view"},{"type":"function","name":"layerZeroEndpoint","inputs":[],"outputs":[{"name":"","type":"address","internalType":"contract ILayerZeroEndpoint"}],"stateMutability":"view"},{"type":"function","name":"maxRetryAttempts","inputs":[],"outputs":[{"name":"","type":"uint256","internalType":"uint256"}],"stateMutability":"view"},{"type":"function","name":"messageCounter","inputs":[],"outputs":[{"name":"","type":"uint256","internalType":"uint256"}],"stateMutability":"view"},{"type":"function","name":"pauseAllBridges","inputs":[{"name":"reason","type":"string","internalType":"string"}],"outputs":[],"stateMutability":"nonpayable"},{"type":"function","name":"processedMessages","inputs":[{"name":"","type":"bytes32","internalType":"bytes32"}],"outputs":[{"name":"","type":"bool","internalType":"bool"}],"stateMutability":"view"},{"type":"function","name":"receiveMessage","inputs":[{"name":"srcChainId","type":"uint16","internalType":"uint16"},{"name":"srcAddress","type":"bytes","internalType":"bytes"},{"name":"nonce","type":"uint64","internalType":"uint64"},{"name":"payload","type":"bytes","internalType":"bytes"}],"outputs":[],"stateMutability":"nonpayable"},{"type":"function","name":"renounceRole","inputs":[{"name":"role","type":"bytes32","internalType":"bytes32"},{"name":"callerConfirmation","type":"address","internalType":"address"}],"outputs":[],"stateMutability":"nonpayable"},{"type":"function","name":"retryMessage","inputs":[{"name":"messageId","type":"uint256","internalType":"uint256"}],"outputs":[],"stateMutability":"payable"},{"type":"function","name":"revokeRole","inputs":[{"name":"role","type":"bytes32","internalType":"bytes32"},{"name":"account","type":"address","internalType":"address"}],"outputs":[],"stateMutability":"nonpayable"},{"type":"function","name":"sendCrossChainMessage","inputs":[{"name":"dstChainId","type":"uint16","internalType":"uint16"},{"name":"msgType","type":"uint8","internalType":"enum CrossChainManager.MessageType"},{"name":"recipient","type":"address","internalType":"address"},{"name":"payload","type":"bytes","internalType":"bytes"}],"outputs":[{"name":"","type":"uint256","internalType":"uint256"}],"stateMutability":"payable"},{"type":"function","name":"setBridgeFee","inputs":[{"name":"newFee","type":"uint256","internalType":"uint256"}],"outputs":[],"stateMutability":"nonpayable"},{"type":"function","name":"supportedChains","inputs":[{"name":"","type":"uint16","internalType":"uint16"}],"outputs":[{"name":"chainId","type":"uint16","internalType":"uint16"},{"name":"chainName","type":"string","internalType":"string"},{"name":"endpoint","type":"address","internalType":"address"},{"name":"trustedRemote","type":"address","internalType":"address"},{"name":"status","type":"uint8","internalType":"enum CrossChainManager.BridgeStatus"},{"name":"minConfirmations","type":"uint256","internalType":"uint256"},{"name":"maxGasLimit","type":"uint256","internalType":"uint256"},{"name":"baseFee","type":"uint256","internalType":"uint256"},{"name":"isActive","type":"bool","internalType":"bool"},{"name":"lastSyncTime","type":"uint256","internalType":"uint256"}],"stateMutability":"view"},{"type":"function","name":"supportsInterface","inputs":[{"name":"interfaceId","type":"bytes4","internalType":"bytes4"}],"outputs":[{"name":"","type":"bool","internalType":"bool"}],"stateMutability":"view"},{"type":"function","name":"syncCertificateToChain","inputs":[{"name":"certificateId","type":"uint256","internalType":"uint256"},{"name":"dstChainId","type":"uint16","internalType":"uint16"}],"outputs":[],"stateMutability":"payable"},{"type":"function","name":"syncUserDataToChain","inputs":[{"name":"user","type":"address","internalType":"address"},{"name":"dstChainId","type":"uint16","internalType":"uint16"},{"name":"dataType","type":"string","internalType":"string"}],"outputs":[],"stateMutability":"payable"},{"type":"function","name":"unpauseAllBridges","inputs":[],"outputs":[],"stateMutability":"nonpayable"},{"type":"function","name":"updateBridgeStatus","inputs":[{"name":"chainId","type":"uint16","internalType":"uint16"},{"name":"newStatus","type":"uint8","internalType":"enum CrossChainManager.BridgeStatus"}],"outputs":[],"stateMutability":"nonpayable"},{"type":"function","name":"userCertPointers","inputs":[{"name":"","type":"address","internalType":"address"},{"name":"","type":"uint16","internalType":"uint16"},{"name":"","type":"uint256","internalType":"uint256"}],"outputs":[{"name":"","type":"uint256","internalType":"uint256"}],"stateMutability":"view"},{"type":"function","name":"verificationLogger","inputs":[],"outputs":[{"name":"","type":"address","internalType":"contract IVerificationLogger"}],"stateMutability":"view"},{"type":"function","name":"withdrawFees","inputs":[{"name":"recipient","type":"address","internalType":"address payable"}],"outputs":[],"stateMutability":"nonpayable"},{"type":"event","name":"BridgeStatusUpdated","inputs":[{"name":"chainId","type":"uint16","indexed":true,"internalType":"uint16"},{"name":"oldStatus","type":"uint8","indexed":false,"internalType":"enum CrossChainManager.BridgeStatus"},{"name":"newStatus","type":"uint8","indexed":false,"internalType":"enum CrossChainManager.BridgeStatus"}],"anonymous":false},{"type":"event","name":"CertificateSynced","inputs":[{"name":"holder","type":"address","indexed":true,"internalType":"address"},{"name":"certId","type":"uint256","indexed":true,"internalType":"uint256"},{"name":"originChainId","type":"uint16","indexed":true,"internalType":"uint16"}],"anonymous":false},{"type":"event","name":"ChainConfigured","inputs":[{"name":"chainId","type":"uint16","indexed":true,"internalType":"uint16"},{"name":"chainName","type":"string","indexed":false,"internalType":"string"},{"name":"status","type":"uint8","indexed":false,"internalType":"enum CrossChainManager.BridgeStatus"}],"anonymous":false},{"type":"event","name":"CrossChainError","inputs":[{"name":"messageId","type":"uint256","indexed":true,"internalType":"uint256"},{"name":"error","type":"string","indexed":false,"internalType":"string"}],"anonymous":false},{"type":"event","name":"CrossChainMessageReceived","inputs":[{"name":"messageId","type":"uint256","indexed":true,"internalType":"uint256"},{"name":"srcChainId","type":"uint16","indexed":true,"internalType":"uint16"},{"name":"msgType","type":"uint8","indexed":false,"internalType":"enum CrossChainManager.MessageType"},{"name":"success","type":"bool","indexed":false,"internalType":"bool"}],"anonymous":false},{"type":"event","name":"CrossChainMessageSent","inputs":[{"name":"messageId","type":"uint256","indexed":true,"internalType":"uint256"},{"name":"dstChainId","type":"uint16","indexed":true,"internalType":"uint16"},{"name":"msgType","type":"uint8","indexed":false,"internalType":"enum CrossChainManager.MessageType"},{"name":"payloadHash","type":"bytes32","indexed":false,"internalType":"bytes32"}],"anonymous":false},{"type":"event","name":"RoleAdminChanged","inputs":[{"name":"role","type":"bytes32","indexed":true,"internalType":"bytes32"},{"name":"previousAdminRole","type":"bytes32","indexed":true,"internalType":"bytes32"},{"name":"newAdminRole","type":"bytes32","indexed":true,"internalType":"bytes32"}],"anonymous":false},{"type":"event","name":"RoleGranted","inputs":[{"name":"role","type":"bytes32","indexed":true,"internalType":"bytes32"},{"name":"account","type":"address","indexed":true,"internalType":"address"},{"name":"sender","type":"address","indexed":true,"internalType":"address"}],"anonymous":false},{"type":"event","name":"RoleRevoked","inputs":[{"name":"role","type":"bytes32","indexed":true,"internalType":"bytes32"},{"name":"account","type":"address","indexed":true,"internalType":"address"},{"name":"sender","type":"address","indexed":true,"internalType":"address"}],"anonymous":false},{"type":"event","name":"TrustScoreSynced","inputs":[{"name":"user","type":"address","indexed":true,"internalType":"address"},{"name":"trustScore","type":"uint256","indexed":false,"internalType":"uint256"},{"name":"fromChainId","type":"uint16","indexed":true,"internalType":"uint16"}],"anonymous":false},{"type":"error","name":"AccessControlBadConfirmation","inputs":[]},{"type":"error","name":"AccessControlUnauthorizedAccount","inputs":[{"name":"account","type":"address","internalType":"address"},{"name":"neededRole","type":"bytes32","internalType":"bytes32"}]},{"type":"error","name":"ReentrancyGuardReentrantCall","inputs":[]}],"bytecode":{"object":"0x6080604052346100305761001a610014610111565b91610555565b610022610035565b6175b861140e82396175b890f35b61003b565b60405190565b5f80fd5b601f801991011690565b634e487b7160e01b5f52604160045260245ffd5b906100679061003f565b810190811060018060401b0382111761007f57604052565b610049565b90610097610090610035565b928361005d565b565b5f80fd5b60018060a01b031690565b6100b19061009d565b90565b6100bd816100a8565b036100c457565b5f80fd5b905051906100d5826100b4565b565b909160608284031261010c576101096100f2845f85016100c8565b9361010081602086016100c8565b936040016100c8565b90565b610099565b61012f6189c68038038061012481610084565b9283398101906100d7565b909192565b90565b90565b61014e61014961015392610134565b610137565b61009d565b90565b61015f9061013a565b90565b60209181520190565b5f7f496e76616c696420766572696669636174696f6e206c6f676765720000000000910152565b61019f601b602092610162565b6101a88161016b565b0190565b6101c19060208101905f818303910152610192565b90565b156101cb57565b6101d3610035565b62461bcd60e51b8152806101e9600482016101ac565b0390fd5b5f7f496e76616c6964206365727469666963617465206d616e616765720000000000910152565b610221601b602092610162565b61022a816101ed565b0190565b6102439060208101905f818303910152610214565b90565b1561024d57565b610255610035565b62461bcd60e51b81528061026b6004820161022e565b0390fd5b5f7f496e76616c6964204c617965725a65726f20656e64706f696e74000000000000910152565b6102a3601a602092610162565b6102ac8161026f565b0190565b6102c59060208101905f818303910152610296565b90565b156102cf57565b6102d7610035565b62461bcd60e51b8152806102ed600482016102b0565b0390fd5b90565b5f1b90565b61030d61030861031292610134565b6102f4565b6102f1565b90565b61031e5f6102f9565b90565b7f751b795d24b92e3d92d1d0d8f2885f4e9c9c269da350af36ae6b49069babf4bf90565b7fe2b7fb3b832174769106daebcfd6d1970523240dda11281102db9363b83b0dc490565b61037d6103786103829261009d565b610137565b61009d565b90565b61038e90610369565b90565b61039a90610385565b90565b906103ae60018060a01b03916102f4565b9181191691161790565b6103c190610385565b90565b90565b906103dc6103d76103e3926103b8565b6103c4565b825461039d565b9055565b6103f090610369565b90565b6103fc906103e7565b90565b610408906103e7565b90565b90565b9061042361041e61042a926103ff565b61040b565b825461039d565b9055565b61043790610369565b90565b6104439061042e565b90565b61044f9061042e565b90565b90565b9061046a61046561047192610446565b610452565b825461039d565b9055565b90565b90565b61048f61048a61049492610475565b610137565b610478565b90565b906104a35f19916102f4565b9181191691161790565b6104c16104bc6104c692610478565b610137565b610478565b90565b90565b906104e16104dc6104e8926104ad565b6104c9565b8254610497565b9055565b90565b6105036104fe610508926104ec565b610137565b610478565b90565b9061051760ff916102f4565b9181191691161790565b151590565b61052f90610521565b90565b90565b9061054a61054561055192610526565b610532565b825461050b565b9055565b9161063261062b6106379361062661061f61063e976105726106ad565b6105978161059061058a6105855f610156565b6100a8565b916100a8565b14156101c4565b6105bc846105b56105af6105aa5f610156565b6100a8565b916100a8565b1415610246565b6105e1876105da6105d46105cf5f610156565b6100a8565b916100a8565b14156102c8565b6105f36105ec610315565b339061071a565b506106066105ff610321565b339061071a565b50610619610612610345565b339061071a565b50610391565b600a6103c7565b6103f3565b600b61040e565b61043a565b600c610455565b61065861065166038d7ea4c6800061047b565b600d6104cc565b61066c61066560036104ef565b600e6104cc565b6106775f600f610535565b61067f611019565b565b90565b61069861069361069d92610681565b610137565b610478565b90565b6106aa6001610684565b90565b6106bf6106b86106a0565b60016104cc565b565b5f90565b6106ce906102f1565b90565b906106db906106c5565b5f5260205260405f2090565b6106f090610369565b90565b6106fc906106e7565b90565b90610709906106f3565b5f5260205260405f2090565b5f0190565b6107226106c1565b506107376107318284906113d3565b15610521565b5f146107bf5761075e60016107595f6107518186906106d1565b0185906106ff565b610535565b90610767611400565b906107a461079e6107987f2f8788117e7eff1d82e926ec794901d17c78024a50270940304540a733656f0d956106c5565b926106f3565b926106f3565b926107ad610035565b806107b781610715565b0390a4600190565b50505f90565b6107d0610140610084565b90565b90565b61ffff1690565b6107f16107ec6107f6926107d3565b610137565b6107d6565b90565b90610803906107d6565b9052565b60018060401b0381116108235761081f60209161003f565b0190565b610049565b9061083a61083583610807565b610084565b918252565b5f7f506f6c79676f6e00000000000000000000000000000000000000000000000000910152565b6108706007610828565b9061087d6020830161083f565b565b610887610866565b90565b52565b90610897906100a8565b9052565b634e487b7160e01b5f52602160045260245ffd5b600311156108b957565b61089b565b906108c8826108af565b565b906108d4906108be565b9052565b90565b6108ef6108ea6108f4926108d8565b610137565b610478565b90565b9061090190610478565b9052565b90565b61091c61091761092192610905565b610137565b610478565b90565b90565b61093b61093661094092610924565b610137565b610478565b90565b9061094d90610521565b9052565b9061095b906107dd565b5f5260205260405f2090565b61097190516107d6565b90565b9061098161ffff916102f4565b9181191691161790565b61099f61099a6109a4926107d6565b610137565b6107d6565b90565b90565b906109bf6109ba6109c69261098b565b6109a7565b8254610974565b9055565b5190565b5190565b634e487b7160e01b5f52602260045260245ffd5b9060016002830492168015610a06575b6020831014610a0157565b6109d2565b91607f16916109f6565b5f5260205f2090565b601f602091010490565b1b90565b91906008610a42910291610a3c5f1984610a23565b92610a23565b9181191691161790565b9190610a62610a5d610a6a936104ad565b6104c9565b908354610a27565b9055565b5f90565b610a8491610a7e610a6e565b91610a4c565b565b5b818110610a92575050565b80610a9f5f600193610a72565b01610a87565b9190601f8111610ab5575b505050565b610ac1610ae693610a10565b906020610acd84610a19565b83019310610aee575b610adf90610a19565b0190610a86565b5f8080610ab0565b9150610adf81929050610ad6565b1c90565b90610b10905f1990600802610afc565b191690565b81610b1f91610b00565b906002021790565b90610b31816109ce565b9060018060401b038211610bef57610b5382610b4d85546109e6565b85610aa5565b602090601f8311600114610b8757918091610b76935f92610b7b575b5050610b15565b90555b565b90915001515f80610b6f565b601f19831691610b9685610a10565b925f5b818110610bd757509160029391856001969410610bbd575b50505002019055610b79565b610bcd910151601f841690610b00565b90555f8080610bb1565b91936020600181928787015181550195019201610b99565b610049565b90610bfe91610b27565b565b610c0a90516100a8565b90565b90565b90610c25610c20610c2c926106f3565b610c0d565b825461039d565b9055565b610c3a90516108be565b90565b60a01b90565b90610c5260ff60a01b91610c3d565b9181191691161790565b610c65906108be565b90565b90565b90610c80610c7b610c8792610c5c565b610c68565b8254610c43565b9055565b610c959051610478565b90565b610ca29051610521565b90565b90610d9a6101206008610da094610cc95f8201610cc35f8801610967565b906109aa565b610ce260018201610cdc602088016109ca565b90610bf4565b610cfb60028201610cf560408801610c00565b90610c10565b610d1460038201610d0e60608801610c00565b90610c10565b610d2d60038201610d2760808801610c30565b90610c6b565b610d4660048201610d4060a08801610c8b565b906104cc565b610d5f60058201610d5960c08801610c8b565b906104cc565b610d7860068201610d7260e08801610c8b565b906104cc565b610d9260078201610d8c6101008801610c98565b90610535565b019201610c8b565b906104cc565b565b90610dac91610ca5565b565b90565b5f5260205f2090565b634e487b7160e01b5f52603260045260245ffd5b5490565b919091610dde81610dce565b831015610dfc576010610df2600292610db1565b8185040193060290565b610dba565b91906008610e1d910291610e1761ffff84610a23565b92610a23565b9181191691161790565b9190610e3d610e38610e459361098b565b6109a7565b908354610e01565b9055565b9081549168010000000000000000831015610e795782610e71916001610e7795018155610dd2565b90610e27565b565b610049565b90565b610e95610e90610e9a92610e7e565b610137565b6107d6565b90565b5f7f457468657265756d000000000000000000000000000000000000000000000000910152565b610ece6008610828565b90610edb60208301610e9d565b565b610ee5610ec4565b90565b90565b610eff610efa610f0492610ee8565b610137565b610478565b90565b90565b610f1e610f19610f2392610f07565b610137565b610478565b90565b90565b610f3d610f38610f4292610f26565b610137565b610478565b90565b90610f4f90610e81565b5f5260205260405f2090565b90565b610f72610f6d610f7792610f5b565b610137565b6107d6565b90565b5f7f4253430000000000000000000000000000000000000000000000000000000000910152565b610fab6003610828565b90610fb860208301610f7a565b565b610fc2610fa1565b90565b90565b610fdc610fd7610fe192610fc5565b610137565b610478565b90565b90565b610ffb610ff661100092610fe4565b610137565b610478565b90565b9061100d90610f5e565b5f5260205260405f2090565b606d733c2269811836af69497e5f486a85d7316753cf625f61103a90610156565b5f601462030d4090655af3107a40009260019442966110576107c5565b98611061906107dd565b5f8a019061106e916107f9565b61107661087f565b60208a01906110849161088a565b60408901906110929161088d565b60608801906110a09161088d565b60808701906110ae916108ca565b6110b7906108db565b60a08601906110c5916108f7565b6110ce90610908565b60c08501906110dc916108f7565b6110e590610927565b60e08401906110f3916108f7565b61010083019061110291610943565b610120820190611111916108f7565b6003606d61111e91610951565b9061112891610da2565b600961113390610dae565b606d61113e906107dd565b61114791610e49565b60657366a71dcef29a0ffbdbe3c6a460a3b5bc225cd6755f61116890610156565b5f600c6207a12090662386f26fc100009260019442966111866107c5565b9861119090610e81565b5f8a019061119d916107f9565b6111a5610edd565b60208a01906111b39161088a565b60408901906111c19161088d565b60608801906111cf9161088d565b60808701906111dd916108ca565b6111e690610eeb565b60a08601906111f4916108f7565b6111fd90610f0a565b60c085019061120b916108f7565b61121490610f29565b60e0840190611222916108f7565b61010083019061123191610943565b610120820190611240916108f7565b6003606561124d91610f45565b9061125791610da2565b600961126290610dae565b606561126d90610e81565b61127691610e49565b6066733c2269811836af69497e5f486a85d7316753cf625f61129790610156565b5f600f620493e09066038d7ea4c680009260019442966112b56107c5565b986112bf90610f5e565b5f8a01906112cc916107f9565b6112d4610fba565b60208a01906112e29161088a565b60408901906112f09161088d565b60608801906112fe9161088d565b608087019061130c916108ca565b61131590610fc8565b60a0860190611323916108f7565b61132c90610fe7565b60c085019061133a916108f7565b6113439061047b565b60e0840190611351916108f7565b61010083019061136091610943565b61012082019061136f916108f7565b6003606661137c91611003565b9061138691610da2565b600961139190610dae565b606661139c90610f5e565b6113a591610e49565b565b5f1c90565b60ff1690565b6113be6113c3916113a7565b6113ac565b90565b6113d090546113b2565b90565b6113f9915f6113ee6113f4936113e76106c1565b50826106d1565b016106ff565b6113c6565b90565b5f90565b6114086113fc565b50339056fe60806040526004361015610015575b3661230b57005b61001f5f356102be565b806301ffc9a7146102b957806307968db1146102b457806308d0473b146102af5780630da9d72b146102aa57806310d58783146102a5578063118c38c7146102a0578063164e68de1461029b5780632165cbb714610296578063248a9ca3146102915780632a1a033e1461028c5780632b7ec923146102875780632f2ff15d14610282578063328a58f41461027d578063337f4de614610278578063361743571461027357806336568abe1461026e578063529c75881461026957806355952ba7146102645780635b9c3a001461025f5780635efa67aa1461025a5780636edb3d3c146102555780637535099e1461025057806375c3c4c01461024b57806382b12dd71461024657806388ba16ab1461024157806390a823661461023c57806391d1485414610237578063926d7d7f14610232578063998cdf831461022d578063a217fddf14610228578063bbd8acbe14610223578063bd7726231461021e578063c17786a014610219578063c1c1614014610214578063c4bffe2b1461020f578063c79e57881461020a578063c97d172e14610205578063c9abe77c14610200578063d547741f146101fb578063da928d69146101f6578063e1300c88146101f15763fcfa9d3b0361000e576122d8565b6122a3565b612201565b6121cd565b612191565b612091565b611fb9565b611f1a565b611e53565b611db0565b611c6f565b611be9565b611ba5565b611b37565b611b02565b611a9d565b611a68565b611a33565b6119c3565b61198b565b611958565b6118ec565b61181c565b611727565b6116b8565b611656565b611613565b6115de565b611564565b611119565b610fed565b610f8a565b610e21565b610d2a565b610cb0565b610c3f565b610bbd565b610b27565b6106e6565b610662565b610436565b61034a565b60e01c90565b60405190565b5f80fd5b5f80fd5b5f80fd5b63ffffffff60e01b1690565b6102eb816102d6565b036102f257565b5f80fd5b90503590610303826102e2565b565b9060208282031261031e5761031b915f016102f6565b90565b6102ce565b151590565b61033190610323565b9052565b9190610348905f60208501940190610328565b565b3461037a57610376610365610360366004610305565b612313565b61036d6102c4565b91829182610335565b0390f35b6102ca565b5f91031261038957565b6102ce565b1c90565b60018060a01b031690565b6103ad9060086103b2930261038e565b610392565b90565b906103c0915461039d565b90565b6103cf600c5f906103b5565b90565b60018060a01b031690565b90565b6103f46103ef6103f9926103d2565b6103dd565b6103d2565b90565b610405906103e0565b90565b610411906103fc565b90565b61041d90610408565b9052565b9190610434905f60208501940190610414565b565b346104665761044636600461037f565b6104626104516103c3565b6104596102c4565b91829182610421565b0390f35b6102ca565b61ffff1690565b61047b8161046b565b0361048257565b5f80fd5b9050359061049382610472565b565b5f80fd5b5f80fd5b601f801991011690565b634e487b7160e01b5f52604160045260245ffd5b906104c59061049d565b810190811067ffffffffffffffff8211176104df57604052565b6104a7565b906104f76104f06102c4565b92836104bb565b565b67ffffffffffffffff81116105175761051360209161049d565b0190565b6104a7565b90825f939282370152565b9092919261053c610537826104f9565b6104e4565b93818552602085019082840111610558576105569261051c565b565b610499565b9080601f8301121561057b5781602061057893359101610527565b90565b610495565b610589906103d2565b90565b61059581610580565b0361059c57565b5f80fd5b905035906105ad8261058c565b565b90565b6105bb816105af565b036105c257565b5f80fd5b905035906105d3826105b2565b565b60e081830312610658576105eb825f8301610486565b92602082013567ffffffffffffffff8111610653578361060c91840161055d565b9261061a81604085016105a0565b9261062882606083016105a0565b9261065061063984608085016105c6565b936106478160a086016105c6565b9360c0016105c6565b90565b6102d2565b6102ce565b5f0190565b34610697576106816106753660046105d5565b9594909493919361301a565b6106896102c4565b806106938161065d565b0390f35b6102ca565b600311156106a657565b5f80fd5b905035906106b78261069c565b565b91906040838203126106e157806106d56106de925f8601610486565b936020016106aa565b90565b6102ce565b34610715576106ff6106f93660046106b9565b90613321565b6107076102c4565b806107118161065d565b0390f35b6102ca565b9060208282031261073357610730915f01610486565b90565b6102ce565b61074c6107476107519261046b565b6103dd565b61046b565b90565b9061075e90610738565b5f5260205260405f2090565b5f1c90565b61ffff1690565b6107826107879161076a565b61076f565b90565b6107949054610776565b90565b634e487b7160e01b5f52602260045260245ffd5b90600160028304921680156107cb575b60208310146107c657565b610797565b91607f16916107bb565b60209181520190565b5f5260205f2090565b905f92918054906108016107fa836107ab565b80946107d5565b916001811690815f14610858575060011461081c575b505050565b61082991929394506107de565b915f925b81841061084057505001905f8080610817565b6001816020929593955484860152019101929061082d565b92949550505060ff19168252151560200201905f8080610817565b9061087d916107e7565b90565b906108a0610899926108906102c4565b93848092610873565b03836104bb565b565b60018060a01b031690565b6108b96108be9161076a565b6108a2565b90565b6108cb90546108ad565b90565b60a01c90565b60ff1690565b6108e66108eb916108ce565b6108d4565b90565b6108f890546108da565b90565b90565b61090a61090f9161076a565b6108fb565b90565b61091c90546108fe565b90565b60ff1690565b6109316109369161076a565b61091f565b90565b6109439054610925565b90565b610951906003610754565b9061095d5f830161078a565b9161096a60018201610880565b91610977600283016108c1565b91610984600382016108c1565b91610991600383016108ee565b9161099e60048201610912565b916109ab60058301610912565b916109b860068201610912565b916109d160086109ca60078501610939565b9301610912565b90565b6109dd9061046b565b9052565b5190565b60209181520190565b90825f9392825e0152565b610a18610a21602093610a2693610a0f816109e1565b938480936109e5565b958691016109ee565b61049d565b0190565b610a3390610580565b9052565b634e487b7160e01b5f52602160045260245ffd5b60031115610a5557565b610a37565b90610a6482610a4b565b565b610a6f90610a5a565b90565b610a7b90610a66565b9052565b610a88906105af565b9052565b97959391909a99989694929a6101408901905f8a01610aaa916109d4565b88810360208a0152610abb916109f9565b9960408801610ac991610a2a565b60608701610ad691610a2a565b60808601610ae391610a72565b60a08501610af091610a7f565b60c08401610afd91610a7f565b60e08301610b0a91610a7f565b6101008201610b1891610328565b61012001610b2591610a7f565b565b34610b6457610b60610b42610b3d36600461071a565b610946565b96610b579a989a9691969592959493946102c4565b9a8b9a8b610a8c565b0390f35b6102ca565b7f751b795d24b92e3d92d1d0d8f2885f4e9c9c269da350af36ae6b49069babf4bf90565b610b95610b69565b90565b90565b610ba490610b98565b9052565b9190610bbb905f60208501940190610b9b565b565b34610bed57610bcd36600461037f565b610be9610bd8610b8d565b610be06102c4565b91829182610ba8565b0390f35b6102ca565b610bfb906103d2565b90565b610c0781610bf2565b03610c0e57565b5f80fd5b90503590610c1f82610bfe565b565b90602082820312610c3a57610c37915f01610c12565b90565b6102ce565b34610c6d57610c57610c52366004610c21565b6135cd565b610c5f6102c4565b80610c698161065d565b0390f35b6102ca565b610ca7610cae94610c9d606094989795610c93608086019a5f870190610a7f565b6020850190610a7f565b6040830190610a7f565b0190610a7f565b565b34610ce457610cc036600461037f565b610ce0610ccb613617565b90610cd79492946102c4565b94859485610c72565b0390f35b6102ca565b610cf281610b98565b03610cf957565b5f80fd5b90503590610d0a82610ce9565b565b90602082820312610d2557610d22915f01610cfd565b90565b6102ce565b34610d5a57610d56610d45610d40366004610d0c565b613714565b610d4d6102c4565b91829182610ba8565b0390f35b6102ca565b610d689061046b565b9052565b610d75906105af565b9052565b610d8290610580565b9052565b610d8f90610b98565b9052565b610d9c90610323565b9052565b9060a080610e0a93610db85f8201515f860190610d5f565b610dca60208201516020860190610d6c565b610ddc60408201516040860190610d79565b610dee60608201516060860190610d86565b610e0060808201516080860190610d6c565b0151910190610d93565b565b9190610e1f905f60c08501940190610da0565b565b34610e5157610e4d610e3c610e37366004610d0c565b61386a565b610e446102c4565b91829182610e0c565b0390f35b6102ca565b9091606082840312610e8b57610e88610e71845f85016105a0565b93610e7f8160208601610486565b936040016105c6565b90565b6102ce565b610e99906103fc565b90565b90610ea690610e90565b5f5260205260405f2090565b90610ebc90610738565b5f5260205260405f2090565b634e487b7160e01b5f52603260045260245ffd5b5490565b5f5260205f2090565b610ef281610edc565b821015610f0c57610f04600191610ee0565b910201905f90565b610ec8565b610f21906008610f26930261038e565b6108fb565b90565b90610f349154610f11565b90565b90610f46610f4b926004610e9c565b610eb2565b610f5481610edc565b821015610f7157610f6e91610f6891610ee9565b90610f29565b90565b5f80fd5b9190610f88905f60208501940190610a7f565b565b34610fbb57610fb7610fa6610fa0366004610e56565b91610f37565b610fae6102c4565b91829182610f75565b0390f35b6102ca565b9190604083820312610fe85780610fdc610fe5925f8601610cfd565b936020016105a0565b90565b6102ce565b3461101c57611006611000366004610fc0565b906138b3565b61100e6102c4565b806110188161065d565b0390f35b6102ca565b6005111561102b57565b5f80fd5b9050359061103c82611021565b565b67ffffffffffffffff811161105c5761105860209161049d565b0190565b6104a7565b909291926110766110718261103e565b6104e4565b93818552602085019082840111611092576110909261051c565b565b610499565b9080601f830112156110b5578160206110b293359101611061565b90565b610495565b90608082820312611114576110d1815f8401610486565b926110df826020850161102f565b926110ed83604083016105a0565b92606082013567ffffffffffffffff811161110f5761110c9201611097565b90565b6102d2565b6102ce565b61114461113361112a3660046110ba565b92919091614248565b61113b6102c4565b91829182610f75565b0390f35b906020828203126111615761115e915f016105c6565b90565b6102ce565b61117a61117561117f926105af565b6103dd565b6105af565b90565b9061118c90611166565b5f5260205260405f2090565b60101c90565b6111aa6111af91611198565b61076f565b90565b6111bc905461119e565b90565b60201c90565b60ff1690565b6111d76111dc916111bf565b6111c5565b90565b6111e990546111cb565b90565b60281c90565b6111fe611203916111ec565b6108a2565b90565b61121090546111f2565b90565b60209181520190565b5f5260205f2090565b905f929180549061123f611238836107ab565b8094611213565b916001811690815f14611296575060011461125a575b505050565b611267919293945061121c565b915f925b81841061127e57505001905f8080611255565b6001816020929593955484860152019101929061126b565b92949550505060ff19168252151560200201905f8080611255565b906112bb91611225565b90565b906112de6112d7926112ce6102c4565b938480926112b1565b03836104bb565b565b90565b6112ef6112f49161076a565b6112e0565b90565b61130190546112e3565b90565b67ffffffffffffffff1690565b61131d6113229161076a565b611304565b90565b61132f9054611311565b90565b60401c90565b61134461134991611332565b61091f565b90565b6113569054611338565b90565b611364906002611182565b61136f5f8201610912565b9161137c6001830161078a565b91611389600182016111b2565b91611396600183016111df565b916113a360018201611206565b916113b0600283016108c1565b916113bd600382016112be565b916113ca600483016112f7565b916113d760058201610912565b916113e460068301611325565b916113f16006820161134c565b9161140a600861140360078501610912565b9301610912565b90565b6005111561141757565b610a37565b906114268261140d565b565b6114319061141c565b90565b61143d90611428565b9052565b5190565b60209181520190565b61146d61147660209361147b9361146481611441565b93848093611445565b958691016109ee565b61049d565b0190565b67ffffffffffffffff1690565b6114959061147f565b9052565b989061152461155b999f9e9c96916115629e996115166115509a6101809f988f61150f61152f986115056115459e6114fb60a09661153a9f6114f1906114e76101a08a019e5f8b0190610a7f565b60208901906109d4565b60408701906109d4565b6060850190611434565b6080830190610a2a565b0190610a2a565b8c60c081840391015261144e565b9e60e08b0190610b9b565b610100890190610a7f565b61012087019061148c565b610140850190610328565b610160830190610a7f565b0190610a7f565b565b346115a4576115a061157f61157a366004611148565b611359565b996115979d9b9d9991999892989793979694966102c4565b9d8e9d8e611499565b0390f35b6102ca565b6115b99060086115be930261038e565b61091f565b90565b906115cc91546115a9565b90565b6115db600f5f906115c1565b90565b3461160e576115ee36600461037f565b61160a6115f96115cf565b6116016102c4565b91829182610335565b0390f35b6102ca565b346116425761162c611626366004610fc0565b9061425f565b6116346102c4565b8061163e8161065d565b0390f35b6102ca565b61165360085f90610f29565b90565b346116865761166636600461037f565b611682611671611647565b6116796102c4565b91829182610f75565b0390f35b6102ca565b91906040838203126116b357806116a76116b0925f86016105c6565b93602001610486565b90565b6102ce565b6116cc6116c636600461168b565b9061441a565b6116d46102c4565b806116de8161065d565b0390f35b919091604081840312611722576116fb835f8301610486565b92602082013567ffffffffffffffff811161171d5761171a9201611097565b90565b6102d2565b6102ce565b346117585761175461174361173d3660046116e2565b9061467f565b61174b6102c4565b91829182610f75565b0390f35b6102ca565b91906040838203126117855780611779611782925f86016105a0565b93602001610486565b90565b6102ce565b5190565b60209181520190565b60200190565b906117aa81602093610d6c565b0190565b60200190565b906117d16117cb6117c48461178a565b809361178e565b92611797565b905f5b8181106117e15750505090565b9091926117fa6117f4600192865161179d565b946117ae565b91019190916117d4565b6118199160208201915f8184039101526117b4565b90565b3461184d5761184961183861183236600461175d565b90614796565b6118406102c4565b91829182611804565b0390f35b6102ca565b61185b8161147f565b0361186257565b5f80fd5b9050359061187382611852565b565b906080828203126118e75761188c815f8401610486565b92602083013567ffffffffffffffff81116118e257826118ad918501611097565b926118bb8360408301611866565b92606082013567ffffffffffffffff81116118dd576118da9201611097565b90565b6102d2565b6102d2565b6102ce565b3461191e576119086118ff366004611875565b92919091614ba4565b6119106102c4565b8061191a8161065d565b0390f35b6102ca565b90602082820312611953575f82013567ffffffffffffffff811161194e5761194b920161055d565b90565b6102d2565b6102ce565b346119865761197061196b366004611923565b614d62565b6119786102c4565b806119828161065d565b0390f35b6102ca565b61199e611999366004611148565b614f83565b6119a66102c4565b806119b08161065d565b0390f35b6119c0600d5f90610f29565b90565b346119f3576119d336600461037f565b6119ef6119de6119b4565b6119e66102c4565b91829182610f75565b0390f35b6102ca565b611a0190610b98565b90565b90611a0e906119f8565b5f5260205260405f2090565b611a3090611a2b6007915f92611a04565b6115c1565b90565b34611a6357611a5f611a4e611a49366004610d0c565b611a1a565b611a566102c4565b91829182610335565b0390f35b6102ca565b34611a9857611a94611a83611a7e36600461071a565b615127565b611a8b6102c4565b91829182610335565b0390f35b6102ca565b34611ace57611aca611ab9611ab3366004610fc0565b906151b7565b611ac16102c4565b91829182610335565b0390f35b6102ca565b7fe2b7fb3b832174769106daebcfd6d1970523240dda11281102db9363b83b0dc490565b611aff611ad3565b90565b34611b3257611b1236600461037f565b611b2e611b1d611af7565b611b256102c4565b91829182610ba8565b0390f35b6102ca565b34611b6557611b4f611b4a366004611148565b615208565b611b576102c4565b80611b618161065d565b0390f35b6102ca565b90565b5f1b90565b611b86611b81611b8b92611b6a565b611b6d565b610b98565b90565b611b975f611b72565b90565b611ba2611b8e565b90565b34611bd557611bb536600461037f565b611bd1611bc0611b9a565b611bc86102c4565b91829182610ba8565b0390f35b6102ca565b611be6600e5f90610f29565b90565b34611c1957611bf936600461037f565b611c15611c04611bda565b611c0c6102c4565b91829182610f75565b0390f35b6102ca565b91606083830312611c6a57611c35825f85016105a0565b92611c438360208301610486565b92604082013567ffffffffffffffff8111611c6557611c62920161055d565b90565b6102d2565b6102ce565b611c83611c7d366004611c1e565b91615612565b611c8b6102c4565b80611c958161065d565b0390f35b611cb8611cc1602093611cc693611caf816109e1565b938480936107d5565b958691016109ee565b61049d565b0190565b611cd390610a66565b9052565b90611d959061012080611d0a6101408401611cf85f8801515f870190610d5f565b60208701518582036020870152611c99565b94611d1d60408201516040860190610d79565b611d2f60608201516060860190610d79565b611d4160808201516080860190611cca565b611d5360a082015160a0860190610d6c565b611d6560c082015160c0860190610d6c565b611d7760e082015160e0860190610d6c565b611d8b610100820151610100860190610d93565b0151910190610d6c565b90565b611dad9160208201915f818403910152611cd7565b90565b34611de057611ddc611dcb611dc636600461071a565b6156b9565b611dd36102c4565b91829182611d98565b0390f35b6102ca565b60018060a01b031690565b611e00906008611e05930261038e565b611de5565b90565b90611e139154611df0565b90565b611e22600b5f90611e08565b90565b611e2e906103fc565b90565b611e3a90611e25565b9052565b9190611e51905f60208501940190611e31565b565b34611e8357611e6336600461037f565b611e7f611e6e611e16565b611e766102c4565b91829182611e3e565b0390f35b6102ca565b5190565b60209181520190565b60200190565b90611ea881602093610d5f565b0190565b60200190565b90611ecf611ec9611ec284611e88565b8093611e8c565b92611e95565b905f5b818110611edf5750505090565b909192611ef8611ef26001928651611e9b565b94611eac565b9101919091611ed2565b611f179160208201915f818403910152611eb2565b90565b34611f4a57611f2a36600461037f565b611f46611f35615ce0565b611f3d6102c4565b91829182611f02565b0390f35b6102ca565b90611f5990610738565b5f5260205260405f2090565b611f75906008611f7a930261038e565b611304565b90565b90611f889154611f65565b90565b611fa190611f9c6006915f92611f4f565b611f7d565b90565b9190611fb7905f6020850194019061148c565b565b34611fe957611fe5611fd4611fcf36600461071a565b611f8b565b611fdc6102c4565b91829182611fa4565b0390f35b6102ca565b5490565b5f5260205f2090565b91909161200781611fee565b83101561202557601061201b600292611ff2565b8185040193060290565b610ec8565b61203a90600861203f930261038e565b61076f565b90565b9061204d915461202a565b90565b600961205b81611fee565b821015612078576120759161206f91611ffb565b90612042565b90565b5f80fd5b919061208f905f602085019401906109d4565b565b346120c1576120bd6120ac6120a7366004611148565b612050565b6120b46102c4565b9182918261207c565b0390f35b6102ca565b906120d0906119f8565b5f5260205260405f2090565b6120e79060056120c6565b906120f35f830161078a565b9161210060018201610912565b9161210d600283016108c1565b9161211a600382016112f7565b91612133600561212c60048501610912565b9301610939565b90565b919461217e6121889298979561217460a09661216a61218f9a61216060c08a019e5f8b01906109d4565b6020890190610a7f565b6040870190610a2a565b6060850190610b9b565b6080830190610a7f565b0190610328565b565b346121c8576121c46121ac6121a7366004610d0c565b6120dc565b926121bb9694969291926102c4565b96879687612136565b0390f35b6102ca565b346121fc576121e66121e0366004610fc0565b90615d20565b6121ee6102c4565b806121f88161065d565b0390f35b6102ca565b346122305761221a6122143660046116e2565b90615fc2565b6122226102c4565b8061222c8161065d565b0390f35b6102ca565b60018060a01b031690565b612250906008612255930261038e565b612235565b90565b906122639154612240565b90565b612272600a5f90612258565b90565b61227e906103fc565b90565b61228a90612275565b9052565b91906122a1905f60208501940190612281565b565b346122d3576122b336600461037f565b6122cf6122be612266565b6122c66102c4565b9182918261228e565b0390f35b6102ca565b34612306576122e836600461037f565b6122f06163ba565b6122f86102c4565b806123028161065d565b0390f35b6102ca565b5f80fd5b5f90565b61231b61230f565b5080612336612330637965db0b60e01b6102d6565b916102d6565b14908115612343575b5090565b61234d91506163c4565b5f61233f565b9061237296959493929161236d612368610b69565b6163ea565b612d45565b565b61238861238361238d92611b6a565b6103dd565b61046b565b90565b5f7f496e76616c696420636861696e20494400000000000000000000000000000000910152565b6123c460106020926109e5565b6123cd81612390565b0190565b6123e69060208101905f8183039101526123b7565b90565b156123f057565b6123f86102c4565b62461bcd60e51b81528061240e600482016123d1565b0390fd5b90565b61242961242461242e92611b6a565b6103dd565b6105af565b90565b5f7f456d70747920636861696e206e616d6500000000000000000000000000000000910152565b61246560106020926109e5565b61246e81612431565b0190565b6124879060208101905f818303910152612458565b90565b1561249157565b6124996102c4565b62461bcd60e51b8152806124af60048201612472565b0390fd5b6124c76124c26124cc92611b6a565b6103dd565b6103d2565b90565b6124d8906124b3565b90565b5f7f496e76616c696420656e64706f696e7400000000000000000000000000000000910152565b61250f60106020926109e5565b612518816124db565b0190565b6125319060208101905f818303910152612502565b90565b1561253b57565b6125436102c4565b62461bcd60e51b8152806125596004820161251c565b0390fd5b5f7f496e76616c696420747275737465642072656d6f746500000000000000000000910152565b61259160166020926109e5565b61259a8161255d565b0190565b6125b39060208101905f818303910152612584565b90565b156125bd57565b6125c56102c4565b62461bcd60e51b8152806125db6004820161259e565b0390fd5b5f7f496e76616c696420676173206c696d6974000000000000000000000000000000910152565b61261360116020926109e5565b61261c816125df565b0190565b6126359060208101905f818303910152612606565b90565b1561263f57565b6126476102c4565b62461bcd60e51b81528061265d60048201612620565b0390fd5b61266c6101406104e4565b90565b906126799061046b565b9052565b52565b9061268a90610580565b9052565b9061269890610a5a565b9052565b906126a6906105af565b9052565b906126b490610323565b9052565b6126c2905161046b565b90565b906126d261ffff91611b6d565b9181191691161790565b90565b906126f46126ef6126fb92610738565b6126dc565b82546126c5565b9055565b5190565b601f602091010490565b1b90565b9190600861272c9102916127265f198461270d565b9261270d565b9181191691161790565b90565b919061274f61274a61275793611166565b612736565b908354612711565b9055565b5f90565b6127719161276b61275b565b91612739565b565b5b81811061277f575050565b8061278c5f60019361275f565b01612774565b9190601f81116127a2575b505050565b6127ae6127d3936107de565b9060206127ba84612703565b830193106127db575b6127cc90612703565b0190612773565b5f808061279d565b91506127cc819290506127c3565b906127f9905f199060080261038e565b191690565b81612808916127e9565b906002021790565b9061281a816109e1565b9067ffffffffffffffff82116128da5761283e8261283885546107ab565b85612792565b602090601f831160011461287257918091612861935f92612866575b50506127fe565b90555b565b90915001515f8061285a565b601f19831691612881856107de565b925f5b8181106128c2575091600293918560019694106128a8575b50505002019055612864565b6128b8910151601f8416906127e9565b90555f808061289c565b91936020600181928787015181550195019201612884565b6104a7565b906128e991612810565b565b6128f59051610580565b90565b9061290960018060a01b0391611b6d565b9181191691161790565b90565b9061292b61292661293292610e90565b612913565b82546128f8565b9055565b6129409051610a5a565b90565b60a01b90565b9061295860ff60a01b91612943565b9181191691161790565b61296b90610a5a565b90565b90565b9061298661298161298d92612962565b61296e565b8254612949565b9055565b61299b90516105af565b90565b906129aa5f1991611b6d565b9181191691161790565b906129c96129c46129d092611166565b612736565b825461299e565b9055565b6129de9051610323565b90565b906129ed60ff91611b6d565b9181191691161790565b612a0090610323565b90565b90565b90612a1b612a16612a22926129f7565b612a03565b82546129e1565b9055565b90612b1b6101206008612b2194612a4a5f8201612a445f88016126b8565b906126df565b612a6360018201612a5d602088016126ff565b906128df565b612a7c60028201612a76604088016128eb565b90612916565b612a9560038201612a8f606088016128eb565b90612916565b612aae60038201612aa860808801612936565b90612971565b612ac760048201612ac160a08801612991565b906129b4565b612ae060058201612ada60c08801612991565b906129b4565b612af960068201612af360e08801612991565b906129b4565b612b1360078201612b0d61010088016129d4565b90612a06565b019201612991565b906129b4565b565b90612b2d91612a26565b565b90565b5f5260205f2090565b5490565b919091612b4b81612b3b565b831015612b69576010612b5f600292612b32565b8185040193060290565b610ec8565b91906008612b8a910291612b8461ffff8461270d565b9261270d565b9181191691161790565b9190612baa612ba5612bb293610738565b6126dc565b908354612b6e565b9055565b9081549168010000000000000000831015612be65782612bde916001612be495018155612b3f565b90612b94565b565b6104a7565b612bf7612bfc9161076a565b612235565b90565b612c099054612beb565b90565b60f01b90565b612c1b90612c0c565b90565b612c2a612c2f9161046b565b612c12565b9052565b905090565b612c5d612c5492602092612c4b816109e1565b94858093612c33565b938491016109ee565b0190565b80612c72600292612c799594612c1e565b0190612c38565b90565b60200190565b5f80fd5b60e01b90565b5f910312612c9657565b6102ce565b5f7f434841494e5f434f4e4649475552454400000000000000000000000000000000910152565b612ccf60106020926109e5565b612cd881612c9b565b0190565b916040612d0d929493612d06612cfb606083018381035f850152612cc2565b966020830190610a2a565b0190610b9b565b565b612d176102c4565b3d5f823e3d90fd5b92916020612d3b612d439360408701908782035f8901526109f9565b940190610a72565b565b9492909593855f612d5590612374565b90612d5f9061046b565b11612d69906123e9565b86612d7390612412565b612d7c90611441565b5f612d8690612415565b90612d90906105af565b11612d9a9061248a565b825f612da5906124cf565b612dae90610580565b90612db890610580565b1415612dc390612534565b815f612dce906124cf565b612dd790610580565b90612de190610580565b1415612dec906125b6565b835f612df790612415565b90612e01906105af565b11612e0b90612638565b600386612e1791610754565b600701612e2390610939565b15612e2d90610323565b948694889493925f909192936001954297612e46612661565b995f8b0190612e549161266f565b60208a0190612e629161267d565b6040890190612e7091612680565b6060880190612e7e91612680565b6080870190612e8c9161268e565b60a0860190612e9a9161269c565b60c0850190612ea89161269c565b60e0840190612eb69161269c565b610100830190612ec5916126aa565b610120820190612ed49161269c565b600383612ee091610754565b90612eea91612b23565b613001575b612f01612efc600a612bff565b612275565b635260590a3383612f338691612f24612f186102c4565b93849260208401612c61565b602082018103825203826104bb565b612f45612f3f82611441565b91612c7c565b2092803b15612ffc57612f6b5f8094612f76612f5f6102c4565b97889687958694612c86565b845260048401612cdc565b03925af18015612ff757612fcb575b505f612fb17fce98e4bf1336a06231e63b4c9432af627c625be435cd0155ffec5ae5df75a2f192610738565b92612fc6612fbd6102c4565b92839283612d1f565b0390a2565b612fea905f3d8111612ff0575b612fe281836104bb565b810190612c8c565b5f612f85565b503d612fd8565b612d0f565b612c82565b61301561300e6009612b2f565b8290612bb6565b612eef565b90613029969594939291612353565b565b906130459161304061303b610b69565b6163ea565b6131b0565b565b5f7f436861696e206e6f7420636f6e66696775726564000000000000000000000000910152565b61307b60146020926109e5565b61308481613047565b0190565b61309d9060208101905f81830391015261306e565b90565b156130a757565b6130af6102c4565b62461bcd60e51b8152806130c560048201613088565b0390fd5b6130d290610a5a565b90565b90565b6130e46130e9916105af565b6130d5565b9052565b6020939261310d600283613105889561311597612c1e565b0180926130d8565b0180926130d8565b0190565b5f7f4252494447455f5354415455535f555044415445440000000000000000000000910152565b61314d60156020926109e5565b61315681613119565b0190565b91604061318b929493613184613179606083018381035f850152613140565b966020830190610a2a565b0190610b9b565b565b9160206131ae9294936131a760408201965f830190610a72565b0190610a72565b565b6131cf6131ca60076131c460038590610754565b01610939565b6130a0565b6131e560036131df818490610754565b016108ee565b906131fd8360036131f7818590610754565b01612971565b61320f61320a600a612bff565b612275565b635260590a3383613252613222876130c9565b9161324361322f8a6130c9565b6132376102c4565b948593602085016130ed565b602082018103825203826104bb565b61326461325e82611441565b91612c7c565b2092803b1561331c5761328a5f809461329561327e6102c4565b97889687958694612c86565b84526004840161315a565b03925af18015613317576132eb575b5090916132d17f8b968d6b892b31733d1d8f6f122e80ebac6118e2b9a7048a59420e2dad6d6bb792610738565b926132e66132dd6102c4565b9283928361318d565b0390a2565b61330a905f3d8111613310575b61330281836104bb565b810190612c8c565b5f6132a4565b503d6132f8565b612d0f565b612c82565b9061332b9161302b565b565b6133469061334161333c611b8e565b6163ea565b61354b565b565b613351906103fc565b90565b5f7f496e76616c696420726563697069656e74000000000000000000000000000000910152565b61338860116020926109e5565b61339181613354565b0190565b6133aa9060208101905f81830391015261337b565b90565b156133b457565b6133bc6102c4565b62461bcd60e51b8152806133d260048201613395565b0390fd5b6133df906103fc565b90565b5f7f4e6f206665657320746f20776974686472617700000000000000000000000000910152565b61341660136020926109e5565b61341f816133e2565b0190565b6134389060208101905f818303910152613409565b90565b1561344257565b61344a6102c4565b62461bcd60e51b81528061346060048201613423565b0390fd5b905090565b6134745f8092613464565b0190565b61348190613469565b90565b906134966134918361103e565b6104e4565b918252565b606090565b3d5f146134bb576134b03d613484565b903d5f602084013e5b565b6134c361349b565b906134b9565b5f7f5769746864726177616c206661696c6564000000000000000000000000000000910152565b6134fd60116020926109e5565b613506816134c9565b0190565b61351f9060208101905f8183039101526134f0565b90565b1561352957565b6135316102c4565b62461bcd60e51b8152806135476004820161350a565b0390fd5b5f806135cb926135768161356f613569613564866124cf565b610580565b91613348565b14156133ad565b6135a5613582306133d6565b31916135a08361359a61359487612415565b916105af565b1161343b565b613348565b906135ae6102c4565b90816135b981613478565b03925af16135c56134a0565b50613522565b565b6135d69061332d565b565b60016135e491016105af565b90565b634e487b7160e01b5f52601160045260245ffd5b613604906105af565b5f1981146136125760010190565b6135e7565b61361f61275b565b5061362861275b565b5061363161275b565b5061363a61275b565b506136456008610912565b906136506009611fee565b6136595f612415565b906136635f612415565b5b8061368061367a6136756009611fee565b6105af565b916105af565b10156136ec576136b060036136aa816136a461369e60098790611ffb565b90612042565b90610754565b016108ee565b6136c36136bd6001610a5a565b91610a5a565b146136d7575b6136d2906135d8565b613664565b916136e46136d2916135fb565b9290506136c9565b50916136f75f612415565b90565b5f90565b90613708906119f8565b5f5260205260405f2090565b600161372c613732926137256136fa565b505f6136fe565b016112f7565b90565b61373f60c06104e4565b90565b5f90565b5f90565b5f90565b5f90565b5f90565b61375e613735565b90602080808080808761376f613742565b81520161377a613746565b81520161378561374a565b81520161379061374e565b81520161379b613746565b8152016137a6613752565b81525050565b6137b4613756565b90565b906137c190610b98565b9052565b9061385c61385360056137d6613735565b946137ed6137e55f830161078a565b5f880161266f565b6138056137fc60018301610912565b6020880161269c565b61381d613814600283016108c1565b60408801612680565b61383561382c600383016112f7565b606088016137b7565b61384d61384460048301610912565b6080880161269c565b01610939565b60a084016126aa565b565b613867906137c5565b90565b613881613886916138796137ac565b5060056120c6565b61385e565b90565b906138a49161389f61389a82613714565b6163ea565b6138a6565b565b906138b0916163fe565b50565b906138bd91613889565b565b906138d4949392916138cf6164d5565b613eed565b906138dd616559565b565b5f7f456d707479207061796c6f616400000000000000000000000000000000000000910152565b613913600d6020926109e5565b61391c816138df565b0190565b6139359060208101905f818303910152613906565b90565b1561393f57565b6139476102c4565b62461bcd60e51b81528061395d60048201613920565b0390fd5b5f7f4272696467652070617573656400000000000000000000000000000000000000910152565b613995600d6020926109e5565b61399e81613961565b0190565b6139b79060208101905f818303910152613988565b90565b156139c157565b6139c96102c4565b62461bcd60e51b8152806139df600482016139a2565b0390fd5b5f7f436861696e206e6f7420737570706f7274656400000000000000000000000000910152565b613a1760136020926109e5565b613a20816139e3565b0190565b613a399060208101905f818303910152613a0a565b90565b15613a4357565b613a4b6102c4565b62461bcd60e51b815280613a6160048201613a24565b0390fd5b5f7f427269646765206e6f7420616374697665000000000000000000000000000000910152565b613a9960116020926109e5565b613aa281613a65565b0190565b613abb9060208101905f818303910152613a8c565b90565b15613ac557565b613acd6102c4565b62461bcd60e51b815280613ae360048201613aa6565b0390fd5b5f7f496e73756666696369656e742062726964676520666565000000000000000000910152565b613b1b60176020926109e5565b613b2481613ae7565b0190565b613b3d9060208101905f818303910152613b0e565b90565b15613b4757565b613b4f6102c4565b62461bcd60e51b815280613b6560048201613b28565b0390fd5b613b729061147f565b67ffffffffffffffff8114613b875760010190565b6135e7565b90613b9f67ffffffffffffffff91611b6d565b9181191691161790565b613bbd613bb8613bc29261147f565b6103dd565b61147f565b90565b90565b90613bdd613bd8613be492613ba9565b613bc5565b8254613b8c565b9055565b90565b60101b90565b90613c0063ffff000091613beb565b9181191691161790565b90613c1f613c1a613c2692610738565b6126dc565b8254613bf1565b9055565b60201b90565b90613c4064ff0000000091613c2a565b9181191691161790565b613c539061141c565b90565b90565b90613c6e613c69613c7592613c4a565b613c56565b8254613c30565b9055565b60281b90565b90613c9665010000000000600160c81b0391613c79565b9181191691161790565b90613cb5613cb0613cbc92610e90565b612913565b8254613c7f565b9055565b9190601f8111613cd0575b505050565b613cdc613d019361121c565b906020613ce884612703565b83019310613d09575b613cfa90612703565b0190612773565b5f8080613ccb565b9150613cfa81929050613cf1565b90613d2181611441565b9067ffffffffffffffff8211613de157613d4582613d3f85546107ab565b85613cc0565b602090601f8311600114613d7957918091613d68935f92613d6d575b50506127fe565b90555b565b90915001515f80613d61565b601f19831691613d888561121c565b925f5b818110613dc957509160029391856001969410613daf575b50505002019055613d6b565b613dbf910151601f8416906127e9565b90555f8080613da3565b91936020600181928787015181550195019201613d8b565b6104a7565b90613df091613d17565b565b613dfb9061076a565b90565b90613e13613e0e613e1a926119f8565b613df2565b825461299e565b9055565b613e279061141c565b90565b60209392613e4a8583613e42600295613e52976130d8565b018092612c1e565b0180926130d8565b0190565b5f7f43524f53535f434841494e5f4d4553534147455f53454e540000000000000000910152565b613e8a60186020926109e5565b613e9381613e56565b0190565b916040613ec8929493613ec1613eb6606083018381035f850152613e7d565b966020830190610a2a565b0190610b9b565b565b916020613eeb929493613ee460408201965f830190611434565b0190610b9b565b565b50613f12613efa85611441565b613f0c613f065f612415565b916105af565b11613938565b613f3783613f30613f2a613f255f6124cf565b610580565b91610580565b14156133ad565b613f52613f4d613f47600f610939565b15610323565b6139ba565b613f71613f6c6007613f6660038590610754565b01610939565b613a3c565b613fa2613f8a6003613f84818590610754565b016108ee565b613f9c613f965f610a5a565b91610a5a565b14613abe565b613fc834613fc1613fbb613fb6600d610912565b6105af565b916105af565b1015613b40565b613fe4613fdd613fd86008610912565b6135fb565b60086129b4565b614120613ff16008610912565b9480614005613fff82611441565b91612c7c565b209461402d61401660068690611f4f565b61402761402282611325565b613b69565b90613bc8565b61409561404461403f60028a90611182565b613be8565b91614051895f85016129b4565b61406561405c6166a7565b600185016126df565b6140728660018501613c0a565b61407f8760018501613c59565b61408c3360018501613ca0565b60028301612916565b6140a28260038301613de6565b6140af8660048301613dfe565b6140bc42600583016129b4565b6140dc6140d36140ce60068790611f4f565b611325565b60068301613bc8565b6140ff6140f660056140f060038890610754565b01610912565b600783016129b4565b61410c34600883016129b4565b61411a600785939201610912565b916169bb565b61413261412d600a612bff565b612275565b635260590a338661416d859161415e61414a89613e1e565b6141526102c4565b94859360208501613e2a565b602082018103825203826104bb565b61417f61417982611441565b91612c7c565b2092803b15614243576141a55f80946141b06141996102c4565b97889687958694612c86565b845260048401613e97565b03925af1801561423e57614212575b50839091926141f76141f17f20c87da0cbef0b12eff5d0763f9aa8509710d3bf145d5712fef7a09b21a5b77493611166565b93610738565b9361420c6142036102c4565b92839283613eca565b0390a390565b614231905f3d8111614237575b61422981836104bb565b810190612c8c565b5f6141bf565b503d61421f565b612d0f565b612c82565b9061425c93929161425761275b565b6138bf565b90565b908061427a61427461426f616bad565b610580565b91610580565b0361428b5761428891616bba565b50565b5f63334bd91960e11b8152806142a36004820161065d565b0390fd5b6142b36142b89161076a565b611de5565b90565b6142c590546142a7565b90565b6142d181610323565b036142d857565b5f80fd5b905051906142e9826142c8565b565b9060208282031261430457614301915f016142dc565b90565b6102ce565b5f7f4365727469666963617465206e6f742076616c69640000000000000000000000910152565b61433d60156020926109e5565b61434681614309565b0190565b61435f9060208101905f818303910152614330565b90565b1561436957565b6143716102c4565b62461bcd60e51b8152806143876004820161434a565b0390fd5b5f7f53594e435f434552544946494341544500000000000000000000000000000000910152565b6143bf60106020926109e5565b6143c88161438b565b0190565b614411614418946144076080949897956143fd6143f260a087018781035f8901526143b2565b9a6020870190610a7f565b6040850190610a2a565b60608301906109d4565b0190610a7f565b565b9061445d91602061443361442e600b6142bb565b611e25565b631692a9429061445284926144466102c4565b97889485938493612c86565b835260048301610f75565b03915afa9283156144ec576144bb9361447d915f916144be575b50614362565b6144b233916144a361448d6166a7565b42906144976102c4565b958694602086016143cc565b602082018103825203826104bb565b5f339192614248565b50565b6144df915060203d81116144e5575b6144d781836104bb565b8101906142eb565b5f614477565b503d6144cd565b612d0f565b6144fc6101406104e4565b90565b906145f86145ee60086145106144f1565b9461452761451f5f830161078a565b5f880161266f565b61453f61453660018301610880565b6020880161267d565b61455761454e600283016108c1565b60408801612680565b61456f614566600383016108c1565b60608801612680565b61458761457e600383016108ee565b6080880161268e565b61459f61459660048301610912565b60a0880161269c565b6145b76145ae60058301610912565b60c0880161269c565b6145cf6145c660068301610912565b60e0880161269c565b6145e86145de60078301610939565b61010088016126aa565b01610912565b610120840161269c565b565b614603906144ff565b90565b90565b61461d61461861462292614606565b6103dd565b6105af565b90565b61463461463a919392936105af565b926105af565b916146468382026105af565b92818404149015171561465557565b6135e7565b61466961466f919392936105af565b926105af565b820180921161467a57565b6135e7565b6146e0916146ca60e06146c36146b36146ad6146a86146d0976146a061275b565b506003610754565b6145fa565b94611441565b6146bd6064614609565b90614625565b9201612991565b9061465a565b6146da600d610912565b9061465a565b90565b606090565b60209181520190565b6146fb90546108fe565b90565b60010190565b9061472161471b61471484610edc565b80936146e8565b92610ee0565b905f5b8181106147315750505090565b90919261475161474b600192614746876146f1565b61179d565b946146fe565b9101919091614724565b9061476591614704565b90565b90614788614781926147786102c4565b9384809261475b565b03836104bb565b565b61479390614768565b90565b6147bb916147b16147b6926147a96146e3565b506004610e9c565b610eb2565b61478a565b90565b906147da9392916147d56147d0611ad3565b6163ea565b6149d8565b565b6148016147f8926020926147ef81611441565b94858093613464565b938491016109ee565b0190565b60c01b90565b61481490614805565b90565b6148236148289161147f565b61480b565b9052565b61484e6008936002836148476148559561485c9a9997612c1e565b01906147dc565b8092614817565b01906147dc565b90565b5f7f4d65737361676520616c72656164792070726f63657373656400000000000000910152565b61489360196020926109e5565b61489c8161485f565b0190565b6148b59060208101905f818303910152614886565b90565b156148bf57565b6148c76102c4565b62461bcd60e51b8152806148dd600482016148a0565b0390fd5b60f81b90565b6148f0906148e1565b90565b6148fc906148e7565b90565b61490b61491091610323565b6148f3565b9052565b6001939261493560208361492d60029561493d976130d8565b018092612c1e565b0180926148ff565b0190565b5f7f43524f53535f434841494e5f4d4553534147455f524543454956454400000000910152565b614975601c6020926109e5565b61497e81614941565b0190565b9160406149b39294936149ac6149a1606083018381035f850152614968565b966020830190610a2a565b0190610b9b565b565b9160206149d69294936149cf60408201965f830190611434565b0190610328565b565b9290614a6092614a10614a5a92614a0187919386906149f56102c4565b9586946020860161482c565b602082018103825203826104bb565b614a22614a1c82611441565b91612c7c565b20614a48614a43614a3d614a3860078590611a04565b610939565b15610323565b6148b8565b614a556001916007611a04565b612a06565b82616e09565b90614a7d614a76614a716008610912565b6135fb565b60086129b4565b614a876008610912565b614a99614a94600a612bff565b612275565b635260590a3283614acc8691614abd89614ab16102c4565b94859360208501614914565b602082018103825203826104bb565b614ade614ad882611441565b91612c7c565b2092803b15614b9f57614b045f8094614b0f614af86102c4565b97889687958694612c86565b845260048401614982565b03925af18015614b9a57614b6e575b505f92614b54614b4e7f5e834333dbc5e90725a28f659b4f645b992767a5a0dc55df5e87024acd6b9f9293611166565b93610738565b93614b69614b606102c4565b928392836149b5565b0390a3565b614b8d905f3d8111614b93575b614b8581836104bb565b810190612c8c565b5f614b1e565b503d614b7b565b612d0f565b612c82565b90614bb09392916147be565b565b614bcb90614bc6614bc1610b69565b6163ea565b614c41565b565b5f7f414c4c5f425249444745535f5041555345440000000000000000000000000000910152565b614c0160126020926109e5565b614c0a81614bcd565b0190565b916040614c3f929493614c38614c2d606083018381035f850152614bf4565b966020830190610a2a565b0190610b9b565b565b614c4d6001600f612a06565b614c565f612415565b5b80614c73614c6d614c686009611fee565b6105af565b916105af565b1015614cb357614cae90614ca960016003614ca381614c9d614c9760098890611ffb565b90612042565b90610754565b01612971565b6135d8565b614c57565b50614cc6614cc1600a612bff565b612275565b90635260590a90614cd73391612412565b614ce9614ce382611441565b91612c7c565b2092803b15614d5d57614d0f5f8094614d1a614d036102c4565b97889687958694612c86565b845260048401614c0e565b03925af18015614d5857614d2c575b50565b614d4b905f3d8111614d51575b614d4381836104bb565b810190612c8c565b5f614d29565b503d614d39565b612d0f565b612c82565b614d6b90614bb2565b565b5f7f4d65737361676520646f6573206e6f7420657869737400000000000000000000910152565b614da160166020926109e5565b614daa81614d6d565b0190565b614dc39060208101905f818303910152614d94565b90565b15614dcd57565b614dd56102c4565b62461bcd60e51b815280614deb60048201614dae565b0390fd5b5f7f4e6f74206d6573736167652073656e6465720000000000000000000000000000910152565b614e2360126020926109e5565b614e2c81614def565b0190565b614e459060208101905f818303910152614e16565b90565b15614e4f57565b614e576102c4565b62461bcd60e51b815280614e6d60048201614e30565b0390fd5b5f7f496e73756666696369656e742072657472792066656500000000000000000000910152565b614ea560166020926109e5565b614eae81614e71565b0190565b614ec79060208101905f818303910152614e98565b90565b15614ed157565b614ed96102c4565b62461bcd60e51b815280614eef60048201614eb2565b0390fd5b614efc906112be565b90565b614f0b816020936130d8565b0190565b5f7f4d4553534147455f524554524945440000000000000000000000000000000000910152565b614f43600f6020926109e5565b614f4c81614f0f565b0190565b916040614f81929493614f7a614f6f606083018381035f850152614f36565b966020830190610a2a565b0190610b9b565b565b615058614f9a614f9560028490611182565b613be8565b614fc1614fa85f8301610912565b614fba614fb45f612415565b916105af565b1415614dc6565b614fe8614fd060018301611206565b614fe2614fdc33610580565b91610580565b14614e48565b615005615000614ffa6006840161134c565b15610323565b6148b8565b61502d3461502661502061501b60088601610912565b6105af565b916105af565b1015614eca565b615039600182016111b2565b61505261504c6007600385019401610912565b92614ef3565b906169bb565b61506a615065600a612bff565b612275565b90635260590a9061508d61509c33926150816102c4565b92839160208301614eff565b602082018103825203826104bb565b6150ae6150a882611441565b91612c7c565b2092803b15615122576150d45f80946150df6150c86102c4565b97889687958694612c86565b845260048401614f50565b03925af1801561511d576150f1575b50565b615110905f3d8111615116575b61510881836104bb565b810190612c8c565b5f6150ee565b503d6150fe565b612d0f565b612c82565b61512f61230f565b50615147600761514160038490610754565b01610939565b9081615171575b5080615158575b90565b5061516c615166600f610939565b15610323565b615155565b615188915061518260039182610754565b016108ee565b61519a6151945f610a5a565b91610a5a565b145f61514e565b906151ab90610e90565b5f5260205260405f2090565b6151dd915f6151d26151d8936151cb61230f565b50826136fe565b016151a1565b610939565b90565b6151f9906151f46151ef610b69565b6163ea565b6151fb565b565b61520690600d6129b4565b565b615211906151e0565b565b9061522e9291615229615224611ad3565b6163ea565b61545f565b565b67ffffffffffffffff81116152485760208091020190565b6104a7565b5f80fd5b9050519061525e826105b2565b565b9092919261527561527082615230565b6104e4565b93818552602080860192028301928184116152b257915b8383106152995750505050565b602080916152a78486615251565b81520192019161528c565b61524d565b9080601f830112156152d5578160206152d293519101615260565b90565b610495565b9060208282031261530a575f82015167ffffffffffffffff81116153055761530292016152b7565b90565b6102d2565b6102ce565b9190615322905f60208501940190610a2a565b565b5f7f53594e435f555345525f43455254494649434154455300000000000000000000910152565b61535860166020926109e5565b61536181615324565b0190565b9392906153a06060916153a89461539361538860808a018a81035f8c015261534b565b9260208a0190610a2a565b87820360408901526117b4565b940190610a7f565b565b5f7f53594e435f54525553545f53434f524500000000000000000000000000000000910152565b6153de60106020926109e5565b6153e7816153aa565b0190565b90565b60ff1690565b61540861540361540d926153eb565b6103dd565b6153ee565b90565b615419906153f4565b9052565b60609061545661545d949695939661544c615441608085018581035f8701526153d1565b986020850190610a2a565b6040830190615410565b0190610a7f565b565b909161546961349b565b9061547381612412565b61548561547f82611441565b91612c7c565b206154b86154b27ff15bd9b4fab70dd5a95c01bd4e0b9808607d3ca4c75ac9d80b27ed4e111b3ea8610b98565b91610b98565b145f1461550357505061550091816154f360fa916154e4426154d86102c4565b9485936020850161541d565b602082018103825203826104bb565b905b916002909192614248565b50565b61550c90612412565b61551e61551882611441565b91612c7c565b2061555161554b7ffc3aaea14b7501acf8dfefda79052a87131bb97b321983dfb815bf1d6630a481610b98565b91610b98565b14615560575b615500926154f5565b506155a2915f615578615573600b6142bb565b611e25565b63e18ac8ec90615597859261558b6102c4565b97889485938493612c86565b83526004830161530f565b03915afa801561560d57615500935f916155eb575b506155e3836155d4426155c86102c4565b94859360208501615365565b602082018103825203826104bb565b909250615557565b61560791503d805f833e6155ff81836104bb565b8101906152da565b5f6155b7565b612d0f565b9061561d9291615213565b565b606090565b5f90565b6156306144f1565b9060208080808080808080808b615645613742565b81520161565061561f565b81520161565b61374a565b81520161566661374a565b815201615671615624565b81520161567c613746565b815201615687613746565b815201615692613746565b81520161569d613752565b8152016156a8613746565b81525050565b6156b6615628565b90565b6156d06156d5916156c86156ae565b506003610754565b6145fa565b90565b606090565b60209181520190565b6156f26156f7916111bf565b61076f565b90565b60301c90565b61570c615711916156fa565b61076f565b90565b61572061572591611332565b61076f565b90565b60501c90565b61573a61573f91615728565b61076f565b90565b60601c90565b61575461575991615742565b61076f565b90565b60701c90565b61576e6157739161575c565b61076f565b90565b60801c90565b61578861578d91615776565b61076f565b90565b60901c90565b6157a26157a791615790565b61076f565b90565b6157b66157bb916108ce565b61076f565b90565b60b01c90565b6157d06157d5916157be565b61076f565b90565b60c01c90565b6157ea6157ef916157d8565b61076f565b90565b60d01c90565b615804615809916157f2565b61076f565b90565b61581861581d916102be565b61076f565b90565b60f01c90565b61583261583791615820565b61076f565b90565b9060019061585a61585461584d85611fee565b80936156dd565b93611ff2565b5f92615b14575b600161586e575b50505090565b5490808310615af2575b808310615ad0575b808310615aae575b808310615a8c575b808310615a6a575b808310615a48575b808310615a26575b808310615a04575b8083106159e2575b8083106159c0575b80831061599e575b80831061597c575b80831061595a575b808310615938575b808310615916575b82106158f5575b80615868565b8261590d60019394615908602094615826565b610d5f565b0191015f6158ef565b919260208161592f60019361592a8661580c565b610d5f565b019301916158e8565b919260208161595160019361594c866157f8565b610d5f565b019301916158e0565b919260208161597360019361596e866157de565b610d5f565b019301916158d8565b9192602081615995600193615990866157c4565b610d5f565b019301916158d0565b91926020816159b76001936159b2866157aa565b610d5f565b019301916158c8565b91926020816159d96001936159d486615796565b610d5f565b019301916158c0565b91926020816159fb6001936159f68661577c565b610d5f565b019301916158b8565b9192602081615a1d600193615a1886615762565b610d5f565b019301916158b0565b9192602081615a3f600193615a3a86615748565b610d5f565b019301916158a8565b9192602081615a61600193615a5c8661572e565b610d5f565b019301916158a0565b9192602081615a83600193615a7e86615714565b610d5f565b01930191615898565b9192602081615aa5600193615aa086615700565b610d5f565b01930191615890565b9192602081615ac7600193615ac2866156e6565b610d5f565b01930191615888565b9192602081615ae9600193615ae48661119e565b610d5f565b01930191615880565b9192602081615b0b600193615b0686610776565b610d5f565b01930191615878565b5b81600160100384011015615861579283549080615b3183610776565b90615b3b91610d5f565b60200180615b488361119e565b90615b5291610d5f565b60200180615b5f836156e6565b90615b6991610d5f565b60200180615b7683615700565b90615b8091610d5f565b60200180615b8d83615714565b90615b9791610d5f565b60200180615ba48361572e565b90615bae91610d5f565b60200180615bbb83615748565b90615bc591610d5f565b60200180615bd283615762565b90615bdc91610d5f565b60200180615be98361577c565b90615bf391610d5f565b60200180615c0083615796565b90615c0a91610d5f565b60200180615c17836157aa565b90615c2191610d5f565b60200180615c2e836157c4565b90615c3891610d5f565b60200180615c45836157de565b90615c4f91610d5f565b60200180615c5c836157f8565b90615c6691610d5f565b60200180615c738361580c565b90615c7d91610d5f565b602001615c8a8192615826565b90615c9491610d5f565b602001926001019160100191615b15565b90615caf9161583a565b90565b90615cd2615ccb92615cc26102c4565b93848092615ca5565b03836104bb565b565b615cdd90615cb2565b90565b615ce86156d8565b50615cf36009615cd4565b90565b90615d1191615d0c615d0782613714565b6163ea565b615d13565b565b90615d1d91616bba565b50565b90615d2a91615cf6565b565b5f7f496e7465726e616c2066756e6374696f6e206f6e6c7900000000000000000000910152565b615d6060166020926109e5565b615d6981615d2c565b0190565b615d829060208101905f818303910152615d53565b90565b15615d8c57565b615d946102c4565b62461bcd60e51b815280615daa60048201615d6d565b0390fd5b606090565b90929192615dc8615dc3826104f9565b6104e4565b93818552602085019082840111615de457615de2926109ee565b565b610499565b9080601f83011215615e0757816020615e0493519101615db3565b90565b610495565b90602082820312615e3c575f82015167ffffffffffffffff8111615e3757615e349201615de9565b90565b6102d2565b6102ce565b90505190615e4e82610bfe565b565b608081830312615ec2575f81015167ffffffffffffffff8111615ebd5782615e79918301615de9565b92615e878360208401615e41565b9260408301519067ffffffffffffffff8211615eb857615eac81615eb59386016152b7565b93606001615251565b90565b6102d2565b6102d2565b6102ce565b90615ed18261178a565b811015615ee2576020809102010190565b610ec8565b608081830312615f40575f81015167ffffffffffffffff8111615f3b5782615f10918301615de9565b92615f38615f218460208501615e41565b93615f2f8160408601615251565b93606001615251565b90565b6102d2565b6102ce565b90505190615f5282610472565b565b919060a083820312615fbd575f83015167ffffffffffffffff8111615fb85781615f7f918501615de9565b92615f8d8260208301615251565b92615fb5615f9e8460408501615e41565b93615fac8160608601615f45565b93608001615251565b90565b6102d2565b6102ce565b919091615fe933615fe3615fdd615fd8306133d6565b610580565b91610580565b14615d85565b615ff1615dae565b5061600c83602061600182611441565b818301019101615e0c565b6160146136fa565b50602081519101208061604f6160497fe5a0710cc17f41e18f04a7600d6b1071684764b010650092ef884b71f31eeaf0610b98565b91610b98565b145f146160945750509061608561607961609192602061606e82611441565b818301019101615f54565b92909491935092613348565b92909192909192617222565b5b565b806160c76160c17f9ae03e965d3946c97374f4303e5082cfb0d90a13849551c6f8b952a02870d433610b98565b91610b98565b145f1461610c57506160fa6160f0616106939460206160e582611441565b818301019101615ee7565b9492509290613348565b91929192909192617401565b5b616092565b61613e6161387f48be96d90b1e91874bdbd2f95cd6decf8a7a580832fd1c8e6d077340e24fa02c610b98565b91610b98565b1461614c575b509050616107565b61616961617393602061615e82611441565b818301019101615e50565b9392509490613348565b9361617d5f612415565b5b8061619961619361618e8561178a565b6105af565b916105af565b10156161cd576161c8906161c36161b96161b4858490615ec7565b612991565b8886908892617222565b6135d8565b61617e565b505050509050805f616144565b6161ea6161e5610b69565b6163ea565b6161f2616268565b565b5f7f414c4c5f425249444745535f554e504155534544000000000000000000000000910152565b61622860146020926109e5565b616231816161f4565b0190565b91604061626692949361625f616254606083018381035f85015261621b565b966020830190610a2a565b0190610b9b565b565b6162735f600f612a06565b61627c5f612415565b5b8061629961629361628e6009611fee565b6105af565b916105af565b1015616320576162eb906162cd60036162c7816162c16162bb60098790611ffb565b90612042565b90610754565b016108ee565b6162e06162da6001610a5a565b91610a5a565b146162f0575b6135d8565b61627d565b61631b5f60036163158161630f61630960098890611ffb565b90612042565b90610754565b01612971565b6162e6565b5061633361632e600a612bff565b612275565b635260590a336163425f611b72565b92803b156163b5576163675f809461637261635b6102c4565b97889687958694612c86565b845260048401616235565b03925af180156163b057616384575b50565b6163a3905f3d81116163a9575b61639b81836104bb565b810190612c8c565b5f616381565b503d616391565b612d0f565b612c82565b6163c26161da565b565b6163cc61230f565b506163e66163e06301ffc9a760e01b6102d6565b916102d6565b1490565b6163fc906163f6616bad565b90617547565b565b61640661230f565b5061641b6164158284906151b7565b15610323565b5f146164a357616442600161643d5f6164358186906136fe565b0185906151a1565b612a06565b9061644b616bad565b9061648861648261647c7f2f8788117e7eff1d82e926ec794901d17c78024a50270940304540a733656f0d956119f8565b92610e90565b92610e90565b926164916102c4565b8061649b8161065d565b0390a4600190565b50505f90565b90565b6164c06164bb6164c5926164a9565b6103dd565b6105af565b90565b6164d260026164ac565b90565b6164df6001610912565b6164f86164f26164ed6164c8565b6105af565b916105af565b146165115761650f6165086164c8565b60016129b4565b565b5f633ee5aeb560e01b8152806165296004820161065d565b0390fd5b90565b61654461653f6165499261652d565b6103dd565b6105af565b90565b6165566001616530565b90565b61656b61656461654c565b60016129b4565b565b5f90565b90565b61658861658361658d92616571565b6103dd565b61046b565b90565b90565b6165a76165a26165ac92616590565b6103dd565b6105af565b90565b90565b6165c66165c16165cb926165af565b6103dd565b61046b565b90565b90565b6165e56165e06165ea926165ce565b6103dd565b6105af565b90565b90565b6166046165ff616609926165ed565b6103dd565b61046b565b90565b90565b61662361661e6166289261660c565b6103dd565b6105af565b90565b90565b61664261663d6166479261662b565b6103dd565b61046b565b90565b90565b61666161665c6166669261664a565b6103dd565b6105af565b90565b90565b61668061667b61668592616669565b6103dd565b61046b565b90565b90565b61669f61669a6166a492616688565b6103dd565b61046b565b90565b6166af61656d565b50466166c46166be6001616530565b916105af565b1461677157466166dd6166d76089616593565b916105af565b1461676457466166f66166f060386165d1565b916105af565b14616757574661671061670a61a86a61660f565b916105af565b1461674a574661672a61672461a4b161664d565b916105af565b1461673d5761673a61271161668b565b90565b616747606e61666c565b90565b616754606a61662e565b90565b61676160666165f0565b90565b61676e606d6165b2565b90565b61677b6065616574565b90565b5f7f436861696e206e6f742061637469766500000000000000000000000000000000910152565b6167b260106020926109e5565b6167bb8161677e565b0190565b6167d49060208101905f8183039101526167a5565b90565b156167de57565b6167e66102c4565b62461bcd60e51b8152806167fc600482016167bf565b0390fd5b5f7f476173206c696d697420746f6f20686967680000000000000000000000000000910152565b61683460126020926109e5565b61683d81616800565b0190565b6168569060208101905f818303910152616827565b90565b1561686057565b6168686102c4565b62461bcd60e51b81528061687e60048201616841565b0390fd5b60601b90565b61689190616882565b90565b61689d90616888565b90565b6168ac6168b191610580565b616894565b9052565b6014816168c76168cf938396956168a0565b0180926168a0565b0190565b6168e76168e26168ec9261652d565b6103dd565b61046b565b90565b60028161690261690a9360209695612c1e565b0180926130d8565b0190565b61691a61691f9161076a565b610392565b90565b61692c905461690e565b90565b616938906103e0565b90565b6169449061692f565b90565b61695090613348565b9052565b926169966169a1916169886169b8999798946169ab9661697b60c08a01925f8b01906109d4565b88820360208a015261144e565b90868203604088015261144e565b956060850190616947565b6080830190610a2a565b60a081840391015261144e565b90565b90916169d16169cc60038490610754565b6145fa565b916169e76169e261010085016129d4565b6167d7565b616a0e6169f660808501612936565b616a08616a025f610a5a565b91610a5a565b14613abe565b616a32616a1a85611441565b616a2c616a265f612415565b916105af565b11613938565b616a5a82616a53616a4d616a4860c08801612991565b6105af565b916105af565b1115616859565b616afd616adc6040616a6e606087016128eb565b616aa1616a7a306133d6565b91616a92616a866102c4565b938492602084016168b5565b602082018103825203826104bb565b94616ad5616aaf60016168d3565b616ac6616aba6102c4565b938492602084016168ef565b602082018103825203826104bb565b95016128eb565b616af6616af0616aeb5f6124cf565b610580565b91610580565b1415612534565b616b0f616b0a600c616922565b610408565b63c5803100913491929190939591616b263361693b565b92616b305f6124cf565b96853b15616ba4575f97616b5695616b6193616b4a6102c4565b9b8c9a8b998a98612c86565b885260048801616954565b03925af18015616b9f57616b73575b50565b616b92905f3d8111616b98575b616b8a81836104bb565b810190612c8c565b5f616b70565b503d616b80565b612d0f565b612c82565b5f90565b616bb5616ba9565b503390565b616bc261230f565b50616bce8183906151b7565b5f14616c5557616bf45f616bef5f616be78186906136fe565b0185906151a1565b612a06565b90616bfd616bad565b90616c3a616c34616c2e7ff6391f5c32d9c69d2a47ea670b442974b53935d1edc7fd64eb21e047a839171b956119f8565b92610e90565b92610e90565b92616c436102c4565b80616c4d8161065d565b0390a4600190565b50505f90565b91616c7e92616c7160408201935f8301906109d4565b602081840391015261144e565b90565b5f9060033d11616c8e575b565b905060045f803e616c9f5f516102be565b90616c8c565b5f9060443d10616d2257616cb76102c4565b60043d036004823e8051903d602483011167ffffffffffffffff831117616d1e5781810191825167ffffffffffffffff8111616d185780602085010160043d03840110616d1257616d0f9394955060200101906104bb565b90565b50505050565b50505050565b5050565b565b5f7f43524f53535f434841494e5f4552524f52000000000000000000000000000000910152565b616d5860116020926109e5565b616d6181616d24565b0190565b916040616d96929493616d8f616d84606083018381035f850152616d4b565b966020830190610a2a565b0190610b9b565b565b616dad9160208201915f8184039101526109f9565b90565b5f7f556e6b6e6f776e206572726f7200000000000000000000000000000000000000910152565b616de4600d6020926109e5565b616ded81616db0565b0190565b616e069060208101905f818303910152616dd7565b90565b9190616e1361230f565b92616e1d306133d6565b9163da928d69919092803b156170c657616e4a5f8094616e55616e3e6102c4565b97889687958694612c86565b845260048401616c5b565b03925af1908161709a575b50155f14617093576001616e72616c81565b6308c379a014616f82575b616e8357565b9050616e97616e92600a612bff565b612275565b635260590a327f01a3c9d36e6647f931ee61bd59da4190dc2aca46bef5c11ac1f110ee29c65d3492803b15616f7d57616ee35f8094616eee616ed76102c4565b97889687958694612c86565b845260048401616d65565b03925af18015616f7857616f4c575b50616f086008610912565b616f327fd6c3bb84074a48effb013d613ba392ef8430bc63151bd84b562f67bbc1e2a6c191611166565b90616f3b6102c4565b80616f4581616df1565b0390a25f90565b616f6b905f3d8111616f71575b616f6381836104bb565b810190612c8c565b5f616efd565b503d616f59565b612d0f565b612c82565b616f8a616ca5565b80616f955750616e7d565b91925050616fab616fa6600a612bff565b612275565b635260590a32616fba84612412565b616fcc616fc682611441565b91612c7c565b2092803b1561708e57616ff25f8094616ffd616fe66102c4565b97889687958694612c86565b845260048401616d65565b03925af180156170895761705d575b506170176008610912565b6170566170447fd6c3bb84074a48effb013d613ba392ef8430bc63151bd84b562f67bbc1e2a6c192611166565b9261704d6102c4565b91829182616d98565b0390a25f90565b61707c905f3d8111617082575b61707481836104bb565b810190612c8c565b5f61700c565b503d61706a565b612d0f565b612c82565b9050600190565b6170b9905f3d81116170bf575b6170b181836104bb565b810190612c8c565b5f616e60565b503d6170a7565b612c82565b600293926170ec6020836170e46014956170f4976130d8565b0180926168a0565b018092612c1e565b0190565b61710260c06104e4565b90565b61710f9051610b98565b90565b906171a160a060056171a7946171355f820161712f5f88016126b8565b906126df565b61714e6001820161714860208801612991565b906129b4565b61716760028201617161604088016128eb565b90612916565b6171806003820161717a60608801617105565b90613dfe565b6171996004820161719360808801612991565b906129b4565b0192016129d4565b90612a06565b565b906171b391617112565b565b90565b5f5260205f2090565b5490565b6171ce816171c1565b8210156171e8576171e06001916171b8565b910201905f90565b610ec8565b908154916801000000000000000083101561721d578261721591600161721b950181556171c5565b90612739565b565b6104a7565b92836172508391617241866172356102c4565b948593602085016170cb565b602082018103825203826104bb565b61726261725c82611441565b91612c7c565b2061727a6004617274600584906120c6565b01610912565b61728c6172865f612415565b916105af565b14617299575b5050505050565b6173035f916172fc617308946172f388916172ea8b916172e18b6172d88993956172cf6001996172c76170f8565b9e8f0161266f565b60208d0161269c565b60408b01612680565b606089016137b7565b6080870161269c565b60a085016126aa565b60056120c6565b6171a9565b61733061732961732461731d60048590610e9c565b8590610eb2565b6171b5565b84906171ed565b9161736d6173676173617f1aeb96057aa4d3817195099c3aa1cf0abd345f56da9cb3608795698b258cc1c895610e90565b92611166565b92610738565b926173766102c4565b806173808161065d565b0390a45f80808080617292565b5f7f54525553545f53434f52455f53594e4345440000000000000000000000000000910152565b6173c160126020926109e5565b6173ca8161738d565b0190565b9160406173ff9294936173f86173ed606083018381035f8501526173b4565b966020830190610a2a565b0190610b9b565b565b909192617416617411600a612bff565b612275565b90635260590a90839061744b8661743c89936174306102c4565b94859360208501613e2a565b602082018103825203826104bb565b61745d61745782611441565b91612c7c565b2092803b1561751f576174835f809461748e6174776102c4565b97889687958694612c86565b8452600484016173ce565b03925af1801561751a576174ee575b509091906174e96174d76174d17f793059379ddc09cc307d7308bcbfa5d710a1a24d1039d5196430dfcec7436f8c93610e90565b93610738565b936174e06102c4565b91829182610f75565b0390a3565b61750d905f3d8111617513575b61750581836104bb565b810190612c8c565b5f61749d565b503d6174fb565b612d0f565b612c82565b91602061754592949361753e60408201965f830190610a2a565b0190610b9b565b565b9061755c6175568383906151b7565b15610323565b617564575050565b61757e5f92839263e2517d3f60e01b845260048401617524565b0390fdfea2646970667358221220eeff06ab9510a6c834cf419a4cf1074acf900f27d8c3ca8e47a2330996ec3eb664736f6c634300081e0033","linkReferences":{}},"methodIdentifiers":{"BRIDGE_ADMIN_ROLE()":"118c38c7","DEFAULT_ADMIN_ROLE()":"a217fddf","RELAYER_ROLE()":"926d7d7f","_decodeAndExecuteMessage(uint16,bytes)":"da928d69","activeChainIds(uint256)":"c97d172e","bridgeFee()":"82b12dd7","certPointers(bytes32)":"c9abe77c","certificateManager()":"c1c16140","chainNonces(uint16)":"c79e5788","configureSupportedChain(uint16,string,address,address,uint256,uint256,uint256)":"08d0473b","crossChainMessages(uint256)":"337f4de6","emergencyPauseEnabled()":"36174357","estimateFee(uint16,bytes)":"5b9c3a00","getBridgeStats()":"2165cbb7","getCertificatePointer(bytes32)":"2a1a033e","getChainConfig(uint16)":"c17786a0","getRoleAdmin(bytes32)":"248a9ca3","getSupportedChains()":"c4bffe2b","getUserCertificatesOnChain(address,uint16)":"5efa67aa","grantRole(bytes32,address)":"2f2ff15d","hasRole(bytes32,address)":"91d14854","isBridgeActive(uint16)":"90a82366","layerZeroEndpoint()":"07968db1","maxRetryAttempts()":"bbd8acbe","messageCounter()":"529c7588","pauseAllBridges(string)":"7535099e","processedMessages(bytes32)":"88ba16ab","receiveMessage(uint16,bytes,uint64,bytes)":"6edb3d3c","renounceRole(bytes32,address)":"36568abe","retryMessage(uint256)":"75c3c4c0","revokeRole(bytes32,address)":"d547741f","sendCrossChainMessage(uint16,uint8,address,bytes)":"328a58f4","setBridgeFee(uint256)":"998cdf83","supportedChains(uint16)":"10d58783","supportsInterface(bytes4)":"01ffc9a7","syncCertificateToChain(uint256,uint16)":"55952ba7","syncUserDataToChain(address,uint16,string)":"bd772623","unpauseAllBridges()":"fcfa9d3b","updateBridgeStatus(uint16,uint8)":"0da9d72b","userCertPointers(address,uint16,uint256)":"2b7ec923","verificationLogger()":"e1300c88","withdrawFees(address)":"164e68de"},"id":86}