{"abi":[{"type":"constructor","inputs":[{"name":"_verificationLogger","type":"address","internalType":"address"},{"name":"_economicIncentives","type":"address","internalType":"address"},{"name":"_trustScore","type":"address","internalType":"address"},{"name":"_systemToken","type":"address","internalType":"address"}],"stateMutability":"nonpayable"},{"type":"function","name":"ARBITRATOR_ROLE","inputs":[],"outputs":[{"name":"","type":"bytes32","internalType":"bytes32"}],"stateMutability":"view"},{"type":"function","name":"DEFAULT_ADMIN_ROLE","inputs":[],"outputs":[{"name":"","type":"bytes32","internalType":"bytes32"}],"stateMutability":"view"},{"type":"function","name":"DISPUTE_ADMIN_ROLE","inputs":[],"outputs":[{"name":"","type":"bytes32","internalType":"bytes32"}],"stateMutability":"view"},{"type":"function","name":"activeArbitrators","inputs":[{"name":"","type":"uint256","internalType":"uint256"}],"outputs":[{"name":"","type":"address","internalType":"address"}],"stateMutability":"view"},{"type":"function","name":"arbitratorStats","inputs":[{"name":"","type":"address","internalType":"address"}],"outputs":[{"name":"totalCases","type":"uint256","internalType":"uint256"},{"name":"correctDecisions","type":"uint256","internalType":"uint256"},{"name":"reputation","type":"uint256","internalType":"uint256"},{"name":"isActive","type":"bool","internalType":"bool"},{"name":"joinedAt","type":"uint256","internalType":"uint256"}],"stateMutability":"view"},{"type":"function","name":"arbitratorVotes","inputs":[{"name":"","type":"uint256","internalType":"uint256"},{"name":"","type":"address","internalType":"address"}],"outputs":[{"name":"hasVoted","type":"bool","internalType":"bool"},{"name":"supportsChallenger","type":"bool","internalType":"bool"},{"name":"timestamp","type":"uint256","internalType":"uint256"},{"name":"reasoning","type":"string","internalType":"string"},{"name":"confidence","type":"uint256","internalType":"uint256"}],"stateMutability":"view"},{"type":"function","name":"challengeBondAmount","inputs":[],"outputs":[{"name":"","type":"uint256","internalType":"uint256"}],"stateMutability":"view"},{"type":"function","name":"challengerDisputes","inputs":[{"name":"","type":"address","internalType":"address"},{"name":"","type":"uint256","internalType":"uint256"}],"outputs":[{"name":"","type":"uint256","internalType":"uint256"}],"stateMutability":"view"},{"type":"function","name":"createDispute","inputs":[{"name":"respondent","type":"address","internalType":"address"},{"name":"disputeType","type":"uint8","internalType":"enum DisputeResolution.DisputeType"},{"name":"title","type":"string","internalType":"string"},{"name":"description","type":"string","internalType":"string"},{"name":"evidenceUri","type":"string","internalType":"string"},{"name":"evidenceHash","type":"bytes32","internalType":"bytes32"}],"outputs":[{"name":"","type":"uint256","internalType":"uint256"}],"stateMutability":"nonpayable"},{"type":"function","name":"disputeCounter","inputs":[],"outputs":[{"name":"","type":"uint256","internalType":"uint256"}],"stateMutability":"view"},{"type":"function","name":"disputeEvidence","inputs":[{"name":"","type":"uint256","internalType":"uint256"},{"name":"","type":"uint256","internalType":"uint256"}],"outputs":[{"name":"submitter","type":"address","internalType":"address"},{"name":"evidenceType","type":"string","internalType":"string"},{"name":"evidenceUri","type":"string","internalType":"string"},{"name":"evidenceHash","type":"bytes32","internalType":"bytes32"},{"name":"submittedAt","type":"uint256","internalType":"uint256"},{"name":"description","type":"string","internalType":"string"}],"stateMutability":"view"},{"type":"function","name":"economicIncentives","inputs":[],"outputs":[{"name":"","type":"address","internalType":"contract IEconomicIncentives"}],"stateMutability":"view"},{"type":"function","name":"executionPeriod","inputs":[],"outputs":[{"name":"","type":"uint256","internalType":"uint256"}],"stateMutability":"view"},{"type":"function","name":"getDisputeDetails","inputs":[{"name":"disputeId","type":"uint256","internalType":"uint256"}],"outputs":[{"name":"description","type":"string","internalType":"string"},{"name":"evidenceUri","type":"string","internalType":"string"},{"name":"evidenceHash","type":"bytes32","internalType":"bytes32"},{"name":"createdAt","type":"uint256","internalType":"uint256"},{"name":"reviewDeadline","type":"uint256","internalType":"uint256"},{"name":"votingDeadline","type":"uint256","internalType":"uint256"},{"name":"executionDeadline","type":"uint256","internalType":"uint256"}],"stateMutability":"view"},{"type":"function","name":"getDisputeHeader","inputs":[{"name":"disputeId","type":"uint256","internalType":"uint256"}],"outputs":[{"name":"challenger","type":"address","internalType":"address"},{"name":"respondent","type":"address","internalType":"address"},{"name":"disputeType","type":"uint8","internalType":"enum DisputeResolution.DisputeType"},{"name":"title","type":"string","internalType":"string"},{"name":"status","type":"uint8","internalType":"enum DisputeResolution.DisputeStatus"}],"stateMutability":"view"},{"type":"function","name":"getDisputeVotes","inputs":[{"name":"disputeId","type":"uint256","internalType":"uint256"}],"outputs":[{"name":"forVotes","type":"uint256","internalType":"uint256"},{"name":"againstVotes","type":"uint256","internalType":"uint256"},{"name":"totalVotes","type":"uint256","internalType":"uint256"},{"name":"challengerWon","type":"bool","internalType":"bool"},{"name":"resolutionReason","type":"string","internalType":"string"},{"name":"resolutionHash","type":"bytes32","internalType":"bytes32"},{"name":"arbitrators","type":"address[]","internalType":"address[]"}],"stateMutability":"view"},{"type":"function","name":"getRoleAdmin","inputs":[{"name":"role","type":"bytes32","internalType":"bytes32"}],"outputs":[{"name":"","type":"bytes32","internalType":"bytes32"}],"stateMutability":"view"},{"type":"function","name":"grantRole","inputs":[{"name":"role","type":"bytes32","internalType":"bytes32"},{"name":"account","type":"address","internalType":"address"}],"outputs":[],"stateMutability":"nonpayable"},{"type":"function","name":"hasRole","inputs":[{"name":"role","type":"bytes32","internalType":"bytes32"},{"name":"account","type":"address","internalType":"address"}],"outputs":[{"name":"","type":"bool","internalType":"bool"}],"stateMutability":"view"},{"type":"function","name":"isArbitrator","inputs":[{"name":"","type":"address","internalType":"address"}],"outputs":[{"name":"","type":"bool","internalType":"bool"}],"stateMutability":"view"},{"type":"function","name":"maxArbitrators","inputs":[],"outputs":[{"name":"","type":"uint256","internalType":"uint256"}],"stateMutability":"view"},{"type":"function","name":"minArbitrators","inputs":[],"outputs":[{"name":"","type":"uint256","internalType":"uint256"}],"stateMutability":"view"},{"type":"function","name":"renounceRole","inputs":[{"name":"role","type":"bytes32","internalType":"bytes32"},{"name":"callerConfirmation","type":"address","internalType":"address"}],"outputs":[],"stateMutability":"nonpayable"},{"type":"function","name":"requiredArbitratorTrustScore","inputs":[],"outputs":[{"name":"","type":"uint256","internalType":"uint256"}],"stateMutability":"view"},{"type":"function","name":"respondentDisputes","inputs":[{"name":"","type":"address","internalType":"address"},{"name":"","type":"uint256","internalType":"uint256"}],"outputs":[{"name":"","type":"uint256","internalType":"uint256"}],"stateMutability":"view"},{"type":"function","name":"reviewPeriod","inputs":[],"outputs":[{"name":"","type":"uint256","internalType":"uint256"}],"stateMutability":"view"},{"type":"function","name":"revokeRole","inputs":[{"name":"role","type":"bytes32","internalType":"bytes32"},{"name":"account","type":"address","internalType":"address"}],"outputs":[],"stateMutability":"nonpayable"},{"type":"function","name":"supportsInterface","inputs":[{"name":"interfaceId","type":"bytes4","internalType":"bytes4"}],"outputs":[{"name":"","type":"bool","internalType":"bool"}],"stateMutability":"view"},{"type":"function","name":"systemToken","inputs":[],"outputs":[{"name":"","type":"address","internalType":"contract ISystemToken"}],"stateMutability":"view"},{"type":"function","name":"trustScore","inputs":[],"outputs":[{"name":"","type":"address","internalType":"contract ITrustScore"}],"stateMutability":"view"},{"type":"function","name":"userDisputes","inputs":[{"name":"","type":"address","internalType":"address"},{"name":"","type":"uint256","internalType":"uint256"}],"outputs":[{"name":"","type":"uint256","internalType":"uint256"}],"stateMutability":"view"},{"type":"function","name":"verificationLogger","inputs":[],"outputs":[{"name":"","type":"address","internalType":"contract IVerificationLogger"}],"stateMutability":"view"},{"type":"function","name":"voteOnDispute","inputs":[{"name":"disputeId","type":"uint256","internalType":"uint256"},{"name":"supportsChallenger","type":"bool","internalType":"bool"},{"name":"reasoning","type":"string","internalType":"string"},{"name":"confidence","type":"uint256","internalType":"uint256"}],"outputs":[],"stateMutability":"nonpayable"},{"type":"function","name":"votingPeriod","inputs":[],"outputs":[{"name":"","type":"uint256","internalType":"uint256"}],"stateMutability":"view"},{"type":"event","name":"ArbitratorAdded","inputs":[{"name":"arbitrator","type":"address","indexed":true,"internalType":"address"}],"anonymous":false},{"type":"event","name":"ArbitratorRemoved","inputs":[{"name":"arbitrator","type":"address","indexed":true,"internalType":"address"},{"name":"reason","type":"string","indexed":false,"internalType":"string"}],"anonymous":false},{"type":"event","name":"ArbitratorVoted","inputs":[{"name":"disputeId","type":"uint256","indexed":true,"internalType":"uint256"},{"name":"arbitrator","type":"address","indexed":true,"internalType":"address"},{"name":"supportsChallenger","type":"bool","indexed":false,"internalType":"bool"},{"name":"confidence","type":"uint256","indexed":false,"internalType":"uint256"}],"anonymous":false},{"type":"event","name":"ArbitratorsAssigned","inputs":[{"name":"disputeId","type":"uint256","indexed":true,"internalType":"uint256"},{"name":"arbitrators","type":"address[]","indexed":false,"internalType":"address[]"}],"anonymous":false},{"type":"event","name":"BondClaimed","inputs":[{"name":"disputeId","type":"uint256","indexed":true,"internalType":"uint256"},{"name":"claimer","type":"address","indexed":true,"internalType":"address"},{"name":"amount","type":"uint256","indexed":false,"internalType":"uint256"}],"anonymous":false},{"type":"event","name":"DisputeAppealed","inputs":[{"name":"disputeId","type":"uint256","indexed":true,"internalType":"uint256"},{"name":"appellant","type":"address","indexed":true,"internalType":"address"}],"anonymous":false},{"type":"event","name":"DisputeCreated","inputs":[{"name":"disputeId","type":"uint256","indexed":true,"internalType":"uint256"},{"name":"challenger","type":"address","indexed":true,"internalType":"address"},{"name":"respondent","type":"address","indexed":true,"internalType":"address"},{"name":"disputeType","type":"uint8","indexed":false,"internalType":"enum DisputeResolution.DisputeType"}],"anonymous":false},{"type":"event","name":"DisputeExecuted","inputs":[{"name":"disputeId","type":"uint256","indexed":true,"internalType":"uint256"},{"name":"executor","type":"address","indexed":true,"internalType":"address"}],"anonymous":false},{"type":"event","name":"DisputeResolved","inputs":[{"name":"disputeId","type":"uint256","indexed":true,"internalType":"uint256"},{"name":"challengerWon","type":"bool","indexed":false,"internalType":"bool"},{"name":"reason","type":"string","indexed":false,"internalType":"string"}],"anonymous":false},{"type":"event","name":"EvidenceSubmitted","inputs":[{"name":"disputeId","type":"uint256","indexed":true,"internalType":"uint256"},{"name":"submitter","type":"address","indexed":true,"internalType":"address"},{"name":"evidenceType","type":"string","indexed":false,"internalType":"string"}],"anonymous":false},{"type":"event","name":"RoleAdminChanged","inputs":[{"name":"role","type":"bytes32","indexed":true,"internalType":"bytes32"},{"name":"previousAdminRole","type":"bytes32","indexed":true,"internalType":"bytes32"},{"name":"newAdminRole","type":"bytes32","indexed":true,"internalType":"bytes32"}],"anonymous":false},{"type":"event","name":"RoleGranted","inputs":[{"name":"role","type":"bytes32","indexed":true,"internalType":"bytes32"},{"name":"account","type":"address","indexed":true,"internalType":"address"},{"name":"sender","type":"address","indexed":true,"internalType":"address"}],"anonymous":false},{"type":"event","name":"RoleRevoked","inputs":[{"name":"role","type":"bytes32","indexed":true,"internalType":"bytes32"},{"name":"account","type":"address","indexed":true,"internalType":"address"},{"name":"sender","type":"address","indexed":true,"internalType":"address"}],"anonymous":false},{"type":"error","name":"AccessControlBadConfirmation","inputs":[]},{"type":"error","name":"AccessControlUnauthorizedAccount","inputs":[{"name":"account","type":"address","internalType":"address"},{"name":"neededRole","type":"bytes32","internalType":"bytes32"}]},{"type":"error","name":"ReentrancyGuardReentrantCall","inputs":[]}],"bytecode":{"object":"0x6080604052346100335761001d610014610120565b92919091610422565b610025610038565b61453c61072d823961453c90f35b61003e565b60405190565b5f80fd5b601f801991011690565b634e487b7160e01b5f52604160045260245ffd5b9061006a90610042565b810190811060018060401b0382111761008257604052565b61004c565b9061009a610093610038565b9283610060565b565b5f80fd5b60018060a01b031690565b6100b4906100a0565b90565b6100c0816100ab565b036100c757565b5f80fd5b905051906100d8826100b7565b565b60808183031261011b576100f0825f83016100cb565b9261011861010184602085016100cb565b9361010f81604086016100cb565b936060016100cb565b90565b61009c565b61013e614c698038038061013381610087565b9283398101906100da565b90919293565b90565b90565b5f1b90565b61016361015e61016892610144565b61014a565b610147565b90565b6101745f61014f565b90565b7f35ec58e08e0a8789e1834b8719111cca1e6f9f21f8730af981830b615e2a9c4690565b90565b6101b26101ad6101b7926100a0565b61019b565b6100a0565b90565b6101c39061019e565b90565b6101cf906101ba565b90565b906101e360018060a01b039161014a565b9181191691161790565b6101f6906101ba565b90565b90565b9061021161020c610218926101ed565b6101f9565b82546101d2565b9055565b6102259061019e565b90565b6102319061021c565b90565b61023d9061021c565b90565b90565b9061025861025361025f92610234565b610240565b82546101d2565b9055565b61026c9061019e565b90565b61027890610263565b90565b61028490610263565b90565b90565b9061029f61029a6102a69261027b565b610287565b82546101d2565b9055565b6102b39061019e565b90565b6102bf906102aa565b90565b6102cb906102aa565b90565b90565b906102e66102e16102ed926102c2565b6102ce565b82546101d2565b9055565b90565b90565b61030b610306610310926102f1565b61019b565b6102f4565b90565b9061031f5f199161014a565b9181191691161790565b61033d610338610342926102f4565b61019b565b6102f4565b90565b90565b9061035d61035861036492610329565b610345565b8254610313565b9055565b90565b61037f61037a61038492610368565b61019b565b6102f4565b90565b90565b61039e6103996103a392610387565b61019b565b6102f4565b90565b90565b6103bd6103b86103c2926103a6565b61019b565b6102f4565b90565b90565b6103dc6103d76103e1926103c5565b61019b565b6102f4565b90565b90565b6103fb6103f6610400926103e4565b61019b565b6102f4565b90565b90565b61041a61041561041f92610403565b61019b565b6102f4565b90565b6104896104959361048461047d61049c979561047861047161049097610446610564565b61045861045161016b565b339061061b565b5061046b610464610177565b339061061b565b506101c6565b600c6101fc565b610228565b600d610243565b61026f565b600e61028a565b6102b6565b600f6102d1565b6104b86104b168056bc75e2d631000006102f7565b6010610348565b6104ce6104c762093a8061036b565b6011610348565b6104e46104dd6206978061038a565b6012610348565b6104fa6104f36203f4806103a9565b6013610348565b61050e61050760036103c8565b6014610348565b61052261051b60076103e7565b6015610348565b61053661052f6064610406565b6016610348565b565b90565b61054f61054a61055492610538565b61019b565b6102f4565b90565b610561600161053b565b90565b61057661056f610557565b6001610348565b565b5f90565b151590565b61058a90610147565b90565b9061059790610581565b5f5260205260405f2090565b6105ac9061019e565b90565b6105b8906105a3565b90565b906105c5906105af565b5f5260205260405f2090565b906105dd60ff9161014a565b9181191691161790565b6105f09061057c565b90565b90565b9061060b610606610612926105e7565b6105f3565b82546105d1565b9055565b5f0190565b610623610578565b506106386106328284906106f2565b1561057c565b5f146106c05761065f600161065a5f61065281869061058d565b0185906105bb565b6105f6565b9061066861071f565b906106a561069f6106997f2f8788117e7eff1d82e926ec794901d17c78024a50270940304540a733656f0d95610581565b926105af565b926105af565b926106ae610038565b806106b881610616565b0390a4600190565b50505f90565b5f1c90565b60ff1690565b6106dd6106e2916106c6565b6106cb565b90565b6106ef90546106d1565b90565b610718915f61070d61071393610706610578565b508261058d565b016105bb565b6106e5565b90565b5f90565b61072761071b565b50339056fe60806040526004361015610013575b611a5d565b61001d5f3561023c565b806301ffc9a71461023757806302a251a31461023257806308b128ea1461022d578063162208b21461022857806316b4f5291461022357806318f7f0881461021e578063248a9ca3146102195780632d5db630146102145780632f2ff15d1461020f5780633078d9981461020a57806336568abe146102055780633b0b7706146102005780633b249810146101fb5780633dc04159146101f65780634e6d70de146101f157806350af544a146101ec57806360f43d87146101e757806361bb029d146101e25780637d36f4d3146101dd5780637fde7536146101d857806391d14854146101d35780639cea0787146101ce5780639f6bd2a9146101c9578063a217fddf146101c4578063b3e9247a146101bf578063c4736092146101ba578063d11d0d58146101b5578063d547741f146101b0578063d734b63f146101ab578063e1300c88146101a6578063e74ba17b146101a1578063ea89735d1461019c578063fa8a19df146101975763fbb8a0610361000e57611a24565b611923565b611879565b6117d2565b611701565b61165e565b61161b565b6115e6565b61159b565b611452565b6113ee565b61137e565b6112f4565b61128f565b611256565b611154565b611110565b6110cc565b611022565b610f21565b610dc5565b610d5b565b610d17565b610cd4565b610c9f565b610bfd565b610b8e565b6109a4565b610904565b6105a7565b610562565b6104f7565b61036d565b6102c8565b60e01c90565b60405190565b5f80fd5b5f80fd5b5f80fd5b63ffffffff60e01b1690565b61026981610254565b0361027057565b5f80fd5b9050359061028182610260565b565b9060208282031261029c57610299915f01610274565b90565b61024c565b151590565b6102af906102a1565b9052565b91906102c6905f602085019401906102a6565b565b346102f8576102f46102e36102de366004610283565b611a65565b6102eb610242565b918291826102b3565b0390f35b610248565b5f91031261030757565b61024c565b1c90565b90565b610323906008610328930261030c565b610310565b90565b906103369154610313565b90565b61034560125f9061032b565b90565b90565b61035490610348565b9052565b919061036b905f6020850194019061034b565b565b3461039d5761037d3660046102fd565b610399610388610339565b610390610242565b91829182610358565b0390f35b610248565b60018060a01b031690565b6103b6906103a2565b90565b6103c2816103ad565b036103c957565b5f80fd5b905035906103da826103b9565b565b6103e581610348565b036103ec57565b5f80fd5b905035906103fd826103dc565b565b9190604083820312610427578061041b610424925f86016103cd565b936020016103f0565b90565b61024c565b90565b61044361043e610448926103a2565b61042c565b6103a2565b90565b6104549061042f565b90565b6104609061044b565b90565b9061046d90610457565b5f5260205260405f2090565b634e487b7160e01b5f52603260045260245ffd5b5490565b5f5260205f2090565b6104a38161048d565b8210156104bd576104b5600191610491565b910201905f90565b610479565b6104cd906006610463565b6104d68161048d565b8210156104f3576104f0916104ea9161049a565b9061032b565b90565b5f80fd5b346105285761052461051361050d3660046103ff565b906104c2565b61051b610242565b91829182610358565b0390f35b610248565b610538906007610463565b6105418161048d565b82101561055e5761055b916105559161049a565b9061032b565b90565b5f80fd5b346105935761058f61057e6105783660046103ff565b9061052d565b610586610242565b91829182610358565b0390f35b610248565b6105a460155f9061032b565b90565b346105d7576105b73660046102fd565b6105d36105c2610598565b6105ca610242565b91829182610358565b0390f35b610248565b919060408382031261060457806105f8610601925f86016103f0565b936020016103cd565b90565b61024c565b61061d61061861062292610348565b61042c565b610348565b90565b9061062f90610609565b5f5260205260405f2090565b9061064590610457565b5f5260205260405f2090565b5f1c90565b60ff1690565b61066861066d91610651565b610656565b90565b61067a905461065c565b90565b60081c90565b61068f6106949161067d565b610656565b90565b6106a19054610683565b90565b6106b06106b591610651565b610310565b90565b6106c290546106a4565b90565b634e487b7160e01b5f52602260045260245ffd5b90600160028304921680156106f9575b60208310146106f457565b6106c5565b91607f16916106e9565b60209181520190565b5f5260205f2090565b905f929180549061072f610728836106d9565b8094610703565b916001811690815f14610786575060011461074a575b505050565b610757919293945061070c565b915f925b81841061076e57505001905f8080610745565b6001816020929593955484860152019101929061075b565b92949550505060ff19168252151560200201905f8080610745565b906107ab91610715565b90565b601f801991011690565b634e487b7160e01b5f52604160045260245ffd5b906107d6906107ae565b810190811067ffffffffffffffff8211176107f057604052565b6107b8565b9061081561080e92610805610242565b938480926107a1565b03836107cc565b565b9061082661082b926003610625565b61063b565b6108365f8201610670565b916108425f8301610697565b9161084f600182016106b8565b916108686003610861600285016107f5565b93016106b8565b90565b5190565b60209181520190565b90825f9392825e0152565b6108a26108ab6020936108b0936108998161086b565b9384809361086f565b95869101610878565b6107ae565b0190565b610902946108ed829897956108e36080966108d96108fa975f60a089019801906102a6565b60208c01906102a6565b60408a019061034b565b8782036060890152610883565b94019061034b565b565b346109395761093561092061091a3660046105dc565b90610817565b9161092c959395610242565b958695866108b4565b0390f35b610248565b90565b61094a8161093e565b0361095157565b5f80fd5b9050359061096282610941565b565b9060208282031261097d5761097a915f01610955565b90565b61024c565b61098b9061093e565b9052565b91906109a2905f60208501940190610982565b565b346109d4576109d06109bf6109ba366004610964565b611acb565b6109c7610242565b9182918261098f565b0390f35b610248565b9190604083820312610a0157806109f56109fe925f86016103f0565b936020016103f0565b90565b61024c565b90610a1090610609565b5f5260205260405f2090565b5490565b5f5260205f2090565b610a3281610a1c565b821015610a4c57610a44600691610a20565b910201905f90565b610479565b60018060a01b031690565b610a68610a6d91610651565b610a51565b90565b610a7a9054610a5c565b90565b90565b610a8c610a9191610651565b610a7d565b90565b610a9e9054610a80565b90565b610aac906004610a06565b90610ab682610a1c565b811015610b1657610ac691610a29565b5090610ad35f8301610a70565b91610ae0600182016107f5565b91610aed600283016107f5565b91610afa60038201610a94565b91610b136005610b0c600485016106b8565b93016107f5565b90565b5f80fd5b610b23906103ad565b9052565b92610b69610b7491610b5b610b8b99979894610b7e96610b4e60c08a01925f8b0190610b1a565b88820360208a0152610883565b908682036040880152610883565b956060850190610982565b608083019061034b565b60a0818403910152610883565b90565b34610bc657610bc2610baa610ba43660046109d9565b90610aa1565b92610bb9969496929192610242565b96879687610b27565b0390f35b610248565b9190604083820312610bf35780610be7610bf0925f8601610955565b936020016103cd565b90565b61024c565b5f0190565b34610c2c57610c16610c10366004610bcb565b90611b16565b610c1e610242565b80610c2881610bf8565b0390f35b610248565b60018060a01b031690565b610c4c906008610c51930261030c565b610c31565b90565b90610c5f9154610c3c565b90565b610c6e600e5f90610c54565b90565b610c7a9061044b565b90565b610c8690610c71565b9052565b9190610c9d905f60208501940190610c7d565b565b34610ccf57610caf3660046102fd565b610ccb610cba610c62565b610cc2610242565b91829182610c8a565b0390f35b610248565b34610d0357610ced610ce7366004610bcb565b90611b22565b610cf5610242565b80610cff81610bf8565b0390f35b610248565b610d1460165f9061032b565b90565b34610d4757610d273660046102fd565b610d43610d32610d08565b610d3a610242565b91829182610358565b0390f35b610248565b610d5860115f9061032b565b90565b34610d8b57610d6b3660046102fd565b610d87610d76610d4c565b610d7e610242565b91829182610358565b0390f35b610248565b610d9b906005610463565b610da48161048d565b821015610dc157610dbe91610db89161049a565b9061032b565b90565b5f80fd5b34610df657610df2610de1610ddb3660046103ff565b90610d90565b610de9610242565b91829182610358565b0390f35b610248565b610e04816102a1565b03610e0b57565b5f80fd5b90503590610e1c82610dfb565b565b5f80fd5b5f80fd5b90610e39610e32610242565b92836107cc565b565b67ffffffffffffffff8111610e5957610e556020916107ae565b0190565b6107b8565b90825f939282370152565b90929192610e7e610e7982610e3b565b610e26565b93818552602085019082840111610e9a57610e9892610e5e565b565b610e22565b9080601f83011215610ebd57816020610eba93359101610e69565b90565b610e1e565b608081830312610f1c57610ed8825f83016103f0565b92610ee68360208401610e0f565b9260408301359067ffffffffffffffff8211610f1757610f0b81610f14938601610e9f565b936060016103f0565b90565b610250565b61024c565b34610f5357610f3d610f34366004610ec2565b929190916126f2565b610f45610242565b80610f4f81610bf8565b0390f35b610248565b60071115610f6257565b5f80fd5b90503590610f7382610f58565b565b909160c08284031261101d57610f8d835f84016103cd565b92610f9b8160208501610f66565b92604081013567ffffffffffffffff81116110185782610fbc918301610e9f565b92606082013567ffffffffffffffff81116110135783610fdd918401610e9f565b9260808301359067ffffffffffffffff821161100e576110028161100b938601610e9f565b9360a001610955565b90565b610250565b610250565b610250565b61024c565b3461105957611055611044611038366004610f75565b949390939291926135c6565b61104c610242565b91829182610358565b0390f35b610248565b60018060a01b031690565b61107990600861107e930261030c565b61105e565b90565b9061108c9154611069565b90565b61109b600d5f90611081565b90565b6110a79061044b565b90565b6110b39061109e565b9052565b91906110ca905f602085019401906110aa565b565b346110fc576110dc3660046102fd565b6110f86110e761108f565b6110ef610242565b918291826110b7565b0390f35b610248565b61110d60145f9061032b565b90565b34611140576111203660046102fd565b61113c61112b611101565b611133610242565b91829182610358565b0390f35b610248565b611151600a5f9061032b565b90565b34611184576111643660046102fd565b61118061116f611145565b611177610242565b91829182610358565b0390f35b610248565b906020828203126111a25761119f915f016103cd565b90565b61024c565b906111b190610457565b5f5260205260405f2090565b6111c89060086111a7565b6111d35f82016106b8565b916111e0600183016106b8565b916111ed600282016106b8565b9161120660046111ff60038501610670565b93016106b8565b90565b909594926112549461124361124d9261123960809661122f60a088019c5f89019061034b565b602087019061034b565b604085019061034b565b60608301906102a6565b019061034b565b565b3461128a5761128661127161126c366004611189565b6111bd565b9161127d959395610242565b95869586611209565b0390f35b610248565b346112c0576112bc6112ab6112a5366004610bcb565b906135df565b6112b3610242565b918291826102b3565b0390f35b610248565b7f16ceee8289685dd2a02b9c8ae81d2df373176ce53519e6284e2a2950d6546ffa90565b6112f16112c5565b90565b34611324576113043660046102fd565b61132061130f6112e9565b611317610242565b9182918261098f565b0390f35b610248565b9061133390610457565b5f5260205260405f2090565b61134f906008611354930261030c565b610656565b90565b90611362915461133f565b90565b61137b906113766009915f92611329565b611357565b90565b346113ae576113aa611399611394366004611189565b611365565b6113a1610242565b918291826102b3565b0390f35b610248565b90565b5f1b90565b6113cf6113ca6113d4926113b3565b6113b6565b61093e565b90565b6113e05f6113bb565b90565b6113eb6113d7565b90565b3461141e576113fe3660046102fd565b61141a6114096113e3565b611411610242565b9182918261098f565b0390f35b610248565b7f35ec58e08e0a8789e1834b8719111cca1e6f9f21f8730af981830b615e2a9c4690565b61144f611423565b90565b34611482576114623660046102fd565b61147e61146d611447565b611475610242565b9182918261098f565b0390f35b610248565b906020828203126114a05761149d915f016103f0565b90565b61024c565b5190565b60209181520190565b60200190565b6114c1906103ad565b9052565b906114d2816020936114b8565b0190565b60200190565b906114f96114f36114ec846114a5565b80936114a9565b926114b2565b905f5b8181106115095750505090565b90919261152261151c60019286516114c5565b946114d6565b91019190916114fc565b9394611573611598989661156961158b9661155f6115809761155560e08c01985f8d019061034b565b60208b019061034b565b604089019061034b565b60608701906102a6565b8482036080860152610883565b9360a0830190610982565b60c08184039101526114dc565b90565b346115d2576115ce6115b66115b1366004611487565b6136cc565b936115c5979597939193610242565b9788978861152c565b0390f35b610248565b6115e360135f9061032b565b90565b34611616576115f63660046102fd565b6116126116016115d7565b611609610242565b91829182610358565b0390f35b610248565b3461164a5761163461162e366004610bcb565b906137a4565b61163c610242565b8061164681610bf8565b0390f35b610248565b61165b60105f9061032b565b90565b3461168e5761166e3660046102fd565b61168a61167961164f565b611681610242565b91829182610358565b0390f35b610248565b60018060a01b031690565b6116ae9060086116b3930261030c565b611693565b90565b906116c1915461169e565b90565b6116d0600c5f906116b6565b90565b6116dc9061044b565b90565b6116e8906116d3565b9052565b91906116ff905f602085019401906116df565b565b34611731576117113660046102fd565b61172d61171c6116c4565b611724610242565b918291826116ec565b0390f35b610248565b5490565b5f5260205f2090565b61174c81611736565b8210156117665761175e60019161173a565b910201905f90565b610479565b61177b906008611780930261030c565b610a51565b90565b9061178e915461176b565b90565b600b61179c81611736565b8210156117b9576117b6916117b091611743565b90611783565b90565b5f80fd5b91906117d0905f60208501940190610b1a565b565b34611802576117fe6117ed6117e8366004611487565b611791565b6117f5610242565b918291826117bd565b0390f35b610248565b929796946118669061185c60c096611852611847611870976118396118779d9860e08c01908c5f818403910152610883565b908a820360208c0152610883565b9c6040890190610982565b606087019061034b565b608085019061034b565b60a083019061034b565b019061034b565b565b346118b0576118ac61189461188f366004611487565b6137b0565b936118a3979597939193610242565b97889788611807565b0390f35b610248565b60018060a01b031690565b6118d09060086118d5930261030c565b6118b5565b90565b906118e391546118c0565b90565b6118f2600f5f906118d8565b90565b6118fe9061044b565b90565b61190a906118f5565b9052565b9190611921905f60208501940190611901565b565b34611953576119333660046102fd565b61194f61193e6118e6565b611946610242565b9182918261190e565b0390f35b610248565b634e487b7160e01b5f52602160045260245ffd5b6007111561197657565b611958565b906119858261196c565b565b6119909061197b565b90565b61199c90611987565b9052565b600811156119aa57565b611958565b906119b9826119a0565b565b6119c4906119af565b90565b6119d0906119bb565b9052565b611a2294611a0d82989795611a036080966119f9611a1a975f60a08901980190610b1a565b60208c0190610b1a565b60408a0190611993565b8782036060890152610883565b9401906119c7565b565b34611a5857611a54611a3f611a3a366004611487565b61389d565b91611a4b959395610242565b958695866119d4565b0390f35b610248565b5f80fd5b5f90565b611a6d611a61565b5080611a88611a82637965db0b60e01b610254565b91610254565b14908115611a95575b5090565b611a9f915061391f565b5f611a91565b5f90565b611ab29061093e565b90565b90611abf90611aa9565b5f5260205260405f2090565b6001611ae3611ae992611adc611aa5565b505f611ab5565b01610a94565b90565b90611b0791611b02611afd82611acb565b613945565b611b09565b565b90611b1391613959565b50565b90611b2091611aec565b565b9080611b3d611b37611b32613a04565b6103ad565b916103ad565b03611b4e57611b4b91613a11565b50565b5f63334bd91960e11b815280611b6660048201610bf8565b0390fd5b90611b86939291611b81611b7c6112c5565b613945565b6123a8565b565b90611b9290610609565b5f5260205260405f2090565b90565b60ff1690565b611bb3611bb891610651565b611ba1565b90565b611bc59054611ba7565b90565b5f7f4e6f7420696e20766f74696e6720706861736500000000000000000000000000910152565b611bfc601360209261086f565b611c0581611bc8565b0190565b611c1e9060208101905f818303910152611bef565b90565b15611c2857565b611c30610242565b62461bcd60e51b815280611c4660048201611c09565b0390fd5b5f7f566f74696e6720706572696f6420657870697265640000000000000000000000910152565b611c7e601560209261086f565b611c8781611c4a565b0190565b611ca09060208101905f818303910152611c71565b90565b15611caa57565b611cb2610242565b62461bcd60e51b815280611cc860048201611c8b565b0390fd5b5f7f4e6f742061737369676e65642061726269747261746f72000000000000000000910152565b611d00601760209261086f565b611d0981611ccc565b0190565b611d229060208101905f818303910152611cf3565b90565b15611d2c57565b611d34610242565b62461bcd60e51b815280611d4a60048201611d0d565b0390fd5b5f7f416c726561647920766f74656400000000000000000000000000000000000000910152565b611d82600d60209261086f565b611d8b81611d4e565b0190565b611da49060208101905f818303910152611d75565b90565b15611dae57565b611db6610242565b62461bcd60e51b815280611dcc60048201611d8f565b0390fd5b90565b611de7611de2611dec92611dd0565b61042c565b610348565b90565b90565b611e06611e01611e0b92611def565b61042c565b610348565b90565b5f7f496e76616c696420636f6e666964656e6365206c6576656c0000000000000000910152565b611e42601860209261086f565b611e4b81611e0e565b0190565b611e649060208101905f818303910152611e35565b90565b15611e6e57565b611e76610242565b62461bcd60e51b815280611e8c60048201611e4f565b0390fd5b611e9a60a0610e26565b90565b90611ea7906102a1565b9052565b90611eb590610348565b9052565b52565b634e487b7160e01b5f525f60045260245ffd5b611ed990516102a1565b90565b90611ee860ff916113b6565b9181191691161790565b611efb906102a1565b90565b90565b90611f16611f11611f1d92611ef2565b611efe565b8254611edc565b9055565b60081b90565b90611f3461ff0091611f21565b9181191691161790565b90611f53611f4e611f5a92611ef2565b611efe565b8254611f27565b9055565b611f689051610348565b90565b90611f775f19916113b6565b9181191691161790565b90565b90611f99611f94611fa092610609565b611f81565b8254611f6b565b9055565b5190565b601f602091010490565b1b90565b91906008611fd1910291611fcb5f1984611fb2565b92611fb2565b9181191691161790565b9190611ff1611fec611ff993610609565b611f81565b908354611fb6565b9055565b5f90565b6120139161200d611ffd565b91611fdb565b565b5b818110612021575050565b8061202e5f600193612001565b01612016565b9190601f8111612044575b505050565b6120506120759361070c565b90602061205c84611fa8565b8301931061207d575b61206e90611fa8565b0190612015565b5f808061203f565b915061206e81929050612065565b9061209b905f199060080261030c565b191690565b816120aa9161208b565b906002021790565b906120bc8161086b565b9067ffffffffffffffff821161217c576120e0826120da85546106d9565b85612034565b602090601f831160011461211457918091612103935f92612108575b50506120a0565b90555b565b90915001515f806120fc565b601f198316916121238561070c565b925f5b8181106121645750916002939185600196941061214a575b50505002019055612106565b61215a910151601f84169061208b565b90555f808061213e565b91936020600181928787015181550195019201612126565b6107b8565b9061218b916120b2565b565b9061220260806003612208946121b05f82016121aa5f8801611ecf565b90611f01565b6121c85f82016121c260208801611ecf565b90611f3e565b6121e1600182016121db60408801611f5e565b90611f84565b6121fa600282016121f460608801611fa4565b90612181565b019201611f5e565b90611f84565b565b906122149161218d565b565b634e487b7160e01b5f52601160045260245ffd5b61223390610348565b5f1981146122415760010190565b612216565b61225261225791610651565b611693565b90565b6122649054612246565b90565b90565b61227661227b91610348565b612267565b9052565b60f81b90565b61228e9061227f565b90565b61229a90612285565b90565b6122a96122ae916102a1565b612291565b9052565b602093926122d285836122ca6001956122da9761226a565b01809261229d565b01809261226a565b0190565b60200190565b5190565b5f80fd5b60e01b90565b5f9103126122fc57565b61024c565b5f7f41524249545241544f525f564f54454400000000000000000000000000000000910152565b612335601060209261086f565b61233e81612301565b0190565b91604061237392949361236c612361606083018381035f850152612328565b966020830190610b1a565b0190610982565b565b61237d610242565b3d5f823e3d90fd5b9160206123a692949361239f60408201965f8301906102a6565b019061034b565b565b92916124e26123c16123bc60028790611b88565b611b9e565b916123ea6123d1600c8501611bbb565b6123e46123de60026119af565b916119af565b14611c21565b6124124261240b612405612400600a88016106b8565b610348565b91610348565b1115611ca3565b612425612420873390613ac1565b611d25565b61245661245161244b5f61244561243e60038c90610625565b339061063b565b01610670565b156102a1565b611da7565b8461246a6124646001611dd3565b91610348565b1015806126d1575b61247b90611e67565b6124c76001916124be86916124b5426124ac8b956124a361249a611e90565b995f8b01611e9d565b60208901611e9d565b60408701611eab565b60608501611eb9565b60808301611eab565b6124dd6124d660038890610625565b339061063b565b61220a565b612500601082016124fa6124f5826106b8565b61222a565b90611f84565b815f146126ae57612525600e820161251f61251a826106b8565b61222a565b90611f84565b5b61254e5f612536600833906111a7565b01612548612543826106b8565b61222a565b90611f84565b61256061255b600c61225a565b6116d3565b92635260590a3386612594869161258586612579610242565b948593602085016122b2565b602082018103825203826107cc565b6125a66125a0826122e4565b916122de565b2095803b156126a9576125cc5f80946125d76125c0610242565b9a8b96879586946122ec565b845260048401612342565b03925af19283156126a45761264494601094612678575b50853391926126266126207f1f2787e26edbaa5609d65941b843bd4038227727728d11b579f2fc9e87ae6efd93610609565b93610457565b9361263b612632610242565b92839283612385565b0390a3016106b8565b61265f61265961265460146106b8565b610348565b91610348565b1015612669575b50565b61267290613bed565b5f612666565b612697905f3d811161269d575b61268f81836107cc565b8101906122f2565b5f6125ee565b503d612685565b612375565b6122e8565b6126cc600f82016126c66126c1826106b8565b61222a565b90611f84565b612526565b5061247b856126e96126e36064611df2565b91610348565b11159050612472565b906126fe939291611b6a565b565b90612717969594939291612712613cb7565b612fdd565b90612720613d1c565b565b61273661273161273b926113b3565b61042c565b6103a2565b90565b61274790612722565b90565b5f7f496e76616c696420726573706f6e64656e740000000000000000000000000000910152565b61277e601260209261086f565b6127878161274a565b0190565b6127a09060208101905f818303910152612771565b90565b156127aa57565b6127b2610242565b62461bcd60e51b8152806127c86004820161278b565b0390fd5b90565b6127e36127de6127e8926113b3565b61042c565b610348565b90565b5f7f5469746c65207265717569726564000000000000000000000000000000000000910152565b61281f600e60209261086f565b612828816127eb565b0190565b6128419060208101905f818303910152612812565b90565b1561284b57565b612853610242565b62461bcd60e51b8152806128696004820161282c565b0390fd5b5f7f4465736372697074696f6e207265717569726564000000000000000000000000910152565b6128a1601460209261086f565b6128aa8161286d565b0190565b6128c39060208101905f818303910152612894565b90565b156128cd57565b6128d5610242565b62461bcd60e51b8152806128eb600482016128ae565b0390fd5b6128fb61290091610651565b6118b5565b90565b61290d90546128ef565b90565b9050519061291d826103dc565b565b9060208282031261293857612935915f01612910565b90565b61024c565b5f7f496e73756666696369656e742062616c616e636520666f7220626f6e64000000910152565b612971601d60209261086f565b61297a8161293d565b0190565b6129939060208101905f818303910152612964565b90565b1561299d57565b6129a5610242565b62461bcd60e51b8152806129bb6004820161297e565b0390fd5b6129c89061044b565b90565b905051906129d882610dfb565b565b906020828203126129f3576129f0915f016129cb565b90565b61024c565b604090612a21612a289496959396612a1760608401985f850190610b1a565b6020830190610b1a565b019061034b565b565b5f7f426f6e64207472616e73666572206661696c6564000000000000000000000000910152565b612a5e601460209261086f565b612a6781612a2a565b0190565b612a809060208101905f818303910152612a51565b90565b15612a8a57565b612a92610242565b62461bcd60e51b815280612aa860048201612a6b565b0390fd5b90612abd60018060a01b03916113b6565b9181191691161790565b90565b90612adf612ada612ae692610457565b612ac7565b8254612aac565b9055565b60a01b90565b90612aff60ff60a01b91612aea565b9181191691161790565b612b129061197b565b90565b90565b90612b2d612b28612b3492612b09565b612b15565b8254612af0565b9055565b612b4190610651565b90565b90612b59612b54612b6092611aa9565b612b38565b8254611f6b565b9055565b612b73612b7991939293610348565b92610348565b8201809211612b8457565b612216565b612b92906119af565b90565b90565b90612bad612ba8612bb492612b89565b612b95565b8254611edc565b9055565b90565b612bc560c0610e26565b90565b90612bd2906103ad565b9052565b90612be8612be383610e3b565b610e26565b918252565b5f7f696e697469616c00000000000000000000000000000000000000000000000000910152565b612c1e6007612bd6565b90612c2b60208301612bed565b565b612c35612c14565b90565b90612c429061093e565b9052565b5f7f496e697469616c20646973707574652065766964656e63650000000000000000910152565b612c776018612bd6565b90612c8460208301612c46565b565b612c8e612c6d565b90565b5f5260205f2090565b5490565b612ca781612c9a565b821015612cc157612cb9600691612c91565b910201905f90565b610479565b612cd090516103ad565b90565b612cdd905161093e565b90565b90612d6f60a06005612d7594612d035f8201612cfd5f8801612cc6565b90612aca565b612d1c60018201612d1660208801611fa4565b90612181565b612d3560028201612d2f60408801611fa4565b90612181565b612d4e60038201612d4860608801612cd3565b90612b44565b612d6760048201612d6160808801611f5e565b90611f84565b019201611fa4565b90612181565b565b9190612d8857612d8691612ce0565b565b611ebc565b9081549168010000000000000000831015612dbd5782612db5916001612dbb95018155612c9e565b90612d77565b565b6107b8565b90565b5f5260205f2090565b5490565b612ddb81612dce565b821015612df557612ded600191612dc5565b910201905f90565b610479565b9081549168010000000000000000831015612e2a5782612e22916001612e2895018155612dd2565b90611fdb565b565b6107b8565b612e3b612e4091610651565b610c31565b90565b612e4d9054612e2f565b90565b90565b90565b612e6a612e65612e6f92612e50565b61042c565b612e53565b90565b612e7b90612e56565b9052565b5f7f4372656174656420646973707574650000000000000000000000000000000000910152565b612eb3600f60209261086f565b612ebc81612e7f565b0190565b612ee2612eef93612ed860608401945f850190610b1a565b6020830190612e72565b6040818303910152612ea6565b90565b612efb9061197b565b90565b905090565b612f28612f1f92602092612f168161086b565b94858093612efe565b93849101610878565b0190565b602093928482612f42612f4994612f509661226a565b0190612f03565b809261226a565b0190565b5f7f444953505554455f435245415445440000000000000000000000000000000000910152565b612f88600f60209261086f565b612f9181612f54565b0190565b916040612fc6929493612fbf612fb4606083018381035f850152612f7b565b966020830190610b1a565b0190610982565b565b9190612fdb905f60208501940190611993565b565b959193959490945084613000612ffa612ff55f61273e565b6103ad565b916103ad565b1415806135a6575b613011906127a3565b61303d613025613020856127cc565b6122e4565b6130376130315f6127cf565b91610348565b11612844565b61306961305161304c886127cc565b6122e4565b61306361305d5f6127cf565b91610348565b116128c6565b6130aa602061308061307b600f612903565b6118f5565b6370a082319061309f3392613093610242565b958694859384936122ec565b8352600483016117bd565b03915afa80156135a1576130e2915f91613573575b506130db6130d56130d060106106b8565b610348565b91610348565b1015612996565b6130f46130ef600f612903565b6118f5565b60206323b872dd91339061312d5f61310b306129bf565b9561313861311960106106b8565b613121610242565b988997889687956122ec565b8552600485016129f8565b03925af1801561356e57613153915f91613540575b50612a83565b61316f613168613163600a6106b8565b61222a565b600a611f84565b61324561317c600a6106b8565b966131de61319461318f60028b90611b88565b611b9e565b916131a18a5f8501611f84565b6131ae3360018501612aca565b6131bb8960028501612aca565b6131c88860028501612b18565b6131d58760038501612181565b60048301612181565b6131eb8360058301612181565b6131f88460068301612b44565b61320e61320560106106b8565b60078301611f84565b61321b4260088301611f84565b61323b6132324261322c60116106b8565b90612b64565b60098301611f84565b600c5f9101612b98565b613256613251826127cc565b6122e4565b6132686132625f6127cf565b91610348565b116134b6575b505061328e61328761328260053390610463565b612dc2565b8590612dfa565b6132ac6132a56132a060058690610463565b612dc2565b8590612dfa565b6132ca6132c36132be60063390610463565b612dc2565b8590612dfa565b6132e86132e16132dc60078690610463565b612dc2565b8590612dfa565b6132f184613f83565b6133036132fe600e612e43565b610c71565b630cc9ec5b3360041992803b156134b1576133315f809461333c613325610242565b978896879586946122ec565b845260048401612ec0565b03925af180156134ac57613480575b5061335e613359600c61225a565b6116d3565b90635260590a90339061339a8761338b61337788612ef2565b61337f610242565b94859360208501612f2c565b602082018103825203826107cc565b6133ac6133a6826122e4565b916122de565b2092803b1561347b576133d25f80946133dd6133c6610242565b978896879586946122ec565b845260048401612f95565b03925af180156134765761344a575b5082913390919261344461343261342c6134267fdeb55b9d6980417a1b128597c9c09faba1f4f367707d09aa3723b933e9cf0a4b94610609565b94610457565b94610457565b9461343b610242565b91829182612fc8565b0390a490565b613469905f3d811161346f575b61346181836107cc565b8101906122f2565b5f6133ec565b503d613457565b612375565b6122e8565b61349f905f3d81116134a5575b61349781836107cc565b8101906122f2565b5f61334b565b503d61348d565b612375565b6122e8565b613539916135206134d16134cc60048a90610a06565b612bb8565b9161351733949161350e42936134f16134e8612bbb565b985f8a01612bc8565b6135056134fc612c2d565b60208a01611eb9565b60408801611eb9565b60608601612c38565b60808401611eab565b61353461352b612c86565b60a08401611eb9565b612d8d565b5f8061326e565b613561915060203d8111613567575b61355981836107cc565b8101906129da565b5f61314d565b503d61354f565b612375565b613594915060203d811161359a575b61358c81836107cc565b81019061291f565b5f6130bf565b503d613582565b612375565b50613011856135bd6135b7336103ad565b916103ad565b14159050613008565b906135dc95949392916135d7611ffd565b612700565b90565b613605915f6135fa613600936135f3611a61565b5082611ab5565b01611329565b610670565b90565b606090565b606090565b61361b906107f5565b90565b60209181520190565b6136319054610a5c565b90565b60010190565b9061365761365161364a84611736565b809361361e565b9261173a565b905f5b8181106136675750505090565b90919261368761368160019261367c87613627565b6114c5565b94613634565b910191909161365a565b9061369b9161363a565b90565b906136be6136b7926136ae610242565b93848092613691565b03836107cc565b565b6136c99061369e565b90565b61371961371e916136db611ffd565b506136e4611ffd565b506136ed611ffd565b506136f6611a61565b506136ff613608565b50613708611aa5565b5061371161360d565b506002611b88565b611b9e565b61372a600e82016106b8565b91613737600f83016106b8565b91613744601082016106b8565b91613751600c8301610697565b9161375e60118201613612565b91613777600d61377060128501610a94565b93016136c0565b90565b906137959161379061378b82611acb565b613945565b613797565b565b906137a191613a11565b50565b906137ae9161377a565b565b6137fd613802916137bf613608565b506137c8613608565b506137d1611aa5565b506137da611ffd565b506137e3611ffd565b506137ec611ffd565b506137f5611ffd565b506002611b88565b611b9e565b60048101600582019261381760068401610a94565b92613824600882016106b8565b92613831600983016106b8565b9261385c613856613850600b613849600a88016106b8565b96016106b8565b93613612565b97613612565b959493929190565b5f90565b5f90565b5f90565b60a01c90565b60ff1690565b61388861388d91613870565b613876565b90565b61389a905461387c565b90565b6138d86138dd916138ac613864565b506138b5613864565b506138be613868565b506138c7613608565b506138d061386c565b506002611b88565b611b9e565b6138e960018201610a70565b916138f660028301610a70565b9161390360028201613890565b9161391c600c61391560038501613612565b9301611bbb565b90565b613927611a61565b5061394161393b6301ffc9a760e01b610254565b91610254565b1490565b61395790613951613a04565b906141bf565b565b613961611a61565b506139766139708284906135df565b156102a1565b5f146139fe5761399d60016139985f613990818690611ab5565b018590611329565b611f01565b906139a6613a04565b906139e36139dd6139d77f2f8788117e7eff1d82e926ec794901d17c78024a50270940304540a733656f0d95611aa9565b92610457565b92610457565b926139ec610242565b806139f681610bf8565b0390a4600190565b50505f90565b613a0c613864565b503390565b613a19611a61565b50613a258183906135df565b5f14613aac57613a4b5f613a465f613a3e818690611ab5565b018590611329565b611f01565b90613a54613a04565b90613a91613a8b613a857ff6391f5c32d9c69d2a47ea670b442974b53935d1edc7fd64eb21e047a839171b95611aa9565b92610457565b92610457565b92613a9a610242565b80613aa481610bf8565b0390a4600190565b50505f90565b6001613abe9101610348565b90565b613ad8613add91613ad0611a61565b506002611b88565b611b9e565b90613ae75f6127cf565b5b80613b06613b00613afb600d8701611736565b610348565b91610348565b1015613b5057613b23613b1d600d85018390611743565b90611783565b613b35613b2f846103ad565b916103ad565b14613b4857613b4390613ab2565b613ae8565b505050600190565b5050505f90565b5f7f4d616a6f7269747920737570706f72747320726573706f6e64656e7400000000910152565b613b88601c612bd6565b90613b9560208301613b57565b565b613b9f613b7e565b90565b5f7f4d616a6f7269747920737570706f727473206368616c6c656e67657200000000910152565b613bd3601c612bd6565b90613be060208301613ba2565b565b613bea613bc9565b90565b613c01613bfc60028390611b88565b611b9e565b90613c0e601083016106b8565b613c29613c23613c1e60146106b8565b610348565b91610348565b1015613c34575b5050565b81613c61613c5b613c56600f613c4f600e613c7798016106b8565b94016106b8565b610348565b91610348565b115f14613c7e57613c70613be2565b5b906142d8565b5f80613c30565b613c86613b97565b613c71565b90565b613ca2613c9d613ca792613c8b565b61042c565b610348565b90565b613cb46002613c8e565b90565b613cc160016106b8565b613cda613cd4613ccf613caa565b610348565b91610348565b14613cf357613cf1613cea613caa565b6001611f84565b565b5f633ee5aeb560e01b815280613d0b60048201610bf8565b0390fd5b613d196001611dd3565b90565b613d2e613d27613d0f565b6001611f84565b565b5f7f4e6f7420656e6f7567682061726269747261746f727300000000000000000000910152565b613d64601660209261086f565b613d6d81613d30565b0190565b613d869060208101905f818303910152613d57565b90565b15613d9057565b613d98610242565b62461bcd60e51b815280613dae60048201613d71565b0390fd5b60601b90565b613dc190613db2565b90565b613dcd90613db8565b90565b613ddc613de1916103ad565b613dc4565b9052565b60149392613e05602083613dfd8295613e0d9761226a565b01809261226a565b018092613dd0565b0190565b613e1d613e2291610651565b610609565b90565b634e487b7160e01b5f52601260045260245ffd5b613e45613e4b91610348565b91610348565b908115613e56570690565b613e25565b90565b5f5260205f2090565b5490565b613e7481613e67565b821015613e8e57613e86600191613e5e565b910201905f90565b610479565b91906008613eb3910291613ead60018060a01b0384611fb2565b92611fb2565b9181191691161790565b9190613ed3613ece613edb93610457565b612ac7565b908354613e93565b9055565b9081549168010000000000000000831015613f0f5782613f07916001613f0d95018155613e6b565b90613ebd565b565b6107b8565b90613f31613f2b613f2484611736565b80936114a9565b9261173a565b905f5b818110613f415750505090565b909192613f61613f5b600192613f5687613627565b6114c5565b94613634565b9101919091613f34565b613f809160208201915f818403910152613f14565b90565b90613fb3613f91600b611736565b613fac613fa6613fa160146106b8565b610348565b91610348565b1015613d89565b613fc7613fc260028490611b88565b611b9e565b9061401b426140038591613ff4613fe060018801610a70565b613fe8610242565b94859360208501613de5565b602082018103825203826107cc565b61401561400f826122e4565b916122de565b20613e11565b9061402660146106b8565b9361403360028501613890565b614046614040600461197b565b9161197b565b148015614176575b614151575b61405c5f6127cf565b5b8061407061406a88610348565b91610348565b108061412e575b156140d1576140cc906140c76140a1614091878490612b64565b61409b600b611736565b90613e39565b6140c16140bb6140b3600d8b01613e5b565b92600b611743565b90611783565b90613edf565b61222a565b61405d565b50909350600d91506140e76001600c8501612b98565b9101906141296141177f73c465a98291ba3f8cbb162574674f5357c7fe5912db1199083887a2f122372992610609565b92614120610242565b91829182613f6b565b0390a2565b508061414b614145614140600b611736565b610348565b91610348565b10614077565b935061417061416060146106b8565b61416a6002613c8e565b90612b64565b93614053565b5061418360028501613890565b614196614190600561197b565b9161197b565b1461404e565b9160206141bd9294936141b660408201965f830190610b1a565b0190610982565b565b906141d46141ce8383906135df565b156102a1565b6141dc575050565b6141f65f92839263e2517d3f60e01b84526004840161419c565b0390fd5b61420a6142119160209493612f03565b809261226a565b0190565b9161423460208461422c61423b979660019661226a565b01809261229d565b0190612f03565b90565b5f7f444953505554455f5245534f4c56454400000000000000000000000000000000910152565b614272601060209261086f565b61427b8161423e565b0190565b9160406142b09294936142a961429e606083018381035f850152614265565b966020830190610b1a565b0190610982565b565b916142d5926142c860408201935f8301906102a6565b6020818403910152610883565b90565b6142ec6142e760028390611b88565b611b9e565b906143236142fc600e84016106b8565b61431961431361430e600f87016106b8565b610348565b91610348565b11600c8401611f3e565b6143316003600c8401612b98565b61433e8360118401612181565b6143898361436d429161435e614352610242565b938492602084016141fa565b602082018103825203826107cc565b61437f614379826122e4565b916122de565b2060128401612b44565b6143a96143a04261439a60136106b8565b90612b64565b600b8401611f84565b6143bb6143b6600c61225a565b6116d3565b90635260590a6143cd600c8501610697565b5f146144f5576143df60018501610a70565b5b826144186143f0600c8801610697565b91614409896143fd610242565b94859360208501614215565b602082018103825203826107cc565b61442a614424826122e4565b916122de565b2093803b156144f0576144505f809461445b614444610242565b988996879586946122ec565b84526004840161427f565b03925af19081156144eb5761447a92600c926144bf575b509201610697565b916144a57fed72c46b824be66307b4ec1e6d28a12ae0f9d59eeeac5cc30f8bf2fc7c2a23d592610609565b926144ba6144b1610242565b928392836142b2565b0390a2565b6144de905f3d81116144e4575b6144d681836107cc565b8101906122f2565b5f614472565b503d6144cc565b612375565b6122e8565b61450160028501610a70565b6143e056fea26469706673582212201ae23e9a7ec39feed745d15a74d2276f1f8be44e2de8328df7ca701c58b3880864736f6c634300081e0033","linkReferences":{}},"methodIdentifiers":{"ARBITRATOR_ROLE()":"9cea0787","DEFAULT_ADMIN_ROLE()":"a217fddf","DISPUTE_ADMIN_ROLE()":"b3e9247a","activeArbitrators(uint256)":"e74ba17b","arbitratorStats(address)":"7fde7536","arbitratorVotes(uint256,address)":"18f7f088","challengeBondAmount()":"d734b63f","challengerDisputes(address,uint256)":"08b128ea","createDispute(address,uint8,string,string,string,bytes32)":"50af544a","disputeCounter()":"7d36f4d3","disputeEvidence(uint256,uint256)":"2d5db630","economicIncentives()":"60f43d87","executionPeriod()":"d11d0d58","getDisputeDetails(uint256)":"ea89735d","getDisputeHeader(uint256)":"fbb8a061","getDisputeVotes(uint256)":"c4736092","getRoleAdmin(bytes32)":"248a9ca3","grantRole(bytes32,address)":"2f2ff15d","hasRole(bytes32,address)":"91d14854","isArbitrator(address)":"9f6bd2a9","maxArbitrators()":"16b4f529","minArbitrators()":"61bb029d","renounceRole(bytes32,address)":"36568abe","requiredArbitratorTrustScore()":"3b0b7706","respondentDisputes(address,uint256)":"162208b2","reviewPeriod()":"3b249810","revokeRole(bytes32,address)":"d547741f","supportsInterface(bytes4)":"01ffc9a7","systemToken()":"fa8a19df","trustScore()":"3078d998","userDisputes(address,uint256)":"3dc04159","verificationLogger()":"e1300c88","voteOnDispute(uint256,bool,string,uint256)":"4e6d70de","votingPeriod()":"02a251a3"},"id":76}