{"abi":[{"type":"constructor","inputs":[{"name":"_stakingToken","type":"address","internalType":"address"},{"name":"_trustScore","type":"address","internalType":"address"},{"name":"_verificationLogger","type":"address","internalType":"address"}],"stateMutability":"nonpayable"},{"type":"function","name":"DEFAULT_ADMIN_ROLE","inputs":[],"outputs":[{"name":"","type":"bytes32","internalType":"bytes32"}],"stateMutability":"view"},{"type":"function","name":"REWARD_ADMIN_ROLE","inputs":[],"outputs":[{"name":"","type":"bytes32","internalType":"bytes32"}],"stateMutability":"view"},{"type":"function","name":"SLASHER_ROLE","inputs":[],"outputs":[{"name":"","type":"bytes32","internalType":"bytes32"}],"stateMutability":"view"},{"type":"function","name":"addStakingTier","inputs":[{"name":"minStake","type":"uint256","internalType":"uint256"},{"name":"multiplier","type":"uint256","internalType":"uint256"},{"name":"name","type":"string","internalType":"string"}],"outputs":[],"stateMutability":"nonpayable"},{"type":"function","name":"batchDistributeRewards","inputs":[{"name":"recipients","type":"address[]","internalType":"address[]"},{"name":"amounts","type":"uint256[]","internalType":"uint256[]"},{"name":"reason","type":"string","internalType":"string"}],"outputs":[],"stateMutability":"nonpayable"},{"type":"function","name":"calculateReward","inputs":[{"name":"user","type":"address","internalType":"address"},{"name":"","type":"string","internalType":"string"}],"outputs":[{"name":"","type":"uint256","internalType":"uint256"}],"stateMutability":"view"},{"type":"function","name":"claimRewards","inputs":[],"outputs":[],"stateMutability":"nonpayable"},{"type":"function","name":"createRewardPool","inputs":[{"name":"poolName","type":"string","internalType":"string"},{"name":"totalRewards","type":"uint256","internalType":"uint256"},{"name":"poolRewardRate","type":"uint256","internalType":"uint256"}],"outputs":[],"stateMutability":"nonpayable"},{"type":"function","name":"distributeReward","inputs":[{"name":"recipient","type":"address","internalType":"address"},{"name":"amount","type":"uint256","internalType":"uint256"},{"name":"reason","type":"string","internalType":"string"}],"outputs":[],"stateMutability":"nonpayable"},{"type":"function","name":"emergencyUnstake","inputs":[],"outputs":[],"stateMutability":"nonpayable"},{"type":"function","name":"getActiveStakers","inputs":[],"outputs":[{"name":"","type":"address[]","internalType":"address[]"}],"stateMutability":"view"},{"type":"function","name":"getPendingRewards","inputs":[{"name":"user","type":"address","internalType":"address"}],"outputs":[{"name":"","type":"uint256","internalType":"uint256"}],"stateMutability":"view"},{"type":"function","name":"getRoleAdmin","inputs":[{"name":"role","type":"bytes32","internalType":"bytes32"}],"outputs":[{"name":"","type":"bytes32","internalType":"bytes32"}],"stateMutability":"view"},{"type":"function","name":"getStakeInfo","inputs":[{"name":"user","type":"address","internalType":"address"}],"outputs":[{"name":"amount","type":"uint256","internalType":"uint256"},{"name":"stakedAt","type":"uint256","internalType":"uint256"},{"name":"isActive","type":"bool","internalType":"bool"},{"name":"lockExpiry","type":"uint256","internalType":"uint256"},{"name":"isSlashed","type":"bool","internalType":"bool"},{"name":"tier","type":"uint256","internalType":"uint256"}],"stateMutability":"view"},{"type":"function","name":"getStakingTierInfo","inputs":[{"name":"tierIndex","type":"uint256","internalType":"uint256"}],"outputs":[{"name":"minStake","type":"uint256","internalType":"uint256"},{"name":"multiplier","type":"uint256","internalType":"uint256"},{"name":"name","type":"string","internalType":"string"}],"stateMutability":"view"},{"type":"function","name":"getTotalStaked","inputs":[],"outputs":[{"name":"","type":"uint256","internalType":"uint256"}],"stateMutability":"view"},{"type":"function","name":"grantRole","inputs":[{"name":"role","type":"bytes32","internalType":"bytes32"},{"name":"account","type":"address","internalType":"address"}],"outputs":[],"stateMutability":"nonpayable"},{"type":"function","name":"hasRole","inputs":[{"name":"role","type":"bytes32","internalType":"bytes32"},{"name":"account","type":"address","internalType":"address"}],"outputs":[{"name":"","type":"bool","internalType":"bool"}],"stateMutability":"view"},{"type":"function","name":"minimumStake","inputs":[],"outputs":[{"name":"","type":"uint256","internalType":"uint256"}],"stateMutability":"view"},{"type":"function","name":"pendingRewards","inputs":[{"name":"","type":"address","internalType":"address"}],"outputs":[{"name":"","type":"uint256","internalType":"uint256"}],"stateMutability":"view"},{"type":"function","name":"renounceRole","inputs":[{"name":"role","type":"bytes32","internalType":"bytes32"},{"name":"callerConfirmation","type":"address","internalType":"address"}],"outputs":[],"stateMutability":"nonpayable"},{"type":"function","name":"revokeRole","inputs":[{"name":"role","type":"bytes32","internalType":"bytes32"},{"name":"account","type":"address","internalType":"address"}],"outputs":[],"stateMutability":"nonpayable"},{"type":"function","name":"rewardPools","inputs":[{"name":"","type":"string","internalType":"string"}],"outputs":[{"name":"totalRewards","type":"uint256","internalType":"uint256"},{"name":"distributedRewards","type":"uint256","internalType":"uint256"},{"name":"lastUpdateTime","type":"uint256","internalType":"uint256"},{"name":"isActive","type":"bool","internalType":"bool"},{"name":"rewardRate","type":"uint256","internalType":"uint256"}],"stateMutability":"view"},{"type":"function","name":"rewardRate","inputs":[],"outputs":[{"name":"","type":"uint256","internalType":"uint256"}],"stateMutability":"view"},{"type":"function","name":"slash","inputs":[{"name":"user","type":"address","internalType":"address"},{"name":"reason","type":"string","internalType":"string"}],"outputs":[],"stateMutability":"nonpayable"},{"type":"function","name":"slashingPercentage","inputs":[],"outputs":[{"name":"","type":"uint256","internalType":"uint256"}],"stateMutability":"view"},{"type":"function","name":"stake","inputs":[{"name":"amount","type":"uint256","internalType":"uint256"}],"outputs":[],"stateMutability":"nonpayable"},{"type":"function","name":"stakers","inputs":[{"name":"","type":"uint256","internalType":"uint256"}],"outputs":[{"name":"","type":"address","internalType":"address"}],"stateMutability":"view"},{"type":"function","name":"stakes","inputs":[{"name":"","type":"address","internalType":"address"}],"outputs":[{"name":"amount","type":"uint256","internalType":"uint256"},{"name":"stakedAt","type":"uint256","internalType":"uint256"},{"name":"isActive","type":"bool","internalType":"bool"},{"name":"lockExpiry","type":"uint256","internalType":"uint256"},{"name":"isSlashed","type":"bool","internalType":"bool"}],"stateMutability":"view"},{"type":"function","name":"stakingLockPeriod","inputs":[],"outputs":[{"name":"","type":"uint256","internalType":"uint256"}],"stateMutability":"view"},{"type":"function","name":"stakingTierCount","inputs":[],"outputs":[{"name":"","type":"uint256","internalType":"uint256"}],"stateMutability":"view"},{"type":"function","name":"stakingTiers","inputs":[{"name":"","type":"uint256","internalType":"uint256"}],"outputs":[{"name":"minStake","type":"uint256","internalType":"uint256"},{"name":"multiplier","type":"uint256","internalType":"uint256"},{"name":"name","type":"string","internalType":"string"}],"stateMutability":"view"},{"type":"function","name":"stakingToken","inputs":[],"outputs":[{"name":"","type":"address","internalType":"contract IERC20"}],"stateMutability":"view"},{"type":"function","name":"supportsInterface","inputs":[{"name":"interfaceId","type":"bytes4","internalType":"bytes4"}],"outputs":[{"name":"","type":"bool","internalType":"bool"}],"stateMutability":"view"},{"type":"function","name":"totalEarnedRewards","inputs":[{"name":"","type":"address","internalType":"address"}],"outputs":[{"name":"","type":"uint256","internalType":"uint256"}],"stateMutability":"view"},{"type":"function","name":"totalStaked","inputs":[],"outputs":[{"name":"","type":"uint256","internalType":"uint256"}],"stateMutability":"view"},{"type":"function","name":"trustScore","inputs":[],"outputs":[{"name":"","type":"address","internalType":"contract ITrustScore"}],"stateMutability":"view"},{"type":"function","name":"unstake","inputs":[{"name":"amount","type":"uint256","internalType":"uint256"}],"outputs":[],"stateMutability":"nonpayable"},{"type":"function","name":"verificationLogger","inputs":[],"outputs":[{"name":"","type":"address","internalType":"contract IVerificationLogger"}],"stateMutability":"view"},{"type":"event","name":"RewardClaimed","inputs":[{"name":"user","type":"address","indexed":true,"internalType":"address"},{"name":"amount","type":"uint256","indexed":false,"internalType":"uint256"}],"anonymous":false},{"type":"event","name":"RewardDistributed","inputs":[{"name":"user","type":"address","indexed":true,"internalType":"address"},{"name":"amount","type":"uint256","indexed":false,"internalType":"uint256"},{"name":"reason","type":"string","indexed":false,"internalType":"string"}],"anonymous":false},{"type":"event","name":"RewardPoolCreated","inputs":[{"name":"poolName","type":"string","indexed":false,"internalType":"string"},{"name":"totalRewards","type":"uint256","indexed":false,"internalType":"uint256"}],"anonymous":false},{"type":"event","name":"RoleAdminChanged","inputs":[{"name":"role","type":"bytes32","indexed":true,"internalType":"bytes32"},{"name":"previousAdminRole","type":"bytes32","indexed":true,"internalType":"bytes32"},{"name":"newAdminRole","type":"bytes32","indexed":true,"internalType":"bytes32"}],"anonymous":false},{"type":"event","name":"RoleGranted","inputs":[{"name":"role","type":"bytes32","indexed":true,"internalType":"bytes32"},{"name":"account","type":"address","indexed":true,"internalType":"address"},{"name":"sender","type":"address","indexed":true,"internalType":"address"}],"anonymous":false},{"type":"event","name":"RoleRevoked","inputs":[{"name":"role","type":"bytes32","indexed":true,"internalType":"bytes32"},{"name":"account","type":"address","indexed":true,"internalType":"address"},{"name":"sender","type":"address","indexed":true,"internalType":"address"}],"anonymous":false},{"type":"event","name":"Slashed","inputs":[{"name":"user","type":"address","indexed":true,"internalType":"address"},{"name":"amount","type":"uint256","indexed":false,"internalType":"uint256"},{"name":"reason","type":"string","indexed":false,"internalType":"string"}],"anonymous":false},{"type":"event","name":"Staked","inputs":[{"name":"user","type":"address","indexed":true,"internalType":"address"},{"name":"amount","type":"uint256","indexed":false,"internalType":"uint256"},{"name":"tier","type":"uint256","indexed":false,"internalType":"uint256"}],"anonymous":false},{"type":"event","name":"StakingTierAdded","inputs":[{"name":"tierIndex","type":"uint256","indexed":false,"internalType":"uint256"},{"name":"minStake","type":"uint256","indexed":false,"internalType":"uint256"},{"name":"multiplier","type":"uint256","indexed":false,"internalType":"uint256"}],"anonymous":false},{"type":"event","name":"Unstaked","inputs":[{"name":"user","type":"address","indexed":true,"internalType":"address"},{"name":"amount","type":"uint256","indexed":false,"internalType":"uint256"}],"anonymous":false},{"type":"error","name":"AccessControlBadConfirmation","inputs":[]},{"type":"error","name":"AccessControlUnauthorizedAccount","inputs":[{"name":"account","type":"address","internalType":"address"},{"name":"neededRole","type":"bytes32","internalType":"bytes32"}]},{"type":"error","name":"ReentrancyGuardReentrantCall","inputs":[]}],"bytecode":{"object":"0x6080604052346100305761001a610014610111565b91610392565b610022610035565b614d63610fed8239614d6390f35b61003b565b60405190565b5f80fd5b601f801991011690565b634e487b7160e01b5f52604160045260245ffd5b906100679061003f565b810190811060018060401b0382111761007f57604052565b610049565b90610097610090610035565b928361005d565b565b5f80fd5b60018060a01b031690565b6100b19061009d565b90565b6100bd816100a8565b036100c457565b5f80fd5b905051906100d5826100b4565b565b909160608284031261010c576101096100f2845f85016100c8565b9361010081602086016100c8565b936040016100c8565b90565b610099565b61012f615d508038038061012481610084565b9283398101906100d7565b909192565b90565b90565b5f1b90565b61015361014e61015892610134565b61013a565b610137565b90565b6101645f61013f565b90565b7f0d12a8904e05dd8284d2f53d2272cabbacb009999d0c1d26a37d0b3aaea3d5e990565b7f12b42e8a160f6064dc959c6f251e3af0750ad213dbecf573b4710d67d6c28e3990565b90565b6101c66101c16101cb9261009d565b6101af565b61009d565b90565b6101d7906101b2565b90565b6101e3906101ce565b90565b906101f760018060a01b039161013a565b9181191691161790565b61020a906101ce565b90565b90565b9061022561022061022c92610201565b61020d565b82546101e6565b9055565b610239906101b2565b90565b61024590610230565b90565b61025190610230565b90565b90565b9061026c61026761027392610248565b610254565b82546101e6565b9055565b610280906101b2565b90565b61028c90610277565b90565b61029890610277565b90565b90565b906102b36102ae6102ba9261028f565b61029b565b82546101e6565b9055565b90565b90565b6102d86102d36102dd926102be565b6101af565b6102c1565b90565b906102ec5f199161013a565b9181191691161790565b61030a61030561030f926102c1565b6101af565b6102c1565b90565b90565b9061032a610325610331926102f6565b610312565b82546102e0565b9055565b90565b61034c61034761035192610335565b6101af565b6102c1565b90565b90565b61036b61036661037092610354565b6101af565b6102c1565b90565b90565b61038a61038561038f92610373565b6101af565b6102c1565b90565b916104006103f9610405936103f46103ed61040c976103af6104a4565b6103c16103ba61015b565b339061055b565b506103d46103cd610167565b339061055b565b506103e76103e061018b565b339061055b565b506101da565b6009610210565b61023c565b600a610257565b610283565b600b61029e565b61042861042168056bc75e2d631000006102c4565b600c610315565b61043c6104356014610338565b600d610315565b610450610449600a610357565b600e610315565b61046661045f62093a80610376565b6010610315565b61046e610b0f565b610476610e82565b565b90565b61048f61048a61049492610478565b6101af565b6102c1565b90565b6104a1600161047b565b90565b6104b66104af610497565b6001610315565b565b5f90565b151590565b6104ca90610137565b90565b906104d7906104c1565b5f5260205260405f2090565b6104ec906101b2565b90565b6104f8906104e3565b90565b90610505906104ef565b5f5260205260405f2090565b9061051d60ff9161013a565b9181191691161790565b610530906104bc565b90565b90565b9061054b61054661055292610527565b610533565b8254610511565b9055565b5f0190565b6105636104b8565b50610578610572828490610fb2565b156104bc565b5f146106005761059f600161059a5f6105928186906104cd565b0185906104fb565b610536565b906105a8610fdf565b906105e56105df6105d97f2f8788117e7eff1d82e926ec794901d17c78024a50270940304540a733656f0d956104c1565b926104ef565b926104ef565b926105ee610035565b806105f881610556565b0390a4600190565b50505f90565b6106106060610084565b90565b9061061d906102c1565b9052565b90565b61063861063361063d92610621565b6101af565b6102c1565b90565b60018060401b03811161065c5761065860209161003f565b0190565b610049565b9061067361066e83610640565b610084565b918252565b5f7f42726f6e7a650000000000000000000000000000000000000000000000000000910152565b6106a96006610661565b906106b660208301610678565b565b6106c061069f565b90565b52565b6106da6106d56106df92610134565b6101af565b6102c1565b90565b906106ec906106c6565b5f5260205260405f2090565b61070290516102c1565b90565b5190565b5190565b634e487b7160e01b5f52602260045260245ffd5b9060016002830492168015610741575b602083101461073c57565b61070d565b91607f1691610731565b5f5260205f2090565b601f602091010490565b1b90565b9190600861077d9102916107775f198461075e565b9261075e565b9181191691161790565b919061079d6107986107a5936102f6565b610312565b908354610762565b9055565b5f90565b6107bf916107b96107a9565b91610787565b565b5b8181106107cd575050565b806107da5f6001936107ad565b016107c2565b9190601f81116107f0575b505050565b6107fc6108219361074b565b90602061080884610754565b83019310610829575b61081a90610754565b01906107c1565b5f80806107eb565b915061081a81929050610811565b1c90565b9061084b905f1990600802610837565b191690565b8161085a9161083b565b906002021790565b9061086c81610709565b9060018060401b03821161092a5761088e826108888554610721565b856107e0565b602090601f83116001146108c2579180916108b1935f926108b6575b5050610850565b90555b565b90915001515f806108aa565b601f198316916108d18561074b565b925f5b818110610912575091600293918560019694106108f8575b505050020190556108b4565b610908910151601f84169061083b565b90555f80806108ec565b919360206001819287870151815501950192016108d4565b610049565b9061093991610862565b565b9061097f604060026109859461095e5f82016109585f88016106f8565b90610315565b61097760018201610971602088016106f8565b90610315565b019201610705565b9061092f565b565b906109919161093b565b565b90565b6109aa6109a56109af92610993565b6101af565b6102c1565b90565b90565b6109c96109c46109ce926109b2565b6101af565b6102c1565b90565b5f7f53696c7665720000000000000000000000000000000000000000000000000000910152565b610a026006610661565b90610a0f602083016109d1565b565b610a196109f8565b90565b90610a269061047b565b5f5260205260405f2090565b90565b610a49610a44610a4e92610a32565b6101af565b6102c1565b90565b90565b610a68610a63610a6d92610a51565b6101af565b6102c1565b90565b5f7f476f6c6400000000000000000000000000000000000000000000000000000000910152565b610aa16004610661565b90610aae60208301610a70565b565b610ab8610a97565b90565b90565b610ad2610acd610ad792610abb565b6101af565b6102c1565b90565b90610ae490610abe565b5f5260205260405f2090565b90565b610b07610b02610b0c92610af0565b6101af565b6102c1565b90565b610b7368056bc75e2d63100000610b4e610b456064610b40610b38610b32610606565b956102c4565b5f8601610613565b610624565b60208301610613565b610b62610b596106b8565b604083016106c3565b610b6e60065f906106e2565b610987565b610bd8683635c9adc5dea00000610bb2610ba9607d610ba4610b9c610b96610606565b95610996565b5f8601610613565b6109b5565b60208301610613565b610bc6610bbd610a11565b604083016106c3565b610bd36006600190610a1c565b610987565b610c3e69021e19e0c9bab2400000610c18610c0f6096610c0a610c02610bfc610606565b95610a35565b5f8601610613565b610a54565b60208301610613565b610c2c610c23610ab0565b604083016106c3565b610c396006600290610ada565b610987565b610c52610c4b6003610af3565b6008610315565b565b610c5e60a0610084565b90565b90565b610c78610c73610c7d92610c61565b6101af565b6102c1565b90565b90610c8a906104bc565b9052565b905090565b5f7f43455254494649434154455f5245574152440000000000000000000000000000910152565b610cc660128092610c8e565b610ccf81610c93565b0190565b90565b610ce2610ce7916102c1565b610cd3565b9052565b90610d01610cfa602093610cba565b8092610cd6565b0190565b610d1a90610d11610035565b91829182610ceb565b03902090565b610d2990610d05565b90565b610d3690516104bc565b90565b90610daf60806004610db594610d5c5f8201610d565f88016106f8565b90610315565b610d7560018201610d6f602088016106f8565b90610315565b610d8e60028201610d88604088016106f8565b90610315565b610da760038201610da160608801610d2c565b90610536565b0192016106f8565b90610315565b565b90610dc191610d39565b565b90565b610dda610dd5610ddf92610dc3565b6101af565b6102c1565b90565b90565b610df9610df4610dfe92610de2565b6101af565b6102c1565b90565b5f7f474f5645524e414e43455f524557415244000000000000000000000000000000910152565b610e3460118092610c8e565b610e3d81610e01565b0190565b90610e57610e50602093610e28565b8092610cd6565b0190565b610e7090610e67610035565b91829182610e41565b03902090565b610e7f90610e5b565b90565b610f0369d3c21bcecceda1000000610ef4610eeb5f610ee642610edd600191610ed4610ecb606496610ec6610ebe610eb8610c54565b9c610c64565b5f8d01610613565b6106c6565b60208a01610613565b60408801610613565b60608601610c80565b610624565b60808301610613565b610efe6005610d20565b610db7565b610f846969e10de76676d0800000610f75610f6c5f610f6742610f5e600191610f55610f4c603296610f47610f3f610f39610c54565b9c610dc6565b5f8d01610613565b6106c6565b60208a01610613565b60408801610613565b60608601610c80565b610de5565b60808301610613565b610f7f6005610e76565b610db7565b565b5f1c90565b60ff1690565b610f9d610fa291610f86565b610f8b565b90565b610faf9054610f91565b90565b610fd8915f610fcd610fd393610fc66104b8565b50826104cd565b016104fb565b610fa5565b90565b5f90565b610fe7610fdb565b50339056fe60806040526004361015610013575b611956565b61001d5f3561028c565b806301ffc9a7146102875780630917e7761461028257806316934fc41461027d578063248a9ca3146102785780632a7ea9d2146102735780632e17de781461026e5780632f2ff15d146102695780633078d9981461026457806331d7a2621461025f57806336568abe1461025a57806336aaaf2e14610255578063372500ab14610250578063402b71dd1461024b5780635095af6414610246578063516b61fe1461024157806365db68181461023c57806369666a491461023757806372f702f3146102325780637589cf2f1461022d5780637b0a47ee14610228578063817b1cd2146102235780638b9aa7881461021e5780638df456fb1461021957806391d14854146102145780639488015e1461020f5780639c1b49cb1461020a5780639fb82db914610205578063a217fddf14610200578063a34015bd146101fb578063a694fc3a146101f6578063c3453153146101f1578063c49f4797146101ec578063d50267ee146101e7578063d547741f146101e2578063e0639364146101dd578063e1300c88146101d8578063ec5ffac2146101d3578063f6ed2017146101ce5763fd5e6dd10361000e57611921565b611824565b6117ef565b6117ab565b611708565b6116c5565b61168d565b6114e5565b611354565b6112c6565b611292565b61120b565b61119b565b6110c7565b611076565b610fc3565b610f8f565b610da7565b610d63565b610d1f565b610cdd565b610ca8565b610c05565b610bc1565b610b5e565b610ad8565b610a75565b610a42565b610a0c565b610993565b61095e565b6108d4565b61082e565b6107ce565b61077c565b6105e3565b610544565b610381565b610318565b60e01c90565b60405190565b5f80fd5b5f80fd5b5f80fd5b63ffffffff60e01b1690565b6102b9816102a4565b036102c057565b5f80fd5b905035906102d1826102b0565b565b906020828203126102ec576102e9915f016102c4565b90565b61029c565b151590565b6102ff906102f1565b9052565b9190610316905f602085019401906102f6565b565b346103485761034461033361032e3660046102d3565b61195e565b61033b610292565b91829182610303565b0390f35b610298565b5f91031261035757565b61029c565b90565b6103689061035c565b9052565b919061037f905f6020850194019061035f565b565b346103b15761039136600461034d565b6103ad61039c6119a2565b6103a4610292565b9182918261036c565b0390f35b610298565b60018060a01b031690565b6103ca906103b6565b90565b6103d6816103c1565b036103dd57565b5f80fd5b905035906103ee826103cd565b565b9060208282031261040957610406915f016103e1565b90565b61029c565b90565b61042561042061042a926103b6565b61040e565b6103b6565b90565b61043690610411565b90565b6104429061042d565b90565b9061044f90610439565b5f5260205260405f2090565b5f1c90565b90565b61046f6104749161045b565b610460565b90565b6104819054610463565b90565b60ff1690565b61049661049b9161045b565b610484565b90565b6104a8905461048a565b90565b6104b6906002610445565b6104c15f8201610477565b916104ce60018301610477565b916104db6002820161049e565b916104f460046104ed60038501610477565b930161049e565b90565b909594926105429461053161053b9261052760809661051d60a088019c5f89019061035f565b602087019061035f565b60408501906102f6565b606083019061035f565b01906102f6565b565b346105785761057461055f61055a3660046103f0565b6104ab565b9161056b959395610292565b958695866104f7565b0390f35b610298565b90565b6105898161057d565b0361059057565b5f80fd5b905035906105a182610580565b565b906020828203126105bc576105b9915f01610594565b90565b61029c565b6105ca9061057d565b9052565b91906105e1905f602085019401906105c1565b565b346106135761060f6105fe6105f93660046105a3565b611a02565b610606610292565b918291826105ce565b0390f35b610298565b6106218161035c565b0361062857565b5f80fd5b9050359061063982610618565b565b5f80fd5b5f80fd5b601f801991011690565b634e487b7160e01b5f52604160045260245ffd5b9061066b90610643565b810190811067ffffffffffffffff82111761068557604052565b61064d565b9061069d610696610292565b9283610661565b565b67ffffffffffffffff81116106bd576106b9602091610643565b0190565b61064d565b90825f939282370152565b909291926106e26106dd8261069f565b61068a565b938185526020850190828401116106fe576106fc926106c2565b565b61063f565b9080601f830112156107215781602061071e933591016106cd565b90565b61063b565b916060838303126107725761073d825f85016103e1565b9261074b836020830161062c565b92604082013567ffffffffffffffff811161076d5761076a9201610703565b90565b6102a0565b61029c565b5f0190565b346107ab5761079561078f366004610726565b91611ffa565b61079d610292565b806107a781610777565b0390f35b610298565b906020828203126107c9576107c6915f0161062c565b90565b61029c565b346107fc576107e66107e13660046107b0565b612706565b6107ee610292565b806107f881610777565b0390f35b610298565b9190604083820312610829578061081d610826925f8601610594565b936020016103e1565b90565b61029c565b3461085d57610847610841366004610801565b9061273b565b61084f610292565b8061085981610777565b0390f35b610298565b1c90565b60018060a01b031690565b6108819060086108869302610862565b610866565b90565b906108949154610871565b90565b6108a3600a5f90610889565b90565b6108af9061042d565b90565b6108bb906108a6565b9052565b91906108d2905f602085019401906108b2565b565b34610904576108e436600461034d565b6109006108ef610897565b6108f7610292565b918291826108bf565b0390f35b610298565b9061091390610439565b5f5260205260405f2090565b61092f9060086109349302610862565b610460565b90565b90610942915461091f565b90565b61095b906109566003915f92610909565b610937565b90565b3461098e5761098a6109796109743660046103f0565b610945565b610981610292565b9182918261036c565b0390f35b610298565b346109c2576109ac6109a6366004610801565b90612747565b6109b4610292565b806109be81610777565b0390f35b610298565b919091604081840312610a07576109e0835f83016103e1565b92602082013567ffffffffffffffff8111610a02576109ff9201610703565b90565b6102a0565b61029c565b34610a3d57610a39610a28610a223660046109c7565b90612881565b610a30610292565b9182918261036c565b0390f35b610298565b34610a7057610a5236600461034d565b610a5a612d76565b610a62610292565b80610a6c81610777565b0390f35b610298565b34610aa457610a8e610a883660046109c7565b9061328d565b610a96610292565b80610aa081610777565b0390f35b610298565b7f12b42e8a160f6064dc959c6f251e3af0750ad213dbecf573b4710d67d6c28e3990565b610ad5610aa9565b90565b34610b0857610ae836600461034d565b610b04610af3610acd565b610afb610292565b918291826105ce565b0390f35b610298565b91606083830312610b5957610b24825f850161062c565b92610b32836020830161062c565b92604082013567ffffffffffffffff8111610b5457610b519201610703565b90565b6102a0565b61029c565b34610b8d57610b77610b71366004610b0d565b9161361e565b610b7f610292565b80610b8981610777565b0390f35b610298565b7f0d12a8904e05dd8284d2f53d2272cabbacb009999d0c1d26a37d0b3aaea3d5e990565b610bbe610b92565b90565b34610bf157610bd136600461034d565b610bed610bdc610bb6565b610be4610292565b918291826105ce565b0390f35b610298565b610c02600d5f90610937565b90565b34610c3557610c1536600461034d565b610c31610c20610bf6565b610c28610292565b9182918261036c565b0390f35b610298565b60018060a01b031690565b610c55906008610c5a9302610862565b610c3a565b90565b90610c689154610c45565b90565b610c7760095f90610c5d565b90565b610c839061042d565b90565b610c8f90610c7a565b9052565b9190610ca6905f60208501940190610c86565b565b34610cd857610cb836600461034d565b610cd4610cc3610c6b565b610ccb610292565b91829182610c93565b0390f35b610298565b34610d0b57610ced36600461034d565b610cf5613a6f565b610cfd610292565b80610d0781610777565b0390f35b610298565b610d1c600e5f90610937565b90565b34610d4f57610d2f36600461034d565b610d4b610d3a610d10565b610d42610292565b9182918261036c565b0390f35b610298565b610d60600f5f90610937565b90565b34610d9357610d7336600461034d565b610d8f610d7e610d54565b610d86610292565b9182918261036c565b0390f35b610298565b610da460085f90610937565b90565b34610dd757610db736600461034d565b610dd3610dc2610d98565b610dca610292565b9182918261036c565b0390f35b610298565b67ffffffffffffffff8111610df45760208091020190565b61064d565b5f80fd5b90929192610e12610e0d82610ddc565b61068a565b9381855260208086019202830192818411610e4f57915b838310610e365750505050565b60208091610e4484866103e1565b815201920191610e29565b610df9565b9080601f83011215610e7257816020610e6f93359101610dfd565b90565b61063b565b67ffffffffffffffff8111610e8f5760208091020190565b61064d565b90929192610ea9610ea482610e77565b61068a565b9381855260208086019202830192818411610ee657915b838310610ecd5750505050565b60208091610edb848661062c565b815201920191610ec0565b610df9565b9080601f83011215610f0957816020610f0693359101610e94565b90565b61063b565b91606083830312610f8a575f83013567ffffffffffffffff8111610f855782610f38918501610e54565b92602081013567ffffffffffffffff8111610f805783610f59918301610eeb565b92604082013567ffffffffffffffff8111610f7b57610f789201610703565b90565b6102a0565b6102a0565b6102a0565b61029c565b34610fbe57610fa8610fa2366004610f0e565b91613d52565b610fb0610292565b80610fba81610777565b0390f35b610298565b34610ff457610ff0610fdf610fd9366004610801565b90613d75565b610fe7610292565b91829182610303565b0390f35b610298565b5190565b60209181520190565b90825f9392825e0152565b61103061103960209361103e9361102781610ff9565b93848093610ffd565b95869101611006565b610643565b0190565b61106661107394929361105c60608401955f85019061035f565b602083019061035f565b6040818403910152611011565b90565b346110a9576110a561109161108c3660046107b0565b613e0d565b61109c939193610292565b93849384611042565b0390f35b610298565b6110c4906110bf6004915f92610909565b610937565b90565b346110f7576110f36110e26110dd3660046103f0565b6110ae565b6110ea610292565b9182918261036c565b0390f35b610298565b5190565b60209181520190565b60200190565b611118906103c1565b9052565b906111298160209361110f565b0190565b60200190565b9061115061114a611143846110fc565b8093611100565b92611109565b905f5b8181106111605750505090565b909192611179611173600192865161111c565b9461112d565b9101919091611153565b6111989160208201915f818403910152611133565b90565b346111cb576111ab36600461034d565b6111c76111b6613f26565b6111be610292565b91829182611183565b0390f35b610298565b90565b5f1b90565b6111ec6111e76111f1926111d0565b6111d3565b61057d565b90565b6111fd5f6111d8565b90565b6112086111f4565b90565b3461123b5761121b36600461034d565b611237611226611200565b61122e610292565b918291826105ce565b0390f35b610298565b909160608284031261128d575f82013567ffffffffffffffff81116112885761126e84611285928501610703565b9361127c816020860161062c565b9360400161062c565b90565b6102a0565b61029c565b346112c1576112ab6112a5366004611240565b916140d9565b6112b3610292565b806112bd81610777565b0390f35b610298565b346112f4576112de6112d93660046107b0565b614716565b6112e6610292565b806112f081610777565b0390f35b610298565b919461134161134b9298979561133760a09661132d6113529a61132360c08a019e5f8b019061035f565b602089019061035f565b60408701906102f6565b606085019061035f565b60808301906102f6565b019061035f565b565b3461138b5761138761136f61136a3660046103f0565b6147bb565b9261137e969496929192610292565b968796876112f9565b0390f35b610298565b906020828203126113c0575f82013567ffffffffffffffff81116113bb576113b89201610703565b90565b6102a0565b61029c565b905090565b6113ef6113e6926020926113dd81610ff9565b948580936113c5565b93849101611006565b0190565b90565b6114026114079161035c565b6113f3565b9052565b61141b61142291602094936113ca565b80926113f6565b0190565b61143a611431610292565b9283928361140b565b03902090565b61144991611426565b90565b611457906005611440565b6114625f8201610477565b9161146f60018301610477565b9161147c60028201610477565b91611495600461148e6003850161049e565b9301610477565b90565b909594926114e3946114d26114dc926114c86080966114be60a088019c5f89019061035f565b602087019061035f565b604085019061035f565b60608301906102f6565b019061035f565b565b34611519576115156115006114fb366004611390565b61144c565b9161150c959395610292565b95869586611498565b0390f35b610298565b61153261152d6115379261035c565b61040e565b61035c565b90565b906115449061151e565b5f5260205260405f2090565b634e487b7160e01b5f52602260045260245ffd5b9060016002830492168015611584575b602083101461157f57565b611550565b91607f1691611574565b60209181520190565b5f5260205f2090565b905f92918054906115ba6115b383611564565b809461158e565b916001811690815f1461161157506001146115d5575b505050565b6115e29192939450611597565b915f925b8184106115f957505001905f80806115d0565b600181602092959395548486015201910192906115e6565b92949550505060ff19168252151560200201905f80806115d0565b90611636916115a0565b90565b9061165961165292611649610292565b9384809261162c565b0383610661565b565b61166690600661153a565b6116715f8201610477565b9161168a600261168360018501610477565b9301611639565b90565b346116c0576116bc6116a86116a33660046107b0565b61165b565b6116b3939193610292565b93849384611042565b0390f35b610298565b346116f4576116de6116d8366004610801565b9061488a565b6116e6610292565b806116f081610777565b0390f35b610298565b61170560105f90610937565b90565b346117385761171836600461034d565b6117346117236116f9565b61172b610292565b9182918261036c565b0390f35b610298565b60018060a01b031690565b61175890600861175d9302610862565b61173d565b90565b9061176b9154611748565b90565b61177a600b5f90611760565b90565b6117869061042d565b90565b6117929061177d565b9052565b91906117a9905f60208501940190611789565b565b346117db576117bb36600461034d565b6117d76117c661176e565b6117ce610292565b91829182611796565b0390f35b610298565b6117ec600c5f90610937565b90565b3461181f576117ff36600461034d565b61181b61180a6117e0565b611812610292565b9182918261036c565b0390f35b610298565b346118545761185061183f61183a3660046103f0565b614896565b611847610292565b9182918261036c565b0390f35b610298565b634e487b7160e01b5f52603260045260245ffd5b5490565b5f5260205f2090565b6118838161186d565b82101561189d57611895600191611871565b910201905f90565b611859565b60018060a01b031690565b6118bd9060086118c29302610862565b6118a2565b90565b906118d091546118ad565b90565b60076118de8161186d565b8210156118fb576118f8916118f29161187a565b906118c5565b90565b5f80fd5b611908906103c1565b9052565b919061191f905f602085019401906118ff565b565b346119515761194d61193c6119373660046107b0565b6118d3565b611944610292565b9182918261190c565b0390f35b610298565b5f80fd5b5f90565b61196661195a565b508061198161197b637965db0b60e01b6102a4565b916102a4565b1490811561198e575b5090565b61199891506148b5565b5f61198a565b5f90565b6119aa61199e565b506119b5600f610477565b90565b5f90565b6119c59061057d565b90565b906119d2906119bc565b5f5260205260405f2090565b90565b6119ed6119f29161045b565b6119de565b90565b6119ff90546119e1565b90565b6001611a1a611a2092611a136119b8565b505f6119c8565b016119f5565b90565b90611a3e9291611a39611a34610b92565b6148db565b611dc6565b565b611a54611a4f611a59926111d0565b61040e565b6103b6565b90565b611a6590611a40565b90565b5f7f496e76616c696420726563697069656e74000000000000000000000000000000910152565b611a9c6011602092610ffd565b611aa581611a68565b0190565b611abe9060208101905f818303910152611a8f565b90565b15611ac857565b611ad0610292565b62461bcd60e51b815280611ae660048201611aa9565b0390fd5b611afe611af9611b03926111d0565b61040e565b61035c565b90565b5f7f496e76616c696420616d6f756e74000000000000000000000000000000000000910152565b611b3a600e602092610ffd565b611b4381611b06565b0190565b611b5c9060208101905f818303910152611b2d565b90565b15611b6657565b611b6e610292565b62461bcd60e51b815280611b8460048201611b47565b0390fd5b634e487b7160e01b5f52601160045260245ffd5b611bab611bb19193929361035c565b9261035c565b8201809211611bbc57565b611b88565b90611bcd5f19916111d3565b9181191691161790565b90565b90611bef611bea611bf69261151e565b611bd7565b8254611bc1565b9055565b611c06611c0b9161045b565b610866565b90565b611c189054611bfa565b90565b5f80fd5b60e01b90565b5f910312611c2f57565b61029c565b90565b90565b611c4e611c49611c5392611c34565b61040e565b611c37565b90565b611c5f90611c3a565b9052565b5f7f526577617264206561726e656400000000000000000000000000000000000000910152565b611c97600d602092610ffd565b611ca081611c63565b0190565b611cc6611cd393611cbc60608401945f8501906118ff565b6020830190611c56565b6040818303910152611c8a565b90565b611cde610292565b3d5f823e3d90fd5b611cf2611cf79161045b565b61173d565b90565b611d049054611ce6565b90565b80611d18602092611d1f95946113f6565b01906113ca565b90565b60200190565b5190565b5f7f5245574152445f44495354524942555445440000000000000000000000000000910152565b611d606012602092610ffd565b611d6981611d2c565b0190565b916040611d9e929493611d97611d8c606083018381035f850152611d53565b9660208301906118ff565b01906105c1565b565b91611dc392611db660408201935f83019061035f565b6020818403910152611011565b90565b611deb81611de4611dde611dd95f611a5c565b6103c1565b916103c1565b1415611ac1565b611e0782611e01611dfb5f611aea565b9161035c565b11611b5f565b611e2f82611e29611e1a60038590610909565b91611e2483610477565b611b9c565b90611bda565b611e5782611e51611e4260048590610909565b91611e4c83610477565b611b9c565b90611bda565b611e69611e64600a611c0e565b6108a6565b630cc9ec5b82600192803b15611ff557611e965f8094611ea1611e8a610292565b97889687958694611c1f565b845260048401611ca4565b03925af18015611ff057611fc4575b50611ec3611ebe600b611cfa565b61177d565b635260590a8284611ef58791611ee6611eda610292565b93849260208401611d07565b60208201810382520382610661565b611f07611f0182611d28565b91611d22565b2092803b15611fbf57611f2d5f8094611f38611f21610292565b97889687958694611c1f565b845260048401611d6d565b03925af18015611fba57611f8e575b509091611f747f49649141d16971a88c3cfdd73fec34babb1cf163cf8b804c8f537a023c6ce50692610439565b92611f89611f80610292565b92839283611da0565b0390a2565b611fad905f3d8111611fb3575b611fa58183610661565b810190611c25565b5f611f47565b503d611f9b565b611cd6565b611c1b565b611fe3905f3d8111611fe9575b611fdb8183610661565b810190611c25565b5f611eb0565b503d611fd1565b611cd6565b611c1b565b906120059291611a23565b565b6120189061201361491b565b61241f565b612020614980565b565b5f7f4e6f20616374697665207374616b650000000000000000000000000000000000910152565b612056600f602092610ffd565b61205f81612022565b0190565b6120789060208101905f818303910152612049565b90565b1561208257565b61208a610292565b62461bcd60e51b8152806120a060048201612063565b0390fd5b5f7f496e73756666696369656e74207374616b656420616d6f756e74000000000000910152565b6120d8601a602092610ffd565b6120e1816120a4565b0190565b6120fa9060208101905f8183039101526120cb565b90565b1561210457565b61210c610292565b62461bcd60e51b815280612122600482016120e5565b0390fd5b5f7f5374616b65207374696c6c206c6f636b65640000000000000000000000000000910152565b61215a6012602092610ffd565b61216381612126565b0190565b61217c9060208101905f81830391015261214d565b90565b1561218657565b61218e610292565b62461bcd60e51b8152806121a460048201612167565b0390fd5b5f7f43616e6e6f7420756e7374616b6520736c6173686564207374616b6500000000910152565b6121dc601c602092610ffd565b6121e5816121a8565b0190565b6121fe9060208101905f8183039101526121cf565b90565b1561220857565b612210610292565b62461bcd60e51b815280612226600482016121e9565b0390fd5b61223961223f9193929361035c565b9261035c565b820391821161224a57565b611b88565b9061225b60ff916111d3565b9181191691161790565b61226e906102f1565b90565b90565b9061228961228461229092612265565b612271565b825461224f565b9055565b6122a06122a59161045b565b610c3a565b90565b6122b29054612294565b90565b6122be816102f1565b036122c557565b5f80fd5b905051906122d6826122b5565b565b906020828203126122f1576122ee915f016122c9565b90565b61029c565b91602061231792949361231060408201965f8301906118ff565b019061035f565b565b5f7f5472616e73666572206661696c65640000000000000000000000000000000000910152565b61234d600f602092610ffd565b61235681612319565b0190565b61236f9060208101905f818303910152612340565b90565b1561237957565b612381610292565b62461bcd60e51b8152806123976004820161235a565b0390fd5b6123a7816020936113f6565b0190565b5f7f544f4b454e535f554e5354414b45440000000000000000000000000000000000910152565b6123df600f602092610ffd565b6123e8816123ab565b0190565b91604061241d92949361241661240b606083018381035f8501526123d2565b9660208301906118ff565b01906105c1565b565b61243d6124386002612432813390610445565b0161049e565b61207b565b61246f6124565f61245060023390610445565b01610477565b6124686124628461035c565b9161035c565b10156120fd565b6124a24261249b612495612490600361248a60023390610445565b01610477565b61035c565b9161035c565b101561217f565b6124ca6124c56124bf60046124b960023390610445565b0161049e565b156102f1565b612201565b6124f4816124ee5f6124de60023390610445565b01916124e983610477565b61222a565b90611bda565b61251161250a82612505600f610477565b61222a565b600f611bda565b6125275f61252160023390610445565b01610477565b6125396125335f611aea565b9161035c565b146126e1575b61255161254c60096122a8565b610c7a565b602063a9059cbb9133906125785f869561258361256c610292565b97889687958694611c1f565b8452600484016122f6565b03925af180156126dc5761259e915f916126ae575b50612372565b6125b06125ab600b611cfa565b61177d565b635260590a336125d16125e0856125c5610292565b9283916020830161239b565b60208201810382520382610661565b6125f26125ec82611d28565b91611d22565b2092803b156126a9576126185f809461262361260c610292565b97889687958694611c1f565b8452600484016123ec565b03925af180156126a457612678575b50336126736126617f0f5bb82176feb1b5e747e28471aa92156a04d9f3ab9f45f28e2d704232b93f7592610439565b9261266a610292565b9182918261036c565b0390a2565b612697905f3d811161269d575b61268f8183610661565b810190611c25565b5f612632565b503d612685565b611cd6565b611c1b565b6126cf915060203d81116126d5575b6126c78183610661565b8101906122d8565b5f612598565b503d6126bd565b611cd6565b6126f85f60026126f2813390610445565b01612274565b612701336149ef565b61253f565b61270f90612007565b565b9061272c9161272761272282611a02565b6148db565b61272e565b565b9061273891614ab8565b50565b9061274591612711565b565b908061276261275c612757614b63565b6103c1565b916103c1565b036127735761277091614b70565b50565b5f63334bd91960e11b81528061278b60048201610777565b0390fd5b9050519061279c82610618565b565b906020828203126127b7576127b4915f0161278f565b90565b61029c565b90565b6127d36127ce6127d8926127bc565b61040e565b61035c565b90565b634e487b7160e01b5f52601260045260245ffd5b6127fb6128019161035c565b9161035c565b90811561280c570490565b6127db565b61282561282061282a92611c34565b61040e565b61035c565b90565b61283c6128429193929361035c565b9261035c565b9161284e83820261035c565b92818404149015171561285d57565b611b88565b90565b61287961287461287e92612862565b61040e565b61035c565b90565b905061288b61199e565b506128ab6128a5600261289f818590610445565b0161049e565b156102f1565b6129e8576128f19060206128c76128c2600a611c0e565b6108a6565b635e09eea1906128e684926128da610292565b96879485938493611c1f565b83526004830161190c565b03915afa9081156129e35761298061292c6129275f612921612985966129959883916129b5575b50956002610445565b01610477565b614c2d565b61294a612939600e610477565b93612944600a6127bf565b906127ef565b908161295e6129585f611aea565b9161035c565b14612998575b600161297461297a92600661153a565b01610477565b9261282d565b61282d565b61298f6064612865565b906127ef565b90565b905061297a60016129746129ab82612811565b9392505050612964565b6129d6915060203d81116129dc575b6129ce8183610661565b81019061279e565b5f612918565b503d6129c4565b611cd6565b506129f25f611aea565b90565b6129fd61491b565b612a05612b87565b612a0d614980565b565b5f7f4e6f2070656e64696e6720726577617264730000000000000000000000000000910152565b612a436012602092610ffd565b612a4c81612a0f565b0190565b612a659060208101905f818303910152612a36565b90565b15612a6f57565b612a77610292565b62461bcd60e51b815280612a8d60048201612a50565b0390fd5b5f7f526577617264207472616e73666572206661696c656400000000000000000000910152565b612ac56016602092610ffd565b612ace81612a91565b0190565b612ae79060208101905f818303910152612ab8565b90565b15612af157565b612af9610292565b62461bcd60e51b815280612b0f60048201612ad2565b0390fd5b5f7f524557415244535f434c41494d45440000000000000000000000000000000000910152565b612b47600f602092610ffd565b612b5081612b13565b0190565b916040612b85929493612b7e612b73606083018381035f850152612b3a565b9660208301906118ff565b01906105c1565b565b612b9b612b9660033390610909565b610477565b612bb781612bb1612bab5f611aea565b9161035c565b11612a68565b612bd4612bc35f611aea565b612bcf60033390610909565b611bda565b612be6612be160096122a8565b610c7a565b602063a9059cbb913390612c0d5f8695612c18612c01610292565b97889687958694611c1f565b8452600484016122f6565b03925af18015612d7157612c33915f91612d43575b50612aea565b612c45612c40600b611cfa565b61177d565b635260590a33612c66612c7585612c5a610292565b9283916020830161239b565b60208201810382520382610661565b612c87612c8182611d28565b91611d22565b2092803b15612d3e57612cad5f8094612cb8612ca1610292565b97889687958694611c1f565b845260048401612b54565b03925af18015612d3957612d0d575b5033612d08612cf67f106f923f993c2149d49b4255ff723acafa1f2d94393f561d3eda32ae348f724192610439565b92612cff610292565b9182918261036c565b0390a2565b612d2c905f3d8111612d32575b612d248183610661565b810190611c25565b5f612cc7565b503d612d1a565b611cd6565b611c1b565b612d64915060203d8111612d6a575b612d5c8183610661565b8101906122d8565b5f612c2d565b503d612d52565b611cd6565b612d7e6129f5565b565b90612d9a91612d95612d90610aa9565b6148db565b612fb3565b565b5f7f55736572206e6f74207374616b65640000000000000000000000000000000000910152565b612dd0600f602092610ffd565b612dd981612d9c565b0190565b612df29060208101905f818303910152612dc3565b90565b15612dfc57565b612e04610292565b62461bcd60e51b815280612e1a60048201612ddd565b0390fd5b5f7f416c726561647920736c61736865640000000000000000000000000000000000910152565b612e52600f602092610ffd565b612e5b81612e1e565b0190565b612e749060208101905f818303910152612e45565b90565b15612e7e57565b612e86610292565b62461bcd60e51b815280612e9c60048201612e5f565b0390fd5b90565b612eb7612eb2612ebc92612ea0565b61040e565b611c37565b90565b612ec890612ea3565b9052565b5f7f536c617368656420666f72206d69736265686176696f72000000000000000000910152565b612f006017602092610ffd565b612f0981612ecc565b0190565b612f2f612f3c93612f2560608401945f8501906118ff565b6020830190612ebf565b6040818303910152612ef3565b90565b5f7f555345525f534c41534845440000000000000000000000000000000000000000910152565b612f73600c602092610ffd565b612f7c81612f3f565b0190565b916040612fb1929493612faa612f9f606083018381035f850152612f66565b9660208301906118ff565b01906105c1565b565b612fd1612fcc6002612fc6818590610445565b0161049e565b612df5565b612ff9612ff4612fee6004612fe860028690610445565b0161049e565b156102f1565b612e77565b6130356130256130155f61300f60028690610445565b01610477565b61301f600d610477565b9061282d565b61302f6064612865565b906127ef565b906130608261305a5f61304a60028690610445565b019161305583610477565b61222a565b90611bda565b6130796001600461307360028590610445565b01612274565b61309661308f8361308a600f610477565b61222a565b600f611bda565b6130ac5f6130a660028490610445565b01610477565b6130be6130b85f611aea565b9161035c565b14613268575b6130d66130d1600a611c0e565b6108a6565b630cc9ec5b8260131992803b15613263576131045f809461310f6130f8610292565b97889687958694611c1f565b845260048401612f0d565b03925af1801561325e57613232575b5061313161312c600b611cfa565b61177d565b635260590a82846131638791613154613148610292565b93849260208401611d07565b60208201810382520382610661565b61317561316f82611d28565b91611d22565b2092803b1561322d5761319b5f80946131a661318f610292565b97889687958694611c1f565b845260048401612f80565b03925af18015613228576131fc575b5090916131e27f7e947095ed288d8885423bdaef4015b7420ffa9b84d62ef67c402e8bc36a8ea992610439565b926131f76131ee610292565b92839283611da0565b0390a2565b61321b905f3d8111613221575b6132138183610661565b810190611c25565b5f6131b5565b503d613209565b611cd6565b611c1b565b613251905f3d8111613257575b6132498183610661565b810190611c25565b5f61311e565b503d61323f565b611cd6565b611c1b565b61327f5f6002613279818590610445565b01612274565b613288816149ef565b6130c4565b9061329791612d80565b565b906132b492916132af6132aa610b92565b6148db565b61356c565b565b6132c0606061068a565b90565b906132cd9061035c565b9052565b52565b6132de905161035c565b90565b5190565b601f602091010490565b1b90565b9190600861330e9102916133085f19846132ef565b926132ef565b9181191691161790565b919061332e6133296133369361151e565b611bd7565b9083546132f3565b9055565b61334c9161334661199e565b91613318565b565b5b81811061335a575050565b806133675f60019361333a565b0161334f565b9190601f811161337d575b505050565b6133896133ae93611597565b906020613395846132e5565b830193106133b6575b6133a7906132e5565b019061334e565b5f8080613378565b91506133a78192905061339e565b906133d4905f1990600802610862565b191690565b816133e3916133c4565b906002021790565b906133f581610ff9565b9067ffffffffffffffff82116134b557613419826134138554611564565b8561336d565b602090601f831160011461344d5791809161343c935f92613441575b50506133d9565b90555b565b90915001515f80613435565b601f1983169161345c85611597565b925f5b81811061349d57509160029391856001969410613483575b5050500201905561343f565b613493910151601f8416906133c4565b90555f8080613477565b9193602060018192878701518155019501920161345f565b61064d565b906134c4916133eb565b565b9061350a60406002613510946134e95f82016134e35f88016132d4565b90611bda565b613502600182016134fc602088016132d4565b90611bda565b0192016132e1565b906134ba565b565b9061351c916134c6565b565b60409061354761354e949695939661353d60608401985f85019061035f565b602083019061035f565b019061035f565b565b6135599061035c565b5f1981146135675760010190565b611b88565b916135ba906135a084916135978561358e6135856132b6565b955f87016132c3565b602085016132c3565b604083016132d1565b6135b560066135af6008610477565b9061153a565b613512565b6135c46008610477565b9190916135fd7f40d8fd7714792abf1d4ac835462b6cf6f0170b87d65e38e5e407f1e35862f4b8936135f4610292565b9384938461351e565b0390a161361c6136156136106008610477565b613550565b6008611bda565b565b906136299291613299565b565b61363361491b565b61363b613776565b613643614980565b565b90565b61365c61365761366192613645565b61040e565b611c37565b90565b61366d90613648565b9052565b5f7f456d657267656e637920756e7374616b652070656e616c747900000000000000910152565b6136a56019602092610ffd565b6136ae81613671565b0190565b6136d46136e1936136ca60608401945f8501906118ff565b6020830190613664565b6040818303910152613698565b90565b6020816136f66136fe938396956113f6565b0180926113f6565b0190565b5f7f454d455247454e43595f554e5354414b45000000000000000000000000000000910152565b6137366011602092610ffd565b61373f81613702565b0190565b91604061377492949361376d613762606083018381035f850152613729565b9660208301906118ff565b01906105c1565b565b61379461378f6002613789813390610445565b0161049e565b61207b565b6137aa5f6137a460023390610445565b01610477565b6137d16137c1826137bb600a6127bf565b9061282d565b6137cb6064612865565b906127ef565b906137dd81839061222a565b916137fd6137ea5f611aea565b5f6137f760023390610445565b01611bda565b6138145f600261380e813390610445565b01612274565b61383161382a83613825600f610477565b61222a565b600f611bda565b61383a336149ef565b61384c61384760096122a8565b610c7a565b602063a9059cbb9133906138735f889561387e613867610292565b97889687958694611c1f565b8452600484016122f6565b03925af18015613a6a57613899915f91613a3c575b50612372565b6138ab6138a6600a611c0e565b6108a6565b630cc9ec5b3360091992803b15613a37576138d95f80946138e46138cd610292565b97889687958694611c1f565b8452600484016136b2565b03925af18015613a3257613a06575b50613906613901600b611cfa565b61177d565b91635260590a91613938339261392961391d610292565b938492602084016136e4565b60208201810382520382610661565b61394a61394482611d28565b91611d22565b2092803b15613a01576139705f809461397b613964610292565b97889687958694611c1f565b845260048401613743565b03925af180156139fc576139d0575b50336139cb6139b97f0f5bb82176feb1b5e747e28471aa92156a04d9f3ab9f45f28e2d704232b93f7592610439565b926139c2610292565b9182918261036c565b0390a2565b6139ef905f3d81116139f5575b6139e78183610661565b810190611c25565b5f61398a565b503d6139dd565b611cd6565b611c1b565b613a25905f3d8111613a2b575b613a1d8183610661565b810190611c25565b5f6138f3565b503d613a13565b611cd6565b611c1b565b613a5d915060203d8111613a63575b613a558183610661565b8101906122d8565b5f613893565b503d613a4b565b611cd6565b613a7761362b565b565b90613a949291613a8f613a8a610b92565b6148db565b613b78565b565b5190565b5f7f417272617973206c656e677468206d69736d6174636800000000000000000000910152565b613ace6016602092610ffd565b613ad781613a9a565b0190565b613af09060208101905f818303910152613ac1565b90565b15613afa57565b613b02610292565b62461bcd60e51b815280613b1860048201613adb565b0390fd5b6001613b28910161035c565b90565b90613b35826110fc565b811015613b46576020809102010190565b611859565b613b5590516103c1565b90565b90613b6282613a96565b811015613b73576020809102010190565b611859565b9190613ba6613b86846110fc565b613ba0613b9a613b9585613a96565b61035c565b9161035c565b14613af3565b613baf5f611aea565b5b80613bcb613bc5613bc0876110fc565b61035c565b9161035c565b1015613d4c57613c1490613be8613be3868390613b2b565b613b4b565b613c02613bfc613bf75f611a5c565b6103c1565b916103c1565b141580613d20575b613c19575b613b1c565b613bb0565b613c65613c2f613c2a858490613b58565b6132d4565b613c5f613c506003613c4a613c458b8890613b2b565b613b4b565b90610909565b91613c5a83610477565b611b9c565b90611bda565b613cb1613c7b613c76858490613b58565b6132d4565b613cab613c9c6004613c96613c918b8890613b2b565b613b4b565b90610909565b91613ca683610477565b611b9c565b90611bda565b613cc4613cbf868390613b2b565b613b4b565b613cd7613cd2858490613b58565b6132d4565b9085613d037f49649141d16971a88c3cfdd73fec34babb1cf163cf8b804c8f537a023c6ce50692610439565b92613d18613d0f610292565b92839283611da0565b0390a2613c0f565b50613d34613d2f848390613b58565b6132d4565b613d46613d405f611aea565b9161035c565b11613c0a565b50505050565b90613d5d9291613a79565b565b90613d6990610439565b5f5260205260405f2090565b613d9b915f613d90613d9693613d8961195a565b50826119c8565b01613d5f565b61049e565b90565b606090565b613dad606061068a565b90565b90613dff613df66002613dc1613da3565b94613dd8613dd05f8301610477565b5f88016132c3565b613df0613de760018301610477565b602088016132c3565b01611639565b604084016132d1565b565b613e0a90613db0565b90565b613e36613e3b91613e1c61199e565b50613e2561199e565b50613e2e613d9e565b50600661153a565b613e01565b90613e475f83016132d4565b906040613e56602085016132d4565b93015191929190565b606090565b60209181520190565b613e79613e7e9161045b565b6118a2565b90565b613e8b9054613e6d565b90565b60010190565b90613eb1613eab613ea48461186d565b8093613e64565b92611871565b905f5b818110613ec15750505090565b909192613ee1613edb600192613ed687613e81565b61111c565b94613e8e565b9101919091613eb4565b90613ef591613e94565b90565b90613f18613f1192613f08610292565b93848092613eeb565b0383610661565b565b613f2390613ef8565b90565b613f2e613e5f565b50613f396007613f1a565b90565b90613f579291613f52613f4d610b92565b6148db565b614031565b565b613f6360a061068a565b90565b90613f70906102f1565b9052565b613f7e90516102f1565b90565b90613ff760806004613ffd94613fa45f8201613f9e5f88016132d4565b90611bda565b613fbd60018201613fb7602088016132d4565b90611bda565b613fd660028201613fd0604088016132d4565b90611bda565b613fef60038201613fe960608801613f74565b90612274565b0192016132d4565b90611bda565b565b9061400991613f81565b565b9291602061402761402f9360408701908782035f890152611011565b94019061035f565b565b909161409d9061408c84916140835f9161407a426140716140686001949661406361405a613f59565b9a5f8c016132c3565b611aea565b602089016132c3565b604087016132c3565b60608501613f66565b608083016132c3565b61409860058490611440565b613fff565b907ffabd79ba44a4f4d5184ca017469f82e6f3446df135e6d8a69250ecfbd09cf004916140d46140cb610292565b9283928361400b565b0390a1565b906140e49291613f3c565b565b6140f7906140f261491b565b6143b3565b6140ff614980565b565b5f7f416d6f756e742062656c6f77206d696e696d756d207374616b65000000000000910152565b614135601a602092610ffd565b61413e81614101565b0190565b6141579060208101905f818303910152614128565b90565b1561416157565b614169610292565b62461bcd60e51b81528061417f60048201614142565b0390fd5b61418c9061042d565b90565b6040906141b86141bf94969593966141ae60608401985f8501906118ff565b60208301906118ff565b019061035f565b565b90565b5f5260205f2090565b5490565b6141da816141cd565b8210156141f4576141ec6001916141c4565b910201905f90565b611859565b9190600861421991029161421360018060a01b03846132ef565b926132ef565b9181191691161790565b90565b919061423c61423761424493610439565b614223565b9083546141f9565b9055565b90815491680100000000000000008310156142785782614270916001614276950181556141d1565b90614226565b565b61064d565b90565b61429461428f6142999261427d565b61040e565b611c37565b90565b6142a590614280565b9052565b5f7f5374616b656420746f6b656e7300000000000000000000000000000000000000910152565b6142dd600d602092610ffd565b6142e6816142a9565b0190565b61430c6143199361430260608401945f8501906118ff565b602083019061429c565b60408183039101526142d0565b90565b5f7f544f4b454e535f5354414b454400000000000000000000000000000000000000910152565b614350600d602092610ffd565b6143598161431c565b0190565b91604061438e92949361438761437c606083018381035f850152614343565b9660208301906118ff565b01906105c1565b565b9160206143b19294936143aa60408201965f83019061035f565b019061035f565b565b6143d9816143d26143cc6143c7600c610477565b61035c565b9161035c565b101561415a565b6143eb6143e660096122a8565b610c7a565b60206323b872dd91339061441b5f61440230614183565b956144268861440f610292565b98899788968795611c1f565b85526004850161418f565b03925af1801561471157614441915f916146e3575b50612372565b61446061445a6002614454813390610445565b0161049e565b156102f1565b6146ca575b61448f816144895f61447960023390610445565b019161448483610477565b611b9c565b90611bda565b6144a74260016144a160023390610445565b01611bda565b6144bf600160026144b9813390610445565b01612274565b6144ea6144d6426144d06010610477565b90611b9c565b60036144e460023390610445565b01611bda565b614507614500826144fb600f610477565b611b9c565b600f611bda565b6145256145205f61451a60023390610445565b01610477565b614c2d565b90614538614533600a611c0e565b6108a6565b630cc9ec5b33600592803b156146c5576145655f8094614570614559610292565b97889687958694611c1f565b8452600484016142ea565b03925af180156146c057614694575b5061459261458d600b611cfa565b61177d565b635260590a33836145c486916145b56145a9610292565b938492602084016136e4565b60208201810382520382610661565b6145d66145d082611d28565b91611d22565b2092803b1561468f576145fc5f80946146076145f0610292565b97889687958694611c1f565b84526004840161435d565b03925af1801561468a5761465e575b503390916146447f1449c6dd7851abc30abf37f57715f492010519147cc2652fbc38202c18a6ee9092610439565b92614659614650610292565b92839283614390565b0390a2565b61467d905f3d8111614683575b6146758183610661565b810190611c25565b5f614616565b503d61466b565b611cd6565b611c1b565b6146b3905f3d81116146b9575b6146ab8183610661565b810190611c25565b5f61457f565b503d6146a1565b611cd6565b611c1b565b6146de6146d760076141c1565b3390614248565b614465565b614704915060203d811161470a575b6146fc8183610661565b8101906122d8565b5f61443b565b503d6146f2565b611cd6565b61471f906140e6565b565b61472b60a061068a565b90565b906147ad6147a4600461473f614721565b9461475661474e5f8301610477565b5f88016132c3565b61476e61476560018301610477565b602088016132c3565b61478661477d6002830161049e565b60408801613f66565b61479e61479560038301610477565b606088016132c3565b0161049e565b60808401613f66565b565b6147b89061472e565b90565b6147ff614804916147ca61199e565b506147d361199e565b506147dc61195a565b506147e561199e565b506147ee61195a565b506147f761199e565b506002610445565b6147af565b906148105f83016132d4565b9061481d602084016132d4565b9261482a60408201613f74565b92614837606083016132d4565b926148576148525f61484b60808701613f74565b95016132d4565b614c2d565b91959493929190565b9061487b9161487661487182611a02565b6148db565b61487d565b565b9061488791614b70565b50565b9061489491614860565b565b6148ad6148b2916148a561199e565b506003610909565b610477565b90565b6148bd61195a565b506148d76148d16301ffc9a760e01b6102a4565b916102a4565b1490565b6148ed906148e7614b63565b90614cf2565b565b90565b61490661490161490b926148ef565b61040e565b61035c565b90565b61491860026148f2565b90565b6149256001610477565b61493e61493861493361490e565b61035c565b9161035c565b146149575761495561494e61490e565b6001611bda565b565b5f633ee5aeb560e01b81528061496f60048201610777565b0390fd5b61497d6001612811565b90565b61499261498b614973565b6001611bda565b565b634e487b7160e01b5f52603160045260245ffd5b5f90565b6149be916149b86149a8565b91614226565b565b6149c9816141cd565b80156149ea5760019003906149e76149e183836141d1565b906149ac565b55565b614994565b6149f85f611aea565b5b80614a15614a0f614a0a600761186d565b61035c565b9161035c565b1015614ab157614a30614a2a6007839061187a565b906118c5565b614a42614a3c846103c1565b916103c1565b14614a5557614a5090613b1c565b6149f9565b614a9c9150614a96614a8e614a886007614a82614a72600761186d565b614a7c6001612811565b9061222a565b9061187a565b906118c5565b91600761187a565b90614226565b614aae614aa960076141c1565b6149c0565b5b565b5050614aaf565b614ac061195a565b50614ad5614acf828490613d75565b156102f1565b5f14614b5d57614afc6001614af75f614aef8186906119c8565b018590613d5f565b612274565b90614b05614b63565b90614b42614b3c614b367f2f8788117e7eff1d82e926ec794901d17c78024a50270940304540a733656f0d956119bc565b92610439565b92610439565b92614b4b610292565b80614b5581610777565b0390a4600190565b50505f90565b614b6b6149a8565b503390565b614b7861195a565b50614b84818390613d75565b5f14614c0b57614baa5f614ba55f614b9d8186906119c8565b018590613d5f565b612274565b90614bb3614b63565b90614bf0614bea614be47ff6391f5c32d9c69d2a47ea670b442974b53935d1edc7fd64eb21e047a839171b956119bc565b92610439565b92610439565b92614bf9610292565b80614c0381610777565b0390a4600190565b50505f90565b614c1a9061035c565b5f8114614c28576001900390565b611b88565b614c3561199e565b50614c406008610477565b5b80614c54614c4e5f611aea565b9161035c565b1115614cc15781614c95614c8f614c8a5f614c846006614c7e88614c786001612811565b9061222a565b9061153a565b01610477565b61035c565b9161035c565b1015614ca957614ca490614c11565b614c41565b614cbe9150614cb86001612811565b9061222a565b90565b5050614ccc5f611aea565b90565b916020614cf0929493614ce960408201965f8301906118ff565b01906105c1565b565b90614d07614d01838390613d75565b156102f1565b614d0f575050565b614d295f92839263e2517d3f60e01b845260048401614ccf565b0390fdfea26469706673582212204534cbc9255c09eaf444df8fdc2f26a3c0dbc7dbc58794b3aa03488719b7b9c964736f6c634300081e0033","linkReferences":{}},"methodIdentifiers":{"DEFAULT_ADMIN_ROLE()":"a217fddf","REWARD_ADMIN_ROLE()":"65db6818","SLASHER_ROLE()":"5095af64","addStakingTier(uint256,uint256,string)":"516b61fe","batchDistributeRewards(address[],uint256[],string)":"8df456fb","calculateReward(address,string)":"36aaaf2e","claimRewards()":"372500ab","createRewardPool(string,uint256,uint256)":"a34015bd","distributeReward(address,uint256,string)":"2a7ea9d2","emergencyUnstake()":"7589cf2f","getActiveStakers()":"9fb82db9","getPendingRewards(address)":"f6ed2017","getRoleAdmin(bytes32)":"248a9ca3","getStakeInfo(address)":"c3453153","getStakingTierInfo(uint256)":"9488015e","getTotalStaked()":"0917e776","grantRole(bytes32,address)":"2f2ff15d","hasRole(bytes32,address)":"91d14854","minimumStake()":"ec5ffac2","pendingRewards(address)":"31d7a262","renounceRole(bytes32,address)":"36568abe","revokeRole(bytes32,address)":"d547741f","rewardPools(string)":"c49f4797","rewardRate()":"7b0a47ee","slash(address,string)":"402b71dd","slashingPercentage()":"69666a49","stake(uint256)":"a694fc3a","stakers(uint256)":"fd5e6dd1","stakes(address)":"16934fc4","stakingLockPeriod()":"e0639364","stakingTierCount()":"8b9aa788","stakingTiers(uint256)":"d50267ee","stakingToken()":"72f702f3","supportsInterface(bytes4)":"01ffc9a7","totalEarnedRewards(address)":"9c1b49cb","totalStaked()":"817b1cd2","trustScore()":"3078d998","unstake(uint256)":"2e17de78","verificationLogger()":"e1300c88"},"id":64}