{"abi":[{"type":"constructor","inputs":[{"name":"_entryPoint","type":"address","internalType":"address"},{"name":"_verificationLogger","type":"address","internalType":"address"},{"name":"_trustScore","type":"address","internalType":"address"},{"name":"_gasManager","type":"address","internalType":"address"},{"name":"_alchemyAppId","type":"string","internalType":"string"},{"name":"_alchemySignerAddress","type":"address","internalType":"address"}],"stateMutability":"nonpayable"},{"type":"receive","stateMutability":"payable"},{"type":"function","name":"DEFAULT_ADMIN_ROLE","inputs":[],"outputs":[{"name":"","type":"bytes32","internalType":"bytes32"}],"stateMutability":"view"},{"type":"function","name":"FACTORY_ADMIN_ROLE","inputs":[],"outputs":[{"name":"","type":"bytes32","internalType":"bytes32"}],"stateMutability":"view"},{"type":"function","name":"accountCreationTime","inputs":[{"name":"","type":"address","internalType":"address"}],"outputs":[{"name":"","type":"uint256","internalType":"uint256"}],"stateMutability":"view"},{"type":"function","name":"accountOwners","inputs":[{"name":"","type":"address","internalType":"address"}],"outputs":[{"name":"","type":"address","internalType":"address"}],"stateMutability":"view"},{"type":"function","name":"addDefaultDApp","inputs":[{"name":"domain","type":"string","internalType":"string"}],"outputs":[],"stateMutability":"nonpayable"},{"type":"function","name":"alchemyConfig","inputs":[],"outputs":[{"name":"apiKey","type":"string","internalType":"string"},{"name":"appId","type":"string","internalType":"string"},{"name":"signerAddress","type":"address","internalType":"address"},{"name":"useAlchemySigner","type":"bool","internalType":"bool"},{"name":"maxAccountsPerUser","type":"uint256","internalType":"uint256"}],"stateMutability":"view"},{"type":"function","name":"allAccounts","inputs":[{"name":"","type":"uint256","internalType":"uint256"}],"outputs":[{"name":"","type":"address","internalType":"address"}],"stateMutability":"view"},{"type":"function","name":"createAccount","inputs":[{"name":"owner","type":"address","internalType":"address"},{"name":"salt","type":"bytes32","internalType":"bytes32"},{"name":"setupSessionKeys","type":"bool","internalType":"bool"}],"outputs":[{"name":"account","type":"address","internalType":"address"}],"stateMutability":"payable"},{"type":"function","name":"createAccountWithAlchemy","inputs":[{"name":"owner","type":"address","internalType":"address"},{"name":"sessionKeyCount","type":"uint256","internalType":"uint256"},{"name":"","type":"bytes","internalType":"bytes"},{"name":"","type":"bytes","internalType":"bytes"}],"outputs":[{"name":"account","type":"address","internalType":"address"}],"stateMutability":"nonpayable"},{"type":"function","name":"creationConfig","inputs":[],"outputs":[{"name":"creationFee","type":"uint256","internalType":"uint256"},{"name":"initialTrustScore","type":"uint256","internalType":"uint256"},{"name":"gaslessCreation","type":"bool","internalType":"bool"},{"name":"autoSetupSessionKeys","type":"bool","internalType":"bool"}],"stateMutability":"view"},{"type":"function","name":"emergencyPause","inputs":[],"outputs":[],"stateMutability":"nonpayable"},{"type":"function","name":"emergencyWithdraw","inputs":[],"outputs":[],"stateMutability":"nonpayable"},{"type":"function","name":"entryPoint","inputs":[],"outputs":[{"name":"","type":"address","internalType":"address"}],"stateMutability":"view"},{"type":"function","name":"gasManager","inputs":[],"outputs":[{"name":"","type":"address","internalType":"contract AlchemyGasManager"}],"stateMutability":"view"},{"type":"function","name":"getAccountAddress","inputs":[{"name":"owner","type":"address","internalType":"address"},{"name":"salt","type":"bytes32","internalType":"bytes32"}],"outputs":[{"name":"predictedAddress","type":"address","internalType":"address"}],"stateMutability":"view"},{"type":"function","name":"getAccountOwner","inputs":[{"name":"account","type":"address","internalType":"address"}],"outputs":[{"name":"","type":"address","internalType":"address"}],"stateMutability":"view"},{"type":"function","name":"getAccountsByOwner","inputs":[{"name":"owner","type":"address","internalType":"address"}],"outputs":[{"name":"accounts","type":"address[]","internalType":"address[]"},{"name":"creationTimes","type":"uint256[]","internalType":"uint256[]"},{"name":"isValid","type":"bool[]","internalType":"bool[]"}],"stateMutability":"view"},{"type":"function","name":"getAllAccounts","inputs":[],"outputs":[{"name":"","type":"address[]","internalType":"address[]"}],"stateMutability":"view"},{"type":"function","name":"getDefaultDApps","inputs":[],"outputs":[{"name":"","type":"string[]","internalType":"string[]"}],"stateMutability":"view"},{"type":"function","name":"getRoleAdmin","inputs":[{"name":"role","type":"bytes32","internalType":"bytes32"}],"outputs":[{"name":"","type":"bytes32","internalType":"bytes32"}],"stateMutability":"view"},{"type":"function","name":"getTotalAccounts","inputs":[],"outputs":[{"name":"","type":"uint256","internalType":"uint256"}],"stateMutability":"view"},{"type":"function","name":"getUserAccounts","inputs":[{"name":"owner","type":"address","internalType":"address"}],"outputs":[{"name":"","type":"address[]","internalType":"address[]"}],"stateMutability":"view"},{"type":"function","name":"grantRole","inputs":[{"name":"role","type":"bytes32","internalType":"bytes32"},{"name":"account","type":"address","internalType":"address"}],"outputs":[],"stateMutability":"nonpayable"},{"type":"function","name":"hasRole","inputs":[{"name":"role","type":"bytes32","internalType":"bytes32"},{"name":"account","type":"address","internalType":"address"}],"outputs":[{"name":"","type":"bool","internalType":"bool"}],"stateMutability":"view"},{"type":"function","name":"isEduCertAccount","inputs":[{"name":"","type":"address","internalType":"address"}],"outputs":[{"name":"","type":"bool","internalType":"bool"}],"stateMutability":"view"},{"type":"function","name":"removeDefaultDApp","inputs":[{"name":"index","type":"uint256","internalType":"uint256"}],"outputs":[],"stateMutability":"nonpayable"},{"type":"function","name":"renounceRole","inputs":[{"name":"role","type":"bytes32","internalType":"bytes32"},{"name":"callerConfirmation","type":"address","internalType":"address"}],"outputs":[],"stateMutability":"nonpayable"},{"type":"function","name":"revokeRole","inputs":[{"name":"role","type":"bytes32","internalType":"bytes32"},{"name":"account","type":"address","internalType":"address"}],"outputs":[],"stateMutability":"nonpayable"},{"type":"function","name":"saltToAccount","inputs":[{"name":"","type":"bytes32","internalType":"bytes32"}],"outputs":[{"name":"","type":"address","internalType":"address"}],"stateMutability":"view"},{"type":"function","name":"supportsInterface","inputs":[{"name":"interfaceId","type":"bytes4","internalType":"bytes4"}],"outputs":[{"name":"","type":"bool","internalType":"bool"}],"stateMutability":"view"},{"type":"function","name":"trustScore","inputs":[],"outputs":[{"name":"","type":"address","internalType":"contract ITrustScore"}],"stateMutability":"view"},{"type":"function","name":"updateAlchemyConfig","inputs":[{"name":"appId","type":"string","internalType":"string"},{"name":"signerAddress","type":"address","internalType":"address"},{"name":"useAlchemySigner","type":"bool","internalType":"bool"},{"name":"maxAccountsPerUser","type":"uint256","internalType":"uint256"}],"outputs":[],"stateMutability":"nonpayable"},{"type":"function","name":"updateCreationConfig","inputs":[{"name":"creationFee","type":"uint256","internalType":"uint256"},{"name":"initialTrustScore","type":"uint256","internalType":"uint256"},{"name":"gaslessCreation","type":"bool","internalType":"bool"},{"name":"autoSetupSessionKeys","type":"bool","internalType":"bool"}],"outputs":[],"stateMutability":"nonpayable"},{"type":"function","name":"userAccounts","inputs":[{"name":"","type":"address","internalType":"address"},{"name":"","type":"uint256","internalType":"uint256"}],"outputs":[{"name":"","type":"address","internalType":"address"}],"stateMutability":"view"},{"type":"function","name":"verificationLogger","inputs":[],"outputs":[{"name":"","type":"address","internalType":"contract IVerificationLogger"}],"stateMutability":"view"},{"type":"event","name":"AccountCreated","inputs":[{"name":"account","type":"address","indexed":true,"internalType":"address"},{"name":"owner","type":"address","indexed":true,"internalType":"address"},{"name":"salt","type":"bytes32","indexed":false,"internalType":"bytes32"},{"name":"gasless","type":"bool","indexed":false,"internalType":"bool"},{"name":"trustScore","type":"uint256","indexed":false,"internalType":"uint256"}],"anonymous":false},{"type":"event","name":"AccountUpgraded","inputs":[{"name":"account","type":"address","indexed":true,"internalType":"address"},{"name":"newImplementation","type":"address","indexed":false,"internalType":"address"}],"anonymous":false},{"type":"event","name":"AlchemyConfigUpdated","inputs":[{"name":"appId","type":"string","indexed":false,"internalType":"string"},{"name":"signerAddress","type":"address","indexed":false,"internalType":"address"}],"anonymous":false},{"type":"event","name":"CreationConfigUpdated","inputs":[{"name":"fee","type":"uint256","indexed":false,"internalType":"uint256"},{"name":"gaslessCreation","type":"bool","indexed":false,"internalType":"bool"}],"anonymous":false},{"type":"event","name":"RoleAdminChanged","inputs":[{"name":"role","type":"bytes32","indexed":true,"internalType":"bytes32"},{"name":"previousAdminRole","type":"bytes32","indexed":true,"internalType":"bytes32"},{"name":"newAdminRole","type":"bytes32","indexed":true,"internalType":"bytes32"}],"anonymous":false},{"type":"event","name":"RoleGranted","inputs":[{"name":"role","type":"bytes32","indexed":true,"internalType":"bytes32"},{"name":"account","type":"address","indexed":true,"internalType":"address"},{"name":"sender","type":"address","indexed":true,"internalType":"address"}],"anonymous":false},{"type":"event","name":"RoleRevoked","inputs":[{"name":"role","type":"bytes32","indexed":true,"internalType":"bytes32"},{"name":"account","type":"address","indexed":true,"internalType":"address"},{"name":"sender","type":"address","indexed":true,"internalType":"address"}],"anonymous":false},{"type":"event","name":"SessionKeysAutoSetup","inputs":[{"name":"account","type":"address","indexed":true,"internalType":"address"},{"name":"dApps","type":"string[]","indexed":false,"internalType":"string[]"}],"anonymous":false},{"type":"error","name":"AccessControlBadConfirmation","inputs":[]},{"type":"error","name":"AccessControlUnauthorizedAccount","inputs":[{"name":"account","type":"address","internalType":"address"},{"name":"neededRole","type":"bytes32","internalType":"bytes32"}]}],"bytecode":{"object":"0x60a06040523461005457610020610014610207565b94939093929192610e5b565b610028610059565b61949c6116f682396080518181816115e20152818161201801528181612ee201526139b2015261949c90f35b61005f565b60405190565b5f80fd5b601f801991011690565b634e487b7160e01b5f52604160045260245ffd5b9061008b90610063565b810190811060018060401b038211176100a357604052565b61006d565b906100bb6100b4610059565b9283610081565b565b5f80fd5b5f80fd5b60018060a01b031690565b6100d9906100c5565b90565b6100e5816100d0565b036100ec57565b5f80fd5b905051906100fd826100dc565b565b5f80fd5b5f80fd5b60018060401b0381116101235761011f602091610063565b0190565b61006d565b90825f9392825e0152565b9092919261014861014382610107565b6100a8565b938185526020850190828401116101645761016292610128565b565b610103565b9080601f830112156101875781602061018493519101610133565b90565b6100ff565b909160c082840312610202576101a4835f84016100f0565b926101b281602085016100f0565b926101c082604083016100f0565b926101ce83606084016100f0565b9260808301519060018060401b0382116101fd576101f1816101fa938601610169565b9360a0016100f0565b90565b6100c1565b6100bd565b61022561ab928038038061021a816100a8565b92833981019061018c565b909192939495565b90565b90565b61024761024261024c9261022d565b610230565b6100c5565b90565b61025890610233565b90565b60209181520190565b5f7f496e76616c696420456e747279506f696e740000000000000000000000000000910152565b610298601260209261025b565b6102a181610264565b0190565b6102ba9060208101905f81830391015261028b565b90565b156102c457565b6102cc610059565b62461bcd60e51b8152806102e2600482016102a5565b0390fd5b5f7f496e76616c696420766572696669636174696f6e206c6f676765720000000000910152565b61031a601b60209261025b565b610323816102e6565b0190565b61033c9060208101905f81830391015261030d565b90565b1561034657565b61034e610059565b62461bcd60e51b81528061036460048201610327565b0390fd5b5f7f496e76616c69642074727573742073636f726500000000000000000000000000910152565b61039c601360209261025b565b6103a581610368565b0190565b6103be9060208101905f81830391015261038f565b90565b156103c857565b6103d0610059565b62461bcd60e51b8152806103e6600482016103a9565b0390fd5b90565b5f1b90565b61040661040161040b9261022d565b6103ed565b6103ea565b90565b6104175f6103f2565b90565b7fbd5d72ac35ae1e83aa0625c57eddda63fbb064a87fca99dfdd7ce027384ae28290565b61045261044d610457926100c5565b610230565b6100c5565b90565b6104639061043e565b90565b61046f9061045a565b90565b9061048360018060a01b03916103ed565b9181191691161790565b6104969061045a565b90565b90565b906104b16104ac6104b89261048d565b610499565b8254610472565b9055565b6104c59061043e565b90565b6104d1906104bc565b90565b6104dd906104bc565b90565b90565b906104f86104f36104ff926104d4565b6104e0565b8254610472565b9055565b61050c9061043e565b90565b61051890610503565b90565b6105249061043e565b90565b6105309061051b565b90565b61053c9061051b565b90565b90565b9061055761055261055e92610533565b61053f565b8254610472565b9055565b61056c60a06100a8565b90565b9061058161057c83610107565b6100a8565b918252565b61058f5f61056f565b90565b61059a610586565b90565b52565b906105aa906100d0565b9052565b151590565b906105bd906105ae565b9052565b90565b90565b6105db6105d66105e0926105c1565b610230565b6105c4565b90565b906105ed906105c4565b9052565b634e487b7160e01b5f525f60045260245ffd5b5190565b5190565b634e487b7160e01b5f52602260045260245ffd5b9060016002830492168015610640575b602083101461063b57565b61060c565b91607f1691610630565b5f5260205f2090565b601f602091010490565b1b90565b9190600861067c9102916106765f198461065d565b9261065d565b9181191691161790565b61069a61069561069f926105c4565b610230565b6105c4565b90565b90565b91906106bb6106b66106c393610686565b6106a2565b908354610661565b9055565b5f90565b6106dd916106d76106c7565b916106a5565b565b5b8181106106eb575050565b806106f85f6001936106cb565b016106e0565b9190601f811161070e575b505050565b61071a61073f9361064a565b90602061072684610653565b83019310610747575b61073890610653565b01906106df565b5f8080610709565b91506107388192905061072f565b1c90565b90610769905f1990600802610755565b191690565b8161077891610759565b906002021790565b9061078a81610608565b9060018060401b038211610848576107ac826107a68554610620565b856106fe565b602090601f83116001146107e0579180916107cf935f926107d4575b505061076e565b90555b565b90915001515f806107c8565b601f198316916107ef8561064a565b925f5b81811061083057509160029391856001969410610816575b505050020190556107d2565b610826910151601f841690610759565b90555f808061080a565b919360206001819287870151815501950192016107f2565b61006d565b9061085791610780565b565b61086390516100d0565b90565b61086f9061043e565b90565b61087b90610866565b90565b90565b9061089661089161089d92610872565b61087e565b8254610472565b9055565b6108ab90516105ae565b90565b60a01b90565b906108c360ff60a01b916108ae565b9181191691161790565b6108d6906105ae565b90565b90565b906108f16108ec6108f8926108cd565b6108d9565b82546108b4565b9055565b61090690516105c4565b90565b906109155f19916103ed565b9181191691161790565b9061093461092f61093b92610686565b6106a2565b8254610909565b9055565b906109b5608060036109bb946109625f820161095c5f8801610604565b9061084d565b61097b6001820161097560208801610604565b9061084d565b6109946002820161098e60408801610859565b90610881565b6109ad600282016109a7606088016108a1565b906108dc565b0192016108fc565b9061091f565b565b906109c79161093f565b565b6109dd6109d86109e29261022d565b610230565b6105c4565b90565b60018060401b0381116109fb5760208091020190565b61006d565b90610a12610a0d836109e5565b6100a8565b918252565b606090565b5f5b828110610a2a57505050565b602090610a35610a17565b8184015201610a1e565b90610a64610a4c83610a00565b92602080610a5a86936109e5565b9201910390610a1c565b565b610a7060a06100a8565b90565b90565b610a8a610a85610a8f92610a73565b610230565b6105c4565b90565b52565b90610aa160ff916103ed565b9181191691161790565b90610ac0610abb610ac7926108cd565b6108d9565b8254610a95565b9055565b60081b90565b90610ade61ff0091610acb565b9181191691161790565b90610afd610af8610b04926108cd565b6108d9565b8254610ad1565b9055565b5190565b60200190565b5490565b600190818003010490565b5f5260205f2090565b90610b3d905f1990602003600802610755565b8154169055565b905f91610b5b610b538261064a565b92835461076e565b905555565b919290602082105f14610bb957601f8411600114610b8957610b8392935061076e565b90555b5b565b5090610baf610bb4936001610ba6610ba08561064a565b92610653565b820191016106df565b610b44565b610b86565b50610bf08293610bca60019461064a565b610be9610bd685610653565b820192601f861680610bfb575b50610653565b01906106df565b600202179055610b87565b610c0790888603610b2a565b5f610be3565b929091680100000000000000008211610c6d576020115f14610c5e57602081105f14610c4257610c3c9161076e565b90555b5b565b60019160ff1916610c528461064a565b55600202019055610c3f565b60019150600202019055610c40565b61006d565b908154610c7e81610620565b90818311610ca7575b818310610c95575b50505050565b610c9e93610b60565b5f808080610c8f565b610cb383838387610c0d565b610c87565b5f610cc291610c72565b565b905f03610cd657610cd490610cb8565b565b6105f1565b5b818110610ce7575050565b80610cf45f600193610cc4565b01610cdc565b9091828110610d09575b505050565b610d27610d21610d1b610d3295610b16565b92610b16565b92610b21565b918201910190610cdb565b5f8080610d04565b90680100000000000000008111610d635781610d58610d6193610b12565b90828155610cfa565b565b61006d565b5190565b610d91610d8b610d7b84610d68565b93610d868585610d3a565b610b0c565b91610b21565b5f915b838310610da15750505050565b6001602082610db9610db38495610604565b8661084d565b01920192019190610d94565b90610dcf91610d6c565b565b90610e4760806003610e4d94610df45f8201610dee5f88016108fc565b9061091f565b610e0d60018201610e07602088016108fc565b9061091f565b610e2660028201610e20604088016108a1565b90610aab565b610e3f60028201610e39606088016108a1565b90610ae8565b019201610b08565b90610dc5565b565b90610e5991610dd1565b565b610f39610f34610f9495610f2f610f28610f8b97610f23610f1c610f9b9d9c99610f4099610ea481610e9d610e97610e925f61024f565b6100d0565b916100d0565b14156102bd565b610ec982610ec2610ebc610eb75f61024f565b6100d0565b916100d0565b141561033f565b610eee85610ee7610ee1610edc5f61024f565b6100d0565b916100d0565b14156103c1565b608052610f03610efc61040e565b339061105e565b50610f16610f0f61041a565b339061105e565b50610466565b600161049c565b6104c8565b60026104e3565b61050f565b610527565b6003610542565b92610f866001610f7d600593610f74610f57610562565b98610f6b610f63610592565b5f8c0161059d565b60208a0161059d565b604088016105a0565b606086016105b3565b6105c7565b608083016105e3565b60046109bd565b6110135f61100c60196110036001610ffa600191610ff1610fe8610fc6610fc15f6109c9565b610a3f565b96610fe3610fdb610fd5610a66565b9b6109c9565b5f8c016105e3565b610a76565b602089016105e3565b604087016105b3565b606085016105b3565b60808301610a92565b6008610e4f565b61101b6115e5565b565b5f90565b61102a906103ea565b90565b9061103790611021565b5f5260205260405f2090565b9061104d90610872565b5f5260205260405f2090565b5f0190565b61106661101d565b5061107b6110758284906116bb565b156105ae565b5f14611103576110a2600161109d5f61109581869061102d565b018590611043565b610aab565b906110ab6116e8565b906110e86110e26110dc7f2f8788117e7eff1d82e926ec794901d17c78024a50270940304540a733656f0d95611021565b92610872565b92610872565b926110f1610059565b806110fb81611059565b0390a4600190565b50505f90565b90565b5f5260205f2090565b634e487b7160e01b5f52603260045260245ffd5b5490565b5f5260205f2090565b61113f81611129565b8210156111595761115160019161110c565b910201905f90565b611115565b9190601f811161116e575b505050565b61117a61119f9361112d565b90602061118684610653565b830193106111a7575b61119890610653565b01906106df565b5f8080611169565b91506111988192905061118f565b6111ca600b6111c48354610620565b8361115e565b60167f756e69737761702e6f7267000000000000000000000000000000000000000000019055565b9061120257611200906111b5565b565b6105f1565b80549068010000000000000000821015611236578161122e91600161123494018155611136565b906111f2565b565b61006d565b611250600a61124a8354610620565b8361115e565b60147f6f70656e7365612e696f00000000000000000000000000000000000000000000019055565b90611288576112869061123b565b565b6105f1565b805490680100000000000000008210156112bc57816112b49160016112ba94018155611136565b90611278565b565b61006d565b6112d660106112d08354610620565b8361115e565b60207f636f6d706f756e642e66696e616e636500000000000000000000000000000000019055565b9061130e5761130c906112c1565b565b6105f1565b80549068010000000000000000821015611342578161133a91600161134094018155611136565b906112fe565b565b61006d565b61135c60086113568354610620565b8361115e565b60107f616176652e636f6d000000000000000000000000000000000000000000000000019055565b906113945761139290611347565b565b6105f1565b805490680100000000000000008210156113c857816113c09160016113c694018155611136565b90611384565b565b61006d565b6113e2600b6113dc8354610620565b8361115e565b60167f656e732e646f6d61696e73000000000000000000000000000000000000000000019055565b9061141a57611418906113cd565b565b6105f1565b8054906801000000000000000082101561144e578161144691600161144c94018155611136565b9061140a565b565b61006d565b611468600b6114628354610620565b8361115e565b60167f6d6574616d61736b2e696f000000000000000000000000000000000000000000019055565b906114a05761149e90611453565b565b6105f1565b805490680100000000000000008210156114d457816114cc9160016114d294018155611136565b90611490565b565b61006d565b6114ee600a6114e88354610620565b8361115e565b60147f7261696e626f772e6d6500000000000000000000000000000000000000000000019055565b9061152657611524906114d9565b565b6105f1565b8054906801000000000000000082101561155a578161155291600161155894018155611136565b90611516565b565b61006d565b611574600b61156e8354610620565b8361115e565b60167f656475636572742e617070000000000000000000000000000000000000000000019055565b906115ac576115aa9061155f565b565b6105f1565b805490680100000000000000008210156115e057816115d89160016115de94018155611136565b9061159c565b565b61006d565b6115fa6115f56003600801611109565b611207565b61160f61160a6003600801611109565b61128d565b61162461161f6003600801611109565b611313565b6116396116346003600801611109565b611399565b61164e6116496003600801611109565b61141f565b61166361165e6003600801611109565b6114a5565b6116786116736003600801611109565b61152b565b61168d6116886003600801611109565b6115b1565b565b5f1c90565b60ff1690565b6116a66116ab9161168f565b611694565b90565b6116b8905461169a565b90565b6116e1915f6116d66116dc936116cf61101d565b508261102d565b01611043565b6116ae565b90565b5f90565b6116f06116e4565b50339056fe60806040526004361015610015575b3661191457005b61001f5f3561024e565b806301b9e71b1461024957806301ffc9a71461024457806305951c8e1461023f5780630644fc9c1461023a57806308e93d0a146102355780630d87fdba146102305780630f4e2c161461022b578063248a9ca31461022657806325350f08146102215780632f2ff15d1461021c5780633078d998146102175780633360cf5e1461021257806336568abe1461020d578063442b172c1461020857806351858e27146102035780635a29f9eb146101fe5780636c3fda1d146101f957806372aebcfb146101f457806379cf44d0146101ef57806383532d68146101ea5780638c7c83e8146101e557806391d14854146101e057806393eb6f19146101db578063984b8eff146101d6578063a217fddf146101d1578063ad1217db146101cc578063ad872a86146101c7578063b0d691fe146101c2578063b5e4a1c4146101bd578063d547741f146101b8578063da6841aa146101b3578063db2e21bc146101ae578063dbfb8cc0146101a9578063e1300c88146101a45763eb3f07d40361000e576118df565b611855565b6117b1565b611751565b61171c565b6116e8565b6116b3565b611604565b6115ab565b611574565b6114f9565b611489565b6113e7565b611266565b611231565b611125565b611074565b610f7f565b610cd9565b610c2f565b610bc1565b610b8c565b610b58565b610b23565b610abf565b610a1d565b6109bb565b6108cd565b610854565b61072a565b610697565b6105b6565b610463565b6103e5565b610346565b60e01c90565b60405190565b5f80fd5b5f80fd5b60018060a01b031690565b61027690610262565b90565b6102828161026d565b0361028957565b5f80fd5b9050359061029a82610279565b565b90565b6102a88161029c565b036102af57565b5f80fd5b905035906102c08261029f565b565b151590565b6102d0816102c2565b036102d757565b5f80fd5b905035906102e8826102c7565b565b909160608284031261031f5761031c610305845f850161028d565b9361031381602086016102b3565b936040016102db565b90565b61025a565b61032d9061026d565b9052565b9190610344905f60208501940190610324565b565b61036e61035d6103573660046102ea565b91611f18565b610365610254565b91829182610331565b0390f35b5f80fd5b63ffffffff60e01b1690565b61038b81610376565b0361039257565b5f80fd5b905035906103a382610382565b565b906020828203126103be576103bb915f01610396565b90565b61025a565b6103cc906102c2565b9052565b91906103e3905f602085019401906103c3565b565b34610415576104116104006103fb3660046103a5565b61235a565b610408610254565b918291826103d0565b0390f35b610372565b90565b6104268161041a565b0361042d57565b5f80fd5b9050359061043e8261041d565b565b9060208282031261045957610456915f01610431565b90565b61025a565b5f0190565b346104915761047b610476366004610440565b612995565b610483610254565b8061048d8161045e565b0390f35b610372565b5f80fd5b5f80fd5b601f801991011690565b634e487b7160e01b5f52604160045260245ffd5b906104c69061049e565b810190811067ffffffffffffffff8211176104e057604052565b6104a8565b906104f86104f1610254565b92836104bc565b565b67ffffffffffffffff81116105185761051460209161049e565b0190565b6104a8565b90825f939282370152565b9092919261053d610538826104fa565b6104e5565b93818552602085019082840111610559576105579261051d565b565b61049a565b9080601f8301121561057c5781602061057993359101610528565b90565b610496565b906020828203126105b1575f82013567ffffffffffffffff81116105ac576105a9920161055e565b90565b61025e565b61025a565b346105e4576105ce6105c9366004610581565b612aed565b6105d6610254565b806105e08161045e565b0390f35b610372565b5f9103126105f357565b61025a565b5190565b60209181520190565b60200190565b6106149061026d565b9052565b906106258160209361060b565b0190565b60200190565b9061064c61064661063f846105f8565b80936105fc565b92610605565b905f5b81811061065c5750505090565b90919261067561066f6001928651610618565b94610629565b910191909161064f565b6106949160208201915f81840391015261062f565b90565b346106c7576106a73660046105e9565b6106c36106b2612bab565b6106ba610254565b9182918261067f565b0390f35b610372565b608081830312610725575f81013567ffffffffffffffff811161072057826106f591830161055e565b9261071d610706846020850161028d565b9361071481604086016102db565b93606001610431565b90565b61025e565b61025a565b3461075c5761074661073d3660046106cc565b92919091612cc6565b61074e610254565b806107588161045e565b0390f35b610372565b67ffffffffffffffff811161077f5761077b60209161049e565b0190565b6104a8565b9092919261079961079482610761565b6104e5565b938185526020850190828401116107b5576107b39261051d565b565b61049a565b9080601f830112156107d8578160206107d593359101610784565b90565b610496565b9060808282031261084f576107f4815f840161028d565b926108028260208501610431565b92604081013567ffffffffffffffff811161084a57836108239183016107ba565b92606082013567ffffffffffffffff81116108455761084292016107ba565b90565b61025e565b61025e565b61025a565b346108885761088461087361086a3660046107dd565b92919091612e37565b61087b610254565b91829182610331565b0390f35b610372565b906020828203126108a6576108a3915f016102b3565b90565b61025a565b6108b49061029c565b9052565b91906108cb905f602085019401906108ab565b565b346108fd576108f96108e86108e336600461088d565b613238565b6108f0610254565b918291826108b8565b0390f35b610372565b9060208282031261091b57610918915f0161028d565b90565b61025a565b90565b61093761093261093c92610262565b610920565b610262565b90565b61094890610923565b90565b6109549061093f565b90565b906109619061094b565b5f5260205260405f2090565b1c90565b60018060a01b031690565b61098c906008610991930261096d565b610971565b90565b9061099f915461097c565b90565b6109b8906109b3600d915f92610957565b610994565b90565b346109eb576109e76109d66109d1366004610902565b6109a2565b6109de610254565b91829182610331565b0390f35b610372565b9190604083820312610a185780610a0c610a15925f86016102b3565b9360200161028d565b90565b61025a565b34610a4c57610a36610a303660046109f0565b90613283565b610a3e610254565b80610a488161045e565b0390f35b610372565b60018060a01b031690565b610a6c906008610a71930261096d565b610a51565b90565b90610a7f9154610a5c565b90565b610a8e60025f90610a74565b90565b610a9a9061093f565b90565b610aa690610a91565b9052565b9190610abd905f60208501940190610a9d565b565b34610aef57610acf3660046105e9565b610aeb610ada610a82565b610ae2610254565b91829182610aaa565b0390f35b610372565b7fbd5d72ac35ae1e83aa0625c57eddda63fbb064a87fca99dfdd7ce027384ae28290565b610b20610af4565b90565b34610b5357610b333660046105e9565b610b4f610b3e610b18565b610b46610254565b918291826108b8565b0390f35b610372565b34610b8757610b71610b6b3660046109f0565b9061328f565b610b79610254565b80610b838161045e565b0390f35b610372565b34610bbc57610bb8610ba7610ba2366004610902565b6132d7565b610baf610254565b91829182610331565b0390f35b610372565b34610bef57610bd13660046105e9565b610bd9613320565b610be1610254565b80610beb8161045e565b0390f35b610372565b610bfd9061029c565b90565b90610c0a90610bf4565b5f5260205260405f2090565b610c2c90610c27600e915f92610c00565b610994565b90565b34610c5f57610c5b610c4a610c4536600461088d565b610c16565b610c52610254565b91829182610331565b0390f35b610372565b634e487b7160e01b5f52603260045260245ffd5b5490565b5f5260205f2090565b610c8e81610c78565b821015610ca857610ca0600191610c7c565b910201905f90565b610c64565b6011610cb881610c78565b821015610cd557610cd291610ccc91610c85565b90610994565b90565b5f80fd5b34610d0957610d05610cf4610cef366004610440565b610cad565b610cfc610254565b91829182610331565b0390f35b610372565b634e487b7160e01b5f52602260045260245ffd5b9060016002830492168015610d42575b6020831014610d3d57565b610d0e565b91607f1691610d32565b60209181520190565b5f5260205f2090565b905f9291805490610d78610d7183610d22565b8094610d4c565b916001811690815f14610dcf5750600114610d93575b505050565b610da09192939450610d55565b915f925b818410610db757505001905f8080610d8e565b60018160209295939554848601520191019290610da4565b92949550505060ff19168252151560200201905f8080610d8e565b90610df491610d5e565b90565b90610e17610e1092610e07610254565b93848092610dea565b03836104bc565b565b5f1c90565b610e2a610e2f91610e19565b610971565b90565b610e3c9054610e1e565b90565b60a01c90565b60ff1690565b610e57610e5c91610e3f565b610e45565b90565b610e699054610e4b565b90565b90565b610e7b610e8091610e19565b610e6c565b90565b610e8d9054610e6f565b90565b6004610e9d5f8201610df7565b91610eaa60018301610df7565b91610eb760028201610e32565b91610ed06003610ec960028501610e5f565b9301610e83565b90565b5190565b60209181520190565b90825f9392825e0152565b610f0a610f13602093610f1893610f0181610ed3565b93848093610ed7565b95869101610ee0565b61049e565b0190565b610f259061041a565b9052565b90610f7d94610f6c610f61608095610f53610f76959b9a989b60a08801908882035f8a0152610eeb565b908682036020880152610eeb565b986040850190610324565b60608301906103c3565b0190610f1c565b565b34610fb357610f8f3660046105e9565b610faf610f9a610e90565b91610fa6959395610254565b95869586610f29565b0390f35b610372565b610fc4610fc991610e19565b610e45565b90565b610fd69054610fb8565b90565b60081c90565b610feb610ff091610fd9565b610e45565b90565b610ffd9054610fdf565b90565b60089061100e5f8301610e83565b9161101b60018201610e83565b91611033600261102c818501610fcc565b9301610ff3565b90565b61106b61107294611061606094989795611057608086019a5f870190610f1c565b6020850190610f1c565b60408301906103c3565b01906103c3565b565b346110a8576110843660046105e9565b6110a461108f611000565b9061109b949294610254565b94859485611036565b0390f35b610372565b91906040838203126110d557806110c96110d2925f860161028d565b93602001610431565b90565b61025a565b906110e49061094b565b5f5260205260405f2090565b6110fb90600c6110da565b61110481610c78565b8210156111215761111e9161111891610c85565b90610994565b90565b5f80fd5b346111565761115261114161113b3660046110ad565b906110f0565b611149610254565b91829182610331565b0390f35b610372565b5190565b60209181520190565b60200190565b61118d61119660209361119b9361118481610ed3565b93848093610d4c565b95869101610ee0565b61049e565b0190565b906111a99161116e565b90565b60200190565b906111c66111bf8361115b565b809261115f565b90816111d760208302840194611168565b925f915b8383106111ea57505050505090565b9091929394602061120c6112068385600195038752895161119f565b976111ac565b93019301919392906111db565b61122e9160208201915f8184039101526111b2565b90565b34611261576112413660046105e9565b61125d61124c6133c9565b611254610254565b91829182611219565b0390f35b610372565b346112975761129361128261127c3660046109f0565b906133e2565b61128a610254565b918291826103d0565b0390f35b610372565b5190565b60209181520190565b60200190565b6112b89061041a565b9052565b906112c9816020936112af565b0190565b60200190565b906112f06112ea6112e38461129c565b80936112a0565b926112a9565b905f5b8181106113005750505090565b90919261131961131360019286516112bc565b946112cd565b91019190916112f3565b5190565b60209181520190565b60200190565b61133f906102c2565b9052565b9061135081602093611336565b0190565b60200190565b9061137761137161136a84611323565b8093611327565b92611330565b905f5b8181106113875750505090565b9091926113a061139a6001928651611343565b94611354565b910191909161137a565b916113d6906113c86113e4959360608601908682035f88015261062f565b9084820360208601526112d3565b91604081840391015261135a565b90565b3461141a576114166114026113fd366004610902565b6135db565b61140d939193610254565b938493846113aa565b0390f35b610372565b906114299061094b565b5f5260205260405f2090565b61144590600861144a930261096d565b610e6c565b90565b906114589154611435565b90565b6114719061146c6010915f9261141f565b61144d565b90565b9190611487905f60208501940190610f1c565b565b346114b9576114b56114a461149f366004610902565b61145b565b6114ac610254565b91829182611474565b0390f35b610372565b90565b5f1b90565b6114da6114d56114df926114be565b6114c1565b61029c565b90565b6114eb5f6114c6565b90565b6114f66114e2565b90565b34611529576115093660046105e9565b6115256115146114ee565b61151c610254565b918291826108b8565b0390f35b610372565b60808183031261156f57611544825f8301610431565b9261156c6115558460208501610431565b9361156381604086016102db565b936060016102db565b90565b61025a565b346115a65761159061158736600461152e565b929190916137ff565b611598610254565b806115a28161045e565b0390f35b610372565b346115db576115d76115c66115c1366004610902565b61380d565b6115ce610254565b9182918261067f565b0390f35b610372565b7f000000000000000000000000000000000000000000000000000000000000000090565b34611634576116143660046105e9565b61163061161f6115e0565b611627610254565b91829182610331565b0390f35b610372565b60018060a01b031690565b611654906008611659930261096d565b611639565b90565b906116679154611644565b90565b61167660035f9061165c565b90565b61168290610923565b90565b61168e90611679565b90565b61169a90611685565b9052565b91906116b1905f60208501940190611691565b565b346116e3576116c33660046105e9565b6116df6116ce61166a565b6116d6610254565b9182918261169e565b0390f35b610372565b34611717576117016116fb3660046109f0565b90613856565b611709610254565b806117138161045e565b0390f35b610372565b3461174c5761172c3660046105e9565b611748611737613862565b61173f610254565b91829182611474565b0390f35b610372565b3461177f576117613660046105e9565b6117696138f4565b611771610254565b8061177b8161045e565b0390f35b610372565b91906040838203126117ac57806117a06117a9925f860161028d565b936020016102b3565b90565b61025a565b346117e2576117de6117cd6117c7366004611784565b90613943565b6117d5610254565b91829182610331565b0390f35b610372565b60018060a01b031690565b611802906008611807930261096d565b6117e7565b90565b9061181591546117f2565b90565b61182460015f9061180a565b90565b6118309061093f565b90565b61183c90611827565b9052565b9190611853905f60208501940190611833565b565b34611885576118653660046105e9565b611881611870611818565b611878610254565b91829182611840565b0390f35b610372565b906118949061094b565b5f5260205260405f2090565b6118b09060086118b5930261096d565b610e45565b90565b906118c391546118a0565b90565b6118dc906118d7600f915f9261188a565b6118b8565b90565b3461190f5761190b6118fa6118f5366004610902565b6118c6565b611902610254565b918291826103d0565b0390f35b610372565b5f80fd5b5f90565b61193061192b611935926114be565b610920565b610262565b90565b6119419061191c565b90565b5f7f496e76616c6964206f776e657200000000000000000000000000000000000000910152565b611978600d602092610ed7565b61198181611944565b0190565b61199a9060208101905f81830391015261196b565b90565b156119a457565b6119ac610254565b62461bcd60e51b8152806119c260048201611985565b0390fd5b5f7f496e73756666696369656e74206372656174696f6e2066656500000000000000910152565b6119fa6019602092610ed7565b611a03816119c6565b0190565b611a1c9060208101905f8183039101526119ed565b90565b15611a2657565b611a2e610254565b62461bcd60e51b815280611a4460048201611a07565b0390fd5b5f7f4d6178206163636f756e74732070657220757365722065786365656465640000910152565b611a7c601e602092610ed7565b611a8581611a48565b0190565b611a9e9060208101905f818303910152611a6f565b90565b15611aa857565b611ab0610254565b62461bcd60e51b815280611ac660048201611a89565b0390fd5b60601b90565b611ad990611aca565b90565b611ae590611ad0565b90565b611af4611af99161026d565b611adc565b9052565b90565b611b0c611b119161029c565b611afd565b9052565b90565b611b24611b299161041a565b611b15565b9052565b60209392611b4d601483611b458895611b5597611ae8565b018092611b00565b018092611b18565b0190565b60200190565b5190565b5f7f4163636f756e7420616c72656164792065786973747300000000000000000000910152565b611b976016602092610ed7565b611ba081611b63565b0190565b611bb99060208101905f818303910152611b8a565b90565b15611bc357565b611bcb610254565b62461bcd60e51b815280611be160048201611ba4565b0390fd5b611bf1611bf691610e19565b6117e7565b90565b611c039054611be5565b90565b604090611c2f611c369496959396611c2560608401985f850190610324565b6020830190610324565b0190610324565b565b611c40610254565b3d5f823e3d90fd5b611c519061093f565b90565b90565b5f5260205f2090565b5490565b611c6d81611c60565b821015611c8757611c7f600191611c57565b910201905f90565b610c64565b1b90565b91906008611cb0910291611caa60018060a01b0384611c8c565b92611c8c565b9181191691161790565b90565b9190611cd3611cce611cdb9361094b565b611cba565b908354611c90565b9055565b9081549168010000000000000000831015611d0f5782611d07916001611d0d95018155611c64565b90611cbd565b565b6104a8565b90611d2560018060a01b03916114c1565b9181191691161790565b90611d44611d3f611d4b9261094b565b611cba565b8254611d14565b9055565b90611d5b60ff916114c1565b9181191691161790565b611d6e906102c2565b90565b90565b90611d89611d84611d9092611d65565b611d71565b8254611d4f565b9055565b90611da05f19916114c1565b9181191691161790565b611dbe611db9611dc39261041a565b610920565b61041a565b90565b90565b90611dde611dd9611de592611daa565b611dc6565b8254611d94565b9055565b611df5611dfa91610e19565b610a51565b90565b611e079054611de9565b90565b5f80fd5b60e01b90565b5f910312611e1e57565b61025a565b916020611e44929493611e3d60408201965f830190610324565b0190610f1c565b565b60209392611e66601483611e5e8895611e6e97611ae8565b018092611b00565b018092611b00565b0190565b5f7f4143434f554e545f435245415445440000000000000000000000000000000000910152565b611ea6600f602092610ed7565b611eaf81611e72565b0190565b916040611ee4929493611edd611ed2606083018381035f850152611e99565b966020830190610324565b01906108ab565b565b604090611f0f611f169496959396611f0560608401985f8501906108ab565b60208301906103c3565b0190610f1c565b565b90611f21611918565b50611f4782611f40611f3a611f355f611938565b61026d565b9161026d565b141561199d565b611f5d611f576002600801610fcc565b156102c2565b612329575b611f9d611f79611f74600c85906110da565b610c78565b611f97611f91611f8c6003600401610e83565b61041a565b9161041a565b10611aa1565b81611fca8291611fbb42611faf610254565b94859360208501611b2d565b602082018103825203826104bc565b611fdc611fd682611b5f565b91611b59565b2090612015611ff5611ff0600e8590610c00565b610e32565b61200f6120096120045f611938565b61026d565b9161026d565b14611bbc565b817f0000000000000000000000000000000000000000000000000000000000000000849061204b6120466001611bf9565b611827565b91612054610254565b926154c784019184831067ffffffffffffffff841117612324578493612081936154c7613fa08739611c06565b03905ff5801561231f5761209490611c48565b936120b36120ac6120a7600c87906110da565b611c54565b8690611cdf565b6120c8846120c3600d8890610957565b611d2f565b6120dd856120d8600e8690610c00565b611d2f565b6120f360016120ee600f889061188a565b611d74565b612108426121036010889061141f565b611dc9565b61211c6121156011611c54565b8690611cdf565b61212e6121296002611dfd565b610a91565b6334bc1877866121416001600801610e83565b92803b1561231a576121665f809461217161215a610254565b97889687958694611e0e565b845260048401611e23565b03925af18015612315576122e9575b50806122d6575b6122c8575b61219e6121996001611bf9565b611827565b90635260590a9085906121d2866121c3876121b7610254565b94859360208501611e46565b602082018103825203826104bc565b6121e46121de82611b5f565b91611b59565b2092803b156122c35761220a5f80946122156121fe610254565b97889687958694611e0e565b845260048401611eb3565b03925af180156122be57612292575b50829190916122366002600801610fcc565b6122436001600801610e83565b9361228c61227a6122747f07533f4323371b154c9a901a46879d0f6e7cc6055fbebbab3935930c8cb12e009561094b565b9561094b565b95612283610254565b93849384611ee6565b0390a390565b6122b1905f3d81116122b7575b6122a981836104bc565b810190611e14565b5f612224565b503d61229f565b611c38565b611e0a565b6122d184613a4b565b61218c565b506122e46002600801610ff3565b612187565b612308905f3d811161230e575b61230081836104bc565b810190611e14565b5f612180565b503d6122f6565b611c38565b611e0a565b611c38565b6104a8565b6123513461234a61234461233f5f600801610e83565b61041a565b9161041a565b1015611a1f565b611f62565b5f90565b612362612356565b508061237d612377637965db0b60e01b610376565b91610376565b1490811561238a575b5090565b6123949150613aa8565b5f612386565b6123b3906123ae6123a9610af4565b613ace565b61290f565b565b5490565b5f7f496e76616c696420696e64657800000000000000000000000000000000000000910152565b6123ed600d602092610ed7565b6123f6816123b9565b0190565b61240f9060208101905f8183039101526123e0565b90565b1561241957565b612421610254565b62461bcd60e51b815280612437600482016123fa565b0390fd5b90565b61245261244d6124579261243b565b610920565b61041a565b90565b634e487b7160e01b5f52601160045260245ffd5b61247d6124839193929361041a565b9261041a565b820391821161248e57565b61245a565b5f5260205f2090565b6124a5816123b5565b8210156124bf576124b7600191612493565b910201905f90565b610c64565b634e487b7160e01b5f525f60045260245ffd5b6124e19054610d22565b90565b601f602091010490565b919060086125099102916125035f1984611c8c565b92611c8c565b9181191691161790565b919061252961252461253193611daa565b611dc6565b9083546124ee565b9055565b5f90565b61254b91612545612535565b91612513565b565b5b818110612559575050565b806125665f600193612539565b0161254e565b9190601f811161257c575b505050565b6125886125ad93610d55565b906020612594846124e4565b830193106125b5575b6125a6906124e4565b019061254d565b5f8080612577565b91506125a68192905061259d565b906125d3905f199060080261096d565b191690565b816125e2916125c3565b906002021790565b908082146126c9576125fb816124d7565b9067ffffffffffffffff82116126c45761261f826126198554610d22565b8561256c565b5f90601f831160011461265257918091612641935f92612646575b50506125d8565b90555b565b90915001545f8061263a565b90612661601f19841692610d55565b9061266b85610d55565b925f5b8181106126ac57509160029391856001969410612692575b50505002019055612644565b6126a2910154601f8416906125c3565b90555f8080612686565b9193600180602092878701548155019501920161266e565b6104a8565b5050565b91906126de576126dc916125ea565b565b6124c4565b90565b634e487b7160e01b5f52603160045260245ffd5b5490565b5f5260205f2090565b612710816126fa565b82101561272a576127226001916126fe565b910201905f90565b610c64565b90612742905f199060200360080261096d565b8154169055565b905f9161276061275882610d55565b9283546125d8565b905555565b919290602082105f146127be57601f841160011461278e576127889293506125d8565b90555b5b565b50906127b46127b99360016127ab6127a585610d55565b926124e4565b8201910161254d565b612749565b61278b565b506127f582936127cf600194610d55565b6127ee6127db856124e4565b820192601f861680612800575b506124e4565b019061254d565b60020217905561278c565b61280c9088860361272f565b5f6127e8565b929091680100000000000000008211612872576020115f1461286357602081105f1461284757612841916125d8565b90555b5b565b60019160ff191661285784610d55565b55600202019055612844565b60019150600202019055612845565b6104a8565b90815461288381610d22565b908183116128ac575b81831061289a575b50505050565b6128a393612765565b5f808080612894565b6128b883838387612812565b61288c565b5f6128c791612877565b565b905f036128db576128d9906128bd565b565b6124c4565b6128e9816126fa565b801561290a5760019003906129076129018383612707565b906128c9565b55565b6126e6565b61297e9061293b8161293561292f61292a60036008016123b5565b61041a565b9161041a565b10612412565b61297861296c600360080161296661295660036008016123b5565b612960600161243e565b9061246e565b9061249c565b5091600360080161249c565b906126cd565b61299361298e60036008016126e3565b6128e0565b565b61299e9061239a565b565b6129b9906129b46129af610af4565b613ace565b612ad5565b565b906129c581610ed3565b9067ffffffffffffffff8211612a85576129e9826129e38554610d22565b8561256c565b602090601f8311600114612a1d57918091612a0c935f92612a11575b50506125d8565b90555b565b90915001515f80612a05565b601f19831691612a2c85610d55565b925f5b818110612a6d57509160029391856001969410612a53575b50505002019055612a0f565b612a63910151601f8416906125c3565b90555f8080612a47565b91936020600181928787015181550195019201612a2f565b6104a8565b9190612a9b57612a99916129bb565b565b6124c4565b9081549168010000000000000000831015612ad05782612ac8916001612ace95018155612707565b90612a8a565b565b6104a8565b612aeb90612ae660036008016126e3565b612aa0565b565b612af6906129a0565b565b606090565b60209181520190565b612b109054610e1e565b90565b60010190565b90612b36612b30612b2984610c78565b8093612afd565b92610c7c565b905f5b818110612b465750505090565b909192612b66612b60600192612b5b87612b06565b610618565b94612b13565b9101919091612b39565b90612b7a91612b19565b90565b90612b9d612b9692612b8d610254565b93848092612b70565b03836104bc565b565b612ba890612b7d565b90565b612bb3612af8565b50612bbe6011612b9f565b90565b90612bdd939291612bd8612bd3610af4565b613ace565b612c50565b565b90612be9916129bb565b565b60a01b90565b90612c0060ff60a01b91612beb565b9181191691161790565b90612c1f612c1a612c2692611d65565b611d71565b8254612bf1565b9055565b92916020612c46612c4e9360408701908782035f890152610eeb565b940190610324565b565b9192612c80612c8a9294612c68856001600401612bdf565b612c76866002600401611d2f565b6002600401612c0a565b6003600401611dc9565b907f2c7ee96ab2e65ea2d8e90312d2383aa9501192851200a3e8189503482f9175a691612cc1612cb8610254565b92839283612c2a565b0390a1565b90612cd2939291612bc1565b565b905090565b5f7f616c6368656d7900000000000000000000000000000000000000000000000000910152565b612d0c60078092612cd4565b612d1581612cd9565b0190565b91612d37601484612d2f612d3d96602096611ae8565b018092611b18565b01612d00565b90565b5f7f616c6368656d795f696e746567726174696f6e00000000000000000000000000910152565b612d7360138092612cd4565b612d7c81612d40565b0190565b612d9c601482612d96612da39460209796611ae8565b01612d67565b8092611b18565b0190565b5f7f4143434f554e545f435245415445445f574954485f414c4348454d5900000000910152565b612ddb601c602092610ed7565b612de481612da7565b0190565b916040612e19929493612e12612e07606083018381035f850152612dce565b966020830190610324565b01906108ab565b565b612e2f612e2a612e34926114be565b610920565b61041a565b90565b91509150612e43611918565b50612e6981612e62612e5c612e575f611938565b61026d565b9161026d565b141561199d565b80612e954291612e86612e7a610254565b93849260208401612d19565b602082018103825203826104bc565b612ea7612ea182611b5f565b91611b59565b20612edf612ebf612eba600e8490610c00565b610e32565b612ed9612ed3612ece5f611938565b61026d565b9161026d565b14611bbc565b807f00000000000000000000000000000000000000000000000000000000000000008390612f15612f106001611bf9565b611827565b91612f1e610254565b926154c784019184831067ffffffffffffffff8411176131f5578493612f4b936154c7613fa08739611c06565b03905ff580156131f057612f5e90611c48565b92612f7d612f76612f71600c86906110da565b611c54565b8590611cdf565b612f9283612f8d600d8790610957565b611d2f565b612fa784612fa2600e8590610c00565b611d2f565b612fbd6001612fb8600f879061188a565b611d74565b612fd242612fcd6010879061141f565b611dc9565b612fe6612fdf6011611c54565b8590611cdf565b612ff8612ff36002611dfd565b610a91565b6334bc18778561300b6001600801610e83565b92803b156131eb576130305f809461303b613024610254565b97889687958694611e0e565b845260048401611e23565b03925af180156131e6576131ba575b5061305d6130586001611bf9565b611827565b635260590a858561308f8591613080613074610254565b93849260208401612d80565b602082018103825203826104bc565b6130a161309b82611b5f565b91611b59565b2092803b156131b5576130c75f80946130d26130bb610254565b97889687958694611e0e565b845260048401612de8565b03925af180156131b057613184575b506130f46130ee5f612e1b565b9161041a565b118015613171575b613163575b8291909160016131146001600801610e83565b9361315d61314b6131457f07533f4323371b154c9a901a46879d0f6e7cc6055fbebbab3935930c8cb12e009561094b565b9561094b565b95613154610254565b93849384611ee6565b0390a390565b61316c83613a4b565b613101565b5061317f6002600801610ff3565b6130fc565b6131a3905f3d81116131a9575b61319b81836104bc565b810190611e14565b5f6130e1565b503d613191565b611c38565b611e0a565b6131d9905f3d81116131df575b6131d181836104bc565b810190611e14565b5f61304a565b503d6131c7565b611c38565b611e0a565b611c38565b6104a8565b5f90565b9061320890610bf4565b5f5260205260405f2090565b90565b61322361322891610e19565b613214565b90565b6132359054613217565b90565b6001613250613256926132496131fa565b505f6131fe565b0161322b565b90565b906132749161326f61326a82613238565b613ace565b613276565b565b9061328091613ae2565b50565b9061328d91613259565b565b90806132aa6132a461329f613b8d565b61026d565b9161026d565b036132bb576132b891613b9a565b50565b5f63334bd91960e11b8152806132d36004820161045e565b0390fd5b6132ee6132f3916132e6611918565b50600d610957565b610e32565b90565b6133066133016114e2565b613ace565b61330e613310565b565b61331e5f6002600801611d74565b565b6133286132f6565b565b606090565b67ffffffffffffffff81116133475760208091020190565b6104a8565b9061335e6133598361332f565b6104e5565b918252565b61336c90610df7565b90565b90613379826123b5565b6133828161334c565b926133906020850191612493565b5f915b8383106133a05750505050565b6001602081926133af85613363565b815201920192019190613393565b6133c69061336f565b90565b6133d161332a565b506133df60036008016133bd565b90565b613408915f6133fd613403936133f6612356565b50826131fe565b0161188a565b610fcc565b90565b606090565b606090565b67ffffffffffffffff811161342d5760208091020190565b6104a8565b9061344461343f83613415565b6104e5565b918252565b369037565b9061347361345b83613432565b926020806134698693613415565b9201910390613449565b565b67ffffffffffffffff811161348d5760208091020190565b6104a8565b906134a461349f83613475565b6104e5565b918252565b369037565b906134d36134bb83613492565b926020806134c98693613475565b92019103906134a9565b565b67ffffffffffffffff81116134ed5760208091020190565b6104a8565b906135046134ff836134d5565b6104e5565b918252565b369037565b9061353361351b836134f2565b9260208061352986936134d5565b9201910390613509565b565b6001613541910161041a565b90565b9061354e826105f8565b81101561355f576020809102010190565b610c64565b61356e905161026d565b90565b9061357b9061026d565b9052565b906135898261129c565b81101561359a576020809102010190565b610c64565b906135a99061041a565b9052565b906135b782611323565b8110156135c8576020809102010190565b610c64565b906135d7906102c2565b9052565b613604613609916135ea612af8565b506135f361340b565b506135fc613410565b50600c6110da565b612b9f565b613612816105f8565b9061361c8261344e565b613625836134ae565b9061362f8461350e565b946136395f612e1b565b5b8061364d6136478861041a565b9161041a565b10156136ff576136fa9061367f61366d613668888490613544565b613564565b61367a8691849092613544565b613571565b6136ba6136a86136a3601061369d6136988b8790613544565b613564565b9061141f565b610e83565b6136b5879184909261357f565b61359f565b6136f56136e36136de600f6136d86136d38b8790613544565b613564565b9061188a565b610fcc565b6136f08a918490926135ad565b6135cd565b613535565b61363a565b509250909250919291929190565b9061372993929161372461371f610af4565b613ace565b61378b565b565b60081b90565b9061373e61ff009161372b565b9181191691161790565b9061375d61375861376492611d65565b611d71565b8254613731565b9055565b91602061378992949361378260408201965f830190610f1c565b01906103c3565b565b91926137ab6137c3926137a1855f600801611dc9565b6001600801611dc9565b6137b9846002600801611d74565b6002600801613748565b907f6530c37afa4bbb70797a474474deeb7831329f31a20ee18ce41772203b8ff018916137fa6137f1610254565b92839283613768565b0390a1565b9061380b93929161370d565b565b6138246138299161381c612af8565b50600c6110da565b612b9f565b90565b906138479161384261383d82613238565b613ace565b613849565b565b9061385391613b9a565b50565b906138609161382c565b565b61386a612535565b506138756011610c78565b90565b6138886138836114e2565b613ace565b6138906138b6565b565b61389b90611679565b90565b6138a79061093f565b90565b6138b39061093f565b90565b5f8080806138cb6138c633613892565b61389e565b6138d4306138aa565b31908282156138eb575bf1156138e657565b611c38565b506108fc6138de565b6138fc613878565b565b905090565b61392861391f9260209261391681611b5f565b948580936138fe565b93849101610ee0565b0190565b61393a906139409392613903565b90613903565b90565b613a489161394f611918565b5061397b8261396c42613960610254565b94859360208501611b2d565b602082018103825203826104bc565b61398d61398782611b5f565b91611b59565b2090613a2f6154c76139a1602082016104e5565b90808252613fa06020830139613a097f00000000000000000000000000000000000000000000000000000000000000006139fa6139e66139e16001611bf9565b611827565b6139ee610254565b96879360208501611c06565b602082018103825203846104bc565b613a20613a14610254565b9384926020840161392c565b602082018103825203826104bc565b613a41613a3b82611b5f565b91611b59565b2090613c47565b90565b613a5860036008016133bd565b90613a64818390613e03565b613aa3613a917f9019bfdf9abe0c42a67676644b66d3e302f7f736e62638b245f84b8c9cb06e559261094b565b92613a9a610254565b91829182611219565b0390a2565b613ab0612356565b50613aca613ac46301ffc9a760e01b610376565b91610376565b1490565b613ae090613ada613b8d565b90613f33565b565b613aea612356565b50613aff613af98284906133e2565b156102c2565b5f14613b8757613b266001613b215f613b198186906131fe565b01859061188a565b611d74565b90613b2f613b8d565b90613b6c613b66613b607f2f8788117e7eff1d82e926ec794901d17c78024a50270940304540a733656f0d95610bf4565b9261094b565b9261094b565b92613b75610254565b80613b7f8161045e565b0390a4600190565b50505f90565b613b95611918565b503390565b613ba2612356565b50613bae8183906133e2565b5f14613c3557613bd45f613bcf5f613bc78186906131fe565b01859061188a565b611d74565b90613bdd613b8d565b90613c1a613c14613c0e7ff6391f5c32d9c69d2a47ea670b442974b53935d1edc7fd64eb21e047a839171b95610bf4565b9261094b565b9261094b565b92613c23610254565b80613c2d8161045e565b0390a4600190565b50505f90565b613c449061093f565b90565b90613c6591613c54611918565b5090613c5f30613c3b565b91613f6e565b90565b613c7190610923565b90565b613c7d90613c68565b90565b90613c8a8261115b565b811015613c9b576020809102010190565b610c64565b606090565b5f5b828110613cb357505050565b602090613cbe613ca0565b8184015201613ca7565b90613ced613cd58361334c565b92602080613ce3869361332f565b9201910390613ca5565b565b90505190613cfc82610279565b565b90602082820312613d1757613d14915f01613cef565b90565b61025a565b90565b613d33613d2e613d3892613d1c565b610920565b61041a565b90565b613d4490613d1f565b9052565b90565b613d5f613d5a613d6492613d48565b610920565b61041a565b90565b613d7090613d4b565b9052565b90565b613d8b613d86613d9092613d74565b610920565b61041a565b90565b613d9c90613d77565b9052565b96959394613dec613e0196613de260a096613dd8613df9976020613dd08f9960c08b01908b82035f8d0152610eeb565b980190613d3b565b60408c0190613d67565b60608a0190613d93565b87820360808901526111b2565b9401906103c3565b565b9190613e0e5f612e1b565b5b80613e2a613e24613e1f8561115b565b61041a565b9161041a565b1015613f0a57613ecf90613e4d613e48613e4387613892565b613c74565b611c48565b60206343654e9d91613e60868590613c80565b5190613ea45f62278d0095613eaf6207a120670de0b6b3a7640000613e8c613e8786612e1b565b613cc8565b90600192613e98610254565b9b8c9a8b998a98611e0e565b885260048801613da0565b03925af19081613ede575b50155f14613ed9576001613ed4575b5b613535565b613e0f565b613ec9565b613eca565b613efe9060203d8111613f03575b613ef681836104bc565b810190613cfe565b613eba565b503d613eec565b50509050565b916020613f31929493613f2a60408201965f830190610324565b01906108ab565b565b90613f48613f428383906133e2565b156102c2565b613f50575050565b613f6a5f92839263e2517d3f60e01b845260048401613f10565b0390fd5b91600b92613f7a611918565b50604051926040840152602083015281520160ff8153605560018060a01b039120169056fe60a0604052346100405761001a610014610121565b9161040e565b610022610045565b614dc5610702823960805181818161175801526124b40152614dc590f35b61004b565b60405190565b5f80fd5b601f801991011690565b634e487b7160e01b5f52604160045260245ffd5b906100779061004f565b810190811060018060401b0382111761008f57604052565b610059565b906100a76100a0610045565b928361006d565b565b5f80fd5b60018060a01b031690565b6100c1906100ad565b90565b6100cd816100b8565b036100d457565b5f80fd5b905051906100e5826100c4565b565b909160608284031261011c57610119610102845f85016100d8565b9361011081602086016100d8565b936040016100d8565b90565b6100a9565b61013f6154c78038038061013481610094565b9283398101906100e7565b909192565b90565b90565b61015e61015961016392610144565b610147565b6100ad565b90565b61016f9061014a565b90565b60209181520190565b5f7f496e76616c696420456e747279506f696e740000000000000000000000000000910152565b6101af6012602092610172565b6101b88161017b565b0190565b6101d19060208101905f8183039101526101a2565b90565b156101db57565b6101e3610045565b62461bcd60e51b8152806101f9600482016101bc565b0390fd5b5f7f496e76616c6964206d6173746572206f776e6572000000000000000000000000910152565b6102316014602092610172565b61023a816101fd565b0190565b6102539060208101905f818303910152610224565b90565b1561025d57565b610265610045565b62461bcd60e51b81528061027b6004820161023e565b0390fd5b5f7f496e76616c696420766572696669636174696f6e206c6f676765720000000000910152565b6102b3601b602092610172565b6102bc8161027f565b0190565b6102d59060208101905f8183039101526102a6565b90565b156102df57565b6102e7610045565b62461bcd60e51b8152806102fd600482016102c0565b0390fd5b5f1b90565b9061031760018060a01b0391610301565b9181191691161790565b61033561033061033a926100ad565b610147565b6100ad565b90565b61034690610321565b90565b6103529061033d565b90565b90565b9061036d61036861037492610349565b610355565b8254610306565b9055565b61038190610321565b90565b61038d90610378565b90565b61039990610378565b90565b90565b906103b46103af6103bb92610390565b61039c565b8254610306565b9055565b90565b6103d66103d16103db92610144565b610301565b6103bf565b90565b6103e75f6103c2565b90565b7fb19546dff01e856fb3f010c267a7b1c60363cf8a4664e21cc89c26224620214e90565b6104a36104ca936104aa92610421610551565b6104468161043f6104396104345f610166565b6100b8565b916100b8565b14156101d4565b61046b8561046461045e6104595f610166565b6100b8565b916100b8565b1415610256565b6104908261048961048361047e5f610166565b6100b8565b916100b8565b14156102d8565b60805261049e846003610358565b610384565b600261039f565b6104bc6104b56103de565b82906105f0565b506104c56103ea565b6105f0565b50565b90565b90565b6104e76104e26104ec926104cd565b610147565b6104d0565b90565b6104f960016104d3565b90565b906105085f1991610301565b9181191691161790565b61052661052161052b926104d0565b610147565b6104d0565b90565b90565b9061054661054161054d92610512565b61052e565b82546104fc565b9055565b61056361055c6104ef565b6001610531565b565b5f90565b151590565b610577906103bf565b90565b906105849061056e565b5f5260205260405f2090565b9061059a90610349565b5f5260205260405f2090565b906105b260ff91610301565b9181191691161790565b6105c590610569565b90565b90565b906105e06105db6105e7926105bc565b6105c8565b82546105a6565b9055565b5f0190565b6105f8610565565b5061060d6106078284906106c7565b15610569565b5f1461069557610634600161062f5f61062781869061057a565b018590610590565b6105cb565b9061063d6106f4565b9061067a61067461066e7f2f8788117e7eff1d82e926ec794901d17c78024a50270940304540a733656f0d9561056e565b92610349565b92610349565b92610683610045565b8061068d816105eb565b0390a4600190565b50505f90565b5f1c90565b60ff1690565b6106b26106b79161069b565b6106a0565b90565b6106c490546106a6565b90565b6106ed915f6106e26106e8936106db610565565b508261057a565b01610590565b6106ba565b90565b5f90565b6106fc6106f0565b50339056fe60806040526004361015610010575b005b61001a5f35610229565b806301ffc9a7146102245780630772d09d1461021f5780630a05b0fc1461021a578063248a9ca31461021557806327d53b0d146102105780632f2ff15d1461020b5780633469b5151461020657806336568abe1461020157806337620295146101fc5780633a871cdd146101f75780633eabeca0146101f257806343654e9d146101ed578063569d6b8d146101e85780635ad2657f146101e357806363e387b5146101de5780636717e41c146101d957806367abbc2d146101d457806371e57926146101cf5780637c8ea08d146101ca57806391d14854146101c557806394259c6c146101c057806394319fe9146101bb578063a217fddf146101b6578063ad5a783c146101b1578063affed0e0146101ac578063b0d691fe146101a7578063b7b8d604146101a2578063d547741f1461019d578063db2e21bc14610198578063e1300c8814610193578063e58378bb1461018e578063e7201d7d146101895763f9c810270361000e57611b5b565b611ae1565b611a9d565b611a39565b611998565b611964565b611922565b61177a565b611721565b6116b3565b611589565b611519565b611433565b6111a8565b611173565b611110565b611092565b610f5a565b610eb1565b610dee565b610d29565b610b91565b610a14565b610976565b6108c2565b610850565b610817565b61068f565b610605565b6104c7565b610466565b61032e565b6102b5565b60e01c90565b60405190565b5f80fd5b5f80fd5b5f80fd5b63ffffffff60e01b1690565b61025681610241565b0361025d57565b5f80fd5b9050359061026e8261024d565b565b9060208282031261028957610286915f01610261565b90565b610239565b151590565b61029c9061028e565b9052565b91906102b3905f60208501940190610293565b565b346102e5576102e16102d06102cb366004610270565b611b93565b6102d861022f565b918291826102a0565b0390f35b610235565b90565b6102f6816102ea565b036102fd57565b5f80fd5b9050359061030e826102ed565b565b9060208282031261032957610326915f01610301565b90565b610239565b3461035e5761035a610349610344366004610310565b6120ab565b61035161022f565b918291826102a0565b0390f35b610235565b60018060a01b031690565b61037790610363565b90565b6103839061036e565b9052565b90565b61039390610387565b9052565b5190565b60209181520190565b90825f9392825e0152565b601f801991011690565b6103d86103e16020936103e6936103cf81610397565b9384809361039b565b958691016103a4565b6103af565b0190565b939561044560e09661043b6104649a9c9b9961043161045d986104276104529961041d8d9a5f6101008d019c019061037a565b60208d019061038a565b60408b019061038a565b606089019061038a565b6080870190610293565b84820360a08601526103b9565b9660c083019061038a565b019061038a565b565b346104a05761049c61048161047c366004610310565b6120d8565b9461049398969894919493929361022f565b988998896103ea565b0390f35b610235565b6104ae906102ea565b9052565b91906104c5905f602085019401906104a5565b565b346104f7576104f36104e26104dd366004610310565b6121be565b6104ea61022f565b918291826104b2565b0390f35b610235565b61050581610387565b0361050c57565b5f80fd5b9050359061051d826104fc565b565b9060208282031261053857610535915f01610510565b90565b610239565b634e487b7160e01b5f52603260045260245ffd5b5490565b5f5260205f2090565b5f5260205f2090565b61057081610551565b82101561058a57610582600191610555565b910201905f90565b61053d565b1c90565b60018060a01b031690565b6105ae9060086105b3930261058f565b610593565b90565b906105c1915461059e565b90565b60096105cf81610551565b8210156105ec576105e9916105e391610567565b906105b6565b90565b5f80fd5b9190610603905f6020850194019061037a565b565b346106355761063161062061061b36600461051f565b6105c4565b61062861022f565b918291826105f0565b0390f35b610235565b6106438161036e565b0361064a57565b5f80fd5b9050359061065b8261063a565b565b91906040838203126106855780610679610682925f8601610301565b9360200161064e565b90565b610239565b5f0190565b346106be576106a86106a236600461065d565b90612209565b6106b061022f565b806106ba8161068a565b0390f35b610235565b5f80fd5b5f80fd5b634e487b7160e01b5f52604160045260245ffd5b906106e9906103af565b810190811067ffffffffffffffff82111761070357604052565b6106cb565b9061071b61071461022f565b92836106df565b565b67ffffffffffffffff811161073b576107376020916103af565b0190565b6106cb565b90825f939282370152565b9092919261076061075b8261071d565b610708565b9381855260208501908284011161077c5761077a92610740565b565b6106c7565b9080601f8301121561079f5781602061079c9335910161074b565b90565b6106c3565b906020828203126107d4575f82013567ffffffffffffffff81116107cf576107cc9201610781565b90565b61023d565b610239565b61080e610815946108046060949897956107fa608086019a5f8701906104a5565b602085019061037a565b604083019061038a565b0190610293565b565b3461084b5761084761083261082d3660046107a4565b612218565b9061083e94929461022f565b948594856107d9565b0390f35b610235565b3461087f5761086961086336600461065d565b90612286565b61087161022f565b8061087b8161068a565b0390f35b610235565b5f91031261088e57565b610239565b7fb7c19c4897e038440c53ecfaa804a0f8d20573cb698f85962cd7515a7744106490565b6108bf610893565b90565b346108f2576108d2366004610884565b6108ee6108dd6108b7565b6108e561022f565b918291826104b2565b0390f35b610235565b5f80fd5b908161016091031261090a5790565b6108f7565b909160608284031261095c575f82013567ffffffffffffffff81116109575761093d846109549285016108fb565b9361094b8160208601610301565b93604001610510565b90565b61023d565b610239565b9190610974905f6020850194019061038a565b565b346109a7576109a361099261098c36600461090f565b91612492565b61099a61022f565b91829182610961565b0390f35b610235565b6109b58161028e565b036109bc57565b5f80fd5b905035906109cd826109ac565b565b9190604083820312610a0f575f8301359067ffffffffffffffff8211610a0a576109fe81610a07938601610781565b936020016109c0565b90565b61023d565b610239565b34610a4357610a2d610a273660046109cf565b9061269e565b610a3561022f565b80610a3f8161068a565b0390f35b610235565b67ffffffffffffffff8111610a605760208091020190565b6106cb565b5f80fd5b929190610a7d610a7882610a48565b610708565b9381855260208086019202810191838311610ad45781905b838210610aa3575050505050565b813567ffffffffffffffff8111610acf57602091610ac48784938701610781565b815201910190610a95565b6106c3565b610a65565b9080601f83011215610af757816020610af493359101610a69565b90565b6106c3565b909160c082840312610b8c575f82013567ffffffffffffffff8111610b875783610b27918401610781565b92610b358160208501610510565b92610b438260408301610510565b92610b518360608401610510565b9260808301359067ffffffffffffffff8211610b8257610b7681610b7f938601610ad9565b9360a0016109c0565b90565b61023d565b61023d565b610239565b34610bc857610bc4610bb3610ba7366004610afc565b9493909392919261334c565b610bbb61022f565b918291826105f0565b0390f35b610235565b905090565b610bf7610bee92602092610be581610397565b94858093610bcd565b938491016103a4565b0190565b90565b610c0a610c0f91610387565b610bfb565b9052565b610c23610c2a9160209493610bd2565b8092610bfe565b0190565b610c42610c3961022f565b92839283610c13565b03902090565b610c5191610c2e565b90565b5f1c90565b90565b610c68610c6d91610c54565b610c59565b90565b610c7a9054610c5c565b90565b610c89610c8e91610c54565b610593565b90565b610c9b9054610c7d565b90565b90565b610cad610cb291610c54565b610c9e565b90565b610cbf9054610ca1565b90565b60ff1690565b610cd4610cd991610c54565b610cc2565b90565b610ce69054610cc8565b90565b610cf4906007610c48565b90610d005f8301610c70565b91610d0d60018201610c91565b91610d266003610d1f60028501610cb5565b9301610cdc565b90565b34610d5d57610d59610d44610d3f3660046107a4565b610ce9565b90610d5094929461022f565b948594856107d9565b0390f35b610235565b90602082820312610d7b57610d78915f0161064e565b90565b610239565b92610dd0610dec979260c096610dc3610ddb94610db9610de5989e9d9b9e610daf60e08c01965f8d019061038a565b60208b019061038a565b604089019061038a565b86820360608801526103b9565b986080850190610293565b60a083019061038a565b019061038a565b565b34610e2557610e21610e09610e04366004610d62565b613365565b93610e1897959793919361022f565b97889788610d80565b0390f35b610235565b5490565b5f5260205f2090565b610e4081610e2a565b821015610e5a57610e52600191610e2e565b910201905f90565b61053d565b610e6f906008610e74930261058f565b610c59565b90565b90610e829154610e5f565b90565b600a610e9081610e2a565b821015610ead57610eaa91610ea491610e37565b90610e77565b90565b5f80fd5b34610ee157610edd610ecc610ec736600461051f565b610e85565b610ed461022f565b918291826104b2565b0390f35b610235565b90565b610efd610ef8610f0292610387565b610ee6565b610387565b90565b90610f0f90610ee9565b5f5260205260405f2090565b610f2b906008610f30930261058f565b610cc2565b90565b90610f3e9154610f1b565b90565b610f5790610f526008915f92610f05565b610f33565b90565b34610f8a57610f86610f75610f7036600461051f565b610f41565b610f7d61022f565b918291826102a0565b0390f35b610235565b67ffffffffffffffff8111610fad57610fa96020916103af565b0190565b6106cb565b90929192610fc7610fc282610f8f565b610708565b93818552602085019082840111610fe357610fe192610740565b565b6106c7565b9080601f830112156110065781602061100393359101610fb2565b90565b6106c3565b91909160a08184031261108d57611024835f830161064e565b926110328160208401610510565b926110408260408501610510565b92606081013567ffffffffffffffff81116110885783611061918301610781565b92608082013567ffffffffffffffff8111611083576110809201610fe8565b90565b61023d565b61023d565b610239565b346110c6576110c26110b16110a836600461100b565b93929092613876565b6110b961022f565b918291826104b2565b0390f35b610235565b91909160408184031261110b576110e4835f830161064e565b92602082013567ffffffffffffffff8111611106576111039201610781565b90565b61023d565b610239565b3461113f576111296111233660046110cb565b90613919565b61113161022f565b8061113b8161068a565b0390f35b610235565b7ff6cb64e996168d457a742c31acfdf41379011bcb21a51207e077d7d8f1c61d1690565b611170611144565b90565b346111a357611183366004610884565b61119f61118e611168565b61119661022f565b918291826104b2565b0390f35b610235565b346111d9576111d56111c46111be36600461065d565b9061393b565b6111cc61022f565b918291826102a0565b0390f35b610235565b6111e7906102ea565b90565b906111f4906111de565b5f5260205260405f2090565b634e487b7160e01b5f52602260045260245ffd5b9060016002830492168015611234575b602083101461122f57565b611200565b91607f1691611224565b60209181520190565b5f5260205f2090565b905f929180549061126a61126383611214565b809461123e565b916001811690815f146112c15750600114611285575b505050565b6112929192939450611247565b915f925b8184106112a957505001905f8080611280565b60018160209295939554848601520191019290611296565b92949550505060ff19168252151560200201905f8080611280565b906112e691611250565b90565b90611309611302926112f961022f565b938480926112dc565b03836106df565b565b6113169060066111ea565b906113225f8301610c91565b9161132f60018201610cb5565b9161133c60028301610cb5565b9161134960038201610cb5565b9161135660048301610cb5565b9161136360058201610cdc565b91611370600683016112e9565b9161137d60078201610c70565b91611396600961138f60088501610cb5565b9301610cb5565b90565b9596611407610120986113fd61142a989b9e9d9b6113f36114319e996113e961141f9a60408f6113e26114149d6113d861014084019e5f85019061037a565b602083019061038a565b019061038a565b60608d019061038a565b60808b019061038a565b60a0890190610293565b86820360c08801526103b9565b9860e08501906104a5565b61010083019061038a565b019061038a565b565b346114705761146c61144e611449366004610310565b61130b565b966114639a989a96919695929594939461022f565b9a8b9a8b611399565b0390f35b610235565b5490565b5f5260205f2090565b61148b81611475565b8210156114a55761149d600191611479565b910201905f90565b61053d565b634e487b7160e01b5f525f60045260245ffd5b905f106114d0576114cd906112e9565b90565b6114aa565b600b6114e081611475565b8210156114fd576114fa916114f491611482565b906114bd565b90565b5f80fd5b6115169160208201915f8184039101526103b9565b90565b346115495761154561153461152f36600461051f565b6114d5565b61153c61022f565b91829182611501565b0390f35b610235565b90565b5f1b90565b61156a61156561156f9261154e565b611551565b6102ea565b90565b61157b5f611556565b90565b611586611572565b90565b346115b957611599366004610884565b6115b56115a461157e565b6115ac61022f565b918291826104b2565b0390f35b610235565b91909160a081840312611658575f81013567ffffffffffffffff811161165357836115ea918301610781565b926115f8816020840161064e565b926116068260408501610510565b92606081013567ffffffffffffffff811161164e5783611627918301610fe8565b92608082013567ffffffffffffffff8111611649576116469201610fe8565b90565b61023d565b61023d565b61023d565b610239565b5190565b60209181520190565b611689611692602093611697936116808161165d565b93848093611661565b958691016103a4565b6103af565b0190565b6116b09160208201915f81840391015261166a565b90565b346116e7576116e36116d26116c93660046115be565b93929092614198565b6116da61022f565b9182918261169b565b0390f35b610235565b6116fc906008611701930261058f565b610c9e565b90565b9061170f91546116ec565b90565b61171e60045f90611704565b90565b3461175157611731366004610884565b61174d61173c611712565b61174461022f565b91829182610961565b0390f35b610235565b7f000000000000000000000000000000000000000000000000000000000000000090565b346117aa5761178a366004610884565b6117a6611795611756565b61179d61022f565b918291826105f0565b0390f35b610235565b6117c36117be6117c892610363565b610ee6565b610363565b90565b6117d4906117af565b90565b6117e0906117cb565b90565b906117ed906117d7565b5f5260205260405f2090565b6118049060056117e3565b906118105f8301610c91565b9161181d60018201610cb5565b9161182a60028301610cb5565b9161183760038201610cb5565b9161184460048301610c70565b91611851600582016112e9565b9161185e60068301610cdc565b9161186b60078201610cb5565b91611884600961187d60088501610cb5565b9301610cb5565b90565b95611904916118f9916118ec611919986101209b9f9e9c966119209e996118d861190e9a60408f6118d16118e2966118c761014084019c5f85019061037a565b602083019061038a565b019061038a565b60608d019061038a565b60808b01906104a5565b88820360a08a01526103b9565b9a60c0870190610293565b60e085019061038a565b61010083019061038a565b019061038a565b565b3461195f5761195b61193d611938366004610d62565b6117f9565b966119529a989a96919695929594939461022f565b9a8b9a8b611887565b0390f35b610235565b346119935761197d61197736600461065d565b906141da565b61198561022f565b8061198f8161068a565b0390f35b610235565b346119c6576119a8366004610884565b6119b0614247565b6119b861022f565b806119c28161068a565b0390f35b610235565b60018060a01b031690565b6119e69060086119eb930261058f565b6119cb565b90565b906119f991546119d6565b90565b611a0860025f906119ee565b90565b611a14906117cb565b90565b611a2090611a0b565b9052565b9190611a37905f60208501940190611a17565b565b34611a6957611a49366004610884565b611a65611a546119fc565b611a5c61022f565b91829182611a24565b0390f35b610235565b7fb19546dff01e856fb3f010c267a7b1c60363cf8a4664e21cc89c26224620214e90565b611a9a611a6e565b90565b34611acd57611aad366004610884565b611ac9611ab8611a92565b611ac061022f565b918291826104b2565b0390f35b610235565b611ade60035f906105b6565b90565b34611b1157611af1366004610884565b611b0d611afc611ad2565b611b0461022f565b918291826105f0565b0390f35b610235565b919091604081840312611b5657611b2f835f8301610301565b92602082013567ffffffffffffffff8111611b5157611b4e9201610781565b90565b61023d565b610239565b34611b8a57611b74611b6e366004611b16565b906142c9565b611b7c61022f565b80611b868161068a565b0390f35b610235565b5f90565b611b9b611b8f565b5080611bb6611bb0637965db0b60e01b610241565b91610241565b14908115611bc3575b5090565b611bcd91506142d5565b5f611bbf565b90611be591611be0614327565b611f1d565b90611bee61438c565b565b90565b5f7f537562736372697074696f6e206e6f7420616374697665000000000000000000910152565b611c27601760209261039b565b611c3081611bf3565b0190565b611c499060208101905f818303910152611c1a565b90565b15611c5357565b611c5b61022f565b62461bcd60e51b815280611c7160048201611c34565b0390fd5b5f7f5061796d656e74206e6f74206475652079657400000000000000000000000000910152565b611ca9601360209261039b565b611cb281611c75565b0190565b611ccb9060208101905f818303910152611c9c565b90565b15611cd557565b611cdd61022f565b62461bcd60e51b815280611cf360048201611cb6565b0390fd5b611d00906117cb565b90565b5f7f496e73756666696369656e742062616c616e6365000000000000000000000000910152565b611d37601460209261039b565b611d4081611d03565b0190565b611d599060208101905f818303910152611d2a565b90565b15611d6357565b611d6b61022f565b62461bcd60e51b815280611d8160048201611d44565b0390fd5b905090565b611d955f8092611d85565b0190565b611da290611d8a565b90565b90611db7611db283610f8f565b610708565b918252565b606090565b3d5f14611ddc57611dd13d611da5565b903d5f602084013e5b565b611de4611dbc565b90611dda565b5f7f5061796d656e74206661696c6564000000000000000000000000000000000000910152565b611e1e600e60209261039b565b611e2781611dea565b0190565b611e409060208101905f818303910152611e11565b90565b15611e4a57565b611e5261022f565b62461bcd60e51b815280611e6860048201611e2b565b0390fd5b90611e785f1991611551565b9181191691161790565b90565b90611e9a611e95611ea192610ee9565b611e82565b8254611e6c565b9055565b634e487b7160e01b5f52601160045260245ffd5b611ec8611ece91939293610387565b92610387565b8201809211611ed957565b611ea5565b611ee790610387565b5f198114611ef55760010190565b611ea5565b916020611f1b929493611f1460408201965f83019061038a565b019061038a565b565b506120626001611f37611f32600685906111ea565b611bf0565b92611f4c611f4760058601610cdc565b611c4c565b611f7442611f6d611f67611f6260048901610cb5565b610387565b91610387565b1015611cce565b611fa4611f8030611cf7565b31611f9d611f97611f92868901610cb5565b610387565b91610387565b1015611d5c565b611fe45f80611fb4818801610c91565b611fbf868901610cb5565b611fc761022f565b9081611fd281611d99565b03925af1611fde611dc1565b50611e43565b611ff14260038601611e85565b61201361200a4261200460028801610cb5565b90611eb9565b60048601611e85565b61203d612021838601610cb5565b612037600887019161203283610cb5565b611eb9565b90611e85565b61205b6009850161205561205082610cb5565b611ede565b90611e85565b9201610cb5565b904261208e7f9c672ad188c5a2ab054ea53f287a0e04b20ecf62c11bcf17d3a80921708b294e926111de565b926120a361209a61022f565b92839283611efa565b0390a2600190565b6120bc906120b7611b8f565b611bd3565b90565b5f90565b5f90565b606090565b6120d5906112e9565b90565b61212e612133916120e76120bf565b506120f06120c3565b506120f96120c3565b506121026120c3565b5061210b611b8f565b506121146120c7565b5061211d6120c3565b506121266120c3565b5060066111ea565b611bf0565b9061213f5f8301610c91565b9161214c60018201610cb5565b9261215960028301610cb5565b9261216660048401610cb5565b9261217360058201610cdc565b92600682019261219f612194600961218d60088701610cb5565b9501610cb5565b9298979695946120cc565b929190565b5f90565b906121b2906111de565b5f5260205260405f2090565b60016121d66121dc926121cf6121a4565b505f6121a8565b01610c70565b90565b906121fa916121f56121f0826121be565b6143a0565b6121fc565b565b90612206916143b4565b50565b90612213916121df565b565b90565b61224a61224f916122276121a4565b506122306120bf565b506122396120c3565b50612242611b8f565b506007610c48565b612215565b61225a5f8201610c70565b61226660018301610c91565b9261227f600361227860028601610cb5565b9401610cdc565b9193929190565b90806122a161229b61229661445f565b61036e565b9161036e565b036122b2576122af9161446c565b50565b5f63334bd91960e11b8152806122ca6004820161068a565b0390fd5b5f7f4f6e6c7920456e747279506f696e740000000000000000000000000000000000910152565b612302600f60209261039b565b61230b816122ce565b0190565b6123249060208101905f8183039101526122f5565b90565b1561232e57565b61233661022f565b62461bcd60e51b81528061234c6004820161230f565b0390fd5b5f80fd5b5f80fd5b5f80fd5b90359060016020038136030382121561239e570180359067ffffffffffffffff82116123995760200191600182023603831361239457565b612358565b612354565b612350565b6123ae913691610fb2565b90565b6123c56123c06123ca9261154e565b610ee6565b610387565b90565b6123d6906117af565b90565b6123e2906123cd565b90565b6123ee906117cb565b90565b5f7f4661696c656420746f207061792070726566756e640000000000000000000000910152565b612425601560209261039b565b61242e816123f1565b0190565b6124479060208101905f818303910152612418565b90565b1561245157565b61245961022f565b62461bcd60e51b81528061246f60048201612432565b0390fd5b90565b61248a61248561248f92612473565b610ee6565b610387565b90565b6124fb6124f56124e9612501946124a76120c3565b506124e4336124de6124d87f000000000000000000000000000000000000000000000000000000000000000061036e565b9161036e565b14612327565b61450d565b9261014081019061235c565b906123a3565b90614543565b8061251d6125176125126003610c91565b61036e565b9161036e565b149081156125a2575b5061253957506125366001612476565b90565b8061254c6125465f6123b1565b91610387565b1161255f575b5061255c5f6123b1565b90565b5f8061259c92612576612571336123d9565b6123e5565b9061257f61022f565b908161258a81611d99565b03925af1612596611dc1565b5061244a565b5f612552565b6125b491506125af611144565b61393b565b5f612526565b906125d4916125cf6125ca611a6e565b6143a0565b612642565b565b906125e260ff91611551565b9181191691161790565b6125f59061028e565b90565b90565b9061261061260b612617926125ec565b6125f8565b82546125d6565b9055565b61262491610bd2565b90565b61263c9061263361022f565b9182918261261b565b03902090565b61265a82600361265460078590610c48565b016125fb565b6126996126877feec02d52b1de18ecdf439eecf7a5a81d7ed731c391728f8b880b43639f67459692612627565b9261269061022f565b918291826102a0565b0390a2565b906126a8916125ba565b565b906126c99695949392916126c46126bf611a6e565b6143a0565b612f6f565b90565b90565b5f7f496e76616c6964206441707020646f6d61696e00000000000000000000000000910152565b612703601360209261039b565b61270c816126cf565b0190565b6127259060208101905f8183039101526126f6565b90565b1561272f57565b61273761022f565b62461bcd60e51b81528061274d60048201612710565b0390fd5b60200190565b60601b90565b61276690612757565b90565b6127729061275d565b90565b6127816127869161036e565b612769565b9052565b90565b61279961279e916102ea565b61278a565b9052565b916127c16014846127b96127c89796602096612775565b01809261278d565b0190610bd2565b90565b6127d76127dc91610c54565b610ee9565b90565b6127f36127ee6127f892610387565b610ee6565b610363565b90565b90565b9061280f60018060a01b0391611551565b9181191691161790565b90565b9061283161282c612838926117d7565b612819565b82546127fe565b9055565b61284590610c54565b90565b9061285d612858612864926111de565b61283c565b8254611e6c565b9055565b601f602091010490565b1b90565b9190600861289191029161288b5f1984612872565b92612872565b9181191691161790565b91906128b16128ac6128b993610ee9565b611e82565b908354612876565b9055565b6128cf916128c96120c3565b9161289b565b565b5b8181106128dd575050565b806128ea5f6001936128bd565b016128d2565b9190601f8111612900575b505050565b61290c61293193611247565b90602061291884612868565b83019310612939575b61292a90612868565b01906128d1565b5f80806128fb565b915061292a81929050612921565b90612957905f199060080261058f565b191690565b8161296691612947565b906002021790565b9061297881610397565b9067ffffffffffffffff8211612a385761299c826129968554611214565b856128f0565b602090601f83116001146129d0579180916129bf935f926129c4575b505061295c565b90555b565b90915001515f806129b8565b601f198316916129df85611247565b925f5b818110612a2057509160029391856001969410612a06575b505050020190556129c2565b612a16910151601f841690612947565b90555f80806129fa565b919360206001819287870151815501950192016129e2565b6106cb565b90612a479161296e565b565b60200190565b600190818003010490565b90612a6d905f199060200360080261058f565b8154169055565b905f91612a8b612a8382611247565b92835461295c565b905555565b919290602082105f14612ae957601f8411600114612ab957612ab392935061295c565b90555b5b565b5090612adf612ae4936001612ad6612ad085611247565b92612868565b820191016128d1565b612a74565b612ab6565b50612b208293612afa600194611247565b612b19612b0685612868565b820192601f861680612b2b575b50612868565b01906128d1565b600202179055612ab7565b612b3790888603612a5a565b5f612b13565b929091680100000000000000008211612b9d576020115f14612b8e57602081105f14612b7257612b6c9161295c565b90555b5b565b60019160ff1916612b8284611247565b55600202019055612b6f565b60019150600202019055612b70565b6106cb565b908154612bae81611214565b90818311612bd7575b818310612bc5575b50505050565b612bce93612a90565b5f808080612bbf565b612be383838387612b3d565b612bb7565b5f612bf291612ba2565b565b905f03612c0657612c0490612be8565b565b6114aa565b5b818110612c17575050565b80612c245f600193612bf4565b01612c0c565b9091828110612c39575b505050565b612c57612c51612c4b612c6295612a4f565b92612a4f565b92611479565b918201910190612c0b565b5f8080612c34565b90680100000000000000008111612c935781612c88612c9193611475565b90828155612c2a565b565b6106cb565b5190565b5190565b612cc5612cbf612caf84612c98565b93612cba8585612c6a565b612a49565b91611479565b5f915b838310612cd55750505050565b6001602082612ced612ce78495612c9c565b86612a3d565b01920192019190612cc8565b90612d0391612ca0565b565b90565b612d1c612d17612d2192612d05565b610ee6565b610387565b90565b634e487b7160e01b5f52601260045260245ffd5b612d44612d4a91610387565b91610387565b908115612d55570490565b612d24565b612d6a612d719160149493610bd2565b8092612775565b0190565b90565b5f5260205f2090565b5490565b612d8e81612d81565b821015612da857612da0600191612d78565b910201905f90565b61053d565b91906008612dcd910291612dc760018060a01b0384612872565b92612872565b9181191691161790565b9190612ded612de8612df5936117d7565b612819565b908354612dad565b9055565b9081549168010000000000000000831015612e295782612e21916001612e2795018155612d85565b90612dd7565b565b6106cb565b90565b5f5260205f2090565b5490565b612e4781612e3a565b821015612e6157612e59600191612e31565b910201905f90565b61053d565b9190612e7757612e759161296e565b565b6114aa565b9081549168010000000000000000831015612eac5782612ea4916001612eaa95018155612e3e565b90612e66565b565b6106cb565b612ebd612ec291610c54565b6119cb565b90565b612ecf9054612eb1565b90565b5f80fd5b60e01b90565b5f910312612ee657565b610239565b5f7f53455353494f4e5f4b45595f4352454154454400000000000000000000000000910152565b612f1f601360209261039b565b612f2881612eeb565b0190565b916040612f5d929493612f56612f4b606083018381035f850152612f12565b96602083019061037a565b01906104a5565b565b612f6761022f565b3d5f823e3d90fd5b61319b9293949691956131049150612fa9612f91612f8c896126cc565b61165d565b612fa3612f9d5f6123b1565b91610387565b11612728565b61309761304b6130466130418a61302981612fe54291612fd6612fca61022f565b93849260208401610c13565b602082018103825203826106df565b612ff7612ff18261165d565b91612751565b2061301a61300430611cf7565b919361300e61022f565b948593602085016127a2565b602082018103825203826106df565b61303b6130358261165d565b91612751565b206127cb565b6127df565b6117cb565b986130816130786130656130608d60056117e3565b6127fb565b986130728d5f8c0161281c565b42611eb9565b60018901611e85565b61308e8860028901611e85565b60038701611e85565b6130e06130b56130c4896130a961022f565b9283916020830161261b565b602082018103825203826106df565b6130d66130d08261165d565b91612751565b2060048701612848565b6130ed8760058701612a3d565b6130fb6001600687016125fb565b600a8501612cf9565b61312661311d4261311762015180612d08565b90612d38565b60098501611e85565b600361313c61313760078890610c48565b612215565b916131878761316c8a9161315d61315161022f565b93849260208401612d5a565b602082018103825203826106df565b61317e6131788261165d565b91612751565b205f8501612848565b613194886001850161281c565b91016125fb565b6131af6131a86009612d75565b8590612df9565b6131c36131bc600b612e2e565b8490612e7c565b6131d56131ce611144565b85906143b4565b506131e86131e36002612ec5565b611a0b565b635260590a6131f630611cf7565b85613222889161321361320761022f565b93849260208401612d5a565b602082018103825203826106df565b61323461322e8261165d565b91612751565b2092803b156133475761325a5f809461326561324e61022f565b97889687958694612ed6565b845260048401612f2c565b03925af1801561334257613316575b50836132836001859301610cb5565b926132b76132b17fd845f0d3f47555caa160daf6a68d91d092bf8f13c845c8874276a3619b34c9ed936117d7565b93612627565b936132cc6132c361022f565b92839283611efa565b0390a381906133106132fe7faa8e633a37e167bcab3716188cd068c76c6dc8ac92c62aa02026ae259a1cfc3892612627565b9261330761022f565b918291826105f0565b0390a290565b613335905f3d811161333b575b61332d81836106df565b810190612edc565b5f613274565b503d613323565b612f5f565b612ed2565b90613362959493929161335d6120bf565b6126aa565b90565b6133b26133b7916133746120c3565b5061337d6120c3565b506133866120c3565b5061338f6120c7565b50613398611b8f565b506133a16120c3565b506133aa6120c3565b5060056117e3565b6127fb565b6133c360018201610cb5565b6133cf60028301610cb5565b926133dc60038401610cb5565b9260058101926133ee60068301610cdc565b9261341361340a600761340360088701610cb5565b9501610cb5565b929796956120cc565b93929190565b90613437959493929161343261342d611a6e565b6143a0565b6136ad565b90565b61344e6134496134539261154e565b610ee6565b610363565b90565b61345f9061343a565b90565b5f7f496e76616c69642070726f766964657200000000000000000000000000000000910152565b613496601060209261039b565b61349f81613462565b0190565b6134b89060208101905f818303910152613489565b90565b156134c257565b6134ca61022f565b62461bcd60e51b8152806134e0600482016134a3565b0390fd5b5f7f496e76616c696420616d6f756e74000000000000000000000000000000000000910152565b613518600e60209261039b565b613521816134e4565b0190565b61353a9060208101905f81830391015261350b565b90565b1561354457565b61354c61022f565b62461bcd60e51b81528061356260048201613525565b0390fd5b5f7f496e76616c696420696e74657276616c00000000000000000000000000000000910152565b61359a601060209261039b565b6135a381613566565b0190565b6135bc9060208101905f81830391015261358d565b90565b156135c657565b6135ce61022f565b62461bcd60e51b8152806135e4600482016135a7565b0390fd5b9261361261360b61361a9460148761360460209a998b98612775565b0190610bd2565b8092610bfe565b018092610bfe565b0190565b90565b5f5260205f2090565b5490565b6136378161362a565b82101561365157613649600191613621565b910201905f90565b61053d565b919061366c613667613674936111de565b61283c565b908354612876565b9055565b90815491680100000000000000008310156136a857826136a09160016136a69501815561362e565b90613656565b565b6106cb565b936137f491929394506136db836136d46136ce6136c95f613456565b61036e565b9161036e565b14156134bb565b6136f7846136f16136eb5f6123b1565b91610387565b1161353d565b6137138561370d6137075f6123b1565b91610387565b116135bf565b60078361374d839161373e426137296004610cb5565b9061373261022f565b958694602086016135e8565b602082018103825203826106df565b61375f6137598261165d565b91612751565b20966137da61377861377360068b906111ea565b611bf0565b93613785875f870161281c565b6137928860018701611e85565b61379f8960028701611e85565b6137ac4260038701611e85565b6137c36137ba428b90611eb9565b60048701611e85565b6137d16001600587016125fb565b60068501612a3d565b6137ec6137e68261165d565b91612751565b209101612848565b613808613801600a61361e565b8590613678565b61382461381d6138186004610cb5565b611ede565b6004611e85565b8390919261385b6138557fa1a9da642a413765e74d047a7dcc05aa2d718c8880af6f8a167ac61183a22363936111de565b936117d7565b9361387061386761022f565b92839283611efa565b0390a390565b9061388b949392916138866121a4565b613419565b90565b906138a8916138a361389e611a6e565b6143a0565b6138aa565b565b6138c25f60066138bc600585906117e3565b016125fb565b6138d46138cd611144565b829061446c565b506139146139027f4ce3dd846fb9901fae3c1f5c46922b584617e058bcd3d2428e36e5f30ec5a61e926117d7565b9261390b61022f565b91829182611501565b0390a2565b906139239161388e565b565b9061392f906117d7565b5f5260205260405f2090565b613961915f61395661395c9361394f611b8f565b50826121a8565b01613925565b610cdc565b90565b9061397a9594939291613975614327565b613b8d565b9061398361438c565b565b5f7f4e6f2073657373696f6e206b657920666f722064417070000000000000000000910152565b6139b9601760209261039b565b6139c281613985565b0190565b6139db9060208101905f8183039101526139ac565b90565b156139e557565b6139ed61022f565b62461bcd60e51b815280613a03600482016139c6565b0390fd5b5f7f53657373696f6e206b6579206e6f742061637469766500000000000000000000910152565b613a3b601660209261039b565b613a4481613a07565b0190565b613a5d9060208101905f818303910152613a2e565b90565b15613a6757565b613a6f61022f565b62461bcd60e51b815280613a8560048201613a48565b0390fd5b5f7f53657373696f6e206b6579206578706972656400000000000000000000000000910152565b613abd601360209261039b565b613ac681613a89565b0190565b613adf9060208101905f818303910152613ab0565b90565b15613ae957565b613af161022f565b62461bcd60e51b815280613b0760048201613aca565b0390fd5b5f7f446f6d61696e206d69736d617463680000000000000000000000000000000000910152565b613b3f600f60209261039b565b613b4881613b0b565b0190565b613b619060208101905f818303910152613b32565b90565b15613b6b57565b613b7361022f565b62461bcd60e51b815280613b8960048201613b4c565b0390fd5b90613c9e9594939291613c9982613c93613c8d613c886004613c5f613c6e613c0e613c09613bc5613bc060078b90610c48565b612215565b613bf5613bd460018301610c91565b613bee613be8613be35f613456565b61036e565b9161036e565b14156139de565b613c03600160059201610c91565b906117e3565b6127fb565b96613c23613c1e60068a01610cdc565b613a60565b613c4b42613c44613c3e613c3960018d01610cb5565b610387565b91610387565b1115613ae2565b613c5361022f565b9283916020830161261b565b602082018103825203826106df565b613c80613c7a8261165d565b91612751565b209401610c70565b6102ea565b916102ea565b14613b64565b613f25565b90565b613cc6613cbd92602092613cb48161165d565b94858093611d85565b938491016103a4565b0190565b926020613cfc93613cee601487613ce6859a99613cf598612775565b018092610bfe565b0190613ca1565b8092610bfe565b0190565b5f7f496e76616c6964207369676e6174757265000000000000000000000000000000910152565b613d34601160209261039b565b613d3d81613d00565b0190565b613d569060208101905f818303910152613d27565b90565b15613d6057565b613d6861022f565b62461bcd60e51b815280613d7e60048201613d41565b0390fd5b5f7f5472616e73616374696f6e206661696c65640000000000000000000000000000910152565b613db6601260209261039b565b613dbf81613d82565b0190565b613dd89060208101905f818303910152613da9565b90565b15613de257565b613dea61022f565b62461bcd60e51b815280613e0060048201613dc3565b0390fd5b613e0e9051610241565b90565b613e2b613e26613e208361165d565b92612751565b613e04565b9060048110613e39575b5090565b613e519063ffffffff60e01b90600403600802612872565b165f613e35565b60209392613e75613e6e601493613e7d95610bd2565b8092612775565b018092610bfe565b0190565b5f7f53455353494f4e5f4b45595f5553454400000000000000000000000000000000910152565b613eb5601060209261039b565b613ebe81613e81565b0190565b916040613ef3929493613eec613ee1606083018381035f850152613ea8565b96602083019061037a565b01906104a5565b565b613efe90610241565b9052565b916020613f23929493613f1c60408201965f83019061038a565b0190613ef5565b565b949092939450614062613f42613f3d60078690610c48565b612215565b95613fe3613fc1613f68613f636005613f5d60018d01610c91565b906117e3565b6127fb565b94613fbc87613fa48b91613f9588613f806004610cb5565b90613f8961022f565b95869460208601613cca565b602082018103825203826106df565b613fb6613fb08261165d565b91612751565b2061450d565b614543565b613fdd613fd7613fd25f8801610c91565b61036e565b9161036e565b14613d59565b613fef83878391614773565b613ffa838790614938565b61401661400f61400a6004610cb5565b611ede565b6004611e85565b61401e611b8f565b5061405d60025f80878a8690602082019151925af19861404561403f611dc1565b9a613ddb565b0161405761405282610cb5565b611ede565b90611e85565b613e11565b936140756140706002612ec5565b611a0b565b92635260590a916140b261408830611cf7565b926140a388919361409761022f565b94859360208501613e58565b602082018103825203826106df565b6140c46140be8261165d565b91612751565b2093803b15614193576140ea5f80946140f56140de61022f565b98899687958694612ed6565b845260048401613ec2565b03925af190811561418e57614112925f92614162575b5001610c91565b5a926141476141417f9cdec9e9d43c5a847560cacf233f34c27a822c5671eec9cdee5e70057c648b25936117d7565b93612627565b9361415c61415361022f565b92839283613f02565b0390a390565b61418190833d8111614187575b61417981836106df565b810190612edc565b5f61410b565b503d61416f565b612f5f565b612ed2565b906141ad949392916141a8611dbc565b613964565b90565b906141cb916141c66141c1826121be565b6143a0565b6141cd565b565b906141d79161446c565b50565b906141e4916141b0565b565b6141f66141f1611572565b6143a0565b6141fe614200565b565b5f80808061421e6142196142146003610c91565b6123d9565b6123e5565b61422730611cf7565b319082821561423e575bf11561423957565b612f5f565b506108fc614231565b61424f6141e6565b565b9061426b91614266614261611a6e565b6143a0565b61426d565b565b6142855f600561427f600685906111ea565b016125fb565b6142c46142b27fbb7071b08d9217b316f0c8702cfbacf7b55fc5654caa37aa488a075ae981604e926111de565b926142bb61022f565b91829182611501565b0390a2565b906142d391614251565b565b6142dd611b8f565b506142f76142f16301ffc9a760e01b610241565b91610241565b1490565b90565b61431261430d614317926142fb565b610ee6565b610387565b90565b61432460026142fe565b90565b6143316001610cb5565b61434a61434461433f61431a565b610387565b91610387565b146143635761436161435a61431a565b6001611e85565b565b5f633ee5aeb560e01b81528061437b6004820161068a565b0390fd5b6143896001612476565b90565b61439e61439761437f565b6001611e85565b565b6143b2906143ac61445f565b90614a00565b565b6143bc611b8f565b506143d16143cb82849061393b565b1561028e565b5f14614459576143f860016143f35f6143eb8186906121a8565b018590613925565b6125fb565b9061440161445f565b9061443e6144386144327f2f8788117e7eff1d82e926ec794901d17c78024a50270940304540a733656f0d956111de565b926117d7565b926117d7565b9261444761022f565b806144518161068a565b0390a4600190565b50505f90565b6144676120bf565b503390565b614474611b8f565b5061448081839061393b565b5f14614507576144a65f6144a15f6144998186906121a8565b018590613925565b6125fb565b906144af61445f565b906144ec6144e66144e07ff6391f5c32d9c69d2a47ea670b442974b53935d1edc7fd64eb21e047a839171b956111de565b926117d7565b926117d7565b926144f561022f565b806144ff8161068a565b0390a4600190565b50505f90565b6145156121a4565b507f19457468657265756d205369676e6564204d6573736167653a0a3332000000005f52601c52603c5f2090565b61456291614559916145536120bf565b50614a7e565b90929192614b52565b90565b60016145719101610387565b90565b90565b60209181520190565b905f929180549061459a61459383611214565b8094614577565b916001811690815f146145f157506001146145b5575b505050565b6145c2919293945061055e565b915f925b8184106145d957505001905f80806145b0565b600181602092959395548486015201910192906145c6565b92949550505060ff19168252151560200201905f80806145b0565b9061461691614580565b90565b906146396146329261462961022f565b9384809261460c565b03836106df565b565b61464490614619565b90565b90565b61465661465b91610241565b614647565b9052565b61466b8160049361464a565b0190565b5f7f46756e6374696f6e206e6f7420616c6c6f776564000000000000000000000000910152565b6146a3601460209261039b565b6146ac8161466f565b0190565b6146c59060208101905f818303910152614696565b90565b156146cf57565b6146d761022f565b62461bcd60e51b8152806146ed600482016146b0565b0390fd5b5f7f4461696c79206c696d6974206578636565646564000000000000000000000000910152565b614725601460209261039b565b61472e816146f1565b0190565b6147479060208101905f818303910152614718565b90565b1561475157565b61475961022f565b62461bcd60e51b81528061476f60048201614732565b0390fd5b9091614781600a8301611475565b61479361478d5f6123b1565b91610387565b11614822575b5061480b61480561480060036147f9614812966147c2426147bc62015180612d08565b90612d38565b6147e06147da6147d460098b01610cb5565b92610387565b91610387565b145f14614814576147f360088801610cb5565b5b611eb9565b9401610cb5565b610387565b91610387565b111561474a565b565b61481d5f6123b1565b6147f4565b61482b90613e11565b915f926148375f6123b1565b5b8061485661485061484b600a8801611475565b610387565b91610387565b101561491b5761487b614876614870600a87018490611482565b50614574565b61463b565b61488d6148878261165d565b91612751565b206148dc6148d66148af6148be866148a361022f565b9283916020830161465f565b602082018103825203826106df565b6148d06148ca8261165d565b91612751565b206102ea565b916102ea565b146148ef576148ea90614565565b614838565b5050614812925061480561480060036147f961480b9461491060015b6146c8565b965050505050614799565b505061480561480060036147f961480b946149106148129861490b565b6149ad60076149b3936149574261495162015180612d08565b90612d38565b61496360098601610cb5565b61497561496f83610387565b91610387565b106149b5575b5061499c81614996600887019161499183610cb5565b611eb9565b90611e85565b9201916149a883610cb5565b611eb9565b90611e85565b565b6149d7906149ce6149c55f6123b1565b60088801611e85565b60098601611e85565b5f61497b565b9160206149fe9294936149f760408201965f83019061037a565b01906104a5565b565b90614a15614a0f83839061393b565b1561028e565b614a1d575050565b614a375f92839263e2517d3f60e01b8452600484016149dd565b0390fd5b5f90565b90565b614a56614a51614a5b92614a3f565b610ee6565b610387565b90565b614a72614a6d614a7792610387565b611551565b6102ea565b90565b5f90565b919091614a896120bf565b50614a92614a3b565b50614a9b6121a4565b50614aa58361165d565b614ab8614ab26041614a42565b91610387565b145f14614aff57614af89192614acc6121a4565b50614ad56121a4565b50614ade614a7a565b506020810151606060408301519201515f1a909192614c93565b9192909190565b50614b095f613456565b90614b1d614b1860029461165d565b614a5e565b91929190565b634e487b7160e01b5f52602160045260245ffd5b60041115614b4157565b614b23565b90614b5082614b37565b565b80614b65614b5f5f614b46565b91614b46565b145f14614b70575050565b80614b84614b7e6001614b46565b91614b46565b145f14614ba7575f63f645eedf60e01b815280614ba36004820161068a565b0390fd5b80614bbb614bb56002614b46565b91614b46565b145f14614be957614be5614bce836127cb565b5f91829163fce698f760e01b835260048301610961565b0390fd5b614bfc614bf66003614b46565b91614b46565b14614c045750565b614c1f905f9182916335e2f38360e21b8352600483016104b2565b0390fd5b90565b614c3a614c35614c3f92614c23565b610ee6565b610387565b90565b60ff1690565b614c5190614c42565b9052565b614c8a614c9194614c80606094989795614c76608086019a5f8701906104a5565b6020850190614c48565b60408301906104a5565b01906104a5565b565b939293614c9e6120bf565b50614ca7614a3b565b50614cb06121a4565b50614cba856127cb565b614cec614ce67f7fffffffffffffffffffffffffffffff5d576e7357a4501ddfe92f46681b20a0614c26565b91610387565b11614d795790614d0f602094955f94939293614d0661022f565b94859485614c55565b838052039060015afa15614d7457614d275f51611551565b80614d42614d3c614d375f613456565b61036e565b9161036e565b14614d58575f91614d525f611556565b91929190565b50614d625f613456565b600191614d6e5f611556565b91929190565b612f5f565b505050614d855f613456565b906003929192919056fea2646970667358221220040969742830d5313691b02bd26314b9d316379ccc4f643e21bcb3126637a09964736f6c634300081e0033a264697066735822122066449e5eeb6bdbcc48ddf08dd1ae789cb2766998aed0be80bd3d819c94d7ea7964736f6c634300081e0033","linkReferences":{}},"methodIdentifiers":{"DEFAULT_ADMIN_ROLE()":"a217fddf","FACTORY_ADMIN_ROLE()":"3360cf5e","accountCreationTime(address)":"984b8eff","accountOwners(address)":"25350f08","addDefaultDApp(string)":"0644fc9c","alchemyConfig()":"72aebcfb","allAccounts(uint256)":"6c3fda1d","createAccount(address,bytes32,bool)":"01b9e71b","createAccountWithAlchemy(address,uint256,bytes,bytes)":"0f4e2c16","creationConfig()":"79cf44d0","emergencyPause()":"51858e27","emergencyWithdraw()":"db2e21bc","entryPoint()":"b0d691fe","gasManager()":"b5e4a1c4","getAccountAddress(address,bytes32)":"dbfb8cc0","getAccountOwner(address)":"442b172c","getAccountsByOwner(address)":"93eb6f19","getAllAccounts()":"08e93d0a","getDefaultDApps()":"8c7c83e8","getRoleAdmin(bytes32)":"248a9ca3","getTotalAccounts()":"da6841aa","getUserAccounts(address)":"ad872a86","grantRole(bytes32,address)":"2f2ff15d","hasRole(bytes32,address)":"91d14854","isEduCertAccount(address)":"eb3f07d4","removeDefaultDApp(uint256)":"05951c8e","renounceRole(bytes32,address)":"36568abe","revokeRole(bytes32,address)":"d547741f","saltToAccount(bytes32)":"5a29f9eb","supportsInterface(bytes4)":"01ffc9a7","trustScore()":"3078d998","updateAlchemyConfig(string,address,bool,uint256)":"0d87fdba","updateCreationConfig(uint256,uint256,bool,bool)":"ad1217db","userAccounts(address,uint256)":"83532d68","verificationLogger()":"e1300c88"},"id":65}