{"abi":[{"type":"constructor","inputs":[{"name":"_entryPoint","type":"address","internalType":"address"},{"name":"_masterOwner","type":"address","internalType":"address"},{"name":"_verificationLogger","type":"address","internalType":"address"}],"stateMutability":"nonpayable"},{"type":"fallback","stateMutability":"payable"},{"type":"receive","stateMutability":"payable"},{"type":"function","name":"DEFAULT_ADMIN_ROLE","inputs":[],"outputs":[{"name":"","type":"bytes32","internalType":"bytes32"}],"stateMutability":"view"},{"type":"function","name":"OWNER_ROLE","inputs":[],"outputs":[{"name":"","type":"bytes32","internalType":"bytes32"}],"stateMutability":"view"},{"type":"function","name":"SESSION_KEY_ROLE","inputs":[],"outputs":[{"name":"","type":"bytes32","internalType":"bytes32"}],"stateMutability":"view"},{"type":"function","name":"SUBSCRIPTION_ROLE","inputs":[],"outputs":[{"name":"","type":"bytes32","internalType":"bytes32"}],"stateMutability":"view"},{"type":"function","name":"cancelSubscription","inputs":[{"name":"subscriptionId","type":"bytes32","internalType":"bytes32"},{"name":"reason","type":"string","internalType":"string"}],"outputs":[],"stateMutability":"nonpayable"},{"type":"function","name":"createSessionKey","inputs":[{"name":"dAppDomain","type":"string","internalType":"string"},{"name":"validFor","type":"uint256","internalType":"uint256"},{"name":"gasLimit","type":"uint256","internalType":"uint256"},{"name":"dailyLimit","type":"uint256","internalType":"uint256"},{"name":"allowedFunctions","type":"string[]","internalType":"string[]"},{"name":"privacyMode","type":"bool","internalType":"bool"}],"outputs":[{"name":"sessionKeyAddress","type":"address","internalType":"address"}],"stateMutability":"nonpayable"},{"type":"function","name":"createSubscription","inputs":[{"name":"provider","type":"address","internalType":"address"},{"name":"amount","type":"uint256","internalType":"uint256"},{"name":"interval","type":"uint256","internalType":"uint256"},{"name":"serviceName","type":"string","internalType":"string"},{"name":"planDetails","type":"bytes","internalType":"bytes"}],"outputs":[{"name":"subscriptionId","type":"bytes32","internalType":"bytes32"}],"stateMutability":"nonpayable"},{"type":"function","name":"dAppDomainsList","inputs":[{"name":"","type":"uint256","internalType":"uint256"}],"outputs":[{"name":"","type":"string","internalType":"string"}],"stateMutability":"view"},{"type":"function","name":"dAppProfiles","inputs":[{"name":"","type":"string","internalType":"string"}],"outputs":[{"name":"profileHash","type":"bytes32","internalType":"bytes32"},{"name":"sessionKey","type":"address","internalType":"address"},{"name":"interactionCount","type":"uint256","internalType":"uint256"},{"name":"privacyMode","type":"bool","internalType":"bool"}],"stateMutability":"view"},{"type":"function","name":"emergencyWithdraw","inputs":[],"outputs":[],"stateMutability":"nonpayable"},{"type":"function","name":"entryPoint","inputs":[],"outputs":[{"name":"","type":"address","internalType":"address"}],"stateMutability":"view"},{"type":"function","name":"executeSubscriptionPayment","inputs":[{"name":"subscriptionId","type":"bytes32","internalType":"bytes32"}],"outputs":[{"name":"success","type":"bool","internalType":"bool"}],"stateMutability":"nonpayable"},{"type":"function","name":"executeWithSessionKey","inputs":[{"name":"dAppDomain","type":"string","internalType":"string"},{"name":"to","type":"address","internalType":"address"},{"name":"value","type":"uint256","internalType":"uint256"},{"name":"data","type":"bytes","internalType":"bytes"},{"name":"signature","type":"bytes","internalType":"bytes"}],"outputs":[{"name":"result","type":"bytes","internalType":"bytes"}],"stateMutability":"nonpayable"},{"type":"function","name":"getDAppProfile","inputs":[{"name":"domain","type":"string","internalType":"string"}],"outputs":[{"name":"profileHash","type":"bytes32","internalType":"bytes32"},{"name":"sessionKey","type":"address","internalType":"address"},{"name":"interactionCount","type":"uint256","internalType":"uint256"},{"name":"privacyMode","type":"bool","internalType":"bool"}],"stateMutability":"view"},{"type":"function","name":"getRoleAdmin","inputs":[{"name":"role","type":"bytes32","internalType":"bytes32"}],"outputs":[{"name":"","type":"bytes32","internalType":"bytes32"}],"stateMutability":"view"},{"type":"function","name":"getSessionKeyInfo","inputs":[{"name":"sessionKeyAddress","type":"address","internalType":"address"}],"outputs":[{"name":"validUntil","type":"uint256","internalType":"uint256"},{"name":"gasLimit","type":"uint256","internalType":"uint256"},{"name":"dailyLimit","type":"uint256","internalType":"uint256"},{"name":"dAppDomain","type":"string","internalType":"string"},{"name":"isActive","type":"bool","internalType":"bool"},{"name":"dailyUsed","type":"uint256","internalType":"uint256"},{"name":"totalUsed","type":"uint256","internalType":"uint256"}],"stateMutability":"view"},{"type":"function","name":"getSubscriptionInfo","inputs":[{"name":"subscriptionId","type":"bytes32","internalType":"bytes32"}],"outputs":[{"name":"provider","type":"address","internalType":"address"},{"name":"amount","type":"uint256","internalType":"uint256"},{"name":"interval","type":"uint256","internalType":"uint256"},{"name":"nextPayment","type":"uint256","internalType":"uint256"},{"name":"isActive","type":"bool","internalType":"bool"},{"name":"serviceName","type":"string","internalType":"string"},{"name":"totalPaid","type":"uint256","internalType":"uint256"},{"name":"paymentsCount","type":"uint256","internalType":"uint256"}],"stateMutability":"view"},{"type":"function","name":"grantRole","inputs":[{"name":"role","type":"bytes32","internalType":"bytes32"},{"name":"account","type":"address","internalType":"address"}],"outputs":[],"stateMutability":"nonpayable"},{"type":"function","name":"hasRole","inputs":[{"name":"role","type":"bytes32","internalType":"bytes32"},{"name":"account","type":"address","internalType":"address"}],"outputs":[{"name":"","type":"bool","internalType":"bool"}],"stateMutability":"view"},{"type":"function","name":"masterOwner","inputs":[],"outputs":[{"name":"","type":"address","internalType":"address"}],"stateMutability":"view"},{"type":"function","name":"nonce","inputs":[],"outputs":[{"name":"","type":"uint256","internalType":"uint256"}],"stateMutability":"view"},{"type":"function","name":"renounceRole","inputs":[{"name":"role","type":"bytes32","internalType":"bytes32"},{"name":"callerConfirmation","type":"address","internalType":"address"}],"outputs":[],"stateMutability":"nonpayable"},{"type":"function","name":"revokeRole","inputs":[{"name":"role","type":"bytes32","internalType":"bytes32"},{"name":"account","type":"address","internalType":"address"}],"outputs":[],"stateMutability":"nonpayable"},{"type":"function","name":"revokeSessionKey","inputs":[{"name":"sessionKeyAddress","type":"address","internalType":"address"},{"name":"reason","type":"string","internalType":"string"}],"outputs":[],"stateMutability":"nonpayable"},{"type":"function","name":"sessionKeys","inputs":[{"name":"","type":"address","internalType":"address"}],"outputs":[{"name":"keyAddress","type":"address","internalType":"address"},{"name":"validUntil","type":"uint256","internalType":"uint256"},{"name":"gasLimit","type":"uint256","internalType":"uint256"},{"name":"dailyLimit","type":"uint256","internalType":"uint256"},{"name":"dAppHash","type":"bytes32","internalType":"bytes32"},{"name":"dAppDomain","type":"string","internalType":"string"},{"name":"isActive","type":"bool","internalType":"bool"},{"name":"totalUsed","type":"uint256","internalType":"uint256"},{"name":"dailyUsed","type":"uint256","internalType":"uint256"},{"name":"lastResetDay","type":"uint256","internalType":"uint256"}],"stateMutability":"view"},{"type":"function","name":"sessionKeysList","inputs":[{"name":"","type":"uint256","internalType":"uint256"}],"outputs":[{"name":"","type":"address","internalType":"address"}],"stateMutability":"view"},{"type":"function","name":"subscriptions","inputs":[{"name":"","type":"bytes32","internalType":"bytes32"}],"outputs":[{"name":"provider","type":"address","internalType":"address"},{"name":"amount","type":"uint256","internalType":"uint256"},{"name":"interval","type":"uint256","internalType":"uint256"},{"name":"lastPayment","type":"uint256","internalType":"uint256"},{"name":"nextPayment","type":"uint256","internalType":"uint256"},{"name":"isActive","type":"bool","internalType":"bool"},{"name":"serviceName","type":"string","internalType":"string"},{"name":"planHash","type":"bytes32","internalType":"bytes32"},{"name":"totalPaid","type":"uint256","internalType":"uint256"},{"name":"paymentsCount","type":"uint256","internalType":"uint256"}],"stateMutability":"view"},{"type":"function","name":"subscriptionsList","inputs":[{"name":"","type":"uint256","internalType":"uint256"}],"outputs":[{"name":"","type":"bytes32","internalType":"bytes32"}],"stateMutability":"view"},{"type":"function","name":"supportsInterface","inputs":[{"name":"interfaceId","type":"bytes4","internalType":"bytes4"}],"outputs":[{"name":"","type":"bool","internalType":"bool"}],"stateMutability":"view"},{"type":"function","name":"togglePrivacyMode","inputs":[{"name":"domain","type":"string","internalType":"string"},{"name":"enabled","type":"bool","internalType":"bool"}],"outputs":[],"stateMutability":"nonpayable"},{"type":"function","name":"usedNonces","inputs":[{"name":"","type":"uint256","internalType":"uint256"}],"outputs":[{"name":"","type":"bool","internalType":"bool"}],"stateMutability":"view"},{"type":"function","name":"validateUserOp","inputs":[{"name":"userOp","type":"tuple","internalType":"struct IEntryPoint.UserOperation","components":[{"name":"sender","type":"address","internalType":"address"},{"name":"nonce","type":"uint256","internalType":"uint256"},{"name":"initCode","type":"bytes","internalType":"bytes"},{"name":"callData","type":"bytes","internalType":"bytes"},{"name":"callGasLimit","type":"uint256","internalType":"uint256"},{"name":"verificationGasLimit","type":"uint256","internalType":"uint256"},{"name":"preVerificationGas","type":"uint256","internalType":"uint256"},{"name":"maxFeePerGas","type":"uint256","internalType":"uint256"},{"name":"maxPriorityFeePerGas","type":"uint256","internalType":"uint256"},{"name":"paymasterAndData","type":"bytes","internalType":"bytes"},{"name":"signature","type":"bytes","internalType":"bytes"}]},{"name":"userOpHash","type":"bytes32","internalType":"bytes32"},{"name":"missingAccountFunds","type":"uint256","internalType":"uint256"}],"outputs":[{"name":"validationData","type":"uint256","internalType":"uint256"}],"stateMutability":"nonpayable"},{"type":"function","name":"verificationLogger","inputs":[],"outputs":[{"name":"","type":"address","internalType":"contract IVerificationLogger"}],"stateMutability":"view"},{"type":"event","name":"DAppProfileCreated","inputs":[{"name":"domain","type":"string","indexed":true,"internalType":"string"},{"name":"sessionKey","type":"address","indexed":false,"internalType":"address"}],"anonymous":false},{"type":"event","name":"PrivacyModeToggled","inputs":[{"name":"domain","type":"string","indexed":true,"internalType":"string"},{"name":"enabled","type":"bool","indexed":false,"internalType":"bool"}],"anonymous":false},{"type":"event","name":"RoleAdminChanged","inputs":[{"name":"role","type":"bytes32","indexed":true,"internalType":"bytes32"},{"name":"previousAdminRole","type":"bytes32","indexed":true,"internalType":"bytes32"},{"name":"newAdminRole","type":"bytes32","indexed":true,"internalType":"bytes32"}],"anonymous":false},{"type":"event","name":"RoleGranted","inputs":[{"name":"role","type":"bytes32","indexed":true,"internalType":"bytes32"},{"name":"account","type":"address","indexed":true,"internalType":"address"},{"name":"sender","type":"address","indexed":true,"internalType":"address"}],"anonymous":false},{"type":"event","name":"RoleRevoked","inputs":[{"name":"role","type":"bytes32","indexed":true,"internalType":"bytes32"},{"name":"account","type":"address","indexed":true,"internalType":"address"},{"name":"sender","type":"address","indexed":true,"internalType":"address"}],"anonymous":false},{"type":"event","name":"SessionKeyAdded","inputs":[{"name":"sessionKey","type":"address","indexed":true,"internalType":"address"},{"name":"dAppDomain","type":"string","indexed":true,"internalType":"string"},{"name":"validUntil","type":"uint256","indexed":false,"internalType":"uint256"},{"name":"gasLimit","type":"uint256","indexed":false,"internalType":"uint256"}],"anonymous":false},{"type":"event","name":"SessionKeyRevoked","inputs":[{"name":"sessionKey","type":"address","indexed":true,"internalType":"address"},{"name":"reason","type":"string","indexed":false,"internalType":"string"}],"anonymous":false},{"type":"event","name":"SessionKeyUsed","inputs":[{"name":"sessionKey","type":"address","indexed":true,"internalType":"address"},{"name":"dAppDomain","type":"string","indexed":true,"internalType":"string"},{"name":"gasUsed","type":"uint256","indexed":false,"internalType":"uint256"},{"name":"functionSelector","type":"bytes4","indexed":false,"internalType":"bytes4"}],"anonymous":false},{"type":"event","name":"SubscriptionCanceled","inputs":[{"name":"subscriptionId","type":"bytes32","indexed":true,"internalType":"bytes32"},{"name":"reason","type":"string","indexed":false,"internalType":"string"}],"anonymous":false},{"type":"event","name":"SubscriptionCreated","inputs":[{"name":"subscriptionId","type":"bytes32","indexed":true,"internalType":"bytes32"},{"name":"provider","type":"address","indexed":true,"internalType":"address"},{"name":"amount","type":"uint256","indexed":false,"internalType":"uint256"},{"name":"interval","type":"uint256","indexed":false,"internalType":"uint256"}],"anonymous":false},{"type":"event","name":"SubscriptionPayment","inputs":[{"name":"subscriptionId","type":"bytes32","indexed":true,"internalType":"bytes32"},{"name":"amount","type":"uint256","indexed":false,"internalType":"uint256"},{"name":"timestamp","type":"uint256","indexed":false,"internalType":"uint256"}],"anonymous":false},{"type":"error","name":"AccessControlBadConfirmation","inputs":[]},{"type":"error","name":"AccessControlUnauthorizedAccount","inputs":[{"name":"account","type":"address","internalType":"address"},{"name":"neededRole","type":"bytes32","internalType":"bytes32"}]},{"type":"error","name":"ECDSAInvalidSignature","inputs":[]},{"type":"error","name":"ECDSAInvalidSignatureLength","inputs":[{"name":"length","type":"uint256","internalType":"uint256"}]},{"type":"error","name":"ECDSAInvalidSignatureS","inputs":[{"name":"s","type":"bytes32","internalType":"bytes32"}]},{"type":"error","name":"ReentrancyGuardReentrantCall","inputs":[]}],"bytecode":{"object":"0x60a0604052346100405761001a610014610121565b9161040e565b610022610045565b614dc5610702823960805181818161175801526124b40152614dc590f35b61004b565b60405190565b5f80fd5b601f801991011690565b634e487b7160e01b5f52604160045260245ffd5b906100779061004f565b810190811060018060401b0382111761008f57604052565b610059565b906100a76100a0610045565b928361006d565b565b5f80fd5b60018060a01b031690565b6100c1906100ad565b90565b6100cd816100b8565b036100d457565b5f80fd5b905051906100e5826100c4565b565b909160608284031261011c57610119610102845f85016100d8565b9361011081602086016100d8565b936040016100d8565b90565b6100a9565b61013f6154c78038038061013481610094565b9283398101906100e7565b909192565b90565b90565b61015e61015961016392610144565b610147565b6100ad565b90565b61016f9061014a565b90565b60209181520190565b5f7f496e76616c696420456e747279506f696e740000000000000000000000000000910152565b6101af6012602092610172565b6101b88161017b565b0190565b6101d19060208101905f8183039101526101a2565b90565b156101db57565b6101e3610045565b62461bcd60e51b8152806101f9600482016101bc565b0390fd5b5f7f496e76616c6964206d6173746572206f776e6572000000000000000000000000910152565b6102316014602092610172565b61023a816101fd565b0190565b6102539060208101905f818303910152610224565b90565b1561025d57565b610265610045565b62461bcd60e51b81528061027b6004820161023e565b0390fd5b5f7f496e76616c696420766572696669636174696f6e206c6f676765720000000000910152565b6102b3601b602092610172565b6102bc8161027f565b0190565b6102d59060208101905f8183039101526102a6565b90565b156102df57565b6102e7610045565b62461bcd60e51b8152806102fd600482016102c0565b0390fd5b5f1b90565b9061031760018060a01b0391610301565b9181191691161790565b61033561033061033a926100ad565b610147565b6100ad565b90565b61034690610321565b90565b6103529061033d565b90565b90565b9061036d61036861037492610349565b610355565b8254610306565b9055565b61038190610321565b90565b61038d90610378565b90565b61039990610378565b90565b90565b906103b46103af6103bb92610390565b61039c565b8254610306565b9055565b90565b6103d66103d16103db92610144565b610301565b6103bf565b90565b6103e75f6103c2565b90565b7fb19546dff01e856fb3f010c267a7b1c60363cf8a4664e21cc89c26224620214e90565b6104a36104ca936104aa92610421610551565b6104468161043f6104396104345f610166565b6100b8565b916100b8565b14156101d4565b61046b8561046461045e6104595f610166565b6100b8565b916100b8565b1415610256565b6104908261048961048361047e5f610166565b6100b8565b916100b8565b14156102d8565b60805261049e846003610358565b610384565b600261039f565b6104bc6104b56103de565b82906105f0565b506104c56103ea565b6105f0565b50565b90565b90565b6104e76104e26104ec926104cd565b610147565b6104d0565b90565b6104f960016104d3565b90565b906105085f1991610301565b9181191691161790565b61052661052161052b926104d0565b610147565b6104d0565b90565b90565b9061054661054161054d92610512565b61052e565b82546104fc565b9055565b61056361055c6104ef565b6001610531565b565b5f90565b151590565b610577906103bf565b90565b906105849061056e565b5f5260205260405f2090565b9061059a90610349565b5f5260205260405f2090565b906105b260ff91610301565b9181191691161790565b6105c590610569565b90565b90565b906105e06105db6105e7926105bc565b6105c8565b82546105a6565b9055565b5f0190565b6105f8610565565b5061060d6106078284906106c7565b15610569565b5f1461069557610634600161062f5f61062781869061057a565b018590610590565b6105cb565b9061063d6106f4565b9061067a61067461066e7f2f8788117e7eff1d82e926ec794901d17c78024a50270940304540a733656f0d9561056e565b92610349565b92610349565b92610683610045565b8061068d816105eb565b0390a4600190565b50505f90565b5f1c90565b60ff1690565b6106b26106b79161069b565b6106a0565b90565b6106c490546106a6565b90565b6106ed915f6106e26106e8936106db610565565b508261057a565b01610590565b6106ba565b90565b5f90565b6106fc6106f0565b50339056fe60806040526004361015610010575b005b61001a5f35610229565b806301ffc9a7146102245780630772d09d1461021f5780630a05b0fc1461021a578063248a9ca31461021557806327d53b0d146102105780632f2ff15d1461020b5780633469b5151461020657806336568abe1461020157806337620295146101fc5780633a871cdd146101f75780633eabeca0146101f257806343654e9d146101ed578063569d6b8d146101e85780635ad2657f146101e357806363e387b5146101de5780636717e41c146101d957806367abbc2d146101d457806371e57926146101cf5780637c8ea08d146101ca57806391d14854146101c557806394259c6c146101c057806394319fe9146101bb578063a217fddf146101b6578063ad5a783c146101b1578063affed0e0146101ac578063b0d691fe146101a7578063b7b8d604146101a2578063d547741f1461019d578063db2e21bc14610198578063e1300c8814610193578063e58378bb1461018e578063e7201d7d146101895763f9c810270361000e57611b5b565b611ae1565b611a9d565b611a39565b611998565b611964565b611922565b61177a565b611721565b6116b3565b611589565b611519565b611433565b6111a8565b611173565b611110565b611092565b610f5a565b610eb1565b610dee565b610d29565b610b91565b610a14565b610976565b6108c2565b610850565b610817565b61068f565b610605565b6104c7565b610466565b61032e565b6102b5565b60e01c90565b60405190565b5f80fd5b5f80fd5b5f80fd5b63ffffffff60e01b1690565b61025681610241565b0361025d57565b5f80fd5b9050359061026e8261024d565b565b9060208282031261028957610286915f01610261565b90565b610239565b151590565b61029c9061028e565b9052565b91906102b3905f60208501940190610293565b565b346102e5576102e16102d06102cb366004610270565b611b93565b6102d861022f565b918291826102a0565b0390f35b610235565b90565b6102f6816102ea565b036102fd57565b5f80fd5b9050359061030e826102ed565b565b9060208282031261032957610326915f01610301565b90565b610239565b3461035e5761035a610349610344366004610310565b6120ab565b61035161022f565b918291826102a0565b0390f35b610235565b60018060a01b031690565b61037790610363565b90565b6103839061036e565b9052565b90565b61039390610387565b9052565b5190565b60209181520190565b90825f9392825e0152565b601f801991011690565b6103d86103e16020936103e6936103cf81610397565b9384809361039b565b958691016103a4565b6103af565b0190565b939561044560e09661043b6104649a9c9b9961043161045d986104276104529961041d8d9a5f6101008d019c019061037a565b60208d019061038a565b60408b019061038a565b606089019061038a565b6080870190610293565b84820360a08601526103b9565b9660c083019061038a565b019061038a565b565b346104a05761049c61048161047c366004610310565b6120d8565b9461049398969894919493929361022f565b988998896103ea565b0390f35b610235565b6104ae906102ea565b9052565b91906104c5905f602085019401906104a5565b565b346104f7576104f36104e26104dd366004610310565b6121be565b6104ea61022f565b918291826104b2565b0390f35b610235565b61050581610387565b0361050c57565b5f80fd5b9050359061051d826104fc565b565b9060208282031261053857610535915f01610510565b90565b610239565b634e487b7160e01b5f52603260045260245ffd5b5490565b5f5260205f2090565b5f5260205f2090565b61057081610551565b82101561058a57610582600191610555565b910201905f90565b61053d565b1c90565b60018060a01b031690565b6105ae9060086105b3930261058f565b610593565b90565b906105c1915461059e565b90565b60096105cf81610551565b8210156105ec576105e9916105e391610567565b906105b6565b90565b5f80fd5b9190610603905f6020850194019061037a565b565b346106355761063161062061061b36600461051f565b6105c4565b61062861022f565b918291826105f0565b0390f35b610235565b6106438161036e565b0361064a57565b5f80fd5b9050359061065b8261063a565b565b91906040838203126106855780610679610682925f8601610301565b9360200161064e565b90565b610239565b5f0190565b346106be576106a86106a236600461065d565b90612209565b6106b061022f565b806106ba8161068a565b0390f35b610235565b5f80fd5b5f80fd5b634e487b7160e01b5f52604160045260245ffd5b906106e9906103af565b810190811067ffffffffffffffff82111761070357604052565b6106cb565b9061071b61071461022f565b92836106df565b565b67ffffffffffffffff811161073b576107376020916103af565b0190565b6106cb565b90825f939282370152565b9092919261076061075b8261071d565b610708565b9381855260208501908284011161077c5761077a92610740565b565b6106c7565b9080601f8301121561079f5781602061079c9335910161074b565b90565b6106c3565b906020828203126107d4575f82013567ffffffffffffffff81116107cf576107cc9201610781565b90565b61023d565b610239565b61080e610815946108046060949897956107fa608086019a5f8701906104a5565b602085019061037a565b604083019061038a565b0190610293565b565b3461084b5761084761083261082d3660046107a4565b612218565b9061083e94929461022f565b948594856107d9565b0390f35b610235565b3461087f5761086961086336600461065d565b90612286565b61087161022f565b8061087b8161068a565b0390f35b610235565b5f91031261088e57565b610239565b7fb7c19c4897e038440c53ecfaa804a0f8d20573cb698f85962cd7515a7744106490565b6108bf610893565b90565b346108f2576108d2366004610884565b6108ee6108dd6108b7565b6108e561022f565b918291826104b2565b0390f35b610235565b5f80fd5b908161016091031261090a5790565b6108f7565b909160608284031261095c575f82013567ffffffffffffffff81116109575761093d846109549285016108fb565b9361094b8160208601610301565b93604001610510565b90565b61023d565b610239565b9190610974905f6020850194019061038a565b565b346109a7576109a361099261098c36600461090f565b91612492565b61099a61022f565b91829182610961565b0390f35b610235565b6109b58161028e565b036109bc57565b5f80fd5b905035906109cd826109ac565b565b9190604083820312610a0f575f8301359067ffffffffffffffff8211610a0a576109fe81610a07938601610781565b936020016109c0565b90565b61023d565b610239565b34610a4357610a2d610a273660046109cf565b9061269e565b610a3561022f565b80610a3f8161068a565b0390f35b610235565b67ffffffffffffffff8111610a605760208091020190565b6106cb565b5f80fd5b929190610a7d610a7882610a48565b610708565b9381855260208086019202810191838311610ad45781905b838210610aa3575050505050565b813567ffffffffffffffff8111610acf57602091610ac48784938701610781565b815201910190610a95565b6106c3565b610a65565b9080601f83011215610af757816020610af493359101610a69565b90565b6106c3565b909160c082840312610b8c575f82013567ffffffffffffffff8111610b875783610b27918401610781565b92610b358160208501610510565b92610b438260408301610510565b92610b518360608401610510565b9260808301359067ffffffffffffffff8211610b8257610b7681610b7f938601610ad9565b9360a0016109c0565b90565b61023d565b61023d565b610239565b34610bc857610bc4610bb3610ba7366004610afc565b9493909392919261334c565b610bbb61022f565b918291826105f0565b0390f35b610235565b905090565b610bf7610bee92602092610be581610397565b94858093610bcd565b938491016103a4565b0190565b90565b610c0a610c0f91610387565b610bfb565b9052565b610c23610c2a9160209493610bd2565b8092610bfe565b0190565b610c42610c3961022f565b92839283610c13565b03902090565b610c5191610c2e565b90565b5f1c90565b90565b610c68610c6d91610c54565b610c59565b90565b610c7a9054610c5c565b90565b610c89610c8e91610c54565b610593565b90565b610c9b9054610c7d565b90565b90565b610cad610cb291610c54565b610c9e565b90565b610cbf9054610ca1565b90565b60ff1690565b610cd4610cd991610c54565b610cc2565b90565b610ce69054610cc8565b90565b610cf4906007610c48565b90610d005f8301610c70565b91610d0d60018201610c91565b91610d266003610d1f60028501610cb5565b9301610cdc565b90565b34610d5d57610d59610d44610d3f3660046107a4565b610ce9565b90610d5094929461022f565b948594856107d9565b0390f35b610235565b90602082820312610d7b57610d78915f0161064e565b90565b610239565b92610dd0610dec979260c096610dc3610ddb94610db9610de5989e9d9b9e610daf60e08c01965f8d019061038a565b60208b019061038a565b604089019061038a565b86820360608801526103b9565b986080850190610293565b60a083019061038a565b019061038a565b565b34610e2557610e21610e09610e04366004610d62565b613365565b93610e1897959793919361022f565b97889788610d80565b0390f35b610235565b5490565b5f5260205f2090565b610e4081610e2a565b821015610e5a57610e52600191610e2e565b910201905f90565b61053d565b610e6f906008610e74930261058f565b610c59565b90565b90610e829154610e5f565b90565b600a610e9081610e2a565b821015610ead57610eaa91610ea491610e37565b90610e77565b90565b5f80fd5b34610ee157610edd610ecc610ec736600461051f565b610e85565b610ed461022f565b918291826104b2565b0390f35b610235565b90565b610efd610ef8610f0292610387565b610ee6565b610387565b90565b90610f0f90610ee9565b5f5260205260405f2090565b610f2b906008610f30930261058f565b610cc2565b90565b90610f3e9154610f1b565b90565b610f5790610f526008915f92610f05565b610f33565b90565b34610f8a57610f86610f75610f7036600461051f565b610f41565b610f7d61022f565b918291826102a0565b0390f35b610235565b67ffffffffffffffff8111610fad57610fa96020916103af565b0190565b6106cb565b90929192610fc7610fc282610f8f565b610708565b93818552602085019082840111610fe357610fe192610740565b565b6106c7565b9080601f830112156110065781602061100393359101610fb2565b90565b6106c3565b91909160a08184031261108d57611024835f830161064e565b926110328160208401610510565b926110408260408501610510565b92606081013567ffffffffffffffff81116110885783611061918301610781565b92608082013567ffffffffffffffff8111611083576110809201610fe8565b90565b61023d565b61023d565b610239565b346110c6576110c26110b16110a836600461100b565b93929092613876565b6110b961022f565b918291826104b2565b0390f35b610235565b91909160408184031261110b576110e4835f830161064e565b92602082013567ffffffffffffffff8111611106576111039201610781565b90565b61023d565b610239565b3461113f576111296111233660046110cb565b90613919565b61113161022f565b8061113b8161068a565b0390f35b610235565b7ff6cb64e996168d457a742c31acfdf41379011bcb21a51207e077d7d8f1c61d1690565b611170611144565b90565b346111a357611183366004610884565b61119f61118e611168565b61119661022f565b918291826104b2565b0390f35b610235565b346111d9576111d56111c46111be36600461065d565b9061393b565b6111cc61022f565b918291826102a0565b0390f35b610235565b6111e7906102ea565b90565b906111f4906111de565b5f5260205260405f2090565b634e487b7160e01b5f52602260045260245ffd5b9060016002830492168015611234575b602083101461122f57565b611200565b91607f1691611224565b60209181520190565b5f5260205f2090565b905f929180549061126a61126383611214565b809461123e565b916001811690815f146112c15750600114611285575b505050565b6112929192939450611247565b915f925b8184106112a957505001905f8080611280565b60018160209295939554848601520191019290611296565b92949550505060ff19168252151560200201905f8080611280565b906112e691611250565b90565b90611309611302926112f961022f565b938480926112dc565b03836106df565b565b6113169060066111ea565b906113225f8301610c91565b9161132f60018201610cb5565b9161133c60028301610cb5565b9161134960038201610cb5565b9161135660048301610cb5565b9161136360058201610cdc565b91611370600683016112e9565b9161137d60078201610c70565b91611396600961138f60088501610cb5565b9301610cb5565b90565b9596611407610120986113fd61142a989b9e9d9b6113f36114319e996113e961141f9a60408f6113e26114149d6113d861014084019e5f85019061037a565b602083019061038a565b019061038a565b60608d019061038a565b60808b019061038a565b60a0890190610293565b86820360c08801526103b9565b9860e08501906104a5565b61010083019061038a565b019061038a565b565b346114705761146c61144e611449366004610310565b61130b565b966114639a989a96919695929594939461022f565b9a8b9a8b611399565b0390f35b610235565b5490565b5f5260205f2090565b61148b81611475565b8210156114a55761149d600191611479565b910201905f90565b61053d565b634e487b7160e01b5f525f60045260245ffd5b905f106114d0576114cd906112e9565b90565b6114aa565b600b6114e081611475565b8210156114fd576114fa916114f491611482565b906114bd565b90565b5f80fd5b6115169160208201915f8184039101526103b9565b90565b346115495761154561153461152f36600461051f565b6114d5565b61153c61022f565b91829182611501565b0390f35b610235565b90565b5f1b90565b61156a61156561156f9261154e565b611551565b6102ea565b90565b61157b5f611556565b90565b611586611572565b90565b346115b957611599366004610884565b6115b56115a461157e565b6115ac61022f565b918291826104b2565b0390f35b610235565b91909160a081840312611658575f81013567ffffffffffffffff811161165357836115ea918301610781565b926115f8816020840161064e565b926116068260408501610510565b92606081013567ffffffffffffffff811161164e5783611627918301610fe8565b92608082013567ffffffffffffffff8111611649576116469201610fe8565b90565b61023d565b61023d565b61023d565b610239565b5190565b60209181520190565b611689611692602093611697936116808161165d565b93848093611661565b958691016103a4565b6103af565b0190565b6116b09160208201915f81840391015261166a565b90565b346116e7576116e36116d26116c93660046115be565b93929092614198565b6116da61022f565b9182918261169b565b0390f35b610235565b6116fc906008611701930261058f565b610c9e565b90565b9061170f91546116ec565b90565b61171e60045f90611704565b90565b3461175157611731366004610884565b61174d61173c611712565b61174461022f565b91829182610961565b0390f35b610235565b7f000000000000000000000000000000000000000000000000000000000000000090565b346117aa5761178a366004610884565b6117a6611795611756565b61179d61022f565b918291826105f0565b0390f35b610235565b6117c36117be6117c892610363565b610ee6565b610363565b90565b6117d4906117af565b90565b6117e0906117cb565b90565b906117ed906117d7565b5f5260205260405f2090565b6118049060056117e3565b906118105f8301610c91565b9161181d60018201610cb5565b9161182a60028301610cb5565b9161183760038201610cb5565b9161184460048301610c70565b91611851600582016112e9565b9161185e60068301610cdc565b9161186b60078201610cb5565b91611884600961187d60088501610cb5565b9301610cb5565b90565b95611904916118f9916118ec611919986101209b9f9e9c966119209e996118d861190e9a60408f6118d16118e2966118c761014084019c5f85019061037a565b602083019061038a565b019061038a565b60608d019061038a565b60808b01906104a5565b88820360a08a01526103b9565b9a60c0870190610293565b60e085019061038a565b61010083019061038a565b019061038a565b565b3461195f5761195b61193d611938366004610d62565b6117f9565b966119529a989a96919695929594939461022f565b9a8b9a8b611887565b0390f35b610235565b346119935761197d61197736600461065d565b906141da565b61198561022f565b8061198f8161068a565b0390f35b610235565b346119c6576119a8366004610884565b6119b0614247565b6119b861022f565b806119c28161068a565b0390f35b610235565b60018060a01b031690565b6119e69060086119eb930261058f565b6119cb565b90565b906119f991546119d6565b90565b611a0860025f906119ee565b90565b611a14906117cb565b90565b611a2090611a0b565b9052565b9190611a37905f60208501940190611a17565b565b34611a6957611a49366004610884565b611a65611a546119fc565b611a5c61022f565b91829182611a24565b0390f35b610235565b7fb19546dff01e856fb3f010c267a7b1c60363cf8a4664e21cc89c26224620214e90565b611a9a611a6e565b90565b34611acd57611aad366004610884565b611ac9611ab8611a92565b611ac061022f565b918291826104b2565b0390f35b610235565b611ade60035f906105b6565b90565b34611b1157611af1366004610884565b611b0d611afc611ad2565b611b0461022f565b918291826105f0565b0390f35b610235565b919091604081840312611b5657611b2f835f8301610301565b92602082013567ffffffffffffffff8111611b5157611b4e9201610781565b90565b61023d565b610239565b34611b8a57611b74611b6e366004611b16565b906142c9565b611b7c61022f565b80611b868161068a565b0390f35b610235565b5f90565b611b9b611b8f565b5080611bb6611bb0637965db0b60e01b610241565b91610241565b14908115611bc3575b5090565b611bcd91506142d5565b5f611bbf565b90611be591611be0614327565b611f1d565b90611bee61438c565b565b90565b5f7f537562736372697074696f6e206e6f7420616374697665000000000000000000910152565b611c27601760209261039b565b611c3081611bf3565b0190565b611c499060208101905f818303910152611c1a565b90565b15611c5357565b611c5b61022f565b62461bcd60e51b815280611c7160048201611c34565b0390fd5b5f7f5061796d656e74206e6f74206475652079657400000000000000000000000000910152565b611ca9601360209261039b565b611cb281611c75565b0190565b611ccb9060208101905f818303910152611c9c565b90565b15611cd557565b611cdd61022f565b62461bcd60e51b815280611cf360048201611cb6565b0390fd5b611d00906117cb565b90565b5f7f496e73756666696369656e742062616c616e6365000000000000000000000000910152565b611d37601460209261039b565b611d4081611d03565b0190565b611d599060208101905f818303910152611d2a565b90565b15611d6357565b611d6b61022f565b62461bcd60e51b815280611d8160048201611d44565b0390fd5b905090565b611d955f8092611d85565b0190565b611da290611d8a565b90565b90611db7611db283610f8f565b610708565b918252565b606090565b3d5f14611ddc57611dd13d611da5565b903d5f602084013e5b565b611de4611dbc565b90611dda565b5f7f5061796d656e74206661696c6564000000000000000000000000000000000000910152565b611e1e600e60209261039b565b611e2781611dea565b0190565b611e409060208101905f818303910152611e11565b90565b15611e4a57565b611e5261022f565b62461bcd60e51b815280611e6860048201611e2b565b0390fd5b90611e785f1991611551565b9181191691161790565b90565b90611e9a611e95611ea192610ee9565b611e82565b8254611e6c565b9055565b634e487b7160e01b5f52601160045260245ffd5b611ec8611ece91939293610387565b92610387565b8201809211611ed957565b611ea5565b611ee790610387565b5f198114611ef55760010190565b611ea5565b916020611f1b929493611f1460408201965f83019061038a565b019061038a565b565b506120626001611f37611f32600685906111ea565b611bf0565b92611f4c611f4760058601610cdc565b611c4c565b611f7442611f6d611f67611f6260048901610cb5565b610387565b91610387565b1015611cce565b611fa4611f8030611cf7565b31611f9d611f97611f92868901610cb5565b610387565b91610387565b1015611d5c565b611fe45f80611fb4818801610c91565b611fbf868901610cb5565b611fc761022f565b9081611fd281611d99565b03925af1611fde611dc1565b50611e43565b611ff14260038601611e85565b61201361200a4261200460028801610cb5565b90611eb9565b60048601611e85565b61203d612021838601610cb5565b612037600887019161203283610cb5565b611eb9565b90611e85565b61205b6009850161205561205082610cb5565b611ede565b90611e85565b9201610cb5565b904261208e7f9c672ad188c5a2ab054ea53f287a0e04b20ecf62c11bcf17d3a80921708b294e926111de565b926120a361209a61022f565b92839283611efa565b0390a2600190565b6120bc906120b7611b8f565b611bd3565b90565b5f90565b5f90565b606090565b6120d5906112e9565b90565b61212e612133916120e76120bf565b506120f06120c3565b506120f96120c3565b506121026120c3565b5061210b611b8f565b506121146120c7565b5061211d6120c3565b506121266120c3565b5060066111ea565b611bf0565b9061213f5f8301610c91565b9161214c60018201610cb5565b9261215960028301610cb5565b9261216660048401610cb5565b9261217360058201610cdc565b92600682019261219f612194600961218d60088701610cb5565b9501610cb5565b9298979695946120cc565b929190565b5f90565b906121b2906111de565b5f5260205260405f2090565b60016121d66121dc926121cf6121a4565b505f6121a8565b01610c70565b90565b906121fa916121f56121f0826121be565b6143a0565b6121fc565b565b90612206916143b4565b50565b90612213916121df565b565b90565b61224a61224f916122276121a4565b506122306120bf565b506122396120c3565b50612242611b8f565b506007610c48565b612215565b61225a5f8201610c70565b61226660018301610c91565b9261227f600361227860028601610cb5565b9401610cdc565b9193929190565b90806122a161229b61229661445f565b61036e565b9161036e565b036122b2576122af9161446c565b50565b5f63334bd91960e11b8152806122ca6004820161068a565b0390fd5b5f7f4f6e6c7920456e747279506f696e740000000000000000000000000000000000910152565b612302600f60209261039b565b61230b816122ce565b0190565b6123249060208101905f8183039101526122f5565b90565b1561232e57565b61233661022f565b62461bcd60e51b81528061234c6004820161230f565b0390fd5b5f80fd5b5f80fd5b5f80fd5b90359060016020038136030382121561239e570180359067ffffffffffffffff82116123995760200191600182023603831361239457565b612358565b612354565b612350565b6123ae913691610fb2565b90565b6123c56123c06123ca9261154e565b610ee6565b610387565b90565b6123d6906117af565b90565b6123e2906123cd565b90565b6123ee906117cb565b90565b5f7f4661696c656420746f207061792070726566756e640000000000000000000000910152565b612425601560209261039b565b61242e816123f1565b0190565b6124479060208101905f818303910152612418565b90565b1561245157565b61245961022f565b62461bcd60e51b81528061246f60048201612432565b0390fd5b90565b61248a61248561248f92612473565b610ee6565b610387565b90565b6124fb6124f56124e9612501946124a76120c3565b506124e4336124de6124d87f000000000000000000000000000000000000000000000000000000000000000061036e565b9161036e565b14612327565b61450d565b9261014081019061235c565b906123a3565b90614543565b8061251d6125176125126003610c91565b61036e565b9161036e565b149081156125a2575b5061253957506125366001612476565b90565b8061254c6125465f6123b1565b91610387565b1161255f575b5061255c5f6123b1565b90565b5f8061259c92612576612571336123d9565b6123e5565b9061257f61022f565b908161258a81611d99565b03925af1612596611dc1565b5061244a565b5f612552565b6125b491506125af611144565b61393b565b5f612526565b906125d4916125cf6125ca611a6e565b6143a0565b612642565b565b906125e260ff91611551565b9181191691161790565b6125f59061028e565b90565b90565b9061261061260b612617926125ec565b6125f8565b82546125d6565b9055565b61262491610bd2565b90565b61263c9061263361022f565b9182918261261b565b03902090565b61265a82600361265460078590610c48565b016125fb565b6126996126877feec02d52b1de18ecdf439eecf7a5a81d7ed731c391728f8b880b43639f67459692612627565b9261269061022f565b918291826102a0565b0390a2565b906126a8916125ba565b565b906126c99695949392916126c46126bf611a6e565b6143a0565b612f6f565b90565b90565b5f7f496e76616c6964206441707020646f6d61696e00000000000000000000000000910152565b612703601360209261039b565b61270c816126cf565b0190565b6127259060208101905f8183039101526126f6565b90565b1561272f57565b61273761022f565b62461bcd60e51b81528061274d60048201612710565b0390fd5b60200190565b60601b90565b61276690612757565b90565b6127729061275d565b90565b6127816127869161036e565b612769565b9052565b90565b61279961279e916102ea565b61278a565b9052565b916127c16014846127b96127c89796602096612775565b01809261278d565b0190610bd2565b90565b6127d76127dc91610c54565b610ee9565b90565b6127f36127ee6127f892610387565b610ee6565b610363565b90565b90565b9061280f60018060a01b0391611551565b9181191691161790565b90565b9061283161282c612838926117d7565b612819565b82546127fe565b9055565b61284590610c54565b90565b9061285d612858612864926111de565b61283c565b8254611e6c565b9055565b601f602091010490565b1b90565b9190600861289191029161288b5f1984612872565b92612872565b9181191691161790565b91906128b16128ac6128b993610ee9565b611e82565b908354612876565b9055565b6128cf916128c96120c3565b9161289b565b565b5b8181106128dd575050565b806128ea5f6001936128bd565b016128d2565b9190601f8111612900575b505050565b61290c61293193611247565b90602061291884612868565b83019310612939575b61292a90612868565b01906128d1565b5f80806128fb565b915061292a81929050612921565b90612957905f199060080261058f565b191690565b8161296691612947565b906002021790565b9061297881610397565b9067ffffffffffffffff8211612a385761299c826129968554611214565b856128f0565b602090601f83116001146129d0579180916129bf935f926129c4575b505061295c565b90555b565b90915001515f806129b8565b601f198316916129df85611247565b925f5b818110612a2057509160029391856001969410612a06575b505050020190556129c2565b612a16910151601f841690612947565b90555f80806129fa565b919360206001819287870151815501950192016129e2565b6106cb565b90612a479161296e565b565b60200190565b600190818003010490565b90612a6d905f199060200360080261058f565b8154169055565b905f91612a8b612a8382611247565b92835461295c565b905555565b919290602082105f14612ae957601f8411600114612ab957612ab392935061295c565b90555b5b565b5090612adf612ae4936001612ad6612ad085611247565b92612868565b820191016128d1565b612a74565b612ab6565b50612b208293612afa600194611247565b612b19612b0685612868565b820192601f861680612b2b575b50612868565b01906128d1565b600202179055612ab7565b612b3790888603612a5a565b5f612b13565b929091680100000000000000008211612b9d576020115f14612b8e57602081105f14612b7257612b6c9161295c565b90555b5b565b60019160ff1916612b8284611247565b55600202019055612b6f565b60019150600202019055612b70565b6106cb565b908154612bae81611214565b90818311612bd7575b818310612bc5575b50505050565b612bce93612a90565b5f808080612bbf565b612be383838387612b3d565b612bb7565b5f612bf291612ba2565b565b905f03612c0657612c0490612be8565b565b6114aa565b5b818110612c17575050565b80612c245f600193612bf4565b01612c0c565b9091828110612c39575b505050565b612c57612c51612c4b612c6295612a4f565b92612a4f565b92611479565b918201910190612c0b565b5f8080612c34565b90680100000000000000008111612c935781612c88612c9193611475565b90828155612c2a565b565b6106cb565b5190565b5190565b612cc5612cbf612caf84612c98565b93612cba8585612c6a565b612a49565b91611479565b5f915b838310612cd55750505050565b6001602082612ced612ce78495612c9c565b86612a3d565b01920192019190612cc8565b90612d0391612ca0565b565b90565b612d1c612d17612d2192612d05565b610ee6565b610387565b90565b634e487b7160e01b5f52601260045260245ffd5b612d44612d4a91610387565b91610387565b908115612d55570490565b612d24565b612d6a612d719160149493610bd2565b8092612775565b0190565b90565b5f5260205f2090565b5490565b612d8e81612d81565b821015612da857612da0600191612d78565b910201905f90565b61053d565b91906008612dcd910291612dc760018060a01b0384612872565b92612872565b9181191691161790565b9190612ded612de8612df5936117d7565b612819565b908354612dad565b9055565b9081549168010000000000000000831015612e295782612e21916001612e2795018155612d85565b90612dd7565b565b6106cb565b90565b5f5260205f2090565b5490565b612e4781612e3a565b821015612e6157612e59600191612e31565b910201905f90565b61053d565b9190612e7757612e759161296e565b565b6114aa565b9081549168010000000000000000831015612eac5782612ea4916001612eaa95018155612e3e565b90612e66565b565b6106cb565b612ebd612ec291610c54565b6119cb565b90565b612ecf9054612eb1565b90565b5f80fd5b60e01b90565b5f910312612ee657565b610239565b5f7f53455353494f4e5f4b45595f4352454154454400000000000000000000000000910152565b612f1f601360209261039b565b612f2881612eeb565b0190565b916040612f5d929493612f56612f4b606083018381035f850152612f12565b96602083019061037a565b01906104a5565b565b612f6761022f565b3d5f823e3d90fd5b61319b9293949691956131049150612fa9612f91612f8c896126cc565b61165d565b612fa3612f9d5f6123b1565b91610387565b11612728565b61309761304b6130466130418a61302981612fe54291612fd6612fca61022f565b93849260208401610c13565b602082018103825203826106df565b612ff7612ff18261165d565b91612751565b2061301a61300430611cf7565b919361300e61022f565b948593602085016127a2565b602082018103825203826106df565b61303b6130358261165d565b91612751565b206127cb565b6127df565b6117cb565b986130816130786130656130608d60056117e3565b6127fb565b986130728d5f8c0161281c565b42611eb9565b60018901611e85565b61308e8860028901611e85565b60038701611e85565b6130e06130b56130c4896130a961022f565b9283916020830161261b565b602082018103825203826106df565b6130d66130d08261165d565b91612751565b2060048701612848565b6130ed8760058701612a3d565b6130fb6001600687016125fb565b600a8501612cf9565b61312661311d4261311762015180612d08565b90612d38565b60098501611e85565b600361313c61313760078890610c48565b612215565b916131878761316c8a9161315d61315161022f565b93849260208401612d5a565b602082018103825203826106df565b61317e6131788261165d565b91612751565b205f8501612848565b613194886001850161281c565b91016125fb565b6131af6131a86009612d75565b8590612df9565b6131c36131bc600b612e2e565b8490612e7c565b6131d56131ce611144565b85906143b4565b506131e86131e36002612ec5565b611a0b565b635260590a6131f630611cf7565b85613222889161321361320761022f565b93849260208401612d5a565b602082018103825203826106df565b61323461322e8261165d565b91612751565b2092803b156133475761325a5f809461326561324e61022f565b97889687958694612ed6565b845260048401612f2c565b03925af1801561334257613316575b50836132836001859301610cb5565b926132b76132b17fd845f0d3f47555caa160daf6a68d91d092bf8f13c845c8874276a3619b34c9ed936117d7565b93612627565b936132cc6132c361022f565b92839283611efa565b0390a381906133106132fe7faa8e633a37e167bcab3716188cd068c76c6dc8ac92c62aa02026ae259a1cfc3892612627565b9261330761022f565b918291826105f0565b0390a290565b613335905f3d811161333b575b61332d81836106df565b810190612edc565b5f613274565b503d613323565b612f5f565b612ed2565b90613362959493929161335d6120bf565b6126aa565b90565b6133b26133b7916133746120c3565b5061337d6120c3565b506133866120c3565b5061338f6120c7565b50613398611b8f565b506133a16120c3565b506133aa6120c3565b5060056117e3565b6127fb565b6133c360018201610cb5565b6133cf60028301610cb5565b926133dc60038401610cb5565b9260058101926133ee60068301610cdc565b9261341361340a600761340360088701610cb5565b9501610cb5565b929796956120cc565b93929190565b90613437959493929161343261342d611a6e565b6143a0565b6136ad565b90565b61344e6134496134539261154e565b610ee6565b610363565b90565b61345f9061343a565b90565b5f7f496e76616c69642070726f766964657200000000000000000000000000000000910152565b613496601060209261039b565b61349f81613462565b0190565b6134b89060208101905f818303910152613489565b90565b156134c257565b6134ca61022f565b62461bcd60e51b8152806134e0600482016134a3565b0390fd5b5f7f496e76616c696420616d6f756e74000000000000000000000000000000000000910152565b613518600e60209261039b565b613521816134e4565b0190565b61353a9060208101905f81830391015261350b565b90565b1561354457565b61354c61022f565b62461bcd60e51b81528061356260048201613525565b0390fd5b5f7f496e76616c696420696e74657276616c00000000000000000000000000000000910152565b61359a601060209261039b565b6135a381613566565b0190565b6135bc9060208101905f81830391015261358d565b90565b156135c657565b6135ce61022f565b62461bcd60e51b8152806135e4600482016135a7565b0390fd5b9261361261360b61361a9460148761360460209a998b98612775565b0190610bd2565b8092610bfe565b018092610bfe565b0190565b90565b5f5260205f2090565b5490565b6136378161362a565b82101561365157613649600191613621565b910201905f90565b61053d565b919061366c613667613674936111de565b61283c565b908354612876565b9055565b90815491680100000000000000008310156136a857826136a09160016136a69501815561362e565b90613656565b565b6106cb565b936137f491929394506136db836136d46136ce6136c95f613456565b61036e565b9161036e565b14156134bb565b6136f7846136f16136eb5f6123b1565b91610387565b1161353d565b6137138561370d6137075f6123b1565b91610387565b116135bf565b60078361374d839161373e426137296004610cb5565b9061373261022f565b958694602086016135e8565b602082018103825203826106df565b61375f6137598261165d565b91612751565b20966137da61377861377360068b906111ea565b611bf0565b93613785875f870161281c565b6137928860018701611e85565b61379f8960028701611e85565b6137ac4260038701611e85565b6137c36137ba428b90611eb9565b60048701611e85565b6137d16001600587016125fb565b60068501612a3d565b6137ec6137e68261165d565b91612751565b209101612848565b613808613801600a61361e565b8590613678565b61382461381d6138186004610cb5565b611ede565b6004611e85565b8390919261385b6138557fa1a9da642a413765e74d047a7dcc05aa2d718c8880af6f8a167ac61183a22363936111de565b936117d7565b9361387061386761022f565b92839283611efa565b0390a390565b9061388b949392916138866121a4565b613419565b90565b906138a8916138a361389e611a6e565b6143a0565b6138aa565b565b6138c25f60066138bc600585906117e3565b016125fb565b6138d46138cd611144565b829061446c565b506139146139027f4ce3dd846fb9901fae3c1f5c46922b584617e058bcd3d2428e36e5f30ec5a61e926117d7565b9261390b61022f565b91829182611501565b0390a2565b906139239161388e565b565b9061392f906117d7565b5f5260205260405f2090565b613961915f61395661395c9361394f611b8f565b50826121a8565b01613925565b610cdc565b90565b9061397a9594939291613975614327565b613b8d565b9061398361438c565b565b5f7f4e6f2073657373696f6e206b657920666f722064417070000000000000000000910152565b6139b9601760209261039b565b6139c281613985565b0190565b6139db9060208101905f8183039101526139ac565b90565b156139e557565b6139ed61022f565b62461bcd60e51b815280613a03600482016139c6565b0390fd5b5f7f53657373696f6e206b6579206e6f742061637469766500000000000000000000910152565b613a3b601660209261039b565b613a4481613a07565b0190565b613a5d9060208101905f818303910152613a2e565b90565b15613a6757565b613a6f61022f565b62461bcd60e51b815280613a8560048201613a48565b0390fd5b5f7f53657373696f6e206b6579206578706972656400000000000000000000000000910152565b613abd601360209261039b565b613ac681613a89565b0190565b613adf9060208101905f818303910152613ab0565b90565b15613ae957565b613af161022f565b62461bcd60e51b815280613b0760048201613aca565b0390fd5b5f7f446f6d61696e206d69736d617463680000000000000000000000000000000000910152565b613b3f600f60209261039b565b613b4881613b0b565b0190565b613b619060208101905f818303910152613b32565b90565b15613b6b57565b613b7361022f565b62461bcd60e51b815280613b8960048201613b4c565b0390fd5b90613c9e9594939291613c9982613c93613c8d613c886004613c5f613c6e613c0e613c09613bc5613bc060078b90610c48565b612215565b613bf5613bd460018301610c91565b613bee613be8613be35f613456565b61036e565b9161036e565b14156139de565b613c03600160059201610c91565b906117e3565b6127fb565b96613c23613c1e60068a01610cdc565b613a60565b613c4b42613c44613c3e613c3960018d01610cb5565b610387565b91610387565b1115613ae2565b613c5361022f565b9283916020830161261b565b602082018103825203826106df565b613c80613c7a8261165d565b91612751565b209401610c70565b6102ea565b916102ea565b14613b64565b613f25565b90565b613cc6613cbd92602092613cb48161165d565b94858093611d85565b938491016103a4565b0190565b926020613cfc93613cee601487613ce6859a99613cf598612775565b018092610bfe565b0190613ca1565b8092610bfe565b0190565b5f7f496e76616c6964207369676e6174757265000000000000000000000000000000910152565b613d34601160209261039b565b613d3d81613d00565b0190565b613d569060208101905f818303910152613d27565b90565b15613d6057565b613d6861022f565b62461bcd60e51b815280613d7e60048201613d41565b0390fd5b5f7f5472616e73616374696f6e206661696c65640000000000000000000000000000910152565b613db6601260209261039b565b613dbf81613d82565b0190565b613dd89060208101905f818303910152613da9565b90565b15613de257565b613dea61022f565b62461bcd60e51b815280613e0060048201613dc3565b0390fd5b613e0e9051610241565b90565b613e2b613e26613e208361165d565b92612751565b613e04565b9060048110613e39575b5090565b613e519063ffffffff60e01b90600403600802612872565b165f613e35565b60209392613e75613e6e601493613e7d95610bd2565b8092612775565b018092610bfe565b0190565b5f7f53455353494f4e5f4b45595f5553454400000000000000000000000000000000910152565b613eb5601060209261039b565b613ebe81613e81565b0190565b916040613ef3929493613eec613ee1606083018381035f850152613ea8565b96602083019061037a565b01906104a5565b565b613efe90610241565b9052565b916020613f23929493613f1c60408201965f83019061038a565b0190613ef5565b565b949092939450614062613f42613f3d60078690610c48565b612215565b95613fe3613fc1613f68613f636005613f5d60018d01610c91565b906117e3565b6127fb565b94613fbc87613fa48b91613f9588613f806004610cb5565b90613f8961022f565b95869460208601613cca565b602082018103825203826106df565b613fb6613fb08261165d565b91612751565b2061450d565b614543565b613fdd613fd7613fd25f8801610c91565b61036e565b9161036e565b14613d59565b613fef83878391614773565b613ffa838790614938565b61401661400f61400a6004610cb5565b611ede565b6004611e85565b61401e611b8f565b5061405d60025f80878a8690602082019151925af19861404561403f611dc1565b9a613ddb565b0161405761405282610cb5565b611ede565b90611e85565b613e11565b936140756140706002612ec5565b611a0b565b92635260590a916140b261408830611cf7565b926140a388919361409761022f565b94859360208501613e58565b602082018103825203826106df565b6140c46140be8261165d565b91612751565b2093803b15614193576140ea5f80946140f56140de61022f565b98899687958694612ed6565b845260048401613ec2565b03925af190811561418e57614112925f92614162575b5001610c91565b5a926141476141417f9cdec9e9d43c5a847560cacf233f34c27a822c5671eec9cdee5e70057c648b25936117d7565b93612627565b9361415c61415361022f565b92839283613f02565b0390a390565b61418190833d8111614187575b61417981836106df565b810190612edc565b5f61410b565b503d61416f565b612f5f565b612ed2565b906141ad949392916141a8611dbc565b613964565b90565b906141cb916141c66141c1826121be565b6143a0565b6141cd565b565b906141d79161446c565b50565b906141e4916141b0565b565b6141f66141f1611572565b6143a0565b6141fe614200565b565b5f80808061421e6142196142146003610c91565b6123d9565b6123e5565b61422730611cf7565b319082821561423e575bf11561423957565b612f5f565b506108fc614231565b61424f6141e6565b565b9061426b91614266614261611a6e565b6143a0565b61426d565b565b6142855f600561427f600685906111ea565b016125fb565b6142c46142b27fbb7071b08d9217b316f0c8702cfbacf7b55fc5654caa37aa488a075ae981604e926111de565b926142bb61022f565b91829182611501565b0390a2565b906142d391614251565b565b6142dd611b8f565b506142f76142f16301ffc9a760e01b610241565b91610241565b1490565b90565b61431261430d614317926142fb565b610ee6565b610387565b90565b61432460026142fe565b90565b6143316001610cb5565b61434a61434461433f61431a565b610387565b91610387565b146143635761436161435a61431a565b6001611e85565b565b5f633ee5aeb560e01b81528061437b6004820161068a565b0390fd5b6143896001612476565b90565b61439e61439761437f565b6001611e85565b565b6143b2906143ac61445f565b90614a00565b565b6143bc611b8f565b506143d16143cb82849061393b565b1561028e565b5f14614459576143f860016143f35f6143eb8186906121a8565b018590613925565b6125fb565b9061440161445f565b9061443e6144386144327f2f8788117e7eff1d82e926ec794901d17c78024a50270940304540a733656f0d956111de565b926117d7565b926117d7565b9261444761022f565b806144518161068a565b0390a4600190565b50505f90565b6144676120bf565b503390565b614474611b8f565b5061448081839061393b565b5f14614507576144a65f6144a15f6144998186906121a8565b018590613925565b6125fb565b906144af61445f565b906144ec6144e66144e07ff6391f5c32d9c69d2a47ea670b442974b53935d1edc7fd64eb21e047a839171b956111de565b926117d7565b926117d7565b926144f561022f565b806144ff8161068a565b0390a4600190565b50505f90565b6145156121a4565b507f19457468657265756d205369676e6564204d6573736167653a0a3332000000005f52601c52603c5f2090565b61456291614559916145536120bf565b50614a7e565b90929192614b52565b90565b60016145719101610387565b90565b90565b60209181520190565b905f929180549061459a61459383611214565b8094614577565b916001811690815f146145f157506001146145b5575b505050565b6145c2919293945061055e565b915f925b8184106145d957505001905f80806145b0565b600181602092959395548486015201910192906145c6565b92949550505060ff19168252151560200201905f80806145b0565b9061461691614580565b90565b906146396146329261462961022f565b9384809261460c565b03836106df565b565b61464490614619565b90565b90565b61465661465b91610241565b614647565b9052565b61466b8160049361464a565b0190565b5f7f46756e6374696f6e206e6f7420616c6c6f776564000000000000000000000000910152565b6146a3601460209261039b565b6146ac8161466f565b0190565b6146c59060208101905f818303910152614696565b90565b156146cf57565b6146d761022f565b62461bcd60e51b8152806146ed600482016146b0565b0390fd5b5f7f4461696c79206c696d6974206578636565646564000000000000000000000000910152565b614725601460209261039b565b61472e816146f1565b0190565b6147479060208101905f818303910152614718565b90565b1561475157565b61475961022f565b62461bcd60e51b81528061476f60048201614732565b0390fd5b9091614781600a8301611475565b61479361478d5f6123b1565b91610387565b11614822575b5061480b61480561480060036147f9614812966147c2426147bc62015180612d08565b90612d38565b6147e06147da6147d460098b01610cb5565b92610387565b91610387565b145f14614814576147f360088801610cb5565b5b611eb9565b9401610cb5565b610387565b91610387565b111561474a565b565b61481d5f6123b1565b6147f4565b61482b90613e11565b915f926148375f6123b1565b5b8061485661485061484b600a8801611475565b610387565b91610387565b101561491b5761487b614876614870600a87018490611482565b50614574565b61463b565b61488d6148878261165d565b91612751565b206148dc6148d66148af6148be866148a361022f565b9283916020830161465f565b602082018103825203826106df565b6148d06148ca8261165d565b91612751565b206102ea565b916102ea565b146148ef576148ea90614565565b614838565b5050614812925061480561480060036147f961480b9461491060015b6146c8565b965050505050614799565b505061480561480060036147f961480b946149106148129861490b565b6149ad60076149b3936149574261495162015180612d08565b90612d38565b61496360098601610cb5565b61497561496f83610387565b91610387565b106149b5575b5061499c81614996600887019161499183610cb5565b611eb9565b90611e85565b9201916149a883610cb5565b611eb9565b90611e85565b565b6149d7906149ce6149c55f6123b1565b60088801611e85565b60098601611e85565b5f61497b565b9160206149fe9294936149f760408201965f83019061037a565b01906104a5565b565b90614a15614a0f83839061393b565b1561028e565b614a1d575050565b614a375f92839263e2517d3f60e01b8452600484016149dd565b0390fd5b5f90565b90565b614a56614a51614a5b92614a3f565b610ee6565b610387565b90565b614a72614a6d614a7792610387565b611551565b6102ea565b90565b5f90565b919091614a896120bf565b50614a92614a3b565b50614a9b6121a4565b50614aa58361165d565b614ab8614ab26041614a42565b91610387565b145f14614aff57614af89192614acc6121a4565b50614ad56121a4565b50614ade614a7a565b506020810151606060408301519201515f1a909192614c93565b9192909190565b50614b095f613456565b90614b1d614b1860029461165d565b614a5e565b91929190565b634e487b7160e01b5f52602160045260245ffd5b60041115614b4157565b614b23565b90614b5082614b37565b565b80614b65614b5f5f614b46565b91614b46565b145f14614b70575050565b80614b84614b7e6001614b46565b91614b46565b145f14614ba7575f63f645eedf60e01b815280614ba36004820161068a565b0390fd5b80614bbb614bb56002614b46565b91614b46565b145f14614be957614be5614bce836127cb565b5f91829163fce698f760e01b835260048301610961565b0390fd5b614bfc614bf66003614b46565b91614b46565b14614c045750565b614c1f905f9182916335e2f38360e21b8352600483016104b2565b0390fd5b90565b614c3a614c35614c3f92614c23565b610ee6565b610387565b90565b60ff1690565b614c5190614c42565b9052565b614c8a614c9194614c80606094989795614c76608086019a5f8701906104a5565b6020850190614c48565b60408301906104a5565b01906104a5565b565b939293614c9e6120bf565b50614ca7614a3b565b50614cb06121a4565b50614cba856127cb565b614cec614ce67f7fffffffffffffffffffffffffffffff5d576e7357a4501ddfe92f46681b20a0614c26565b91610387565b11614d795790614d0f602094955f94939293614d0661022f565b94859485614c55565b838052039060015afa15614d7457614d275f51611551565b80614d42614d3c614d375f613456565b61036e565b9161036e565b14614d58575f91614d525f611556565b91929190565b50614d625f613456565b600191614d6e5f611556565b91929190565b612f5f565b505050614d855f613456565b906003929192919056fea2646970667358221220040969742830d5313691b02bd26314b9d316379ccc4f643e21bcb3126637a09964736f6c634300081e0033","linkReferences":{}},"methodIdentifiers":{"DEFAULT_ADMIN_ROLE()":"a217fddf","OWNER_ROLE()":"e58378bb","SESSION_KEY_ROLE()":"7c8ea08d","SUBSCRIPTION_ROLE()":"37620295","cancelSubscription(bytes32,string)":"f9c81027","createSessionKey(string,uint256,uint256,uint256,string[],bool)":"43654e9d","createSubscription(address,uint256,uint256,string,bytes)":"67abbc2d","dAppDomainsList(uint256)":"94319fe9","dAppProfiles(string)":"569d6b8d","emergencyWithdraw()":"db2e21bc","entryPoint()":"b0d691fe","executeSubscriptionPayment(bytes32)":"0772d09d","executeWithSessionKey(string,address,uint256,bytes,bytes)":"ad5a783c","getDAppProfile(string)":"3469b515","getRoleAdmin(bytes32)":"248a9ca3","getSessionKeyInfo(address)":"5ad2657f","getSubscriptionInfo(bytes32)":"0a05b0fc","grantRole(bytes32,address)":"2f2ff15d","hasRole(bytes32,address)":"91d14854","masterOwner()":"e7201d7d","nonce()":"affed0e0","renounceRole(bytes32,address)":"36568abe","revokeRole(bytes32,address)":"d547741f","revokeSessionKey(address,string)":"71e57926","sessionKeys(address)":"b7b8d604","sessionKeysList(uint256)":"27d53b0d","subscriptions(bytes32)":"94259c6c","subscriptionsList(uint256)":"63e387b5","supportsInterface(bytes4)":"01ffc9a7","togglePrivacyMode(string,bool)":"3eabeca0","usedNonces(uint256)":"6717e41c","validateUserOp((address,uint256,bytes,bytes,uint256,uint256,uint256,uint256,uint256,bytes,bytes),bytes32,uint256)":"3a871cdd","verificationLogger()":"e1300c88"},"id":67}