{"abi":[{"type":"constructor","inputs":[{"name":"_entryPoint","type":"address","internalType":"address"},{"name":"_verificationLogger","type":"address","internalType":"address"},{"name":"_trustScore","type":"address","internalType":"address"},{"name":"_minTrustScoreForGasless","type":"uint256","internalType":"uint256"},{"name":"_gasSubsidyLimit","type":"uint256","internalType":"uint256"},{"name":"_dailyGasLimit","type":"uint256","internalType":"uint256"}],"stateMutability":"nonpayable"},{"type":"receive","stateMutability":"payable"},{"type":"function","name":"DEFAULT_ADMIN_ROLE","inputs":[],"outputs":[{"name":"","type":"bytes32","internalType":"bytes32"}],"stateMutability":"view"},{"type":"function","name":"OPERATOR_ROLE","inputs":[],"outputs":[{"name":"","type":"bytes32","internalType":"bytes32"}],"stateMutability":"view"},{"type":"function","name":"PAYMASTER_ADMIN_ROLE","inputs":[],"outputs":[{"name":"","type":"bytes32","internalType":"bytes32"}],"stateMutability":"view"},{"type":"function","name":"balanceOf","inputs":[{"name":"account","type":"address","internalType":"address"}],"outputs":[{"name":"","type":"uint256","internalType":"uint256"}],"stateMutability":"view"},{"type":"function","name":"dailyGasLimit","inputs":[],"outputs":[{"name":"","type":"uint256","internalType":"uint256"}],"stateMutability":"view"},{"type":"function","name":"dailyGasUsed","inputs":[{"name":"","type":"address","internalType":"address"}],"outputs":[{"name":"","type":"uint256","internalType":"uint256"}],"stateMutability":"view"},{"type":"function","name":"depositTo","inputs":[{"name":"account","type":"address","internalType":"address"}],"outputs":[],"stateMutability":"payable"},{"type":"function","name":"emergencyWithdraw","inputs":[{"name":"to","type":"address","internalType":"address payable"}],"outputs":[],"stateMutability":"nonpayable"},{"type":"function","name":"enableOnboardingSubsidy","inputs":[],"outputs":[{"name":"","type":"bool","internalType":"bool"}],"stateMutability":"view"},{"type":"function","name":"entryPoint","inputs":[],"outputs":[{"name":"","type":"address","internalType":"contract IEntryPoint"}],"stateMutability":"view"},{"type":"function","name":"gasSubsidyLimit","inputs":[],"outputs":[{"name":"","type":"uint256","internalType":"uint256"}],"stateMutability":"view"},{"type":"function","name":"getNonce","inputs":[{"name":"sender","type":"address","internalType":"address"},{"name":"key","type":"uint192","internalType":"uint192"}],"outputs":[{"name":"","type":"uint256","internalType":"uint256"}],"stateMutability":"view"},{"type":"function","name":"getRoleAdmin","inputs":[{"name":"role","type":"bytes32","internalType":"bytes32"}],"outputs":[{"name":"","type":"bytes32","internalType":"bytes32"}],"stateMutability":"view"},{"type":"function","name":"getUserOnboardingInfo","inputs":[{"name":"user","type":"address","internalType":"address"}],"outputs":[{"name":"isOnboarding","type":"bool","internalType":"bool"},{"name":"gasUsed","type":"uint256","internalType":"uint256"},{"name":"gasRemaining","type":"uint256","internalType":"uint256"},{"name":"timeRemaining","type":"uint256","internalType":"uint256"}],"stateMutability":"view"},{"type":"function","name":"getUserOpHash","inputs":[{"name":"userOp","type":"tuple","internalType":"struct IEntryPoint.UserOperation","components":[{"name":"sender","type":"address","internalType":"address"},{"name":"nonce","type":"uint256","internalType":"uint256"},{"name":"initCode","type":"bytes","internalType":"bytes"},{"name":"callData","type":"bytes","internalType":"bytes"},{"name":"callGasLimit","type":"uint256","internalType":"uint256"},{"name":"verificationGasLimit","type":"uint256","internalType":"uint256"},{"name":"preVerificationGas","type":"uint256","internalType":"uint256"},{"name":"maxFeePerGas","type":"uint256","internalType":"uint256"},{"name":"maxPriorityFeePerGas","type":"uint256","internalType":"uint256"},{"name":"paymasterAndData","type":"bytes","internalType":"bytes"},{"name":"signature","type":"bytes","internalType":"bytes"}]}],"outputs":[{"name":"","type":"bytes32","internalType":"bytes32"}],"stateMutability":"view"},{"type":"function","name":"grantRole","inputs":[{"name":"role","type":"bytes32","internalType":"bytes32"},{"name":"account","type":"address","internalType":"address"}],"outputs":[],"stateMutability":"nonpayable"},{"type":"function","name":"handleOps","inputs":[{"name":"ops","type":"tuple[]","internalType":"struct IEntryPoint.UserOperation[]","components":[{"name":"sender","type":"address","internalType":"address"},{"name":"nonce","type":"uint256","internalType":"uint256"},{"name":"initCode","type":"bytes","internalType":"bytes"},{"name":"callData","type":"bytes","internalType":"bytes"},{"name":"callGasLimit","type":"uint256","internalType":"uint256"},{"name":"verificationGasLimit","type":"uint256","internalType":"uint256"},{"name":"preVerificationGas","type":"uint256","internalType":"uint256"},{"name":"maxFeePerGas","type":"uint256","internalType":"uint256"},{"name":"maxPriorityFeePerGas","type":"uint256","internalType":"uint256"},{"name":"paymasterAndData","type":"bytes","internalType":"bytes"},{"name":"signature","type":"bytes","internalType":"bytes"}]},{"name":"beneficiary","type":"address","internalType":"address payable"}],"outputs":[],"stateMutability":"nonpayable"},{"type":"function","name":"handleOpsWithTrustScore","inputs":[{"name":"ops","type":"tuple[]","internalType":"struct IEntryPoint.UserOperation[]","components":[{"name":"sender","type":"address","internalType":"address"},{"name":"nonce","type":"uint256","internalType":"uint256"},{"name":"initCode","type":"bytes","internalType":"bytes"},{"name":"callData","type":"bytes","internalType":"bytes"},{"name":"callGasLimit","type":"uint256","internalType":"uint256"},{"name":"verificationGasLimit","type":"uint256","internalType":"uint256"},{"name":"preVerificationGas","type":"uint256","internalType":"uint256"},{"name":"maxFeePerGas","type":"uint256","internalType":"uint256"},{"name":"maxPriorityFeePerGas","type":"uint256","internalType":"uint256"},{"name":"paymasterAndData","type":"bytes","internalType":"bytes"},{"name":"signature","type":"bytes","internalType":"bytes"}]},{"name":"beneficiary","type":"address","internalType":"address payable"}],"outputs":[],"stateMutability":"nonpayable"},{"type":"function","name":"hasRole","inputs":[{"name":"role","type":"bytes32","internalType":"bytes32"},{"name":"account","type":"address","internalType":"address"}],"outputs":[{"name":"","type":"bool","internalType":"bool"}],"stateMutability":"view"},{"type":"function","name":"isEligibleForGasSubsidy","inputs":[{"name":"user","type":"address","internalType":"address"}],"outputs":[{"name":"eligible","type":"bool","internalType":"bool"},{"name":"reason","type":"string","internalType":"string"}],"stateMutability":"view"},{"type":"function","name":"lastResetDay","inputs":[{"name":"","type":"address","internalType":"address"}],"outputs":[{"name":"","type":"uint256","internalType":"uint256"}],"stateMutability":"view"},{"type":"function","name":"minTrustScoreForGasless","inputs":[],"outputs":[{"name":"","type":"uint256","internalType":"uint256"}],"stateMutability":"view"},{"type":"function","name":"onboardingGasAllowance","inputs":[],"outputs":[{"name":"","type":"uint256","internalType":"uint256"}],"stateMutability":"view"},{"type":"function","name":"onboardingGasUsed","inputs":[{"name":"","type":"address","internalType":"address"}],"outputs":[{"name":"","type":"uint256","internalType":"uint256"}],"stateMutability":"view"},{"type":"function","name":"onboardingPeriod","inputs":[],"outputs":[{"name":"","type":"uint256","internalType":"uint256"}],"stateMutability":"view"},{"type":"function","name":"renounceRole","inputs":[{"name":"role","type":"bytes32","internalType":"bytes32"},{"name":"callerConfirmation","type":"address","internalType":"address"}],"outputs":[],"stateMutability":"nonpayable"},{"type":"function","name":"revokeRole","inputs":[{"name":"role","type":"bytes32","internalType":"bytes32"},{"name":"account","type":"address","internalType":"address"}],"outputs":[],"stateMutability":"nonpayable"},{"type":"function","name":"setDailyGasLimit","inputs":[{"name":"newLimit","type":"uint256","internalType":"uint256"}],"outputs":[],"stateMutability":"nonpayable"},{"type":"function","name":"setEnableOnboardingSubsidy","inputs":[{"name":"_enabled","type":"bool","internalType":"bool"}],"outputs":[],"stateMutability":"nonpayable"},{"type":"function","name":"setGasSubsidyLimit","inputs":[{"name":"newLimit","type":"uint256","internalType":"uint256"}],"outputs":[],"stateMutability":"nonpayable"},{"type":"function","name":"setOnboardingGasAllowance","inputs":[{"name":"_gasAllowance","type":"uint256","internalType":"uint256"}],"outputs":[],"stateMutability":"nonpayable"},{"type":"function","name":"setOnboardingPeriod","inputs":[{"name":"_period","type":"uint256","internalType":"uint256"}],"outputs":[],"stateMutability":"nonpayable"},{"type":"function","name":"setOnboardingSettings","inputs":[{"name":"_gasAllowance","type":"uint256","internalType":"uint256"},{"name":"_period","type":"uint256","internalType":"uint256"},{"name":"_enabled","type":"bool","internalType":"bool"}],"outputs":[],"stateMutability":"nonpayable"},{"type":"function","name":"setTrustScoreBasedGasSubsidy","inputs":[{"name":"enabled","type":"bool","internalType":"bool"}],"outputs":[],"stateMutability":"nonpayable"},{"type":"function","name":"setTrustScoreThreshold","inputs":[{"name":"newThreshold","type":"uint256","internalType":"uint256"}],"outputs":[],"stateMutability":"nonpayable"},{"type":"function","name":"supportsInterface","inputs":[{"name":"interfaceId","type":"bytes4","internalType":"bytes4"}],"outputs":[{"name":"","type":"bool","internalType":"bool"}],"stateMutability":"view"},{"type":"function","name":"trustScore","inputs":[],"outputs":[{"name":"","type":"address","internalType":"contract ITrustScore"}],"stateMutability":"view"},{"type":"function","name":"trustScoreBasedGasSubsidy","inputs":[],"outputs":[{"name":"","type":"bool","internalType":"bool"}],"stateMutability":"view"},{"type":"function","name":"userFirstInteraction","inputs":[{"name":"","type":"address","internalType":"address"}],"outputs":[{"name":"","type":"uint256","internalType":"uint256"}],"stateMutability":"view"},{"type":"function","name":"userGasSubsidyUsed","inputs":[{"name":"","type":"address","internalType":"address"}],"outputs":[{"name":"","type":"uint256","internalType":"uint256"}],"stateMutability":"view"},{"type":"function","name":"verificationLogger","inputs":[],"outputs":[{"name":"","type":"address","internalType":"contract IVerificationLogger"}],"stateMutability":"view"},{"type":"function","name":"whitelistPaymaster","inputs":[{"name":"paymaster","type":"address","internalType":"address"},{"name":"whitelisted","type":"bool","internalType":"bool"}],"outputs":[],"stateMutability":"nonpayable"},{"type":"function","name":"whitelistedPaymasters","inputs":[{"name":"","type":"address","internalType":"address"}],"outputs":[{"name":"","type":"bool","internalType":"bool"}],"stateMutability":"view"},{"type":"event","name":"EduCertUserOpExecuted","inputs":[{"name":"userOpHash","type":"bytes32","indexed":true,"internalType":"bytes32"},{"name":"sender","type":"address","indexed":true,"internalType":"address"},{"name":"subsidized","type":"bool","indexed":false,"internalType":"bool"},{"name":"trustScore","type":"uint256","indexed":false,"internalType":"uint256"},{"name":"gasUsed","type":"uint256","indexed":false,"internalType":"uint256"}],"anonymous":false},{"type":"event","name":"GasLimitUpdated","inputs":[{"name":"oldLimit","type":"uint256","indexed":false,"internalType":"uint256"},{"name":"newLimit","type":"uint256","indexed":false,"internalType":"uint256"}],"anonymous":false},{"type":"event","name":"GasSubsidyApplied","inputs":[{"name":"user","type":"address","indexed":true,"internalType":"address"},{"name":"gasAmount","type":"uint256","indexed":false,"internalType":"uint256"},{"name":"trustScore","type":"uint256","indexed":false,"internalType":"uint256"}],"anonymous":false},{"type":"event","name":"OnboardingSettingsUpdated","inputs":[{"name":"gasAllowance","type":"uint256","indexed":false,"internalType":"uint256"},{"name":"period","type":"uint256","indexed":false,"internalType":"uint256"},{"name":"enabled","type":"bool","indexed":false,"internalType":"bool"}],"anonymous":false},{"type":"event","name":"OnboardingSubsidyApplied","inputs":[{"name":"user","type":"address","indexed":true,"internalType":"address"},{"name":"gasAmount","type":"uint256","indexed":false,"internalType":"uint256"},{"name":"remainingAllowance","type":"uint256","indexed":false,"internalType":"uint256"}],"anonymous":false},{"type":"event","name":"PaymasterWhitelisted","inputs":[{"name":"paymaster","type":"address","indexed":true,"internalType":"address"},{"name":"whitelisted","type":"bool","indexed":false,"internalType":"bool"}],"anonymous":false},{"type":"event","name":"RoleAdminChanged","inputs":[{"name":"role","type":"bytes32","indexed":true,"internalType":"bytes32"},{"name":"previousAdminRole","type":"bytes32","indexed":true,"internalType":"bytes32"},{"name":"newAdminRole","type":"bytes32","indexed":true,"internalType":"bytes32"}],"anonymous":false},{"type":"event","name":"RoleGranted","inputs":[{"name":"role","type":"bytes32","indexed":true,"internalType":"bytes32"},{"name":"account","type":"address","indexed":true,"internalType":"address"},{"name":"sender","type":"address","indexed":true,"internalType":"address"}],"anonymous":false},{"type":"event","name":"RoleRevoked","inputs":[{"name":"role","type":"bytes32","indexed":true,"internalType":"bytes32"},{"name":"account","type":"address","indexed":true,"internalType":"address"},{"name":"sender","type":"address","indexed":true,"internalType":"address"}],"anonymous":false},{"type":"event","name":"TrustScoreThresholdUpdated","inputs":[{"name":"oldThreshold","type":"uint256","indexed":false,"internalType":"uint256"},{"name":"newThreshold","type":"uint256","indexed":false,"internalType":"uint256"}],"anonymous":false},{"type":"error","name":"AccessControlBadConfirmation","inputs":[]},{"type":"error","name":"AccessControlUnauthorizedAccount","inputs":[{"name":"account","type":"address","internalType":"address"},{"name":"neededRole","type":"bytes32","internalType":"bytes32"}]},{"type":"error","name":"ReentrancyGuardReentrantCall","inputs":[]}],"bytecode":{"object":"0x60a060405234610070576100206100146101a1565b949390939291926105b6565b610028610075565b613ac86108aa823960805181818161103401528181612092015281816121730152818161237f0152818161280401528181612ad90152818161305201526137100152613ac890f35b61007b565b60405190565b5f80fd5b601f801991011690565b634e487b7160e01b5f52604160045260245ffd5b906100a79061007f565b810190811060018060401b038211176100bf57604052565b610089565b906100d76100d0610075565b928361009d565b565b5f80fd5b60018060a01b031690565b6100f1906100dd565b90565b6100fd816100e8565b0361010457565b5f80fd5b90505190610115826100f4565b565b90565b61012381610117565b0361012a57565b5f80fd5b9050519061013b8261011a565b565b909160c08284031261019c57610155835f8401610108565b926101638160208501610108565b926101718260408301610108565b92610199610182846060850161012e565b93610190816080860161012e565b9360a00161012e565b90565b6100d9565b6101bf614372803803806101b4816100c4565b92833981019061013d565b909192939495565b90565b90565b6101e16101dc6101e6926101c7565b6101ca565b6100dd565b90565b6101f2906101cd565b90565b60209181520190565b5f7f496e76616c696420456e747279506f696e742061646472657373000000000000910152565b610232601a6020926101f5565b61023b816101fe565b0190565b6102549060208101905f818303910152610225565b90565b1561025e57565b610266610075565b62461bcd60e51b81528061027c6004820161023f565b0390fd5b5f7f496e76616c696420766572696669636174696f6e206c6f676765720000000000910152565b6102b4601b6020926101f5565b6102bd81610280565b0190565b6102d69060208101905f8183039101526102a7565b90565b156102e057565b6102e8610075565b62461bcd60e51b8152806102fe600482016102c1565b0390fd5b5f7f496e76616c69642074727573742073636f726500000000000000000000000000910152565b61033660136020926101f5565b61033f81610302565b0190565b6103589060208101905f818303910152610329565b90565b1561036257565b61036a610075565b62461bcd60e51b81528061038060048201610343565b0390fd5b61039861039361039d926100dd565b6101ca565b6100dd565b90565b6103a990610384565b90565b6103b5906103a0565b90565b90565b5f1b90565b6103d46103cf6103d9926101c7565b6103bb565b6103b8565b90565b6103e55f6103c0565b90565b7f97667070c54ef182b0f5858b034beac1b6f3089aa2d3188bb1e8929f4fa9b92990565b7f1824ff63dea2c4dd2c17a4d3777b1a4ade42c51cb823941f0b8218d984f033d690565b61043990610384565b90565b61044590610430565b90565b9061045960018060a01b03916103bb565b9181191691161790565b61046c90610430565b90565b90565b9061048761048261048e92610463565b61046f565b8254610448565b9055565b61049b90610384565b90565b6104a790610492565b90565b6104b390610492565b90565b90565b906104ce6104c96104d5926104aa565b6104b6565b8254610448565b9055565b906104e55f19916103bb565b9181191691161790565b6105036104fe61050892610117565b6101ca565b610117565b90565b90565b9061052361051e61052a926104ef565b61050b565b82546104d9565b9055565b9061053a60ff916103bb565b9181191691161790565b151590565b61055290610544565b90565b90565b9061056d61056861057492610549565b610555565b825461052e565b9055565b90565b61058f61058a61059492610578565b6101ca565b610117565b90565b90565b6105ae6105a96105b392610597565b6101ca565b610117565b90565b926106a461069d6106b99796946106986106916106ab966106506106b29a6105dc61072b565b610601816105fa6105f46105ef5f6101e9565b6100e8565b916100e8565b1415610257565b6106268361061f6106196106145f6101e9565b6100e8565b916100e8565b14156102d9565b61064b8661064461063e6106395f6101e9565b6100e8565b916100e8565b141561035b565b6103ac565b60805261066561065e6103dc565b3390610798565b506106786106716103e8565b3390610798565b5061068b61068461040c565b3390610798565b5061043c565b6002610472565b61049e565b60036104b9565b600461050e565b600561050e565b600661050e565b6106c560016007610558565b6106db6106d4621e848061057b565b600861050e565b6106f16106ea62093a8061059a565b600961050e565b6106fd6001600a610558565b565b90565b61071661071161071b926106ff565b6101ca565b610117565b90565b6107286001610702565b90565b61073d61073661071e565b600161050e565b565b5f90565b61074c906103b8565b90565b9061075990610743565b5f5260205260405f2090565b61076e90610384565b90565b61077a90610765565b90565b9061078790610771565b5f5260205260405f2090565b5f0190565b6107a061073f565b506107b56107af82849061086f565b15610544565b5f1461083d576107dc60016107d75f6107cf81869061074f565b01859061077d565b610558565b906107e561089c565b9061082261081c6108167f2f8788117e7eff1d82e926ec794901d17c78024a50270940304540a733656f0d95610743565b92610771565b92610771565b9261082b610075565b8061083581610793565b0390a4600190565b50505f90565b5f1c90565b60ff1690565b61085a61085f91610843565b610848565b90565b61086c905461084e565b90565b610895915f61088a6108909361088361073f565b508261074f565b0161077d565b610862565b90565b5f90565b6108a4610898565b50339056fe60806040526004361015610015575b366113f057005b61001f5f356102ce565b806301ffc9a7146102c95780630dcc46af146102c457806315e0edc2146102bf57806316580ea5146102ba57806319176017146102b55780631d58623f146102b05780631fad948c146102ab578063248a9ca3146102a6578063298141f9146102a15780632d8c6e661461029c5780632f2ff15d146102975780633078d9981461029257806333b9baa51461028d57806335567e1a1461028857806336568abe1461028357806341f0d58f1461027e5780634a9cb522146102795780634f698e1214610274578063506bcda71461026f5780636240a3bc1461026a578063645c752c146102655780636a2927d3146102605780636ff1c9bc1461025b57806370a082311461025657806372b7664d1461025157806379d1557d1461024c57806391d1485414610247578063a217fddf14610242578063a61935311461023d578063ad114af514610238578063af715af614610233578063b0d691fe1461022e578063b760faf914610229578063c4184f2e14610224578063c89f7af21461021f578063d1d1375e1461021a578063d391374114610215578063d547741f14610210578063d9a58a3d1461020b578063e01c326614610206578063e1300c8814610201578063f3d937ca146101fc5763f5b541a60361000e576113bb565b611357565b611313565b611270565b61122e565b6111fa565b6111c7565b611192565b611130565b6110fb565b6110b9565b611084565b610ffd565b610fb8565b610f0a565b610e88565b610e17565b610de2565b610d96565b610d43565b610d10565b610cbd565b610c6f565b610c0d565b610bd9565b610b77565b610b35565b610b01565b610a70565b610a3a565b6109aa565b61095c565b6108ba565b610858565b610816565b6107a0565b610706565b6106d1565b610662565b610569565b6104ca565b6103ff565b61035a565b60e01c90565b60405190565b5f80fd5b5f80fd5b5f80fd5b63ffffffff60e01b1690565b6102fb816102e6565b0361030257565b5f80fd5b90503590610313826102f2565b565b9060208282031261032e5761032b915f01610306565b90565b6102de565b151590565b61034190610333565b9052565b9190610358905f60208501940190610338565b565b3461038a57610386610375610370366004610315565b6113f8565b61037d6102d4565b91829182610345565b0390f35b6102da565b5f91031261039957565b6102de565b1c90565b90565b6103b59060086103ba930261039e565b6103a2565b90565b906103c891546103a5565b90565b6103d760055f906103bd565b90565b90565b6103e6906103da565b9052565b91906103fd905f602085019401906103dd565b565b3461042f5761040f36600461038f565b61042b61041a6103cb565b6104226102d4565b918291826103ea565b0390f35b6102da565b60018060a01b031690565b61044890610434565b90565b6104548161043f565b0361045b57565b5f80fd5b9050359061046c8261044b565b565b9060208282031261048757610484915f0161045f565b90565b6102de565b6104c16104c8946104b76060949897956104ad608086019a5f870190610338565b60208501906103dd565b60408301906103dd565b01906103dd565b565b346104fe576104fa6104e56104e036600461046e565b6114b7565b906104f19492946102d4565b9485948561048c565b0390f35b6102da565b90565b61051a61051561051f92610434565b610503565b610434565b90565b61052b90610506565b90565b61053790610522565b90565b906105449061052e565b5f5260205260405f2090565b61056690610561600f915f9261053a565b6103bd565b90565b346105995761059561058461057f36600461046e565b610550565b61058c6102d4565b918291826103ea565b0390f35b6102da565b5f80fd5b5f80fd5b5f80fd5b909182601f830112156105e45781359167ffffffffffffffff83116105df5760200192602083028401116105da57565b6105a6565b6105a2565b61059e565b6105f290610434565b90565b6105fe816105e9565b0361060557565b5f80fd5b90503590610616826105f5565b565b91604083830312610658575f83013567ffffffffffffffff811161065357610645836106509286016105aa565b939094602001610609565b90565b6102e2565b6102de565b5f0190565b346106915761067b610675366004610618565b91612143565b6106836102d4565b8061068d8161065d565b0390f35b6102da565b60ff1690565b6106ac9060086106b1930261039e565b610696565b90565b906106bf915461069c565b90565b6106ce600a5f906106b4565b90565b34610701576106e136600461038f565b6106fd6106ec6106c2565b6106f46102d4565b91829182610345565b0390f35b6102da565b346107355761071f610719366004610618565b91612218565b6107276102d4565b806107318161065d565b0390f35b6102da565b90565b6107468161073a565b0361074d57565b5f80fd5b9050359061075e8261073d565b565b9060208282031261077957610776915f01610751565b90565b6102de565b6107879061073a565b9052565b919061079e905f6020850194019061077e565b565b346107d0576107cc6107bb6107b6366004610760565b61226f565b6107c36102d4565b9182918261078b565b0390f35b6102da565b6107de816103da565b036107e557565b5f80fd5b905035906107f6826107d5565b565b906020828203126108115761080e915f016107e9565b90565b6102de565b346108445761082e6108293660046107f8565b6122fc565b6108366102d4565b806108408161065d565b0390f35b6102da565b61085560045f906103bd565b90565b346108885761086836600461038f565b610884610873610849565b61087b6102d4565b918291826103ea565b0390f35b6102da565b91906040838203126108b557806108a96108b2925f8601610751565b9360200161045f565b90565b6102de565b346108e9576108d36108cd36600461088d565b90612331565b6108db6102d4565b806108e58161065d565b0390f35b6102da565b60018060a01b031690565b61090990600861090e930261039e565b6108ee565b90565b9061091c91546108f9565b90565b61092b60035f90610911565b90565b61093790610522565b90565b6109439061092e565b9052565b919061095a905f6020850194019061093a565b565b3461098c5761096c36600461038f565b61098861097761091f565b61097f6102d4565b91829182610947565b0390f35b6102da565b6109a7906109a2600c915f9261053a565b6103bd565b90565b346109da576109d66109c56109c036600461046e565b610991565b6109cd6102d4565b918291826103ea565b0390f35b6102da565b60018060c01b031690565b6109f3816109df565b036109fa57565b5f80fd5b90503590610a0b826109ea565b565b9190604083820312610a355780610a29610a32925f860161045f565b936020016109fe565b90565b6102de565b34610a6b57610a67610a56610a50366004610a0d565b9061236d565b610a5e6102d4565b918291826103ea565b0390f35b6102da565b34610a9f57610a89610a8336600461088d565b90612419565b610a916102d4565b80610a9b8161065d565b0390f35b6102da565b610aad81610333565b03610ab457565b5f80fd5b90503590610ac582610aa4565b565b9091606082840312610afc57610af9610ae2845f85016107e9565b93610af081602086016107e9565b93604001610ab8565b90565b6102de565b34610b3057610b1a610b14366004610ac7565b91612557565b610b226102d4565b80610b2c8161065d565b0390f35b6102da565b34610b6357610b4d610b483660046107f8565b6125db565b610b556102d4565b80610b5f8161065d565b0390f35b6102da565b610b7460065f906103bd565b90565b34610ba757610b8736600461038f565b610ba3610b92610b68565b610b9a6102d4565b918291826103ea565b0390f35b6102da565b9190604083820312610bd45780610bc8610bd1925f860161045f565b93602001610ab8565b90565b6102de565b34610c0857610bf2610bec366004610bac565b9061265b565b610bfa6102d4565b80610c048161065d565b0390f35b6102da565b34610c3b57610c25610c203660046107f8565b6126d3565b610c2d6102d4565b80610c378161065d565b0390f35b6102da565b7f1824ff63dea2c4dd2c17a4d3777b1a4ade42c51cb823941f0b8218d984f033d690565b610c6c610c40565b90565b34610c9f57610c7f36600461038f565b610c9b610c8a610c64565b610c926102d4565b9182918261078b565b0390f35b6102da565b610cba90610cb5600b915f9261053a565b6103bd565b90565b34610ced57610ce9610cd8610cd336600461046e565b610ca4565b610ce06102d4565b918291826103ea565b0390f35b6102da565b90602082820312610d0b57610d08915f01610609565b90565b6102de565b34610d3e57610d28610d23366004610cf2565b6127e5565b610d306102d4565b80610d3a8161065d565b0390f35b6102da565b34610d7357610d6f610d5e610d5936600461046e565b6127f0565b610d666102d4565b918291826103ea565b0390f35b6102da565b90602082820312610d9157610d8e915f01610ab8565b90565b6102de565b34610dc457610dae610da9366004610d78565b612910565b610db66102d4565b80610dc08161065d565b0390f35b6102da565b610ddf90610dda6010915f9261053a565b6103bd565b90565b34610e1257610e0e610dfd610df836600461046e565b610dc9565b610e056102d4565b918291826103ea565b0390f35b6102da565b34610e4857610e44610e33610e2d36600461088d565b9061291b565b610e3b6102d4565b91829182610345565b0390f35b6102da565b90565b5f1b90565b610e69610e64610e6e92610e4d565b610e50565b61073a565b90565b610e7a5f610e55565b90565b610e85610e71565b90565b34610eb857610e9836600461038f565b610eb4610ea3610e7d565b610eab6102d4565b9182918261078b565b0390f35b6102da565b5f80fd5b9081610160910312610ed05790565b610ebd565b90602082820312610f05575f82013567ffffffffffffffff8111610f0057610efd9201610ec1565b90565b6102e2565b6102de565b34610f3a57610f36610f25610f20366004610ed5565b612ac5565b610f2d6102d4565b9182918261078b565b0390f35b6102da565b5190565b60209181520190565b90825f9392825e0152565b601f801991011690565b610f80610f89602093610f8e93610f7781610f3f565b93848093610f43565b95869101610f4c565b610f57565b0190565b91610fb592610fa860408201935f830190610338565b6020818403910152610f61565b90565b34610fe957610fd0610fcb36600461046e565b612e4a565b90610fe5610fdc6102d4565b92839283610f92565b0390f35b6102da565b610ffa60085f906103bd565b90565b3461102d5761100d36600461038f565b611029611018610fee565b6110206102d4565b918291826103ea565b0390f35b6102da565b7f000000000000000000000000000000000000000000000000000000000000000090565b61105f90610522565b90565b61106b90611056565b9052565b9190611082905f60208501940190611062565b565b346110b45761109436600461038f565b6110b061109f611032565b6110a76102d4565b9182918261106f565b0390f35b6102da565b6110cc6110c736600461046e565b61304d565b6110d46102d4565b806110de8161065d565b0390f35b6110f8906110f3600e915f9261053a565b6103bd565b90565b3461112b5761112761111661111136600461046e565b6110e2565b61111e6102d4565b918291826103ea565b0390f35b6102da565b3461115e576111486111433660046107f8565b613165565b6111506102d4565b8061115a8161065d565b0390f35b6102da565b9061116d9061052e565b5f5260205260405f2090565b61118f9061118a600d915f92611163565b6106b4565b90565b346111c2576111be6111ad6111a836600461046e565b611179565b6111b56102d4565b91829182610345565b0390f35b6102da565b346111f5576111df6111da3660046107f8565b6131e6565b6111e76102d4565b806111f18161065d565b0390f35b6102da565b346112295761121361120d36600461088d565b9061321b565b61121b6102d4565b806112258161065d565b0390f35b6102da565b3461125c57611246611241366004610d78565b61324f565b61124e6102d4565b806112588161065d565b0390f35b6102da565b61126d60075f906106b4565b90565b346112a05761128036600461038f565b61129c61128b611261565b6112936102d4565b91829182610345565b0390f35b6102da565b60018060a01b031690565b6112c09060086112c5930261039e565b6112a5565b90565b906112d391546112b0565b90565b6112e260025f906112c8565b90565b6112ee90610522565b90565b6112fa906112e5565b9052565b9190611311905f602085019401906112f1565b565b346113435761132336600461038f565b61133f61132e6112d6565b6113366102d4565b918291826112fe565b0390f35b6102da565b61135460095f906103bd565b90565b346113875761136736600461038f565b611383611372611348565b61137a6102d4565b918291826103ea565b0390f35b6102da565b7f97667070c54ef182b0f5858b034beac1b6f3089aa2d3188bb1e8929f4fa9b92990565b6113b861138c565b90565b346113eb576113cb36600461038f565b6113e76113d66113b0565b6113de6102d4565b9182918261078b565b0390f35b6102da565b5f80fd5b5f90565b6114006113f4565b508061141b611415637965db0b60e01b6102e6565b916102e6565b14908115611428575b5090565b611432915061325a565b5f611424565b5f90565b5f1c90565b61144d6114529161143c565b6103a2565b90565b61145f9054611441565b90565b634e487b7160e01b5f52601160045260245ffd5b61148561148b919392936103da565b926103da565b820391821161149657565b611462565b6114af6114aa6114b492610e4d565b610503565b6103da565b90565b906114c06113f4565b506114c9611438565b506114d2611438565b506114db611438565b506114e582613280565b916114fa6114f56010839061053a565b611455565b918261151761151161150c6008611455565b6103da565b916103da565b10155f1461161b576115285f61149b565b5b9161153e611539600f839061053a565b611455565b61155061154a5f61149b565b916103da565b148015611614575b5f146116045761157261156d600f839061053a565b611455565b61158461157e5f61149b565b916103da565b145f146115e157506115955f61149b565b5b806115b26115ac6115a76009611455565b6103da565b916103da565b10155f146115c957506115c45f61149b565b5b905b565b6115dc906115d76009611455565b611476565b6115c5565b6115ff906115f96115f44292600f61053a565b611455565b90611476565b611596565b5061160e5f61149b565b906115c7565b5084611558565b61162f6116286008611455565b8490611476565b611529565b9061164f929161164a61164561138c565b6132f8565b611651565b565b90611664929161165f613338565b611c76565b61166c6133bc565b565b5090565b600161167e91016103da565b90565b634e487b7160e01b5f52603260045260245ffd5b5f80fd5b903590600161016003813603038212156116b1570190565b611695565b908210156116d05760206116cd9202810190611699565b90565b611681565b356116df8161044b565b90565b6116ee6116f39161143c565b6108ee565b90565b61170090546116e2565b90565b5f80fd5b634e487b7160e01b5f52604160045260245ffd5b9061172590610f57565b810190811067ffffffffffffffff82111761173f57604052565b611707565b60e01b90565b90505190611757826107d5565b565b906020828203126117725761176f915f0161174a565b90565b6102de565b6117809061043f565b9052565b9190611797905f60208501940190611777565b565b6117a16102d4565b3d5f823e3d90fd5b356117b3816107d5565b90565b6117c56117cb919392936103da565b926103da565b82018092116117d657565b611462565b906117e75f1991610e50565b9181191691161790565b61180561180061180a926103da565b610503565b6103da565b90565b90565b9061182561182061182c926117f1565b61180d565b82546117db565b9055565b61183c6118419161143c565b610696565b90565b61184e9054611830565b90565b91602061187292949361186b60408201965f8301906103dd565b01906103dd565b565b6118806118859161143c565b6112a5565b90565b6118929054611874565b90565b60601b90565b6118a490611895565b90565b6118b09061189b565b90565b6118bf6118c49161043f565b6118a7565b9052565b90565b6118d76118dc916103da565b6118c8565b9052565b602093926119006014836118f88895611908976118b3565b0180926118cb565b0180926118cb565b0190565b60200190565b5190565b5f91031261192057565b6102de565b5f7f555345525f4f505f50524f434553534544000000000000000000000000000000910152565b6119596011602092610f43565b61196281611925565b0190565b916040611997929493611990611985606083018381035f85015261194c565b966020830190611777565b019061077e565b565b60209181520190565b90565b506119b490602081019061045f565b90565b6119c09061043f565b9052565b506119d39060208101906107e9565b90565b6119df906103da565b9052565b5f80fd5b5f80fd5b5f80fd5b9035600160200382360303811215611a3057016020813591019167ffffffffffffffff8211611a2b576001820236038313611a2657565b6119e7565b6119e3565b6119eb565b60209181520190565b90825f939282370152565b9190611a6381611a5c81611a6895611a35565b8095611a3e565b610f57565b0190565b611ba591611b96611b8a611ae9611ace6101608501611a99611a905f8901896119a5565b5f8801906119b7565b611ab3611aa960208901896119c4565b60208801906119d6565b611ac060408801886119ef565b908783036040890152611a49565b611adb60608701876119ef565b908683036060880152611a49565b611b03611af960808701876119c4565b60808601906119d6565b611b1d611b1360a08701876119c4565b60a08601906119d6565b611b37611b2d60c08701876119c4565b60c08601906119d6565b611b51611b4760e08701876119c4565b60e08601906119d6565b611b6d611b626101008701876119c4565b6101008601906119d6565b611b7b6101208601866119ef565b90858303610120870152611a49565b926101408101906119ef565b91610140818503910152611a49565b90565b90611bb291611a6c565b90565b903560016101600382360303811215611bcc570190565b6119eb565b60200190565b9181611be291611999565b9081611bf3602083028401946119a2565b92835f925b848410611c085750505050505090565b9091929394956020611c33611c2d8385600195038852611c288b88611bb5565b611ba8565b98611bd1565b940194019294939190611bf8565b611c4a906105e9565b9052565b939290611c6c602091611c749460408801918883035f8a0152611bd7565b940190611c41565b565b92611c8284839061166e565b92611c8c5f61149b565b5b80611ca0611c9a876103da565b916103da565b101561208957611cbc5f611cb6888785916116b6565b016116d5565b90611cfe6020611cd4611ccf60036116f6565b61092e565b635e09eea190611cf38692611ce76102d4565b95869485938493611744565b835260048301611784565b03915afa908115612084575f91612056575b5091611d1b816133d0565b611d328184611d2c8b8a87916116b6565b9161344f565b611e44575b611d49611d446002611888565b6112e5565b92635260590a9190611dac8a611d9d611d886020611d828d611d795f611d738d89908590916116b6565b016116d5565b95908b916116b6565b016117a9565b93611d916102d4565b948593602085016118e0565b6020820181038252038261171b565b611dbe611db882611912565b9161190c565b2093803b15611e3f57611de45f8094611def611dd86102d4565b98899687958694611744565b845260048401611966565b03925af1918215611e3a57611e0992611e0e575b50611672565b611c8d565b611e2d905f3d8111611e33575b611e25818361171b565b810190611916565b5f611e03565b503d611e1b565b611799565b611703565b611e9b611e7e611e616080611e5b8c8b88916116b6565b016117a9565b611e7860a0611e728d8c89916116b6565b016117a9565b906117b6565b611e9560c0611e8f8c8b88916116b6565b016117a9565b906117b6565b611eaf611eaa600f849061053a565b611455565b611ec1611ebb5f61149b565b916103da565b1461203c575b611ed082613280565b8061202c575b80611feb575b5f14611f7a57611f0a81611f04611ef56010869061053a565b91611eff83611455565b6117b6565b90611810565b81611f32611f186008611455565b611f2c611f276010879061053a565b611455565b90611476565b611f5c7fa3ae1a44c98d9af9970fec4702e777f6422b5c705050458cf7f1105de6eb9a839261052e565b92611f71611f686102d4565b92839283611851565b0390a25b611d37565b611fa281611f9c611f8d600b869061053a565b91611f9783611455565b6117b6565b90611810565b8184611fce7f7b7e51ec9cc3f7938346878480f7d36122606ed015285ec47901cdf9f2d76aac9261052e565b92611fe3611fda6102d4565b92839283611851565b0390a2611f75565b5061200a612003611ffe6010859061053a565b611455565b82906117b6565b61202561201f61201a6008611455565b6103da565b916103da565b1115611edc565b50612037600a611844565b611ed6565b6120514261204c600f859061053a565b611810565b611ec7565b612077915060203d811161207d575b61206f818361171b565b810190611759565b5f611d10565b503d612065565b611799565b509250926120b67f0000000000000000000000000000000000000000000000000000000000000000611056565b631fad948c908290849592813b1561213e575f6120e6916120f182966120da6102d4565b9a8b9788968795611744565b855260048501611c4e565b03925af19283156121395761210b9361210d575b506135dd565b565b61212c905f3d8111612132575b612124818361171b565b810190611916565b5f612105565b503d61211a565b611799565b611703565b9061214e9291611634565b565b9061216b929161216661216161138c565b6132f8565b61216d565b565b906121977f0000000000000000000000000000000000000000000000000000000000000000611056565b631fad948c92919392813b15612213575f6121c5916121d082966121b96102d4565b98899788968795611744565b855260048501611c4e565b03925af1801561220e576121e2575b50565b612201905f3d8111612207575b6121f9818361171b565b810190611916565b5f6121df565b503d6121ef565b611799565b611703565b906122239291612150565b565b5f90565b6122329061073a565b90565b9061223f90612229565b5f5260205260405f2090565b90565b61225a61225f9161143c565b61224b565b90565b61226c905461224e565b90565b600161228761228d92612280612225565b505f612235565b01612262565b90565b6122a9906122a461229f610e71565b6132f8565b6122ab565b565b6122b56006611455565b6122c0826006611810565b907fccba8ee022ceb982c6ae406cb531d13a08c23aec7eec7406c1f34693bb650bf6916122f76122ee6102d4565b92839283611851565b0390a1565b61230590612290565b565b906123229161231d6123188261226f565b6132f8565b612324565b565b9061232e916138d7565b50565b9061233b91612307565b565b612346906109df565b9052565b91602061236b92949361236460408201965f830190611777565b019061233d565b565b90602090612379611438565b506123a37f0000000000000000000000000000000000000000000000000000000000000000611056565b6123c56335567e1a9492946123d06123b96102d4565b96879586948594611744565b84526004840161234a565b03915afa908115612414575f916123e6575b5090565b612407915060203d811161240d575b6123ff818361171b565b810190611759565b5f6123e2565b503d6123f5565b611799565b908061243461242e612429613986565b61043f565b9161043f565b036124455761244291613993565b50565b5f63334bd91960e11b81528061245d6004820161065d565b0390fd5b9061247c9291612477612472610e71565b6132f8565b6124f5565b565b9061248a60ff91610e50565b9181191691161790565b61249d90610333565b90565b90565b906124b86124b36124bf92612494565b6124a0565b825461247e565b9055565b6040906124ec6124f394969593966124e260608401985f8501906103dd565b60208301906103dd565b0190610338565b565b919091612503816008611810565b61250e836009611810565b61251982600a6124a3565b9190916125527fb6e5c467341b36218db17a3f02d1315c6babacb86489cd2c932ac6e2d4e72b2e936125496102d4565b938493846124c3565b0390a1565b906125629291612461565b565b61257d90612578612573610e71565b6132f8565b61257f565b565b61258a816009611810565b6125946008611455565b9061259f600a611844565b916125d67fb6e5c467341b36218db17a3f02d1315c6babacb86489cd2c932ac6e2d4e72b2e936125cd6102d4565b938493846124c3565b0390a1565b6125e490612564565b565b90612600916125fb6125f6610c40565b6132f8565b612602565b565b61261782612612600d8490611163565b6124a3565b6126566126447fe546e6836b556a34c6f07080e3474a268f8ad1a684be330c175e40676c075e2d9261052e565b9261264d6102d4565b91829182610345565b0390a2565b90612665916125e6565b565b6126809061267b612676610e71565b6132f8565b612682565b565b61268c6004611455565b612697826004611810565b907f08be0d77dded07e674255f2ff3aba774eb516bb9cd35c45a48ebdb885ae485a7916126ce6126c56102d4565b92839283611851565b0390a1565b6126dc90612667565b565b6126f7906126f26126ed610e71565b6132f8565b612793565b565b61270290610522565b90565b5f7f4e6f2062616c616e636520746f20776974686472617700000000000000000000910152565b6127396016602092610f43565b61274281612705565b0190565b61275b9060208101905f81830391015261272c565b90565b1561276557565b61276d6102d4565b62461bcd60e51b81528061278360048201612746565b0390fd5b61279090610522565b90565b5f808080936127c76127a4306126f9565b31916127c2836127bc6127b68761149b565b916103da565b1161275e565b612787565b8282156127dc575bf1156127d757565b611799565b506108fc6127cf565b6127ee906126de565b565b602061284f916127fe611438565b506128287f0000000000000000000000000000000000000000000000000000000000000000611056565b6128446370a082316128386102d4565b95869485938493611744565b835260048301611784565b03915afa908115612893575f91612865575b5090565b612886915060203d811161288c575b61287e818361171b565b810190611759565b5f612861565b503d612874565b611799565b6128b1906128ac6128a7610e71565b6132f8565b6128b3565b565b6128be81600a6124a3565b6128c86008611455565b906128d36009611455565b909161290b7fb6e5c467341b36218db17a3f02d1315c6babacb86489cd2c932ac6e2d4e72b2e936129026102d4565b938493846124c3565b0390a1565b61291990612898565b565b612941915f61293661293c9361292f6113f4565b5082612235565b01611163565b611844565b90565b905051906129518261073d565b565b9060208282031261296c57612969915f01612944565b90565b6102de565b612aaa91612a9b612a8f6129ee6129d3610160850161299e6129955f8901896119a5565b5f8801906119b7565b6129b86129ae60208901896119c4565b60208801906119d6565b6129c560408801886119ef565b908783036040890152611a49565b6129e060608701876119ef565b908683036060880152611a49565b612a086129fe60808701876119c4565b60808601906119d6565b612a22612a1860a08701876119c4565b60a08601906119d6565b612a3c612a3260c08701876119c4565b60c08601906119d6565b612a56612a4c60e08701876119c4565b60e08601906119d6565b612a72612a676101008701876119c4565b6101008601906119d6565b612a806101208601866119ef565b90858303610120870152611a49565b926101408101906119ef565b91610140818503910152611a49565b90565b612ac29160208201915f818403910152612971565b90565b6020612b2491612ad3612225565b50612afd7f0000000000000000000000000000000000000000000000000000000000000000611056565b612b1963a6193531612b0d6102d4565b95869485938493611744565b835260048301612aad565b03915afa908115612b68575f91612b3a575b5090565b612b5b915060203d8111612b61575b612b53818361171b565b810190612953565b5f612b36565b503d612b49565b611799565b606090565b90612b85612b7e6102d4565b928361171b565b565b67ffffffffffffffff8111612ba557612ba1602091610f57565b0190565b611707565b90612bbc612bb783612b87565b612b72565b918252565b60207f6564000000000000000000000000000000000000000000000000000000000000917f4f6e626f617264696e672067617320616c6c6f77616e636520657868617573745f8201520152565b612c186022612baa565b90612c2560208301612bc1565b565b612c2f612c0e565b90565b60207f6964790000000000000000000000000000000000000000000000000000000000917f456c696769626c6520666f72206f6e626f617264696e672067617320737562735f8201520152565b612c896023612baa565b90612c9660208301612c32565b565b612ca0612c7f565b90565b5f7f47617320737562736964792064697361626c6564000000000000000000000000910152565b612cd46014612baa565b90612ce160208301612ca3565b565b612ceb612cca565b90565b5f7f54727573742073636f726520746f6f206c6f7700000000000000000000000000910152565b612d1f6013612baa565b90612d2c60208301612cee565b565b612d36612d15565b90565b90565b612d50612d4b612d5592612d39565b610503565b6103da565b90565b634e487b7160e01b5f52601260045260245ffd5b612d78612d7e916103da565b916103da565b908115612d89570490565b612d58565b5f7f4461696c7920676173206c696d69742065786365656465640000000000000000910152565b612dbf6018612baa565b90612dcc60208301612d8e565b565b612dd6612db5565b90565b60207f6173207375627369647900000000000000000000000000000000000000000000917f456c696769626c6520666f722074727573742073636f726520626173656420675f8201520152565b612e30602a612baa565b90612e3d60208301612dd9565b565b612e47612e26565b90565b612e526113f4565b50612e5b612b6d565b50612e9d6020612e73612e6e60036116f6565b61092e565b635e09eea190612e928592612e866102d4565b95869485938493611744565b835260048301611784565b03915afa908115613048575f9161301a575b50612eb982613280565b8061300a575b612fb957612ed6612ed06007611844565b15610333565b612faa57612ef5612eef612eea6004611455565b6103da565b916103da565b10612f9c57612f1042612f0a62015180612d3c565b90612d6c565b612f36612f30612f2a612f25600c869061053a565b611455565b926103da565b916103da565b105f14612f845750612f475f61149b565b5b612f63612f5d612f586006611455565b6103da565b916103da565b1015612f7757600190612f74612e3f565b90565b5f90612f81612dce565b90565b612f92612f9791600b61053a565b611455565b612f48565b505f90612fa7612d2e565b90565b50505f90612fb6612ce3565b90565b50612fc8612fcd91601061053a565b611455565b612fe8612fe2612fdd6008611455565b6103da565b916103da565b105f14612ffd57600190612ffa612c98565b90565b5f90613007612c27565b90565b50613015600a611844565b612ebf565b61303b915060203d8111613041575b613033818361171b565b810190611759565b5f612eaf565b503d613029565b611799565b6130767f0000000000000000000000000000000000000000000000000000000000000000611056565b9063b760faf9349290929190803b156130f4576130a65f936130b19561309a6102d4565b96879586948593611744565b835260048301611784565b03925af180156130ef576130c3575b50565b6130e2905f3d81116130e8575b6130da818361171b565b810190611916565b5f6130c0565b503d6130d0565b611799565b611703565b6131129061310d613108610e71565b6132f8565b613114565b565b61311e6005611455565b613129826005611810565b907fccba8ee022ceb982c6ae406cb531d13a08c23aec7eec7406c1f34693bb650bf6916131606131576102d4565b92839283611851565b0390a1565b61316e906130f9565b565b6131899061318461317f610e71565b6132f8565b61318b565b565b613196816008611810565b6131a06009611455565b6131aa600a611844565b916131e17fb6e5c467341b36218db17a3f02d1315c6babacb86489cd2c932ac6e2d4e72b2e936131d86102d4565b938493846124c3565b0390a1565b6131ef90613170565b565b9061320c916132076132028261226f565b6132f8565b61320e565b565b9061321891613993565b50565b90613225916131f1565b565b6132409061323b613236610e71565b6132f8565b613242565b565b61324d9060076124a3565b565b61325890613227565b565b6132626113f4565b5061327c6132766301ffc9a760e01b6102e6565b916102e6565b1490565b6132886113f4565b5061329d613298600f839061053a565b611455565b6132af6132a95f61149b565b916103da565b146132f2576132d2906132cc6132c74292600f61053a565b611455565b90611476565b6132ed6132e76132e26009611455565b6103da565b916103da565b111590565b50600190565b61330a90613304613986565b90613a57565b565b90565b61332361331e6133289261330c565b610503565b6103da565b90565b613335600261330f565b90565b6133426001611455565b61335b61335561335061332b565b6103da565b916103da565b146133745761337261336b61332b565b6001611810565b565b5f633ee5aeb560e01b81528061338c6004820161065d565b0390fd5b90565b6133a76133a26133ac92613390565b610503565b6103da565b90565b6133b96001613393565b90565b6133ce6133c76133af565b6001611810565b565b6133e6426133e062015180612d3c565b90612d6c565b906133fb6133f6600c839061053a565b611455565b61340d613407846103da565b916103da565b10613417575b5050565b6134436134489261343b61342a5f61149b565b613436600b869061053a565b611810565b91600c61053a565b611810565b5f80613413565b916134909061345c6113f4565b5061348a60c0613483613471608085016117a9565b61347d60a086016117a9565b906117b6565b92016117a9565b906117b6565b90816134ad6134a76134a26005611455565b6103da565b916103da565b116135a4576134bb83613280565b80613594575b61354e575b6134d96134d36007611844565b15610333565b613547576134f86134f26134ed6004611455565b6103da565b916103da565b106135415761351361350e61351893600b61053a565b611455565b6117b6565b61353361352d6135286006611455565b6103da565b916103da565b1161353d57600190565b5f90565b50505f90565b5050505f90565b61356c6135656135606010869061053a565b611455565b83906117b6565b61358761358161357c6008611455565b6103da565b916103da565b116134c657505050600190565b5061359f600a611844565b6134c1565b5050505f90565b6040906135d46135db94969593966135ca60608401985f850190610338565b60208301906103dd565b01906103dd565b565b9190916135e95f61149b565b5b806136076136016135fc85889061166e565b6103da565b916103da565b10156138d1576136235f61361d848785916116b6565b016116d5565b90613665602061363b61363660036116f6565b61092e565b635e09eea19061365a869261364e6102d4565b95869485938493611744565b835260048301611784565b03915afa9081156138cc575f9161389e575b508061369461368e6136896004611455565b6103da565b916103da565b10156136ab575b506136a69150611672565b6135ea565b6136bd6136b860036116f6565b61092e565b926352ce43fc81853b15613899576136f4956136e95f80946136dd6102d4565b998a9586948593611744565b835260048301611784565b03925af19384156138945761376994613868575b5060206137347f0000000000000000000000000000000000000000000000000000000000000000611056565b63a61935319061375e613749898c89916116b6565b926137526102d4565b98899485938493611744565b835260048301612aad565b03915afa908115613863576136a6945f92613833575b5090856137e16137c38a6137bd60a06137b76137ad60806137a78d60019d9a908890916116b6565b016117a9565b938d908c916116b6565b016117a9565b906117b6565b6137db60c06137d58d8c908b916116b6565b016117a9565b906117b6565b9361382a6138186138127f4ef2c4265739c18c96acfd65cda08eac7e851b93dccaab3ee5503f2fa546a7d295612229565b9561052e565b956138216102d4565b938493846135ab565b0390a35f61369b565b61385591925060203d811161385c575b61384d818361171b565b810190612953565b905f61377f565b503d613843565b611799565b613887905f3d811161388d575b61387f818361171b565b810190611916565b5f613708565b503d613875565b611799565b611703565b6138bf915060203d81116138c5575b6138b7818361171b565b810190611759565b5f613677565b503d6138ad565b611799565b50509050565b6138df6113f4565b506138f46138ee82849061291b565b15610333565b5f1461397c5761391b60016139165f61390e818690612235565b018590611163565b6124a3565b90613924613986565b9061396161395b6139557f2f8788117e7eff1d82e926ec794901d17c78024a50270940304540a733656f0d95612229565b9261052e565b9261052e565b9261396a6102d4565b806139748161065d565b0390a4600190565b50505f90565b5f90565b61398e613982565b503390565b61399b6113f4565b506139a781839061291b565b5f14613a2e576139cd5f6139c85f6139c0818690612235565b018590611163565b6124a3565b906139d6613986565b90613a13613a0d613a077ff6391f5c32d9c69d2a47ea670b442974b53935d1edc7fd64eb21e047a839171b95612229565b9261052e565b9261052e565b92613a1c6102d4565b80613a268161065d565b0390a4600190565b50505f90565b916020613a55929493613a4e60408201965f830190611777565b019061077e565b565b90613a6c613a6683839061291b565b15610333565b613a74575050565b613a8e5f92839263e2517d3f60e01b845260048401613a34565b0390fdfea2646970667358221220ac397a24a1683ccebe66c516e673b41610521093f89484b2ba6bbcb44f1a735c64736f6c634300081e0033","linkReferences":{}},"methodIdentifiers":{"DEFAULT_ADMIN_ROLE()":"a217fddf","OPERATOR_ROLE()":"f5b541a6","PAYMASTER_ADMIN_ROLE()":"645c752c","balanceOf(address)":"70a08231","dailyGasLimit()":"4f698e12","dailyGasUsed(address)":"6a2927d3","depositTo(address)":"b760faf9","emergencyWithdraw(address)":"6ff1c9bc","enableOnboardingSubsidy()":"1d58623f","entryPoint()":"b0d691fe","gasSubsidyLimit()":"0dcc46af","getNonce(address,uint192)":"35567e1a","getRoleAdmin(bytes32)":"248a9ca3","getUserOnboardingInfo(address)":"15e0edc2","getUserOpHash((address,uint256,bytes,bytes,uint256,uint256,uint256,uint256,uint256,bytes,bytes))":"a6193531","grantRole(bytes32,address)":"2f2ff15d","handleOps((address,uint256,bytes,bytes,uint256,uint256,uint256,uint256,uint256,bytes,bytes)[],address)":"1fad948c","handleOpsWithTrustScore((address,uint256,bytes,bytes,uint256,uint256,uint256,uint256,uint256,bytes,bytes)[],address)":"19176017","hasRole(bytes32,address)":"91d14854","isEligibleForGasSubsidy(address)":"ad114af5","lastResetDay(address)":"33b9baa5","minTrustScoreForGasless()":"2d8c6e66","onboardingGasAllowance()":"af715af6","onboardingGasUsed(address)":"79d1557d","onboardingPeriod()":"f3d937ca","renounceRole(bytes32,address)":"36568abe","revokeRole(bytes32,address)":"d547741f","setDailyGasLimit(uint256)":"298141f9","setEnableOnboardingSubsidy(bool)":"72b7664d","setGasSubsidyLimit(uint256)":"c89f7af2","setOnboardingGasAllowance(uint256)":"d3913741","setOnboardingPeriod(uint256)":"4a9cb522","setOnboardingSettings(uint256,uint256,bool)":"41f0d58f","setTrustScoreBasedGasSubsidy(bool)":"d9a58a3d","setTrustScoreThreshold(uint256)":"6240a3bc","supportsInterface(bytes4)":"01ffc9a7","trustScore()":"3078d998","trustScoreBasedGasSubsidy()":"e01c3266","userFirstInteraction(address)":"16580ea5","userGasSubsidyUsed(address)":"c4184f2e","verificationLogger()":"e1300c88","whitelistPaymaster(address,bool)":"506bcda7","whitelistedPaymasters(address)":"d1d1375e"},"id":66}