{"abi":[{"type":"constructor","inputs":[{"name":"_verificationLogger","type":"address","internalType":"address"},{"name":"_userRegistry","type":"address","internalType":"address"},{"name":"_trustScore","type":"address","internalType":"address"}],"stateMutability":"nonpayable"},{"type":"function","name":"DEFAULT_ADMIN_ROLE","inputs":[],"outputs":[{"name":"","type":"bytes32","internalType":"bytes32"}],"stateMutability":"view"},{"type":"function","name":"FACE_VERIFICATION_SCORE","inputs":[],"outputs":[{"name":"","type":"uint256","internalType":"uint256"}],"stateMutability":"view"},{"type":"function","name":"MAX_FAILED_ATTEMPTS","inputs":[],"outputs":[{"name":"","type":"uint256","internalType":"uint256"}],"stateMutability":"view"},{"type":"function","name":"MAX_RETRY_ATTEMPTS","inputs":[],"outputs":[{"name":"","type":"uint256","internalType":"uint256"}],"stateMutability":"view"},{"type":"function","name":"ORACLE_ROLE","inputs":[],"outputs":[{"name":"","type":"bytes32","internalType":"bytes32"}],"stateMutability":"view"},{"type":"function","name":"RETRY_COOLDOWN","inputs":[],"outputs":[{"name":"","type":"uint256","internalType":"uint256"}],"stateMutability":"view"},{"type":"function","name":"VERIFIER_ROLE","inputs":[],"outputs":[{"name":"","type":"bytes32","internalType":"bytes32"}],"stateMutability":"view"},{"type":"function","name":"bulkCompleteFaceVerification","inputs":[{"name":"users","type":"address[]","internalType":"address[]"},{"name":"successes","type":"bool[]","internalType":"bool[]"},{"name":"providers","type":"string[]","internalType":"string[]"},{"name":"signatures","type":"bytes[]","internalType":"bytes[]"}],"outputs":[],"stateMutability":"nonpayable"},{"type":"function","name":"canRetryVerification","inputs":[{"name":"user","type":"address","internalType":"address"}],"outputs":[{"name":"","type":"bool","internalType":"bool"}],"stateMutability":"view"},{"type":"function","name":"completeFaceVerification","inputs":[{"name":"user","type":"address","internalType":"address"},{"name":"success","type":"bool","internalType":"bool"},{"name":"verificationProvider","type":"string","internalType":"string"},{"name":"oracleSignature","type":"bytes","internalType":"bytes"}],"outputs":[],"stateMutability":"nonpayable"},{"type":"function","name":"faceVerifications","inputs":[{"name":"","type":"address","internalType":"address"}],"outputs":[{"name":"user","type":"address","internalType":"address"},{"name":"faceHashCommitment","type":"bytes32","internalType":"bytes32"},{"name":"livenessProof","type":"bytes32","internalType":"bytes32"},{"name":"timestamp","type":"uint256","internalType":"uint256"},{"name":"isVerified","type":"bool","internalType":"bool"},{"name":"isActive","type":"bool","internalType":"bool"},{"name":"verificationProvider","type":"string","internalType":"string"},{"name":"retryCount","type":"uint256","internalType":"uint256"},{"name":"lastRetry","type":"uint256","internalType":"uint256"}],"stateMutability":"view"},{"type":"function","name":"failedAttempts","inputs":[{"name":"","type":"address","internalType":"address"}],"outputs":[{"name":"","type":"uint256","internalType":"uint256"}],"stateMutability":"view"},{"type":"function","name":"getFaceVerificationInfo","inputs":[{"name":"user","type":"address","internalType":"address"}],"outputs":[{"name":"faceHashCommitment","type":"bytes32","internalType":"bytes32"},{"name":"timestamp","type":"uint256","internalType":"uint256"},{"name":"isVerified","type":"bool","internalType":"bool"},{"name":"verificationProvider","type":"string","internalType":"string"},{"name":"retryCount","type":"uint256","internalType":"uint256"},{"name":"failedAttemptCount","type":"uint256","internalType":"uint256"}],"stateMutability":"view"},{"type":"function","name":"getRoleAdmin","inputs":[{"name":"role","type":"bytes32","internalType":"bytes32"}],"outputs":[{"name":"","type":"bytes32","internalType":"bytes32"}],"stateMutability":"view"},{"type":"function","name":"getVerificationStats","inputs":[],"outputs":[{"name":"totalRequests","type":"uint256","internalType":"uint256"},{"name":"successfulVerifications","type":"uint256","internalType":"uint256"},{"name":"failedVerifications","type":"uint256","internalType":"uint256"},{"name":"activeRequests","type":"uint256","internalType":"uint256"}],"stateMutability":"pure"},{"type":"function","name":"grantRole","inputs":[{"name":"role","type":"bytes32","internalType":"bytes32"},{"name":"account","type":"address","internalType":"address"}],"outputs":[],"stateMutability":"nonpayable"},{"type":"function","name":"hasRole","inputs":[{"name":"role","type":"bytes32","internalType":"bytes32"},{"name":"account","type":"address","internalType":"address"}],"outputs":[{"name":"","type":"bool","internalType":"bool"}],"stateMutability":"view"},{"type":"function","name":"isFaceVerified","inputs":[{"name":"user","type":"address","internalType":"address"}],"outputs":[{"name":"","type":"bool","internalType":"bool"}],"stateMutability":"view"},{"type":"function","name":"renounceRole","inputs":[{"name":"role","type":"bytes32","internalType":"bytes32"},{"name":"callerConfirmation","type":"address","internalType":"address"}],"outputs":[],"stateMutability":"nonpayable"},{"type":"function","name":"requestFaceVerification","inputs":[{"name":"faceHashCommitment","type":"bytes32","internalType":"bytes32"},{"name":"livenessProof","type":"bytes32","internalType":"bytes32"}],"outputs":[],"stateMutability":"nonpayable"},{"type":"function","name":"resetFailedAttempts","inputs":[{"name":"user","type":"address","internalType":"address"}],"outputs":[],"stateMutability":"nonpayable"},{"type":"function","name":"revokeFaceVerification","inputs":[{"name":"user","type":"address","internalType":"address"},{"name":"reason","type":"string","internalType":"string"}],"outputs":[],"stateMutability":"nonpayable"},{"type":"function","name":"revokeRole","inputs":[{"name":"role","type":"bytes32","internalType":"bytes32"},{"name":"account","type":"address","internalType":"address"}],"outputs":[],"stateMutability":"nonpayable"},{"type":"function","name":"supportsInterface","inputs":[{"name":"interfaceId","type":"bytes4","internalType":"bytes4"}],"outputs":[{"name":"","type":"bool","internalType":"bool"}],"stateMutability":"view"},{"type":"function","name":"trustScore","inputs":[],"outputs":[{"name":"","type":"address","internalType":"contract ITrustScore"}],"stateMutability":"view"},{"type":"function","name":"usedFaceHashes","inputs":[{"name":"","type":"bytes32","internalType":"bytes32"}],"outputs":[{"name":"","type":"bool","internalType":"bool"}],"stateMutability":"view"},{"type":"function","name":"userRegistry","inputs":[],"outputs":[{"name":"","type":"address","internalType":"contract IUserIdentityRegistry"}],"stateMutability":"view"},{"type":"function","name":"verificationLogger","inputs":[],"outputs":[{"name":"","type":"address","internalType":"contract IVerificationLogger"}],"stateMutability":"view"},{"type":"event","name":"FaceVerificationCompleted","inputs":[{"name":"user","type":"address","indexed":true,"internalType":"address"},{"name":"success","type":"bool","indexed":false,"internalType":"bool"},{"name":"provider","type":"string","indexed":false,"internalType":"string"}],"anonymous":false},{"type":"event","name":"FaceVerificationRequested","inputs":[{"name":"user","type":"address","indexed":true,"internalType":"address"},{"name":"faceHashCommitment","type":"bytes32","indexed":false,"internalType":"bytes32"}],"anonymous":false},{"type":"event","name":"FaceVerificationRevoked","inputs":[{"name":"user","type":"address","indexed":true,"internalType":"address"},{"name":"reason","type":"string","indexed":false,"internalType":"string"}],"anonymous":false},{"type":"event","name":"RetryAttempt","inputs":[{"name":"user","type":"address","indexed":true,"internalType":"address"},{"name":"attemptNumber","type":"uint256","indexed":false,"internalType":"uint256"}],"anonymous":false},{"type":"event","name":"RoleAdminChanged","inputs":[{"name":"role","type":"bytes32","indexed":true,"internalType":"bytes32"},{"name":"previousAdminRole","type":"bytes32","indexed":true,"internalType":"bytes32"},{"name":"newAdminRole","type":"bytes32","indexed":true,"internalType":"bytes32"}],"anonymous":false},{"type":"event","name":"RoleGranted","inputs":[{"name":"role","type":"bytes32","indexed":true,"internalType":"bytes32"},{"name":"account","type":"address","indexed":true,"internalType":"address"},{"name":"sender","type":"address","indexed":true,"internalType":"address"}],"anonymous":false},{"type":"event","name":"RoleRevoked","inputs":[{"name":"role","type":"bytes32","indexed":true,"internalType":"bytes32"},{"name":"account","type":"address","indexed":true,"internalType":"address"},{"name":"sender","type":"address","indexed":true,"internalType":"address"}],"anonymous":false},{"type":"error","name":"AccessControlBadConfirmation","inputs":[]},{"type":"error","name":"AccessControlUnauthorizedAccount","inputs":[{"name":"account","type":"address","internalType":"address"},{"name":"neededRole","type":"bytes32","internalType":"bytes32"}]},{"type":"error","name":"ReentrancyGuardReentrantCall","inputs":[]}],"bytecode":{"object":"0x6080604052346100305761001a610014610111565b916102be565b610022610035565b61420c610587823961420c90f35b61003b565b60405190565b5f80fd5b601f801991011690565b634e487b7160e01b5f52604160045260245ffd5b906100679061003f565b810190811060018060401b0382111761007f57604052565b610049565b90610097610090610035565b928361005d565b565b5f80fd5b60018060a01b031690565b6100b19061009d565b90565b6100bd816100a8565b036100c457565b5f80fd5b905051906100d5826100b4565b565b909160608284031261010c576101096100f2845f85016100c8565b9361010081602086016100c8565b936040016100c8565b90565b610099565b61012f6147938038038061012481610084565b9283398101906100d7565b909192565b90565b90565b5f1b90565b61015361014e61015892610134565b61013a565b610137565b90565b6101645f61013f565b90565b7f0ce23c3e399818cfee81a7ab0880f714e53d7672b08df0fa62f2843416e1ea0990565b7f68e79a7bf1e0bc45d0a330c573bc367f9cf464fd326078812f301165fbda4ef190565b90565b6101c66101c16101cb9261009d565b6101af565b61009d565b90565b6101d7906101b2565b90565b6101e3906101ce565b90565b906101f760018060a01b039161013a565b9181191691161790565b61020a906101ce565b90565b90565b9061022561022061022c92610201565b61020d565b82546101e6565b9055565b610239906101b2565b90565b61024590610230565b90565b61025190610230565b90565b90565b9061026c61026761027392610248565b610254565b82546101e6565b9055565b610280906101b2565b90565b61028c90610277565b90565b61029890610277565b90565b90565b906102b36102ae6102ba9261028f565b61029b565b82546101e6565b9055565b9161032c61032561033193610320610319610338976102db6103be565b6102ed6102e661015b565b3390610475565b506103006102f9610167565b3390610475565b5061031361030c61018b565b3390610475565b506101da565b6005610210565b61023c565b6006610257565b610283565b600761029e565b565b90565b90565b61035461034f6103599261033a565b6101af565b61033d565b90565b6103666001610340565b90565b906103755f199161013a565b9181191691161790565b61039361038e6103989261033d565b6101af565b61033d565b90565b90565b906103b36103ae6103ba9261037f565b61039b565b8254610369565b9055565b6103d06103c961035c565b600161039e565b565b5f90565b151590565b6103e490610137565b90565b906103f1906103db565b5f5260205260405f2090565b610406906101b2565b90565b610412906103fd565b90565b9061041f90610409565b5f5260205260405f2090565b9061043760ff9161013a565b9181191691161790565b61044a906103d6565b90565b90565b9061046561046061046c92610441565b61044d565b825461042b565b9055565b5f0190565b61047d6103d2565b5061049261048c82849061054c565b156103d6565b5f1461051a576104b960016104b45f6104ac8186906103e7565b018590610415565b610450565b906104c2610579565b906104ff6104f96104f37f2f8788117e7eff1d82e926ec794901d17c78024a50270940304540a733656f0d956103db565b92610409565b92610409565b92610508610035565b8061051281610470565b0390a4600190565b50505f90565b5f1c90565b60ff1690565b61053761053c91610520565b610525565b90565b610549905461052b565b90565b610572915f61056761056d936105606103d2565b50826103e7565b01610415565b61053f565b90565b5f90565b610581610575565b50339056fe60806040526004361015610013575b6116af565b61001d5f356101dc565b806301ffc9a7146101d757806307e2cea5146101d2578063248a9ca3146101cd5780632a7dc98a146101c85780632f2ff15d146101c35780633078d998146101be57806332627ec7146101b957806336568abe146101b45780635c7460d6146101af57806362728144146101aa5780636f2b34df146101a557806372903d3e146101a057806373a839ed1461019b5780637c9292a4146101965780638d1a6ba81461019157806391d148541461018c5780639ab868f014610187578063a217fddf14610182578063b06e0b601461017d578063bf56bd5914610178578063c5b23e8214610173578063c790ea851461016e578063d547741f14610169578063d9a8781b14610164578063e1300c881461015f578063e29b35211461015a578063e7705db6146101555763efcf6a8d0361000e57611676565b611603565b61159f565b611533565b611490565b61145c565b611425565b6110b7565b61104c565b610fd2565b610f65565b610ef7565b610ec1565b610e8c565b610df7565b610d8e565b610cf8565b610b09565b610a9d565b610a68565b6109c6565b610991565b6108f2565b61084c565b6107db565b610376565b610300565b610268565b60e01c90565b60405190565b5f80fd5b5f80fd5b5f80fd5b63ffffffff60e01b1690565b610209816101f4565b0361021057565b5f80fd5b9050359061022182610200565b565b9060208282031261023c57610239915f01610214565b90565b6101ec565b151590565b61024f90610241565b9052565b9190610266905f60208501940190610246565b565b346102985761029461028361027e366004610223565b6116b7565b61028b6101e2565b91829182610253565b0390f35b6101e8565b5f9103126102a757565b6101ec565b7f68e79a7bf1e0bc45d0a330c573bc367f9cf464fd326078812f301165fbda4ef190565b6102d86102ac565b90565b90565b6102e7906102db565b9052565b91906102fe905f602085019401906102de565b565b346103305761031036600461029d565b61032c61031b6102d0565b6103236101e2565b918291826102eb565b0390f35b6101e8565b61033e816102db565b0361034557565b5f80fd5b9050359061035682610335565b565b906020828203126103715761036e915f01610349565b90565b6101ec565b346103a6576103a261039161038c366004610358565b611711565b6103996101e2565b918291826102eb565b0390f35b6101e8565b60018060a01b031690565b6103bf906103ab565b90565b6103cb816103b6565b036103d257565b5f80fd5b905035906103e3826103c2565b565b906020828203126103fe576103fb915f016103d6565b90565b6101ec565b90565b61041a61041561041f926103ab565b610403565b6103ab565b90565b61042b90610406565b90565b61043790610422565b90565b906104449061042e565b5f5260205260405f2090565b5f1c90565b60018060a01b031690565b61046c61047191610450565b610455565b90565b61047e9054610460565b90565b90565b61049061049591610450565b610481565b90565b6104a29054610484565b90565b90565b6104b46104b991610450565b6104a5565b90565b6104c690546104a8565b90565b60ff1690565b6104db6104e091610450565b6104c9565b90565b6104ed90546104cf565b90565b60081c90565b610502610507916104f0565b6104c9565b90565b61051490546104f6565b90565b634e487b7160e01b5f52602260045260245ffd5b906001600283049216801561054b575b602083101461054657565b610517565b91607f169161053b565b60209181520190565b5f5260205f2090565b905f929180549061058161057a8361052b565b8094610555565b916001811690815f146105d8575060011461059c575b505050565b6105a9919293945061055e565b915f925b8184106105c057505001905f8080610597565b600181602092959395548486015201910192906105ad565b92949550505060ff19168252151560200201905f8080610597565b906105fd91610567565b90565b601f801991011690565b634e487b7160e01b5f52604160045260245ffd5b9061062890610600565b810190811067ffffffffffffffff82111761064257604052565b61060a565b90610667610660926106576101e2565b938480926105f3565b038361061e565b565b61067490600261043a565b61067f5f8201610474565b9161068c60018301610498565b9161069960028201610498565b916106a6600383016104bc565b916106b3600482016104e3565b916106c06004830161050a565b916106cd60058201610647565b916106e660076106df600685016104bc565b93016104bc565b90565b6106f2906103b6565b9052565b90565b610702906106f6565b9052565b5190565b60209181520190565b90825f9392825e0152565b61073d61074660209361074b9361073481610706565b9384809361070a565b95869101610713565b610600565b0190565b94610100966107b06107ba926107a66107d2986107d99d9f9e9c96976107c79961079261079c9260208f61078b61012082019e5f8301906106e9565b01906102de565b60408d01906102de565b60608b01906106f9565b6080890190610246565b60a0870190610246565b84820360c086015261071e565b9660e08301906106f9565b01906106f9565b565b34610815576108116107f66107f13660046103e5565b610669565b956108089997999591959492946101e2565b998a998a61074f565b0390f35b6101e8565b9190604083820312610842578061083661083f925f8601610349565b936020016103d6565b90565b6101ec565b5f0190565b3461087b5761086561085f36600461081a565b9061175c565b61086d6101e2565b8061087781610847565b0390f35b6101e8565b1c90565b60018060a01b031690565b61089f9060086108a49302610880565b610884565b90565b906108b2915461088f565b90565b6108c160075f906108a7565b90565b6108cd90610422565b90565b6108d9906108c4565b9052565b91906108f0905f602085019401906108d0565b565b346109225761090236600461029d565b61091e61090d6108b5565b6109156101e2565b918291826108dd565b0390f35b6101e8565b906109319061042e565b5f5260205260405f2090565b61094d9060086109529302610880565b6104a5565b90565b90610960915461093d565b90565b610979906109746004915f92610927565b610955565b90565b919061098f905f602085019401906106f9565b565b346109c1576109bd6109ac6109a73660046103e5565b610963565b6109b46101e2565b9182918261097c565b0390f35b6101e8565b346109f5576109df6109d936600461081a565b90611768565b6109e76101e2565b806109f181610847565b0390f35b6101e8565b60018060a01b031690565b610a15906008610a1a9302610880565b6109fa565b90565b90610a289154610a05565b90565b610a3760065f90610a1d565b90565b610a4390610422565b90565b610a4f90610a3a565b9052565b9190610a66905f60208501940190610a46565b565b34610a9857610a7836600461029d565b610a94610a83610a2b565b610a8b6101e2565b91829182610a53565b0390f35b6101e8565b34610acd57610ac9610ab8610ab33660046103e5565b6117b0565b610ac06101e2565b91829182610253565b0390f35b6101e8565b90565b610ae9610ae4610aee92610ad2565b610403565b6106f6565b90565b610afb6005610ad5565b90565b610b06610af1565b90565b34610b3957610b1936600461029d565b610b35610b24610afe565b610b2c6101e2565b9182918261097c565b0390f35b6101e8565b610b4781610241565b03610b4e57565b5f80fd5b90503590610b5f82610b3e565b565b5f80fd5b5f80fd5b90610b7c610b756101e2565b928361061e565b565b67ffffffffffffffff8111610b9c57610b98602091610600565b0190565b61060a565b90825f939282370152565b90929192610bc1610bbc82610b7e565b610b69565b93818552602085019082840111610bdd57610bdb92610ba1565b565b610b65565b9080601f83011215610c0057816020610bfd93359101610bac565b90565b610b61565b67ffffffffffffffff8111610c2357610c1f602091610600565b0190565b61060a565b90929192610c3d610c3882610c05565b610b69565b93818552602085019082840111610c5957610c5792610ba1565b565b610b65565b9080601f83011215610c7c57816020610c7993359101610c28565b90565b610b61565b90608082820312610cf357610c98815f84016103d6565b92610ca68260208501610b52565b92604081013567ffffffffffffffff8111610cee5783610cc7918301610be2565b92606082013567ffffffffffffffff8111610ce957610ce69201610c5e565b90565b6101f0565b6101f0565b6101ec565b34610d2a57610d14610d0b366004610c81565b9291909161265f565b610d1c6101e2565b80610d2681610847565b0390f35b6101e8565b91610d8591610d8c96989795610d6d60a096610d63610d7a95610d5960c08a01965f8b01906102de565b60208901906106f9565b6040870190610246565b848203606086015261071e565b9660808301906106f9565b01906106f9565b565b34610dc557610dc1610da9610da43660046103e5565b6127d0565b92610db89694969291926101e2565b96879687610d2f565b0390f35b6101e8565b9190604083820312610df25780610de6610def925f8601610349565b93602001610349565b90565b6101ec565b34610e2657610e10610e0a366004610dca565b906133b8565b610e186101e2565b80610e2281610847565b0390f35b6101e8565b610e34906102db565b90565b90610e4190610e2b565b5f5260205260405f2090565b610e5d906008610e629302610880565b6104c9565b90565b90610e709154610e4d565b90565b610e8990610e846003915f92610e37565b610e65565b90565b34610ebc57610eb8610ea7610ea2366004610358565b610e73565b610eaf6101e2565b91829182610253565b0390f35b6101e8565b34610ef257610eee610edd610ed736600461081a565b906133da565b610ee56101e2565b91829182610253565b0390f35b6101e8565b34610f2557610f0f610f0a3660046103e5565b613548565b610f176101e2565b80610f2181610847565b0390f35b6101e8565b90565b5f1b90565b610f46610f41610f4b92610f2a565b610f2d565b6102db565b90565b610f575f610f32565b90565b610f62610f4e565b90565b34610f9557610f7536600461029d565b610f91610f80610f5a565b610f886101e2565b918291826102eb565b0390f35b6101e8565b90565b610fb1610fac610fb692610f9a565b610403565b6106f6565b90565b610fc4610e10610f9d565b90565b610fcf610fb9565b90565b3461100257610fe236600461029d565b610ffe610fed610fc7565b610ff56101e2565b9182918261097c565b0390f35b6101e8565b91909160408184031261104757611020835f83016103d6565b92602082013567ffffffffffffffff81116110425761103f9201610be2565b90565b6101f0565b6101ec565b3461107b5761106561105f366004611007565b90613980565b61106d6101e2565b8061107781610847565b0390f35b6101e8565b90565b61109761109261109c92611080565b610403565b6106f6565b90565b6110a96019611083565b90565b6110b461109f565b90565b346110e7576110c736600461029d565b6110e36110d26110ac565b6110da6101e2565b9182918261097c565b0390f35b6101e8565b67ffffffffffffffff81116111045760208091020190565b61060a565b5f80fd5b9092919261112261111d826110ec565b610b69565b938185526020808601920283019281841161115f57915b8383106111465750505050565b6020809161115484866103d6565b815201920191611139565b611109565b9080601f830112156111825781602061117f9335910161110d565b90565b610b61565b67ffffffffffffffff811161119f5760208091020190565b61060a565b909291926111b96111b482611187565b610b69565b93818552602080860192028301928184116111f657915b8383106111dd5750505050565b602080916111eb8486610b52565b8152019201916111d0565b611109565b9080601f8301121561121957816020611216933591016111a4565b90565b610b61565b67ffffffffffffffff81116112365760208091020190565b61060a565b92919061124f61124a8261121e565b610b69565b93818552602080860192028101918383116112a65781905b838210611275575050505050565b813567ffffffffffffffff81116112a1576020916112968784938701610be2565b815201910190611267565b610b61565b611109565b9080601f830112156112c9578160206112c69335910161123b565b90565b610b61565b67ffffffffffffffff81116112e65760208091020190565b61060a565b9291906112ff6112fa826112ce565b610b69565b93818552602080860192028101918383116113565781905b838210611325575050505050565b813567ffffffffffffffff8111611351576020916113468784938701610c5e565b815201910190611317565b610b61565b611109565b9080601f8301121561137957816020611376933591016112eb565b90565b610b61565b90608082820312611420575f82013567ffffffffffffffff811161141b57816113a8918401611164565b92602083013567ffffffffffffffff811161141657826113c99185016111fb565b92604081013567ffffffffffffffff811161141157836113ea9183016112ab565b92606082013567ffffffffffffffff811161140c57611409920161135b565b90565b6101f0565b6101f0565b6101f0565b6101f0565b6101ec565b346114575761144161143836600461137e565b92919091613c2e565b6114496101e2565b8061145381610847565b0390f35b6101e8565b3461148b5761147561146f36600461081a565b90613c66565b61147d6101e2565b8061148781610847565b0390f35b6101e8565b346114c0576114bc6114ab6114a63660046103e5565b613c72565b6114b36101e2565b91829182610253565b0390f35b6101e8565b60018060a01b031690565b6114e09060086114e59302610880565b6114c5565b90565b906114f391546114d0565b90565b61150260055f906114e8565b90565b61150e90610422565b90565b61151a90611505565b9052565b9190611531905f60208501940190611511565b565b346115635761154336600461029d565b61155f61154e6114f6565b6115566101e2565b9182918261151e565b0390f35b6101e8565b90565b61157f61157a61158492611568565b610403565b6106f6565b90565b611591600361156b565b90565b61159c611587565b90565b346115cf576115af36600461029d565b6115cb6115ba611594565b6115c26101e2565b9182918261097c565b0390f35b6101e8565b7f0ce23c3e399818cfee81a7ab0880f714e53d7672b08df0fa62f2843416e1ea0990565b6116006115d4565b90565b346116335761161336600461029d565b61162f61161e6115f8565b6116266101e2565b918291826102eb565b0390f35b6101e8565b61166d61167494611663606094989795611659608086019a5f8701906106f9565b60208501906106f9565b60408301906106f9565b01906106f9565b565b346116aa5761168636600461029d565b6116a6611691613d5f565b9061169d9492946101e2565b94859485611638565b0390f35b6101e8565b5f80fd5b5f90565b6116bf6116b3565b50806116da6116d4637965db0b60e01b6101f4565b916101f4565b149081156116e7575b5090565b6116f19150613db1565b5f6116e3565b5f90565b9061170590610e2b565b5f5260205260405f2090565b600161172961172f926117226116f7565b505f6116fb565b01610498565b90565b9061174d9161174861174382611711565b613dd7565b61174f565b565b9061175991613deb565b50565b9061176691611732565b565b908061178361177d611778613e9a565b6103b6565b916103b6565b036117945761179191613ea7565b50565b5f63334bd91960e11b8152806117ac60048201610847565b0390fd5b6117b86116b3565b506117d060046117ca6002849061043a565b016104e3565b90816117db575b5090565b6117f391506117ed600491600261043a565b0161050a565b5f6117d7565b9061181593929161181061180b6102ac565b613dd7565b6121b9565b565b61182b61182661183092610f2a565b610403565b6103ab565b90565b61183c90611817565b90565b5f7f496e76616c696420757365722061646472657373000000000000000000000000910152565b611873601460209261070a565b61187c8161183f565b0190565b6118959060208101905f818303910152611866565b90565b1561189f57565b6118a76101e2565b62461bcd60e51b8152806118bd60048201611880565b0390fd5b5f7f4e6f20616374697665206661636520766572696669636174696f6e0000000000910152565b6118f5601b60209261070a565b6118fe816118c1565b0190565b6119179060208101905f8183039101526118e8565b90565b1561192157565b6119296101e2565b62461bcd60e51b81528061193f60048201611902565b0390fd5b90565b5190565b61195e61195961196392610f2a565b610403565b6106f6565b90565b90565b61197d61197861198292611966565b610403565b6106f6565b90565b5f7f496e76616c69642070726f7669646572206c656e677468000000000000000000910152565b6119b9601760209261070a565b6119c281611985565b0190565b6119db9060208101905f8183039101526119ac565b90565b156119e557565b6119ed6101e2565b62461bcd60e51b815280611a03600482016119c6565b0390fd5b5f7f496e76616c6964206f7261636c65207369676e61747572650000000000000000910152565b611a3b601860209261070a565b611a4481611a07565b0190565b611a5d9060208101905f818303910152611a2e565b90565b15611a6757565b611a6f6101e2565b62461bcd60e51b815280611a8560048201611a48565b0390fd5b90565b90611a9860ff91610f2d565b9181191691161790565b611aab90610241565b90565b90565b90611ac6611ac1611acd92611aa2565b611aae565b8254611a8c565b9055565b601f602091010490565b1b90565b91906008611afa910291611af45f1984611adb565b92611adb565b9181191691161790565b611b18611b13611b1d926106f6565b610403565b6106f6565b90565b90565b9190611b39611b34611b4193611b04565b611b20565b908354611adf565b9055565b5f90565b611b5b91611b55611b45565b91611b23565b565b5b818110611b69575050565b80611b765f600193611b49565b01611b5e565b9190601f8111611b8c575b505050565b611b98611bbd9361055e565b906020611ba484611ad1565b83019310611bc5575b611bb690611ad1565b0190611b5d565b5f8080611b87565b9150611bb681929050611bad565b90611be3905f1990600802610880565b191690565b81611bf291611bd3565b906002021790565b90611c0481610706565b9067ffffffffffffffff8211611cc457611c2882611c22855461052b565b85611b7c565b602090601f8311600114611c5c57918091611c4b935f92611c50575b5050611be8565b90555b565b90915001515f80611c44565b601f19831691611c6b8561055e565b925f5b818110611cac57509160029391856001969410611c92575b50505002019055611c4e565b611ca2910151601f841690611bd3565b90555f8080611c86565b91936020600181928787015181550195019201611c6e565b61060a565b90611cd391611bfa565b565b60081b90565b90611ce861ff0091611cd5565b9181191691161790565b90611d07611d02611d0e92611aa2565b611aae565b8254611cdb565b9055565b634e487b7160e01b5f52601160045260245ffd5b611d2f906106f6565b5f198114611d3d5760010190565b611d12565b90611d4e5f1991610f2d565b9181191691161790565b90611d6d611d68611d7492611b04565b611b20565b8254611d42565b9055565b611d84611d8991610450565b610884565b90565b611d969054611d78565b90565b5f80fd5b60e01b90565b5f910312611dad57565b6101ec565b90565b90565b611dcc611dc7611dd192611db2565b610403565b611db5565b90565b611ddd90611db8565b9052565b5f7f4661636520766572696669636174696f6e206661696c65640000000000000000910152565b611e15601860209261070a565b611e1e81611de1565b0190565b611e44611e5193611e3a60608401945f8501906106e9565b6020830190611dd4565b6040818303910152611e08565b90565b611e5c6101e2565b3d5f823e3d90fd5b90565b611e7b611e76611e8092611e64565b610403565b6106f6565b90565b611e92611e98919392936106f6565b926106f6565b91611ea48382026106f6565b928184041490151715611eb357565b611d12565b611ec7611ecd919392936106f6565b926106f6565b8201809211611ed857565b611d12565b611ee9611eee91610450565b6109fa565b90565b611efb9054611edd565b90565b5f7f6661636500000000000000000000000000000000000000000000000000000000910152565b611f32600460209261070a565b611f3b81611efe565b0190565b92916040611f68611f7093611f5b60608801915f8901906106e9565b8681036020880152611f25565b940190610246565b565b611f86611f81611f8b926106f6565b610403565b611db5565b90565b611f9790611db5565b9052565b5f7f4661636520766572696669636174696f6e20636f6d706c657465640000000000910152565b611fcf601b60209261070a565b611fd881611f9b565b0190565b611ffe61200b93611ff460608401945f8501906106e9565b6020830190611f8e565b6040818303910152611fc2565b90565b61201a61201f91610450565b6114c5565b90565b61202c905461200e565b90565b9061204161203c83610b7e565b610b69565b918252565b5f7f464143455f564552494649434154494f4e5f4641494c45440000000000000000910152565b612077601861202f565b9061208460208301612046565b565b61208e61206d565b90565b5f7f464143455f564552494649434154494f4e5f5355434345535300000000000000910152565b6120c2601961202f565b906120cf60208301612091565b565b6120d96120b8565b90565b905090565b6121066120fd926020926120f481610706565b948580936120dc565b93849101610713565b0190565b60f81b90565b6121199061210a565b90565b61212590612110565b90565b61213461213991610241565b61211c565b9052565b61214d61215491600194936120e1565b8092612128565b0190565b60200190565b60409061218a61217f6121919597969460608401908482035f86015261071e565b9660208301906106e9565b01906102de565b565b916121b6926121a960408201935f830190610246565b602081840391015261071e565b90565b90919261224561224a916121e8846121e16121db6121d65f611833565b6103b6565b916103b6565b1415611898565b61220761220260046121fc6002889061043a565b0161050a565b61191a565b61221861221387611943565b611946565b61222a6122245f61194a565b916106f6565b118061262e575b61223a906119de565b83908587919261406b565b611a60565b61225e6122596002839061043a565b611a89565b61226b8360048301611ab1565b6122788460058301611cc9565b6122855f60048301611cf2565b825f1461250b575061229f61229a6006611ef1565b610a3a565b63df551ce882600192803b15612506576122cc5f80946122d76122c06101e2565b97889687958694611d9d565b845260048401611f3f565b03925af18015612501576124d5575b506122f96122f46007611d8c565b6108c4565b630cc9ec5b8261230f61230a61109f565b611f72565b92803b156124d0576123345f809461233f6123286101e2565b97889687958694611d9d565b845260048401611fdc565b03925af180156124cb5761249f575b5061236c61235b5f61194a565b61236760048490610927565b611d58565b5b61237f61237a6005612022565b611505565b635260590a835f14612492576123936120d1565b5b8392866123c287916123b36123a76101e2565b9384926020840161213d565b6020820181038252038261061e565b6123d46123ce82611946565b91612158565b2092813b1561248d575f6123fb9161240682966123ef6101e2565b98899788968795611d9d565b85526004850161215e565b03925af180156124885761245c575b5090916124427fa41d4c316b2f3805ffbf1cdf0cd8edcd3b9fb296eb45628468c272a7758bdfdd9261042e565b9261245761244e6101e2565b92839283612193565b0390a2565b61247b905f3d8111612481575b612473818361061e565b810190611da3565b5f612415565b503d612469565b611e54565b611d99565b61249a612086565b612394565b6124be905f3d81116124c4575b6124b6818361061e565b810190611da3565b5f61234e565b503d6124ac565b611e54565b611d99565b6124f4905f3d81116124fa575b6124ec818361061e565b810190611da3565b5f6122e6565b503d6124e2565b611e54565b611d99565b61253161251a60048490610927565b61252b612526826104bc565b611d26565b90611d58565b61254361253e6007611d8c565b6108c4565b630cc9ec5b8360041992803b15612629576125715f809461257c6125656101e2565b97889687958694611d9d565b845260048401611e22565b03925af18015612624576125f8575b506125a061259b60048490610927565b6104bc565b6125b36125ad600361156b565b916106f6565b10156125c0575b5061236d565b6125f29060076125eb426125e56125d5610fb9565b6125df6002611e67565b90611e83565b90611eb8565b9101611d58565b5f6125ba565b612617905f3d811161261d575b61260f818361061e565b810190611da3565b5f61258b565b503d612605565b611e54565b611d99565b5061223a61264361263e88611943565b611946565b6126566126506032611969565b916106f6565b11159050612231565b9061266b9392916117f9565b565b606090565b9061267c906103b6565b9052565b9061268a906102db565b9052565b90612698906106f6565b9052565b906126a690610241565b9052565b52565b6126b8610120610b69565b90565b9061279b61279160076126cc6126ad565b946126e36126db5f8301610474565b5f8801612672565b6126fb6126f260018301610498565b60208801612680565b61271361270a60028301610498565b60408801612680565b61272b612722600383016104bc565b6060880161268e565b61274361273a600483016104e3565b6080880161269c565b61275b6127526004830161050a565b60a0880161269c565b61277361276a60058301610647565b60c088016126aa565b61278b612782600683016104bc565b60e0880161268e565b016104bc565b610100840161268e565b565b6127a6906126bb565b90565b6127b390516102db565b90565b6127c090516106f6565b90565b6127cd9051610241565b90565b906127d96116f7565b506127e2611b45565b506127eb6116b3565b506127f461266d565b506127fd611b45565b50612806611b45565b5061281b6128166002849061043a565b61279d565b612827602082016127a9565b92612834606083016127b6565b93612841608084016127c3565b9361286661286161285960e060c088015197016127b6565b946004610927565b6104bc565b91959493929190565b906128819161287c6140ff565b612efe565b612889614164565b565b9050519061289882610b3e565b565b906020828203126128b3576128b0915f0161288b565b90565b6101ec565b91906128cb905f602085019401906106e9565b565b5f7f55736572206e6f74207265676973746572656400000000000000000000000000910152565b612901601360209261070a565b61290a816128cd565b0190565b6129239060208101905f8183039101526128f4565b90565b1561292d57565b6129356101e2565b62461bcd60e51b81528061294b6004820161290e565b0390fd5b5f7f4964656e74697479206973206c6f636b65640000000000000000000000000000910152565b612983601260209261070a565b61298c8161294f565b0190565b6129a59060208101905f818303910152612976565b90565b156129af57565b6129b76101e2565b62461bcd60e51b8152806129cd60048201612990565b0390fd5b5f7f4661636520766572696669636174696f6e20616c726561647920616374697665910152565b612a046020809261070a565b612a0d816129d1565b0190565b612a269060208101905f8183039101526129f8565b90565b15612a3057565b612a386101e2565b62461bcd60e51b815280612a4e60048201612a11565b0390fd5b5f7f46616365206861736820616c7265616479207573656400000000000000000000910152565b612a86601660209261070a565b612a8f81612a52565b0190565b612aa89060208101905f818303910152612a79565b90565b15612ab257565b612aba6101e2565b62461bcd60e51b815280612ad060048201612a93565b0390fd5b5f7f496e76616c696420666163652068617368000000000000000000000000000000910152565b612b08601160209261070a565b612b1181612ad4565b0190565b612b2a9060208101905f818303910152612afb565b90565b15612b3457565b612b3c6101e2565b62461bcd60e51b815280612b5260048201612b15565b0390fd5b5f7f496e76616c6964206c6976656e6573732070726f6f6600000000000000000000910152565b612b8a601660209261070a565b612b9381612b56565b0190565b612bac9060208101905f818303910152612b7d565b90565b15612bb657565b612bbe6101e2565b62461bcd60e51b815280612bd460048201612b97565b0390fd5b5f7f546f6f206d616e79206661696c656420617474656d7074730000000000000000910152565b612c0c601860209261070a565b612c1581612bd8565b0190565b612c2e9060208101905f818303910152612bff565b90565b15612c3857565b612c406101e2565b62461bcd60e51b815280612c5660048201612c19565b0390fd5b5f7f526574727920636f6f6c646f776e206e6f742065787069726564000000000000910152565b612c8e601a60209261070a565b612c9781612c5a565b0190565b612cb09060208101905f818303910152612c81565b90565b15612cba57565b612cc26101e2565b62461bcd60e51b815280612cd860048201612c9b565b0390fd5b90565b612cf3612cee612cf892612cdc565b610403565b6106f6565b90565b612d06610120610b69565b90565b612d125f61202f565b90565b612d1d612d09565b90565b612d2a90516103b6565b90565b90612d3e60018060a01b0391610f2d565b9181191691161790565b90565b90612d60612d5b612d679261042e565b612d48565b8254612d2d565b9055565b612d7490610450565b90565b90612d8c612d87612d9392610e2b565b612d6b565b8254611d42565b9055565b5190565b90612e766101006007612e7c94612dbf5f8201612db95f8801612d20565b90612d4b565b612dd860018201612dd2602088016127a9565b90612d77565b612df160028201612deb604088016127a9565b90612d77565b612e0a60038201612e04606088016127b6565b90611d58565b612e2360048201612e1d608088016127c3565b90611ab1565b612e3c60048201612e3660a088016127c3565b90611cf2565b612e5560058201612e4f60c08801612d97565b90611cc9565b612e6e60068201612e6860e088016127b6565b90611d58565b0192016127b6565b90611d58565b565b90612e8891612d9b565b565b5f7f464143455f564552494649434154494f4e5f5245515545535445440000000000910152565b612ebe601b60209261070a565b612ec781612e8a565b0190565b916040612efc929493612ef5612eea606083018381035f850152612eb1565b9660208301906106e9565b01906102de565b565b612f3f6020612f15612f106006611ef1565b610a3a565b63c3c5a54790612f343392612f286101e2565b95869485938493611d9d565b8352600483016128b8565b03915afa80156133b357612f5a915f91613385575b50612926565b612f9b6020612f71612f6c6006611ef1565b610a3a565b63e2b104ec90612f903392612f846101e2565b95869485938493611d9d565b8352600483016128b8565b03915afa90811561338057612fc191612fbc915f91613352575b5015610241565b6129a8565b612fe9612fe4612fde6004612fd86002339061043a565b0161050a565b15610241565b612a29565b61300e613009613003612ffe60038590610e37565b6104e3565b15610241565b612aab565b6130338161302c6130266130215f610f32565b6102db565b916102db565b1415612b2d565b6130588261305161304b6130465f610f32565b6102db565b916102db565b1415612baf565b61308e61306f61306a60043390610927565b6104bc565b61308861308261307d610af1565b6106f6565b916106f6565b10612c31565b6130a261309d6002339061043a565b611a89565b916130af600684016104bc565b6130c16130bb5f61194a565b916106f6565b11613314575b33908290425f600191876006016130dd906104bc565b60016130e890612cdf565b6130f191611eb8565b9342956130fc612cfb565b975f89019061310a91612672565b602088019061311891612680565b604087019061312691612680565b60608601906131349161268e565b60808501906131429161269c565b60a08401906131509161269c565b613158612d15565b60c0840190613166916126aa565b60e08301906131749161268e565b6101008201906131839161268e565b60023361318f9161043a565b9061319991612e7e565b60016003826131a791610e37565b906131b191611ab1565b6131bb6005612022565b6131c490611505565b635260590a338392803b1561330f576131f05f80946131fb6131e46101e2565b97889687958694611d9d565b845260048401612ecb565b03925af1801561330a576132de575b503361324b6132397f039c571967c35f3598468e3ff223cae20ed0bd496f302b3fa25395ffb28564ef9261042e565b926132426101e2565b918291826102eb565b0390a261325a600682016104bc565b61326c6132665f61194a565b916106f6565b11613275575b50565b61329561328560063393016104bc565b61328f6001612cdf565b90611eb8565b906132d56132c37f30ff2bec84f72357de7212ce8650c52e73468e1a5ef796a126339f156d4d52fd9261042e565b926132cc6101e2565b9182918261097c565b0390a25f613272565b6132fd905f3d8111613303575b6132f5818361061e565b810190611da3565b5f61320a565b503d6132eb565b611e54565b611d99565b61334d4261334661334061333b61332d600789016104bc565b613335610fb9565b90611eb8565b6106f6565b916106f6565b1015612cb3565b6130c7565b613373915060203d8111613379575b61336b818361061e565b81019061289a565b5f612fb5565b503d613361565b611e54565b6133a6915060203d81116133ac575b61339e818361061e565b81019061289a565b5f612f54565b503d613394565b611e54565b906133c29161286f565b565b906133ce9061042e565b5f5260205260405f2090565b613400915f6133f56133fb936133ee6116b3565b50826116fb565b016133c4565b6104e3565b90565b61341c906134176134126115d4565b613dd7565b613491565b565b5f7f464143455f564552494649434154494f4e5f415454454d5054535f5245534554910152565b6134516020809261070a565b61345a8161341e565b0190565b91604061348f92949361348861347d606083018381035f850152613445565b9660208301906106e9565b01906102de565b565b6134ae61349d5f61194a565b6134a960048490610927565b611d58565b6134c06134bb6005612022565b611505565b90635260590a906134d05f610f32565b92803b15613543576134f55f80946135006134e96101e2565b97889687958694611d9d565b84526004840161345e565b03925af1801561353e57613512575b50565b613531905f3d8111613537575b613529818361061e565b810190611da3565b5f61350f565b503d61351f565b611e54565b611d99565b61355190613403565b565b9061356d916135686135636115d4565b613dd7565b61370e565b565b5f7f46616365206e6f74207665726966696564000000000000000000000000000000910152565b6135a3601160209261070a565b6135ac8161356f565b0190565b6135c59060208101905f818303910152613596565b90565b156135cf57565b6135d76101e2565b62461bcd60e51b8152806135ed600482016135b0565b0390fd5b6135fa90611db5565b600160ff1b811461360a575f0390565b611d12565b5f7f4661636520766572696669636174696f6e207265766f6b656400000000000000910152565b613643601960209261070a565b61364c8161360f565b0190565b61367261367f9361366860608401945f8501906106e9565b6020830190611f8e565b6040818303910152613636565b90565b5f7f464143455f564552494649434154494f4e5f5245564f4b454400000000000000910152565b6136b6601960209261070a565b6136bf81613682565b0190565b9160406136f49294936136ed6136e2606083018381035f8501526136a9565b9660208301906106e9565b01906102de565b565b61370b9160208201915f81840391015261071e565b90565b61372d61372860046137226002859061043a565b016104e3565b6135c8565b6137455f600461373f6002859061043a565b01611ab1565b61375d5f60046137576002859061043a565b01611cf2565b61376f61376a6006611ef1565b610a3a565b63df551ce8825f92803b1561397b5761379b5f80946137a661378f6101e2565b97889687958694611d9d565b845260048401611f3f565b03925af180156139765761394a575b506137c86137c36007611d8c565b6108c4565b630cc9ec5b826137e66137e16137dc61109f565b611f72565b6135f1565b92803b156139455761380b5f80946138166137ff6101e2565b97889687958694611d9d565b845260048401613650565b03925af1801561394057613914575b506138386138336005612022565b611505565b635260590a8261384785611943565b61385961385382611946565b91612158565b2092803b1561390f5761387f5f809461388a6138736101e2565b97889687958694611d9d565b8452600484016136c3565b03925af1801561390a576138de575b506138d96138c77fcf69b0bf9540eaf7e11b9516000f537045af8cbdad1fb9077e1355f87dd30da59261042e565b926138d06101e2565b918291826136f6565b0390a2565b6138fd905f3d8111613903575b6138f5818361061e565b810190611da3565b5f613899565b503d6138eb565b611e54565b611d99565b613933905f3d8111613939575b61392b818361061e565b810190611da3565b5f613825565b503d613921565b611e54565b611d99565b613969905f3d811161396f575b613961818361061e565b810190611da3565b5f6137b5565b503d613957565b611e54565b611d99565b9061398a91613553565b565b906139a89392916139a361399e6102ac565b613dd7565b613adf565b565b5190565b5190565b5190565b5190565b5f7f4172726179206c656e67746873206d757374206d617463680000000000000000910152565b6139ee601860209261070a565b6139f7816139ba565b0190565b613a109060208101905f8183039101526139e1565b90565b15613a1a57565b613a226101e2565b62461bcd60e51b815280613a38600482016139fb565b0390fd5b6001613a4891016106f6565b90565b634e487b7160e01b5f52603260045260245ffd5b90613a69826139aa565b811015613a7a576020809102010190565b613a4b565b90613a89826139ae565b811015613a9a576020809102010190565b613a4b565b90613aa9826139b2565b811015613aba576020809102010190565b613a4b565b90613ac9826139b6565b811015613ada576020809102010190565b613a4b565b9192613aea836139aa565b613b04613afe613af9856139ae565b6106f6565b916106f6565b1480613c04575b80613bd5575b613b1a90613a13565b613b235f61194a565b5b80613b3f613b39613b34876139aa565b6106f6565b916106f6565b1015613bce57613b7c90613b726004613b6c6002613b66613b618a8790613a5f565b612d20565b9061043a565b0161050a565b613b81575b613a3c565b613b24565b613bc9613b97613b92878490613a5f565b612d20565b613baa613ba5878590613a7f565b6127c3565b613bb5898590613a9f565b5190613bc2878690613abf565b519261265f565b613b77565b5050505050565b50613b1a613be2856139b2565b613bfc613bf6613bf1856139b6565b6106f6565b916106f6565b149050613b11565b50613c0e826139ae565b613c28613c22613c1d876139b2565b6106f6565b916106f6565b14613b0b565b90613c3a93929161398c565b565b90613c5791613c52613c4d82611711565b613dd7565b613c59565b565b90613c6391613ea7565b50565b90613c7091613c3c565b565b613c7a6116b3565b50613c8f613c8a60048390610927565b6104bc565b613ca8613ca2613c9d610af1565b6106f6565b916106f6565b1015613d5a57613cc56006613cbf6002849061043a565b016104bc565b613cde613cd8613cd3611587565b6106f6565b916106f6565b1015613d5557613cf2613cf791600261043a565b61279d565b613d0360e082016127b6565b613d15613d0f5f61194a565b916106f6565b11613d205750600190565b613d50613d4a613d45613d376101004295016127b6565b613d3f610fb9565b90611eb8565b6106f6565b916106f6565b101590565b505f90565b505f90565b613d67611b45565b50613d70611b45565b50613d79611b45565b50613d82611b45565b505f905f915f91613dae613da8613da2613d9c5f9561194a565b9661194a565b9461194a565b9261194a565b90565b613db96116b3565b50613dd3613dcd6301ffc9a760e01b6101f4565b916101f4565b1490565b613de990613de3613e9a565b9061419b565b565b613df36116b3565b50613e08613e028284906133da565b15610241565b5f14613e9057613e2f6001613e2a5f613e228186906116fb565b0185906133c4565b611ab1565b90613e38613e9a565b90613e75613e6f613e697f2f8788117e7eff1d82e926ec794901d17c78024a50270940304540a733656f0d95610e2b565b9261042e565b9261042e565b92613e7e6101e2565b80613e8881610847565b0390a4600190565b50505f90565b5f90565b613ea2613e96565b503390565b613eaf6116b3565b50613ebb8183906133da565b5f14613f4257613ee15f613edc5f613ed48186906116fb565b0185906133c4565b611ab1565b90613eea613e9a565b90613f27613f21613f1b7ff6391f5c32d9c69d2a47ea670b442974b53935d1edc7fd64eb21e047a839171b95610e2b565b9261042e565b9261042e565b92613f306101e2565b80613f3a81610847565b0390a4600190565b50505f90565b90565b613f5f613f5a613f6492613f48565b610403565b6106f6565b90565b5f7f496e76616c6964207369676e6174757265206c656e6774680000000000000000910152565b613f9b601860209261070a565b613fa481613f67565b0190565b613fbd9060208101905f818303910152613f8e565b90565b15613fc757565b613fcf6101e2565b62461bcd60e51b815280613fe560048201613fa8565b0390fd5b5f7f50726f7669646572207265717569726564000000000000000000000000000000910152565b61401d601160209261070a565b61402681613fe9565b0190565b61403f9060208101905f818303910152614010565b90565b1561404957565b6140516101e2565b62461bcd60e51b8152806140676004820161402a565b0390fd5b6140d09150916140cb6140d5936140aa6140906140ed9761408a6116b3565b50611946565b6140a361409d6041613f4b565b916106f6565b1015613fc0565b6140c46140be6140b95f611833565b6103b6565b916103b6565b1415611898565b611943565b611946565b6140e76140e15f61194a565b916106f6565b11614042565b600190565b6140fc6002611e67565b90565b61410960016104bc565b61412261411c6141176140f2565b6106f6565b916106f6565b1461413b576141396141326140f2565b6001611d58565b565b5f633ee5aeb560e01b81528061415360048201610847565b0390fd5b6141616001612cdf565b90565b61417661416f614157565b6001611d58565b565b91602061419992949361419260408201965f8301906106e9565b01906102de565b565b906141b06141aa8383906133da565b15610241565b6141b8575050565b6141d25f92839263e2517d3f60e01b845260048401614178565b0390fdfea2646970667358221220a5098ed73fe1b12f1a2891bf4d43ebee4027ab58689be135fedac9bb104dfec064736f6c634300081e0033","linkReferences":{}},"methodIdentifiers":{"DEFAULT_ADMIN_ROLE()":"a217fddf","FACE_VERIFICATION_SCORE()":"c5b23e82","MAX_FAILED_ATTEMPTS()":"6f2b34df","MAX_RETRY_ATTEMPTS()":"e29b3521","ORACLE_ROLE()":"07e2cea5","RETRY_COOLDOWN()":"b06e0b60","VERIFIER_ROLE()":"e7705db6","bulkCompleteFaceVerification(address[],bool[],string[],bytes[])":"c790ea85","canRetryVerification(address)":"d9a8781b","completeFaceVerification(address,bool,string,bytes)":"72903d3e","faceVerifications(address)":"2a7dc98a","failedAttempts(address)":"32627ec7","getFaceVerificationInfo(address)":"73a839ed","getRoleAdmin(bytes32)":"248a9ca3","getVerificationStats()":"efcf6a8d","grantRole(bytes32,address)":"2f2ff15d","hasRole(bytes32,address)":"91d14854","isFaceVerified(address)":"62728144","renounceRole(bytes32,address)":"36568abe","requestFaceVerification(bytes32,bytes32)":"7c9292a4","resetFailedAttempts(address)":"9ab868f0","revokeFaceVerification(address,string)":"bf56bd59","revokeRole(bytes32,address)":"d547741f","supportsInterface(bytes4)":"01ffc9a7","trustScore()":"3078d998","usedFaceHashes(bytes32)":"8d1a6ba8","userRegistry()":"5c7460d6","verificationLogger()":"e1300c88"},"id":90}