{"abi":[{"type":"constructor","inputs":[{"name":"_verificationLogger","type":"address","internalType":"address"}],"stateMutability":"nonpayable"},{"type":"function","name":"ANCHOR_ADMIN_ROLE","inputs":[],"outputs":[{"name":"","type":"bytes32","internalType":"bytes32"}],"stateMutability":"view"},{"type":"function","name":"BATCH_SIZE","inputs":[],"outputs":[{"name":"","type":"uint256","internalType":"uint256"}],"stateMutability":"view"},{"type":"function","name":"DEFAULT_ADMIN_ROLE","inputs":[],"outputs":[{"name":"","type":"bytes32","internalType":"bytes32"}],"stateMutability":"view"},{"type":"function","name":"TREE_DEPTH","inputs":[],"outputs":[{"name":"","type":"uint256","internalType":"uint256"}],"stateMutability":"view"},{"type":"function","name":"VERIFIER_ROLE","inputs":[],"outputs":[{"name":"","type":"bytes32","internalType":"bytes32"}],"stateMutability":"view"},{"type":"function","name":"anchorSingleCredential","inputs":[{"name":"credentialHash","type":"bytes32","internalType":"bytes32"},{"name":"holder","type":"address","internalType":"address"},{"name":"credentialType","type":"string","internalType":"string"},{"name":"metadataUri","type":"string","internalType":"string"}],"outputs":[],"stateMutability":"nonpayable"},{"type":"function","name":"batchCounter","inputs":[],"outputs":[{"name":"","type":"uint256","internalType":"uint256"}],"stateMutability":"view"},{"type":"function","name":"batchSubmissions","inputs":[{"name":"","type":"uint256","internalType":"uint256"}],"outputs":[{"name":"batchId","type":"uint256","internalType":"uint256"},{"name":"submitter","type":"address","internalType":"address"},{"name":"submittedAt","type":"uint256","internalType":"uint256"},{"name":"processedAt","type":"uint256","internalType":"uint256"},{"name":"isProcessed","type":"bool","internalType":"bool"},{"name":"batchRoot","type":"bytes32","internalType":"bytes32"},{"name":"metadataUri","type":"string","internalType":"string"}],"stateMutability":"view"},{"type":"function","name":"credentialProofs","inputs":[{"name":"","type":"bytes32","internalType":"bytes32"}],"outputs":[{"name":"credentialHash","type":"bytes32","internalType":"bytes32"},{"name":"holder","type":"address","internalType":"address"},{"name":"rootIndex","type":"uint256","internalType":"uint256"},{"name":"credentialIndex","type":"uint256","internalType":"uint256"},{"name":"isRevoked","type":"bool","internalType":"bool"},{"name":"timestamp","type":"uint256","internalType":"uint256"},{"name":"credentialType","type":"string","internalType":"string"},{"name":"nullifierHash","type":"bytes32","internalType":"bytes32"}],"stateMutability":"view"},{"type":"function","name":"credentialToRootIndex","inputs":[{"name":"","type":"bytes32","internalType":"bytes32"}],"outputs":[{"name":"","type":"uint256","internalType":"uint256"}],"stateMutability":"view"},{"type":"function","name":"currentRootIndex","inputs":[],"outputs":[{"name":"","type":"uint256","internalType":"uint256"}],"stateMutability":"view"},{"type":"function","name":"generateMerkleProof","inputs":[{"name":"credentialHash","type":"bytes32","internalType":"bytes32"}],"outputs":[{"name":"","type":"bytes32[]","internalType":"bytes32[]"},{"name":"","type":"uint256","internalType":"uint256"},{"name":"","type":"uint256","internalType":"uint256"}],"stateMutability":"view"},{"type":"function","name":"getBatchSubmission","inputs":[{"name":"batchId","type":"uint256","internalType":"uint256"}],"outputs":[{"name":"credentialHashes","type":"bytes32[]","internalType":"bytes32[]"},{"name":"submitter","type":"address","internalType":"address"},{"name":"submittedAt","type":"uint256","internalType":"uint256"},{"name":"isProcessed","type":"bool","internalType":"bool"},{"name":"batchRoot","type":"bytes32","internalType":"bytes32"}],"stateMutability":"view"},{"type":"function","name":"getCredentialProof","inputs":[{"name":"credentialHash","type":"bytes32","internalType":"bytes32"}],"outputs":[{"name":"holder","type":"address","internalType":"address"},{"name":"rootIndex","type":"uint256","internalType":"uint256"},{"name":"credentialIndex","type":"uint256","internalType":"uint256"},{"name":"isRevoked","type":"bool","internalType":"bool"},{"name":"credentialType","type":"string","internalType":"string"}],"stateMutability":"view"},{"type":"function","name":"getCurrentRoot","inputs":[],"outputs":[{"name":"","type":"bytes32","internalType":"bytes32"},{"name":"","type":"uint256","internalType":"uint256"},{"name":"","type":"uint256","internalType":"uint256"}],"stateMutability":"view"},{"type":"function","name":"getGlobalStats","inputs":[],"outputs":[{"name":"totalCredentialsCount","type":"uint256","internalType":"uint256"},{"name":"revokedCredentialsCount","type":"uint256","internalType":"uint256"},{"name":"currentRootIndexValue","type":"uint256","internalType":"uint256"},{"name":"totalBatches","type":"uint256","internalType":"uint256"},{"name":"activeRoots","type":"uint256","internalType":"uint256"}],"stateMutability":"view"},{"type":"function","name":"getRoleAdmin","inputs":[{"name":"role","type":"bytes32","internalType":"bytes32"}],"outputs":[{"name":"","type":"bytes32","internalType":"bytes32"}],"stateMutability":"view"},{"type":"function","name":"getRootHistory","inputs":[{"name":"fromIndex","type":"uint256","internalType":"uint256"},{"name":"toIndex","type":"uint256","internalType":"uint256"}],"outputs":[{"name":"","type":"tuple[]","internalType":"struct GlobalCredentialAnchor.MerkleRoot[]","components":[{"name":"root","type":"bytes32","internalType":"bytes32"},{"name":"timestamp","type":"uint256","internalType":"uint256"},{"name":"blockNumber","type":"uint256","internalType":"uint256"},{"name":"credentialCount","type":"uint256","internalType":"uint256"},{"name":"batchIndex","type":"uint256","internalType":"uint256"},{"name":"isActive","type":"bool","internalType":"bool"},{"name":"previousRoot","type":"bytes32","internalType":"bytes32"},{"name":"metadataUri","type":"string","internalType":"string"}]}],"stateMutability":"view"},{"type":"function","name":"getUserCredentials","inputs":[{"name":"user","type":"address","internalType":"address"}],"outputs":[{"name":"","type":"uint256[]","internalType":"uint256[]"}],"stateMutability":"view"},{"type":"function","name":"grantRole","inputs":[{"name":"role","type":"bytes32","internalType":"bytes32"},{"name":"account","type":"address","internalType":"address"}],"outputs":[],"stateMutability":"nonpayable"},{"type":"function","name":"hasRole","inputs":[{"name":"role","type":"bytes32","internalType":"bytes32"},{"name":"account","type":"address","internalType":"address"}],"outputs":[{"name":"","type":"bool","internalType":"bool"}],"stateMutability":"view"},{"type":"function","name":"isCredentialValid","inputs":[{"name":"credentialHash","type":"bytes32","internalType":"bytes32"}],"outputs":[{"name":"","type":"bool","internalType":"bool"}],"stateMutability":"view"},{"type":"function","name":"isNullifierUsed","inputs":[{"name":"nullifierHash","type":"bytes32","internalType":"bytes32"}],"outputs":[{"name":"","type":"bool","internalType":"bool"}],"stateMutability":"view"},{"type":"function","name":"merkleRoots","inputs":[{"name":"","type":"uint256","internalType":"uint256"}],"outputs":[{"name":"root","type":"bytes32","internalType":"bytes32"},{"name":"timestamp","type":"uint256","internalType":"uint256"},{"name":"blockNumber","type":"uint256","internalType":"uint256"},{"name":"credentialCount","type":"uint256","internalType":"uint256"},{"name":"batchIndex","type":"uint256","internalType":"uint256"},{"name":"isActive","type":"bool","internalType":"bool"},{"name":"previousRoot","type":"bytes32","internalType":"bytes32"},{"name":"metadataUri","type":"string","internalType":"string"}],"stateMutability":"view"},{"type":"function","name":"merkleTree","inputs":[{"name":"","type":"uint256","internalType":"uint256"},{"name":"","type":"uint256","internalType":"uint256"}],"outputs":[{"name":"","type":"bytes32","internalType":"bytes32"}],"stateMutability":"view"},{"type":"function","name":"nullifiers","inputs":[{"name":"","type":"bytes32","internalType":"bytes32"}],"outputs":[{"name":"","type":"bool","internalType":"bool"}],"stateMutability":"view"},{"type":"function","name":"registerZkVerificationKey","inputs":[{"name":"keyType","type":"string","internalType":"string"},{"name":"verificationKey","type":"bytes","internalType":"bytes"}],"outputs":[],"stateMutability":"nonpayable"},{"type":"function","name":"renounceRole","inputs":[{"name":"role","type":"bytes32","internalType":"bytes32"},{"name":"callerConfirmation","type":"address","internalType":"address"}],"outputs":[],"stateMutability":"nonpayable"},{"type":"function","name":"revokeCredential","inputs":[{"name":"credentialHash","type":"bytes32","internalType":"bytes32"},{"name":"reason","type":"string","internalType":"string"}],"outputs":[],"stateMutability":"nonpayable"},{"type":"function","name":"revokeRole","inputs":[{"name":"role","type":"bytes32","internalType":"bytes32"},{"name":"account","type":"address","internalType":"address"}],"outputs":[],"stateMutability":"nonpayable"},{"type":"function","name":"revokedCredentials","inputs":[],"outputs":[{"name":"","type":"uint256","internalType":"uint256"}],"stateMutability":"view"},{"type":"function","name":"submitCredentialBatch","inputs":[{"name":"credentialHashes","type":"bytes32[]","internalType":"bytes32[]"},{"name":"holders","type":"address[]","internalType":"address[]"},{"name":"credentialTypes","type":"string[]","internalType":"string[]"},{"name":"metadataUri","type":"string","internalType":"string"}],"outputs":[{"name":"","type":"uint256","internalType":"uint256"}],"stateMutability":"nonpayable"},{"type":"function","name":"supportsInterface","inputs":[{"name":"interfaceId","type":"bytes4","internalType":"bytes4"}],"outputs":[{"name":"","type":"bool","internalType":"bool"}],"stateMutability":"view"},{"type":"function","name":"totalCredentials","inputs":[],"outputs":[{"name":"","type":"uint256","internalType":"uint256"}],"stateMutability":"view"},{"type":"function","name":"useNullifier","inputs":[{"name":"nullifierHash","type":"bytes32","internalType":"bytes32"}],"outputs":[{"name":"","type":"bool","internalType":"bool"}],"stateMutability":"nonpayable"},{"type":"function","name":"userCredentials","inputs":[{"name":"","type":"address","internalType":"address"},{"name":"","type":"uint256","internalType":"uint256"}],"outputs":[{"name":"","type":"uint256","internalType":"uint256"}],"stateMutability":"view"},{"type":"function","name":"verificationKeys","inputs":[{"name":"","type":"string","internalType":"string"}],"outputs":[{"name":"keyHash","type":"bytes32","internalType":"bytes32"},{"name":"keyType","type":"string","internalType":"string"},{"name":"verificationKey","type":"bytes","internalType":"bytes"},{"name":"isActive","type":"bool","internalType":"bool"},{"name":"createdAt","type":"uint256","internalType":"uint256"},{"name":"creator","type":"address","internalType":"address"}],"stateMutability":"view"},{"type":"function","name":"verificationLogger","inputs":[],"outputs":[{"name":"","type":"address","internalType":"contract IVerificationLogger"}],"stateMutability":"view"},{"type":"function","name":"verifyCredentialProof","inputs":[{"name":"credentialHash","type":"bytes32","internalType":"bytes32"},{"name":"merkleProof","type":"bytes32[]","internalType":"bytes32[]"},{"name":"rootIndex","type":"uint256","internalType":"uint256"},{"name":"credentialIndex","type":"uint256","internalType":"uint256"}],"outputs":[{"name":"","type":"bool","internalType":"bool"}],"stateMutability":"view"},{"type":"function","name":"verifyZkProof","inputs":[{"name":"keyType","type":"string","internalType":"string"},{"name":"proof","type":"bytes","internalType":"bytes"},{"name":"publicInputs","type":"bytes","internalType":"bytes"}],"outputs":[{"name":"","type":"bool","internalType":"bool"}],"stateMutability":"nonpayable"},{"type":"event","name":"BatchSubmitted","inputs":[{"name":"batchId","type":"uint256","indexed":true,"internalType":"uint256"},{"name":"credentialCount","type":"uint256","indexed":false,"internalType":"uint256"},{"name":"batchRoot","type":"bytes32","indexed":false,"internalType":"bytes32"}],"anonymous":false},{"type":"event","name":"CredentialAnchored","inputs":[{"name":"credentialHash","type":"bytes32","indexed":true,"internalType":"bytes32"},{"name":"holder","type":"address","indexed":true,"internalType":"address"},{"name":"rootIndex","type":"uint256","indexed":false,"internalType":"uint256"}],"anonymous":false},{"type":"event","name":"CredentialRevoked","inputs":[{"name":"credentialHash","type":"bytes32","indexed":true,"internalType":"bytes32"},{"name":"reason","type":"string","indexed":false,"internalType":"string"}],"anonymous":false},{"type":"event","name":"MerkleRootUpdated","inputs":[{"name":"rootIndex","type":"uint256","indexed":true,"internalType":"uint256"},{"name":"newRoot","type":"bytes32","indexed":true,"internalType":"bytes32"},{"name":"credentialCount","type":"uint256","indexed":false,"internalType":"uint256"}],"anonymous":false},{"type":"event","name":"NullifierUsed","inputs":[{"name":"nullifierHash","type":"bytes32","indexed":true,"internalType":"bytes32"},{"name":"user","type":"address","indexed":true,"internalType":"address"}],"anonymous":false},{"type":"event","name":"ProofVerified","inputs":[{"name":"credentialHash","type":"bytes32","indexed":true,"internalType":"bytes32"},{"name":"verifier","type":"address","indexed":true,"internalType":"address"},{"name":"isValid","type":"bool","indexed":false,"internalType":"bool"}],"anonymous":false},{"type":"event","name":"RoleAdminChanged","inputs":[{"name":"role","type":"bytes32","indexed":true,"internalType":"bytes32"},{"name":"previousAdminRole","type":"bytes32","indexed":true,"internalType":"bytes32"},{"name":"newAdminRole","type":"bytes32","indexed":true,"internalType":"bytes32"}],"anonymous":false},{"type":"event","name":"RoleGranted","inputs":[{"name":"role","type":"bytes32","indexed":true,"internalType":"bytes32"},{"name":"account","type":"address","indexed":true,"internalType":"address"},{"name":"sender","type":"address","indexed":true,"internalType":"address"}],"anonymous":false},{"type":"event","name":"RoleRevoked","inputs":[{"name":"role","type":"bytes32","indexed":true,"internalType":"bytes32"},{"name":"account","type":"address","indexed":true,"internalType":"address"},{"name":"sender","type":"address","indexed":true,"internalType":"address"}],"anonymous":false},{"type":"event","name":"ZkKeyRegistered","inputs":[{"name":"keyType","type":"string","indexed":true,"internalType":"string"},{"name":"keyHash","type":"bytes32","indexed":false,"internalType":"bytes32"}],"anonymous":false},{"type":"error","name":"AccessControlBadConfirmation","inputs":[]},{"type":"error","name":"AccessControlUnauthorizedAccount","inputs":[{"name":"account","type":"address","internalType":"address"},{"name":"neededRole","type":"bytes32","internalType":"bytes32"}]},{"type":"error","name":"ReentrancyGuardReentrantCall","inputs":[]}],"bytecode":{"object":"0x60806040523461002f576100196100146100f4565b6102c4565b610021610034565b616282610aa9823961628290f35b61003a565b60405190565b5f80fd5b601f801991011690565b634e487b7160e01b5f52604160045260245ffd5b906100669061003e565b810190811060018060401b0382111761007e57604052565b610048565b9061009661008f610034565b928361005c565b565b5f80fd5b60018060a01b031690565b6100b09061009c565b90565b6100bc816100a7565b036100c357565b5f80fd5b905051906100d4826100b3565b565b906020828203126100ef576100ec915f016100c7565b90565b610098565b610112616d2b8038038061010781610083565b9283398101906100d6565b90565b90565b90565b61012f61012a61013492610115565b610118565b61009c565b90565b6101409061011b565b90565b60209181520190565b5f7f496e76616c696420766572696669636174696f6e206c6f676765720000000000910152565b610180601b602092610143565b6101898161014c565b0190565b6101a29060208101905f818303910152610173565b90565b156101ac57565b6101b4610034565b62461bcd60e51b8152806101ca6004820161018d565b0390fd5b90565b5f1b90565b6101ea6101e56101ef92610115565b6101d1565b6101ce565b90565b6101fb5f6101d6565b90565b7f607a7ccffefeede0814aa8ed2e8a1e5d82523d9aa8434880f930e2e3ca22a18690565b7f0ce23c3e399818cfee81a7ab0880f714e53d7672b08df0fa62f2843416e1ea0990565b61025a61025561025f9261009c565b610118565b61009c565b90565b61026b90610246565b90565b61027790610262565b90565b9061028b60018060a01b03916101d1565b9181191691161790565b61029e90610262565b90565b90565b906102b96102b46102c092610295565b6102a1565b825461027a565b9055565b61033661033d916102d36103cb565b6102f8816102f16102eb6102e65f610137565b6100a7565b916100a7565b14156101a5565b61030a6103036101f2565b3390610482565b5061031d6103166101fe565b3390610482565b50610330610329610222565b3390610482565b5061026e565b600d6102a4565b610345610980565b565b90565b90565b61036161035c61036692610347565b610118565b61034a565b90565b610373600161034d565b90565b906103825f19916101d1565b9181191691161790565b6103a061039b6103a59261034a565b610118565b61034a565b90565b90565b906103c06103bb6103c79261038c565b6103a8565b8254610376565b9055565b6103dd6103d6610369565b60016103ab565b565b5f90565b151590565b6103f1906101ce565b90565b906103fe906103e8565b5f5260205260405f2090565b61041390610246565b90565b61041f9061040a565b90565b9061042c90610416565b5f5260205260405f2090565b9061044460ff916101d1565b9181191691161790565b610457906103e3565b90565b90565b9061047261046d6104799261044e565b61045a565b8254610438565b9055565b5f0190565b61048a6103df565b5061049f610499828490610a6e565b156103e3565b5f14610527576104c660016104c15f6104b98186906103f4565b018590610422565b61045d565b906104cf610a9b565b9061050c6105066105007f2f8788117e7eff1d82e926ec794901d17c78024a50270940304540a733656f0d956103e8565b92610416565b92610416565b92610515610034565b8061051f8161047d565b0390a4600190565b50505f90565b610538610100610083565b90565b90610545906101ce565b9052565b906105539061034a565b9052565b61056b61056661057092610115565b610118565b61034a565b90565b9061057d906103e3565b9052565b60018060401b03811161059d5761059960209161003e565b0190565b610048565b906105b46105af83610581565b610083565b918252565b5f7f67656e6573697300000000000000000000000000000000000000000000000000910152565b6105ea60076105a2565b906105f7602083016105b9565b565b6106016105e0565b90565b52565b9061061190610557565b5f5260205260405f2090565b61062790516101ce565b90565b5f1c90565b6106389061062a565b90565b9061065061064b610657926103e8565b61062f565b8254610376565b9055565b610665905161034a565b90565b61067290516103e3565b90565b5190565b5190565b634e487b7160e01b5f52602260045260245ffd5b90600160028304921680156106b1575b60208310146106ac57565b61067d565b91607f16916106a1565b5f5260205f2090565b601f602091010490565b1b90565b919060086106ed9102916106e75f19846106ce565b926106ce565b9181191691161790565b919061070d6107086107159361038c565b6103a8565b9083546106d2565b9055565b5f90565b61072f91610729610719565b916106f7565b565b5b81811061073d575050565b8061074a5f60019361071d565b01610732565b9190601f8111610760575b505050565b61076c610791936106bb565b906020610778846106c4565b83019310610799575b61078a906106c4565b0190610731565b5f808061075b565b915061078a81929050610781565b1c90565b906107bb905f19906008026107a7565b191690565b816107ca916107ab565b906002021790565b906107dc81610679565b9060018060401b03821161089a576107fe826107f88554610691565b85610750565b602090601f831160011461083257918091610821935f92610826575b50506107c0565b90555b565b90915001515f8061081a565b601f19831691610841856106bb565b925f5b81811061088257509160029391856001969410610868575b50505002019055610824565b610878910151601f8416906107ab565b90555f808061085c565b91936020600181928787015181550195019201610844565b610048565b906108a9916107d2565b565b9061096c60e06007610972946108ce5f82016108c85f880161061d565b9061063b565b6108e7600182016108e16020880161065b565b906103ab565b610900600282016108fa6040880161065b565b906103ab565b610919600382016109136060880161065b565b906103ab565b6109326004820161092c6080880161065b565b906103ab565b61094b6005820161094560a08801610668565b9061045d565b6109646006820161095e60c0880161061d565b9061063b565b019201610675565b9061089f565b565b9061097e916108ab565b565b5f61098a906101d6565b42435f5f906001925f61099c906101d6565b946109a561052d565b965f8801906109b39161053b565b60208701906109c191610549565b60408601906109cf91610549565b6109d890610557565b60608501906109e691610549565b6109ef90610557565b60808401906109fd91610549565b60a0830190610a0b91610573565b60c0820190610a199161053b565b610a216105f9565b60e0820190610a2f91610604565b60025f610a3b91610607565b90610a4591610974565b565b60ff1690565b610a59610a5e9161062a565b610a47565b90565b610a6b9054610a4d565b90565b610a94915f610a89610a8f93610a826103df565b50826103f4565b01610422565b610a61565b90565b5f90565b610aa3610a97565b50339056fe60806040526004361015610013575b61228f565b61001d5f3561029c565b806301ffc9a7146102975780630a87458d146102925780631513d62b1461028d57806322dc7b4c14610288578063248a9ca31461028357806327c56e321461027e5780632997e86b146102795780632f2ff15d1461027457806332e54c791461026f57806336568abe1461026a5780633bf399c9146102655780633f1067e514610260578063493814b51461025b57806349faa4d4146102565780635afdaabe1461025157806368233eef1461024c5780636b4169c3146102475780636dc158eb1461024257806371c5ecb11461023d5780637871f9a41461023857806378f908e1146102335780638270482d1461022e578063888a2a061461022957806390eeb02b1461022457806391d148541461021f5780639364ace91461021a5780639ef284fd14610215578063a217fddf14610210578063add6bf7d1461020b578063ba19171514610206578063be86b67614610201578063c76d2919146101fc578063d547741f146101f7578063dac46a62146101f2578063e1300c88146101ed578063e2a615b6146101e8578063e4473088146101e3578063e7705db6146101de578063f1650536146101d95763fb49a0b30361000e57612259565b6121b1565b612145565b6120e1565b612099565b612013565b611f6c565b611ee7565b611eb2565b611dca565b611cdf565b611a21565b6117fe565b61178e565b611729565b6115fe565b6115c9565b611583565b6114d4565b611466565b61133e565b6111c0565b610ea4565b610e6b565b610de9565b610da1565b610c73565b610c05565b610b8b565b610b26565b6108f2565b6108bd565b610889565b6107ed565b610750565b61069a565b610643565b6105ca565b610526565b610328565b60e01c90565b60405190565b5f80fd5b5f80fd5b5f80fd5b63ffffffff60e01b1690565b6102c9816102b4565b036102d057565b5f80fd5b905035906102e1826102c0565b565b906020828203126102fc576102f9915f016102d4565b90565b6102ac565b151590565b61030f90610301565b9052565b9190610326905f60208501940190610306565b565b346103585761035461034361033e3660046102e3565b612297565b61034b6102a2565b91829182610313565b0390f35b6102a8565b5f80fd5b5f80fd5b601f801991011690565b634e487b7160e01b5f52604160045260245ffd5b9061038d90610365565b810190811067ffffffffffffffff8211176103a757604052565b61036f565b906103bf6103b86102a2565b9283610383565b565b67ffffffffffffffff81116103df576103db602091610365565b0190565b61036f565b90825f939282370152565b909291926104046103ff826103c1565b6103ac565b938185526020850190828401116104205761041e926103e4565b565b610361565b9080601f8301121561044357816020610440933591016103ef565b90565b61035d565b67ffffffffffffffff811161046657610462602091610365565b0190565b61036f565b9092919261048061047b82610448565b6103ac565b9381855260208501908284011161049c5761049a926103e4565b565b610361565b9080601f830112156104bf578160206104bc9335910161046b565b90565b61035d565b91909160408184031261051c575f81013567ffffffffffffffff811161051757836104f0918301610425565b92602082013567ffffffffffffffff81116105125761050f92016104a1565b90565b6102b0565b6102b0565b6102ac565b5f0190565b346105555761053f6105393660046104c4565b90612ace565b6105476102a2565b8061055181610521565b0390f35b6102a8565b5f91031261056457565b6102ac565b1c90565b90565b6105809060086105859302610569565b61056d565b90565b906105939154610570565b90565b6105a2600b5f90610588565b90565b90565b6105b1906105a5565b9052565b91906105c8905f602085019401906105a8565b565b346105fa576105da36600461055a565b6105f66105e5610596565b6105ed6102a2565b918291826105b5565b0390f35b6102a8565b90565b61060b816105ff565b0361061257565b5f80fd5b9050359061062382610602565b565b9060208282031261063e5761063b915f01610616565b90565b6102ac565b346106735761066f61065e610659366004610625565b612ada565b6106666102a2565b91829182610313565b0390f35b6102a8565b610681906105ff565b9052565b9190610698905f60208501940190610678565b565b346106ca576106c66106b56106b0366004610625565b612b13565b6106bd6102a2565b91829182610685565b0390f35b6102a8565b9160608383031261074b575f83013567ffffffffffffffff811161074657826106f9918501610425565b92602081013567ffffffffffffffff8111610741578361071a9183016104a1565b92604082013567ffffffffffffffff811161073c5761073992016104a1565b90565b6102b0565b6102b0565b6102b0565b6102ac565b346107815761077d61076c6107663660046106cf565b91612e90565b6107746102a2565b91829182610313565b0390f35b6102a8565b61078f906105ff565b90565b9061079c90610786565b5f5260205260405f2090565b60ff1690565b6107be9060086107c39302610569565b6107a8565b90565b906107d191546107ae565b90565b6107ea906107e56004915f92610792565b6107c6565b90565b3461081d57610819610808610803366004610625565b6107d4565b6108106102a2565b91829182610313565b0390f35b6102a8565b60018060a01b031690565b61083690610822565b90565b6108428161082d565b0361084957565b5f80fd5b9050359061085a82610839565b565b91906040838203126108845780610878610881925f8601610616565b9360200161084d565b90565b6102ac565b346108b8576108a261089c36600461085c565b90612ed0565b6108aa6102a2565b806108b481610521565b0390f35b6102a8565b346108ed576108e96108d86108d3366004610625565b612fd2565b6108e06102a2565b91829182610313565b0390f35b6102a8565b346109215761090b61090536600461085c565b906130f4565b6109136102a2565b8061091d81610521565b0390f35b6102a8565b61092f816105a5565b0361093657565b5f80fd5b9050359061094782610926565b565b9190604083820312610971578061096561096e925f860161093a565b9360200161093a565b90565b6102ac565b5190565b60209181520190565b60200190565b610992906105ff565b9052565b61099f906105a5565b9052565b6109ac90610301565b9052565b5190565b60209181520190565b90825f9392825e0152565b6109e76109f06020936109f5936109de816109b0565b938480936109b4565b958691016109bd565b610365565b0190565b610a919160e0610100820192610a155f8201515f850190610989565b610a2760208201516020850190610996565b610a3960408201516040850190610996565b610a4b60608201516060850190610996565b610a5d60808201516080850190610996565b610a6f60a082015160a08501906109a3565b610a8160c082015160c0850190610989565b01519060e08184039101526109c8565b90565b90610a9e916109f9565b90565b60200190565b90610abb610ab483610976565b809261097a565b9081610acc60208302840194610983565b925f915b838310610adf57505050505090565b90919293946020610b01610afb83856001950387528951610a94565b97610aa1565b9301930191939290610ad0565b610b239160208201915f818403910152610aa7565b90565b34610b5757610b53610b42610b3c366004610949565b90613476565b610b4a6102a2565b91829182610b0e565b0390f35b6102a8565b7f607a7ccffefeede0814aa8ed2e8a1e5d82523d9aa8434880f930e2e3ca22a18690565b610b88610b5c565b90565b34610bbb57610b9b36600461055a565b610bb7610ba6610b80565b610bae6102a2565b91829182610685565b0390f35b6102a8565b919091604081840312610c0057610bd9835f8301610616565b92602082013567ffffffffffffffff8111610bfb57610bf89201610425565b90565b6102b0565b6102ac565b34610c3457610c1e610c18366004610bc0565b906138f2565b610c266102a2565b80610c3081610521565b0390f35b6102a8565b90565b90565b610c53610c4e610c5892610c39565b610c3c565b6105a5565b90565b610c656064610c3f565b90565b610c70610c5b565b90565b34610ca357610c8336600461055a565b610c9f610c8e610c68565b610c966102a2565b918291826105b5565b0390f35b6102a8565b67ffffffffffffffff8111610cc05760208091020190565b61036f565b5f80fd5b90929192610cde610cd982610ca8565b6103ac565b9381855260208086019202830192818411610d1b57915b838310610d025750505050565b60208091610d108486610616565b815201920191610cf5565b610cc5565b9080601f83011215610d3e57816020610d3b93359101610cc9565b90565b61035d565b608081830312610d9c57610d59825f8301610616565b92602082013567ffffffffffffffff8111610d9757610d7d84610d94928501610d20565b93610d8b816040860161093a565b9360600161093a565b90565b6102b0565b6102ac565b34610dd557610dd1610dc0610db7366004610d43565b92919091613980565b610dc86102a2565b91829182610313565b0390f35b6102a8565b610de6600a5f90610588565b90565b34610e1957610df936600461055a565b610e15610e04610dda565b610e0c6102a2565b918291826105b5565b0390f35b6102a8565b90959492610e6994610e58610e6292610e4e608096610e4460a088019c5f8901906105a8565b60208701906105a8565b60408501906105a8565b60608301906105a8565b01906105a8565b565b34610e9f57610e7b36600461055a565b610e9b610e866139e0565b91610e929593956102a2565b95869586610e1e565b0390f35b6102a8565b34610ed457610ed0610ebf610eba366004610625565b613c0b565b610ec76102a2565b91829182610313565b0390f35b6102a8565b90602082820312610ef257610eef915f0161093a565b90565b6102ac565b610f0b610f06610f10926105a5565b610c3c565b6105a5565b90565b90610f1d90610ef7565b5f5260205260405f2090565b5f1c90565b90565b610f3d610f4291610f29565b610f2e565b90565b610f4f9054610f31565b90565b610f5e610f6391610f29565b61056d565b90565b610f709054610f52565b90565b610f7f610f8491610f29565b6107a8565b90565b610f919054610f73565b90565b634e487b7160e01b5f52602260045260245ffd5b9060016002830492168015610fc8575b6020831014610fc357565b610f94565b91607f1691610fb8565b5f5260205f2090565b905f9291805490610ff5610fee83610fa8565b80946109b4565b916001811690815f1461104c5750600114611010575b505050565b61101d9192939450610fd2565b915f925b81841061103457505001905f808061100b565b60018160209295939554848601520191019290611021565b92949550505060ff19168252151560200201905f808061100b565b9061107191610fdb565b90565b9061109461108d926110846102a2565b93848092611067565b0383610383565b565b6110a1906002610f13565b906110ad5f8301610f45565b916110ba60018201610f66565b916110c760028301610f66565b916110d460038201610f66565b916110e160048301610f66565b916110ee60058201610f87565b91611107600761110060068501610f45565b9301611074565b90565b60209181520190565b61113261113b60209361114093611129816109b0565b9384809361110a565b958691016109bd565b610365565b0190565b95939196949290966101008701975f880161115e91610678565b6020870161116b916105a8565b60408601611178916105a8565b60608501611185916105a8565b60808401611192916105a8565b60a0830161119f91610306565b60c082016111ac91610678565b8082039060e001526111bd91611113565b90565b346111fa576111f66111db6111d6366004610ed9565b611096565b946111ed9896989491949392936102a2565b98899889611144565b0390f35b6102a8565b9061120990610786565b5f5260205260405f2090565b60018060a01b031690565b61122c61123191610f29565b611215565b90565b61123e9054611220565b90565b61124c9060036111ff565b906112585f8301610f45565b9161126560018201611234565b9161127260028301610f66565b9161127f60048201610f66565b9161128c60058301610f87565b9161129960068201610f66565b916112b260086112ab60078501611074565b9301610f45565b90565b6112be9061082d565b9052565b98979561131d60e0966113136113349760608e61130c611327989a61133c9f9a611302906112f861010086019e5f870190610678565b60208501906112b5565b60408301906105a8565b01906105a8565b60808c0190610306565b60a08a01906105a8565b87820360c0890152611113565b940190610678565b565b3461137857611374611359611354366004610625565b611241565b9461136b9896989491949392936102a2565b988998896112c2565b0390f35b6102a8565b9061138790610ef7565b5f5260205260405f2090565b61139e90600561137d565b6113a95f8201610f66565b916113b660028301611234565b916113c360038201610f66565b916113d060048301610f66565b916113dd60058201610f87565b916113f660076113ef60068501610f45565b9301611074565b90565b939461144261146398966114386114569661142e61144c969b9761142460e08c019d5f8d01906105a8565b60208b01906112b5565b60408901906105a8565b60608701906105a8565b6080850190610306565b60a0830190610678565b60c0818403910152611113565b90565b3461149d5761149961148161147c366004610ed9565b611393565b936114909795979391936102a2565b978897886113f9565b0390f35b6102a8565b6040906114cb6114d294969593966114c160608401985f850190610678565b60208301906105a8565b01906105a8565b565b34611507576114e436600461055a565b6115036114ef613ca5565b6114fa9391936102a2565b938493846114a2565b0390f35b6102a8565b9060808282031261157e57611523815f8401610616565b92611531826020850161084d565b92604081013567ffffffffffffffff81116115795783611552918301610425565b92606082013567ffffffffffffffff8111611574576115719201610425565b90565b6102b0565b6102b0565b6102ac565b346115b55761159f61159636600461150c565b92919091613f20565b6115a76102a2565b806115b181610521565b0390f35b6102a8565b6115c660095f90610588565b90565b346115f9576115d936600461055a565b6115f56115e46115ba565b6115ec6102a2565b918291826105b5565b0390f35b6102a8565b3461162f5761162b61161a61161436600461085c565b90613f44565b6116226102a2565b91829182610313565b0390f35b6102a8565b919060408382031261165c5780611650611659925f860161084d565b9360200161093a565b90565b6102ac565b61167561167061167a92610822565b610c3c565b610822565b90565b61168690611661565b90565b6116929061167d565b90565b9061169f90611689565b5f5260205260405f2090565b634e487b7160e01b5f52603260045260245ffd5b5490565b5f5260205f2090565b6116d5816116bf565b8210156116ef576116e76001916116c3565b910201905f90565b6116ab565b6116ff906007611695565b611708816116bf565b821015611725576117229161171c916116cc565b90610588565b90565b5f80fd5b3461175a5761175661174561173f366004611634565b906116f4565b61174d6102a2565b918291826105b5565b0390f35b6102a8565b9061176990610786565b5f5260205260405f2090565b61178b906117866008915f9261175f565b610588565b90565b346117be576117ba6117a96117a4366004610625565b611775565b6117b16102a2565b918291826105b5565b0390f35b6102a8565b90565b5f1b90565b6117df6117da6117e4926117c3565b6117c6565b6105ff565b90565b6117f05f6117cb565b90565b6117fb6117e7565b90565b3461182e5761180e36600461055a565b61182a6118196117f3565b6118216102a2565b91829182610685565b0390f35b6102a8565b67ffffffffffffffff811161184b5760208091020190565b61036f565b9092919261186561186082611833565b6103ac565b93818552602080860192028301928184116118a257915b8383106118895750505050565b60208091611897848661084d565b81520192019161187c565b610cc5565b9080601f830112156118c5578160206118c293359101611850565b90565b61035d565b67ffffffffffffffff81116118e25760208091020190565b61036f565b9291906118fb6118f6826118ca565b6103ac565b93818552602080860192028101918383116119525781905b838210611921575050505050565b813567ffffffffffffffff811161194d576020916119428784938701610425565b815201910190611913565b61035d565b610cc5565b9080601f8301121561197557816020611972933591016118e7565b90565b61035d565b90608082820312611a1c575f82013567ffffffffffffffff8111611a1757816119a4918401610d20565b92602083013567ffffffffffffffff8111611a1257826119c59185016118a7565b92604081013567ffffffffffffffff8111611a0d57836119e6918301611957565b92606082013567ffffffffffffffff8111611a0857611a059201610425565b90565b6102b0565b6102b0565b6102b0565b6102b0565b6102ac565b34611a5557611a51611a40611a3736600461197a565b92919091614a3d565b611a486102a2565b918291826105b5565b0390f35b6102a8565b90602082820312611a8a575f82013567ffffffffffffffff8111611a8557611a829201610425565b90565b6102b0565b6102ac565b905090565b611ab9611ab092602092611aa7816109b0565b94858093611a8f565b938491016109bd565b0190565b90565b611acc611ad1916105a5565b611abd565b9052565b611ae5611aec9160209493611a94565b8092611ac0565b0190565b611b04611afb6102a2565b92839283611ad5565b03902090565b611b1391611af0565b90565b60209181520190565b5f5260205f2090565b905f9291805490611b42611b3b83610fa8565b8094611b16565b916001811690815f14611b995750600114611b5d575b505050565b611b6a9192939450611b1f565b915f925b818410611b8157505001905f8080611b58565b60018160209295939554848601520191019290611b6e565b92949550505060ff19168252151560200201905f8080611b58565b90611bbe91611b28565b90565b90611be1611bda92611bd16102a2565b93848092611bb4565b0383610383565b565b611bee906006611b0a565b90611bfa5f8301610f45565b91611c0760018201611074565b91611c1460028301611bc1565b91611c2160038201610f87565b91611c3a6005611c3360048501610f66565b9301611234565b90565b5190565b60209181520190565b611c69611c72602093611c7793611c6081611c3d565b93848093611c41565b958691016109bd565b610365565b0190565b9194611ccc611cc160a095611cb3611cd695611cdd9a9c9b999c611ca660c08a01925f8b0190610678565b88820360208a0152611113565b908682036040880152611c4a565b986060850190610306565b60808301906105a8565b01906112b5565b565b34611d1657611d12611cfa611cf5366004611a5a565b611be3565b92611d099694969291926102a2565b96879687611c7b565b0390f35b6102a8565b5190565b60209181520190565b60200190565b90611d3b81602093610989565b0190565b60200190565b90611d62611d5c611d5584611d1b565b8093611d1f565b92611d28565b905f5b818110611d725750505090565b909192611d8b611d856001928651611d2e565b94611d3f565b9101919091611d65565b604090611dc1611db6611dc89597969460608401908482035f860152611d45565b9660208301906105a8565b01906105a8565b565b34611dfd57611df9611de5611de0366004610625565b614aae565b611df09391936102a2565b93849384611d95565b0390f35b6102a8565b90602082820312611e1b57611e18915f0161084d565b90565b6102ac565b5190565b60209181520190565b60200190565b90611e4081602093610996565b0190565b60200190565b90611e67611e61611e5a84611e20565b8093611e24565b92611e2d565b905f5b818110611e775750505090565b909192611e90611e8a6001928651611e33565b94611e44565b9101919091611e6a565b611eaf9160208201915f818403910152611e4a565b90565b34611ee257611ede611ecd611ec8366004611e02565b614d76565b611ed56102a2565b91829182611e9a565b0390f35b6102a8565b34611f1657611f00611efa36600461085c565b90614dbf565b611f086102a2565b80611f1281610521565b0390f35b6102a8565b9193611f52611f699694611f48611f5c9497611f3e60a08801995f8901906112b5565b60208701906105a8565b60408501906105a8565b6060830190610306565b6080818403910152611113565b90565b34611fa057611f9c611f87611f82366004610625565b614dd4565b91611f939593956102a2565b95869586611f1b565b0390f35b6102a8565b60018060a01b031690565b611fc0906008611fc59302610569565b611fa5565b90565b90611fd39154611fb0565b90565b611fe2600d5f90611fc8565b90565b611fee9061167d565b90565b611ffa90611fe5565b9052565b9190612011905f60208501940190611ff1565b565b346120435761202336600461055a565b61203f61202e611fd6565b6120366102a2565b91829182611ffe565b0390f35b6102a8565b906120979461208660809498979561207c6120716120909560a08801908882035f8a0152611d45565b9a60208701906112b5565b60408501906105a8565b6060830190610306565b0190610678565b565b346120cd576120c96120b46120af366004610ed9565b614f38565b916120c09593956102a2565b95869586612048565b0390f35b6102a8565b6120de600c5f90610588565b90565b34612111576120f136600461055a565b61210d6120fc6120d2565b6121046102a2565b918291826105b5565b0390f35b6102a8565b7f0ce23c3e399818cfee81a7ab0880f714e53d7672b08df0fa62f2843416e1ea0990565b612142612116565b90565b346121755761215536600461055a565b61217161216061213a565b6121686102a2565b91829182610685565b0390f35b6102a8565b90565b61219161218c6121969261217a565b610c3c565b6105a5565b90565b6121a3602061217d565b90565b6121ae612199565b90565b346121e1576121c136600461055a565b6121dd6121cc6121a6565b6121d46102a2565b918291826105b5565b0390f35b6102a8565b906121f090610ef7565b5f5260205260405f2090565b9061220690610ef7565b5f5260205260405f2090565b6122229060086122279302610569565b610f2e565b90565b906122359154612212565b90565b6122516122569261224c600e935f946121e6565b6121fc565b61222a565b90565b3461228a5761228661227561226f366004610949565b90612238565b61227d6102a2565b91829182610685565b0390f35b6102a8565b5f80fd5b5f90565b61229f612293565b50806122ba6122b4637965db0b60e01b6102b4565b916102b4565b149081156122c7575b5090565b6122d19150614fb9565b5f6122c3565b906122f1916122ec6122e7610b5c565b614fdf565b61293a565b565b60200190565b61230360c06103ac565b90565b90612310906105ff565b9052565b52565b52565b9061232490610301565b9052565b90612332906105a5565b9052565b906123409061082d565b9052565b61234e90516105ff565b90565b9061235d5f19916117c6565b9181191691161790565b61237090610f29565b90565b9061238861238361238f92610786565b612367565b8254612351565b9055565b5190565b601f602091010490565b1b90565b919060086123c09102916123ba5f19846123a1565b926123a1565b9181191691161790565b90565b91906123e36123de6123eb93610ef7565b6123ca565b9083546123a5565b9055565b5f90565b612405916123ff6123ef565b916123cd565b565b5b818110612413575050565b806124205f6001936123f3565b01612408565b9190601f8111612436575b505050565b61244261246793610fd2565b90602061244e84612397565b8301931061246f575b61246090612397565b0190612407565b5f8080612431565b915061246081929050612457565b9061248d905f1990600802610569565b191690565b8161249c9161247d565b906002021790565b906124ae816109b0565b9067ffffffffffffffff821161256e576124d2826124cc8554610fa8565b85612426565b602090601f8311600114612506579180916124f5935f926124fa575b5050612492565b90555b565b90915001515f806124ee565b601f1983169161251585610fd2565b925f5b8181106125565750916002939185600196941061253c575b505050020190556124f8565b61254c910151601f84169061247d565b90555f8080612530565b91936020600181928787015181550195019201612518565b61036f565b9061257d916124a4565b565b5190565b9190601f8111612593575b505050565b61259f6125c493611b1f565b9060206125ab84612397565b830193106125cc575b6125bd90612397565b0190612407565b5f808061258e565b91506125bd819290506125b4565b906125e481611c3d565b9067ffffffffffffffff82116126a457612608826126028554610fa8565b85612583565b602090601f831160011461263c5791809161262b935f92612630575b5050612492565b90555b565b90915001515f80612624565b601f1983169161264b85611b1f565b925f5b81811061268c57509160029391856001969410612672575b5050500201905561262e565b612682910151601f84169061247d565b90555f8080612666565b9193602060018192878701518155019501920161264e565b61036f565b906126b3916125da565b565b6126bf9051610301565b90565b906126ce60ff916117c6565b9181191691161790565b6126e190610301565b90565b90565b906126fc6126f7612703926126d8565b6126e4565b82546126c2565b9055565b61271190516105a5565b90565b9061272961272461273092610ef7565b6123ca565b8254612351565b9055565b61273e905161082d565b90565b9061275260018060a01b03916117c6565b9181191691161790565b90565b9061277461276f61277b92611689565b61275c565b8254612741565b9055565b9061280e60a06005612814946127a25f820161279c5f8801612344565b90612373565b6127bb600182016127b560208801612393565b90612573565b6127d4600282016127ce6040880161257f565b906126a9565b6127ed600382016127e7606088016126b5565b906126e7565b6128066004820161280060808801612707565b90612714565b019201612734565b9061275f565b565b906128209161277f565b565b61282e61283391610f29565b611fa5565b90565b6128409054612822565b90565b90565b612852612857916105ff565b612843565b9052565b61286b6128729160209493611a94565b8092612846565b0190565b5f80fd5b60e01b90565b5f91031261288a57565b6102ac565b5f7f5a4b5f4b45595f52454749535445524544000000000000000000000000000000910152565b6128c3601160209261110a565b6128cc8161288f565b0190565b9160406129019294936128fa6128ef606083018381035f8501526128b6565b9660208301906112b5565b0190610678565b565b61290b6102a2565b3d5f823e3d90fd5b61291c91611a94565b90565b6129349061292b6102a2565b91829182612913565b03902090565b6129bd8261295061294a82611c3d565b916122f3565b20926129ac84916129a3859161299a60016129914293612988339761297f6129766122f9565b9b5f8d01612306565b60208b01612314565b60408901612317565b6060870161231a565b60808501612328565b60a08301612336565b6129b860068490611b0a565b612816565b6129cf6129ca600d612836565b611fe5565b635260590a3383612a0186916129f26129e66102a2565b9384926020840161285b565b60208201810382520382610383565b612a13612a0d82611c3d565b916122f3565b2092803b15612ac957612a395f8094612a44612a2d6102a2565b9788968795869461287a565b8452600484016128d0565b03925af18015612ac457612a98575b50612a93612a817fa3e7e77b5f114dec9b0a268f68be1b87a4c72753e9376cbfbd2fd4c09fcf22b59261291f565b92612a8a6102a2565b91829182610685565b0390a2565b612ab7905f3d8111612abd575b612aaf8183610383565b810190612880565b5f612a53565b503d612aa5565b612903565b612876565b90612ad8916122d7565b565b612af1612af691612ae9612293565b506004610792565b610f87565b90565b5f90565b90612b0790610786565b5f5260205260405f2090565b6001612b2b612b3192612b24612af9565b505f612afd565b01610f45565b90565b90612b50939291612b4b612b46612116565b614fdf565b612d81565b90565b612b5d60c06103ac565b90565b90612bf7612bee6005612b71612b53565b94612b88612b805f8301610f45565b5f8801612306565b612ba0612b9760018301611074565b60208801612314565b612bb8612baf60028301611bc1565b60408801612317565b612bd0612bc760038301610f87565b6060880161231a565b612be8612bdf60048301610f66565b60808801612328565b01611234565b60a08401612336565b565b612c0290612b60565b90565b5f7f566572696669636174696f6e206b6579206e6f74206163746976650000000000910152565b612c39601b60209261110a565b612c4281612c05565b0190565b612c5b9060208101905f818303910152612c2c565b90565b15612c6557565b612c6d6102a2565b62461bcd60e51b815280612c8360048201612c46565b0390fd5b905090565b612cb1612ca892602092612c9f81611c3d565b94858093612c87565b938491016109bd565b0190565b60f81b90565b612cc490612cb5565b90565b612cd090612cbb565b90565b612cdf612ce491610301565b612cc7565b9052565b60019392612cfc612d0292612d0994611a94565b90612c8c565b8092612cd3565b0190565b5f7f5a4b5f50524f4f465f5645524946494544000000000000000000000000000000910152565b612d41601160209261110a565b612d4a81612d0d565b0190565b916040612d7f929493612d78612d6d606083018381035f850152612d34565b9660208301906112b5565b0190610678565b565b92612dbe919293506040612d9f612d9a60068690611b0a565b612bf9565b612db3612dae606083016126b5565b612c5e565b015190849091614ff3565b91612dd1612dcc600d612836565b611fe5565b91635260590a91612e043392612df587612de96102a2565b94859360208501612ce8565b60208201810382520382610383565b612e16612e1082611c3d565b916122f3565b2092803b15612e8b57612e3c5f8094612e47612e306102a2565b9788968795869461287a565b845260048401612d4e565b03925af18015612e8657612e5a575b5090565b612e79905f3d8111612e7f575b612e718183610383565b810190612880565b5f612e56565b503d612e67565b612903565b612876565b90612ea39291612e9e612293565b612b34565b90565b90612ec191612ebc612eb782612b13565b614fdf565b612ec3565b565b90612ecd91615071565b50565b90612eda91612ea6565b565b5f7f4e756c6c696669657220616c7265616479207573656400000000000000000000910152565b612f10601660209261110a565b612f1981612edc565b0190565b612f329060208101905f818303910152612f03565b90565b15612f3c57565b612f446102a2565b62461bcd60e51b815280612f5a60048201612f1d565b0390fd5b5f7f4e554c4c49464945525f55534544000000000000000000000000000000000000910152565b612f92600e60209261110a565b612f9b81612f5e565b0190565b916040612fd0929493612fc9612fbe606083018381035f850152612f85565b9660208301906112b5565b0190610678565b565b612fda612293565b50613000612ffb612ff5612ff060048590610792565b610f87565b15610301565b612f35565b613016600161301160048490610792565b6126e7565b613028613023600d612836565b611fe5565b635260590a338392803b156130ef576130545f809461305f6130486102a2565b9788968795869461287a565b845260048401612f9f565b03925af180156130ea576130be575b50336130a361309d7f17a971f4f4d9677ca183a8819b6b1cfb84ee86aaa80b1805d2dba12abdc0167193610786565b91611689565b916130ac6102a2565b806130b681610521565b0390a3600190565b6130dd905f3d81116130e3575b6130d58183610383565b810190612880565b5f61306e565b503d6130cb565b612903565b612876565b908061310f61310961310461511c565b61082d565b9161082d565b036131205761311d91615129565b50565b5f63334bd91960e11b81528061313860048201610521565b0390fd5b606090565b5f7f496e76616c69642072616e676500000000000000000000000000000000000000910152565b613175600d60209261110a565b61317e81613141565b0190565b6131979060208101905f818303910152613168565b90565b156131a157565b6131a96102a2565b62461bcd60e51b8152806131bf60048201613182565b0390fd5b634e487b7160e01b5f52601160045260245ffd5b6131e66131ec919392936105a5565b926105a5565b82039182116131f757565b6131c3565b90565b61321361320e613218926131fc565b610c3c565b6105a5565b90565b61322a613230919392936105a5565b926105a5565b820180921161323b57565b6131c3565b67ffffffffffffffff81116132585760208091020190565b61036f565b9061326f61326a83613240565b6103ac565b918252565b61327f6101006103ac565b90565b5f90565b5f90565b5f90565b606090565b61329b613274565b90602080808080808080896132ae613282565b8152016132b9613286565b8152016132c4613286565b8152016132cf613286565b8152016132da613286565b8152016132e561328a565b8152016132f0613282565b8152016132fb61328e565b81525050565b613309613293565b90565b5f5b82811061331a57505050565b602090613325613301565b818401520161330e565b9061335461333c8361325d565b9260208061334a8693613240565b920191039061330c565b565b61336a61336561336f926117c3565b610c3c565b6105a5565b90565b600161337e91016105a5565b90565b9061338b82610976565b81101561339c576020809102010190565b6116ab565b9061346861345f60076133b2613274565b946133c96133c15f8301610f45565b5f8801612306565b6133e16133d860018301610f66565b60208801612328565b6133f96133f060028301610f66565b60408801612328565b61341161340860038301610f66565b60608801612328565b61342961342060048301610f66565b60808801612328565b61344161343860058301610f87565b60a0880161231a565b61345961345060068301610f45565b60c08801612306565b01611074565b60e08401612314565b565b613473906133a1565b90565b91906134b36134c39161348761313c565b508461349b613495836105a5565b916105a5565b11158061353c575b6134ac9061319a565b84906131d7565b6134bd60016131ff565b9061321b565b916134cd8361332f565b916134d75f613356565b5b806134eb6134e5876105a5565b916105a5565b1015613535576135309061352961350e600261350887859061321b565b90610f13565b86613519849261346a565b6135238383613381565b52613381565b5150613372565b6134d8565b5092505090565b506134ac8161355c6135566135516009610f66565b6105a5565b916105a5565b111590506134a3565b9061357f9161357a613575610b5c565b614fdf565b61374b565b565b90565b5f7f43726564656e7469616c206e6f7420666f756e64000000000000000000000000910152565b6135b8601460209261110a565b6135c181613584565b0190565b6135da9060208101905f8183039101526135ab565b90565b156135e457565b6135ec6102a2565b62461bcd60e51b815280613602600482016135c5565b0390fd5b5f7f416c7265616479207265766f6b65640000000000000000000000000000000000910152565b61363a600f60209261110a565b61364381613606565b0190565b61365c9060208101905f81830391015261362d565b90565b1561366657565b61366e6102a2565b62461bcd60e51b81528061368460048201613647565b0390fd5b613691906105a5565b5f19811461369f5760010190565b6131c3565b806136b56020926136bc9594612846565b0190611a94565b90565b5f7f43524544454e5449414c5f5245564f4b45440000000000000000000000000000910152565b6136f3601260209261110a565b6136fc816136bf565b0190565b91604061373192949361372a61371f606083018381035f8501526136e6565b9660208301906112b5565b0190610678565b565b6137489160208201915f818403910152611113565b90565b61375f61375a600383906111ff565b613581565b61378e61376d5f8301610f45565b61378761378161377c5f6117cb565b6105ff565b916105ff565b14156135dd565b6137ab6137a66137a060058401610f87565b15610301565b61365f565b6137b96001600583016126e7565b6137d56137ce6137c9600c610f66565b613688565b600c612714565b6137e76137e2600d612836565b611fe5565b906137f96001635260590a9201611234565b83613825869161381661380a6102a2565b938492602084016136a4565b60208201810382520382610383565b61383761383182611c3d565b916122f3565b2092803b156138ed5761385d5f80946138686138516102a2565b9788968795869461287a565b845260048401613700565b03925af180156138e8576138bc575b506138b76138a57f8a7dd18f81574794be0ac8390928b9b5988992a941406746e60f37ea696126d792610786565b926138ae6102a2565b91829182613733565b0390a2565b6138db905f3d81116138e1575b6138d38183610383565b810190612880565b5f613877565b503d6138c9565b612903565b612876565b906138fc91613565565b565b5f7f526f6f74206e6f74206163746976650000000000000000000000000000000000910152565b613932600f60209261110a565b61393b816138fe565b0190565b6139549060208101905f818303910152613925565b90565b1561395e57565b6139666102a2565b62461bcd60e51b81528061397c6004820161393f565b0390fd5b5f6139cb6139c36139d6946139dc96976139d19561399c612293565b506139bb6139b660056139b08d6002610f13565b01610f87565b613957565b9190916151ec565b956002610f13565b01610f45565b6105ff565b916105ff565b1490565b6139e86123ef565b506139f16123ef565b506139fa6123ef565b50613a036123ef565b50613a0c6123ef565b50613a17600b610f66565b613a21600c610f66565b91613a2c6009610f66565b91613a37600a610f66565b91613a55613a456009610f66565b613a4f60016131ff565b9061321b565b919493929190565b5490565b60209181520190565b5f5260205f2090565b613a7d9054610f31565b90565b60010190565b90613aa3613a9d613a9684613a5d565b8093613a61565b92613a6a565b905f5b818110613ab35750505090565b909192613ad3613acd600192613ac887613a73565b611d2e565b94613a80565b9101919091613aa6565b90613ae791613a86565b90565b90613b0a613b0392613afa6102a2565b93848092613add565b0383610383565b565b52565b613b1a6101206103ac565b90565b90613bfd613bf36008613b2e613b0f565b94613b45613b3d5f8301610f45565b5f8801612306565b613b5d613b5460018301611234565b60208801612336565b613b75613b6c60028301610f66565b60408801612328565b613b8d613b8460038301613aea565b60608801613b0c565b613ba5613b9c60048301610f66565b60808801612328565b613bbd613bb460058301610f87565b60a0880161231a565b613bd5613bcc60068301610f66565b60c08801612328565b613bed613be460078301611074565b60e08801612314565b01610f45565b6101008401612306565b565b613c0890613b1d565b90565b613c22613c2791613c1a612293565b5060036111ff565b613bff565b613c325f8201612344565b613c4c613c46613c415f6117cb565b6105ff565b916105ff565b141580613c8a575b9081613c5f575b5090565b613c849150613c7e600591613c78604060029201612707565b90610f13565b01610f87565b5f613c5b565b50613ca0613c9a60a083016126b5565b15610301565b613c54565b613cad612af9565b50613cb66123ef565b50613cbf6123ef565b50613cdd613cd86002613cd26009610f66565b90610f13565b61346a565b90613ce95f8301612344565b90613d026060613cfb60208601612707565b9401612707565b91929190565b90613d24939291613d1f613d1a612116565b614fdf565b613e75565b565b90613d38613d3383610ca8565b6103ac565b918252565b369037565b90613d67613d4f83613d26565b92602080613d5d8693610ca8565b9201910390613d3d565b565b90613d7b613d7683611833565b6103ac565b918252565b369037565b90613daa613d9283613d69565b92602080613da08693611833565b9201910390613d80565b565b90613dbe613db9836118ca565b6103ac565b918252565b5f5b828110613dd157505050565b602090613ddc61328e565b8184015201613dc5565b90613e0b613df383613dac565b92602080613e0186936118ca565b9201910390613dc3565b565b90613e1782611d1b565b811015613e28576020809102010190565b6116ab565b5190565b90613e3b82613e2d565b811015613e4c576020809102010190565b6116ab565b5190565b90613e5f82613e51565b811015613e70576020809102010190565b6116ab565b613f1d939192613f12613e90613e8b60016131ff565b613d42565b91613eed613ea6613ea160016131ff565b613d85565b96613ed5613ebc613eb760016131ff565b613de6565b96613ed087613eca5f613356565b90613e0d565b612306565b613ee888613ee25f613356565b90613e31565b612336565b613f0c84915f90613f06613f0083613356565b85613e55565b52613356565b90613e55565b515092909192614a3d565b50565b90613f2c939291613d08565b565b90613f3890611689565b5f5260205260405f2090565b613f6a915f613f5f613f6593613f58612293565b5082612afd565b01613f2e565b610f87565b90565b90613f8a94939291613f85613f80612116565b614fdf565b613f8d565b90565b90613fa294939291613f9d6152bb565b61460d565b90613fab615320565b565b5f7f456d707479206261746368000000000000000000000000000000000000000000910152565b613fe1600b60209261110a565b613fea81613fad565b0190565b6140039060208101905f818303910152613fd4565b90565b1561400d57565b6140156102a2565b62461bcd60e51b81528061402b60048201613fee565b0390fd5b5f7f426174636820746f6f206c617267650000000000000000000000000000000000910152565b614063600f60209261110a565b61406c8161402f565b0190565b6140859060208101905f818303910152614056565b90565b1561408f57565b6140976102a2565b62461bcd60e51b8152806140ad60048201614070565b0390fd5b90565b5f7f496e76616c6964206d6574616461746120555249000000000000000000000000910152565b6140e8601460209261110a565b6140f1816140b4565b0190565b61410a9060208101905f8183039101526140db565b90565b1561411457565b61411c6102a2565b62461bcd60e51b815280614132600482016140f5565b0390fd5b5f7f4172726179206c656e677468206d69736d617463680000000000000000000000910152565b61416a601560209261110a565b61417381614136565b0190565b61418c9060208101905f81830391015261415d565b90565b1561419657565b61419e6102a2565b62461bcd60e51b8152806141b460048201614177565b0390fd5b6141c36101006103ac565b90565b5190565b6141d96141df919392936105a5565b926105a5565b916141eb8382026105a5565b9281840414901517156141fa57565b6131c3565b600190818003010490565b919061422061421b61422893610786565b612367565b9083546123a5565b9055565b61423e91614238612af9565b9161420a565b565b5b81811061424c575050565b806142595f60019361422c565b01614241565b909182811061426e575b505050565b61428c614286614280614297956141ff565b926141ff565b92613a6a565b918201910190614240565b5f8080614269565b906801000000000000000081116142c857816142bd6142c693613a5d565b9082815561425f565b565b61036f565b6142d682611d1b565b9167ffffffffffffffff8311614339576143046142fe6001926142f9868661429f565b611d28565b92613a6a565b9204915f5b8381106143165750505050565b600190602061432c61432786612344565b612367565b9401938184015501614309565b61036f565b90614348916142cd565b565b9061440b60e060076144119461436d5f82016143675f8801612707565b90612714565b61438660018201614380602088016141c6565b9061433e565b61439f6002820161439960408801612734565b9061275f565b6143b8600382016143b260608801612707565b90612714565b6143d1600482016143cb60808801612707565b90612714565b6143ea600582016143e460a088016126b5565b906126e7565b614403600682016143fd60c08801612344565b90612373565b019201612393565b90612573565b565b9061441d9161434a565b565b61443361442e614438926117c3565b610c3c565b610822565b90565b6144449061441f565b90565b5f7f496e76616c696420686f6c646572206164647265737300000000000000000000910152565b61447b601660209261110a565b61448481614447565b0190565b61449d9060208101905f81830391015261446e565b90565b156144a757565b6144af6102a2565b62461bcd60e51b8152806144c560048201614488565b0390fd5b5f7f456d7074792063726564656e7469616c20747970650000000000000000000000910152565b6144fd601560209261110a565b614506816144c9565b0190565b61451f9060208101905f8183039101526144f0565b90565b1561452957565b6145316102a2565b62461bcd60e51b8152806145476004820161450a565b0390fd5b6020939261456a8583614562829561457297611ac0565b018092611ac0565b018092612846565b0190565b5f7f43524544454e5449414c5f42415443485f5355424d4954544544000000000000910152565b6145aa601a60209261110a565b6145b381614576565b0190565b9160406145e89294936145e16145d6606083018381035f85015261459d565b9660208301906112b5565b0190610678565b565b91602061460b92949361460460408201965f8301906105a8565b0190610678565b565b9493949291925061463861462082611d1b565b61463261462c5f613356565b916105a5565b11614006565b61466461464482611d1b565b61465d614657614652610c5b565b6105a5565b916105a5565b1115614088565b614690614678614673876140b1565b611c3d565b61468a6146845f613356565b916105a5565b1161410d565b61469981611d1b565b6146b36146ad6146a886613e2d565b6105a5565b916105a5565b1480614a0e575b6146c39061418f565b6146cd600a610f66565b6146d690613688565b6146e190600a612714565b6146eb600a610f66565b948590829033425f905f925f614700906117cb565b949561470a6141b8565b975f89019061471891612328565b602088019061472691613b0c565b604087019061473491612336565b606086019061474291612328565b61474b90613356565b608085019061475991612328565b60a08401906147679161231a565b60c083019061477591612306565b60e082019061478391612314565b60058661478f9161137d565b9061479991614413565b5f6147a390613356565b5b806147bf6147b96147b485611d1b565b6105a5565b916105a5565b101561487e57614879906148006147df6147da878490613e31565b612734565b6147f96147f36147ee5f61443b565b61082d565b9161082d565b14156144a0565b61483761481f61481a614814878590613e55565b516140b1565b611c3d565b61483161482b5f613356565b916105a5565b11614522565b61487461484d614848858490613e0d565b612344565b61486061485b888590613e31565b612734565b61486b878590613e55565b51908a92615595565b613372565b6147a4565b5091505091909161488e816157c5565b906148a78260066148a16005879061137d565b01612373565b6148bf600160056148b981879061137d565b016126e7565b6148d74260046148d16005879061137d565b01612714565b6148e86148e382611d1b565b615b74565b6148fa6148f5600d612836565b611fe5565b635260590a338561493561490d86611d1b565b916149268861491a6102a2565b9485936020850161454b565b60208201810382520382610383565b61494761494182611c3d565b916122f3565b2092803b15614a095761496d5f80946149786149616102a2565b9788968795869461287a565b8452600484016145b7565b03925af18015614a04576149d8575b506149928391611d1b565b916149bd7f2552c608cf6532321fcbf5d4b402c02e869464d194297f85b30fad3b108584d392610ef7565b926149d26149c96102a2565b928392836145ea565b0390a290565b6149f7905f3d81116149fd575b6149ef8183610383565b810190612880565b5f614987565b503d6149e5565b612903565b612876565b506146c3614a1b84613e2d565b614a35614a2f614a2a86613e51565b6105a5565b916105a5565b1490506146ba565b90614a51939291614a4c6123ef565b613f6d565b90565b606090565b90565b614a70614a6b614a7592614a59565b610c3c565b6105a5565b90565b634e487b7160e01b5f52601260045260245ffd5b614a98614a9e916105a5565b916105a5565b908115614aa9570490565b614a78565b614ad7614adc91614abd614a54565b50614ac66123ef565b50614acf6123ef565b5060036111ff565b613bff565b90614b0c614aeb5f8401612344565b614b05614aff614afa5f6117cb565b6105ff565b916105ff565b14156135dd565b614b1c614b17612199565b613d42565b91614b2960808201612707565b91614b335f613356565b91614b3d5f613356565b935b84614b59614b53614b4e612199565b6105a5565b916105a5565b1015614cb95780614b6a60016131ff565b18614b89614b84614b7d600e89906121e6565b83906121fc565b610f45565b614ba3614b9d614b985f6117cb565b6105ff565b916105ff565b03614c73575b50614bbe90614bb86002614a5c565b90614a8c565b9384614bd2614bcc5f613356565b916105a5565b14614be657614be090613372565b93614b3f565b50909192505b614bf583613d42565b91614bff5f613356565b5b80614c13614c0d876105a5565b916105a5565b1015614c4f57614c4a90614c45614c33614c2e898490613e0d565b612344565b614c408791849092613e0d565b612306565b613372565b614c00565b509250925090614c6d6080614c6660408601612707565b9401612707565b91929190565b614bbe9194614cad614c9b614c96614cb294614c91600e8c906121e6565b6121fc565b610f45565b614ca88a91849092613e0d565b612306565b613688565b9390614ba9565b5090919250614bec565b606090565b60209181520190565b614cdb9054610f52565b90565b60010190565b90614d01614cfb614cf4846116bf565b8093614cc8565b926116c3565b905f5b818110614d115750505090565b909192614d31614d2b600192614d2687614cd1565b611e33565b94614cde565b9101919091614d04565b90614d4591614ce4565b90565b90614d68614d6192614d586102a2565b93848092614d3b565b0383610383565b565b614d7390614d48565b90565b614d8d614d9291614d85614cc3565b506007611695565b614d6a565b90565b90614db091614dab614da682612b13565b614fdf565b614db2565b565b90614dbc91615129565b50565b90614dc991614d95565b565b5f90565b606090565b614e0f614e1491614de3614dcb565b50614dec6123ef565b50614df56123ef565b50614dfe612293565b50614e07614dcf565b5060036111ff565b613bff565b90614e2160208301612734565b91614e2e60408201612707565b92614e3b60808301612707565b9260e0614e4a60a085016126b5565b930151919493929190565b614e606101006103ac565b90565b90614f2a614f216007614e74614e55565b94614e8b614e835f8301610f66565b5f8801612328565b614ea3614e9a60018301613aea565b60208801613b0c565b614ebb614eb260028301611234565b60408801612336565b614ed3614eca60038301610f66565b60608801612328565b614eeb614ee260048301610f66565b60808801612328565b614f03614efa60058301610f87565b60a0880161231a565b614f1b614f1260068301610f45565b60c08801612306565b01611074565b60e08401612314565b565b614f3590614e63565b90565b614f73614f7891614f47614a54565b50614f50614dcb565b50614f596123ef565b50614f62612293565b50614f6b612af9565b50600561137d565b614f2c565b90602082015191614f8b60408201612734565b92614f9860608301612707565b92614fb160c0614faa60a086016126b5565b9401612344565b919493929190565b614fc1612293565b50614fdb614fd56301ffc9a760e01b6102b4565b916102b4565b1490565b614ff190614feb61511c565b90615e70565b565b61500590614fff612293565b50611c3d565b6150176150115f613356565b916105a5565b11908161504e575b50908161502b575b5090565b6150359150611c3d565b6150476150415f613356565b916105a5565b115f615027565b6150589150611c3d565b61506a6150645f613356565b916105a5565b115f61501f565b615079612293565b5061508e615088828490613f44565b15610301565b5f14615116576150b560016150b05f6150a8818690612afd565b018590613f2e565b6126e7565b906150be61511c565b906150fb6150f56150ef7f2f8788117e7eff1d82e926ec794901d17c78024a50270940304540a733656f0d95610786565b92611689565b92611689565b926151046102a2565b8061510e81610521565b0390a4600190565b50505f90565b615124614dcb565b503390565b615131612293565b5061513d818390613f44565b5f146151c4576151635f61515e5f615156818690612afd565b018590613f2e565b6126e7565b9061516c61511c565b906151a96151a361519d7ff6391f5c32d9c69d2a47ea670b442974b53935d1edc7fd64eb21e047a839171b95610786565b92611689565b92611689565b926151b26102a2565b806151bc81610521565b0390a4600190565b50505f90565b6151d66151dc916105a5565b916105a5565b9081156151e7570690565b614a78565b929190926151f8612af9565b50926152035f613356565b935b8461522061521a61521585611d1b565b6105a5565b916105a5565b10156152a65761528a6152909161524061523b858990613e0d565b612344565b906152558661524f6002614a5c565b906151ca565b6152676152615f613356565b916105a5565b145f14615297579061527891615ec9565b935b6152846002614a5c565b90614a8c565b94613372565b9391615205565b6152a091615ec9565b9361527a565b929350505090565b6152b86002614a5c565b90565b6152c56001610f66565b6152de6152d86152d36152ae565b6105a5565b916105a5565b146152f7576152f56152ee6152ae565b6001612714565b565b5f633ee5aeb560e01b81528061530f60048201610521565b0390fd5b61531d60016131ff565b90565b61533261532b615313565b6001612714565b565b5f7f43726564656e7469616c20616c726561647920616e63686f7265640000000000910152565b615368601b60209261110a565b61537181615334565b0190565b61538a9060208101905f81830391015261535b565b90565b1561539457565b61539c6102a2565b62461bcd60e51b8152806153b260048201615375565b0390fd5b60601b90565b6153c5906153b6565b90565b6153d1906153bc565b90565b6153e06153e59161082d565b6153c8565b9052565b60209392615409858361540160149561541197612846565b0180926153d4565b018092611ac0565b0190565b6154206101206103ac565b90565b906154fe6101006008615504946154475f82016154415f8801612344565b90612373565b6154606001820161545a60208801612734565b9061275f565b6154796002820161547360408801612707565b90612714565b6154926003820161548c606088016141c6565b9061433e565b6154ab600482016154a560808801612707565b90612714565b6154c4600582016154be60a088016126b5565b906126e7565b6154dd600682016154d760c08801612707565b90612714565b6154f6600782016154f060e08801612393565b90612573565b019201612344565b90612373565b565b9061551091615423565b565b90565b5f5260205f2090565b5490565b61552b8161551e565b8210156155455761553d600191615515565b910201905f90565b6116ab565b908154916801000000000000000083101561557a578261557291600161557895018155615522565b906123cd565b565b61036f565b9061558990613356565b5f5260205260405f2090565b919092506003826155a5916111ff565b5f016155b090610f45565b5f6155ba906117cb565b6155c3906105ff565b906155cd906105ff565b146155d79061538d565b6155e1600b610f66565b906155ec600b610f66565b6155f590613688565b61560090600b612714565b8290849061560e6009610f66565b905f61561990613356565b61562290613d42565b855f91429394898b42916156346102a2565b9283926020840192615645936153e9565b6020820181038252036156589082610383565b61566181611c3d565b9061566b906122f3565b2096615675615415565b985f8a019061568391612306565b602089019061569191612336565b604088019061569f91612328565b60608701906156ad91613b0c565b60808601906156bb91612328565b60a08501906156c99161231a565b60c08401906156d791612328565b60e08301906156e591612314565b6101008201906156f491612306565b600383615700916111ff565b9061570a91615506565b60078361571691611695565b61571f90615512565b816157299161554a565b6157336009610f66565b60088361573f9161175f565b9061574991612714565b8190600e5f6157579161557f565b90615761916121fc565b9061576b91612373565b906157766009610f66565b917f6175b04d68794f2857f394688801d761e647f3149b406ebf2df387db91158514906157a290610786565b916157ac90611689565b926157b56102a2565b6157c08192826105b5565b0390a3565b6157cd612af9565b506157d781611d1b565b6157e96157e35f613356565b916105a5565b146159b7576157f781611d1b565b61580a61580460016131ff565b916105a5565b14615999575b61581981611d1b565b61582c61582660016131ff565b916105a5565b111561597b5761586161585161584183611d1b565b61584b60016131ff565b9061321b565b61585b6002614a5c565b90614a8c565b9061586b82613d42565b926158755f613356565b5b80615889615883866105a5565b916105a5565b10156159715761595e906159596159476158bf6158ba876158b4866158ae6002614a5c565b906141ca565b90613e0d565b612344565b6158e66158d6856158d06002614a5c565b906141ca565b6158e060016131ff565b9061321b565b6159006158fa6158f58a611d1b565b6105a5565b916105a5565b105f146159635761594061593b886159356159258861591f6002614a5c565b906141ca565b61592f60016131ff565b9061321b565b90613e0d565b612344565b5b90615ec9565b6159548891849092613e0d565b612306565b613372565b615876565b61596c5f6117cb565b615941565b5092915050615810565b6159916159969161598b5f613356565b90613e0d565b612344565b90565b6159af6159b4916159a95f613356565b90613e0d565b612344565b90565b506159c15f6117cb565b90565b6159cf6101006103ac565b90565b906159e46159df836103c1565b6103ac565b918252565b6159f25f6159d2565b90565b6159fd6159e9565b90565b90615ac160e06007615ac794615a235f8201615a1d5f8801612344565b90612373565b615a3c60018201615a3660208801612707565b90612714565b615a5560028201615a4f60408801612707565b90612714565b615a6e60038201615a6860608801612707565b90612714565b615a8760048201615a8160808801612707565b90612714565b615aa060058201615a9a60a088016126b5565b906126e7565b615ab960068201615ab360c08801612344565b90612373565b019201612393565b90612573565b565b90615ad391615a00565b565b60209392615af48583615aec8295615afc97611ac0565b018092612846565b018092611ac0565b0190565b5f7f4d45524b4c455f524f4f545f5550444154454400000000000000000000000000910152565b615b34601360209261110a565b615b3d81615b00565b0190565b916040615b72929493615b6b615b60606083018381035f850152615b27565b9660208301906112b5565b0190610678565b565b50615b91615b8a615b856009610f66565b613688565b6009612714565b615b99615f86565b615ba36009610f66565b615bb5615baf5f613356565b916105a5565b115f14615e3857615c9a5f615c6c615bf582615bef6002615be9615bd96009610f66565b615be360016131ff565b906131d7565b90610f13565b01610f45565b5b615c638591615c5a42615c5143615c48615c10600b610f66565b91615c3f615c1e600a610f66565b95615c366001999b615c2e6159c4565b9e8f01612306565b60208d01612328565b60408b01612328565b60608901612328565b60808701612328565b60a0850161231a565b60c08301612306565b615c80615c776159f5565b60e08301612314565b615c956002615c8f6009610f66565b90610f13565b615ac9565b615ca46009610f66565b615cb6615cb05f613356565b916105a5565b11615dff575b615cce615cc9600d612836565b611fe5565b635260590a33615cde6009610f66565b615d138591615d04615cf0600b610f66565b615cf86102a2565b94859360208501615ad5565b60208201810382520382610383565b615d25615d1f82611c3d565b916122f3565b2092803b15615dfa57615d4b5f8094615d56615d3f6102a2565b9788968795869461287a565b845260048401615b41565b03925af18015615df557615dc9575b50615d706009610f66565b90615d7b600b610f66565b91615dc4615db2615dac7f8443e26976030654680c09d5af977e30cdd3073d3bf4150bc8d3527b1b29f43293610ef7565b93610786565b93615dbb6102a2565b918291826105b5565b0390a3565b615de8905f3d8111615dee575b615de08183610383565b810190612880565b5f615d65565b503d615dd6565b612903565b612876565b615e335f6005615e2d6002615e27615e176009610f66565b615e2160016131ff565b906131d7565b90610f13565b016126e7565b615cbc565b615c9a5f615c6c615e48826117cb565b615bf6565b916020615e6e929493615e6760408201965f8301906112b5565b0190610678565b565b90615e85615e7f838390613f44565b15610301565b615e8d575050565b615ea75f92839263e2517d3f60e01b845260048401615e4d565b0390fd5b602081615ebd615ec593839695612846565b018092612846565b0190565b615ed1612af9565b5080615ee5615edf846105ff565b916105ff565b105f14615f2d57615f1690615f07615efb6102a2565b93849260208401615eab565b60208201810382520382610383565b615f28615f2282611c3d565b916122f3565b205b90565b90615f5890615f49615f3d6102a2565b93849260208401615eab565b60208201810382520382610383565b615f6a615f6482611c3d565b916122f3565b20615f2a565b90615f7a90613356565b5f5260205260405f2090565b615f8e612af9565b50615f99600b610f66565b615fab615fa55f613356565b916105a5565b1461624057615fba600b610f66565b615fc460016131ff565b905b81615fe0615fda615fd5612199565b6105a5565b916105a5565b1080616225575b1561616b5761601361600382615ffd60016131ff565b9061321b565b61600d6002614a5c565b90614a8c565b9261601d5f613356565b5b8061603161602b876105a5565b916105a5565b1015616156576161439061613e616123616085616080616066600e6160608b61605a60016131ff565b906131d7565b906121e6565b61607a866160746002614a5c565b906141ca565b906121fc565b610f45565b6160ac61609c856160966002614a5c565b906141ca565b6160a660016131ff565b9061321b565b6160be6160b8896105a5565b916105a5565b105f146161485761611c6161176160ea600e6160e48c6160de60016131ff565b906131d7565b906121e6565b616111616101886160fb6002614a5c565b906141ca565b61610b60016131ff565b9061321b565b906121fc565b610f45565b5b90615ec9565b616139616132600e89906121e6565b84906121fc565b612373565b613372565b61601e565b6161515f6117cb565b61611d565b509192616164915092613688565b9091615fc6565b505061617760016131ff565b5b8061619261618c616187612199565b6105a5565b916105a5565b1015616203576161b66161b16161aa600e84906121e6565b5f90615f70565b610f45565b6161d06161ca6161c55f6117cb565b6105ff565b916105ff565b036161e3576161de90613372565b616178565b6161fb6161f461620092600e6121e6565b5f90615f70565b610f45565b90565b5061622261621d616216600e5f9061557f565b5f90615f70565b610f45565b90565b508061623a61623460016131ff565b916105a5565b11615fe7565b6162495f6117cb565b9056fea2646970667358221220e1564f4a049e0d45012704ffb143a63fd1d78b4666c4d15f438341f607c953fb64736f6c634300081e0033","linkReferences":{}},"methodIdentifiers":{"ANCHOR_ADMIN_ROLE()":"3f1067e5","BATCH_SIZE()":"49faa4d4","DEFAULT_ADMIN_ROLE()":"a217fddf","TREE_DEPTH()":"f1650536","VERIFIER_ROLE()":"e7705db6","anchorSingleCredential(bytes32,address,string,string)":"888a2a06","batchCounter()":"68233eef","batchSubmissions(uint256)":"78f908e1","credentialProofs(bytes32)":"7871f9a4","credentialToRootIndex(bytes32)":"9ef284fd","currentRootIndex()":"90eeb02b","generateMerkleProof(bytes32)":"be86b676","getBatchSubmission(uint256)":"e2a615b6","getCredentialProof(bytes32)":"dac46a62","getCurrentRoot()":"8270482d","getGlobalStats()":"6b4169c3","getRoleAdmin(bytes32)":"248a9ca3","getRootHistory(uint256,uint256)":"3bf399c9","getUserCredentials(address)":"c76d2919","grantRole(bytes32,address)":"2f2ff15d","hasRole(bytes32,address)":"91d14854","isCredentialValid(bytes32)":"6dc158eb","isNullifierUsed(bytes32)":"22dc7b4c","merkleRoots(uint256)":"71c5ecb1","merkleTree(uint256,uint256)":"fb49a0b3","nullifiers(bytes32)":"2997e86b","registerZkVerificationKey(string,bytes)":"0a87458d","renounceRole(bytes32,address)":"36568abe","revokeCredential(bytes32,string)":"493814b5","revokeRole(bytes32,address)":"d547741f","revokedCredentials()":"e4473088","submitCredentialBatch(bytes32[],address[],string[],string)":"add6bf7d","supportsInterface(bytes4)":"01ffc9a7","totalCredentials()":"1513d62b","useNullifier(bytes32)":"32e54c79","userCredentials(address,uint256)":"9364ace9","verificationKeys(string)":"ba191715","verificationLogger()":"e1300c88","verifyCredentialProof(bytes32,bytes32[],uint256,uint256)":"5afdaabe","verifyZkProof(string,bytes,bytes)":"27c56e32"},"id":87}