{"abi":[{"type":"constructor","inputs":[{"name":"_trustScore","type":"address","internalType":"address"},{"name":"_verificationLogger","type":"address","internalType":"address"},{"name":"_economicIncentives","type":"address","internalType":"address"}],"stateMutability":"nonpayable"},{"type":"function","name":"DEFAULT_ADMIN_ROLE","inputs":[],"outputs":[{"name":"","type":"bytes32","internalType":"bytes32"}],"stateMutability":"view"},{"type":"function","name":"EXECUTOR_ROLE","inputs":[],"outputs":[{"name":"","type":"bytes32","internalType":"bytes32"}],"stateMutability":"view"},{"type":"function","name":"GOVERNOR_ROLE","inputs":[],"outputs":[{"name":"","type":"bytes32","internalType":"bytes32"}],"stateMutability":"view"},{"type":"function","name":"createProposal","inputs":[{"name":"proposalType","type":"uint8","internalType":"enum GovernanceManager.ProposalType"},{"name":"title","type":"string","internalType":"string"},{"name":"description","type":"string","internalType":"string"},{"name":"metadataUri","type":"string","internalType":"string"},{"name":"targets","type":"address[]","internalType":"address[]"},{"name":"values","type":"uint256[]","internalType":"uint256[]"},{"name":"callDatas","type":"bytes[]","internalType":"bytes[]"}],"outputs":[{"name":"","type":"uint256","internalType":"uint256"}],"stateMutability":"nonpayable"},{"type":"function","name":"economicIncentives","inputs":[],"outputs":[{"name":"","type":"address","internalType":"contract IEconomicIncentives"}],"stateMutability":"view"},{"type":"function","name":"getProposalMeta","inputs":[{"name":"proposalId","type":"uint256","internalType":"uint256"}],"outputs":[{"name":"id","type":"uint256","internalType":"uint256"},{"name":"proposer","type":"address","internalType":"address"},{"name":"proposalType","type":"uint8","internalType":"enum GovernanceManager.ProposalType"},{"name":"title","type":"string","internalType":"string"},{"name":"description","type":"string","internalType":"string"},{"name":"metadataUri","type":"string","internalType":"string"}],"stateMutability":"view"},{"type":"function","name":"getProposalVoting","inputs":[{"name":"proposalId","type":"uint256","internalType":"uint256"}],"outputs":[{"name":"startTime","type":"uint256","internalType":"uint256"},{"name":"endTime","type":"uint256","internalType":"uint256"},{"name":"forVotes","type":"uint256","internalType":"uint256"},{"name":"againstVotes","type":"uint256","internalType":"uint256"},{"name":"abstainVotes","type":"uint256","internalType":"uint256"},{"name":"state","type":"uint8","internalType":"enum GovernanceManager.ProposalState"},{"name":"executed","type":"bool","internalType":"bool"},{"name":"quorumRequired","type":"uint256","internalType":"uint256"},{"name":"approvalThreshold","type":"uint256","internalType":"uint256"}],"stateMutability":"view"},{"type":"function","name":"getRoleAdmin","inputs":[{"name":"role","type":"bytes32","internalType":"bytes32"}],"outputs":[{"name":"","type":"bytes32","internalType":"bytes32"}],"stateMutability":"view"},{"type":"function","name":"getVotingWeight","inputs":[{"name":"user","type":"address","internalType":"address"}],"outputs":[{"name":"","type":"uint256","internalType":"uint256"}],"stateMutability":"view"},{"type":"function","name":"governanceConfigs","inputs":[{"name":"","type":"uint8","internalType":"enum GovernanceManager.ProposalType"}],"outputs":[{"name":"votingDelay","type":"uint256","internalType":"uint256"},{"name":"votingPeriod","type":"uint256","internalType":"uint256"},{"name":"executionDelay","type":"uint256","internalType":"uint256"},{"name":"proposalThreshold","type":"uint256","internalType":"uint256"},{"name":"quorumNumerator","type":"uint256","internalType":"uint256"},{"name":"approvalNumerator","type":"uint256","internalType":"uint256"},{"name":"emergencyPauseEnabled","type":"bool","internalType":"bool"}],"stateMutability":"view"},{"type":"function","name":"grantRole","inputs":[{"name":"role","type":"bytes32","internalType":"bytes32"},{"name":"account","type":"address","internalType":"address"}],"outputs":[],"stateMutability":"nonpayable"},{"type":"function","name":"hasRole","inputs":[{"name":"role","type":"bytes32","internalType":"bytes32"},{"name":"account","type":"address","internalType":"address"}],"outputs":[{"name":"","type":"bool","internalType":"bool"}],"stateMutability":"view"},{"type":"function","name":"proposalCounter","inputs":[],"outputs":[{"name":"","type":"uint256","internalType":"uint256"}],"stateMutability":"view"},{"type":"function","name":"renounceRole","inputs":[{"name":"role","type":"bytes32","internalType":"bytes32"},{"name":"callerConfirmation","type":"address","internalType":"address"}],"outputs":[],"stateMutability":"nonpayable"},{"type":"function","name":"revokeRole","inputs":[{"name":"role","type":"bytes32","internalType":"bytes32"},{"name":"account","type":"address","internalType":"address"}],"outputs":[],"stateMutability":"nonpayable"},{"type":"function","name":"supportsInterface","inputs":[{"name":"interfaceId","type":"bytes4","internalType":"bytes4"}],"outputs":[{"name":"","type":"bool","internalType":"bool"}],"stateMutability":"view"},{"type":"function","name":"systemPaused","inputs":[],"outputs":[{"name":"","type":"bool","internalType":"bool"}],"stateMutability":"view"},{"type":"function","name":"trustScore","inputs":[],"outputs":[{"name":"","type":"address","internalType":"contract ITrustScore"}],"stateMutability":"view"},{"type":"function","name":"userProposals","inputs":[{"name":"","type":"address","internalType":"address"},{"name":"","type":"uint256","internalType":"uint256"}],"outputs":[{"name":"","type":"uint256","internalType":"uint256"}],"stateMutability":"view"},{"type":"function","name":"verificationLogger","inputs":[],"outputs":[{"name":"","type":"address","internalType":"contract IVerificationLogger"}],"stateMutability":"view"},{"type":"function","name":"votes","inputs":[{"name":"","type":"uint256","internalType":"uint256"},{"name":"","type":"address","internalType":"address"}],"outputs":[{"name":"hasVoted","type":"bool","internalType":"bool"},{"name":"support","type":"uint8","internalType":"uint8"},{"name":"weight","type":"uint256","internalType":"uint256"},{"name":"timestamp","type":"uint256","internalType":"uint256"},{"name":"reason","type":"string","internalType":"string"}],"stateMutability":"view"},{"type":"event","name":"GovernanceConfigUpdated","inputs":[{"name":"proposalType","type":"uint8","indexed":false,"internalType":"enum GovernanceManager.ProposalType"},{"name":"parameter","type":"string","indexed":false,"internalType":"string"},{"name":"newValue","type":"uint256","indexed":false,"internalType":"uint256"}],"anonymous":false},{"type":"event","name":"ProposalCancelled","inputs":[{"name":"proposalId","type":"uint256","indexed":true,"internalType":"uint256"},{"name":"reason","type":"string","indexed":false,"internalType":"string"}],"anonymous":false},{"type":"event","name":"ProposalCreated","inputs":[{"name":"proposalId","type":"uint256","indexed":true,"internalType":"uint256"},{"name":"proposer","type":"address","indexed":true,"internalType":"address"},{"name":"proposalType","type":"uint8","indexed":false,"internalType":"enum GovernanceManager.ProposalType"},{"name":"title","type":"string","indexed":false,"internalType":"string"}],"anonymous":false},{"type":"event","name":"ProposalExecuted","inputs":[{"name":"proposalId","type":"uint256","indexed":true,"internalType":"uint256"}],"anonymous":false},{"type":"event","name":"ProposalStateChanged","inputs":[{"name":"proposalId","type":"uint256","indexed":true,"internalType":"uint256"},{"name":"newState","type":"uint8","indexed":false,"internalType":"enum GovernanceManager.ProposalState"}],"anonymous":false},{"type":"event","name":"RoleAdminChanged","inputs":[{"name":"role","type":"bytes32","indexed":true,"internalType":"bytes32"},{"name":"previousAdminRole","type":"bytes32","indexed":true,"internalType":"bytes32"},{"name":"newAdminRole","type":"bytes32","indexed":true,"internalType":"bytes32"}],"anonymous":false},{"type":"event","name":"RoleGranted","inputs":[{"name":"role","type":"bytes32","indexed":true,"internalType":"bytes32"},{"name":"account","type":"address","indexed":true,"internalType":"address"},{"name":"sender","type":"address","indexed":true,"internalType":"address"}],"anonymous":false},{"type":"event","name":"RoleRevoked","inputs":[{"name":"role","type":"bytes32","indexed":true,"internalType":"bytes32"},{"name":"account","type":"address","indexed":true,"internalType":"address"},{"name":"sender","type":"address","indexed":true,"internalType":"address"}],"anonymous":false},{"type":"event","name":"SystemPaused","inputs":[{"name":"pauser","type":"address","indexed":true,"internalType":"address"},{"name":"reason","type":"string","indexed":false,"internalType":"string"}],"anonymous":false},{"type":"event","name":"SystemUnpaused","inputs":[{"name":"unpauser","type":"address","indexed":true,"internalType":"address"}],"anonymous":false},{"type":"event","name":"VoteCast","inputs":[{"name":"proposalId","type":"uint256","indexed":true,"internalType":"uint256"},{"name":"voter","type":"address","indexed":true,"internalType":"address"},{"name":"support","type":"uint8","indexed":false,"internalType":"uint8"},{"name":"weight","type":"uint256","indexed":false,"internalType":"uint256"},{"name":"reason","type":"string","indexed":false,"internalType":"string"}],"anonymous":false},{"type":"error","name":"AccessControlBadConfirmation","inputs":[]},{"type":"error","name":"AccessControlUnauthorizedAccount","inputs":[{"name":"account","type":"address","internalType":"address"},{"name":"neededRole","type":"bytes32","internalType":"bytes32"}]},{"type":"error","name":"ReentrancyGuardReentrantCall","inputs":[]}],"bytecode":{"object":"0x6080604052346100305761001a610014610111565b916102e1565b610022610035565b6133e4610c4c82396133e490f35b61003b565b60405190565b5f80fd5b601f801991011690565b634e487b7160e01b5f52604160045260245ffd5b906100679061003f565b810190811060018060401b0382111761007f57604052565b610049565b90610097610090610035565b928361005d565b565b5f80fd5b60018060a01b031690565b6100b19061009d565b90565b6100bd816100a8565b036100c457565b5f80fd5b905051906100d5826100b4565b565b909160608284031261010c576101096100f2845f85016100c8565b9361010081602086016100c8565b936040016100c8565b90565b610099565b61012f6140308038038061012481610084565b9283398101906100d7565b909192565b90565b90565b5f1b90565b61015361014e61015892610134565b61013a565b610137565b90565b6101645f61013f565b90565b7f7935bd0ae54bc31f548c14dba4d37c5c64b3f8ca900cb468fb8abd54d5894f5590565b7fd8aa0f3194971a2a116679f7c2090f6939c8d4e01a2a8d7e41d55e5351469e6390565b90565b6101c66101c16101cb9261009d565b6101af565b61009d565b90565b6101d7906101b2565b90565b6101e3906101ce565b90565b60081b90565b906101ff610100600160a81b03916101e6565b9181191691161790565b610212906101ce565b90565b90565b9061022d61022861023492610209565b610215565b82546101ec565b9055565b610241906101b2565b90565b61024d90610238565b90565b9061026160018060a01b039161013a565b9181191691161790565b61027490610238565b90565b90565b9061028f61028a6102969261026b565b610277565b8254610250565b9055565b6102a3906101b2565b90565b6102af9061029a565b90565b6102bb9061029a565b90565b90565b906102d66102d16102dd926102b2565b6102be565b8254610250565b9055565b9161034f6103486103549361034361033c61035b976102fe6103e9565b61031061030961015b565b33906104a0565b5061032361031c610167565b33906104a0565b5061033661032f61018b565b33906104a0565b506101da565b6007610218565b610244565b600861027a565b6102a6565b60096102c1565b6103636108aa565b565b90565b90565b61037f61037a61038492610365565b6101af565b610368565b90565b610391600161036b565b90565b906103a05f199161013a565b9181191691161790565b6103be6103b96103c392610368565b6101af565b610368565b90565b90565b906103de6103d96103e5926103aa565b6103c6565b8254610394565b9055565b6103fb6103f4610387565b60016103c9565b565b5f90565b151590565b61040f90610137565b90565b9061041c90610406565b5f5260205260405f2090565b610431906101b2565b90565b61043d90610428565b90565b9061044a90610434565b5f5260205260405f2090565b9061046260ff9161013a565b9181191691161790565b61047590610401565b90565b90565b9061049061048b6104979261046c565b610478565b8254610456565b9055565b5f0190565b6104a86103fd565b506104bd6104b7828490610c11565b15610401565b5f14610545576104e460016104df5f6104d7818690610412565b018590610440565b61047b565b906104ed610c3e565b9061052a61052461051e7f2f8788117e7eff1d82e926ec794901d17c78024a50270940304540a733656f0d95610406565b92610434565b92610434565b92610533610035565b8061053d8161049b565b0390a4600190565b50505f90565b61055560e0610084565b90565b90565b61056f61056a61057492610558565b6101af565b610368565b90565b9061058190610368565b9052565b90565b61059c6105976105a192610585565b6101af565b610368565b90565b90565b6105bb6105b66105c0926105a4565b6101af565b610368565b90565b90565b6105da6105d56105df926105c3565b6101af565b610368565b90565b90565b6105f96105f46105fe926105e2565b6101af565b610368565b90565b9061060b90610401565b9052565b634e487b7160e01b5f52602160045260245ffd5b6004111561062d57565b61060f565b9061063c82610623565b565b61064790610632565b90565b906106549061063e565b5f5260205260405f2090565b61066a9051610368565b90565b6106779051610401565b90565b9061072260c060066107289461069d5f82016106975f8801610660565b906103c9565b6106b6600182016106b060208801610660565b906103c9565b6106cf600282016106c960408801610660565b906103c9565b6106e8600382016106e260608801610660565b906103c9565b610701600482016106fb60808801610660565b906103c9565b61071a6005820161071460a08801610660565b906103c9565b01920161066d565b9061047b565b565b906107349161067a565b565b90565b61074d61074861075292610736565b6101af565b610368565b90565b90565b61076c61076761077192610755565b6101af565b610368565b90565b90565b61078b61078661079092610774565b6101af565b610368565b90565b90565b6107aa6107a56107af92610793565b6101af565b610368565b90565b90565b6107c96107c46107ce926107b2565b6101af565b610368565b90565b90565b6107e86107e36107ed926107d1565b6101af565b610368565b90565b90565b61080761080261080c926107f0565b6101af565b610368565b90565b90565b61082661082161082b9261080f565b6101af565b610368565b90565b90565b61084561084061084a9261082e565b6101af565b610368565b90565b90565b61086461085f6108699261084d565b6101af565b610368565b90565b90565b61088361087e6108889261086c565b6101af565b610368565b90565b90565b6108a261089d6108a79261088b565b6101af565b610368565b90565b6203f48062093a808060646107d090611d4c925f946108c761054b565b966108d19061055b565b5f8801906108de91610577565b6108e790610588565b60208701906108f591610577565b6108fe90610588565b604086019061090c91610577565b610915906105a7565b606085019061092391610577565b61092c906105c6565b608084019061093a91610577565b610943906105e5565b60a083019061095191610577565b60c082019061095f91610601565b60055f61096b9161064a565b906109759161072a565b6202a300620697806203f480604b6105dc90611770925f9461099561054b565b9661099f90610739565b5f8801906109ac91610577565b6109b590610758565b60208701906109c391610577565b6109cc9061055b565b60408601906109da91610577565b6109e390610777565b60608501906109f191610577565b6109fa90610796565b6080840190610a0891610577565b610a11906107b5565b60a0830190610a1f91610577565b60c0820190610a2d91610601565b60056001610a3a9161064a565b90610a449161072a565b62015180620697806202a30060326103e89061157c92600194610a6561054b565b96610a6f906107d4565b5f880190610a7c91610577565b610a8590610758565b6020870190610a9391610577565b610a9c90610739565b6040860190610aaa91610577565b610ab3906107f3565b6060850190610ac191610577565b610aca90610812565b6080840190610ad891610577565b610ae190610831565b60a0830190610aef91610577565b60c0820190610afd91610601565b60056002610b0a9161064a565b90610b149161072a565b620151806203f4806201518060196101f490611388925f94610b3461054b565b96610b3e906107d4565b5f880190610b4b91610577565b610b549061055b565b6020870190610b6291610577565b610b6b906107d4565b6040860190610b7991610577565b610b8290610850565b6060850190610b9091610577565b610b999061086f565b6080840190610ba791610577565b610bb09061088e565b60a0830190610bbe91610577565b60c0820190610bcc91610601565b60056003610bd99161064a565b90610be39161072a565b565b5f1c90565b60ff1690565b610bfc610c0191610be5565b610bea565b90565b610c0e9054610bf0565b90565b610c37915f610c2c610c3293610c256103fd565b5082610412565b01610440565b610c04565b90565b5f90565b610c46610c3a565b50339056fe60806040526004361015610013575b61150c565b61001d5f3561016c565b806301ffc9a71461016757806307bd0265146101625780630c0512e91461015d5780631b31527f14610158578063248a9ca3146101535780632f2ff15d1461014e5780633078d9981461014957806336568abe1461014457806360f43d871461013f57806372c0f2c21461013a5780638a6f5a591461013557806391d14854146101305780639d2f83f01461012b578063a217fddf14610126578063c51a8bcd14610121578063ccc574901461011c578063d23254b414610117578063d547741f14610112578063d5da24b91461010d578063d768d4c4146101085763e1300c880361000e576114d7565b61142d565b610ff5565b610fa3565b610f69565b610c92565b610c24565b610b35565b610ac5565b610a5a565b610a1e565b6108e4565b610708565b610666565b610631565b61058e565b610527565b6104b0565b610326565b610290565b6101f8565b60e01c90565b60405190565b5f80fd5b5f80fd5b5f80fd5b63ffffffff60e01b1690565b61019981610184565b036101a057565b5f80fd5b905035906101b182610190565b565b906020828203126101cc576101c9915f016101a4565b90565b61017c565b151590565b6101df906101d1565b9052565b91906101f6905f602085019401906101d6565b565b346102285761022461021361020e3660046101b3565b611514565b61021b610172565b918291826101e3565b0390f35b610178565b5f91031261023757565b61017c565b7fd8aa0f3194971a2a116679f7c2090f6939c8d4e01a2a8d7e41d55e5351469e6390565b61026861023c565b90565b90565b6102779061026b565b9052565b919061028e905f6020850194019061026e565b565b346102c0576102a036600461022d565b6102bc6102ab610260565b6102b3610172565b9182918261027b565b0390f35b610178565b1c90565b90565b6102dc9060086102e193026102c5565b6102c9565b90565b906102ef91546102cc565b90565b6102fe60065f906102e4565b90565b90565b61030d90610301565b9052565b9190610324905f60208501940190610304565b565b346103565761033636600461022d565b6103526103416102f2565b610349610172565b91829182610311565b0390f35b610178565b60018060a01b031690565b61036f9061035b565b90565b61037b81610366565b0361038257565b5f80fd5b9050359061039382610372565b565b61039e81610301565b036103a557565b5f80fd5b905035906103b682610395565b565b91906040838203126103e057806103d46103dd925f8601610386565b936020016103a9565b90565b61017c565b90565b6103fc6103f76104019261035b565b6103e5565b61035b565b90565b61040d906103e8565b90565b61041990610404565b90565b9061042690610410565b5f5260205260405f2090565b634e487b7160e01b5f52603260045260245ffd5b5490565b5f5260205f2090565b61045c81610446565b8210156104765761046e60019161044a565b910201905f90565b610432565b61048690600461041c565b61048f81610446565b8210156104ac576104a9916104a391610453565b906102e4565b90565b5f80fd5b346104e1576104dd6104cc6104c63660046103b8565b9061047b565b6104d4610172565b91829182610311565b0390f35b610178565b6104ef8161026b565b036104f657565b5f80fd5b90503590610507826104e6565b565b906020828203126105225761051f915f016104fa565b90565b61017c565b346105575761055361054261053d366004610509565b61159e565b61054a610172565b9182918261027b565b0390f35b610178565b91906040838203126105845780610578610581925f86016104fa565b93602001610386565b90565b61017c565b5f0190565b346105bd576105a76105a136600461055c565b906115e9565b6105af610172565b806105b981610589565b0390f35b610178565b60018060a01b031690565b6105dd9060086105e293026102c5565b6105c2565b90565b906105f091546105cd565b90565b61060060076001906105e5565b90565b61060c90610404565b90565b61061890610603565b9052565b919061062f905f6020850194019061060f565b565b346106615761064136600461022d565b61065d61064c6105f3565b610654610172565b9182918261061c565b0390f35b610178565b346106955761067f61067936600461055c565b906115f5565b610687610172565b8061069181610589565b0390f35b610178565b60018060a01b031690565b6106b59060086106ba93026102c5565b61069a565b90565b906106c891546106a5565b90565b6106d760095f906106bd565b90565b6106e390610404565b90565b6106ef906106da565b9052565b9190610706905f602085019401906106e6565b565b346107385761071836600461022d565b6107346107236106cb565b61072b610172565b918291826106f3565b0390f35b610178565b6004111561074757565b5f80fd5b905035906107588261073d565b565b9060208282031261077357610770915f0161074b565b90565b61017c565b634e487b7160e01b5f52602160045260245ffd5b6004111561079657565b610778565b906107a58261078c565b565b6107b09061079b565b90565b906107bd906107a7565b5f5260205260405f2090565b5f1c90565b6107da6107df916107c9565b6102c9565b90565b6107ec90546107ce565b90565b60ff1690565b610801610806916107c9565b6107ef565b90565b61081390546107f5565b90565b6108219060056107b3565b61082c5f82016107e2565b91610839600183016107e2565b91610846600282016107e2565b91610853600383016107e2565b91610860600482016107e2565b916108796006610872600585016107e2565b9301610809565b90565b949290979695939160e08601985f870161089591610304565b602086016108a291610304565b604085016108af91610304565b606084016108bc91610304565b608083016108c991610304565b60a082016108d691610304565b60c0016108e2916101d6565b565b3461091b576109176108ff6108fa36600461075a565b610816565b9361090e979597939193610172565b9788978861087c565b0390f35b610178565b9060208282031261093957610936915f016103a9565b90565b61017c565b61094790610366565b9052565b6109549061079b565b90565b6109609061094b565b9052565b5190565b60209181520190565b90825f9392825e0152565b601f801991011690565b6109a56109ae6020936109b39361099c81610964565b93848093610968565b95869101610971565b61097c565b0190565b949190610a1b96946109f2610a0d956109e86109ff956109de60c08c01965f8d0190610304565b60208b019061093e565b6040890190610957565b8682036060880152610986565b908482036080860152610986565b9160a0818403910152610986565b90565b34610a5557610a51610a39610a34366004610920565b6116cc565b92610a48969496929192610172565b968796876109b7565b0390f35b610178565b34610a8b57610a87610a76610a7036600461055c565b9061177a565b610a7e610172565b918291826101e3565b0390f35b610178565b610aa0906008610aa593026102c5565b6107ef565b90565b90610ab39154610a90565b90565b610ac260075f90610aa8565b90565b34610af557610ad536600461022d565b610af1610ae0610ab6565b610ae8610172565b918291826101e3565b0390f35b610178565b90565b5f1b90565b610b16610b11610b1b92610afa565b610afd565b61026b565b90565b610b275f610b02565b90565b610b32610b1e565b90565b34610b6557610b4536600461022d565b610b61610b50610b2a565b610b58610172565b9182918261027b565b0390f35b610178565b60071115610b7457565b610778565b90610b8382610b6a565b565b610b8e90610b79565b90565b610b9a90610b85565b9052565b9694929099989795939161012088019a5f8901610bba91610304565b60208801610bc791610304565b60408701610bd491610304565b60608601610be191610304565b60808501610bee91610304565b60a08401610bfb91610b91565b60c08301610c08916101d6565b60e08201610c1591610304565b61010001610c2291610304565b565b34610c5e57610c5a610c3f610c3a366004610920565b6117ef565b95610c51999799959195949294610172565b998a998a610b9e565b0390f35b610178565b7f7935bd0ae54bc31f548c14dba4d37c5c64b3f8ca900cb468fb8abd54d5894f5590565b610c8f610c63565b90565b34610cc257610ca236600461022d565b610cbe610cad610c87565b610cb5610172565b9182918261027b565b0390f35b610178565b9190604083820312610cef5780610ce3610cec925f86016103a9565b93602001610386565b90565b61017c565b610d08610d03610d0d92610301565b6103e5565b610301565b90565b90610d1a90610cf4565b5f5260205260405f2090565b90610d3090610410565b5f5260205260405f2090565b60081c90565b60ff1690565b610d54610d5991610d3c565b610d42565b90565b610d669054610d48565b90565b634e487b7160e01b5f52602260045260245ffd5b9060016002830492168015610d9d575b6020831014610d9857565b610d69565b91607f1691610d8d565b60209181520190565b5f5260205f2090565b905f9291805490610dd3610dcc83610d7d565b8094610da7565b916001811690815f14610e2a5750600114610dee575b505050565b610dfb9192939450610db0565b915f925b818410610e1257505001905f8080610de9565b60018160209295939554848601520191019290610dff565b92949550505060ff19168252151560200201905f8080610de9565b90610e4f91610db9565b90565b634e487b7160e01b5f52604160045260245ffd5b90610e709061097c565b810190811067ffffffffffffffff821117610e8a57604052565b610e52565b90610eaf610ea892610e9f610172565b93848092610e45565b0383610e66565b565b90610ec0610ec5926003610d10565b610d26565b610ed05f8201610809565b91610edc5f8301610d5c565b91610ee9600182016107e2565b91610f026003610efb600285016107e2565b9301610e8f565b90565b60ff1690565b610f1490610f05565b9052565b9193610f4f610f669694610f45610f599497610f3b60a08801995f8901906101d6565b6020870190610f0b565b6040850190610304565b6060830190610304565b6080818403910152610986565b90565b34610f9e57610f9a610f85610f7f366004610cc7565b90610eb1565b91610f91959395610172565b95869586610f18565b0390f35b610178565b34610fd257610fbc610fb636600461055c565b906118f3565b610fc4610172565b80610fce81610589565b0390f35b610178565b90602082820312610ff057610fed915f01610386565b90565b61017c565b346110255761102161101061100b366004610fd7565b611b25565b611018610172565b91829182610311565b0390f35b610178565b5f80fd5b5f80fd5b9061104561103e610172565b9283610e66565b565b67ffffffffffffffff81116110655761106160209161097c565b0190565b610e52565b90825f939282370152565b9092919261108a61108582611047565b611032565b938185526020850190828401116110a6576110a49261106a565b565b61102e565b9080601f830112156110c9578160206110c693359101611075565b90565b61102a565b67ffffffffffffffff81116110e65760208091020190565b610e52565b5f80fd5b909291926111046110ff826110ce565b611032565b938185526020808601920283019281841161114157915b8383106111285750505050565b602080916111368486610386565b81520192019161111b565b6110eb565b9080601f8301121561116457816020611161933591016110ef565b90565b61102a565b67ffffffffffffffff81116111815760208091020190565b610e52565b9092919261119b61119682611169565b611032565b93818552602080860192028301928184116111d857915b8383106111bf5750505050565b602080916111cd84866103a9565b8152019201916111b2565b6110eb565b9080601f830112156111fb578160206111f893359101611186565b90565b61102a565b67ffffffffffffffff81116112185760208091020190565b610e52565b67ffffffffffffffff811161123b5761123760209161097c565b0190565b610e52565b909291926112556112508261121d565b611032565b938185526020850190828401116112715761126f9261106a565b565b61102e565b9080601f830112156112945781602061129193359101611240565b90565b61102a565b9291906112ad6112a882611200565b611032565b93818552602080860192028101918383116113045781905b8382106112d3575050505050565b813567ffffffffffffffff81116112ff576020916112f48784938701611276565b8152019101906112c5565b61102a565b6110eb565b9080601f830112156113275781602061132493359101611299565b90565b61102a565b9060e08282031261142857611343815f840161074b565b92602083013567ffffffffffffffff811161142357826113649185016110ab565b92604081013567ffffffffffffffff811161141e57836113859183016110ab565b92606082013567ffffffffffffffff811161141957816113a69184016110ab565b92608083013567ffffffffffffffff811161141457826113c7918501611146565b9260a081013567ffffffffffffffff811161140f57836113e89183016111dd565b9260c082013567ffffffffffffffff811161140a576114079201611309565b90565b610180565b610180565b610180565b610180565b610180565b610180565b61017c565b346114645761146061144f61144336600461132c565b959490949391936130bf565b611457610172565b91829182610311565b0390f35b610178565b60018060a01b031690565b61148490600861148993026102c5565b611469565b90565b906114979154611474565b90565b6114a660085f9061148c565b90565b6114b290610404565b90565b6114be906114a9565b9052565b91906114d5905f602085019401906114b5565b565b34611507576114e736600461022d565b6115036114f261149a565b6114fa610172565b918291826114c2565b0390f35b610178565b5f80fd5b5f90565b61151c611510565b5080611537611531637965db0b60e01b610184565b91610184565b14908115611544575b5090565b61154e91506130d9565b5f611540565b5f90565b6115619061026b565b90565b9061156e90611558565b5f5260205260405f2090565b90565b61158961158e916107c9565b61157a565b90565b61159b905461157d565b90565b60016115b66115bc926115af611554565b505f611564565b01611591565b90565b906115da916115d56115d08261159e565b6130ff565b6115dc565b565b906115e691613133565b50565b906115f3916115bf565b565b908061161061160a6116056131de565b610366565b91610366565b036116215761161e916131eb565b50565b5f63334bd91960e11b81528061163960048201610589565b0390fd5b5f90565b5f90565b5f90565b606090565b9061165890610cf4565b5f5260205260405f2090565b90565b60018060a01b031690565b61167e611683916107c9565b611667565b90565b6116909054611672565b90565b60a01c90565b60ff1690565b6116ab6116b091611693565b611699565b90565b6116bd905461169f565b90565b6116c990610e8f565b90565b611710611715916116db61163d565b506116e4611641565b506116ed611645565b506116f6611649565b506116ff611649565b50611708611649565b50600261164e565b611664565b906117215f83016107e2565b9161172e60018201611686565b9161173b600183016116b3565b91611748600282016116c0565b91611761600461175a600385016116c0565b93016116c0565b90565b9061176e90610410565b5f5260205260405f2090565b6117a0915f61179561179b9361178e611510565b5082611564565b01611764565b610809565b90565b5f90565b60ff1690565b6117b96117be916107c9565b6117a7565b90565b6117cb90546117ad565b90565b6117da6117df91610d3c565b6107ef565b90565b6117ec90546117ce565b90565b61184e611853916117fe61163d565b5061180761163d565b5061181061163d565b5061181961163d565b5061182261163d565b5061182b6117a3565b50611834611510565b5061183d61163d565b5061184661163d565b50600261164e565b611664565b61185f600882016107e2565b9161186c600983016107e2565b91611879600b82016107e2565b91611886600c83016107e2565b91611893600d82016107e2565b916118a0600e83016117c1565b916118ad600e82016117e2565b916118c660106118bf600f85016107e2565b93016107e2565b90565b906118e4916118df6118da8261159e565b6130ff565b6118e6565b565b906118f0916131eb565b50565b906118fd916118c9565b565b61190b61191091610d3c565b6105c2565b90565b61191d90546118ff565b90565b5f80fd5b60e01b90565b9050519061193782610395565b565b906020828203126119525761194f915f0161192a565b90565b61017c565b919061196a905f6020850194019061093e565b565b611974610172565b3d5f823e3d90fd5b61198861198d916107c9565b61069a565b90565b61199a905461197c565b90565b6119a6816101d1565b036119ad57565b5f80fd5b905051906119be8261199d565b565b909160c082840312611a1f576119d8835f840161192a565b926119e6816020850161192a565b926119f482604083016119b1565b92611a1c611a05846060850161192a565b93611a1381608086016119b1565b9360a00161192a565b90565b61017c565b90565b611a3b611a36611a4092611a24565b6103e5565b610301565b90565b90565b611a5a611a55611a5f92611a43565b6103e5565b610301565b90565b634e487b7160e01b5f52601160045260245ffd5b611a85611a8b91939293610301565b92610301565b91611a97838202610301565b928184041490151715611aa657565b611a62565b611aba611ac091939293610301565b92610301565b8201809211611acb57565b611a62565b634e487b7160e01b5f52601260045260245ffd5b611af0611af691610301565b91610301565b908115611b01570490565b611ad0565b90565b611b1d611b18611b2292611b06565b6103e5565b610301565b90565b611b7090611b3161163d565b506020611b46611b416007611913565b610603565b635e09eea190611b658492611b59610172565b96879485938493611924565b835260048301611957565b03915afa918215611cd657611bc49260c0915f91611ca8575b5091611b9d611b986009611990565b6106da565b611bb963c3453153611bad610172565b96879485938493611924565b835260048301611957565b03915afa908115611ca357611c3092611c20925f80808080809694505050929050611c6f575b505f14611c5f57611c1990611c14611c0e606492611c086019611a46565b90611a76565b91611a27565b611aab565b5b90611a76565b611c2a6064611a27565b90611ae4565b80611c44611c3e600a611b09565b91610301565b105f14611c5a5750611c56600a611b09565b5b90565b611c57565b50611c6a6064611a27565b611c1a565b9050611c92915060c03d8111611c9c575b611c8a8183610e66565b8101906119c0565b9450505090611bea565b503d611c80565b61196c565b611cc9915060203d8111611ccf575b611cc18183610e66565b810190611939565b5f611b89565b503d611cb7565b61196c565b90611cf397969594939291611cee6132b8565b612c2b565b90611cfc61333c565b565b5f7f53797374656d2069732070617573656400000000000000000000000000000000910152565b611d326010602092610968565b611d3b81611cfe565b0190565b611d549060208101905f818303910152611d25565b90565b15611d5e57565b611d66610172565b62461bcd60e51b815280611d7c60048201611d3f565b0390fd5b90565b5190565b611d9b611d96611da092610afa565b6103e5565b610301565b90565b5f7f5469746c65207265717569726564000000000000000000000000000000000000910152565b611dd7600e602092610968565b611de081611da3565b0190565b611df99060208101905f818303910152611dca565b90565b15611e0357565b611e0b610172565b62461bcd60e51b815280611e2160048201611de4565b0390fd5b5190565b5190565b5190565b5f7f417272617973206c656e677468206d69736d6174636800000000000000000000910152565b611e656016602092610968565b611e6e81611e31565b0190565b611e879060208101905f818303910152611e58565b90565b15611e9157565b611e99610172565b62461bcd60e51b815280611eaf60048201611e72565b0390fd5b90611ebd90610301565b9052565b90611ecb906101d1565b9052565b611ed960e0611032565b90565b90611f8b611f826006611eed611ecf565b94611f04611efc5f83016107e2565b5f8801611eb3565b611f1c611f13600183016107e2565b60208801611eb3565b611f34611f2b600283016107e2565b60408801611eb3565b611f4c611f43600383016107e2565b60608801611eb3565b611f64611f5b600483016107e2565b60808801611eb3565b611f7c611f73600583016107e2565b60a08801611eb3565b01610809565b60c08401611ec1565b565b611f9690611edc565b90565b611fa39051610301565b90565b5f7f496e73756666696369656e7420766f74696e6720776569676874000000000000910152565b611fda601a602092610968565b611fe381611fa6565b0190565b611ffc9060208101905f818303910152611fcd565b90565b1561200657565b61200e610172565b62461bcd60e51b81528061202460048201611fe7565b0390fd5b61203190610301565b5f19811461203f5760010190565b611a62565b906120505f1991610afd565b9181191691161790565b90565b9061207261206d61207992610cf4565b61205a565b8254612044565b9055565b9061208e60018060a01b0391610afd565b9181191691161790565b90565b906120b06120ab6120b792610410565b612098565b825461207d565b9055565b60a01b90565b906120d060ff60a01b916120bb565b9181191691161790565b90565b906120f26120ed6120f9926107a7565b6120da565b82546120c1565b9055565b634e487b7160e01b5f525f60045260245ffd5b601f602091010490565b1b90565b919060086121399102916121335f198461211a565b9261211a565b9181191691161790565b919061215961215461216193610cf4565b61205a565b90835461211e565b9055565b6121779161217161163d565b91612143565b565b5b818110612185575050565b806121925f600193612165565b0161217a565b9190601f81116121a8575b505050565b6121b46121d993610db0565b9060206121c084612110565b830193106121e1575b6121d290612110565b0190612179565b5f80806121a3565b91506121d2819290506121c9565b906121ff905f19906008026102c5565b191690565b8161220e916121ef565b906002021790565b9061222081610964565b9067ffffffffffffffff82116122e0576122448261223e8554610d7d565b85612198565b602090601f831160011461227857918091612267935f9261226c575b5050612204565b90555b565b90915001515f80612260565b601f1983169161228785610db0565b925f5b8181106122c8575091600293918560019694106122ae575b5050500201905561226a565b6122be910151601f8416906121ef565b90555f80806122a2565b9193602060018192878701518155019501920161228a565b610e52565b906122ef91612216565b565b60200190565b5490565b600190818003010490565b5f5260205f2090565b5f5260205f2090565b9061232b905f19906020036008026102c5565b8154169055565b905f916123496123418261230f565b928354612204565b905555565b919290602082105f146123a757601f841160011461237757612371929350612204565b90555b5b565b509061239d6123a293600161239461238e8561230f565b92612110565b82019101612179565b612332565b612374565b506123de82936123b860019461230f565b6123d76123c485612110565b820192601f8616806123e9575b50612110565b0190612179565b600202179055612375565b6123f590888603612318565b5f6123d1565b92909168010000000000000000821161245b576020115f1461244c57602081105f146124305761242a91612204565b90555b5b565b60019160ff19166124408461230f565b5560020201905561242d565b6001915060020201905561242e565b610e52565b90815461246c81610d7d565b90818311612495575b818310612483575b50505050565b61248c9361234e565b5f80808061247d565b6124a1838383876123fb565b612475565b5b8181106124b2575050565b806124bf5f600193612165565b016124a7565b5f6124cf91612460565b565b905f036124e3576124e1906124c5565b565b6120fd565b5b8181106124f4575050565b806125015f6001936124d1565b016124e9565b9091828110612516575b505050565b61253461252e61252861253f956122fb565b926122fb565b92612306565b9182019101906124e8565b5f8080612511565b90680100000000000000008111612570578161256561256e936122f7565b90828155612507565b565b610e52565b5190565b9190601f8111612589575b505050565b6125956125ba9361230f565b9060206125a184612110565b830193106125c2575b6125b390612110565b0190612179565b5f8080612584565b91506125b3819290506125aa565b906125da81611d83565b9067ffffffffffffffff821161269a576125fe826125f88554610d7d565b85612579565b602090601f831160011461263257918091612621935f92612626575b5050612204565b90555b565b90915001515f8061261a565b601f198316916126418561230f565b925f5b81811061268257509160029391856001969410612668575b50505002019055612624565b612678910151601f8416906121ef565b90555f808061265c565b91936020600181928787015181550195019201612644565b610e52565b906126a9916125d0565b565b6126d06126ca6126ba84611e2d565b936126c58585612547565b6122f1565b91612306565b5f915b8383106126e05750505050565b60016020826126f86126f28495612575565b8661269f565b019201920191906126d3565b9061270e916126ab565b565b5490565b600190818003010490565b5f5260205f2090565b5b818110612734575050565b806127415f600193612165565b01612729565b9091828110612756575b505050565b61277461276e61276861277f95612714565b92612714565b9261271f565b918201910190612728565b5f8080612751565b906801000000000000000081116127b057816127a56127ae93612710565b90828155612747565b565b610e52565b6127bf9051610366565b90565b60200190565b6127d182611e25565b9167ffffffffffffffff8311612834576127ff6127f96001926127f48686612787565b6127c2565b9261271f565b9204915f5b8381106128115750505050565b6001906020612827612822866127b5565b612098565b9401938184015501612804565b610e52565b90612843916127c8565b565b600190818003010490565b909182811061285f575b505050565b61287d61287761287161288895612845565b92612845565b9261044a565b9182019101906124a6565b5f808061285a565b906801000000000000000081116128b957816128ae6128b793610446565b90828155612850565b565b610e52565b60200190565b6128cd82611e29565b9167ffffffffffffffff8311612930576128fb6128f56001926128f08686612890565b6128be565b9261044a565b9204915f5b83811061290d5750505050565b600190602061292361291e86611f99565b61205a565b9401938184015501612900565b610e52565b9061293f916128c4565b565b9061294d60ff91610afd565b9181191691161790565b61296090610b79565b90565b90565b9061297b61297661298292612957565b612963565b8254612941565b9055565b60081b90565b9061299961ff0091612986565b9181191691161790565b6129ac906101d1565b90565b90565b906129c76129c26129ce926129a3565b6129af565b825461298c565b9055565b90565b5f5260205f2090565b5490565b6129eb816129de565b821015612a05576129fd6001916129d5565b910201905f90565b610432565b9081549168010000000000000000831015612a3a5782612a32916001612a38950181556129e2565b90612143565b565b610e52565b5f910312612a4957565b61017c565b90565b90565b612a68612a63612a6d92612a4e565b6103e5565b612a51565b90565b612a7990612a54565b9052565b5f7f4372656174656420676f7665726e616e63652070726f706f73616c0000000000910152565b612ab1601b602092610968565b612aba81612a7d565b0190565b612ae0612aed93612ad660608401945f85019061093e565b6020830190612a70565b6040818303910152612aa4565b90565b612afc612b01916107c9565b611469565b90565b612b0e9054612af0565b90565b612b1a9061079b565b90565b90565b612b2c612b3191610301565b612b1d565b9052565b905090565b612b5f612b5692602092612b4d81610964565b94858093612b35565b93849101610971565b0190565b602093928482612b79612b8094612b8796612b20565b0190612b3a565b8092612b20565b0190565b60200190565b5f7f474f5645524e414e43455f50524f504f53414c5f435245415445440000000000910152565b612bc5601b602092610968565b612bce81612b91565b0190565b916040612c03929493612bfc612bf1606083018381035f850152612bb8565b96602083019061093e565b019061026e565b565b91612c2892612c1b60408201935f830190610957565b6020818403910152610986565b90565b96909496959293919550612c50612c4b612c456007610809565b156101d1565b611d57565b612c7c612c64612c5f88611d80565b611d83565b612c76612c705f611d87565b91610301565b11611dfc565b612c8587611e25565b612c9f612c99612c9486611e29565b610301565b91610301565b1480613090575b612caf90611e8a565b600585612cbb916107b3565b612cc490611f8d565b9233612ccf90611b25565b84606001612cdc90611f99565b612ce590610301565b90612cef90610301565b1015612cfa90611fff565b612d0460066107e2565b612d0d90612028565b612d1890600661205d565b612d2260066107e2565b9742855f01612d3090611f99565b612d3991611aab565b928386602001612d4890611f99565b612d5191611aab565b9460028b612d5e9161164e565b612d6790611664565b978b895f0190612d769161205d565b338960010190612d859161209b565b898960010190612d94916120dd565b8a8960020190612da3916122e5565b8860030190612db1916122e5565b8760040190612dbf916122e5565b8660050190612dcd91612704565b8560060190612ddb91612839565b8460070190612de991612935565b8360080190612df79161205d565b8260090190612e059161205d565b5f612e0f90611d87565b82600a0190612e1d9161205d565b5f612e2790611d87565b82600b0190612e359161205d565b5f612e3f90611d87565b82600c0190612e4d9161205d565b5f612e5790611d87565b82600d0190612e659161205d565b5f82600e0190612e7491612966565b5f82600e0190612e83916129b2565b80608001612e9090611f99565b82600f0190612e9e9161205d565b60a001612eaa90611f99565b9060100190612eb89161205d565b600433612ec49161041c565b612ecd906129d2565b83612ed791612a0a565b612ee16007611913565b612eea90610603565b630cc9ec5b33600592803b1561308b57612f175f8094612f22612f0b610172565b97889687958694611924565b845260048401612abe565b03925af180156130865761305a575b50612f44612f3f6008612b04565b6114a9565b635260590a3385612f7f8691612f70612f5c88612b11565b612f64610172565b94859360208501612b63565b60208201810382520382610e66565b612f91612f8b82611d83565b91612b8b565b2092803b1561305557612fb75f8094612fc2612fab610172565b97889687958694611924565b845260048401612bd2565b03925af1801561305057613024575b50823391926130096130037f8356bc5007056a642094f44da4e8e22469db3e8a36b5811c0f91f735f1491c7993610cf4565b93610410565b9361301e613015610172565b92839283612c05565b0390a390565b613043905f3d8111613049575b61303b8183610e66565b810190612a3f565b5f612fd1565b503d613031565b61196c565b611920565b613079905f3d811161307f575b6130718183610e66565b810190612a3f565b5f612f31565b503d613067565b61196c565b611920565b50612caf61309d84611e29565b6130b76130b16130ac85611e2d565b610301565b91610301565b149050612ca6565b906130d69695949392916130d161163d565b611cdb565b90565b6130e1611510565b506130fb6130f56301ffc9a760e01b610184565b91610184565b1490565b6131119061310b6131de565b90613373565b565b9061312861312361312f926129a3565b6129af565b8254612941565b9055565b61313b611510565b5061315061314a82849061177a565b156101d1565b5f146131d85761317760016131725f61316a818690611564565b018590611764565b613113565b906131806131de565b906131bd6131b76131b17f2f8788117e7eff1d82e926ec794901d17c78024a50270940304540a733656f0d95611558565b92610410565b92610410565b926131c6610172565b806131d081610589565b0390a4600190565b50505f90565b6131e6611641565b503390565b6131f3611510565b506131ff81839061177a565b5f14613286576132255f6132205f613218818690611564565b018590611764565b613113565b9061322e6131de565b9061326b61326561325f7ff6391f5c32d9c69d2a47ea670b442974b53935d1edc7fd64eb21e047a839171b95611558565b92610410565b92610410565b92613274610172565b8061327e81610589565b0390a4600190565b50505f90565b90565b6132a361329e6132a89261328c565b6103e5565b610301565b90565b6132b5600261328f565b90565b6132c260016107e2565b6132db6132d56132d06132ab565b610301565b91610301565b146132f4576132f26132eb6132ab565b600161205d565b565b5f633ee5aeb560e01b81528061330c60048201610589565b0390fd5b90565b61332761332261332c92613310565b6103e5565b610301565b90565b6133396001613313565b90565b61334e61334761332f565b600161205d565b565b91602061337192949361336a60408201965f83019061093e565b019061026e565b565b9061338861338283839061177a565b156101d1565b613390575050565b6133aa5f92839263e2517d3f60e01b845260048401613350565b0390fdfea264697066735822122072fd82733c74eee1c9f16429054243d97ce4ca75e06b053346828a1ff60bf12d64736f6c634300081e0033","linkReferences":{}},"methodIdentifiers":{"DEFAULT_ADMIN_ROLE()":"a217fddf","EXECUTOR_ROLE()":"07bd0265","GOVERNOR_ROLE()":"ccc57490","createProposal(uint8,string,string,string,address[],uint256[],bytes[])":"d768d4c4","economicIncentives()":"60f43d87","getProposalMeta(uint256)":"8a6f5a59","getProposalVoting(uint256)":"c51a8bcd","getRoleAdmin(bytes32)":"248a9ca3","getVotingWeight(address)":"d5da24b9","governanceConfigs(uint8)":"72c0f2c2","grantRole(bytes32,address)":"2f2ff15d","hasRole(bytes32,address)":"91d14854","proposalCounter()":"0c0512e9","renounceRole(bytes32,address)":"36568abe","revokeRole(bytes32,address)":"d547741f","supportsInterface(bytes4)":"01ffc9a7","systemPaused()":"9d2f83f0","trustScore()":"3078d998","userProposals(address,uint256)":"1b31527f","verificationLogger()":"e1300c88","votes(uint256,address)":"d23254b4"},"id":77}