{"abi":[{"type":"constructor","inputs":[{"name":"_verificationLogger","type":"address","internalType":"address"},{"name":"_userRegistry","type":"address","internalType":"address"},{"name":"_trustScore","type":"address","internalType":"address"}],"stateMutability":"nonpayable"},{"type":"function","name":"DEFAULT_ADMIN_ROLE","inputs":[],"outputs":[{"name":"","type":"bytes32","internalType":"bytes32"}],"stateMutability":"view"},{"type":"function","name":"DEFAULT_GUARDIAN_DELAY","inputs":[],"outputs":[{"name":"","type":"uint256","internalType":"uint256"}],"stateMutability":"view"},{"type":"function","name":"GUARDIAN_ADMIN_ROLE","inputs":[],"outputs":[{"name":"","type":"bytes32","internalType":"bytes32"}],"stateMutability":"view"},{"type":"function","name":"MAX_GUARDIANS","inputs":[],"outputs":[{"name":"","type":"uint256","internalType":"uint256"}],"stateMutability":"view"},{"type":"function","name":"MIN_GUARDIAN_TRUST_SCORE","inputs":[],"outputs":[{"name":"","type":"uint256","internalType":"uint256"}],"stateMutability":"view"},{"type":"function","name":"RECOVERY_EXECUTION_DELAY","inputs":[],"outputs":[{"name":"","type":"uint256","internalType":"uint256"}],"stateMutability":"view"},{"type":"function","name":"canExecuteRecovery","inputs":[{"name":"recoveryId","type":"bytes32","internalType":"bytes32"}],"outputs":[{"name":"","type":"bool","internalType":"bool"}],"stateMutability":"view"},{"type":"function","name":"cancelRecovery","inputs":[{"name":"recoveryId","type":"bytes32","internalType":"bytes32"},{"name":"reason","type":"string","internalType":"string"}],"outputs":[],"stateMutability":"nonpayable"},{"type":"function","name":"executeGuardianChange","inputs":[{"name":"changeId","type":"bytes32","internalType":"bytes32"}],"outputs":[],"stateMutability":"nonpayable"},{"type":"function","name":"executeRecovery","inputs":[{"name":"recoveryId","type":"bytes32","internalType":"bytes32"}],"outputs":[],"stateMutability":"nonpayable"},{"type":"function","name":"getGuardianInfo","inputs":[{"name":"user","type":"address","internalType":"address"},{"name":"guardian","type":"address","internalType":"address"}],"outputs":[{"name":"relationship","type":"string","internalType":"string"},{"name":"addedAt","type":"uint256","internalType":"uint256"},{"name":"isActive","type":"bool","internalType":"bool"},{"name":"currentTrustScore","type":"uint256","internalType":"uint256"}],"stateMutability":"view"},{"type":"function","name":"getGuardianSet","inputs":[{"name":"user","type":"address","internalType":"address"}],"outputs":[{"name":"guardians","type":"address[]","internalType":"address[]"},{"name":"threshold","type":"uint256","internalType":"uint256"},{"name":"isSetup","type":"bool","internalType":"bool"}],"stateMutability":"view"},{"type":"function","name":"getRecoveryInfo","inputs":[{"name":"recoveryId","type":"bytes32","internalType":"bytes32"}],"outputs":[{"name":"user","type":"address","internalType":"address"},{"name":"newWallet","type":"address","internalType":"address"},{"name":"proposedAt","type":"uint256","internalType":"uint256"},{"name":"executionTime","type":"uint256","internalType":"uint256"},{"name":"currentVotes","type":"uint256","internalType":"uint256"},{"name":"requiredVotes","type":"uint256","internalType":"uint256"},{"name":"isExecuted","type":"bool","internalType":"bool"},{"name":"isCancelled","type":"bool","internalType":"bool"}],"stateMutability":"view"},{"type":"function","name":"getRoleAdmin","inputs":[{"name":"role","type":"bytes32","internalType":"bytes32"}],"outputs":[{"name":"","type":"bytes32","internalType":"bytes32"}],"stateMutability":"view"},{"type":"function","name":"grantRole","inputs":[{"name":"role","type":"bytes32","internalType":"bytes32"},{"name":"account","type":"address","internalType":"address"}],"outputs":[],"stateMutability":"nonpayable"},{"type":"function","name":"guardianChanges","inputs":[{"name":"","type":"bytes32","internalType":"bytes32"}],"outputs":[{"name":"user","type":"address","internalType":"address"},{"name":"guardian","type":"address","internalType":"address"},{"name":"isAddition","type":"bool","internalType":"bool"},{"name":"proposedAt","type":"uint256","internalType":"uint256"},{"name":"executionTime","type":"uint256","internalType":"uint256"},{"name":"isExecuted","type":"bool","internalType":"bool"},{"name":"reason","type":"string","internalType":"string"}],"stateMutability":"view"},{"type":"function","name":"hasRole","inputs":[{"name":"role","type":"bytes32","internalType":"bytes32"},{"name":"account","type":"address","internalType":"address"}],"outputs":[{"name":"","type":"bool","internalType":"bool"}],"stateMutability":"view"},{"type":"function","name":"isGuardian","inputs":[{"name":"user","type":"address","internalType":"address"},{"name":"guardian","type":"address","internalType":"address"}],"outputs":[{"name":"","type":"bool","internalType":"bool"}],"stateMutability":"view"},{"type":"function","name":"proposeGuardianChange","inputs":[{"name":"guardian","type":"address","internalType":"address"},{"name":"relationship","type":"string","internalType":"string"},{"name":"isAddition","type":"bool","internalType":"bool"},{"name":"reason","type":"string","internalType":"string"}],"outputs":[{"name":"","type":"bytes32","internalType":"bytes32"}],"stateMutability":"nonpayable"},{"type":"function","name":"proposeRecovery","inputs":[{"name":"user","type":"address","internalType":"address"},{"name":"newWallet","type":"address","internalType":"address"},{"name":"recoveryData","type":"bytes32","internalType":"bytes32"},{"name":"reason","type":"string","internalType":"string"}],"outputs":[{"name":"","type":"bytes32","internalType":"bytes32"}],"stateMutability":"nonpayable"},{"type":"function","name":"recoveryProposals","inputs":[{"name":"","type":"bytes32","internalType":"bytes32"}],"outputs":[{"name":"user","type":"address","internalType":"address"},{"name":"newWallet","type":"address","internalType":"address"},{"name":"recoveryData","type":"bytes32","internalType":"bytes32"},{"name":"proposedAt","type":"uint256","internalType":"uint256"},{"name":"executionTime","type":"uint256","internalType":"uint256"},{"name":"isExecuted","type":"bool","internalType":"bool"},{"name":"isCancelled","type":"bool","internalType":"bool"},{"name":"reason","type":"string","internalType":"string"}],"stateMutability":"view"},{"type":"function","name":"renounceRole","inputs":[{"name":"role","type":"bytes32","internalType":"bytes32"},{"name":"callerConfirmation","type":"address","internalType":"address"}],"outputs":[],"stateMutability":"nonpayable"},{"type":"function","name":"revokeRole","inputs":[{"name":"role","type":"bytes32","internalType":"bytes32"},{"name":"account","type":"address","internalType":"address"}],"outputs":[],"stateMutability":"nonpayable"},{"type":"function","name":"setupGuardianSet","inputs":[{"name":"guardians","type":"address[]","internalType":"address[]"},{"name":"relationships","type":"string[]","internalType":"string[]"},{"name":"threshold","type":"uint256","internalType":"uint256"}],"outputs":[],"stateMutability":"nonpayable"},{"type":"function","name":"supportsInterface","inputs":[{"name":"interfaceId","type":"bytes4","internalType":"bytes4"}],"outputs":[{"name":"","type":"bool","internalType":"bool"}],"stateMutability":"view"},{"type":"function","name":"trustScore","inputs":[],"outputs":[{"name":"","type":"address","internalType":"contract ITrustScore"}],"stateMutability":"view"},{"type":"function","name":"updateThreshold","inputs":[{"name":"newThreshold","type":"uint256","internalType":"uint256"}],"outputs":[],"stateMutability":"nonpayable"},{"type":"function","name":"userRegistry","inputs":[],"outputs":[{"name":"","type":"address","internalType":"contract IUserIdentityRegistry"}],"stateMutability":"view"},{"type":"function","name":"verificationLogger","inputs":[],"outputs":[{"name":"","type":"address","internalType":"contract IVerificationLogger"}],"stateMutability":"view"},{"type":"function","name":"voteForRecovery","inputs":[{"name":"recoveryId","type":"bytes32","internalType":"bytes32"}],"outputs":[],"stateMutability":"nonpayable"},{"type":"event","name":"GuardianAdded","inputs":[{"name":"user","type":"address","indexed":true,"internalType":"address"},{"name":"guardian","type":"address","indexed":true,"internalType":"address"},{"name":"relationship","type":"string","indexed":false,"internalType":"string"}],"anonymous":false},{"type":"event","name":"GuardianChangeExecuted","inputs":[{"name":"changeId","type":"bytes32","indexed":true,"internalType":"bytes32"}],"anonymous":false},{"type":"event","name":"GuardianChangeProposed","inputs":[{"name":"changeId","type":"bytes32","indexed":true,"internalType":"bytes32"},{"name":"user","type":"address","indexed":true,"internalType":"address"},{"name":"guardian","type":"address","indexed":true,"internalType":"address"},{"name":"isAddition","type":"bool","indexed":false,"internalType":"bool"}],"anonymous":false},{"type":"event","name":"GuardianRemoved","inputs":[{"name":"user","type":"address","indexed":true,"internalType":"address"},{"name":"guardian","type":"address","indexed":true,"internalType":"address"},{"name":"reason","type":"string","indexed":false,"internalType":"string"}],"anonymous":false},{"type":"event","name":"RecoveryCancelled","inputs":[{"name":"recoveryId","type":"bytes32","indexed":true,"internalType":"bytes32"},{"name":"reason","type":"string","indexed":false,"internalType":"string"}],"anonymous":false},{"type":"event","name":"RecoveryExecuted","inputs":[{"name":"recoveryId","type":"bytes32","indexed":true,"internalType":"bytes32"},{"name":"user","type":"address","indexed":true,"internalType":"address"}],"anonymous":false},{"type":"event","name":"RecoveryProposed","inputs":[{"name":"recoveryId","type":"bytes32","indexed":true,"internalType":"bytes32"},{"name":"user","type":"address","indexed":true,"internalType":"address"},{"name":"newWallet","type":"address","indexed":true,"internalType":"address"}],"anonymous":false},{"type":"event","name":"RecoveryVoted","inputs":[{"name":"recoveryId","type":"bytes32","indexed":true,"internalType":"bytes32"},{"name":"guardian","type":"address","indexed":true,"internalType":"address"}],"anonymous":false},{"type":"event","name":"RoleAdminChanged","inputs":[{"name":"role","type":"bytes32","indexed":true,"internalType":"bytes32"},{"name":"previousAdminRole","type":"bytes32","indexed":true,"internalType":"bytes32"},{"name":"newAdminRole","type":"bytes32","indexed":true,"internalType":"bytes32"}],"anonymous":false},{"type":"event","name":"RoleGranted","inputs":[{"name":"role","type":"bytes32","indexed":true,"internalType":"bytes32"},{"name":"account","type":"address","indexed":true,"internalType":"address"},{"name":"sender","type":"address","indexed":true,"internalType":"address"}],"anonymous":false},{"type":"event","name":"RoleRevoked","inputs":[{"name":"role","type":"bytes32","indexed":true,"internalType":"bytes32"},{"name":"account","type":"address","indexed":true,"internalType":"address"},{"name":"sender","type":"address","indexed":true,"internalType":"address"}],"anonymous":false},{"type":"event","name":"ThresholdUpdated","inputs":[{"name":"user","type":"address","indexed":true,"internalType":"address"},{"name":"newThreshold","type":"uint256","indexed":false,"internalType":"uint256"}],"anonymous":false},{"type":"error","name":"AccessControlBadConfirmation","inputs":[]},{"type":"error","name":"AccessControlUnauthorizedAccount","inputs":[{"name":"account","type":"address","internalType":"address"},{"name":"neededRole","type":"bytes32","internalType":"bytes32"}]},{"type":"error","name":"ReentrancyGuardReentrantCall","inputs":[]}],"bytecode":{"object":"0x6080604052346100305761001a610014610111565b9161029a565b610022610035565b61592e610550823961592e90f35b61003b565b60405190565b5f80fd5b601f801991011690565b634e487b7160e01b5f52604160045260245ffd5b906100679061003f565b810190811060018060401b0382111761007f57604052565b610049565b90610097610090610035565b928361005d565b565b5f80fd5b60018060a01b031690565b6100b19061009d565b90565b6100bd816100a8565b036100c457565b5f80fd5b905051906100d5826100b4565b565b909160608284031261010c576101096100f2845f85016100c8565b9361010081602086016100c8565b936040016100c8565b90565b610099565b61012f615e7e8038038061012481610084565b9283398101906100d7565b909192565b90565b90565b5f1b90565b61015361014e61015892610134565b61013a565b610137565b90565b6101645f61013f565b90565b7ff24175c806811df7c8c45a4215a4bf8bbce3183f94ad6c3131726b03187f92a290565b90565b6101a261019d6101a79261009d565b61018b565b61009d565b90565b6101b39061018e565b90565b6101bf906101aa565b90565b906101d360018060a01b039161013a565b9181191691161790565b6101e6906101aa565b90565b90565b906102016101fc610208926101dd565b6101e9565b82546101c2565b9055565b6102159061018e565b90565b6102219061020c565b90565b61022d9061020c565b90565b90565b9061024861024361024f92610224565b610230565b82546101c2565b9055565b61025c9061018e565b90565b61026890610253565b90565b61027490610253565b90565b90565b9061028f61028a6102969261026b565b610277565b82546101c2565b9055565b916102f56102ee6102fa936102e96102e2610301976102b7610387565b6102c96102c261015b565b339061043e565b506102dc6102d5610167565b339061043e565b506101b6565b60076101ec565b610218565b6008610233565b61025f565b600961027a565b565b90565b90565b61031d61031861032292610303565b61018b565b610306565b90565b61032f6001610309565b90565b9061033e5f199161013a565b9181191691161790565b61035c61035761036192610306565b61018b565b610306565b90565b90565b9061037c61037761038392610348565b610364565b8254610332565b9055565b610399610392610325565b6001610367565b565b5f90565b151590565b6103ad90610137565b90565b906103ba906103a4565b5f5260205260405f2090565b6103cf9061018e565b90565b6103db906103c6565b90565b906103e8906103d2565b5f5260205260405f2090565b9061040060ff9161013a565b9181191691161790565b6104139061039f565b90565b90565b9061042e6104296104359261040a565b610416565b82546103f4565b9055565b5f0190565b61044661039b565b5061045b610455828490610515565b1561039f565b5f146104e357610482600161047d5f6104758186906103b0565b0185906103de565b610419565b9061048b610542565b906104c86104c26104bc7f2f8788117e7eff1d82e926ec794901d17c78024a50270940304540a733656f0d956103a4565b926103d2565b926103d2565b926104d1610035565b806104db81610439565b0390a4600190565b50505f90565b5f1c90565b60ff1690565b610500610505916104e9565b6104ee565b90565b61051290546104f4565b90565b61053b915f6105306105369361052961039b565b50826103b0565b016103de565b610508565b90565b5f90565b61054a61053e565b50339056fe60806040526004361015610013575b6116d3565b61001d5f356101fc565b806301ffc9a7146101f75780630a2dcc08146101f25780630eec7e0d146101ed578063248a9ca3146101e85780632f2ff15d146101e35780633078d998146101de57806336568abe146101d9578063422c1d37146101d45780634bf251fe146101cf5780635a6eb916146101ca5780635c7460d6146101c55780637672f50f146101c05780637abed905146101bb5780637bd3c44a146101b657806391d14854146101b1578063a217fddf146101ac578063a4c7b198146101a7578063b3c08f20146101a2578063c0965bd71461019d578063d2b3bd4b14610198578063d4ee973414610193578063d547741f1461018e578063d7d7442f14610189578063e1300c8814610184578063e319aaf31461017f578063e54a2f1f1461017a578063e71431a714610175578063eb1f412014610170578063eee5cf621461016b5763f958684c0361000e57611694565b61150e565b6114ac565b611473565b6113d8565b6110fb565b61103a565b610f99565b610f47565b610f11565b610eaf565b610e40565b610d32565b610cb8565b610c83565b610c12565b610bdd565b610b71565b610b38565b610a69565b6109bc565b610904565b6108cf565b610864565b61082f565b610761565b6106ff565b610664565b6105c3565b610288565b60e01c90565b60405190565b5f80fd5b5f80fd5b5f80fd5b63ffffffff60e01b1690565b61022981610214565b0361023057565b5f80fd5b9050359061024182610220565b565b9060208282031261025c57610259915f01610234565b90565b61020c565b151590565b61026f90610261565b9052565b9190610286905f60208501940190610266565b565b346102b8576102b46102a361029e366004610243565b6116db565b6102ab610202565b91829182610273565b0390f35b610208565b5f80fd5b601f801991011690565b634e487b7160e01b5f52604160045260245ffd5b906102e9906102c1565b810190811067ffffffffffffffff82111761030357604052565b6102cb565b9061031b610314610202565b92836102df565b565b67ffffffffffffffff81116103355760208091020190565b6102cb565b5f80fd5b60018060a01b031690565b6103529061033e565b90565b61035e81610349565b0361036557565b5f80fd5b9050359061037682610355565b565b9092919261038d6103888261031d565b610308565b93818552602080860192028301928184116103ca57915b8383106103b15750505050565b602080916103bf8486610369565b8152019201916103a4565b61033a565b9080601f830112156103ed578160206103ea93359101610378565b90565b6102bd565b67ffffffffffffffff811161040a5760208091020190565b6102cb565b5f80fd5b67ffffffffffffffff81116104315761042d6020916102c1565b0190565b6102cb565b90825f939282370152565b9092919261045661045182610413565b610308565b938185526020850190828401116104725761047092610436565b565b61040f565b9080601f830112156104955781602061049293359101610441565b90565b6102bd565b9291906104ae6104a9826103f2565b610308565b93818552602080860192028101918383116105055781905b8382106104d4575050505050565b813567ffffffffffffffff8111610500576020916104f58784938701610477565b8152019101906104c6565b6102bd565b61033a565b9080601f83011215610528578160206105259335910161049a565b90565b6102bd565b90565b6105398161052d565b0361054057565b5f80fd5b9050359061055182610530565b565b90916060828403126105b9575f82013567ffffffffffffffff81116105b4578361057e9184016103cf565b9260208301359067ffffffffffffffff82116105af576105a3816105ac93860161050a565b93604001610544565b90565b610210565b610210565b61020c565b5f0190565b346105f2576105dc6105d6366004610553565b91612817565b6105e4610202565b806105ee816105be565b0390f35b610208565b5f91031261060157565b61020c565b90565b90565b61062061061b61062592610606565b610609565b61052d565b90565b6106346202a30061060c565b90565b61063f610628565b90565b61064b9061052d565b9052565b9190610662905f60208501940190610642565b565b34610694576106743660046105f7565b61069061067f610637565b610687610202565b9182918261064f565b0390f35b610208565b90565b6106a581610699565b036106ac57565b5f80fd5b905035906106bd8261069c565b565b906020828203126106d8576106d5915f016106b0565b90565b61020c565b6106e690610699565b9052565b91906106fd905f602085019401906106dd565b565b3461072f5761072b61071a6107153660046106bf565b61283e565b610722610202565b918291826106ea565b0390f35b610208565b919060408382031261075c5780610750610759925f86016106b0565b93602001610369565b90565b61020c565b346107905761077a610774366004610734565b90612889565b610782610202565b8061078c816105be565b0390f35b610208565b1c90565b60018060a01b031690565b6107b49060086107b99302610795565b610799565b90565b906107c791546107a4565b90565b6107d660095f906107bc565b90565b6107ed6107e86107f29261033e565b610609565b61033e565b90565b6107fe906107d9565b90565b61080a906107f5565b90565b61081690610801565b9052565b919061082d905f6020850194019061080d565b565b3461085f5761083f3660046105f7565b61085b61084a6107ca565b610852610202565b9182918261081a565b0390f35b610208565b346108935761087d610877366004610734565b90612895565b610885610202565b8061088f816105be565b0390f35b610208565b90565b6108af6108aa6108b492610898565b610609565b61052d565b90565b6108c1600561089b565b90565b6108cc6108b7565b90565b346108ff576108df3660046105f7565b6108fb6108ea6108c4565b6108f2610202565b9182918261064f565b0390f35b610208565b346109325761091c6109173660046106bf565b61317a565b610924610202565b8061092e816105be565b0390f35b610208565b61094090610349565b9052565b959391989796949290986101008701995f880161096091610937565b6020870161096d91610937565b6040860161097a91610642565b6060850161098791610642565b6080840161099491610642565b60a083016109a191610642565b60c082016109ae91610266565b60e0016109ba91610266565b565b346109f6576109f26109d76109d23660046106bf565b613190565b946109e9989698949194939293610202565b98899889610944565b0390f35b610208565b60018060a01b031690565b610a16906008610a1b9302610795565b6109fb565b90565b90610a299154610a06565b90565b610a3860085f90610a1e565b90565b610a44906107f5565b90565b610a5090610a3b565b9052565b9190610a67905f60208501940190610a47565b565b34610a9957610a793660046105f7565b610a95610a84610a2c565b610a8c610202565b91829182610a54565b0390f35b610208565b610aa781610261565b03610aae57565b5f80fd5b90503590610abf82610a9e565b565b90608082820312610b3357610ad8815f8401610369565b92602083013567ffffffffffffffff8111610b2e5782610af9918501610477565b92610b078360408301610ab2565b92606082013567ffffffffffffffff8111610b2957610b269201610477565b90565b610210565b610210565b61020c565b34610b6c57610b68610b57610b4e366004610ac1565b92919091613c1f565b610b5f610202565b918291826106ea565b0390f35b610208565b34610b9f57610b89610b843660046106bf565b614248565b610b91610202565b80610b9b816105be565b0390f35b610208565b90565b610bbb610bb6610bc092610ba4565b610609565b61052d565b90565b610bcf62093a80610ba7565b90565b610bda610bc3565b90565b34610c0d57610bed3660046105f7565b610c09610bf8610bd2565b610c00610202565b9182918261064f565b0390f35b610208565b34610c4357610c3f610c2e610c28366004610734565b90614269565b610c36610202565b91829182610273565b0390f35b610208565b90565b5f1b90565b610c64610c5f610c6992610c48565b610c4b565b610699565b90565b610c755f610c50565b90565b610c80610c6c565b90565b34610cb357610c933660046105f7565b610caf610c9e610c78565b610ca6610202565b918291826106ea565b0390f35b610208565b34610ce857610ce4610cd3610cce3660046106bf565b614292565b610cdb610202565b91829182610273565b0390f35b610208565b919091604081840312610d2d57610d06835f83016106b0565b92602082013567ffffffffffffffff8111610d2857610d259201610477565b90565b610210565b61020c565b34610d6157610d4b610d45366004610ced565b906144e0565b610d53610202565b80610d5d816105be565b0390f35b610208565b90602082820312610d7f57610d7c915f01610369565b90565b61020c565b5190565b60209181520190565b60200190565b610da090610349565b9052565b90610db181602093610d97565b0190565b60200190565b90610dd8610dd2610dcb84610d84565b8093610d88565b92610d91565b905f5b818110610de85750505090565b909192610e01610dfb6001928651610da4565b94610db5565b9101919091610ddb565b604090610e37610e2c610e3e9597969460608401908482035f860152610dbb565b966020830190610642565b0190610266565b565b34610e7357610e6f610e5b610e56366004610d66565b614798565b610e66939193610202565b93849384610e0b565b0390f35b610208565b90565b610e8f610e8a610e9492610e78565b610609565b61052d565b90565b610ea16032610e7b565b90565b610eac610e97565b90565b34610edf57610ebf3660046105f7565b610edb610eca610ea4565b610ed2610202565b9182918261064f565b0390f35b610208565b9190604083820312610f0c5780610f00610f09925f8601610369565b93602001610369565b90565b61020c565b34610f4257610f3e610f2d610f27366004610ee4565b906147f2565b610f35610202565b91829182610273565b0390f35b610208565b34610f7657610f60610f5a366004610734565b90614849565b610f68610202565b80610f72816105be565b0390f35b610208565b90602082820312610f9457610f91915f01610544565b90565b61020c565b34610fc757610fb1610fac366004610f7b565b614a6b565b610fb9610202565b80610fc3816105be565b0390f35b610208565b60018060a01b031690565b610fe7906008610fec9302610795565b610fcc565b90565b90610ffa9154610fd7565b90565b61100960075f90610fef565b90565b611015906107f5565b90565b6110219061100c565b9052565b9190611038905f60208501940190611018565b565b3461106a5761104a3660046105f7565b611066611055610ffd565b61105d610202565b91829182611025565b0390f35b610208565b5190565b60209181520190565b90825f9392825e0152565b6110a66110af6020936110b49361109d8161106f565b93848093611073565b9586910161107c565b6102c1565b0190565b6110f26110f9946110e86110dd6060959998969960808601908682035f880152611087565b986020850190610642565b6040830190610266565b0190610642565b565b346111305761112c611117611111366004610ee4565b90614b15565b90611123949294610202565b948594856110b8565b0390f35b610208565b61113e90610699565b90565b9061114b90611135565b5f5260205260405f2090565b5f1c90565b60018060a01b031690565b61117361117891611157565b61115c565b90565b6111859054611167565b90565b60a01c90565b60ff1690565b6111a06111a591611188565b61118e565b90565b6111b29054611194565b90565b90565b6111c46111c991611157565b6111b5565b90565b6111d690546111b8565b90565b6111e56111ea91611157565b61118e565b90565b6111f790546111d9565b90565b634e487b7160e01b5f52602260045260245ffd5b906001600283049216801561122e575b602083101461122957565b6111fa565b91607f169161121e565b60209181520190565b5f5260205f2090565b905f929180549061126461125d8361120e565b8094611238565b916001811690815f146112bb575060011461127f575b505050565b61128c9192939450611241565b915f925b8184106112a357505001905f808061127a565b60018160209295939554848601520191019290611290565b92949550505060ff19168252151560200201905f808061127a565b906112e09161124a565b90565b906113036112fc926112f3610202565b938480926112d6565b03836102df565b565b611310906004611141565b61131b5f820161117b565b916113286001830161117b565b91611335600182016111a8565b91611342600283016111cc565b9161134f600382016111cc565b916113686005611361600485016111ed565b93016112e3565b90565b93946113b46113d598966113aa6113c8966113a06113be969b9761139660e08c019d5f8d0190610937565b60208b0190610937565b6040890190610266565b6060870190610642565b6080850190610642565b60a0830190610266565b60c0818403910152611087565b90565b3461140f5761140b6113f36113ee3660046106bf565b611305565b93611402979597939193610202565b9788978861136b565b0390f35b610208565b9060808282031261146e5761142b815f8401610369565b926114398260208501610369565b9261144783604083016106b0565b92606082013567ffffffffffffffff8111611469576114669201610477565b90565b610210565b61020c565b346114a7576114a3611492611489366004611414565b92919091615186565b61149a610202565b918291826106ea565b0390f35b610208565b346114da576114c46114bf3660046106bf565b6154e3565b6114cc610202565b806114d6816105be565b0390f35b610208565b7ff24175c806811df7c8c45a4215a4bf8bbce3183f94ad6c3131726b03187f92a290565b61150b6114df565b90565b3461153e5761151e3660046105f7565b61153a611529611503565b611531610202565b918291826106ea565b0390f35b610208565b9061154d90611135565b5f5260205260405f2090565b90565b61156861156d91611157565b611559565b90565b61157a905461155c565b90565b60081c90565b61158f6115949161157d565b61118e565b90565b6115a19054611583565b90565b6115af906003611543565b906115bb5f830161117b565b916115c86001820161117b565b916115d560028301611570565b916115e2600582016111cc565b916115ef600683016111cc565b916115fc600782016111ed565b91611615600861160e60078501611597565b93016112e3565b90565b95939196949290966101008701975f880161163291610937565b6020870161163f91610937565b6040860161164c916106dd565b6060850161165991610642565b6080840161166691610642565b60a0830161167391610266565b60c0820161168091610266565b8082039060e0015261169191611087565b90565b346116ce576116ca6116af6116aa3660046106bf565b6115a4565b946116c1989698949194939293610202565b98899889611618565b0390f35b610208565b5f80fd5b5f90565b6116e36116d7565b50806116fe6116f8637965db0b60e01b610214565b91610214565b1490811561170b575b5090565b61171591506154ee565b5f611707565b9061172e9291611729615540565b612242565b6117366155a5565b565b61174461174991611157565b6109fb565b90565b6117569054611738565b90565b5f80fd5b60e01b90565b9050519061177082610a9e565b565b9060208282031261178b57611788915f01611763565b90565b61020c565b91906117a3905f60208501940190610937565b565b6117ad610202565b3d5f823e3d90fd5b5f7f55736572206e6f74207265676973746572656400000000000000000000000000910152565b6117e96013602092611073565b6117f2816117b5565b0190565b61180b9060208101905f8183039101526117dc565b90565b1561181557565b61181d610202565b62461bcd60e51b815280611833600482016117f6565b0390fd5b611840906107f5565b90565b9061184d90611837565b5f5260205260405f2090565b5f7f477561726469616e2073657420616c7265616479207365747570000000000000910152565b61188d601a602092611073565b61189681611859565b0190565b6118af9060208101905f818303910152611880565b90565b156118b957565b6118c1610202565b62461bcd60e51b8152806118d76004820161189a565b0390fd5b6118ef6118ea6118f492610c48565b610609565b61052d565b90565b5f7f496e76616c696420677561726469616e20636f756e7400000000000000000000910152565b61192b6016602092611073565b611934816118f7565b0190565b61194d9060208101905f81830391015261191e565b90565b1561195757565b61195f610202565b62461bcd60e51b81528061197560048201611938565b0390fd5b5190565b5f7f417272617973206c656e677468206d69736d6174636800000000000000000000910152565b6119b16016602092611073565b6119ba8161197d565b0190565b6119d39060208101905f8183039101526119a4565b90565b156119dd57565b6119e5610202565b62461bcd60e51b8152806119fb600482016119be565b0390fd5b5f7f496e76616c6964207468726573686f6c64000000000000000000000000000000910152565b611a336011602092611073565b611a3c816119ff565b0190565b611a559060208101905f818303910152611a26565b90565b15611a5f57565b611a67610202565b62461bcd60e51b815280611a7d60048201611a40565b0390fd5b90565b6001611a90910161052d565b90565b634e487b7160e01b5f52603260045260245ffd5b90611ab182610d84565b811015611ac2576020809102010190565b611a93565b611ad19051610349565b90565b611ae8611ae3611aed92610c48565b610609565b61033e565b90565b611af990611ad4565b90565b5f7f496e76616c696420677561726469616e20616464726573730000000000000000910152565b611b306018602092611073565b611b3981611afc565b0190565b611b529060208101905f818303910152611b23565b90565b15611b5c57565b611b64610202565b62461bcd60e51b815280611b7a60048201611b3d565b0390fd5b90611b8890611837565b5f5260205260405f2090565b5f7f4475706c696361746520677561726469616e0000000000000000000000000000910152565b611bc86012602092611073565b611bd181611b94565b0190565b611bea9060208101905f818303910152611bbb565b90565b15611bf457565b611bfc610202565b62461bcd60e51b815280611c1260048201611bd5565b0390fd5b611c22611c2791611157565b610799565b90565b611c349054611c16565b90565b90505190611c4482610530565b565b90602082820312611c5f57611c5c915f01611c37565b90565b61020c565b5f7f477561726469616e2074727573742073636f726520746f6f206c6f7700000000910152565b611c98601c602092611073565b611ca181611c64565b0190565b611cba9060208101905f818303910152611c8b565b90565b15611cc457565b611ccc610202565b62461bcd60e51b815280611ce260048201611ca5565b0390fd5b90611cf082611979565b811015611d01576020809102010190565b611a93565b611d1060a0610308565b90565b90611d1d90610349565b9052565b52565b90611d2e9061052d565b9052565b90611d3c90610261565b9052565b90611d5160018060a01b0391610c4b565b9181191691161790565b90565b90611d73611d6e611d7a92611837565b611d5b565b8254611d40565b9055565b5190565b601f602091010490565b1b90565b91906008611dab910291611da55f1984611d8c565b92611d8c565b9181191691161790565b611dc9611dc4611dce9261052d565b610609565b61052d565b90565b90565b9190611dea611de5611df293611db5565b611dd1565b908354611d90565b9055565b5f90565b611e0c91611e06611df6565b91611dd4565b565b5b818110611e1a575050565b80611e275f600193611dfa565b01611e0f565b9190601f8111611e3d575b505050565b611e49611e6e93611241565b906020611e5584611d82565b83019310611e76575b611e6790611d82565b0190611e0e565b5f8080611e38565b9150611e6781929050611e5e565b90611e94905f1990600802610795565b191690565b81611ea391611e84565b906002021790565b90611eb58161106f565b9067ffffffffffffffff8211611f7557611ed982611ed3855461120e565b85611e2d565b602090601f8311600114611f0d57918091611efc935f92611f01575b5050611e99565b90555b565b90915001515f80611ef5565b601f19831691611f1c85611241565b925f5b818110611f5d57509160029391856001969410611f43575b50505002019055611eff565b611f53910151601f841690611e84565b90555f8080611f37565b91936020600181928787015181550195019201611f1f565b6102cb565b90611f8491611eab565b565b611f90905161052d565b90565b90611f9f5f1991610c4b565b9181191691161790565b90611fbe611fb9611fc592611db5565b611dd1565b8254611f93565b9055565b611fd39051610261565b90565b90611fe260ff91610c4b565b9181191691161790565b611ff590610261565b90565b90565b9061201061200b61201792611fec565b611ff8565b8254611fd6565b9055565b90612091608060046120979461203e5f82016120385f8801611ac7565b90611d5e565b6120576001820161205160208801611d7e565b90611f7a565b6120706002820161206a60408801611f86565b90611fa9565b6120896003820161208360608801611fc9565b90611ffb565b019201611f86565b90611fa9565b565b906120a39161201b565b565b90565b5f5260205f2090565b5490565b6120be816120b1565b8210156120d8576120d06001916120a8565b910201905f90565b611a93565b919060086120fd9102916120f760018060a01b0384611d8c565b92611d8c565b9181191691161790565b919061211d61211861212593611837565b611d5b565b9083546120dd565b9055565b90815491680100000000000000008310156121595782612151916001612157950181556120b5565b90612107565b565b6102cb565b61216a61216f91611157565b610fcc565b90565b61217c905461215e565b90565b90565b61218e6121939161052d565b61217f565b9052565b6020816121a96121b193839695612182565b018092612182565b0190565b60200190565b5190565b5f9103126121c957565b61020c565b5f7f475541524449414e5f5345545f53455455500000000000000000000000000000910152565b6122026012602092611073565b61220b816121ce565b0190565b91604061224092949361223961222e606083018381035f8501526121f5565b966020830190610937565b01906106dd565b565b6122836020612259612254600861174c565b610a3b565b63c3c5a54790612278339261226c610202565b9586948593849361175d565b835260048301611790565b03915afa80156128125761229e915f916127e4575b5061180e565b6122c66122c16122bb60066122b560023390611843565b016111ed565b15610261565b6118b2565b6122cf81610d84565b6122e16122db5f6118db565b9161052d565b11806127b5575b6122f190611950565b61231d6122fd82610d84565b61231761231161230c86611979565b61052d565b9161052d565b146119d6565b8261233061232a5f6118db565b9161052d565b118061278d575b61234090611a58565b61235461234f60023390611843565b611a81565b9361235e5f6118db565b5b8061237a61237461236f86610d84565b61052d565b9161052d565b10156126595761239361238e848390611aa7565b611ac7565b6123ad6123a76123a25f611af0565b610349565b91610349565b141580612627575b6123be90611b55565b6123f96123f46123ee60036123e85f8b016123e26123dd8a8990611aa7565b611ac7565b90611b7e565b016111ed565b15610261565b611bed565b61244c602061241061240b6009611c2a565b610801565b635e09eea19061244161242c612427898890611aa7565b611ac7565b92612435610202565b9586948593849361175d565b835260048301611790565b03915afa801561262257612482915f916125f4575b5061247b612475612470610e97565b61052d565b9161052d565b1015611cbd565b612495612490848390611aa7565b611ac7565b906124a1858290611ce6565b519142906124fb60019460206124bf6124ba6009611c2a565b610801565b635e09eea1906124f06124db6124d68d8b90611aa7565b611ac7565b926124e4610202565b9687948593849361175d565b835260048301611790565b03915afa80156125ef576125ae966125819561255d945f936125b3575b5061254b906125426125549495612539612530611d06565b995f8b01611d13565b60208901611d21565b60408701611d24565b60608501611d32565b60808301611d24565b61257c5f8a01612576612571898790611aa7565b611ac7565b90611b7e565b612099565b6125a9612590600189016120a5565b6125a361259e878590611aa7565b611ac7565b90612129565b611a84565b61235f565b6125549350906125426125df61254b9360203d81116125e8575b6125d781836102df565b810190611c46565b94505090612518565b503d6125cd565b6117a5565b612615915060203d811161261b575b61260d81836102df565b810190611c46565b5f612461565b503d612603565b6117a5565b506123be61263e612639858490611aa7565b611ac7565b61265061264a33610349565b91610349565b141590506123b5565b50936126b69193925061266f8360028301611fa9565b61268361267a6108b7565b60038301611fa9565b61269761268e610bc3565b60048301611fa9565b6126ab6126a2610bc3565b60058301611fa9565b600660019101611ffb565b6126c86126c36007612172565b61100c565b91635260590a916127026126dc3393610d84565b6126f36126e7610202565b93849260208401612197565b602082018103825203826102df565b61271461270e826121bb565b916121b5565b2092803b156127885761273a5f809461274561272e610202565b9788968795869461175d565b84526004840161220f565b03925af1801561278357612757575b50565b612776905f3d811161277c575b61276e81836102df565b8101906121bf565b5f612754565b503d612764565b6117a5565b611759565b50612340836127ac6127a66127a185610d84565b61052d565b9161052d565b11159050612337565b506122f16127c282610d84565b6127db6127d56127d06108b7565b61052d565b9161052d565b111590506122e8565b612805915060203d811161280b575b6127fd81836102df565b810190611772565b5f612298565b503d6127f3565b6117a5565b90612822929161171b565b565b5f90565b9061283290611135565b5f5260205260405f2090565b600161285661285c9261284f612824565b505f612828565b01611570565b90565b9061287a916128756128708261283e565b6155b9565b61287c565b565b90612886916155cd565b50565b906128939161285f565b565b90806128b06128aa6128a5615678565b610349565b91610349565b036128c1576128be91615685565b50565b5f63334bd91960e11b8152806128d9600482016105be565b0390fd5b6128ee906128e9615540565b612d19565b6128f66155a5565b565b90565b5f7f496e76616c6964206368616e6765204944000000000000000000000000000000910152565b61292f6011602092611073565b612938816128fb565b0190565b6129519060208101905f818303910152612922565b90565b1561295b57565b612963610202565b62461bcd60e51b8152806129796004820161293c565b0390fd5b5f7f4368616e676520616c7265616479206578656375746564000000000000000000910152565b6129b16017602092611073565b6129ba8161297d565b0190565b6129d39060208101905f8183039101526129a4565b90565b156129dd57565b6129e5610202565b62461bcd60e51b8152806129fb600482016129be565b0390fd5b5f7f44656c6179206e6f74206d657400000000000000000000000000000000000000910152565b612a33600d602092611073565b612a3c816129ff565b0190565b612a559060208101905f818303910152612a26565b90565b15612a5f57565b612a67610202565b62461bcd60e51b815280612a7d60048201612a40565b0390fd5b5f7f4f6e6c7920757365722063616e20657865637574650000000000000000000000910152565b612ab56015602092611073565b612abe81612a81565b0190565b612ad79060208101905f818303910152612aa8565b90565b15612ae157565b612ae9610202565b62461bcd60e51b815280612aff60048201612ac2565b0390fd5b905f9291805490612b1d612b168361120e565b8094611073565b916001811690815f14612b745750600114612b38575b505050565b612b459192939450611241565b915f925b818410612b5c57505001905f8080612b33565b60018160209295939554848601520191019290612b49565b92949550505060ff19168252151560200201905f8080612b33565b612ba49160208201915f818403910152612b03565b90565b90612bb9612bb483610413565b610308565b918252565b5f7f4164646564207669612070726f706f73616c0000000000000000000000000000910152565b612bef6012612ba7565b90612bfc60208301612bbe565b565b612c06612be5565b90565b612c166012602092611073565b612c1f81612bbe565b0190565b612c389060208101905f818303910152612c09565b90565b90565b612c4a612c4f91610699565b612c3b565b9052565b60601b90565b612c6290612c53565b90565b612c6e90612c59565b90565b612c7d612c8291610349565b612c65565b9052565b602081612c99612ca19360149695612c3e565b018092612c71565b0190565b5f7f475541524449414e5f4348414e47455f45584543555445440000000000000000910152565b612cd96018602092611073565b612ce281612ca5565b0190565b916040612d17929493612d10612d05606083018381035f850152612ccc565b966020830190610937565b01906106dd565b565b612d2d612d2860048390611141565b6128f8565b612d5c612d3b5f830161117b565b612d55612d4f612d4a5f611af0565b610349565b91610349565b1415612954565b612d79612d74612d6e600484016111ed565b15610261565b6129d6565b612da142612d9a612d94612d8f600386016111cc565b61052d565b9161052d565b1015612a58565b612dc733612dc1612dbb612db65f860161117b565b610349565b91610349565b14612ada565b612de5612de06002612dda5f850161117b565b90611843565b611a81565b612df1600183016111a8565b5f146130c957612e5490612e076001840161117b565b429160016020612e1f612e1a6009611c2a565b610801565b635e09eea190612e49612e3460018b0161117b565b92612e3d610202565b998a948593849361175d565b835260048301611790565b03915afa9283156130c457612ec4612ee695600195612ee094612ef8995f9261308e575b50612eb2612ebb9293612e95612e8c611d06565b975f8901611d13565b612ea9612ea0612bfe565b60208901611d21565b60408701611d24565b60608501611d32565b60808301611d24565b612edb5f8401612ed5868a0161117b565b90611b7e565b612099565b016120a5565b612ef26001840161117b565b90612129565b612f035f820161117b565b612f0f6001830161117b565b612f42612f3c7f40278370259ce7e85805e65bbb9aac2f0493221da56f79a32ded59b93398554593611837565b91611837565b91612f4b610202565b80612f5581612c23565b0390a35b612f67600160048301611ffb565b612f79612f746007612172565b61100c565b90635260590a90612f8b5f820161117b565b90612fc3612f9c600187930161117b565b91612fb4612fa8610202565b93849260208401612c86565b602082018103825203826102df565b612fd5612fcf826121bb565b916121b5565b2092803b1561308957612ffb5f8094613006612fef610202565b9788968795869461175d565b845260048401612ce6565b03925af1801561308457613058575b506130407f9e7572ad2c6dc4c41fb118e9fad392ceb11ff22e078a8452359999eac7d3741391611135565b90613049610202565b80613053816105be565b0390a2565b613077905f3d811161307d575b61306f81836102df565b8101906121bf565b5f613015565b503d613065565b6117a5565b611759565b612ebb92506130b6612eb29160203d81116130bd575b6130ae81836102df565b810190611c46565b9250612e78565b503d6130a4565b6117a5565b6130ee9060036130e85f8093016130e26001870161117b565b90611b7e565b01611ffb565b61310e6130fc5f830161117b565b6131086001840161117b565b906157c8565b6131195f820161117b565b6131256001830161117b565b600583019161317261316061315a7fb37135a5a222ae411174c0a72e172f85fb9b229ac36186664a51ce41420ea11b93611837565b93611837565b93613169610202565b91829182612b8f565b0390a3612f59565b613183906128dd565b565b5f90565b90565b5490565b6131e66131eb9161319f613185565b506131a8613185565b506131b1611df6565b506131ba611df6565b506131c3611df6565b506131cc611df6565b506131d56116d7565b506131de6116d7565b506003611543565b613189565b906131f75f830161117b565b916132046001820161117b565b92613211600583016111cc565b9261321e600684016111cc565b9261322b6004820161318c565b9261324c6002613246816132405f870161117b565b90611843565b016111cc565b92613264600761325d8186016111ed565b9401611597565b919796959493929190565b906132849493929161327f615540565b6137e2565b9061328d6155a5565b565b5f7f477561726469616e20736574206e6f7420736574757000000000000000000000910152565b6132c36016602092611073565b6132cc8161328f565b0190565b6132e59060208101905f8183039101526132b6565b90565b156132ef57565b6132f7610202565b62461bcd60e51b81528061330d600482016132d0565b0390fd5b5f7f477561726469616e206e6f7420666f756e640000000000000000000000000000910152565b6133456012602092611073565b61334e81613311565b0190565b6133679060208101905f818303910152613338565b90565b1561337157565b613379610202565b62461bcd60e51b81528061338f60048201613352565b0390fd5b90565b6133aa6133a56133af92613393565b610609565b61052d565b90565b5f7f43616e6e6f742072656d6f7665206c61737420677561726469616e0000000000910152565b6133e6601b602092611073565b6133ef816133b2565b0190565b6134089060208101905f8183039101526133d9565b90565b1561341257565b61341a610202565b62461bcd60e51b815280613430600482016133f3565b0390fd5b5f7f4d617820677561726469616e7320726561636865640000000000000000000000910152565b6134686015602092611073565b61347181613434565b0190565b61348a9060208101905f81830391015261345b565b90565b1561349457565b61349c610202565b62461bcd60e51b8152806134b260048201613475565b0390fd5b5f7f477561726469616e20616c726561647920657869737473000000000000000000910152565b6134ea6017602092611073565b6134f3816134b6565b0190565b61350c9060208101905f8183039101526134dd565b90565b1561351657565b61351e610202565b62461bcd60e51b815280613534600482016134f7565b0390fd5b634e487b7160e01b5f52601160045260245ffd5b6135559061052d565b5f1981146135635760010190565b613538565b92613595601461359d9461358d828861358560209b9a8c99612c71565b018092612c71565b018092612182565b018092612182565b0190565b6135b06135b69193929361052d565b9261052d565b82018092116135c157565b613538565b6135d060e0610308565b90565b60a01b90565b906135e860ff60a01b916135d3565b9181191691161790565b9061360761360261360e92611fec565b611ff8565b82546135d9565b9055565b906136ba60c060056136c0946136355f820161362f5f8801611ac7565b90611d5e565b61364e6001820161364860208801611ac7565b90611d5e565b6136676001820161366160408801611fc9565b906135f2565b6136806002820161367a60608801611f86565b90611fa9565b6136996003820161369360808801611f86565b90611fa9565b6136b2600482016136ac60a08801611fc9565b90611ffb565b019201611d7e565b90611f7a565b565b906136cc91613612565b565b5f7f475541524449414e5f52454d4f56414c5f50524f504f53454400000000000000910152565b6136ff6019612ba7565b9061370c602083016136ce565b565b6137166136f5565b90565b5f7f475541524449414e5f4144444954494f4e5f50524f504f534544000000000000910152565b61374a601a612ba7565b9061375760208301613719565b565b613761613740565b90565b905090565b61378e6137859260209261377c8161106f565b94858093613764565b9384910161107c565b0190565b806137a36014926137aa9594612c71565b0190613769565b90565b6040906137d96137ce6137e09597969460608401908482035f860152611087565b966020830190610937565b01906106dd565b565b909291505061380661380160066137fb60023390611843565b016111ed565b6132e8565b61381a61381560023390611843565b611a81565b92815f14613bd2576138546138316001860161318c565b61384e613848613843600389016111cc565b61052d565b9161052d565b1061348d565b8261386f6138696138645f611af0565b610349565b91610349565b141580613bb2575b61388090611b55565b6138a96138a461389e60036138985f89018890611b7e565b016111ed565b15610261565b61350f565b6138ea60206138c06138bb6009611c2a565b610801565b635e09eea1906138df87926138d3610202565b9586948593849361175d565b835260048301611790565b03915afa8015613bad57613920915f91613b7f575b5061391961391361390e610e97565b61052d565b9161052d565b1015611cbd565b5b61393d61393661393160066111cc565b61354c565b6006611fa9565b613a245f613a133361397c879161396d61395760066111cc565b4290613961610202565b95869460208601613568565b602082018103825203826102df565b61398e613988826121bb565b916121b5565b2096613a0a85613a0133936139f88b916139ef8c6139e66139c682429542918f14613b6e5760046139bf91016111cc565b5b906135a1565b956139dd8d999b6139d56135c6565b9e8f01611d13565b60208d01611d13565b60408b01611d32565b60608901611d24565b60808701611d24565b60a08501611d32565b60c08301611d21565b613a1f60048790611141565b6136c2565b613a36613a316007612172565b61100c565b635260590a90835f14613b6057613a4b613759565b905b3393613a7987613a6a613a5e610202565b93849260208401613792565b602082018103825203826102df565b613a8b613a85826121bb565b916121b5565b2092813b15613b5b575f613ab291613abd8296613aa6610202565b9889978896879561175d565b8552600485016137ad565b03925af18015613b5657613b2a575b50829133909192613b24613b12613b0c613b067fe0e426b6132fb82a0deb831c6221d10ca446188187f3b6b9d7c4d4f98ba4ebb894611135565b94611837565b94611837565b94613b1b610202565b91829182610273565b0390a490565b613b49905f3d8111613b4f575b613b4181836102df565b8101906121bf565b5f613acc565b503d613b37565b6117a5565b611759565b613b6861370e565b90613a4d565b6005613b7a91016111cc565b6139c0565b613ba0915060203d8111613ba6575b613b9881836102df565b810190611c46565b5f6138ff565b503d613b8e565b6117a5565b5061388083613bc9613bc333610349565b91610349565b14159050613877565b613bf2613bed6003613be75f88018790611b7e565b016111ed565b61336a565b613c1a613c016001860161318c565b613c14613c0e6001613396565b9161052d565b1161340b565b613921565b90613c33939291613c2e612824565b61326f565b90565b613c4790613c42615540565b613ecd565b613c4f6155a5565b565b5f7f496e76616c6964207265636f7665727920494400000000000000000000000000910152565b613c856013602092611073565b613c8e81613c51565b0190565b613ca79060208101905f818303910152613c78565b90565b15613cb157565b613cb9610202565b62461bcd60e51b815280613ccf60048201613c92565b0390fd5b5f7f5265636f76657279206e6f742061637469766500000000000000000000000000910152565b613d076013602092611073565b613d1081613cd3565b0190565b613d299060208101905f818303910152613cfa565b90565b15613d3357565b613d3b610202565b62461bcd60e51b815280613d5160048201613d14565b0390fd5b5f7f457865637574696f6e2064656c6179206e6f74206d6574000000000000000000910152565b613d896017602092611073565b613d9281613d55565b0190565b613dab9060208101905f818303910152613d7c565b90565b15613db557565b613dbd610202565b62461bcd60e51b815280613dd360048201613d96565b0390fd5b5f7f496e73756666696369656e7420677561726469616e20766f7465730000000000910152565b613e0b601b602092611073565b613e1481613dd7565b0190565b613e2d9060208101905f818303910152613dfe565b90565b15613e3757565b613e3f610202565b62461bcd60e51b815280613e5560048201613e18565b0390fd5b5f7f5245434f564552595f4558454355544544000000000000000000000000000000910152565b613e8d6011602092611073565b613e9681613e59565b0190565b916040613ecb929493613ec4613eb9606083018381035f850152613e80565b966020830190610937565b01906106dd565b565b613ee1613edc60038390611543565b613189565b90613f11613ef05f840161117b565b613f0a613f04613eff5f611af0565b610349565b91610349565b1415613caa565b613f26613f20600784016111ed565b15610261565b80614228575b613f3590613d2c565b613f5d42613f56613f50613f4b600687016111cc565b61052d565b9161052d565b1015613dae565b613fae613f7e613f796002613f735f870161117b565b90611843565b611a81565b613fa7613fa1613f9c6002613f956004890161318c565b94016111cc565b61052d565b9161052d565b1015613e30565b613fbc600160078401611ffb565b613fce613fc9600861174c565b610a3b565b634ccea8c8613fde5f850161117b565b823b156142235761400e926140035f8094613ff7610202565b9687958694859361175d565b835260048301611790565b03925af1801561421e576141f2575b5061403061402b6009611c2a565b610801565b63bf75d4b16140405f850161117b565b823b156141ed57614070926140655f8094614059610202565b9687958694859361175d565b835260048301611790565b03925af180156141e8576141bc575b5061409261408d6007612172565b61100c565b90635260590a6140a35f850161117b565b826140da6140b36001880161117b565b916140cb6140bf610202565b93849260208401612c86565b602082018103825203826102df565b6140ec6140e6826121bb565b916121b5565b2093803b156141b7576141125f809461411d614106610202565b9889968795869461175d565b845260048401613e9a565b03925af19081156141b25761413b925f92614186575b50920161117b565b61416e6141687fe0467ef4a5103f5cdecf158449b313743f9e40a6b9b817614aed765c42a98df293611135565b91611837565b91614177610202565b80614181816105be565b0390a3565b6141a590833d81116141ab575b61419d81836102df565b8101906121bf565b5f614133565b503d614193565b6117a5565b611759565b6141db905f3d81116141e1575b6141d381836102df565b8101906121bf565b5f61407f565b503d6141c9565b6117a5565b611759565b614211905f3d8111614217575b61420981836102df565b8101906121bf565b5f61401d565b503d6141ff565b6117a5565b611759565b50613f3561424161423b60078501611597565b15610261565b9050613f2c565b61425190613c36565b565b9061425d90611837565b5f5260205260405f2090565b61428f915f61428461428a9361427d6116d7565b5082612828565b01614253565b6111ed565b90565b6142a96142ae916142a16116d7565b506003611543565b613189565b6142b95f820161117b565b6142d36142cd6142c85f611af0565b610349565b91610349565b148015614368575b8015614356575b61435157426143046142fe6142f9600685016111cc565b61052d565b9161052d565b1061434c5761434761434161433c60026143366143236004870161318c565b956143305f84920161117b565b90611843565b016111cc565b61052d565b9161052d565b101590565b505f90565b505f90565b5061436360078201611597565b6142e2565b50614375600782016111ed565b6142db565b5f7f4e6f7420617574686f72697a656420746f2063616e63656c0000000000000000910152565b6143ae6018602092611073565b6143b78161437a565b0190565b6143d09060208101905f8183039101526143a1565b90565b156143da57565b6143e2610202565b62461bcd60e51b8152806143f8600482016143bb565b0390fd5b60081b90565b9061440f61ff00916143fc565b9181191691161790565b9061442e61442961443592611fec565b611ff8565b8254614402565b9055565b8061444a6020926144519594612c3e565b0190613769565b90565b5f7f5245434f564552595f43414e43454c4c45440000000000000000000000000000910152565b6144886012602092611073565b61449181614454565b0190565b9160406144c69294936144bf6144b4606083018381035f85015261447b565b966020830190610937565b01906106dd565b565b6144dd9160208201915f818403910152611087565b90565b6144f46144ef60038390611543565b613189565b6145236145025f830161117b565b61451c6145166145115f611af0565b610349565b91610349565b1415613caa565b614538614532600783016111ed565b15610261565b806146bc575b61454790613d2c565b3361456461455e6145595f850161117b565b610349565b91610349565b14801561469f575b614575906143d3565b614583600160078301614419565b6145956145906007612172565b61100c565b906145a65f635260590a920161117b565b836145d286916145c36145b7610202565b93849260208401614439565b602082018103825203826102df565b6145e46145de826121bb565b916121b5565b2092803b1561469a5761460a5f80946146156145fe610202565b9788968795869461175d565b845260048401614495565b03925af1801561469557614669575b506146646146527f7d4d28740fcb315470c40939b02c4a7ef6674b195d504a1363ad455b9d2c08f292611135565b9261465b610202565b918291826144c8565b0390a2565b614688905f3d811161468e575b61468081836102df565b8101906121bf565b5f614624565b503d614676565b6117a5565b611759565b506145756146b56146ae6114df565b3390614269565b905061456c565b506145476146d56146cf60078401611597565b15610261565b905061453e565b606090565b60209181520190565b5f5260205f2090565b6146fd9054611167565b90565b60010190565b9061472361471d6147168461318c565b80936146e1565b926146ea565b905f5b8181106147335750505090565b90919261475361474d600192614748876146f3565b610da4565b94614700565b9101919091614726565b9061476791614706565b90565b9061478a6147839261477a610202565b9384809261475d565b03836102df565b565b6147959061476a565b90565b6147c16147c6916147a76146dc565b506147b0611df6565b506147b96116d7565b506002611843565b611a81565b9060018201906147ed6147e760066147e0600287016111cc565b95016111ed565b9261478c565b929190565b61481661481c925f6148106003946148086116d7565b506002611843565b01611b7e565b016111ed565b90565b9061483a916148356148308261283e565b6155b9565b61483c565b565b9061484691615685565b50565b906148539161481f565b565b61486690614861615540565b614900565b61486e6155a5565b565b61488461487f6148899261052d565b610c4b565b610699565b90565b5f7f475541524449414e5f5448524553484f4c445f55504441544544000000000000910152565b6148c0601a602092611073565b6148c98161488c565b0190565b9160406148fe9294936148f76148ec606083018381035f8501526148b3565b966020830190610937565b01906106dd565b565b61491f61491a600661491460023390611843565b016111ed565b6132e8565b8061493261492c5f6118db565b9161052d565b1180614a35575b61494290611a58565b614959816002614953813390611843565b01611fa9565b61496b6149666007612172565b61100c565b635260590a3361497a84614870565b92803b15614a305761499f5f80946149aa614993610202565b9788968795869461175d565b8452600484016148cd565b03925af18015614a2b576149ff575b50336149fa6149e87fbb0549e0aedb1fcc6a27d802df340bb4bd5dc53b1f97f3736a879345232e6def92611837565b926149f1610202565b9182918261064f565b0390a2565b614a1e905f3d8111614a24575b614a1681836102df565b8101906121bf565b5f6149b9565b503d614a0c565b6117a5565b611759565b5061494281614a62614a5c614a576001614a5160023390611843565b0161318c565b61052d565b9161052d565b11159050614939565b614a7490614855565b565b606090565b614a8560a0610308565b90565b90614b07614afe6004614a99614a7b565b94614ab0614aa85f830161117b565b5f8801611d13565b614ac8614abf600183016112e3565b60208801611d21565b614ae0614ad7600283016111cc565b60408801611d24565b614af8614aef600383016111ed565b60608801611d32565b016111cc565b60808401611d24565b565b614b1290614a88565b90565b614b535f614b4b614b5893614b28614a76565b50614b31611df6565b50614b3a6116d7565b50614b43611df6565b506002611843565b018390611b7e565b614b09565b91602083015190614bb66020614b7c6060614b7560408901611f86565b9701611fc9565b94614b8f614b8a6009611c2a565b610801565b614bab635e09eea1614b9f610202565b9586948593849361175d565b835260048301611790565b03915afa908115614bfe575f91614bd0575b509193929190565b614bf1915060203d8111614bf7575b614be981836102df565b810190611c46565b5f614bc8565b503d614bdf565b6117a5565b90614c1894939291614c13615540565b614e72565b90614c216155a5565b565b5f7f477561726469616e20736574206e6f7420736574757020666f72207573657200910152565b614c57601f602092611073565b614c6081614c23565b0190565b614c799060208101905f818303910152614c4a565b90565b15614c8357565b614c8b610202565b62461bcd60e51b815280614ca160048201614c64565b0390fd5b5f7f4e6f7420612076616c696420677561726469616e000000000000000000000000910152565b614cd96014602092611073565b614ce281614ca5565b0190565b614cfb9060208101905f818303910152614ccc565b90565b15614d0557565b614d0d610202565b62461bcd60e51b815280614d2360048201614ce6565b0390fd5b5f7f496e76616c6964206e65772077616c6c65740000000000000000000000000000910152565b614d5b6012602092611073565b614d6481614d27565b0190565b614d7d9060208101905f818303910152614d4e565b90565b15614d8757565b614d8f610202565b62461bcd60e51b815280614da560048201614d68565b0390fd5b614db290611157565b90565b90614dca614dc5614dd192611135565b614da9565b8254611f93565b9055565b91614df4602084614dec614dfb9796601496612c3e565b018092612c71565b0190613769565b90565b5f7f5245434f564552595f50524f504f534544000000000000000000000000000000910152565b614e326011602092611073565b614e3b81614dfe565b0190565b916040614e70929493614e69614e5e606083018381035f850152614e25565b966020830190610937565b01906106dd565b565b9390929350614e96614e916006614e8b60028790611843565b016111ed565b614c7c565b614ec1614ebc6003614eb65f614eae60028990611843565b013390611b7e565b016111ed565b614cfe565b81614edc614ed6614ed15f611af0565b610349565b91610349565b141580615166575b614eed90614d80565b614f09614f02614efd60056111cc565b61354c565b6005611fa9565b614ff4614fed600485614f498691614f3a614f2460056111cc565b4290614f2e610202565b95869460208601613568565b602082018103825203826102df565b614f5b614f55826121bb565b916121b5565b2096614f97614f74614f6f60038b90611543565b613189565b91614f81895f8501611d5e565b614f8e8860018501611d5e565b60028301614db5565b614fa44260058301611fa9565b614fc2614fb942614fb3610628565b906135a1565b60068301611fa9565b614fcf8560088301611f7a565b614fe76001614fe2600384013390614253565b611ffb565b016120a5565b3390612129565b6150066150016007612172565b61100c565b90635260590a90849061503b8761502c8793615020610202565b94859360208501614dd5565b602082018103825203826102df565b61504d615047826121bb565b916121b5565b2092803b15615161576150735f809461507e615067610202565b9788968795869461175d565b845260048401614e3f565b03925af1801561515c57615130575b5082916150cc6150c66150c07fcc1f83a0813db15d87b9177bd3d431a378db51aadc3e05903af192afa1b7364295611135565b92611837565b92611837565b926150d5610202565b806150df816105be565b0390a480336151176151117f21a4c9f9fd0addefbc7262f162feb35d52d43b87f469067f0aaf92639ddc91eb93611135565b91611837565b91615120610202565b8061512a816105be565b0390a390565b61514f905f3d8111615155575b61514781836102df565b8101906121bf565b5f61508d565b503d61513d565b6117a5565b611759565b50614eed8261517d61517786610349565b91610349565b14159050614ee4565b9061519a939291615195612824565b614c03565b90565b6151ae906151a9615540565b6152ae565b6151b66155a5565b565b5f7f416c726561647920766f74656400000000000000000000000000000000000000910152565b6151ec600d602092611073565b6151f5816151b8565b0190565b61520e9060208101905f8183039101526151df565b90565b1561521857565b615220610202565b62461bcd60e51b815280615236600482016151f9565b0390fd5b5f7f5245434f564552595f564f544544000000000000000000000000000000000000910152565b61526e600e602092611073565b6152778161523a565b0190565b9160406152ac9294936152a561529a606083018381035f850152615261565b966020830190610937565b01906106dd565b565b6152c26152bd60038390611543565b613189565b6152f16152d05f830161117b565b6152ea6152e46152df5f611af0565b610349565b91610349565b1415613caa565b615306615300600783016111ed565b15610261565b806154c3575b61531590613d2c565b61534a615345600361533f5f615337600261533183890161117b565b90611843565b013390611b7e565b016111ed565b614cfe565b61537161536c615366615361600385013390614253565b6111ed565b15610261565b615211565b6153896001615384600384013390614253565b611ffb565b61539f615398600483016120a5565b3390612129565b6153b16153ac6007612172565b61100c565b906153c25f635260590a920161117b565b836153ee33916153df6153d3610202565b93849260208401612c86565b602082018103825203826102df565b6154006153fa826121bb565b916121b5565b2092803b156154be576154265f809461543161541a610202565b9788968795869461175d565b84526004840161527b565b03925af180156154b95761548d575b503361547561546f7f21a4c9f9fd0addefbc7262f162feb35d52d43b87f469067f0aaf92639ddc91eb93611135565b91611837565b9161547e610202565b80615488816105be565b0390a3565b6154ac905f3d81116154b2575b6154a481836102df565b8101906121bf565b5f615440565b503d61549a565b6117a5565b611759565b506153156154dc6154d660078401611597565b15610261565b905061530c565b6154ec9061519d565b565b6154f66116d7565b5061551061550a6301ffc9a760e01b610214565b91610214565b1490565b90565b61552b61552661553092615514565b610609565b61052d565b90565b61553d6002615517565b90565b61554a60016111cc565b61556361555d615558615533565b61052d565b9161052d565b1461557c5761557a615573615533565b6001611fa9565b565b5f633ee5aeb560e01b815280615594600482016105be565b0390fd5b6155a26001613396565b90565b6155b76155b0615598565b6001611fa9565b565b6155cb906155c5615678565b906158bd565b565b6155d56116d7565b506155ea6155e4828490614269565b15610261565b5f1461567257615611600161560c5f615604818690612828565b018590614253565b611ffb565b9061561a615678565b9061565761565161564b7f2f8788117e7eff1d82e926ec794901d17c78024a50270940304540a733656f0d95611135565b92611837565b92611837565b92615660610202565b8061566a816105be565b0390a4600190565b50505f90565b615680613185565b503390565b61568d6116d7565b50615699818390614269565b5f14615720576156bf5f6156ba5f6156b2818690612828565b018590614253565b611ffb565b906156c8615678565b906157056156ff6156f97ff6391f5c32d9c69d2a47ea670b442974b53935d1edc7fd64eb21e047a839171b95611135565b92611837565b92611837565b9261570e610202565b80615718816105be565b0390a4600190565b50505f90565b61573690600861573b9302610795565b61115c565b90565b906157499154615726565b90565b61575b6157619193929361052d565b9261052d565b820391821161576c57565b613538565b634e487b7160e01b5f52603160045260245ffd5b61579791615791613185565b91612107565b565b6157a2816120b1565b80156157c35760019003906157c06157ba83836120b5565b90615785565b55565b615771565b60016157d86157de926002611843565b016120a5565b6157e75f6118db565b5b806158036157fd6157f8856120b1565b61052d565b9161052d565b10156158925761581d6158178383906120b5565b9061573e565b61582f61582985610349565b91610349565b146158425761583d90611a84565b6157e8565b61588f925061588a9061588461587d61587785615871615861886120b1565b61586b6001613396565b9061574c565b906120b5565b9061573e565b91846120b5565b90612107565b615799565b5b565b505050615890565b9160206158bb9294936158b460408201965f830190610937565b01906106dd565b565b906158d26158cc838390614269565b15610261565b6158da575050565b6158f45f92839263e2517d3f60e01b84526004840161589a565b0390fdfea2646970667358221220d9e1881ff03dd165025c0e4112c0bf8244369e55499ed345d5065f347ffe856e64736f6c634300081e0033","linkReferences":{}},"methodIdentifiers":{"DEFAULT_ADMIN_ROLE()":"a217fddf","DEFAULT_GUARDIAN_DELAY()":"7bd3c44a","GUARDIAN_ADMIN_ROLE()":"eee5cf62","MAX_GUARDIANS()":"422c1d37","MIN_GUARDIAN_TRUST_SCORE()":"d2b3bd4b","RECOVERY_EXECUTION_DELAY()":"0eec7e0d","canExecuteRecovery(bytes32)":"a4c7b198","cancelRecovery(bytes32,string)":"b3c08f20","executeGuardianChange(bytes32)":"4bf251fe","executeRecovery(bytes32)":"7abed905","getGuardianInfo(address,address)":"e319aaf3","getGuardianSet(address)":"c0965bd7","getRecoveryInfo(bytes32)":"5a6eb916","getRoleAdmin(bytes32)":"248a9ca3","grantRole(bytes32,address)":"2f2ff15d","guardianChanges(bytes32)":"e54a2f1f","hasRole(bytes32,address)":"91d14854","isGuardian(address,address)":"d4ee9734","proposeGuardianChange(address,string,bool,string)":"7672f50f","proposeRecovery(address,address,bytes32,string)":"e71431a7","recoveryProposals(bytes32)":"f958684c","renounceRole(bytes32,address)":"36568abe","revokeRole(bytes32,address)":"d547741f","setupGuardianSet(address[],string[],uint256)":"0a2dcc08","supportsInterface(bytes4)":"01ffc9a7","trustScore()":"3078d998","updateThreshold(uint256)":"d7d7442f","userRegistry()":"5c7460d6","verificationLogger()":"e1300c88","voteForRecovery(bytes32)":"eb1f4120"},"id":68}