{"abi":[{"type":"constructor","inputs":[{"name":"_verificationLogger","type":"address","internalType":"address"},{"name":"_userRegistry","type":"address","internalType":"address"},{"name":"_trustScore","type":"address","internalType":"address"},{"name":"_aadhaarVerificationManager","type":"address","internalType":"address"}],"stateMutability":"nonpayable"},{"type":"function","name":"DEFAULT_ADMIN_ROLE","inputs":[],"outputs":[{"name":"","type":"bytes32","internalType":"bytes32"}],"stateMutability":"view"},{"type":"function","name":"INCOME_ORACLE_ROLE","inputs":[],"outputs":[{"name":"","type":"bytes32","internalType":"bytes32"}],"stateMutability":"view"},{"type":"function","name":"INCOME_VERIFICATION_SCORE","inputs":[],"outputs":[{"name":"","type":"uint256","internalType":"uint256"}],"stateMutability":"view"},{"type":"function","name":"INCOME_VERIFICATION_VALIDITY","inputs":[],"outputs":[{"name":"","type":"uint256","internalType":"uint256"}],"stateMutability":"view"},{"type":"function","name":"VERIFIER_ROLE","inputs":[],"outputs":[{"name":"","type":"bytes32","internalType":"bytes32"}],"stateMutability":"view"},{"type":"function","name":"aadhaarVerificationManager","inputs":[],"outputs":[{"name":"","type":"address","internalType":"contract IAadhaarVerificationManager"}],"stateMutability":"view"},{"type":"function","name":"bulkCompleteIncomeVerification","inputs":[{"name":"users","type":"address[]","internalType":"address[]"},{"name":"successes","type":"bool[]","internalType":"bool[]"},{"name":"signatures","type":"bytes[]","internalType":"bytes[]"}],"outputs":[],"stateMutability":"nonpayable"},{"type":"function","name":"checkAndExpireVerifications","inputs":[{"name":"users","type":"address[]","internalType":"address[]"}],"outputs":[],"stateMutability":"nonpayable"},{"type":"function","name":"completeIncomeVerification","inputs":[{"name":"user","type":"address","internalType":"address"},{"name":"success","type":"bool","internalType":"bool"},{"name":"oracleSignature","type":"bytes","internalType":"bytes"}],"outputs":[],"stateMutability":"nonpayable"},{"type":"function","name":"getIncomeHistory","inputs":[{"name":"user","type":"address","internalType":"address"}],"outputs":[{"name":"","type":"tuple[]","internalType":"struct IncomeVerificationManager.IncomeVerification[]","components":[{"name":"user","type":"address","internalType":"address"},{"name":"incomeProofHash","type":"bytes32","internalType":"bytes32"},{"name":"incomeRange","type":"uint8","internalType":"enum IncomeVerificationManager.IncomeRange"},{"name":"timestamp","type":"uint256","internalType":"uint256"},{"name":"isVerified","type":"bool","internalType":"bool"},{"name":"isActive","type":"bool","internalType":"bool"},{"name":"verificationSource","type":"string","internalType":"string"},{"name":"expiryDate","type":"uint256","internalType":"uint256"},{"name":"isRenewed","type":"bool","internalType":"bool"}]}],"stateMutability":"view"},{"type":"function","name":"getIncomeRangeStats","inputs":[],"outputs":[{"name":"rangeCounts","type":"uint256[5]","internalType":"uint256[5]"},{"name":"totalVerified","type":"uint256","internalType":"uint256"}],"stateMutability":"view"},{"type":"function","name":"getIncomeVerificationInfo","inputs":[{"name":"user","type":"address","internalType":"address"}],"outputs":[{"name":"incomeRange","type":"uint8","internalType":"enum IncomeVerificationManager.IncomeRange"},{"name":"timestamp","type":"uint256","internalType":"uint256"},{"name":"isVerified","type":"bool","internalType":"bool"},{"name":"verificationSource","type":"string","internalType":"string"},{"name":"expiryDate","type":"uint256","internalType":"uint256"},{"name":"isExpired","type":"bool","internalType":"bool"}],"stateMutability":"view"},{"type":"function","name":"getRoleAdmin","inputs":[{"name":"role","type":"bytes32","internalType":"bytes32"}],"outputs":[{"name":"","type":"bytes32","internalType":"bytes32"}],"stateMutability":"view"},{"type":"function","name":"grantRole","inputs":[{"name":"role","type":"bytes32","internalType":"bytes32"},{"name":"account","type":"address","internalType":"address"}],"outputs":[],"stateMutability":"nonpayable"},{"type":"function","name":"hasRole","inputs":[{"name":"role","type":"bytes32","internalType":"bytes32"},{"name":"account","type":"address","internalType":"address"}],"outputs":[{"name":"","type":"bool","internalType":"bool"}],"stateMutability":"view"},{"type":"function","name":"incomeHistory","inputs":[{"name":"","type":"address","internalType":"address"},{"name":"","type":"uint256","internalType":"uint256"}],"outputs":[{"name":"user","type":"address","internalType":"address"},{"name":"incomeProofHash","type":"bytes32","internalType":"bytes32"},{"name":"incomeRange","type":"uint8","internalType":"enum IncomeVerificationManager.IncomeRange"},{"name":"timestamp","type":"uint256","internalType":"uint256"},{"name":"isVerified","type":"bool","internalType":"bool"},{"name":"isActive","type":"bool","internalType":"bool"},{"name":"verificationSource","type":"string","internalType":"string"},{"name":"expiryDate","type":"uint256","internalType":"uint256"},{"name":"isRenewed","type":"bool","internalType":"bool"}],"stateMutability":"view"},{"type":"function","name":"incomeVerifications","inputs":[{"name":"","type":"address","internalType":"address"}],"outputs":[{"name":"user","type":"address","internalType":"address"},{"name":"incomeProofHash","type":"bytes32","internalType":"bytes32"},{"name":"incomeRange","type":"uint8","internalType":"enum IncomeVerificationManager.IncomeRange"},{"name":"timestamp","type":"uint256","internalType":"uint256"},{"name":"isVerified","type":"bool","internalType":"bool"},{"name":"isActive","type":"bool","internalType":"bool"},{"name":"verificationSource","type":"string","internalType":"string"},{"name":"expiryDate","type":"uint256","internalType":"uint256"},{"name":"isRenewed","type":"bool","internalType":"bool"}],"stateMutability":"view"},{"type":"function","name":"isIncomeVerified","inputs":[{"name":"user","type":"address","internalType":"address"}],"outputs":[{"name":"","type":"bool","internalType":"bool"}],"stateMutability":"view"},{"type":"function","name":"renewIncomeVerification","inputs":[{"name":"newIncomeProofHash","type":"bytes32","internalType":"bytes32"},{"name":"newIncomeRange","type":"uint8","internalType":"enum IncomeVerificationManager.IncomeRange"},{"name":"verificationSource","type":"string","internalType":"string"}],"outputs":[],"stateMutability":"nonpayable"},{"type":"function","name":"renounceRole","inputs":[{"name":"role","type":"bytes32","internalType":"bytes32"},{"name":"callerConfirmation","type":"address","internalType":"address"}],"outputs":[],"stateMutability":"nonpayable"},{"type":"function","name":"requestIncomeVerification","inputs":[{"name":"incomeProofHash","type":"bytes32","internalType":"bytes32"},{"name":"incomeRange","type":"uint8","internalType":"enum IncomeVerificationManager.IncomeRange"},{"name":"verificationSource","type":"string","internalType":"string"}],"outputs":[],"stateMutability":"nonpayable"},{"type":"function","name":"revokeIncomeVerification","inputs":[{"name":"user","type":"address","internalType":"address"},{"name":"reason","type":"string","internalType":"string"}],"outputs":[],"stateMutability":"nonpayable"},{"type":"function","name":"revokeRole","inputs":[{"name":"role","type":"bytes32","internalType":"bytes32"},{"name":"account","type":"address","internalType":"address"}],"outputs":[],"stateMutability":"nonpayable"},{"type":"function","name":"supportsInterface","inputs":[{"name":"interfaceId","type":"bytes4","internalType":"bytes4"}],"outputs":[{"name":"","type":"bool","internalType":"bool"}],"stateMutability":"view"},{"type":"function","name":"trustScore","inputs":[],"outputs":[{"name":"","type":"address","internalType":"contract ITrustScore"}],"stateMutability":"view"},{"type":"function","name":"userRegistry","inputs":[],"outputs":[{"name":"","type":"address","internalType":"contract IUserIdentityRegistry"}],"stateMutability":"view"},{"type":"function","name":"verificationLogger","inputs":[],"outputs":[{"name":"","type":"address","internalType":"contract IVerificationLogger"}],"stateMutability":"view"},{"type":"event","name":"IncomeVerificationCompleted","inputs":[{"name":"user","type":"address","indexed":true,"internalType":"address"},{"name":"success","type":"bool","indexed":false,"internalType":"bool"},{"name":"source","type":"string","indexed":false,"internalType":"string"}],"anonymous":false},{"type":"event","name":"IncomeVerificationExpired","inputs":[{"name":"user","type":"address","indexed":true,"internalType":"address"}],"anonymous":false},{"type":"event","name":"IncomeVerificationRenewed","inputs":[{"name":"user","type":"address","indexed":true,"internalType":"address"},{"name":"newRange","type":"uint8","indexed":false,"internalType":"enum IncomeVerificationManager.IncomeRange"}],"anonymous":false},{"type":"event","name":"IncomeVerificationRequested","inputs":[{"name":"user","type":"address","indexed":true,"internalType":"address"},{"name":"incomeRange","type":"uint8","indexed":false,"internalType":"enum IncomeVerificationManager.IncomeRange"}],"anonymous":false},{"type":"event","name":"IncomeVerificationRevoked","inputs":[{"name":"user","type":"address","indexed":true,"internalType":"address"},{"name":"reason","type":"string","indexed":false,"internalType":"string"}],"anonymous":false},{"type":"event","name":"RoleAdminChanged","inputs":[{"name":"role","type":"bytes32","indexed":true,"internalType":"bytes32"},{"name":"previousAdminRole","type":"bytes32","indexed":true,"internalType":"bytes32"},{"name":"newAdminRole","type":"bytes32","indexed":true,"internalType":"bytes32"}],"anonymous":false},{"type":"event","name":"RoleGranted","inputs":[{"name":"role","type":"bytes32","indexed":true,"internalType":"bytes32"},{"name":"account","type":"address","indexed":true,"internalType":"address"},{"name":"sender","type":"address","indexed":true,"internalType":"address"}],"anonymous":false},{"type":"event","name":"RoleRevoked","inputs":[{"name":"role","type":"bytes32","indexed":true,"internalType":"bytes32"},{"name":"account","type":"address","indexed":true,"internalType":"address"},{"name":"sender","type":"address","indexed":true,"internalType":"address"}],"anonymous":false},{"type":"error","name":"AccessControlBadConfirmation","inputs":[]},{"type":"error","name":"AccessControlUnauthorizedAccount","inputs":[{"name":"account","type":"address","internalType":"address"},{"name":"neededRole","type":"bytes32","internalType":"bytes32"}]},{"type":"error","name":"ReentrancyGuardReentrantCall","inputs":[]}],"bytecode":{"object":"0x6080604052346100335761001d610014610120565b92919091610315565b610025610038565b614e1a6105f18239614e1a90f35b61003e565b60405190565b5f80fd5b601f801991011690565b634e487b7160e01b5f52604160045260245ffd5b9061006a90610042565b810190811060018060401b0382111761008257604052565b61004c565b9061009a610093610038565b9283610060565b565b5f80fd5b60018060a01b031690565b6100b4906100a0565b90565b6100c0816100ab565b036100c757565b5f80fd5b905051906100d8826100b7565b565b60808183031261011b576100f0825f83016100cb565b9261011861010184602085016100cb565b9361010f81604086016100cb565b936060016100cb565b90565b61009c565b61013e61540b8038038061013381610087565b9283398101906100da565b90919293565b90565b90565b5f1b90565b61016361015e61016892610144565b61014a565b610147565b90565b6101745f61014f565b90565b7f0ce23c3e399818cfee81a7ab0880f714e53d7672b08df0fa62f2843416e1ea0990565b7fdb6774f99f29e0f6ab61700091e82224c456e425841726b0fabd2bc5ac33514890565b90565b6101d66101d16101db926100a0565b6101bf565b6100a0565b90565b6101e7906101c2565b90565b6101f3906101de565b90565b9061020760018060a01b039161014a565b9181191691161790565b61021a906101de565b90565b90565b9061023561023061023c92610211565b61021d565b82546101f6565b9055565b610249906101c2565b90565b61025590610240565b90565b61026190610240565b90565b90565b9061027c61027761028392610258565b610264565b82546101f6565b9055565b610290906101c2565b90565b61029c90610287565b90565b6102a890610287565b90565b90565b906102c36102be6102ca9261029f565b6102ab565b82546101f6565b9055565b6102d7906101c2565b90565b6102e3906102ce565b90565b6102ef906102ce565b90565b90565b9061030a610305610311926102e6565b6102f2565b82546101f6565b9055565b61038f61039b9361038a6103836103a2979561037e61037761039697610339610428565b61034b61034461016b565b33906104df565b5061035e610357610177565b33906104df565b5061037161036a61019b565b33906104df565b506101ea565b6004610220565b61024c565b6005610267565b610293565b60066102ae565b6102da565b60076102f5565b565b90565b90565b6103be6103b96103c3926103a4565b6101bf565b6103a7565b90565b6103d060016103aa565b90565b906103df5f199161014a565b9181191691161790565b6103fd6103f8610402926103a7565b6101bf565b6103a7565b90565b90565b9061041d610418610424926103e9565b610405565b82546103d3565b9055565b61043a6104336103c6565b6001610408565b565b5f90565b151590565b61044e90610147565b90565b9061045b90610445565b5f5260205260405f2090565b610470906101c2565b90565b61047c90610467565b90565b9061048990610473565b5f5260205260405f2090565b906104a160ff9161014a565b9181191691161790565b6104b490610440565b90565b90565b906104cf6104ca6104d6926104ab565b6104b7565b8254610495565b9055565b5f0190565b6104e761043c565b506104fc6104f68284906105b6565b15610440565b5f1461058457610523600161051e5f610516818690610451565b01859061047f565b6104ba565b9061052c6105e3565b9061056961056361055d7f2f8788117e7eff1d82e926ec794901d17c78024a50270940304540a733656f0d95610445565b92610473565b92610473565b92610572610038565b8061057c816104da565b0390a4600190565b50505f90565b5f1c90565b60ff1690565b6105a16105a69161058a565b61058f565b90565b6105b39054610595565b90565b6105dc915f6105d16105d7936105ca61043c565b5082610451565b0161047f565b6105a9565b90565b5f90565b6105eb6105df565b50339056fe60806040526004361015610013575b611907565b61001d5f356101cc565b806301ffc9a7146101c7578063075ee669146101c25780630ae1fd9e146101bd57806317036f0c146101b857806317f448d8146101b3578063190241a3146101ae57806319524241146101a9578063248a9ca3146101a4578063251cedb91461019f5780632f2ff15d1461019a5780633078d9981461019557806336568abe146101905780635a8f56c31461018b5780635c7460d6146101865780636450600b146101815780636b1c179f1461017c578063754a5d011461017757806391d1485414610172578063a217fddf1461016d578063aebf32bd14610168578063c70ddfab14610163578063d547741f1461015e578063d69c2cdf14610159578063e1300c8814610154578063e58a26081461014f578063e7705db61461014a5763ff69c8740361000e576118d3565b61189e565b61183a565b611797565b6116f4565b6116c0565b61168c565b61148f565b61142b565b6113ba565b611386565b61130d565b6111ee565b611002565b610f55565b610e8b565b610e56565b610db0565b610d4d565b610c78565b610bed565b610b73565b610713565b6105d0565b61052e565b6103fc565b610258565b60e01c90565b60405190565b5f80fd5b5f80fd5b5f80fd5b63ffffffff60e01b1690565b6101f9816101e4565b0361020057565b5f80fd5b90503590610211826101f0565b565b9060208282031261022c57610229915f01610204565b90565b6101dc565b151590565b61023f90610231565b9052565b9190610256905f60208501940190610236565b565b346102885761028461027361026e366004610213565b61190f565b61027b6101d2565b91829182610243565b0390f35b6101d8565b5f80fd5b601f801991011690565b634e487b7160e01b5f52604160045260245ffd5b906102b990610291565b810190811067ffffffffffffffff8211176102d357604052565b61029b565b906102eb6102e46101d2565b92836102af565b565b67ffffffffffffffff81116103055760208091020190565b61029b565b5f80fd5b60018060a01b031690565b6103229061030e565b90565b61032e81610319565b0361033557565b5f80fd5b9050359061034682610325565b565b9092919261035d610358826102ed565b6102d8565b938185526020808601920283019281841161039a57915b8383106103815750505050565b6020809161038f8486610339565b815201920191610374565b61030a565b9080601f830112156103bd578160206103ba93359101610348565b90565b61028d565b906020828203126103f2575f82013567ffffffffffffffff81116103ed576103ea920161039f565b90565b6101e0565b6101dc565b5f0190565b3461042a5761041461040f3660046103c2565b6119ab565b61041c6101d2565b80610426816103f7565b0390f35b6101d8565b61043881610231565b0361043f57565b5f80fd5b905035906104508261042f565b565b5f80fd5b67ffffffffffffffff811161047457610470602091610291565b0190565b61029b565b90825f939282370152565b9092919261049961049482610456565b6102d8565b938185526020850190828401116104b5576104b392610479565b565b610452565b9080601f830112156104d8578160206104d593359101610484565b90565b61028d565b91606083830312610529576104f4825f8501610339565b926105028360208301610443565b92604082013567ffffffffffffffff81116105245761052192016104ba565b90565b6101e0565b6101dc565b3461055d576105476105413660046104dd565b91612969565b61054f6101d2565b80610559816103f7565b0390f35b6101d8565b5f91031261056c57565b6101dc565b90565b90565b90565b61058e61058961059392610571565b610577565b610574565b90565b6105a0601961057a565b90565b6105ab610596565b90565b6105b790610574565b9052565b91906105ce905f602085019401906105ae565b565b34610600576105e0366004610562565b6105fc6105eb6105a3565b6105f36101d2565b918291826105bb565b0390f35b6101d8565b9060208282031261061e5761061b915f01610339565b90565b6101dc565b634e487b7160e01b5f52602160045260245ffd5b6005111561064157565b610623565b9061065082610637565b565b61065b90610646565b90565b61066790610652565b9052565b5190565b60209181520190565b90825f9392825e0152565b6106a26106ab6020936106b0936106998161066b565b9384809361066f565b95869101610678565b610291565b0190565b9161070a91610711969897956106f260a0966106e86106ff956106de60c08a01965f8b019061065e565b60208901906105ae565b6040870190610236565b8482036060860152610683565b9660808301906105ae565b0190610236565b565b3461074a5761074661072e610729366004610605565b612aeb565b9261073d9694969291926101d2565b968796876106b4565b0390f35b6101d8565b61075881610574565b0361075f57565b5f80fd5b905035906107708261074f565b565b919060408382031261079a578061078e610797925f8601610339565b93602001610763565b90565b6101dc565b6107b36107ae6107b89261030e565b610577565b61030e565b90565b6107c49061079f565b90565b6107d0906107bb565b90565b906107dd906107c7565b5f5260205260405f2090565b634e487b7160e01b5f52603260045260245ffd5b5490565b5f5260205f2090565b610813816107fd565b82101561082d57610825600891610801565b910201905f90565b6107e9565b5f1c90565b60018060a01b031690565b61084e61085391610832565b610837565b90565b6108609054610842565b90565b90565b61087261087791610832565b610863565b90565b6108849054610866565b90565b60ff1690565b61089961089e91610832565b610887565b90565b6108ab905461088d565b90565b90565b6108bd6108c291610832565b6108ae565b90565b6108cf90546108b1565b90565b60ff1690565b6108e46108e991610832565b6108d2565b90565b6108f690546108d8565b90565b60081c90565b61090b610910916108f9565b6108d2565b90565b61091d90546108ff565b90565b634e487b7160e01b5f52602260045260245ffd5b9060016002830492168015610954575b602083101461094f57565b610920565b91607f1691610944565b60209181520190565b5f5260205f2090565b905f929180549061098a61098383610934565b809461095e565b916001811690815f146109e157506001146109a5575b505050565b6109b29192939450610967565b915f925b8184106109c957505001905f80806109a0565b600181602092959395548486015201910192906109b6565b92949550505060ff19168252151560200201905f80806109a0565b90610a0691610970565b90565b90610a29610a2292610a196101d2565b938480926109fc565b03836102af565b565b610a369060036107d3565b90610a40826107fd565b811015610ac657610a509161080a565b50610a5c5f8201610856565b91610a696001830161087a565b91610a76600282016108a1565b91610a83600383016108c5565b91610a90600482016108ec565b91610a9d60048301610913565b91610aaa60058201610a09565b91610ac36007610abc600685016108c5565b93016108ec565b90565b5f80fd5b610ad390610319565b9052565b90565b610ae390610ad7565b9052565b9461010096610b48610b5292610b3e610b6a98610b719d9f9e9c9697610b5f99610b2a610b349260208f610b2361012082019e5f830190610aca565b0190610ada565b60408d019061065e565b60608b01906105ae565b6080890190610236565b60a0870190610236565b84820360c0860152610683565b9660e08301906105ae565b0190610236565b565b34610bae57610baa610b8f610b89366004610772565b90610a2b565b95610ba19997999591959492946101d2565b998a998a610ae7565b0390f35b6101d8565b90565b610bca610bc5610bcf92610bb3565b610577565b610574565b90565b610bdf6301e13380610bb6565b90565b610bea610bd2565b90565b34610c1d57610bfd366004610562565b610c19610c08610be2565b610c106101d2565b918291826105bb565b0390f35b6101d8565b610c2b81610ad7565b03610c3257565b5f80fd5b90503590610c4382610c22565b565b90602082820312610c5e57610c5b915f01610c36565b90565b6101dc565b9190610c76905f60208501940190610ada565b565b34610ca857610ca4610c93610c8e366004610c45565b612b9a565b610c9b6101d2565b91829182610c63565b0390f35b6101d8565b50600590565b905090565b90565b610cc490610574565b9052565b90610cd581602093610cbb565b0190565b60200190565b610cfb610cf5610cee83610cad565b8094610cb3565b91610cb8565b5f915b838310610d0b5750505050565b610d21610d1b6001928451610cc8565b92610cd9565b92019190610cfe565b9160a0610d4b929493610d4460c08201965f830190610cdf565b01906105ae565b565b34610d7e57610d5d366004610562565b610d65612c1b565b90610d7a610d716101d2565b92839283610d2a565b0390f35b6101d8565b9190604083820312610dab5780610d9f610da8925f8601610c36565b93602001610339565b90565b6101dc565b34610ddf57610dc9610dc3366004610d83565b90612cd6565b610dd16101d2565b80610ddb816103f7565b0390f35b6101d8565b1c90565b60018060a01b031690565b610e03906008610e089302610de4565b610de8565b90565b90610e169154610df3565b90565b610e2560065f90610e0b565b90565b610e31906107bb565b90565b610e3d90610e28565b9052565b9190610e54905f60208501940190610e34565b565b34610e8657610e66366004610562565b610e82610e71610e19565b610e796101d2565b91829182610e41565b0390f35b6101d8565b34610eba57610ea4610e9e366004610d83565b90612ce2565b610eac6101d2565b80610eb6816103f7565b0390f35b6101d8565b90610ec9906107c7565b5f5260205260405f2090565b610ee0906002610ebf565b610eeb5f8201610856565b91610ef86001830161087a565b91610f05600282016108a1565b91610f12600383016108c5565b91610f1f600482016108ec565b91610f2c60048301610913565b91610f3960058201610a09565b91610f526007610f4b600685016108c5565b93016108ec565b90565b34610f8f57610f8b610f70610f6b366004610605565b610ed5565b95610f829997999591959492946101d2565b998a998a610ae7565b0390f35b6101d8565b60018060a01b031690565b610faf906008610fb49302610de4565b610f94565b90565b90610fc29154610f9f565b90565b610fd160055f90610fb7565b90565b610fdd906107bb565b90565b610fe990610fd4565b9052565b9190611000905f60208501940190610fe0565b565b3461103257611012366004610562565b61102e61101d610fc5565b6110256101d2565b91829182610fed565b0390f35b6101d8565b5190565b60209181520190565b60200190565b61105390610319565b9052565b61106090610ad7565b9052565b61106d90610652565b9052565b61107a90610231565b9052565b61109d6110a66020936110ab936110948161066b565b9384809361095e565b95869101610678565b610291565b0190565b90611159906101008061113c61012084016110d05f8801515f87019061104a565b6110e260208801516020870190611057565b6110f460408801516040870190611064565b61110660608801516060870190610cbb565b61111860808801516080870190611071565b61112a60a088015160a0870190611071565b60c087015185820360c087015261107e565b9461114f60e082015160e0860190610cbb565b0151910190611071565b90565b90611166916110af565b90565b60200190565b9061118361117c83611037565b809261103b565b908161119460208302840194611044565b925f915b8383106111a757505050505090565b909192939460206111c96111c38385600195038752895161115c565b97611169565b9301930191939290611198565b6111eb9160208201915f81840391015261116f565b90565b3461121e5761121a611209611204366004610605565b612dbe565b6112116101d2565b918291826111d6565b0390f35b6101d8565b6005111561122d57565b5f80fd5b9050359061123e82611223565b565b67ffffffffffffffff811161125e5761125a602091610291565b0190565b61029b565b9092919261127861127382611240565b6102d8565b938185526020850190828401116112945761129292610479565b565b610452565b9080601f830112156112b7578160206112b493359101611263565b90565b61028d565b91606083830312611308576112d3825f8501610c36565b926112e18360208301611231565b92604082013567ffffffffffffffff8111611303576113009201611299565b90565b6101e0565b6101dc565b3461133c576113266113203660046112bc565b916135fa565b61132e6101d2565b80611338816103f7565b0390f35b6101d8565b9190916040818403126113815761135a835f8301610339565b92602082013567ffffffffffffffff811161137c576113799201611299565b90565b6101e0565b6101dc565b346113b55761139f611399366004611341565b90613a5e565b6113a76101d2565b806113b1816103f7565b0390f35b6101d8565b346113eb576113e76113d66113d0366004610d83565b90613a80565b6113de6101d2565b91829182610243565b0390f35b6101d8565b90565b5f1b90565b61140c611407611411926113f0565b6113f3565b610ad7565b90565b61141d5f6113f8565b90565b611428611414565b90565b3461145b5761143b366004610562565b611457611446611420565b61144e6101d2565b91829182610c63565b0390f35b6101d8565b7fdb6774f99f29e0f6ab61700091e82224c456e425841726b0fabd2bc5ac33514890565b61148c611460565b90565b346114bf5761149f366004610562565b6114bb6114aa611484565b6114b26101d2565b91829182610c63565b0390f35b6101d8565b67ffffffffffffffff81116114dc5760208091020190565b61029b565b909291926114f66114f1826114c4565b6102d8565b938185526020808601920283019281841161153357915b83831061151a5750505050565b602080916115288486610443565b81520192019161150d565b61030a565b9080601f8301121561155657816020611553933591016114e1565b90565b61028d565b67ffffffffffffffff81116115735760208091020190565b61029b565b92919061158c6115878261155b565b6102d8565b93818552602080860192028101918383116115e35781905b8382106115b2575050505050565b813567ffffffffffffffff81116115de576020916115d387849387016104ba565b8152019101906115a4565b61028d565b61030a565b9080601f830112156116065781602061160393359101611578565b90565b61028d565b91606083830312611687575f83013567ffffffffffffffff8111611682578261163591850161039f565b92602081013567ffffffffffffffff811161167d5783611656918301611538565b92604082013567ffffffffffffffff81116116785761167592016115e8565b90565b6101e0565b6101e0565b6101e0565b6101dc565b346116bb576116a561169f36600461160b565b91613ca0565b6116ad6101d2565b806116b7816103f7565b0390f35b6101d8565b346116ef576116d96116d3366004610d83565b90613cd7565b6116e16101d2565b806116eb816103f7565b0390f35b6101d8565b346117245761172061170f61170a366004610605565b613ce3565b6117176101d2565b91829182610243565b0390f35b6101d8565b60018060a01b031690565b6117449060086117499302610de4565b611729565b90565b906117579154611734565b90565b61176660045f9061174c565b90565b611772906107bb565b90565b61177e90611769565b9052565b9190611795905f60208501940190611775565b565b346117c7576117a7366004610562565b6117c36117b261175a565b6117ba6101d2565b91829182611782565b0390f35b6101d8565b60018060a01b031690565b6117e79060086117ec9302610de4565b6117cc565b90565b906117fa91546117d7565b90565b61180960075f906117ef565b90565b611815906107bb565b90565b6118219061180c565b9052565b9190611838905f60208501940190611818565b565b3461186a5761184a366004610562565b6118666118556117fd565b61185d6101d2565b91829182611825565b0390f35b6101d8565b7f0ce23c3e399818cfee81a7ab0880f714e53d7672b08df0fa62f2843416e1ea0990565b61189b61186f565b90565b346118ce576118ae366004610562565b6118ca6118b9611893565b6118c16101d2565b91829182610c63565b0390f35b6101d8565b34611902576118ec6118e63660046112bc565b91614593565b6118f46101d2565b806118fe816103f7565b0390f35b6101d8565b5f80fd5b5f90565b61191761190b565b508061193261192c637965db0b60e01b6101e4565b916101e4565b1490811561193f575b5090565b61194991506145a0565b5f61193b565b61196361195e611968926113f0565b610577565b610574565b90565b60016119779101610574565b90565b5190565b906119888261197a565b811015611999576020809102010190565b6107e9565b6119a89051610319565b90565b6119b45f61194f565b5b806119d06119ca6119c58561197a565b610574565b91610574565b1015611a5957611a05906119f56119f06119eb85849061197e565b61199e565b6145c6565b80611a2a575b611a0a575b61196b565b6119b5565b611a25611a20611a1b85849061197e565b61199e565b61471b565b611a00565b50611a546004611a4e6002611a48611a4388879061197e565b61199e565b90610ebf565b016108ec565b6119fb565b5050565b90611a789291611a73611a6e611460565b614983565b61256e565b565b5f7f4e6f2061637469766520696e636f6d6520766572696669636174696f6e000000910152565b611aae601d60209261066f565b611ab781611a7a565b0190565b611ad09060208101905f818303910152611aa1565b90565b15611ada57565b611ae26101d2565b62461bcd60e51b815280611af860048201611abb565b0390fd5b5f7f496e76616c6964206f7261636c65207369676e61747572650000000000000000910152565b611b30601860209261066f565b611b3981611afc565b0190565b611b529060208101905f818303910152611b23565b90565b15611b5c57565b611b646101d2565b62461bcd60e51b815280611b7a60048201611b3d565b0390fd5b90611b8a60ff916113f3565b9181191691161790565b611b9d90610231565b90565b90565b90611bb8611bb3611bbf92611b94565b611ba0565b8254611b7e565b9055565b60081b90565b90611bd661ff0091611bc3565b9181191691161790565b90611bf5611bf0611bfc92611b94565b611ba0565b8254611bc9565b9055565b611c0c611c1191610832565b610de8565b90565b611c1e9054611c00565b90565b5f80fd5b60e01b90565b5f910312611c3557565b6101dc565b90565b90565b611c54611c4f611c5992611c3a565b610577565b611c3d565b90565b611c6590611c40565b9052565b5f7f496e636f6d6520766572696669636174696f6e206661696c6564000000000000910152565b611c9d601a60209261066f565b611ca681611c69565b0190565b611ccc611cd993611cc260608401945f850190610aca565b6020830190611c5c565b6040818303910152611c90565b90565b611ce46101d2565b3d5f823e3d90fd5b634e487b7160e01b5f52601160045260245ffd5b611d0f611d1591939293610574565b92610574565b8201809211611d2057565b611cec565b90611d315f19916113f3565b9181191691161790565b611d4f611d4a611d5492610574565b610577565b610574565b90565b90565b90611d6f611d6a611d7692611d3b565b611d57565b8254611d25565b9055565b611d86611d8b91610832565b610f94565b90565b611d989054611d7a565b90565b5f7f696e636f6d650000000000000000000000000000000000000000000000000000910152565b611dcf600660209261066f565b611dd881611d9b565b0190565b92916040611e05611e0d93611df860608801915f890190610aca565b8681036020880152611dc2565b940190610236565b565b611e23611e1e611e2892610574565b610577565b611c3d565b90565b611e3490611c3d565b9052565b5f7f496e636f6d6520766572696669636174696f6e20636f6d706c65746564000000910152565b611e6c601d60209261066f565b611e7581611e38565b0190565b611e9b611ea893611e9160608401945f850190610aca565b6020830190611e2b565b6040818303910152611e5f565b90565b90565b5f5260205f2090565b5490565b611ec481611eb7565b821015611ede57611ed6600891611eae565b910201905f90565b6107e9565b634e487b7160e01b5f525f60045260245ffd5b90611f0760018060a01b03916113f3565b9181191691161790565b90565b90611f29611f24611f30926107c7565b611f11565b8254611ef6565b9055565b611f3d90610ad7565b90565b611f4990610832565b90565b90611f61611f5c611f6892611f34565b611f40565b8254611d25565b9055565b611f7590610646565b90565b90565b90611f90611f8b611f9792611f6c565b611f78565b8254611b7e565b9055565b611fa59054610934565b90565b601f602091010490565b1b90565b91906008611fd1910291611fcb5f1984611fb2565b92611fb2565b9181191691161790565b9190611ff1611fec611ff993611d3b565b611d57565b908354611fb6565b9055565b5f90565b6120139161200d611ffd565b91611fdb565b565b5b818110612021575050565b8061202e5f600193612001565b01612016565b9190601f8111612044575b505050565b61205061207593610967565b90602061205c84611fa8565b8301931061207d575b61206e90611fa8565b0190612015565b5f808061203f565b915061206e81929050612065565b9061209b905f1990600802610de4565b191690565b816120aa9161208b565b906002021790565b90808214612191576120c381611f9b565b9067ffffffffffffffff821161218c576120e7826120e18554610934565b85612034565b5f90601f831160011461211a57918091612109935f9261210e575b50506120a0565b90555b565b90915001545f80612102565b90612129601f19841692610967565b9061213385610967565b925f5b8181106121745750916002939185600196941061215a575b5050500201905561210c565b61216a910154601f84169061208b565b90555f808061214e565b91936001806020928787015481550195019201612136565b61029b565b5050565b9061219f916120b2565b565b908082036121ae575b5050565b61227e600780846121cf5f61228497016121c95f8801610856565b90611f14565b6121e8600182016121e26001880161087a565b90611f4c565b612201600282016121fb600288016108a1565b90611f7b565b61221a60038201612214600388016108c5565b90611d5a565b6122336004820161222d600488016108ec565b90611ba3565b61224c6004820161224660048801610913565b90611be0565b61225d600582016005870190612195565b61227660068201612270600688016108c5565b90611d5a565b0192016108ec565b90611ba3565b5f806121aa565b919061229c5761229a916121a1565b565b611ee3565b90815491680100000000000000008310156122d157826122c99160016122cf95018155611ebb565b9061228b565b565b61029b565b6122e26122e791610832565b611729565b90565b6122f490546122d6565b90565b9061230961230483611240565b6102d8565b918252565b5f7f494e434f4d455f564552494649434154494f4e5f4641494c4544000000000000910152565b61233f601a6122f7565b9061234c6020830161230e565b565b612356612335565b90565b5f7f494e434f4d455f564552494649434154494f4e5f535543434553530000000000910152565b61238a601b6122f7565b9061239760208301612359565b565b6123a1612380565b90565b905090565b905f92918054906123c36123bc83610934565b80946123a4565b916001811690815f1461241557506001146123de575b505050565b6123eb9192939450610967565b5f905b83821061240157505001905f80806123d9565b6001816020925484860152019101906123ee565b92949550505060ff191682528015150201905f80806123d9565b60f81b90565b61243e9061242f565b90565b61244a90612435565b90565b61245961245e91610231565b612441565b9052565b61247261247991600194936123a9565b809261244d565b0190565b60200190565b5190565b6040906124b36124a86124ba9597969460608401908482035f860152610683565b966020830190610aca565b0190610ada565b565b905f92918054906124d66124cf83610934565b809461066f565b916001811690815f1461252d57506001146124f1575b505050565b6124fe9192939450610967565b915f925b81841061251557505001905f80806124ec565b60018160209295939554848601520191019290612502565b92949550505060ff19168252151560200201905f80806124ec565b9161256b9261255e60408201935f830190610236565b60208184039101526124bc565b90565b9161259f6125a491612595612590600461258a60028990610ebf565b01610913565b611ad3565b84908490916149bf565b611b55565b6125bc8160046125b660028690610ebf565b01611ba3565b805f146128bb576125ec6125d8426125d2610bd2565b90611d00565b60066125e660028690610ebf565b01611d5a565b6125fe6125f96005611d8e565b610fd4565b63df551ce883600192803b156128b65761262b5f809461263661261f6101d2565b97889687958694611c25565b845260048401611ddc565b03925af180156128b157612885575b5061266461265f6002612659818690610ebf565b016108a1565b614a91565b6126766126716006611c14565b610e28565b90630cc9ec5b90612697612692869261268d610596565b611d00565b611e0f565b92803b15612880576126bc5f80946126c76126b06101d2565b97889687958694611c25565b845260048401611e79565b03925af1801561287b5761284f575b506127006126ee6126e9600385906107d3565b611eab565b6126fa60028590610ebf565b906122a1565b5b61271361270e60046122ea565b611769565b635260590a825f1461284257612727612399565b5b8492600561273860028890610ebf565b0161276486916127556127496101d2565b93849260208401612462565b602082018103825203826102af565b61277661277082612483565b9161247d565b2092813b1561283d575f61279d916127a882966127916101d2565b98899788968795611c25565b855260048501612487565b03925af180156128385761280c575b5060056127c78392936002610ebf565b016127f27f13fa879e382650aa533c04b854ebaab66ce8b4675368a9cdb66fe98bc6394378926107c7565b926128076127fe6101d2565b92839283612548565b0390a2565b61282b905f3d8111612831575b61282381836102af565b810190611c2b565b5f6127b7565b503d612819565b611cdc565b611c21565b61284a61234e565b612728565b61286e905f3d8111612874575b61286681836102af565b810190611c2b565b5f6126d6565b503d61285c565b611cdc565b611c21565b6128a4905f3d81116128aa575b61289c81836102af565b810190611c2b565b5f612645565b503d612892565b611cdc565b611c21565b6128d35f60046128cd60028690610ebf565b01611be0565b6128e56128e06006611c14565b610e28565b630cc9ec5b8360041992803b15612964576129135f809461291e6129076101d2565b97889687958694611c25565b845260048401611caa565b03925af1801561295f57612933575b50612701565b612952905f3d8111612958575b61294a81836102af565b810190611c2b565b5f61292d565b503d612940565b611cdc565b611c21565b906129749291611a5d565b565b5f90565b606090565b9061298990610319565b9052565b9061299790610ad7565b9052565b906129a590610646565b9052565b906129b390610574565b9052565b906129c190610231565b9052565b52565b6129d36101206102d8565b90565b90612ab6612aac60076129e76129c8565b946129fe6129f65f8301610856565b5f880161297f565b612a16612a0d6001830161087a565b6020880161298d565b612a2e612a25600283016108a1565b6040880161299b565b612a46612a3d600383016108c5565b606088016129a9565b612a5e612a55600483016108ec565b608088016129b7565b612a76612a6d60048301610913565b60a088016129b7565b612a8e612a8560058301610a09565b60c088016129c5565b612aa6612a9d600683016108c5565b60e088016129a9565b016108ec565b61010084016129b7565b565b612ac1906129d6565b90565b612ace9051610646565b90565b612adb9051610574565b90565b612ae89051610231565b90565b90612af4612976565b50612afd611ffd565b50612b0661190b565b50612b0f61297a565b50612b18611ffd565b50612b2161190b565b50612b36612b3160028490610ebf565b612ab8565b612b4260408201612ac4565b92612b4f60608301612ad1565b93612b5c60808401612ade565b93612b77612b7160e060c08701519601612ad1565b936145c6565b91959493929190565b5f90565b90612b8e90611f34565b5f5260205260405f2090565b6001612bb2612bb892612bab612b80565b505f612b84565b0161087a565b90565b67ffffffffffffffff8111612bd05760200290565b61029b565b612be1612be691612bbb565b6102d8565b90565b369037565b90612c0c612bfb83612bd5565b92612c068491612bbb565b90612be9565b565b612c186005612bee565b90565b612c23612c0e565b50612c2c611ffd565b50612c376005612bd5565b612c4b612c435f61194f565b5f83016129a9565b612c60612c575f61194f565b602083016129a9565b612c75612c6c5f61194f565b604083016129a9565b612c8a612c815f61194f565b606083016129a9565b612c9f612c965f61194f565b608083016129a9565b90612ca95f61194f565b90565b90612cc791612cc2612cbd82612b9a565b614983565b612cc9565b565b90612cd391614b65565b50565b90612ce091612cac565b565b9080612cfd612cf7612cf2614c14565b610319565b91610319565b03612d0e57612d0b91614c21565b50565b5f63334bd91960e11b815280612d26600482016103f7565b0390fd5b606090565b67ffffffffffffffff8111612d475760208091020190565b61029b565b90612d5e612d5983612d2f565b6102d8565b918252565b90612d6d826107fd565b612d7681612d4c565b92612d846020850191610801565b5f915b838310612d945750505050565b60086020600192612da485612ab8565b815201920192019190612d87565b612dbb90612d63565b90565b612dd5612dda91612dcd612d2a565b5060036107d3565b612db2565b90565b90612df09291612deb614cee565b6132c3565b612df8614d72565b565b5f7f4e6f20766572696669656420696e636f6d6520746f2072656e65770000000000910152565b612e2e601b60209261066f565b612e3781612dfa565b0190565b612e509060208101905f818303910152612e21565b90565b15612e5a57565b612e626101d2565b62461bcd60e51b815280612e7860048201612e3b565b0390fd5b60207f6972656400000000000000000000000000000000000000000000000000000000917f43757272656e7420766572696669636174696f6e20616c7265616479206578705f8201520152565b612ed6602460409261066f565b612edf81612e7c565b0190565b612ef89060208101905f818303910152612ec9565b90565b15612f0257565b612f0a6101d2565b62461bcd60e51b815280612f2060048201612ee3565b0390fd5b5f7f496e76616c696420696e636f6d652070726f6f66206861736800000000000000910152565b612f58601960209261066f565b612f6181612f24565b0190565b612f7a9060208101905f818303910152612f4b565b90565b15612f8457565b612f8c6101d2565b62461bcd60e51b815280612fa260048201612f65565b0390fd5b90565b5f7f496e76616c696420766572696669636174696f6e20736f757263650000000000910152565b612fdd601b60209261066f565b612fe681612fa9565b0190565b612fff9060208101905f818303910152612fd0565b90565b1561300957565b6130116101d2565b62461bcd60e51b81528061302760048201612fea565b0390fd5b6130366101206102d8565b90565b6130439051610ad7565b90565b5190565b906130548161066b565b9067ffffffffffffffff821161311457613078826130728554610934565b85612034565b602090601f83116001146130ac5791809161309b935f926130a0575b50506120a0565b90555b565b90915001515f80613094565b601f198316916130bb85610967565b925f5b8181106130fc575091600293918560019694106130e2575b5050500201905561309e565b6130f2910151601f84169061208b565b90555f80806130d6565b919360206001819287870151815501950192016130be565b61029b565b906131239161304a565b565b906132006101006007613206946131495f82016131435f880161199e565b90611f14565b6131626001820161315c60208801613039565b90611f4c565b61317b6002820161317560408801612ac4565b90611f7b565b6131946003820161318e60608801612ad1565b90611d5a565b6131ad600482016131a760808801612ade565b90611ba3565b6131c6600482016131c060a08801612ade565b90611be0565b6131df600582016131d960c08801613046565b90613119565b6131f8600682016131f260e08801612ad1565b90611d5a565b019201612ade565b90611ba3565b565b9061321291613125565b565b60207f4553544544000000000000000000000000000000000000000000000000000000917f494e434f4d455f564552494649434154494f4e5f52454e4557414c5f524551555f8201520152565b61326e602560409261066f565b61327781613214565b0190565b9160406132ac9294936132a561329a606083018381035f850152613261565b966020830190610aca565b0190610ada565b565b91906132c1905f6020850194019061065e565b565b90916132e46132df60046132d960023390610ebf565b016108ec565b612e53565b6132fe6132f96132f3336145c6565b15610231565b612efb565b6133238261331c6133166133115f6113f8565b610ad7565b91610ad7565b1415612f7d565b61339261332f82612fa6565b61334161333b82612483565b9161247d565b208061337561336f7f74895e66cefa740d3b9bc266ac63f2719aed9fa88356f0eb3d5b6e8f4f458b64610ad7565b91610ad7565b1480156135c0575b8015613586575b90811561354b575b50613002565b60033361339e916107d3565b6133a790611eab565b6002336133b391610ebf565b6133bc916122a1565b33908290849042905f600191925f946001966133d661302b565b985f8a01906133e49161297f565b60208901906133f29161298d565b60408801906134009161299b565b606087019061340e916129a9565b608086019061341c916129b7565b60a085019061342a916129b7565b60c0840190613438916129c5565b6134419061194f565b60e083019061344f916129a9565b61010082019061345e916129b7565b60023361346a91610ebf565b9061347491613208565b61347e60046122ea565b61348790611769565b90635260590a90339092803b15613546576134b55f80946134c06134a96101d2565b97889687958694611c25565b84526004840161327b565b03925af1801561354157613515575b50336135106134fe7fe4e889788c487faf27829cc406cb2d8d6dc102b0b986914c900c79d953647dcc926107c7565b926135076101d2565b918291826132ae565b0390a2565b613534905f3d811161353a575b61352c81836102af565b810190611c2b565b5f6134cf565b503d613522565b611cdc565b611c21565b905061357f6135797fdd2cd348c90b8bed5c408b1b1e825a342004fcbc4e33b7ac8b6b8f18b9ca0d52610ad7565b91610ad7565b145f61338c565b50806135ba6135b47ffef64cdf27cd31b854ce9dc4a8833d32ddea7377edd191c42ac3a331d01b5e01610ad7565b91610ad7565b14613384565b50806135f46135ee7fea83fe2dfde157843612f4d67c23f6458d415edc36fde00af0772e36ee951b5b610ad7565b91610ad7565b1461337d565b906136059291612ddd565b565b906136219161361c61361761186f565b614983565b6137c2565b565b5f7f496e636f6d65206e6f7420766572696669656400000000000000000000000000910152565b613657601360209261066f565b61366081613623565b0190565b6136799060208101905f81830391015261364a565b90565b1561368357565b61368b6101d2565b62461bcd60e51b8152806136a160048201613664565b0390fd5b6136ae90611c3d565b600160ff1b81146136be575f0390565b611cec565b5f7f496e636f6d6520766572696669636174696f6e207265766f6b65640000000000910152565b6136f7601b60209261066f565b613700816136c3565b0190565b6137266137339361371c60608401945f850190610aca565b6020830190611e2b565b60408183039101526136ea565b90565b5f7f494e434f4d455f564552494649434154494f4e5f5245564f4b45440000000000910152565b61376a601b60209261066f565b61377381613736565b0190565b9160406137a89294936137a1613796606083018381035f85015261375d565b966020830190610aca565b0190610ada565b565b6137bf9160208201915f818403910152610683565b90565b6137e16137dc60046137d660028590610ebf565b016108ec565b61367c565b6138106137ec610596565b61380a61380560026137ff818790610ebf565b016108a1565b614a91565b90611d00565b6138285f600461382260028690610ebf565b01611ba3565b6138405f600461383a60028690610ebf565b01611be0565b61385261384d6005611d8e565b610fd4565b63df551ce8835f92803b15613a595761387e5f80946138896138726101d2565b97889687958694611c25565b845260048401611ddc565b03925af18015613a5457613a28575b506138ab6138a66006611c14565b610e28565b90630cc9ec5b906138c46138bf8592611e0f565b6136a5565b92803b15613a23576138e95f80946138f46138dd6101d2565b97889687958694611c25565b845260048401613704565b03925af18015613a1e576139f2575b5061391661391160046122ea565b611769565b635260590a8261392585612fa6565b61393761393182612483565b9161247d565b2092803b156139ed5761395d5f80946139686139516101d2565b97889687958694611c25565b845260048401613777565b03925af180156139e8576139bc575b506139b76139a57f5c8f171bc6bea04b8dcd4abe57797f6883e6840fe6b7d0c03676dd3f38ba497a926107c7565b926139ae6101d2565b918291826137aa565b0390a2565b6139db905f3d81116139e1575b6139d381836102af565b810190611c2b565b5f613977565b503d6139c9565b611cdc565b611c21565b613a11905f3d8111613a17575b613a0981836102af565b810190611c2b565b5f613903565b503d6139ff565b611cdc565b611c21565b613a47905f3d8111613a4d575b613a3f81836102af565b810190611c2b565b5f613898565b503d613a35565b611cdc565b611c21565b90613a6891613607565b565b90613a74906107c7565b5f5260205260405f2090565b613aa6915f613a9b613aa193613a9461190b565b5082612b84565b01613a6a565b6108ec565b90565b90613ac49291613abf613aba611460565b614983565b613b90565b565b5190565b5190565b5f7f4172726179206c656e67746873206d757374206d617463680000000000000000910152565b613b02601860209261066f565b613b0b81613ace565b0190565b613b249060208101905f818303910152613af5565b90565b15613b2e57565b613b366101d2565b62461bcd60e51b815280613b4c60048201613b0f565b0390fd5b90613b5a82613ac6565b811015613b6b576020809102010190565b6107e9565b90613b7a82613aca565b811015613b8b576020809102010190565b6107e9565b90613b9a8261197a565b613bb4613bae613ba984613ac6565b610574565b91610574565b1480613c71575b613bc490613b27565b613bcd5f61194f565b5b80613be9613be3613bde8661197a565b610574565b91610574565b1015613c6b57613c2690613c1c6004613c166002613c10613c0b89879061197e565b61199e565b90610ebf565b01610913565b613c2b575b61196b565b613bce565b613c66613c41613c3c86849061197e565b61199e565b613c54613c4f868590613b50565b612ade565b613c5f888590613b70565b5191612969565b613c21565b50505050565b50613bc4613c7e82613ac6565b613c98613c92613c8d87613aca565b610574565b91610574565b149050613bbb565b90613cab9291613aa9565b565b90613cc891613cc3613cbe82612b9a565b614983565b613cca565b565b90613cd491614c21565b50565b90613ce191613cad565b565b613ceb61190b565b50613d036004613cfd60028490610ebf565b016108ec565b80613d2e575b9081613d14575b5090565b613d289150613d22906145c6565b15610231565b5f613d10565b50613d466004613d4060028490610ebf565b01610913565b613d09565b90613d5e9291613d59614cee565b61419c565b613d66614d72565b565b90505190613d758261042f565b565b90602082820312613d9057613d8d915f01613d68565b90565b6101dc565b9190613da8905f60208501940190610aca565b565b5f7f55736572206e6f74207265676973746572656400000000000000000000000000910152565b613dde601360209261066f565b613de781613daa565b0190565b613e009060208101905f818303910152613dd1565b90565b15613e0a57565b613e126101d2565b62461bcd60e51b815280613e2860048201613deb565b0390fd5b5f7f4964656e74697479206973206c6f636b65640000000000000000000000000000910152565b613e60601260209261066f565b613e6981613e2c565b0190565b613e829060208101905f818303910152613e53565b90565b15613e8c57565b613e946101d2565b62461bcd60e51b815280613eaa60048201613e6d565b0390fd5b613eba613ebf91610832565b6117cc565b90565b613ecc9054613eae565b90565b5f7f4161646861617220766572696669636174696f6e207265717569726564000000910152565b613f03601d60209261066f565b613f0c81613ecf565b0190565b613f259060208101905f818303910152613ef6565b90565b15613f2f57565b613f376101d2565b62461bcd60e51b815280613f4d60048201613f10565b0390fd5b60207f7665000000000000000000000000000000000000000000000000000000000000917f496e636f6d6520766572696669636174696f6e20616c726561647920616374695f8201520152565b613fab602260409261066f565b613fb481613f51565b0190565b613fcd9060208101905f818303910152613f9e565b90565b15613fd757565b613fdf6101d2565b62461bcd60e51b815280613ff560048201613fb8565b0390fd5b5f7f456d70747920766572696669636174696f6e20736f7572636500000000000000910152565b61402d601960209261066f565b61403681613ff9565b0190565b61404f9060208101905f818303910152614020565b90565b1561405957565b6140616101d2565b62461bcd60e51b8152806140776004820161403a565b0390fd5b61408490610646565b90565b90565b61409e6140996140a392614087565b610577565b610574565b90565b5f7f496e76616c696420696e636f6d652072616e6765000000000000000000000000910152565b6140da601460209261066f565b6140e3816140a6565b0190565b6140fc9060208101905f8183039101526140cd565b90565b1561410657565b61410e6101d2565b62461bcd60e51b815280614124600482016140e7565b0390fd5b5f7f494e434f4d455f564552494649434154494f4e5f524551554553544544000000910152565b61415c601d60209261066f565b61416581614128565b0190565b91604061419a929493614193614188606083018381035f85015261414f565b966020830190610aca565b0190610ada565b565b90916141df60206141b56141b06005611d8e565b610fd4565b63c3c5a547906141d433926141c86101d2565b95869485938493611c25565b835260048301613d95565b03915afa801561458e576141fa915f91614560575b50613e03565b61423b602061421161420c6005611d8e565b610fd4565b63e2b104ec9061423033926142246101d2565b95869485938493611c25565b835260048301613d95565b03915afa90811561455b576142619161425c915f9161452d575b5015610231565b613e85565b6142a260206142786142736007613ec2565b61180c565b6360e21ded90614297339261428b6101d2565b95869485938493611c25565b835260048301613d95565b03915afa8015614528576142bd915f916144fa575b50613f28565b6002336142c991610ebf565b6004016142d590610913565b156142df90610231565b6142e890613fd0565b815f6142f3906113f8565b6142fc90610ad7565b9061430690610ad7565b141561431190612f7d565b8061431b90612fa6565b61432490612483565b5f61432e9061194f565b9061433890610574565b1161434290614052565b8261434c9061407b565b60046143579061408a565b9061436190610574565b111561436c906140ff565b33908290849042905f600191925f945f9661438561302b565b985f8a01906143939161297f565b60208901906143a19161298d565b60408801906143af9161299b565b60608701906143bd916129a9565b60808601906143cb916129b7565b60a08501906143d9916129b7565b60c08401906143e7916129c5565b6143f09061194f565b60e08301906143fe916129a9565b61010082019061440d916129b7565b60023361441991610ebf565b9061442391613208565b61442d60046122ea565b61443690611769565b90635260590a90339092803b156144f5576144645f809461446f6144586101d2565b97889687958694611c25565b845260048401614169565b03925af180156144f0576144c4575b50336144bf6144ad7fb825510b39d9876c0e24c57f28fc0f5088c8cc5e6f11a3057c6bbbb497a81020926107c7565b926144b66101d2565b918291826132ae565b0390a2565b6144e3905f3d81116144e9575b6144db81836102af565b810190611c2b565b5f61447e565b503d6144d1565b611cdc565b611c21565b61451b915060203d8111614521575b61451381836102af565b810190613d77565b5f6142b7565b503d614509565b611cdc565b61454e915060203d8111614554575b61454681836102af565b810190613d77565b5f614255565b503d61453c565b611cdc565b614581915060203d8111614587575b61457981836102af565b810190613d77565b5f6141f4565b503d61456f565b611cdc565b9061459e9291613d4b565b565b6145a861190b565b506145c26145bc6301ffc9a760e01b6101e4565b916101e4565b1490565b6145dd6145e2916145d561190b565b506002610ebf565b612ab8565b6145ee60e08201612ad1565b6146006145fa5f61194f565b91610574565b1415908161460d575b5090565b905061462d61462761462260e0429401612ad1565b610574565b91610574565b115f614609565b5f7f496e636f6d6520766572696669636174696f6e20657870697265640000000000910152565b614668601b60209261066f565b61467181614634565b0190565b6146976146a49361468d60608401945f850190610aca565b6020830190611e2b565b604081830391015261465b565b90565b5f7f494e434f4d455f564552494649434154494f4e5f455850495245440000000000910152565b6146db601b60209261066f565b6146e4816146a7565b0190565b916040614719929493614712614707606083018381035f8501526146ce565b966020830190610aca565b0190610ada565b565b61474a614726610596565b61474461473f6002614739818790610ebf565b016108a1565b614a91565b90611d00565b6147625f600461475c60028690610ebf565b01611ba3565b61477a5f600461477460028690610ebf565b01611be0565b61478c6147876005611d8e565b610fd4565b63df551ce8835f92803b1561497e576147b85f80946147c36147ac6101d2565b97889687958694611c25565b845260048401611ddc565b03925af180156149795761494d575b506147e56147e06006611c14565b610e28565b90630cc9ec5b906147fe6147f98592611e0f565b6136a5565b92803b15614948576148235f809461482e6148176101d2565b97889687958694611c25565b845260048401614675565b03925af1801561494357614917575b5061485061484b60046122ea565b611769565b635260590a8261485f5f6113f8565b92803b15614912576148845f809461488f6148786101d2565b97889687958694611c25565b8452600484016146e8565b03925af1801561490d576148e1575b506148c97f4488ffaddf2b796f1a2d8bfb48fa73418710f419acc563019cdc21a2d0d8ed6f916107c7565b906148d26101d2565b806148dc816103f7565b0390a2565b614900905f3d8111614906575b6148f881836102af565b810190611c2b565b5f61489e565b503d6148ee565b611cdc565b611c21565b614936905f3d811161493c575b61492e81836102af565b810190611c2b565b5f61483d565b503d614924565b611cdc565b611c21565b61496c905f3d8111614972575b61496481836102af565b810190611c2b565b5f6147d2565b503d61495a565b611cdc565b611c21565b6149959061498f614c14565b90614da9565b565b6149ab6149a66149b0926113f0565b610577565b61030e565b90565b6149bc90614997565b90565b916149d391506149cd61190b565b50612483565b6149e56149df5f61194f565b91610574565b1190816149f1575b5090565b9050614a0d614a07614a025f6149b3565b610319565b91610319565b14155f6149ed565b90565b614a2c614a27614a3192614a15565b610577565b610574565b90565b90565b614a4b614a46614a5092614a34565b610577565b610574565b90565b90565b614a6a614a65614a6f92614a53565b610577565b610574565b90565b90565b614a89614a84614a8e92614a72565b610577565b610574565b90565b614a99611ffd565b5080614aad614aa75f610646565b91610646565b14614b585780614ac6614ac06001610646565b91610646565b14614b4a5780614adf614ad96002610646565b91610646565b14614b3c5780614af8614af26003610646565b91610646565b14614b2e57614b10614b0a6004610646565b91610646565b14614b2157614b1e5f61194f565b90565b614b2b6014614a75565b90565b50614b39600f614a56565b90565b50614b47600a614a37565b90565b50614b556005614a18565b90565b50614b625f61194f565b90565b614b6d61190b565b50614b82614b7c828490613a80565b15610231565b5f14614c0a57614ba96001614ba45f614b9c818690612b84565b018590613a6a565b611ba3565b90614bb2614c14565b90614bef614be9614be37f2f8788117e7eff1d82e926ec794901d17c78024a50270940304540a733656f0d95611f34565b926107c7565b926107c7565b92614bf86101d2565b80614c02816103f7565b0390a4600190565b50505f90565b5f90565b614c1c614c10565b503390565b614c2961190b565b50614c35818390613a80565b5f14614cbc57614c5b5f614c565f614c4e818690612b84565b018590613a6a565b611ba3565b90614c64614c14565b90614ca1614c9b614c957ff6391f5c32d9c69d2a47ea670b442974b53935d1edc7fd64eb21e047a839171b95611f34565b926107c7565b926107c7565b92614caa6101d2565b80614cb4816103f7565b0390a4600190565b50505f90565b90565b614cd9614cd4614cde92614cc2565b610577565b610574565b90565b614ceb6002614cc5565b90565b614cf860016108c5565b614d11614d0b614d06614ce1565b610574565b91610574565b14614d2a57614d28614d21614ce1565b6001611d5a565b565b5f633ee5aeb560e01b815280614d42600482016103f7565b0390fd5b90565b614d5d614d58614d6292614d46565b610577565b610574565b90565b614d6f6001614d49565b90565b614d84614d7d614d65565b6001611d5a565b565b916020614da7929493614da060408201965f830190610aca565b0190610ada565b565b90614dbe614db8838390613a80565b15610231565b614dc6575050565b614de05f92839263e2517d3f60e01b845260048401614d86565b0390fdfea264697066735822122074f309efda733b26d5488519c82444d72ca96c55ac0c1d22aaaa603ee23ec32d64736f6c634300081e0033","linkReferences":{}},"methodIdentifiers":{"DEFAULT_ADMIN_ROLE()":"a217fddf","INCOME_ORACLE_ROLE()":"aebf32bd","INCOME_VERIFICATION_SCORE()":"17036f0c","INCOME_VERIFICATION_VALIDITY()":"19524241","VERIFIER_ROLE()":"e7705db6","aadhaarVerificationManager()":"e58a2608","bulkCompleteIncomeVerification(address[],bool[],bytes[])":"c70ddfab","checkAndExpireVerifications(address[])":"075ee669","completeIncomeVerification(address,bool,bytes)":"0ae1fd9e","getIncomeHistory(address)":"6450600b","getIncomeRangeStats()":"251cedb9","getIncomeVerificationInfo(address)":"17f448d8","getRoleAdmin(bytes32)":"248a9ca3","grantRole(bytes32,address)":"2f2ff15d","hasRole(bytes32,address)":"91d14854","incomeHistory(address,uint256)":"190241a3","incomeVerifications(address)":"5a8f56c3","isIncomeVerified(address)":"d69c2cdf","renewIncomeVerification(bytes32,uint8,string)":"6b1c179f","renounceRole(bytes32,address)":"36568abe","requestIncomeVerification(bytes32,uint8,string)":"ff69c874","revokeIncomeVerification(address,string)":"754a5d01","revokeRole(bytes32,address)":"d547741f","supportsInterface(bytes4)":"01ffc9a7","trustScore()":"3078d998","userRegistry()":"5c7460d6","verificationLogger()":"e1300c88"},"id":23}