{"abi":[{"type":"constructor","inputs":[{"name":"admin","type":"address","internalType":"address"}],"stateMutability":"nonpayable"},{"type":"function","name":"DEFAULT_ADMIN_ROLE","inputs":[],"outputs":[{"name":"","type":"bytes32","internalType":"bytes32"}],"stateMutability":"view"},{"type":"function","name":"ISSUER_ROLE","inputs":[],"outputs":[{"name":"","type":"bytes32","internalType":"bytes32"}],"stateMutability":"view"},{"type":"function","name":"VERIFIER_ROLE","inputs":[],"outputs":[{"name":"","type":"bytes32","internalType":"bytes32"}],"stateMutability":"view"},{"type":"function","name":"addMerkleRoot","inputs":[{"name":"root","type":"bytes32","internalType":"bytes32"},{"name":"batchId","type":"uint256","internalType":"uint256"},{"name":"credentialCount","type":"uint256","internalType":"uint256"}],"outputs":[],"stateMutability":"nonpayable"},{"type":"function","name":"createVerificationPackage","inputs":[{"name":"credential","type":"tuple","internalType":"struct OfflineVerificationManager.OfflineCredential","components":[{"name":"holder","type":"address","internalType":"address"},{"name":"credentialType","type":"string","internalType":"string"},{"name":"dataHash","type":"bytes32","internalType":"bytes32"},{"name":"issuedAt","type":"uint256","internalType":"uint256"},{"name":"expiresAt","type":"uint256","internalType":"uint256"},{"name":"nonce","type":"uint256","internalType":"uint256"},{"name":"issuer","type":"address","internalType":"address"},{"name":"signature","type":"bytes","internalType":"bytes"}]},{"name":"merkleProof","type":"tuple","internalType":"struct OfflineVerificationManager.MerkleProof","components":[{"name":"proof","type":"bytes32[]","internalType":"bytes32[]"},{"name":"root","type":"bytes32","internalType":"bytes32"},{"name":"leafIndex","type":"uint256","internalType":"uint256"},{"name":"batchId","type":"uint256","internalType":"uint256"}]}],"outputs":[{"name":"package","type":"tuple","internalType":"struct OfflineVerificationManager.OfflineVerificationPackage","components":[{"name":"credential","type":"tuple","internalType":"struct OfflineVerificationManager.OfflineCredential","components":[{"name":"holder","type":"address","internalType":"address"},{"name":"credentialType","type":"string","internalType":"string"},{"name":"dataHash","type":"bytes32","internalType":"bytes32"},{"name":"issuedAt","type":"uint256","internalType":"uint256"},{"name":"expiresAt","type":"uint256","internalType":"uint256"},{"name":"nonce","type":"uint256","internalType":"uint256"},{"name":"issuer","type":"address","internalType":"address"},{"name":"signature","type":"bytes","internalType":"bytes"}]},{"name":"merkleProof","type":"tuple","internalType":"struct OfflineVerificationManager.MerkleProof","components":[{"name":"proof","type":"bytes32[]","internalType":"bytes32[]"},{"name":"root","type":"bytes32","internalType":"bytes32"},{"name":"leafIndex","type":"uint256","internalType":"uint256"},{"name":"batchId","type":"uint256","internalType":"uint256"}]},{"name":"additionalProofs","type":"bytes32[]","internalType":"bytes32[]"},{"name":"packageVersion","type":"uint256","internalType":"uint256"}]}],"stateMutability":"pure"},{"type":"function","name":"credentialTypeExpiry","inputs":[{"name":"","type":"string","internalType":"string"}],"outputs":[{"name":"","type":"uint256","internalType":"uint256"}],"stateMutability":"view"},{"type":"function","name":"defaultCredentialExpiry","inputs":[],"outputs":[{"name":"","type":"uint256","internalType":"uint256"}],"stateMutability":"view"},{"type":"function","name":"eip712Domain","inputs":[],"outputs":[{"name":"fields","type":"bytes1","internalType":"bytes1"},{"name":"name","type":"string","internalType":"string"},{"name":"version","type":"string","internalType":"string"},{"name":"chainId","type":"uint256","internalType":"uint256"},{"name":"verifyingContract","type":"address","internalType":"address"},{"name":"salt","type":"bytes32","internalType":"bytes32"},{"name":"extensions","type":"uint256[]","internalType":"uint256[]"}],"stateMutability":"view"},{"type":"function","name":"generateQRData","inputs":[{"name":"credential","type":"tuple","internalType":"struct OfflineVerificationManager.OfflineCredential","components":[{"name":"holder","type":"address","internalType":"address"},{"name":"credentialType","type":"string","internalType":"string"},{"name":"dataHash","type":"bytes32","internalType":"bytes32"},{"name":"issuedAt","type":"uint256","internalType":"uint256"},{"name":"expiresAt","type":"uint256","internalType":"uint256"},{"name":"nonce","type":"uint256","internalType":"uint256"},{"name":"issuer","type":"address","internalType":"address"},{"name":"signature","type":"bytes","internalType":"bytes"}]}],"outputs":[{"name":"qrData","type":"bytes","internalType":"bytes"}],"stateMutability":"pure"},{"type":"function","name":"getCredentialTypeHash","inputs":[],"outputs":[{"name":"","type":"bytes32","internalType":"bytes32"}],"stateMutability":"pure"},{"type":"function","name":"getDomainSeparator","inputs":[],"outputs":[{"name":"","type":"bytes32","internalType":"bytes32"}],"stateMutability":"view"},{"type":"function","name":"getRoleAdmin","inputs":[{"name":"role","type":"bytes32","internalType":"bytes32"}],"outputs":[{"name":"","type":"bytes32","internalType":"bytes32"}],"stateMutability":"view"},{"type":"function","name":"grantRole","inputs":[{"name":"role","type":"bytes32","internalType":"bytes32"},{"name":"account","type":"address","internalType":"address"}],"outputs":[],"stateMutability":"nonpayable"},{"type":"function","name":"hasRole","inputs":[{"name":"role","type":"bytes32","internalType":"bytes32"},{"name":"account","type":"address","internalType":"address"}],"outputs":[{"name":"","type":"bool","internalType":"bool"}],"stateMutability":"view"},{"type":"function","name":"isCredentialRevoked","inputs":[{"name":"credentialHash","type":"bytes32","internalType":"bytes32"}],"outputs":[{"name":"","type":"bool","internalType":"bool"}],"stateMutability":"view"},{"type":"function","name":"isTrustedIssuer","inputs":[{"name":"issuer","type":"address","internalType":"address"}],"outputs":[{"name":"","type":"bool","internalType":"bool"}],"stateMutability":"view"},{"type":"function","name":"issueOfflineCredential","inputs":[{"name":"holder","type":"address","internalType":"address"},{"name":"credentialType","type":"string","internalType":"string"},{"name":"credentialData","type":"bytes","internalType":"bytes"}],"outputs":[{"name":"credential","type":"tuple","internalType":"struct OfflineVerificationManager.OfflineCredential","components":[{"name":"holder","type":"address","internalType":"address"},{"name":"credentialType","type":"string","internalType":"string"},{"name":"dataHash","type":"bytes32","internalType":"bytes32"},{"name":"issuedAt","type":"uint256","internalType":"uint256"},{"name":"expiresAt","type":"uint256","internalType":"uint256"},{"name":"nonce","type":"uint256","internalType":"uint256"},{"name":"issuer","type":"address","internalType":"address"},{"name":"signature","type":"bytes","internalType":"bytes"}]}],"stateMutability":"nonpayable"},{"type":"function","name":"maxOfflineVerificationPeriod","inputs":[],"outputs":[{"name":"","type":"uint256","internalType":"uint256"}],"stateMutability":"view"},{"type":"function","name":"merkleRoots","inputs":[{"name":"","type":"bytes32","internalType":"bytes32"}],"outputs":[{"name":"","type":"uint256","internalType":"uint256"}],"stateMutability":"view"},{"type":"function","name":"renounceRole","inputs":[{"name":"role","type":"bytes32","internalType":"bytes32"},{"name":"callerConfirmation","type":"address","internalType":"address"}],"outputs":[],"stateMutability":"nonpayable"},{"type":"function","name":"revokeCredential","inputs":[{"name":"credentialHash","type":"bytes32","internalType":"bytes32"},{"name":"reason","type":"string","internalType":"string"}],"outputs":[],"stateMutability":"nonpayable"},{"type":"function","name":"revokeRole","inputs":[{"name":"role","type":"bytes32","internalType":"bytes32"},{"name":"account","type":"address","internalType":"address"}],"outputs":[],"stateMutability":"nonpayable"},{"type":"function","name":"revokedCredentials","inputs":[{"name":"","type":"bytes32","internalType":"bytes32"}],"outputs":[{"name":"","type":"bool","internalType":"bool"}],"stateMutability":"view"},{"type":"function","name":"supportsInterface","inputs":[{"name":"interfaceId","type":"bytes4","internalType":"bytes4"}],"outputs":[{"name":"","type":"bool","internalType":"bool"}],"stateMutability":"view"},{"type":"function","name":"trustedIssuers","inputs":[{"name":"","type":"address","internalType":"address"}],"outputs":[{"name":"","type":"bool","internalType":"bool"}],"stateMutability":"view"},{"type":"function","name":"updateTrustedIssuer","inputs":[{"name":"issuer","type":"address","internalType":"address"},{"name":"trusted","type":"bool","internalType":"bool"}],"outputs":[],"stateMutability":"nonpayable"},{"type":"function","name":"usedNonces","inputs":[{"name":"","type":"address","internalType":"address"},{"name":"","type":"uint256","internalType":"uint256"}],"outputs":[{"name":"","type":"bool","internalType":"bool"}],"stateMutability":"view"},{"type":"function","name":"verifyMerkleProof","inputs":[{"name":"leaf","type":"bytes32","internalType":"bytes32"},{"name":"proof","type":"tuple","internalType":"struct OfflineVerificationManager.MerkleProof","components":[{"name":"proof","type":"bytes32[]","internalType":"bytes32[]"},{"name":"root","type":"bytes32","internalType":"bytes32"},{"name":"leafIndex","type":"uint256","internalType":"uint256"},{"name":"batchId","type":"uint256","internalType":"uint256"}]}],"outputs":[{"name":"isValid","type":"bool","internalType":"bool"}],"stateMutability":"view"},{"type":"function","name":"verifyOfflineCredential","inputs":[{"name":"credential","type":"tuple","internalType":"struct OfflineVerificationManager.OfflineCredential","components":[{"name":"holder","type":"address","internalType":"address"},{"name":"credentialType","type":"string","internalType":"string"},{"name":"dataHash","type":"bytes32","internalType":"bytes32"},{"name":"issuedAt","type":"uint256","internalType":"uint256"},{"name":"expiresAt","type":"uint256","internalType":"uint256"},{"name":"nonce","type":"uint256","internalType":"uint256"},{"name":"issuer","type":"address","internalType":"address"},{"name":"signature","type":"bytes","internalType":"bytes"}]}],"outputs":[{"name":"isValid","type":"bool","internalType":"bool"},{"name":"reason","type":"string","internalType":"string"}],"stateMutability":"view"},{"type":"event","name":"CredentialIssued","inputs":[{"name":"holder","type":"address","indexed":true,"internalType":"address"},{"name":"credentialType","type":"string","indexed":false,"internalType":"string"},{"name":"dataHash","type":"bytes32","indexed":true,"internalType":"bytes32"},{"name":"expiresAt","type":"uint256","indexed":false,"internalType":"uint256"},{"name":"issuer","type":"address","indexed":true,"internalType":"address"}],"anonymous":false},{"type":"event","name":"CredentialRevoked","inputs":[{"name":"credentialHash","type":"bytes32","indexed":true,"internalType":"bytes32"},{"name":"revoker","type":"address","indexed":true,"internalType":"address"},{"name":"reason","type":"string","indexed":false,"internalType":"string"}],"anonymous":false},{"type":"event","name":"EIP712DomainChanged","inputs":[],"anonymous":false},{"type":"event","name":"MerkleRootAdded","inputs":[{"name":"root","type":"bytes32","indexed":true,"internalType":"bytes32"},{"name":"batchId","type":"uint256","indexed":true,"internalType":"uint256"},{"name":"issuer","type":"address","indexed":true,"internalType":"address"},{"name":"credentialCount","type":"uint256","indexed":false,"internalType":"uint256"}],"anonymous":false},{"type":"event","name":"RoleAdminChanged","inputs":[{"name":"role","type":"bytes32","indexed":true,"internalType":"bytes32"},{"name":"previousAdminRole","type":"bytes32","indexed":true,"internalType":"bytes32"},{"name":"newAdminRole","type":"bytes32","indexed":true,"internalType":"bytes32"}],"anonymous":false},{"type":"event","name":"RoleGranted","inputs":[{"name":"role","type":"bytes32","indexed":true,"internalType":"bytes32"},{"name":"account","type":"address","indexed":true,"internalType":"address"},{"name":"sender","type":"address","indexed":true,"internalType":"address"}],"anonymous":false},{"type":"event","name":"RoleRevoked","inputs":[{"name":"role","type":"bytes32","indexed":true,"internalType":"bytes32"},{"name":"account","type":"address","indexed":true,"internalType":"address"},{"name":"sender","type":"address","indexed":true,"internalType":"address"}],"anonymous":false},{"type":"event","name":"TrustedIssuerUpdated","inputs":[{"name":"issuer","type":"address","indexed":true,"internalType":"address"},{"name":"trusted","type":"bool","indexed":false,"internalType":"bool"},{"name":"updater","type":"address","indexed":true,"internalType":"address"}],"anonymous":false},{"type":"error","name":"AccessControlBadConfirmation","inputs":[]},{"type":"error","name":"AccessControlUnauthorizedAccount","inputs":[{"name":"account","type":"address","internalType":"address"},{"name":"neededRole","type":"bytes32","internalType":"bytes32"}]},{"type":"error","name":"ECDSAInvalidSignature","inputs":[]},{"type":"error","name":"ECDSAInvalidSignatureLength","inputs":[{"name":"length","type":"uint256","internalType":"uint256"}]},{"type":"error","name":"ECDSAInvalidSignatureS","inputs":[{"name":"s","type":"bytes32","internalType":"bytes32"}]},{"type":"error","name":"InvalidShortString","inputs":[]},{"type":"error","name":"StringTooLong","inputs":[{"name":"str","type":"string","internalType":"string"}]}],"bytecode":{"object":"0x610160604052346100725761001a610015610137565b61060b565b610022610077565b613c3d610eea8239608051816133f8015260a0518161342f015260c051816133bf015260e051816138f50152610100518161391a01526101205181613333015261014051816133730152613c3d90f35b61007d565b60405190565b5f80fd5b601f801991011690565b634e487b7160e01b5f52604160045260245ffd5b906100a990610081565b810190811060018060401b038211176100c157604052565b61008b565b906100d96100d2610077565b928361009f565b565b5f80fd5b60018060a01b031690565b6100f3906100df565b90565b6100ff816100ea565b0361010657565b5f80fd5b90505190610117826100f6565b565b906020828203126101325761012f915f0161010a565b90565b6100db565b610155614b278038038061014a816100c6565b928339810190610119565b90565b60018060401b03811161017457610170602091610081565b0190565b61008b565b9061018b61018683610158565b6100c6565b918252565b5f7f4564754365727400000000000000000000000000000000000000000000000000910152565b6101c16007610179565b906101ce60208301610190565b565b6101d86101b7565b90565b6101e36101d0565b90565b5f7f3100000000000000000000000000000000000000000000000000000000000000910152565b6102176001610179565b90610224602083016101e6565b565b61022e61020d565b90565b610239610226565b90565b5f1b90565b9061024d5f199161023c565b9181191691161790565b90565b90565b90565b61027461026f61027992610257565b61025d565b61025a565b90565b90565b9061029461028f61029b92610260565b61027c565b8254610241565b9055565b90565b6102b66102b16102bb9261029f565b61025d565b61025a565b90565b906102d36102ce6102da926102a2565b61027c565b8254610241565b9055565b90565b90565b6102f86102f36102fd926102de565b61023c565b6102e1565b90565b6103095f6102e4565b90565b7f114e74f6ea3bd819998f78687bfcb11b140da08e9b7d222fa9c1f1ba1f2aa12290565b7f0ce23c3e399818cfee81a7ab0880f714e53d7672b08df0fa62f2843416e1ea0990565b61036861036361036d926102de565b61025d565b61025a565b90565b905090565b5f7f4445475245450000000000000000000000000000000000000000000000000000910152565b6103a860068092610370565b6103b181610375565b0190565b90565b6103c46103c99161025a565b6103b5565b9052565b906103e36103dc60209361039c565b80926103b8565b0190565b6103fc906103f3610077565b918291826103cd565b03902090565b61040b906103e7565b90565b61042261041d6104279261025a565b61025d565b61025a565b90565b9061043f61043a6104469261040e565b61027c565b8254610241565b9055565b90565b61046161045c6104669261044a565b61025d565b61025a565b90565b5f7f4345525449464943415445000000000000000000000000000000000000000000910152565b61049c600b8092610370565b6104a581610469565b0190565b906104bf6104b8602093610490565b80926103b8565b0190565b6104d8906104cf610077565b918291826104a9565b03902090565b6104e7906104c3565b90565b5f7f4c4943454e534500000000000000000000000000000000000000000000000000910152565b61051d60078092610370565b610526816104ea565b0190565b90610540610539602093610511565b80926103b8565b0190565b61055990610550610077565b9182918261052a565b03902090565b61056890610544565b90565b90565b61058261057d6105879261056b565b61025d565b61025a565b90565b5f7f4944454e54495459000000000000000000000000000000000000000000000000910152565b6105bd60088092610370565b6105c68161058a565b0190565b906105e06105d96020936105b1565b80926103b8565b0190565b6105f9906105f0610077565b918291826105ca565b03902090565b610608906105e4565b90565b6106789061062861061a6101db565b610622610231565b90610737565b6106376301e13380600861027f565b61064562278d0060096102be565b610657610650610300565b829061085a565b5061066a61066361030c565b829061085a565b50610673610330565b61085a565b506106946106855f610354565b61068f6007610402565b61042a565b6106b36106a46303c2670061044d565b6106ae60076104de565b61042a565b6106d26106c36301e13380610260565b6106cd600761055f565b61042a565b6106f16106e2630966018061056e565b6106ec60076105ff565b61042a565b565b90565b90565b60200190565b5190565b61071761071261071c926100df565b61025d565b6100df565b90565b61072890610703565b90565b6107349061071f565b90565b9061077461078f926107538161074d60016106f3565b90610b86565b6101205261076b8361076560026106f3565b90610b86565b610140526106f6565b610786610780826106ff565b916106f9565b2060e0526106f6565b6107a161079b826106ff565b916106f9565b20610100524660a0526107b2610c98565b6080526107be3061072b565b60c052565b5f90565b151590565b6107d5906102e1565b90565b906107e2906107cc565b5f5260205260405f2090565b6107f79061071f565b90565b90610804906107ee565b5f5260205260405f2090565b9061081c60ff9161023c565b9181191691161790565b61082f906107c7565b90565b90565b9061084a61084561085192610826565b610832565b8254610810565b9055565b5f0190565b6108626107c3565b50610877610871828490610d35565b156107c7565b5f146108ff5761089e60016108995f6108918186906107d8565b0185906107fa565b610835565b906108a7610d62565b906108e46108de6108d87f2f8788117e7eff1d82e926ec794901d17c78024a50270940304540a733656f0d956107cc565b926107ee565b926107ee565b926108ed610077565b806108f781610855565b0390a4600190565b50505f90565b5f90565b90565b61092061091b61092592610909565b61025d565b61025a565b90565b5190565b634e487b7160e01b5f52602260045260245ffd5b9060016002830492168015610960575b602083101461095b57565b61092c565b91607f1691610950565b5f5260205f2090565b601f602091010490565b1b90565b9190600861099c9102916109965f198461097d565b9261097d565b9181191691161790565b91906109bc6109b76109c49361040e565b61027c565b908354610981565b9055565b5f90565b6109de916109d86109c8565b916109a6565b565b5b8181106109ec575050565b806109f95f6001936109cc565b016109e1565b9190601f8111610a0f575b505050565b610a1b610a409361096a565b906020610a2784610973565b83019310610a48575b610a3990610973565b01906109e0565b5f8080610a0a565b9150610a3981929050610a30565b1c90565b90610a6a905f1990600802610a56565b191690565b81610a7991610a5a565b906002021790565b90610a8b81610928565b9060018060401b038211610b4957610aad82610aa78554610940565b856109ff565b602090601f8311600114610ae157918091610ad0935f92610ad5575b5050610a6f565b90555b565b90915001515f80610ac9565b601f19831691610af08561096a565b925f5b818110610b3157509160029391856001969410610b17575b50505002019055610ad3565b610b27910151601f841690610a5a565b90555f8080610b0b565b91936020600181928787015181550195019201610af3565b61008b565b90610b5891610a81565b565b90565b610b71610b6c610b7692610b5a565b61023c565b6102e1565b90565b610b8360ff610b5d565b90565b90610b8f610905565b50610ba1610b9c836106f6565b6106ff565b610bb4610bae602061090c565b9161025a565b105f14610bc85750610bc590610e5f565b90565b5f610bd6610bdc9392610d6f565b01610b4e565b610bec610be7610b79565b6107cc565b90565b5f90565b7f8b73c3c69bb8fe3d512ecc4cf759cc79239f7b179b0ffacaa9a75d522b39400f90565b610c2190516102e1565b90565b610c2d906102e1565b9052565b610c3a9061025a565b9052565b610c47906100ea565b9052565b90959492610c9694610c85610c8f92610c7b608096610c7160a088019c5f890190610c24565b6020870190610c24565b6040850190610c24565b6060830190610c31565b0190610c3e565b565b610ca0610bef565b50610ca9610bf3565b610cf3610cb660e0610c17565b91610ce4610cc5610100610c17565b46610ccf3061072b565b91610cd8610077565b96879560208701610c4b565b6020820181038252038261009f565b610d05610cff826106ff565b916106f9565b2090565b5f1c90565b60ff1690565b610d20610d2591610d09565b610d0e565b90565b610d329054610d14565b90565b610d5b915f610d50610d5693610d496107c3565b50826107d8565b016107fa565b610d28565b90565b5f90565b610d6a610d5e565b503390565b90565b90565b610d89610d84610d8e92610d72565b61025d565b61025a565b90565b60209181520190565b90825f9392825e0152565b610dc4610dcd602093610dd293610dbb81610928565b93848093610d91565b95869101610d9a565b610081565b0190565b610deb9160208201915f818403910152610da5565b90565b610e08610e03610dfd836106ff565b926106f9565b610c17565b9060208110610e16575b5090565b610e28905f199060200360080261097d565b165f610e12565b610e3b610e4091610d09565b61040e565b90565b610e57610e52610e5c9261025a565b61023c565b6102e1565b90565b610e67610905565b50610e71816106f6565b90610e7b826106ff565b610e8e610e88601f610d75565b9161025a565b11610ec35750610ebb81610eb5610eaf610eaa610ec095610dee565b610e2f565b916106ff565b17610e43565b6107cc565b90565b610ee590610ecf610077565b91829163305a27a960e01b835260048301610dd6565b0390fdfe60806040526004361015610013575b611783565b61001d5f356101eb565b8062cf8668146101e657806301ffc9a7146101e1578063248a9ca3146101dc578063249b92a0146101d7578063286b980c146101d25780632f2ff15d146101cd57806336568abe146101c85780633c3882ff146101c3578063493814b5146101be5780634bea6abd146101b957806357076cb7146101b45780636a8a6894146101af5780636e60344a146101aa57806382aefa24146101a557806384b0196e146101a05780638d4e7f421461019b57806391d148541461019657806392c54daf14610191578063a217fddf1461018c578063a3ec6ef614610187578063c4155b3114610182578063ce7daa611461017d578063ced1ff7d14610178578063d547741f14610173578063e7705db61461016e578063e9e37f3e14610169578063ed24911d14610164578063ef2ed1a41461015f5763fe5a53770361000e5761174e565b6116ea565b6116b5565b611680565b61164b565b6115e8565b6115b3565b6114a9565b611421565b6111b6565b611025565b610fb5565b610f32565b610efe565b610e88565b610d41565b610cdc565b610ae8565b6109e6565b6109a2565b610905565b61088c565b610808565b6107d4565b61076c565b6103e7565b610347565b6102f0565b61026e565b60e01c90565b60405190565b5f80fd5b5f80fd5b5f80fd5b90565b61020f81610203565b0361021657565b5f80fd5b9050359061022782610206565b565b906020828203126102425761023f915f0161021a565b90565b6101fb565b151590565b61025590610247565b9052565b919061026c905f6020850194019061024c565b565b3461029e5761029a610289610284366004610229565b6117b1565b6102916101f1565b91829182610259565b0390f35b6101f7565b63ffffffff60e01b1690565b6102b8816102a3565b036102bf57565b5f80fd5b905035906102d0826102af565b565b906020828203126102eb576102e8915f016102c3565b90565b6101fb565b346103205761031c61030b6103063660046102d2565b6117d0565b6103136101f1565b91829182610259565b0390f35b6101f7565b61032e90610203565b9052565b9190610345905f60208501940190610325565b565b346103775761037361036261035d366004610229565b61184e565b61036a6101f1565b91829182610332565b0390f35b6101f7565b61038590610203565b90565b906103929061037c565b5f5260205260405f2090565b1c90565b60ff1690565b6103b89060086103bd930261039e565b6103a2565b90565b906103cb91546103a8565b90565b6103e4906103df6003915f92610388565b6103c0565b90565b34610417576104136104026103fd366004610229565b6103ce565b61040a6101f1565b91829182610259565b0390f35b6101f7565b5f80fd5b601f801991011690565b634e487b7160e01b5f52604160045260245ffd5b9061044890610420565b810190811067ffffffffffffffff82111761046257604052565b61042a565b9061047a6104736101f1565b928361043e565b565b5f80fd5b60018060a01b031690565b61049490610480565b90565b6104a08161048b565b036104a757565b5f80fd5b905035906104b882610497565b565b5f80fd5b5f80fd5b67ffffffffffffffff81116104e0576104dc602091610420565b0190565b61042a565b90825f939282370152565b90929192610505610500826104c2565b610467565b938185526020850190828401116105215761051f926104e5565b565b6104be565b9080601f8301121561054457816020610541933591016104f0565b90565b6104ba565b90565b61055581610549565b0361055c57565b5f80fd5b9050359061056d8261054c565b565b67ffffffffffffffff811161058d57610589602091610420565b0190565b61042a565b909291926105a76105a28261056f565b610467565b938185526020850190828401116105c3576105c1926104e5565b565b6104be565b9080601f830112156105e6578160206105e393359101610592565b90565b6104ba565b919091610100818403126106c357610604610100610467565b92610611815f84016104ab565b5f850152602082013567ffffffffffffffff81116106be5781610635918401610526565b6020850152610647816040840161021a565b60408501526106598160608401610560565b606085015261066b8160808401610560565b608085015261067d8160a08401610560565b60a085015261068f8160c084016104ab565b60c085015260e082013567ffffffffffffffff81116106b9576106b292016105c8565b60e0830152565b61047c565b61047c565b61041c565b906020828203126106f8575f82013567ffffffffffffffff81116106f3576106f092016105eb565b90565b6101ff565b6101fb565b5190565b60209181520190565b90825f9392825e0152565b61073461073d6020936107429361072b816106fd565b93848093610701565b9586910161070a565b610420565b0190565b916107699261075c60408201935f83019061024c565b6020818403910152610715565b90565b3461079d5761078461077f3660046106c8565b611aea565b906107996107906101f1565b92839283610746565b0390f35b6101f7565b91906040838203126107ca57806107be6107c7925f860161021a565b936020016104ab565b90565b6101fb565b5f0190565b34610803576107ed6107e73660046107a2565b90611cea565b6107f56101f1565b806107ff816107cf565b0390f35b6101f7565b346108375761082161081b3660046107a2565b90611cf6565b6108296101f1565b80610833816107cf565b0390f35b6101f7565b61084581610247565b0361084c57565b5f80fd5b9050359061085d8261083c565b565b9190604083820312610887578061087b610884925f86016104ab565b93602001610850565b90565b6101fb565b346108bb576108a561089f36600461085f565b90611e03565b6108ad6101f1565b806108b7816107cf565b0390f35b6101f7565b919091604081840312610900576108d9835f830161021a565b92602082013567ffffffffffffffff81116108fb576108f89201610526565b90565b6101ff565b6101fb565b346109345761091e6109183660046108c0565b90611eaa565b6109266101f1565b80610930816107cf565b0390f35b6101f7565b5f91031261094357565b6101fb565b90565b61095b906008610960930261039e565b610948565b90565b9061096e915461094b565b90565b61097d60095f90610963565b90565b61098990610549565b9052565b91906109a0905f60208501940190610980565b565b346109d2576109b2366004610939565b6109ce6109bd610971565b6109c56101f1565b9182918261098d565b0390f35b6101f7565b6109e360085f90610963565b90565b34610a16576109f6366004610939565b610a12610a016109d7565b610a096101f1565b9182918261098d565b0390f35b6101f7565b9190604083820312610a435780610a37610a40925f86016104ab565b93602001610560565b90565b6101fb565b90565b610a5f610a5a610a6492610480565b610a48565b610480565b90565b610a7090610a4b565b90565b610a7c90610a67565b90565b90610a8990610a73565b5f5260205260405f2090565b610aa9610aa4610aae92610549565b610a48565b610549565b90565b90610abb90610a95565b5f5260205260405f2090565b610ae0610ae592610adb6004935f94610a7f565b610ab1565b6103c0565b90565b34610b1957610b15610b04610afe366004610a1b565b90610ac7565b610b0c6101f1565b91829182610259565b0390f35b6101f7565b91606083830312610b8257610b35825f85016104ab565b92602081013567ffffffffffffffff8111610b7d5783610b56918301610526565b92604082013567ffffffffffffffff8111610b7857610b7592016105c8565b90565b6101ff565b6101ff565b6101fb565b610b909061048b565b9052565b60209181520190565b610bbc610bc5602093610bca93610bb3816106fd565b93848093610b94565b9586910161070a565b610420565b0190565b610bd790610203565b9052565b610be490610549565b9052565b5190565b60209181520190565b610c14610c1d602093610c2293610c0b81610be8565b93848093610bec565b9586910161070a565b610420565b0190565b610cc19160e0610c566101008301610c445f8601515f860190610b87565b60208501518482036020860152610b9d565b92610c6960408201516040850190610bce565b610c7b60608201516060850190610bdb565b610c8d60808201516080850190610bdb565b610c9f60a082015160a0850190610bdb565b610cb160c082015160c0850190610b87565b01519060e0818403910152610bf5565b90565b610cd99160208201915f818403910152610c26565b90565b34610d0d57610d09610cf8610cf2366004610b1e565b9161268a565b610d006101f1565b91829182610cc4565b0390f35b6101f7565b7f114e74f6ea3bd819998f78687bfcb11b140da08e9b7d222fa9c1f1ba1f2aa12290565b610d3e610d12565b90565b34610d7157610d51366004610939565b610d6d610d5c610d36565b610d646101f1565b91829182610332565b0390f35b6101f7565b60ff60f81b1690565b610d8890610d76565b9052565b610d959061048b565b9052565b5190565b60209181520190565b60200190565b90610db981602093610bdb565b0190565b60200190565b90610de0610dda610dd384610d99565b8093610d9d565b92610da6565b905f5b818110610df05750505090565b909192610e09610e036001928651610dac565b94610dbd565b9101919091610de3565b93959194610e64610e59610e7895610e4b610e6e95610e859c9a610e3e60e08c01925f8d0190610d7f565b8a820360208c0152610715565b9088820360408a0152610715565b976060870190610980565b6080850190610d8c565b60a0830190610325565b60c0818403910152610dc3565b90565b34610ebf57610e98366004610939565b610ebb610ea3612725565b93610eb29795979391936101f1565b97889788610e13565b0390f35b6101f7565b9091606082840312610ef957610ef6610edf845f850161021a565b93610eed8160208601610560565b93604001610560565b90565b6101fb565b34610f2d57610f17610f11366004610ec4565b91612a8e565b610f1f6101f1565b80610f29816107cf565b0390f35b6101f7565b34610f6357610f5f610f4e610f483660046107a2565b90612a9b565b610f566101f1565b91829182610259565b0390f35b6101f7565b90602082820312610f8157610f7e915f016104ab565b90565b6101fb565b90610f9090610a73565b5f5260205260405f2090565b610fb290610fad6006915f92610f86565b6103c0565b90565b34610fe557610fe1610fd0610fcb366004610f68565b610f9c565b610fd86101f1565b91829182610259565b0390f35b6101f7565b90565b5f1b90565b61100661100161100b92610fea565b610fed565b610203565b90565b6110175f610ff2565b90565b61102261100e565b90565b3461105557611035366004610939565b61105161104061101a565b6110486101f1565b91829182610332565b0390f35b6101f7565b67ffffffffffffffff81116110725760208091020190565b61042a565b5f80fd5b9092919261109061108b8261105a565b610467565b93818552602080860192028301928184116110cd57915b8383106110b45750505050565b602080916110c2848661021a565b8152019201916110a7565b611077565b9080601f830112156110f0578160206110ed9335910161107b565b90565b6104ba565b91909160808184031261116c5761110c6080610467565b925f8201359167ffffffffffffffff831161116757611130826111609483016110d2565b5f860152611141826020830161021a565b60208601526111538260408301610560565b6040860152606001610560565b6060830152565b61047c565b61041c565b9190916040818403126111b15761118a835f830161021a565b92602082013567ffffffffffffffff81116111ac576111a992016110f5565b90565b6101ff565b6101fb565b346111e7576111e36111d26111cc366004611171565b90612b3d565b6111da6101f1565b91829182610259565b0390f35b6101f7565b919091604081840312611244575f81013567ffffffffffffffff811161123f57836112189183016105eb565b92602082013567ffffffffffffffff811161123a5761123792016110f5565b90565b6101ff565b6101ff565b6101fb565b6112e49160e061127961010083016112675f8601515f860190610b87565b60208501518482036020860152610b9d565b9261128c60408201516040850190610bce565b61129e60608201516060850190610bdb565b6112b060808201516080850190610bdb565b6112c260a082015160a0850190610bdb565b6112d460c082015160c0850190610b87565b01519060e0818403910152610bf5565b90565b5190565b60209181520190565b60200190565b9061130781602093610bce565b0190565b60200190565b9061132e611328611321846112e7565b80936112eb565b926112f4565b905f5b81811061133e5750505090565b90919261135761135160019286516112fa565b9461130b565b9101919091611331565b906113af90606080611380608084015f8701518582035f870152611311565b9461139360208201516020860190610bce565b6113a560408201516040860190610bdb565b0151910190610bdb565b90565b90611406906060806113fb6113e96113d7608086015f8901518782035f890152611249565b60208801518682036020880152611361565b60408701518582036040870152611311565b940151910190610bdb565b90565b61141e9160208201915f8184039101526113b2565b90565b346114525761144e61143d6114373660046111ec565b90612dd4565b6114456101f1565b91829182611409565b0390f35b6101f7565b60209181520190565b61147f61148860209361148d9361147681610be8565b93848093611457565b9586910161070a565b610420565b0190565b6114a69160208201915f818403910152611460565b90565b346114d9576114d56114c46114bf3660046106c8565b612e9e565b6114cc6101f1565b91829182611491565b0390f35b6101f7565b9060208282031261150e575f82013567ffffffffffffffff8111611509576115069201610526565b90565b6101ff565b6101fb565b905090565b61153d6115349260209261152b816106fd565b94858093611513565b9384910161070a565b0190565b90565b61155061155591610549565b611541565b9052565b6115696115709160209493611518565b8092611544565b0190565b61158861157f6101f1565b92839283611559565b03902090565b61159791611574565b90565b6115b0906115ab6007915f9261158e565b610963565b90565b346115e3576115df6115ce6115c93660046114de565b61159a565b6115d66101f1565b9182918261098d565b0390f35b6101f7565b34611617576116016115fb3660046107a2565b90612f39565b6116096101f1565b80611613816107cf565b0390f35b6101f7565b7f0ce23c3e399818cfee81a7ab0880f714e53d7672b08df0fa62f2843416e1ea0990565b61164861161c565b90565b3461167b5761165b366004610939565b611677611666611640565b61166e6101f1565b91829182610332565b0390f35b6101f7565b346116b057611690366004610939565b6116ac61169b612f45565b6116a36101f1565b91829182610332565b0390f35b6101f7565b346116e5576116c5366004610939565b6116e16116d0612f59565b6116d86101f1565b91829182610332565b0390f35b6101f7565b3461171a57611716611705611700366004610f68565b612f6d565b61170d6101f1565b91829182610259565b0390f35b6101f7565b906117299061037c565b5f5260205260405f2090565b61174b906117466005915f9261171f565b610963565b90565b3461177e5761177a611769611764366004610229565b611735565b6117716101f1565b9182918261098d565b0390f35b6101f7565b5f80fd5b5f90565b5f1c90565b61179c6117a19161178b565b6103a2565b90565b6117ae9054611790565b90565b6117c86117cd916117c0611787565b506003610388565b6117a4565b90565b6117d8611787565b50806117f36117ed637965db0b60e01b6102a3565b916102a3565b14908115611800575b5090565b61180a9150612f8c565b5f6117fc565b5f90565b9061181e9061037c565b5f5260205260405f2090565b90565b61183961183e9161178b565b61182a565b90565b61184b905461182d565b90565b600161186661186c9261185f611810565b505f611814565b01611841565b90565b606090565b90611886611881836104c2565b610467565b918252565b5f7f43726564656e7469616c207265766f6b65640000000000000000000000000000910152565b6118bc6012611874565b906118c96020830161188b565b565b6118d36118b2565b90565b6118e09051610549565b90565b6118f76118f26118fc92610fea565b610a48565b610549565b90565b5f7f43726564656e7469616c20657870697265640000000000000000000000000000910152565b6119306012611874565b9061193d602083016118ff565b565b611947611926565b90565b611954905161048b565b90565b5f7f497373756572206e6f7420747275737465640000000000000000000000000000910152565b6119886012611874565b9061199560208301611957565b565b61199f61197e565b90565b7fe403041a9aff75bf6d587f50837e4418bbb1ee988f7eec43fda12467151ef18690565b90565b60200190565b6119d99051610203565b90565b959391989796949290986101008701995f88016119f891610325565b60208701611a0591610d8c565b60408601611a1291610325565b60608501611a1f91610325565b60808401611a2c91610980565b60a08301611a3991610980565b60c08201611a4691610980565b60e001611a5291610d8c565b565b5f7f496e76616c6964207369676e6174757265000000000000000000000000000000910152565b611a856011611874565b90611a9260208301611a54565b565b611a9c611a7b565b90565b5f7f56616c6964000000000000000000000000000000000000000000000000000000910152565b611ad06005611874565b90611add60208301611a9f565b565b611ae7611ac6565b90565b611af2611787565b50611afb61186f565b50611b17611b12611b0b83613011565b6003610388565b6117a4565b611cb257611b27608082016118d6565b611b39611b335f6118e3565b91610549565b1180611c8d575b611c7f57611b6c611b66611b616006611b5b60c0860161194a565b90610f86565b6117a4565b15610247565b611c7157611c51611c4b611c4660c0611c3f611c34611b896119a2565b611c1c611b975f8a0161194a565b91611c0d611ba860208c01516119c6565b611bba611bb482610be8565b916119c9565b208b611bc8604082016119cf565b611bd4606083016118d6565b611be0608084016118d6565b91611bf88c611bf160a087016118d6565b950161194a565b94611c016101f1565b998a9860208a016119dc565b6020820181038252038261043e565b611c2e611c2882610be8565b916119c9565b2061309c565b60e0870151906130b9565b940161194a565b61048b565b9161048b565b03611c6457600190611c61611adf565b90565b5f90611c6e611a94565b90565b505f90611c7c611997565b90565b505f90611c8a61193f565b90565b5042611cac611ca6611ca1608085016118d6565b610549565b91610549565b11611b40565b505f90611cbd6118cb565b90565b90611cdb91611cd6611cd18261184e565b6130db565b611cdd565b565b90611ce7916130ef565b50565b90611cf491611cc0565b565b9080611d11611d0b611d0661319a565b61048b565b9161048b565b03611d2257611d1f916131a7565b50565b5f63334bd91960e11b815280611d3a600482016107cf565b0390fd5b90611d5891611d53611d4e61100e565b6130db565b611d9f565b565b90611d6660ff91610fed565b9181191691161790565b611d7990610247565b90565b90565b90611d94611d8f611d9b92611d70565b611d7c565b8254611d5a565b9055565b611db482611daf60068490610f86565b611d7f565b3390611dfe611dec611de67f32c17f5c2f02d1be47400c387f625be7637bd30d5b030b71d7e44c39f44290ea93610a73565b93610a73565b93611df56101f1565b91829182610259565b0390a3565b90611e0d91611d3e565b565b90611e2991611e24611e1f610d12565b6130db565b611e43565b565b611e409160208201915f818403910152610715565b90565b611e596001611e5460038490610388565b611d7f565b90339091611ea5611e93611e8d7f6cfff3408fdbf8426a8dcad9eb0574aa300a8628b9c31601a2193abf5540432e9361037c565b93610a73565b93611e9c6101f1565b91829182611e2b565b0390a3565b90611eb491611e0f565b565b611ec1610100610467565b90565b5f90565b606090565b5f90565b5f90565b606090565b611ee2611eb6565b9060208080808080808089611ef5611ec4565b815201611f00611ec8565b815201611f0b611ecd565b815201611f16611ed1565b815201611f21611ed1565b815201611f2c611ed1565b815201611f37611ec4565b815201611f42611ed5565b81525050565b611f50611eda565b90565b90611f6f939291611f6a611f65610d12565b6130db565b612350565b90565b611f86611f81611f8b92610fea565b610a48565b610480565b90565b611f9790611f72565b90565b5f7f496e76616c696420686f6c646572000000000000000000000000000000000000910152565b611fce600e602092610701565b611fd781611f9a565b0190565b611ff09060208101905f818303910152611fc1565b90565b15611ffa57565b6120026101f1565b62461bcd60e51b81528061201860048201611fdb565b0390fd5b5f7f496e76616c69642063726564656e7469616c2074797065000000000000000000910152565b6120506017602092610701565b6120598161201c565b0190565b6120729060208101905f818303910152612043565b90565b1561207c57565b6120846101f1565b62461bcd60e51b81528061209a6004820161205d565b0390fd5b5f7f456d7074792063726564656e7469616c20646174610000000000000000000000910152565b6120d26015602092610701565b6120db8161209e565b0190565b6120f49060208101905f8183039101526120c5565b90565b156120fe57565b6121066101f1565b62461bcd60e51b81528061211c600482016120df565b0390fd5b61212d6012602092610701565b61213681611957565b0190565b61214f9060208101905f818303910152612120565b90565b1561215957565b6121616101f1565b62461bcd60e51b8152806121776004820161213a565b0390fd5b60601b90565b61218a9061217b565b90565b61219690612181565b90565b6121a56121aa9161048b565b61218d565b9052565b602093926121ce6014836121c688956121d697612199565b018092611544565b018092611544565b0190565b6121e66121eb9161178b565b610a95565b90565b5f7f4e6f6e636520616c726561647920757365640000000000000000000000000000910152565b6122226012602092610701565b61222b816121ee565b0190565b6122449060208101905f818303910152612215565b90565b1561224e57565b6122566101f1565b62461bcd60e51b81528061226c6004820161222f565b0390fd5b634e487b7160e01b5f52601160045260245ffd5b61229361229991939293610549565b92610549565b82018092116122a457565b612270565b906122bb6122b68361056f565b610467565b918252565b369037565b906122ea6122d2836122a9565b926020806122e0869361056f565b92019103906122c0565b565b6122f7610100610467565b90565b906123049061048b565b9052565b52565b9061231590610203565b9052565b9061232390610549565b9052565b52565b9291602061234661234e9360408701908782035f890152610715565b940190610980565b565b9392909350835f61236090611f8e565b6123699061048b565b906123739061048b565b141561237e90611ff3565b81612388906119c6565b61239190610be8565b5f61239b906118e3565b906123a590610549565b116123af90612075565b806123b990610be8565b5f6123c3906118e3565b906123cd90610549565b116123d7906120f7565b6006336123e391610f86565b6123ec906117a4565b6123f590612152565b6123fe81610be8565b90612408906119c9565b20834243916124156101f1565b9283926020840192612426936121ae565b602082018103825203612439908261043e565b61244281610be8565b9061244c906119c9565b20612456906121da565b60048561246291610a7f565b8161246c91610ab1565b612475906117a4565b1561247f90610247565b61248890612247565b600160048661249691610a7f565b826124a091610ab1565b906124aa91611d7f565b42836124b590613248565b6124be91612284565b90859084908490429085909133935f6124d6906118e3565b6124df906122c5565b956124e86122ec565b975f8901906124f6916122fa565b602088019061250491612308565b60408701906125129161230b565b606086019061252091612319565b608085019061252e91612319565b60a084019061253c91612319565b60c083019061254a916122fa565b60e082019061255891612327565b946125616119a2565b865f0161256d9061194a565b876020015161257b906119c6565b61258481610be8565b9061258e906119c9565b20918860400161259d906119cf565b896060016125aa906118d6565b8a6080016125b7906118d6565b8b60a0016125c4906118d6565b918c60c0016125d29061194a565b936125db6101f1565b97889760208901976125ec986119dc565b6020820181038252036125ff908261043e565b61260881610be8565b90612612906119c9565b2061261c9061309c565b612625906132ec565b8660e001529291909233927f278845b0b53aca7bb68802010ecb72813d381428fabb0fcd03a7bfb2ab9dec989161265b90610a73565b926126659061037c565b9361266f90610a73565b946126786101f1565b918291612685918361232a565b0390a4565b9061269d9291612698611f48565b611f53565b90565b5f90565b5f90565b5f90565b606090565b6126ba90610a67565b90565b67ffffffffffffffff81116126d55760208091020190565b61042a565b906126ec6126e7836126bd565b610467565b918252565b369037565b9061271b612703836126da565b9260208061271186936126bd565b92019103906126f1565b565b600f60f81b90565b61272d6126a0565b5061273661186f565b5061273f61186f565b506127486126a4565b506127516126a8565b5061275a611810565b506127636126ac565b5061276c613325565b90612775613365565b904690612781306126b1565b9061278b5f610ff2565b9061279d6127985f6118e3565b6126f6565b906127a661271d565b96959493929190565b906127ca92916127c56127c0610d12565b6130db565b6129ac565b565b5f7f496e76616c696420726f6f740000000000000000000000000000000000000000910152565b612800600c602092610701565b612809816127cc565b0190565b6128229060208101905f8183039101526127f3565b90565b1561282c57565b6128346101f1565b62461bcd60e51b81528061284a6004820161280d565b0390fd5b5f7f496e76616c69642063726564656e7469616c20636f756e740000000000000000910152565b6128826018602092610701565b61288b8161284e565b0190565b6128a49060208101905f818303910152612875565b90565b156128ae57565b6128b66101f1565b62461bcd60e51b8152806128cc6004820161288f565b0390fd5b6128dc6128e19161178b565b610948565b90565b6128ee90546128d0565b90565b5f7f526f6f7420616c72656164792065786973747300000000000000000000000000910152565b6129256013602092610701565b61292e816128f1565b0190565b6129479060208101905f818303910152612918565b90565b1561295157565b6129596101f1565b62461bcd60e51b81528061296f60048201612932565b0390fd5b9061297f5f1991610fed565b9181191691161790565b90565b906129a161299c6129a892610a95565b612989565b8254612973565b9055565b9190916129d4816129cd6129c76129c25f610ff2565b610203565b91610203565b1415612825565b6129f0826129ea6129e45f6118e3565b91610549565b116128a7565b612a1f612a07612a026005849061171f565b6128e4565b612a19612a135f6118e3565b91610549565b1461294a565b612a3442612a2f6005849061171f565b61298c565b91339192612a89612a77612a71612a6b7f80353fd5523a8a1b7dfb27355c892947b3b67e98466787281ad5d3988199b9ef9461037c565b94610a95565b94610a73565b94612a806101f1565b9182918261098d565b0390a4565b90612a9992916127af565b565b612ac1915f612ab6612abc93612aaf611787565b5082611814565b01610f86565b6117a4565b90565b6001612ad09101610549565b90565b634e487b7160e01b5f52603260045260245ffd5b90612af1826112e7565b811015612b02576020809102010190565b612ad3565b90565b612b16612b1b91610203565b612b07565b9052565b602081612b31612b3993839695612b0a565b018092612b0a565b0190565b919091612b48611787565b50612b68612b636005612b5d602087016119cf565b9061171f565b6128e4565b612b7a612b745f6118e3565b91610549565b14612c9957612b885f6118e3565b905b81612ba8612ba2612b9d5f8801516112e7565b610549565b91610549565b1015612c7257612c2890612bc8612bc35f8701518590612ae7565b6119cf565b9080612bdc612bd684610203565b91610203565b11155f14612c2e57612c0e90612bff612bf36101f1565b93849260208401612b1f565b6020820181038252038261043e565b612c20612c1a82610be8565b916119c9565b20915b612ac4565b90612b8a565b90612c5990612c4a612c3e6101f1565b93849260208401612b1f565b6020820181038252038261043e565b612c6b612c6582610be8565b916119c9565b2091612c23565b612c959150612c8a6020612c8f9295949594016119cf565b610203565b91610203565b1490565b5090505f90565b612caa6080610467565b90565b612cb5611eda565b90565b612cc26080610467565b90565b606090565b612cd2612cb8565b90602080808085612ce1612cc5565b815201612cec611ecd565b815201612cf7611ed1565b815201612d02611ed1565b81525050565b612d10612cca565b90565b612d1b612ca0565b90602080808085612d2a612cad565b815201612d35612d08565b815201612d40612cc5565b815201612d4b611ed1565b81525050565b612d59612d13565b90565b90612d6e612d698361105a565b610467565b918252565b369037565b90612d9d612d8583612d5c565b92602080612d93869361105a565b9201910390612d73565b565b612da96080610467565b90565b52565b52565b52565b90565b612dcc612dc7612dd192612db5565b610a48565b610549565b90565b612e2a612e3391612de3612d51565b5092612e25612df9612df45f6118e3565b612d78565b612e1c600193612e13612e0a612d9f565b985f8a01612dac565b60208801612daf565b60408601612db2565b612db8565b60608301612319565b90565b606090565b929490612e9b9694612e7a612e6f612e8493612e8e96612e6260c08a01925f8b0190610d8c565b88820360208a0152610715565b976040870190610325565b6060850190610980565b6080830190610980565b60a0818403910152611460565b90565b612ea6612e36565b50612f0c612eb55f830161194a565b612efd602084015193612eca604082016119cf565b90612ed7606082016118d6565b60e0612ee5608084016118d6565b92015192612ef16101f1565b97889660208801612e3b565b6020820181038252038261043e565b90565b90612f2a91612f25612f208261184e565b6130db565b612f2c565b565b90612f36916131a7565b50565b90612f4391612f0f565b565b612f4d611810565b50612f566119a2565b90565b612f61611810565b50612f6a6133a5565b90565b612f84612f8991612f7c611787565b506006610f86565b6117a4565b90565b612f94611787565b50612fae612fa86301ffc9a760e01b6102a3565b916102a3565b1490565b9194612ffe60a094989795612ff4612fe96130089561300f9a612fdc60c08a01925f8b0190610d8c565b88820360208a0152610715565b9a6040870190610325565b6060850190610980565b6080830190610980565b0190610d8c565b565b613019611810565b506130866130285f830161194a565b61307760208401519361303d604082016119cf565b9061304a606082016118d6565b61306260c061305b60a085016118d6565b930161194a565b9261306b6101f1565b97889660208801612fb2565b6020820181038252038261043e565b61309861309282610be8565b916119c9565b2090565b6130b6906130a8611810565b506130b16133a5565b61345f565b90565b6130d8916130cf916130c96126a8565b506134e3565b909291926135b7565b90565b6130ed906130e761319a565b906136ab565b565b6130f7611787565b5061310c613106828490612a9b565b15610247565b5f1461319457613133600161312e5f613126818690611814565b018590610f86565b611d7f565b9061313c61319a565b9061317961317361316d7f2f8788117e7eff1d82e926ec794901d17c78024a50270940304540a733656f0d9561037c565b92610a73565b92610a73565b926131826101f1565b8061318c816107cf565b0390a4600190565b50505f90565b6131a26126a8565b503390565b6131af611787565b506131bb818390612a9b565b5f14613242576131e15f6131dc5f6131d4818690611814565b018590610f86565b611d7f565b906131ea61319a565b9061322761322161321b7ff6391f5c32d9c69d2a47ea670b442974b53935d1edc7fd64eb21e047a839171b9561037c565b92610a73565b92610a73565b926132306101f1565b8061323a816107cf565b0390a4600190565b50505f90565b61325f613264916132576126a4565b50600761158e565b6128e4565b806132776132715f6118e3565b91610549565b115f14613282575b90565b5061328d60086128e4565b61327f565b5f7f5349474e5f52455155495245443a000000000000000000000000000000000000910152565b6132c5600e8092611513565b6132ce81613292565b0190565b906132e86132e16020936132b9565b8092612b0a565b0190565b61331f613310916132fb612e36565b506133046101f1565b928391602083016132d2565b6020820181038252038261043e565b90565b90565b61332d61186f565b506133627f000000000000000000000000000000000000000000000000000000000000000061335c6001613322565b90613820565b90565b61336d61186f565b506133a27f000000000000000000000000000000000000000000000000000000000000000061339c6002613322565b90613820565b90565b6133ad611810565b506133b7306126b1565b6133e96133e37f000000000000000000000000000000000000000000000000000000000000000061048b565b9161048b565b1480613425575b5f1461341a577f000000000000000000000000000000000000000000000000000000000000000090565b6134226138df565b90565b50466134596134537f0000000000000000000000000000000000000000000000000000000000000000610549565b91610549565b146133f0565b60429161346a611810565b50604051917f19010000000000000000000000000000000000000000000000000000000000008352600283015260228201522090565b5f90565b90565b6134bb6134b66134c0926134a4565b610a48565b610549565b90565b6134d76134d26134dc92610549565b610fed565b610203565b90565b5f90565b9190916134ee6126a8565b506134f76134a0565b50613500611810565b5061350a83610be8565b61351d61351760416134a7565b91610549565b145f146135645761355d9192613531611810565b5061353a611810565b506135436134df565b506020810151606060408301519201515f1a9091926139fd565b9192909190565b5061356e5f611f8e565b9061358261357d600294610be8565b6134c3565b91929190565b634e487b7160e01b5f52602160045260245ffd5b600411156135a657565b613588565b906135b58261359c565b565b806135ca6135c45f6135ab565b916135ab565b145f146135d5575050565b806135e96135e360016135ab565b916135ab565b145f1461360c575f63f645eedf60e01b815280613608600482016107cf565b0390fd5b8061362061361a60026135ab565b916135ab565b145f1461364e5761364a613633836121da565b5f91829163fce698f760e01b83526004830161098d565b0390fd5b61366161365b60036135ab565b916135ab565b146136695750565b613684905f9182916335e2f38360e21b835260048301610332565b0390fd5b9160206136a99294936136a260408201965f830190610d8c565b0190610325565b565b906136c06136ba838390612a9b565b15610247565b6136c8575050565b6136e25f92839263e2517d3f60e01b845260048401613688565b0390fd5b90565b6136fd6136f8613702926136e6565b610fed565b610203565b90565b61370f60ff6136e9565b90565b634e487b7160e01b5f52602260045260245ffd5b9060016002830492168015613746575b602083101461374157565b613712565b91607f1691613736565b5f5260205f2090565b905f929180549061377361376c83613726565b8094610b94565b916001811690815f146137ca575060011461378e575b505050565b61379b9192939450613750565b915f925b8184106137b257505001905f8080613789565b6001816020929593955484860152019101929061379f565b92949550505060ff19168252151560200201905f8080613789565b906137ef91613759565b90565b9061381261380b926138026101f1565b938480926137e5565b038361043e565b565b61381d906137f2565b90565b9061382961186f565b506138338261037c565b61384c613846613841613705565b610203565b91610203565b14155f14613861575061385e90613b3f565b90565b61386b9150613814565b90565b7f8b73c3c69bb8fe3d512ecc4cf759cc79239f7b179b0ffacaa9a75d522b39400f90565b909594926138dd946138cc6138d6926138c26080966138b860a088019c5f890190610325565b6020870190610325565b6040850190610325565b6060830190610980565b0190610d8c565b565b6138e7611810565b506138f061386e565b6139677f0000000000000000000000000000000000000000000000000000000000000000916139587f000000000000000000000000000000000000000000000000000000000000000046613943306126b1565b9161394c6101f1565b96879560208701613892565b6020820181038252038261043e565b61397961397382610be8565b916119c9565b2090565b90565b61399461398f6139999261397d565b610a48565b610549565b90565b60ff1690565b6139ab9061399c565b9052565b6139e46139eb946139da6060949897956139d0608086019a5f870190610325565b60208501906139a2565b6040830190610325565b0190610325565b565b6139f56101f1565b3d5f823e3d90fd5b939293613a086126a8565b50613a116134a0565b50613a1a611810565b50613a24856121da565b613a56613a507f7fffffffffffffffffffffffffffffff5d576e7357a4501ddfe92f46681b20a0613980565b91610549565b11613ae35790613a79602094955f94939293613a706101f1565b948594856139af565b838052039060015afa15613ade57613a915f51610fed565b80613aac613aa6613aa15f611f8e565b61048b565b9161048b565b14613ac2575f91613abc5f610ff2565b91929190565b50613acc5f611f8e565b600191613ad85f610ff2565b91929190565b6139ed565b505050613aef5f611f8e565b9060039291929190565b90565b613b10613b0b613b1592613af9565b610a48565b610549565b90565b90613b3d613b2583611874565b92602080613b3386936104c2565b92019103906122c0565b565b613b4761186f565b50613b5181613baa565b90613b64613b5f6020613afc565b613b18565b918252602082015290565b613b83613b7e613b88926136e6565b610a48565b610549565b90565b90565b613ba2613b9d613ba792613b8b565b610a48565b610549565b90565b613bbf613bc491613bb96126a4565b5061037c565b6121da565b613bce60ff613b6f565b1680613be3613bdd601f613b8e565b91610549565b11613beb5790565b5f632cd44ac360e21b815280613c03600482016107cf565b0390fdfea2646970667358221220d2645e1c3c937dbddc8d366ce2b8b3446ed78a00ce8ad87bfbcb5cd7040ec5b564736f6c634300081e0033","linkReferences":{}},"methodIdentifiers":{"DEFAULT_ADMIN_ROLE()":"a217fddf","ISSUER_ROLE()":"82aefa24","VERIFIER_ROLE()":"e7705db6","addMerkleRoot(bytes32,uint256,uint256)":"8d4e7f42","createVerificationPackage((address,string,bytes32,uint256,uint256,uint256,address,bytes),(bytes32[],bytes32,uint256,uint256))":"c4155b31","credentialTypeExpiry(string)":"ced1ff7d","defaultCredentialExpiry()":"57076cb7","eip712Domain()":"84b0196e","generateQRData((address,string,bytes32,uint256,uint256,uint256,address,bytes))":"ce7daa61","getCredentialTypeHash()":"e9e37f3e","getDomainSeparator()":"ed24911d","getRoleAdmin(bytes32)":"248a9ca3","grantRole(bytes32,address)":"2f2ff15d","hasRole(bytes32,address)":"91d14854","isCredentialRevoked(bytes32)":"00cf8668","isTrustedIssuer(address)":"ef2ed1a4","issueOfflineCredential(address,string,bytes)":"6e60344a","maxOfflineVerificationPeriod()":"4bea6abd","merkleRoots(bytes32)":"fe5a5377","renounceRole(bytes32,address)":"36568abe","revokeCredential(bytes32,string)":"493814b5","revokeRole(bytes32,address)":"d547741f","revokedCredentials(bytes32)":"249b92a0","supportsInterface(bytes4)":"01ffc9a7","trustedIssuers(address)":"92c54daf","updateTrustedIssuer(address,bool)":"3c3882ff","usedNonces(address,uint256)":"6a8a6894","verifyMerkleProof(bytes32,(bytes32[],bytes32,uint256,uint256))":"a3ec6ef6","verifyOfflineCredential((address,string,bytes32,uint256,uint256,uint256,address,bytes))":"286b980c"},"id":93}