{"abi":[{"type":"constructor","inputs":[{"name":"_verificationLogger","type":"address","internalType":"address"},{"name":"_trustScore","type":"address","internalType":"address"},{"name":"_userRegistry","type":"address","internalType":"address"},{"name":"_systemToken","type":"address","internalType":"address"}],"stateMutability":"nonpayable"},{"type":"receive","stateMutability":"payable"},{"type":"function","name":"DEFAULT_ADMIN_ROLE","inputs":[],"outputs":[{"name":"","type":"bytes32","internalType":"bytes32"}],"stateMutability":"view"},{"type":"function","name":"PAYMASTER_ADMIN_ROLE","inputs":[],"outputs":[{"name":"","type":"bytes32","internalType":"bytes32"}],"stateMutability":"view"},{"type":"function","name":"SPONSOR_ROLE","inputs":[],"outputs":[{"name":"","type":"bytes32","internalType":"bytes32"}],"stateMutability":"view"},{"type":"function","name":"addPremiumUser","inputs":[{"name":"user","type":"address","internalType":"address"},{"name":"duration","type":"uint256","internalType":"uint256"}],"outputs":[],"stateMutability":"nonpayable"},{"type":"function","name":"allSponsorPools","inputs":[{"name":"","type":"uint256","internalType":"uint256"}],"outputs":[{"name":"","type":"address","internalType":"address"}],"stateMutability":"view"},{"type":"function","name":"allSponsoredTxs","inputs":[{"name":"","type":"uint256","internalType":"uint256"}],"outputs":[{"name":"","type":"bytes32","internalType":"bytes32"}],"stateMutability":"view"},{"type":"function","name":"canSponsorTransaction","inputs":[{"name":"user","type":"address","internalType":"address"},{"name":"sponsorType","type":"uint8","internalType":"enum PaymasterManager.SponsorshipType"},{"name":"gasUsed","type":"uint256","internalType":"uint256"},{"name":"gasPrice","type":"uint256","internalType":"uint256"}],"outputs":[{"name":"","type":"bool","internalType":"bool"},{"name":"","type":"string","internalType":"string"}],"stateMutability":"view"},{"type":"function","name":"createSponsorPool","inputs":[{"name":"poolName","type":"string","internalType":"string"},{"name":"initialFunding","type":"uint256","internalType":"uint256"},{"name":"supportedTypes","type":"uint8[]","internalType":"enum PaymasterManager.SponsorshipType[]"},{"name":"expirationPeriod","type":"uint256","internalType":"uint256"}],"outputs":[{"name":"","type":"address","internalType":"address"}],"stateMutability":"payable"},{"type":"function","name":"emergencyGasReserve","inputs":[],"outputs":[{"name":"","type":"uint256","internalType":"uint256"}],"stateMutability":"view"},{"type":"function","name":"emergencyWithdraw","inputs":[{"name":"amount","type":"uint256","internalType":"uint256"},{"name":"recipient","type":"address","internalType":"address payable"}],"outputs":[],"stateMutability":"nonpayable"},{"type":"function","name":"fundSponsorPool","inputs":[{"name":"poolAddress","type":"address","internalType":"address"},{"name":"amount","type":"uint256","internalType":"uint256"}],"outputs":[],"stateMutability":"payable"},{"type":"function","name":"getPaymasterStats","inputs":[],"outputs":[{"name":"totalSponsoredTxs","type":"uint256","internalType":"uint256"},{"name":"totalGasSponsored","type":"uint256","internalType":"uint256"},{"name":"activeSponsorPools","type":"uint256","internalType":"uint256"},{"name":"totalFundsAvailable","type":"uint256","internalType":"uint256"},{"name":"status","type":"uint8","internalType":"enum PaymasterManager.PaymasterStatus"}],"stateMutability":"view"},{"type":"function","name":"getRoleAdmin","inputs":[{"name":"role","type":"bytes32","internalType":"bytes32"}],"outputs":[{"name":"","type":"bytes32","internalType":"bytes32"}],"stateMutability":"view"},{"type":"function","name":"getSponsorPool","inputs":[{"name":"poolAddress","type":"address","internalType":"address"}],"outputs":[{"name":"sponsor","type":"address","internalType":"address"},{"name":"poolName","type":"string","internalType":"string"},{"name":"totalFunds","type":"uint256","internalType":"uint256"},{"name":"usedFunds","type":"uint256","internalType":"uint256"},{"name":"availableFunds","type":"uint256","internalType":"uint256"},{"name":"isActive","type":"bool","internalType":"bool"}],"stateMutability":"view"},{"type":"function","name":"getUserCreditBalance","inputs":[{"name":"user","type":"address","internalType":"address"}],"outputs":[{"name":"","type":"uint256","internalType":"uint256"}],"stateMutability":"view"},{"type":"function","name":"getUserQuota","inputs":[{"name":"user","type":"address","internalType":"address"},{"name":"sponsorType","type":"uint8","internalType":"enum PaymasterManager.SponsorshipType"}],"outputs":[{"name":"dailyUsed","type":"uint256","internalType":"uint256"},{"name":"monthlyUsed","type":"uint256","internalType":"uint256"},{"name":"dailyLimit","type":"uint256","internalType":"uint256"},{"name":"monthlyLimit","type":"uint256","internalType":"uint256"},{"name":"isPremiumUser","type":"bool","internalType":"bool"}],"stateMutability":"view"},{"type":"function","name":"getUserSponsoredTransactions","inputs":[{"name":"user","type":"address","internalType":"address"}],"outputs":[{"name":"","type":"bytes32[]","internalType":"bytes32[]"}],"stateMutability":"view"},{"type":"function","name":"grantRole","inputs":[{"name":"role","type":"bytes32","internalType":"bytes32"},{"name":"account","type":"address","internalType":"address"}],"outputs":[],"stateMutability":"nonpayable"},{"type":"function","name":"hasRole","inputs":[{"name":"role","type":"bytes32","internalType":"bytes32"},{"name":"account","type":"address","internalType":"address"}],"outputs":[{"name":"","type":"bool","internalType":"bool"}],"stateMutability":"view"},{"type":"function","name":"maxDailyGasPerUser","inputs":[],"outputs":[{"name":"","type":"uint256","internalType":"uint256"}],"stateMutability":"view"},{"type":"function","name":"maxMonthlyGasPerUser","inputs":[],"outputs":[{"name":"","type":"uint256","internalType":"uint256"}],"stateMutability":"view"},{"type":"function","name":"pausePaymaster","inputs":[],"outputs":[],"stateMutability":"nonpayable"},{"type":"function","name":"paymasterStatus","inputs":[],"outputs":[{"name":"","type":"uint8","internalType":"enum PaymasterManager.PaymasterStatus"}],"stateMutability":"view"},{"type":"function","name":"premiumUsers","inputs":[{"name":"","type":"address","internalType":"address"}],"outputs":[{"name":"","type":"bool","internalType":"bool"}],"stateMutability":"view"},{"type":"function","name":"purchaseGasCredits","inputs":[{"name":"gasAmount","type":"uint256","internalType":"uint256"}],"outputs":[],"stateMutability":"nonpayable"},{"type":"function","name":"renounceRole","inputs":[{"name":"role","type":"bytes32","internalType":"bytes32"},{"name":"callerConfirmation","type":"address","internalType":"address"}],"outputs":[],"stateMutability":"nonpayable"},{"type":"function","name":"resumePaymaster","inputs":[],"outputs":[],"stateMutability":"nonpayable"},{"type":"function","name":"revokeRole","inputs":[{"name":"role","type":"bytes32","internalType":"bytes32"},{"name":"account","type":"address","internalType":"address"}],"outputs":[],"stateMutability":"nonpayable"},{"type":"function","name":"sponsorPools","inputs":[{"name":"","type":"address","internalType":"address"}],"outputs":[{"name":"sponsor","type":"address","internalType":"address"},{"name":"poolName","type":"string","internalType":"string"},{"name":"totalFunds","type":"uint256","internalType":"uint256"},{"name":"usedFunds","type":"uint256","internalType":"uint256"},{"name":"reservedFunds","type":"uint256","internalType":"uint256"},{"name":"isActive","type":"bool","internalType":"bool"},{"name":"createdAt","type":"uint256","internalType":"uint256"},{"name":"expiresAt","type":"uint256","internalType":"uint256"}],"stateMutability":"view"},{"type":"function","name":"sponsorTransaction","inputs":[{"name":"user","type":"address","internalType":"address"},{"name":"wallet","type":"address","internalType":"address"},{"name":"userOpHash","type":"bytes32","internalType":"bytes32"},{"name":"gasUsed","type":"uint256","internalType":"uint256"},{"name":"gasPrice","type":"uint256","internalType":"uint256"},{"name":"transactionType","type":"string","internalType":"string"},{"name":"sponsorType","type":"uint8","internalType":"enum PaymasterManager.SponsorshipType"}],"outputs":[{"name":"","type":"bool","internalType":"bool"}],"stateMutability":"nonpayable"},{"type":"function","name":"sponsoredTransactions","inputs":[{"name":"","type":"bytes32","internalType":"bytes32"}],"outputs":[{"name":"user","type":"address","internalType":"address"},{"name":"wallet","type":"address","internalType":"address"},{"name":"userOpHash","type":"bytes32","internalType":"bytes32"},{"name":"gasUsed","type":"uint256","internalType":"uint256"},{"name":"gasPrice","type":"uint256","internalType":"uint256"},{"name":"totalCost","type":"uint256","internalType":"uint256"},{"name":"sponsorType","type":"uint8","internalType":"enum PaymasterManager.SponsorshipType"},{"name":"sponsorPool","type":"address","internalType":"address"},{"name":"timestamp","type":"uint256","internalType":"uint256"},{"name":"isRefunded","type":"bool","internalType":"bool"},{"name":"transactionType","type":"string","internalType":"string"}],"stateMutability":"view"},{"type":"function","name":"sponsorshipCounter","inputs":[],"outputs":[{"name":"","type":"uint256","internalType":"uint256"}],"stateMutability":"view"},{"type":"function","name":"sponsorshipPolicies","inputs":[{"name":"","type":"uint8","internalType":"enum PaymasterManager.SponsorshipType"}],"outputs":[{"name":"sponsorType","type":"uint8","internalType":"enum PaymasterManager.SponsorshipType"},{"name":"minTrustScore","type":"uint256","internalType":"uint256"},{"name":"dailyLimit","type":"uint256","internalType":"uint256"},{"name":"monthlyLimit","type":"uint256","internalType":"uint256"},{"name":"maxGasPrice","type":"uint256","internalType":"uint256"},{"name":"maxGasLimit","type":"uint256","internalType":"uint256"},{"name":"requiresVerification","type":"bool","internalType":"bool"},{"name":"verificationLevel","type":"uint256","internalType":"uint256"},{"name":"costPerTx","type":"uint256","internalType":"uint256"},{"name":"isActive","type":"bool","internalType":"bool"},{"name":"createdAt","type":"uint256","internalType":"uint256"},{"name":"updatedAt","type":"uint256","internalType":"uint256"}],"stateMutability":"view"},{"type":"function","name":"supportsInterface","inputs":[{"name":"interfaceId","type":"bytes4","internalType":"bytes4"}],"outputs":[{"name":"","type":"bool","internalType":"bool"}],"stateMutability":"view"},{"type":"function","name":"systemToken","inputs":[],"outputs":[{"name":"","type":"address","internalType":"contract ISystemToken"}],"stateMutability":"view"},{"type":"function","name":"tokenToGasRate","inputs":[],"outputs":[{"name":"","type":"uint256","internalType":"uint256"}],"stateMutability":"view"},{"type":"function","name":"trustScore","inputs":[],"outputs":[{"name":"","type":"address","internalType":"contract ITrustScore"}],"stateMutability":"view"},{"type":"function","name":"updateSponsorshipPolicy","inputs":[{"name":"sponsorType","type":"uint8","internalType":"enum PaymasterManager.SponsorshipType"},{"name":"minTrustScore","type":"uint256","internalType":"uint256"},{"name":"dailyLimit","type":"uint256","internalType":"uint256"},{"name":"monthlyLimit","type":"uint256","internalType":"uint256"},{"name":"maxGasPrice","type":"uint256","internalType":"uint256"},{"name":"requiresVerification","type":"bool","internalType":"bool"},{"name":"verificationLevel","type":"uint256","internalType":"uint256"}],"outputs":[],"stateMutability":"nonpayable"},{"type":"function","name":"userCreditBalance","inputs":[{"name":"","type":"address","internalType":"address"}],"outputs":[{"name":"","type":"uint256","internalType":"uint256"}],"stateMutability":"view"},{"type":"function","name":"userQuotas","inputs":[{"name":"","type":"address","internalType":"address"},{"name":"","type":"uint8","internalType":"enum PaymasterManager.SponsorshipType"}],"outputs":[{"name":"dailyUsed","type":"uint256","internalType":"uint256"},{"name":"monthlyUsed","type":"uint256","internalType":"uint256"},{"name":"lastResetDay","type":"uint256","internalType":"uint256"},{"name":"lastResetMonth","type":"uint256","internalType":"uint256"},{"name":"totalTransactions","type":"uint256","internalType":"uint256"},{"name":"totalGasSponsored","type":"uint256","internalType":"uint256"},{"name":"isPremiumUser","type":"bool","internalType":"bool"},{"name":"premiumExpiresAt","type":"uint256","internalType":"uint256"}],"stateMutability":"view"},{"type":"function","name":"userRegistry","inputs":[],"outputs":[{"name":"","type":"address","internalType":"contract IUserIdentityRegistry"}],"stateMutability":"view"},{"type":"function","name":"userSponsoredTxs","inputs":[{"name":"","type":"address","internalType":"address"},{"name":"","type":"uint256","internalType":"uint256"}],"outputs":[{"name":"","type":"bytes32","internalType":"bytes32"}],"stateMutability":"view"},{"type":"function","name":"verificationLogger","inputs":[],"outputs":[{"name":"","type":"address","internalType":"contract IVerificationLogger"}],"stateMutability":"view"},{"type":"event","name":"CreditsPurchased","inputs":[{"name":"user","type":"address","indexed":true,"internalType":"address"},{"name":"amount","type":"uint256","indexed":false,"internalType":"uint256"},{"name":"tokensCost","type":"uint256","indexed":false,"internalType":"uint256"}],"anonymous":false},{"type":"event","name":"EmergencyWithdrawal","inputs":[{"name":"admin","type":"address","indexed":true,"internalType":"address"},{"name":"amount","type":"uint256","indexed":false,"internalType":"uint256"}],"anonymous":false},{"type":"event","name":"PaymasterStatusChanged","inputs":[{"name":"oldStatus","type":"uint8","indexed":false,"internalType":"enum PaymasterManager.PaymasterStatus"},{"name":"newStatus","type":"uint8","indexed":false,"internalType":"enum PaymasterManager.PaymasterStatus"}],"anonymous":false},{"type":"event","name":"PolicyUpdated","inputs":[{"name":"sponsorType","type":"uint8","indexed":true,"internalType":"enum PaymasterManager.SponsorshipType"},{"name":"minTrustScore","type":"uint256","indexed":false,"internalType":"uint256"},{"name":"dailyLimit","type":"uint256","indexed":false,"internalType":"uint256"}],"anonymous":false},{"type":"event","name":"PremiumUserAdded","inputs":[{"name":"user","type":"address","indexed":true,"internalType":"address"},{"name":"expiresAt","type":"uint256","indexed":false,"internalType":"uint256"}],"anonymous":false},{"type":"event","name":"RoleAdminChanged","inputs":[{"name":"role","type":"bytes32","indexed":true,"internalType":"bytes32"},{"name":"previousAdminRole","type":"bytes32","indexed":true,"internalType":"bytes32"},{"name":"newAdminRole","type":"bytes32","indexed":true,"internalType":"bytes32"}],"anonymous":false},{"type":"event","name":"RoleGranted","inputs":[{"name":"role","type":"bytes32","indexed":true,"internalType":"bytes32"},{"name":"account","type":"address","indexed":true,"internalType":"address"},{"name":"sender","type":"address","indexed":true,"internalType":"address"}],"anonymous":false},{"type":"event","name":"RoleRevoked","inputs":[{"name":"role","type":"bytes32","indexed":true,"internalType":"bytes32"},{"name":"account","type":"address","indexed":true,"internalType":"address"},{"name":"sender","type":"address","indexed":true,"internalType":"address"}],"anonymous":false},{"type":"event","name":"SponsorPoolCreated","inputs":[{"name":"sponsor","type":"address","indexed":true,"internalType":"address"},{"name":"poolName","type":"string","indexed":false,"internalType":"string"},{"name":"initialFunds","type":"uint256","indexed":false,"internalType":"uint256"}],"anonymous":false},{"type":"event","name":"SponsorPoolFunded","inputs":[{"name":"pool","type":"address","indexed":true,"internalType":"address"},{"name":"amount","type":"uint256","indexed":false,"internalType":"uint256"},{"name":"funder","type":"address","indexed":false,"internalType":"address"}],"anonymous":false},{"type":"event","name":"TransactionSponsored","inputs":[{"name":"userOpHash","type":"bytes32","indexed":true,"internalType":"bytes32"},{"name":"user","type":"address","indexed":true,"internalType":"address"},{"name":"sponsorType","type":"uint8","indexed":false,"internalType":"enum PaymasterManager.SponsorshipType"},{"name":"gasCost","type":"uint256","indexed":false,"internalType":"uint256"}],"anonymous":false},{"type":"event","name":"UserQuotaExceeded","inputs":[{"name":"user","type":"address","indexed":true,"internalType":"address"},{"name":"sponsorType","type":"uint8","indexed":false,"internalType":"enum PaymasterManager.SponsorshipType"},{"name":"limit","type":"uint256","indexed":false,"internalType":"uint256"}],"anonymous":false},{"type":"error","name":"AccessControlBadConfirmation","inputs":[]},{"type":"error","name":"AccessControlUnauthorizedAccount","inputs":[{"name":"account","type":"address","internalType":"address"},{"name":"neededRole","type":"bytes32","internalType":"bytes32"}]},{"type":"error","name":"ReentrancyGuardReentrantCall","inputs":[]}],"bytecode":{"object":"0x6080604052346100335761001d610014610120565b92919091610696565b610025610038565b616b2b61195a8239616b2b90f35b61003e565b60405190565b5f80fd5b601f801991011690565b634e487b7160e01b5f52604160045260245ffd5b9061006a90610042565b810190811060018060401b0382111761008257604052565b61004c565b9061009a610093610038565b9283610060565b565b5f80fd5b60018060a01b031690565b6100b4906100a0565b90565b6100c0816100ab565b036100c757565b5f80fd5b905051906100d8826100b7565b565b60808183031261011b576100f0825f83016100cb565b9261011861010184602085016100cb565b9361010f81604086016100cb565b936060016100cb565b90565b61009c565b61013e6184858038038061013381610087565b9283398101906100da565b90919293565b90565b90565b61015e61015961016392610144565b610147565b6100a0565b90565b61016f9061014a565b90565b60209181520190565b5f7f496e76616c696420766572696669636174696f6e206c6f676765720000000000910152565b6101af601b602092610172565b6101b88161017b565b0190565b6101d19060208101905f8183039101526101a2565b90565b156101db57565b6101e3610038565b62461bcd60e51b8152806101f9600482016101bc565b0390fd5b5f7f496e76616c69642074727573742073636f726500000000000000000000000000910152565b6102316013602092610172565b61023a816101fd565b0190565b6102539060208101905f818303910152610224565b90565b1561025d57565b610265610038565b62461bcd60e51b81528061027b6004820161023e565b0390fd5b5f7f496e76616c696420757365722072656769737472790000000000000000000000910152565b6102b36015602092610172565b6102bc8161027f565b0190565b6102d59060208101905f8183039101526102a6565b90565b156102df57565b6102e7610038565b62461bcd60e51b8152806102fd600482016102c0565b0390fd5b5f7f496e76616c69642073797374656d20746f6b656e000000000000000000000000910152565b6103356014602092610172565b61033e81610301565b0190565b6103579060208101905f818303910152610328565b90565b1561036157565b610369610038565b62461bcd60e51b81528061037f60048201610342565b0390fd5b90565b5f1b90565b61039f61039a6103a492610144565b610386565b610383565b90565b6103b05f61038b565b90565b7f1824ff63dea2c4dd2c17a4d3777b1a4ade42c51cb823941f0b8218d984f033d690565b7f1597bc5e34ff090612f53164e4e642d2ab4fc78bffe19ed1b602a0d12559561a90565b61040f61040a610414926100a0565b610147565b6100a0565b90565b610420906103fb565b90565b61042c90610417565b90565b9061044060018060a01b0391610386565b9181191691161790565b61045390610417565b90565b90565b9061046e6104696104759261044a565b610456565b825461042f565b9055565b610482906103fb565b90565b61048e90610479565b90565b61049a90610479565b90565b90565b906104b56104b06104bc92610491565b61049d565b825461042f565b9055565b6104c9906103fb565b90565b6104d5906104c0565b90565b6104e1906104c0565b90565b90565b906104fc6104f7610503926104d8565b6104e4565b825461042f565b9055565b610510906103fb565b90565b61051c90610507565b90565b61052890610507565b90565b90565b9061054361053e61054a9261051f565b61052b565b825461042f565b9055565b90565b90565b61056861056361056d9261054e565b610147565b610551565b90565b9061057c5f1991610386565b9181191691161790565b61059a61059561059f92610551565b610147565b610551565b90565b90565b906105ba6105b56105c192610586565b6105a2565b8254610570565b9055565b90565b6105dc6105d76105e1926105c5565b610147565b610551565b90565b90565b6105fb6105f6610600926105e4565b610147565b610551565b90565b9061060f60ff91610386565b9181191691161790565b634e487b7160e01b5f52602160045260245ffd5b6004111561063757565b610619565b906106468261062d565b565b6106519061063c565b90565b90565b9061066c61066761067392610648565b610654565b8254610603565b9055565b90565b61068e61068961069392610677565b610147565b610551565b90565b6107a46107b09361079f6107986107b7979561079361078c6107ab976106ba61085c565b6106df816106d86106d26106cd5f610166565b6100ab565b916100ab565b14156101d4565b610704846106fd6106f76106f25f610166565b6100ab565b916100ab565b1415610256565b6107298761072261071c6107175f610166565b6100ab565b916100ab565b14156102d8565b61074e8a61074761074161073c5f610166565b6100ab565b916100ab565b141561035a565b6107606107596103a7565b33906108fd565b5061077361076c6103b3565b33906108fd565b5061078661077f6103d7565b33906108fd565b50610423565b600c610459565b610485565b600d6104a0565b6104cc565b600e6104e7565b610513565b600f61052e565b6107d16107ca662386f26fc10000610554565b60106105a5565b6107ec6107e567016345785d8a00006105c8565b60116105a5565b610807610800670de0b6b3a76400006105e7565b60126105a5565b6108125f6013610657565b61082661081f606461067a565b60146105a5565b61082e61147e565b565b90565b61084761084261084c92610830565b610147565b610551565b90565b6108596001610833565b90565b61086e61086761084f565b60016105a5565b565b5f90565b151590565b61088290610383565b90565b9061088f90610879565b5f5260205260405f2090565b6108a4906103fb565b90565b6108b09061089b565b90565b906108bd906108a7565b5f5260205260405f2090565b6108d290610874565b90565b90565b906108ed6108e86108f4926108c9565b6108d5565b8254610603565b9055565b5f0190565b610905610870565b5061091a61091482849061191f565b15610874565b5f146109a257610941600161093c5f610934818690610885565b0185906108b3565b6108d8565b9061094a61194c565b9061098761098161097b7f2f8788117e7eff1d82e926ec794901d17c78024a50270940304540a733656f0d95610879565b926108a7565b926108a7565b92610990610038565b8061099a816108f8565b0390a4600190565b50505f90565b6109bc6109b76109c192610144565b610147565b610551565b90565b60018060401b0381116109da5760208091020190565b61004c565b906109f16109ec836109c4565b610087565b918252565b606090565b5f5b828110610a0957505050565b602090610a146109f6565b81840152016109fd565b90610a43610a2b836109df565b92602080610a3986936109c4565b92019103906109fb565b565b60018060401b038111610a5b5760208091020190565b61004c565b90610a72610a6d83610a45565b610087565b918252565b369037565b90610aa1610a8983610a60565b92602080610a978693610a45565b9201910390610a77565b565b610aae6101c0610087565b90565b60061115610abb57565b610619565b90610aca82610ab1565b565b90610ad690610ac0565b9052565b90565b610af1610aec610af692610ada565b610147565b610551565b90565b90610b0390610551565b9052565b90565b610b1e610b19610b2392610b07565b610147565b610551565b90565b90565b610b3d610b38610b4292610b26565b610147565b610551565b90565b90565b610b5c610b57610b6192610b45565b610147565b610551565b90565b90610b6e90610874565b9052565b52565b52565b610b8190610ac0565b90565b90610b8e90610b78565b5f5260205260405f2090565b634e487b7160e01b5f525f60045260245ffd5b610bb79051610ac0565b90565b90565b90610bd2610bcd610bd992610b78565b610bba565b8254610603565b9055565b610be79051610551565b90565b610bf49051610874565b90565b5190565b60200190565b5490565b600190818003010490565b5f5260205f2090565b634e487b7160e01b5f52602260045260245ffd5b9060016002830492168015610c4d575b6020831014610c4857565b610c19565b91607f1691610c3d565b5f5260205f2090565b1c90565b90610c77905f1990602003600802610c60565b8154169055565b1b90565b91906008610c9d910291610c975f1984610c7e565b92610c7e565b9181191691161790565b9190610cbd610cb8610cc593610586565b6105a2565b908354610c82565b9055565b5f90565b610cdf91610cd9610cc9565b91610ca7565b565b5b818110610ced575050565b80610cfa5f600193610ccd565b01610ce2565b90610d10905f1990600802610c60565b191690565b81610d1f91610d00565b906002021790565b905f91610d3e610d3682610c57565b928354610d15565b905555565b601f602091010490565b919290602082105f14610da657601f8411600114610d7657610d70929350610d15565b90555b5b565b5090610d9c610da1936001610d93610d8d85610c57565b92610d43565b82019101610ce1565b610d27565b610d73565b50610ddd8293610db7600194610c57565b610dd6610dc385610d43565b820192601f861680610de8575b50610d43565b0190610ce1565b600202179055610d74565b610df490888603610c64565b5f610dd0565b929091680100000000000000008211610e5a576020115f14610e4b57602081105f14610e2f57610e2991610d15565b90555b5b565b60019160ff1916610e3f84610c57565b55600202019055610e2c565b60019150600202019055610e2d565b61004c565b908154610e6b81610c2d565b90818311610e94575b818310610e82575b50505050565b610e8b93610d4d565b5f808080610e7c565b610ea083838387610dfa565b610e74565b5f610eaf91610e5f565b565b905f03610ec357610ec190610ea5565b565b610b9a565b5b818110610ed4575050565b80610ee15f600193610eb1565b01610ec9565b9091828110610ef6575b505050565b610f14610f0e610f08610f1f95610c05565b92610c05565b92610c10565b918201910190610ec8565b5f8080610ef1565b90680100000000000000008111610f505781610f45610f4e93610c01565b90828155610ee7565b565b61004c565b5190565b5190565b5190565b9190601f8111610f71575b505050565b610f7d610fa293610c57565b906020610f8984610d43565b83019310610faa575b610f9b90610d43565b0190610ce1565b5f8080610f6c565b9150610f9b81929050610f92565b90610fc281610f5d565b9060018060401b03821161108057610fe482610fde8554610c2d565b85610f61565b602090601f831160011461101857918091611007935f9261100c575b5050610d15565b90555b565b90915001515f80611000565b601f1983169161102785610c57565b925f5b8181106110685750916002939185600196941061104e575b5050500201905561100a565b61105e910151601f841690610d00565b90555f8080611042565b9193602060018192878701518155019501920161102a565b61004c565b9061108f91610fb8565b565b6110b66110b06110a084610f55565b936110ab8585610f27565b610bfb565b91610c10565b5f915b8383106110c65750505050565b60016020826110de6110d88495610f59565b86611085565b019201920191906110b9565b906110f491611091565b565b5190565b5490565b600190818003010490565b5f5260205f2090565b5b81811061111e575050565b8061112b5f600193610ccd565b01611113565b9091828110611140575b505050565b61115e611158611152611169956110fe565b926110fe565b92611109565b918201910190611112565b5f808061113b565b9068010000000000000000811161119a578161118f611198936110fa565b90828155611131565b565b61004c565b5190565b6111ad90516100ab565b90565b60200190565b90565b6111c28261119f565b9160018060401b038311611223576111ee6111e86001926111e38686611171565b6111b0565b92611109565b9204915f5b8381106112005750505050565b6001906020611216611211866111a3565b6111b6565b94019381840155016111f3565b61004c565b90611232916111b9565b565b906113916101a0600d611397946112585f82016112525f8801610bad565b90610bbd565b6112716001820161126b60208801610bdd565b906105a5565b61128a6002820161128460408801610bdd565b906105a5565b6112a36003820161129d60608801610bdd565b906105a5565b6112bc600482016112b660808801610bdd565b906105a5565b6112d5600582016112cf60a08801610bdd565b906105a5565b6112ee600682016112e860c08801610bea565b906108d8565b6113076007820161130160e08801610bdd565b906105a5565b6113216008820161131b6101008801610bdd565b906105a5565b61133b600982016113356101208801610bea565b906108d8565b611355600a820161134f6101408801610bdd565b906105a5565b61136f600b82016113696101608801610bdd565b906105a5565b611389600c82016113836101808801610bf7565b906110ea565b0192016110f6565b90611228565b565b906113a391611234565b565b90565b6113bc6113b76113c1926113a5565b610147565b610551565b90565b90565b6113db6113d66113e0926113c4565b610147565b610551565b90565b90565b6113fa6113f56113ff926113e3565b610147565b610551565b90565b90565b61141961141461141e92611402565b610147565b610551565b90565b90565b61143861143361143d92611421565b610147565b610551565b90565b90565b61145761145261145c92611440565b610147565b610551565b90565b90565b61147661147161147b9261145f565b610147565b610551565b90565b5f60329066038d7ea4c68000662386f26fc100006404a817c800620186a05f5f5f91600193429542975f6114b1906109a8565b6114ba90610a1e565b995f6114c5906109a8565b6114ce90610a7c565b9b6114d7610aa3565b9d8e915f8301906114e791610acc565b6114f090610add565b90602001906114fe91610af9565b61150790610b0a565b60408d019061151591610af9565b61151e90610554565b60608c019061152c91610af9565b61153590610b29565b60808b019061154391610af9565b61154c90610b48565b60a08a019061155a91610af9565b60c089019061156891610b64565b611571906109a8565b60e088019061157f91610af9565b611588906109a8565b61010087019061159791610af9565b6101208601906115a691610b64565b6101408501906115b591610af9565b6101608401906115c491610af9565b6101808301906115d391610b72565b6101a08201906115e291610b75565b60025f6115ee91610b84565b906115f891611399565b600160199066071afd498d000066470de4df8200006405d21dba00620249f06001805f91600193429542975f61162d906109a8565b61163690610a1e565b995f611641906109a8565b61164a90610a7c565b9b611653610aa3565b9d8e915f83019061166391610acc565b61166c906113a8565b906020019061167a91610af9565b611683906113c7565b60408d019061169191610af9565b61169a906113e6565b60608c01906116a891610af9565b6116b190611405565b60808b01906116bf91610af9565b6116c890611424565b60a08a01906116d691610af9565b60c08901906116e491610b64565b6116ed90610833565b60e08801906116fb91610af9565b611704906109a8565b61010087019061171391610af9565b61012086019061172291610b64565b61014085019061173191610af9565b61016084019061174091610af9565b61018083019061174f91610b72565b6101a082019061175e91610b75565b6002600161176b91610b84565b9061177591611399565b60045f90662386f26fc1000067016345785d8a0000640ba43b74006207a1205f5f5f91600193429542975f6117a9906109a8565b6117b290610a1e565b995f6117bd906109a8565b6117c690610a7c565b9b6117cf610aa3565b9d8e915f8301906117df91610acc565b6117e8906109a8565b90602001906117f691610af9565b6117ff90610554565b60408d019061180d91610af9565b611816906105c8565b60608c019061182491610af9565b61182d90611443565b60808b019061183b91610af9565b61184490611462565b60a08a019061185291610af9565b60c089019061186091610b64565b611869906109a8565b60e088019061187791610af9565b611880906109a8565b61010087019061188f91610af9565b61012086019061189e91610b64565b6101408501906118ad91610af9565b6101608401906118bc91610af9565b6101808301906118cb91610b72565b6101a08201906118da91610b75565b600260046118e791610b84565b906118f191611399565b565b5f1c90565b60ff1690565b61190a61190f916118f3565b6118f8565b90565b61191c90546118fe565b90565b611945915f61193a61194093611933610870565b5082610885565b016108b3565b611912565b90565b5f90565b611954611948565b50339056fe60806040526004361015610015575b3661211557005b61001f5f356102ce565b806301c39107146102c957806301ffc9a7146102c457806311f3c8ea146102bf5780631565bbf8146102ba5780631e812d60146102b5578063248a9ca3146102b05780632554dd0f146102ab5780632f2ff15d146102a65780632f940c70146102a15780633078d9981461029c57806336568abe146102975780633b14e814146102925780634cebed871461028d5780635c7460d614610288578063645c752c14610283578063817f826c1461027e57806387d86509146102795780638aebc0b01461027457806391d148541461026f578063a175b2d71461026a578063a217fddf14610265578063a30ffbaa14610260578063aa6757031461025b578063b3c618c114610256578063b9fbc9ec14610251578063bce5097c1461024c578063c264f1fe14610247578063c2d7944414610242578063c2f320781461023d578063d23be07514610238578063d23d1fef14610233578063d438c5211461022e578063d49e50df14610229578063d547741f14610224578063d8de40811461021f578063e1300c881461021a578063e239f3f914610215578063e28e965a14610210578063e2b2d4821461020b578063e907226d14610206578063efafaef914610201578063fa8a19df146101fc5763fe11a8d80361000e576120db565b612013565b611f70565b611eea565b611e6a565b611de0565b611d24565b611ce0565b611c39565b611b84565b611b4f565b611b04565b611a48565b611a13565b6119a8565b611914565b6118a3565b6116b7565b611561565b61151d565b6114d9565b61149a565b61121b565b6111b1565b610f66565b610f3c565b610f02565b610e54565b610df2565b610d8e565b610ced565b610cb8565b610bc8565b610b93565b610ac6565b610a36565b6109d4565b6108e2565b610847565b6107c6565b610778565b610627565b610580565b60e01c90565b60405190565b5f80fd5b5f80fd5b5f80fd5b600611156102f057565b5f80fd5b90503590610301826102e6565b565b9060208282031261031c57610319915f016102f4565b90565b6102de565b634e487b7160e01b5f52602160045260245ffd5b6006111561033f57565b610321565b9061034e82610335565b565b61035990610344565b90565b9061036690610350565b5f5260205260405f2090565b5f1c90565b60ff1690565b61038961038e91610372565b610377565b90565b61039b905461037d565b90565b90565b6103ad6103b291610372565b61039e565b90565b6103bf90546103a1565b90565b60ff1690565b6103d46103d991610372565b6103c2565b90565b6103e690546103c8565b90565b6103f490600261035c565b906104005f8301610391565b9161040d600182016103b5565b9161041a600283016103b5565b91610427600382016103b5565b91610434600483016103b5565b91610441600582016103b5565b9161044e600683016103dc565b9161045b600782016103b5565b91610468600883016103b5565b91610475600982016103dc565b9161048e600b610487600a85016103b5565b93016103b5565b90565b61049a90610344565b90565b6104a690610491565b9052565b90565b6104b6906104aa565b9052565b151590565b6104c8906104ba565b9052565b99979593919c9b9a98969492909c6101808b019d5f8c016104ec9161049d565b60208b016104f9916104ad565b60408a01610506916104ad565b60608901610513916104ad565b60808801610520916104ad565b60a0870161052d916104ad565b60c0860161053a916104bf565b60e08501610547916104ad565b6101008401610555916104ad565b6101208301610563916104bf565b6101408201610571916104ad565b6101600161057e916104ad565b565b346105c0576105bc61059b610596366004610303565b6103e9565b986105b39c9a9c9891989792979693969594956102d4565b9c8d9c8d6104cc565b0390f35b6102da565b63ffffffff60e01b1690565b6105da816105c5565b036105e157565b5f80fd5b905035906105f2826105d1565b565b9060208282031261060d5761060a915f016105e5565b90565b6102de565b9190610625905f602085019401906104bf565b565b346106575761065361064261063d3660046105f4565b61211d565b61064a6102d4565b91829182610612565b0390f35b6102da565b60018060a01b031690565b6106709061065c565b90565b61067c81610667565b0361068357565b5f80fd5b9050359061069482610673565b565b61069f816104aa565b036106a657565b5f80fd5b905035906106b782610696565b565b6080818303126106fa576106cf825f8301610687565b926106f76106e084602085016102f4565b936106ee81604086016106aa565b936060016106aa565b90565b6102de565b5190565b60209181520190565b90825f9392825e0152565b601f801991011690565b61074061074960209361074e93610737816106ff565b93848093610703565b9586910161070c565b610717565b0190565b916107759261076860408201935f8301906104bf565b6020818403910152610721565b90565b346107ad5761079461078b3660046106b9565b929190916127d8565b906107a96107a06102d4565b92839283610752565b0390f35b6102da565b5f9103126107bc57565b6102de565b5f0190565b346107f4576107d63660046107b2565b6107de612a7b565b6107e66102d4565b806107f0816107c1565b0390f35b6102da565b1c90565b61080d90600861081293026107f9565b61039e565b90565b9061082091546107fd565b90565b61082f60145f90610815565b90565b9190610845905f602085019401906104ad565b565b34610877576108573660046107b2565b610873610862610823565b61086a6102d4565b91829182610832565b0390f35b6102da565b90565b6108888161087c565b0361088f57565b5f80fd5b905035906108a08261087f565b565b906020828203126108bb576108b8915f01610893565b90565b6102de565b6108c99061087c565b9052565b91906108e0905f602085019401906108c0565b565b346109125761090e6108fd6108f83660046108a2565b612a9f565b6109056102d4565b918291826108cd565b0390f35b6102da565b906020828203126109305761092d915f01610687565b90565b6102de565b5190565b60209181520190565b60200190565b6109519061087c565b9052565b9061096281602093610948565b0190565b60200190565b9061098961098361097c84610935565b8093610939565b92610942565b905f5b8181106109995750505090565b9091926109b26109ac6001928651610955565b94610966565b910191909161098c565b6109d19160208201915f81840391015261096c565b90565b34610a0457610a006109ef6109ea366004610917565b612b73565b6109f76102d4565b918291826109bc565b0390f35b6102da565b9190604083820312610a315780610a25610a2e925f8601610893565b93602001610687565b90565b6102de565b34610a6557610a4f610a49366004610a09565b90612bbc565b610a576102d4565b80610a61816107c1565b0390f35b6102da565b610a739061065c565b90565b610a7f81610a6a565b03610a8657565b5f80fd5b90503590610a9782610a76565b565b9190604083820312610ac15780610ab5610abe925f86016106aa565b93602001610a8a565b90565b6102de565b34610af557610adf610ad9366004610a99565b90613177565b610ae76102d4565b80610af1816107c1565b0390f35b6102da565b60018060a01b031690565b610b15906008610b1a93026107f9565b610afa565b90565b90610b289154610b05565b90565b610b37600d5f90610b1d565b90565b90565b610b51610b4c610b569261065c565b610b3a565b61065c565b90565b610b6290610b3d565b90565b610b6e90610b59565b90565b610b7a90610b65565b9052565b9190610b91905f60208501940190610b71565b565b34610bc357610ba33660046107b2565b610bbf610bae610b2b565b610bb66102d4565b91829182610b7e565b0390f35b6102da565b34610bf757610be1610bdb366004610a09565b90613183565b610be96102d4565b80610bf3816107c1565b0390f35b6102da565b90602082820312610c1557610c12915f016106aa565b90565b6102de565b634e487b7160e01b5f52603260045260245ffd5b5490565b5f5260205f2090565b610c4481610c2e565b821015610c5e57610c56600191610c32565b910201905f90565b610c1a565b90565b610c76906008610c7b93026107f9565b610c63565b90565b90610c899154610c66565b90565b600a610c9781610c2e565b821015610cb457610cb191610cab91610c3b565b90610c7e565b90565b5f80fd5b34610ce857610ce4610cd3610cce366004610bfc565b610c8c565b610cdb6102d4565b918291826108cd565b0390f35b6102da565b34610d1b57610cfd3660046107b2565b610d05613236565b610d0d6102d4565b80610d17816107c1565b0390f35b6102da565b60018060a01b031690565b610d3b906008610d4093026107f9565b610d20565b90565b90610d4e9154610d2b565b90565b610d5d600e5f90610d43565b90565b610d6990610b59565b90565b610d7590610d60565b9052565b9190610d8c905f60208501940190610d6c565b565b34610dbe57610d9e3660046107b2565b610dba610da9610d51565b610db16102d4565b91829182610d79565b0390f35b6102da565b7f1824ff63dea2c4dd2c17a4d3777b1a4ade42c51cb823941f0b8218d984f033d690565b610def610dc3565b90565b34610e2257610e023660046107b2565b610e1e610e0d610de7565b610e156102d4565b918291826108cd565b0390f35b6102da565b9190604083820312610e4f5780610e43610e4c925f8601610687565b936020016106aa565b90565b6102de565b34610e8357610e6d610e67366004610e27565b90613579565b610e756102d4565b80610e7f816107c1565b0390f35b6102da565b9190604083820312610eb05780610ea4610ead925f8601610687565b936020016102f4565b90565b6102de565b90959492610f0094610eef610ef992610ee5608096610edb60a088019c5f8901906104ad565b60208701906104ad565b60408501906104ad565b60608301906104ad565b01906104bf565b565b34610f3757610f33610f1e610f18366004610e88565b90613596565b91610f2a9593956102d4565b95869586610eb5565b0390f35b6102da565b610f50610f4a366004610e27565b90613bbb565b610f586102d4565b80610f62816107c1565b0390f35b34610f9757610f93610f82610f7c366004610a09565b90613bc7565b610f8a6102d4565b91829182610612565b0390f35b6102da565b5f80fd5b5f80fd5b634e487b7160e01b5f52604160045260245ffd5b90610fc290610717565b810190811067ffffffffffffffff821117610fdc57604052565b610fa4565b90610ff4610fed6102d4565b9283610fb8565b565b67ffffffffffffffff811161101457611010602091610717565b0190565b610fa4565b90825f939282370152565b9092919261103961103482610ff6565b610fe1565b938185526020850190828401116110555761105392611019565b565b610fa0565b9080601f830112156110785781602061107593359101611024565b90565b610f9c565b67ffffffffffffffff81116110955760208091020190565b610fa4565b5f80fd5b909291926110b36110ae8261107d565b610fe1565b93818552602080860192028301928184116110f057915b8383106110d75750505050565b602080916110e584866102f4565b8152019201916110ca565b61109a565b9080601f83011215611113578160206111109335910161109e565b90565b610f9c565b60808183031261118a575f81013567ffffffffffffffff8111611185578261114191830161105a565b9261114f83602084016106aa565b9260408301359067ffffffffffffffff8211611180576111748161117d9386016110f5565b936060016106aa565b90565b6102e2565b6102e2565b6102de565b61119890610667565b9052565b91906111af905f6020850194019061118f565b565b6111dc6111cb6111c2366004611118565b9291909161481c565b6111d36102d4565b9182918261119c565b0390f35b90565b5f1b90565b6111fc6111f7611201926111e0565b6111e3565b61087c565b90565b61120d5f6111e8565b90565b611218611204565b90565b3461124b5761122b3660046107b2565b611247611236611210565b61123e6102d4565b918291826108cd565b0390f35b6102da565b61125990610b59565b90565b9061126690611250565b5f5260205260405f2090565b60018060a01b031690565b61128961128e91610372565b611272565b90565b61129b905461127d565b90565b634e487b7160e01b5f52602260045260245ffd5b90600160028304921680156112d2575b60208310146112cd57565b61129e565b91607f16916112c2565b60209181520190565b5f5260205f2090565b905f9291805490611308611301836112b2565b80946112dc565b916001811690815f1461135f5750600114611323575b505050565b61133091929394506112e5565b915f925b81841061134757505001905f808061131e565b60018160209295939554848601520191019290611334565b92949550505060ff19168252151560200201905f808061131e565b90611384916112ee565b90565b906113a76113a0926113976102d4565b9384809261137a565b0383610fb8565b565b6113b490600461125c565b906113c05f8301611291565b916113cd60018201611387565b916113da600283016103b5565b916113e7600382016103b5565b916113f4600483016103b5565b91611401600682016103dc565b9161141a6008611413600785016103b5565b93016103b5565b90565b939561147d60e096611473611491969c9b9961146961145e8a6114989e996114506114879a5f610100850194019061118f565b8c6020818403910152610721565b9e60408b01906104ad565b60608901906104ad565b60808701906104ad565b60a08501906104bf565b60c08301906104ad565b01906104ad565b565b346114d4576114d06114b56114b0366004610917565b6113a9565b946114c79896989491949392936102d4565b9889988961141d565b0390f35b6102da565b34611509576115056114f46114ef366004610917565b614833565b6114fc6102d4565b91829182610832565b0390f35b6102da565b61151a60125f90610815565b90565b3461154d5761152d3660046107b2565b61154961153861150e565b6115406102d4565b91829182610832565b0390f35b6102da565b61155e600b5f90610815565b90565b34611591576115713660046107b2565b61158d61157c611552565b6115846102d4565b91829182610832565b0390f35b6102da565b906115a090611250565b5f5260205260405f2090565b906115b690610350565b5f5260205260405f2090565b906115d16115d6926003611596565b6115ac565b906115e25f83016103b5565b916115ef600182016103b5565b916115fc600283016103b5565b91611609600382016103b5565b91611616600483016103b5565b91611623600582016103b5565b9161163c6007611635600685016103dc565b93016103b5565b90565b959391989796949290986101008701995f880161165b916104ad565b60208701611668916104ad565b60408601611675916104ad565b60608501611682916104ad565b6080840161168f916104ad565b60a0830161169c916104ad565b60c082016116a9916104bf565b60e0016116b5916104ad565b565b346116f2576116ee6116d36116cd366004610e88565b906115c2565b946116e59896989491949392936102d4565b9889988961163f565b0390f35b6102da565b6117009061087c565b90565b9061170d906116f7565b5f5260205260405f2090565b61172561172a91610372565b610c63565b90565b6117379054611719565b90565b60081c90565b61174c6117519161173a565b611272565b90565b61175e9054611740565b90565b61176c906005611703565b6117775f8201611291565b9161178460018301611291565b916117916002820161172d565b9161179e600383016103b5565b916117ab600482016103b5565b916117b8600583016103b5565b916117c560068201610391565b916117d260068301611754565b916117df600782016103b5565b916117f860096117f1600885016103dc565b9301611387565b90565b989694929099979593916101608a019a5f8b016118179161118f565b60208a016118249161118f565b60408901611831916108c0565b6060880161183e916104ad565b6080870161184b916104ad565b60a08601611858916104ad565b60c085016118659161049d565b60e084016118729161118f565b6101008301611880916104ad565b610120820161188e916104bf565b8082039061014001526118a091610721565b90565b346118e0576118dc6118be6118b93660046108a2565b611761565b976118d39b999b9791979692969593956102d4565b9b8c9b8c6117fb565b0390f35b6102da565b7f1597bc5e34ff090612f53164e4e642d2ab4fc78bffe19ed1b602a0d12559561a90565b6119116118e5565b90565b34611944576119243660046107b2565b61194061192f611909565b6119376102d4565b918291826108cd565b0390f35b6102da565b919461199560a09498979561198b61198061199f956119a69a61197360c08a01925f8b019061118f565b88820360208a0152610721565b9a60408701906104ad565b60608501906104ad565b60808301906104ad565b01906104bf565b565b346119df576119db6119c36119be366004610917565b614877565b926119d29694969291926102d4565b96879687611949565b0390f35b6102da565b906119ee90611250565b5f5260205260405f2090565b611a1090611a0b6008915f926119e4565b610815565b90565b34611a4357611a3f611a2e611a29366004610917565b6119fa565b611a366102d4565b91829182610832565b0390f35b6102da565b34611a7657611a60611a5b366004610bfc565b61500a565b611a686102d4565b80611a72816107c1565b0390f35b6102da565b60e081830312611aff57611a91825f8301610687565b92611a9f8360208401610687565b92611aad8160408501610893565b92611abb82606083016106aa565b92611ac983608084016106aa565b9260a08301359067ffffffffffffffff8211611afa57611aee81611af793860161105a565b9360c0016102f4565b90565b6102e2565b6102de565b34611b3b57611b37611b26611b1a366004611a7b565b95949094939193615c49565b611b2e6102d4565b91829182610612565b0390f35b6102da565b611b4c60115f90610815565b90565b34611b7f57611b5f3660046107b2565b611b7b611b6a611b40565b611b726102d4565b91829182610832565b0390f35b6102da565b34611bb357611b9d611b97366004610a09565b90615c8d565b611ba56102d4565b80611baf816107c1565b0390f35b6102da565b60041115611bc257565b610321565b90611bd182611bb8565b565b611bdc90611bc7565b90565b611be890611bd3565b9052565b90959492611c3794611c26611c3092611c1c608096611c1260a088019c5f8901906104ad565b60208701906104ad565b60408501906104ad565b60608301906104ad565b0190611bdf565b565b34611c6d57611c493660046107b2565b611c69611c54615c9d565b91611c609593956102d4565b95869586611bec565b0390f35b6102da565b60018060a01b031690565b611c8d906008611c9293026107f9565b611c72565b90565b90611ca09154611c7d565b90565b611caf600c5f90611c95565b90565b611cbb90610b59565b90565b611cc790611cb2565b9052565b9190611cde905f60208501940190611cbe565b565b34611d1057611cf03660046107b2565b611d0c611cfb611ca3565b611d036102d4565b91829182611ccb565b0390f35b6102da565b611d2160105f90610815565b90565b34611d5457611d343660046107b2565b611d50611d3f611d15565b611d476102d4565b91829182610832565b0390f35b6102da565b5490565b5f5260205f2090565b611d6f81611d59565b821015611d8957611d81600191611d5d565b910201905f90565b610c1a565b611d9e906008611da393026107f9565b611272565b90565b90611db19154611d8e565b90565b6009611dbf81611d59565b821015611ddc57611dd991611dd391611d66565b90611da6565b90565b5f80fd5b34611e1057611e0c611dfb611df6366004610bfc565b611db4565b611e036102d4565b9182918261119c565b0390f35b6102da565b90611e1f90611250565b5f5260205260405f2090565b611e3b906008611e4093026107f9565b6103c2565b90565b90611e4e9154611e2b565b90565b611e6790611e626007915f92611e15565b611e43565b90565b34611e9a57611e96611e85611e80366004610917565b611e51565b611e8d6102d4565b91829182610612565b0390f35b6102da565b90611ea990611250565b5f5260205260405f2090565b611ec0906006611e9f565b611ec981610c2e565b821015611ee657611ee391611edd91610c3b565b90610c7e565b90565b5f80fd5b34611f1b57611f17611f06611f00366004610e27565b90611eb5565b611f0e6102d4565b918291826108cd565b0390f35b6102da565b60ff1690565b611f36906008611f3b93026107f9565b611f20565b90565b90611f499154611f26565b90565b611f5860135f90611f3e565b90565b9190611f6e905f60208501940190611bdf565b565b34611fa057611f803660046107b2565b611f9c611f8b611f4c565b611f936102d4565b91829182611f5b565b0390f35b6102da565b60018060a01b031690565b611fc0906008611fc593026107f9565b611fa5565b90565b90611fd39154611fb0565b90565b611fe2600f5f90611fc8565b90565b611fee90610b59565b90565b611ffa90611fe5565b9052565b9190612011905f60208501940190611ff1565b565b34612043576120233660046107b2565b61203f61202e611fd6565b6120366102d4565b91829182611ffe565b0390f35b6102da565b612051816104ba565b0361205857565b5f80fd5b9050359061206982612048565b565b60e0818303126120d657612081825f83016102f4565b9261208f83602084016106aa565b9261209d81604085016106aa565b926120ab82606083016106aa565b926120d36120bc84608085016106aa565b936120ca8160a0860161205c565b9360c0016106aa565b90565b6102de565b34612110576120fa6120ee36600461206b565b9594909493919361607c565b6121026102d4565b8061210c816107c1565b0390f35b6102da565b5f80fd5b5f90565b612125612119565b508061214061213a637965db0b60e01b6105c5565b916105c5565b1490811561214d575b5090565b612157915061608d565b5f612149565b606090565b61216e61217391610372565b611f20565b90565b6121809054612162565b90565b9061219561219083610ff6565b610fe1565b918252565b5f7f5061796d6173746572206e6f7420616374697665000000000000000000000000910152565b6121cb6014612183565b906121d86020830161219a565b565b6121e26121c1565b90565b5f7f55736572206e6f7420656c696769626c65000000000000000000000000000000910152565b6122166011612183565b90612223602083016121e5565b565b61222d61220c565b90565b634e487b7160e01b5f52601160045260245ffd5b612253612259919392936104aa565b926104aa565b916122658382026104aa565b92818404149015171561227457565b612230565b90612283906104aa565b9052565b90612291906104ba565b9052565b6122a0610100610fe1565b90565b9061236a61236160076122b4612295565b946122cb6122c35f83016103b5565b5f8801612279565b6122e36122da600183016103b5565b60208801612279565b6122fb6122f2600283016103b5565b60408801612279565b61231361230a600383016103b5565b60608801612279565b61232b612322600483016103b5565b60808801612279565b61234361233a600583016103b5565b60a08801612279565b61235b612352600683016103dc565b60c08801612287565b016103b5565b60e08401612279565b565b612375906122a3565b90565b9061238290610344565b9052565b5490565b67ffffffffffffffff81116123a25760208091020190565b610fa4565b906123b96123b48361238a565b610fe1565b918252565b5f5260205f2090565b6123d090611387565b90565b906123dd82612386565b6123e6816123a7565b926123f460208501916123be565b5f915b8383106124045750505050565b600160208192612413856123c7565b8152019201920191906123f7565b52565b60209181520190565b61243690610667565b9052565b906124478160209361242d565b0190565b612455905461127d565b90565b60010190565b9061247b61247561246e84611d59565b8093612424565b92611d5d565b905f5b81811061248b5750505090565b9091926124ab6124a56001926124a08761244b565b61243a565b94612458565b910191909161247e565b906124bf9161245e565b90565b906124e26124db926124d26102d4565b938480926124b5565b0383610fb8565b565b52565b6124f26101c0610fe1565b90565b90612652612648600d6125066124e7565b9461251d6125155f8301610391565b5f8801612378565b61253561252c600183016103b5565b60208801612279565b61254d612544600283016103b5565b60408801612279565b61256561255c600383016103b5565b60608801612279565b61257d612574600483016103b5565b60808801612279565b61259561258c600583016103b5565b60a08801612279565b6125ad6125a4600683016103dc565b60c08801612287565b6125c56125bc600783016103b5565b60e08801612279565b6125de6125d4600883016103b5565b6101008801612279565b6125f76125ed600983016103dc565b6101208801612287565b612610612606600a83016103b5565b6101408801612279565b61262961261f600b83016103b5565b6101608801612279565b612642612638600c83016123d3565b6101808801612421565b016124c2565b6101a084016124e4565b565b61265d906124f5565b90565b90565b61267761267261267c92612660565b610b3a565b6104aa565b90565b634e487b7160e01b5f52601260045260245ffd5b61269f6126a5916104aa565b916104aa565b9081156126b0570490565b61267f565b6126bf90516104aa565b90565b6126d66126d16126db926111e0565b610b3a565b6104aa565b90565b6126ed6126f3919392936104aa565b926104aa565b82018092116126fe57565b612230565b5f7f4461696c79206c696d6974206578636565646564000000000000000000000000910152565b6127346014612183565b9061274160208301612703565b565b61274b61272a565b90565b61276261275d612767926111e0565b610b3a565b61065c565b90565b6127739061274e565b90565b5f7f4e6f2066756e64696e6720617661696c61626c65000000000000000000000000910152565b6127a76014612183565b906127b460208301612776565b565b6127be61279d565b90565b6127ca5f612183565b90565b6127d56127c1565b90565b929190916127e4612119565b506127ed61215d565b506127f86013612176565b61280a6128045f611bc7565b91611bc7565b036129955761282661282085858590859261611a565b156104ba565b6129845761283391612244565b9061285261284d61284660038690611596565b83906115ac565b61236c565b6128666128616002849061035c565b612654565b9061287d4261287762015180612663565b90612693565b61289a61289461288f604085016126b5565b6104aa565b916104aa565b115f1461296657506128d36128cd6128c860406128c16128b95f6126c2565b5b88906126de565b94016126b5565b6104aa565b916104aa565b11612956576128e3908290616481565b6128fd6128f76128f25f61276a565b610667565b91610667565b149182612926575b5050612919576001906129166127cd565b90565b5f906129236127b6565b90565b61294e91925061294261293d6129489260086119e4565b6103b5565b926104aa565b916104aa565b105f80612905565b5050505f90612963612743565b90565b6128cd6128c860406128c161297f5f6128d396016126b5565b6128ba565b505050505f90612992612225565b90565b505050505f906129a36121da565b90565b6129b66129b1610dc3565b61664a565b6129be612a28565b565b906129cc60ff916111e3565b9181191691161790565b6129df90611bc7565b90565b90565b906129fa6129f5612a01926129d6565b6129e2565b82546129c0565b9055565b916020612a26929493612a1f60408201965f830190611bdf565b0190611bdf565b565b612a326013612176565b612a3e600160136129e5565b60017f1c6890f99b12ccfd5936128dbf7bfa56c41b072cad5d993a1ae985a98a9c2fdb91612a76612a6d6102d4565b92839283612a05565b0390a1565b612a836129a6565b565b5f90565b90612a93906116f7565b5f5260205260405f2090565b6001612ab7612abd92612ab0612a85565b505f612a89565b0161172d565b90565b606090565b60209181520190565b612ad89054611719565b90565b60010190565b90612afe612af8612af184610c2e565b8093612ac5565b92610c32565b905f5b818110612b0e5750505090565b909192612b2e612b28600192612b2387612ace565b610955565b94612adb565b9101919091612b01565b90612b4291612ae1565b90565b90612b65612b5e92612b556102d4565b93848092612b38565b0383610fb8565b565b612b7090612b45565b90565b612b8a612b8f91612b82612ac0565b506006611e9f565b612b67565b90565b90612bad91612ba8612ba382612a9f565b61664a565b612baf565b565b90612bb99161665e565b50565b90612bc691612b92565b565b90612be291612bdd612bd8611204565b61664a565b612fbe565b565b612bed90610b59565b90565b5f7f496e76616c696420726563697069656e74000000000000000000000000000000910152565b612c246011602092610703565b612c2d81612bf0565b0190565b612c469060208101905f818303910152612c17565b90565b15612c5057565b612c586102d4565b62461bcd60e51b815280612c6e60048201612c31565b0390fd5b612c7b90610b59565b90565b5f7f496e73756666696369656e742062616c616e6365000000000000000000000000910152565b612cb26014602092610703565b612cbb81612c7e565b0190565b612cd49060208101905f818303910152612ca5565b90565b15612cde57565b612ce66102d4565b62461bcd60e51b815280612cfc60048201612cbf565b0390fd5b5f7f4578636565647320656d657267656e6379207265736572766500000000000000910152565b612d346019602092610703565b612d3d81612d00565b0190565b612d569060208101905f818303910152612d27565b90565b15612d6057565b612d686102d4565b62461bcd60e51b815280612d7e60048201612d41565b0390fd5b905090565b612d925f8092612d82565b0190565b612d9f90612d87565b90565b67ffffffffffffffff8111612dc057612dbc602091610717565b0190565b610fa4565b90612dd7612dd283612da2565b610fe1565b918252565b606090565b3d5f14612dfc57612df13d612dc5565b903d5f602084013e5b565b612e04612ddc565b90612dfa565b5f7f5769746864726177616c206661696c6564000000000000000000000000000000910152565b612e3e6011602092610703565b612e4781612e0a565b0190565b612e609060208101905f818303910152612e31565b90565b15612e6a57565b612e726102d4565b62461bcd60e51b815280612e8860048201612e4b565b0390fd5b612e98612e9d91610372565b611c72565b90565b612eaa9054612e8c565b90565b90565b612ebc612ec1916104aa565b612ead565b9052565b60601b90565b612ed490612ec5565b90565b612ee090612ecb565b90565b612eef612ef491610a6a565b612ed7565b9052565b602081612f0b612f139360149695612eb0565b018092612ee3565b0190565b60200190565b5190565b5f80fd5b60e01b90565b5f910312612f3557565b6102de565b5f7f454d455247454e43595f5749544844524157414c000000000000000000000000910152565b612f6e6014602092610703565b612f7781612f3a565b0190565b916040612fac929493612fa5612f9a606083018381035f850152612f61565b96602083019061118f565b01906108c0565b565b612fb66102d4565b3d5f823e3d90fd5b90612fe481612fdd612fd7612fd25f61276a565b610667565b91612be4565b1415612c49565b61300a612ff030612c72565b31613003612ffd856104aa565b916104aa565b1015612cd7565b6130308261302961302361301e60126103b5565b6104aa565b916104aa565b1115612d59565b6130645f8061303e84612be4565b856130476102d4565b908161305281612d96565b03925af161305e612de1565b50612e63565b613076613071600c612ea0565b611cb2565b90635260590a9033906130a98561309a61308e6102d4565b93849260208401612ef8565b60208201810382520382610fb8565b6130bb6130b582612f1d565b91612f17565b2092803b15613172576130e15f80946130ec6130d56102d4565b97889687958694612f25565b845260048401612f7b565b03925af1801561316d57613141575b503361313c61312a7f23d6711a1d031134a36921253c75aa59e967d38e369ac625992824315e204f2092611250565b926131336102d4565b91829182610832565b0390a2565b613160905f3d8111613166575b6131588183610fb8565b810190612f2b565b5f6130fb565b503d61314e565b612fae565b612f21565b9061318191612bc8565b565b908061319e613198613193616709565b610667565b91610667565b036131af576131ac91616716565b50565b5f63334bd91960e11b8152806131c7600482016107c1565b0390fd5b6131db6131d6610dc3565b61664a565b6131e36131e5565b565b6131ef6013612176565b6131fa5f60136129e5565b5f7f1c6890f99b12ccfd5936128dbf7bfa56c41b072cad5d993a1ae985a98a9c2fdb916132316132286102d4565b92839283612a05565b0390a1565b61323e6131cb565b565b9061325a91613255613250610dc3565b61664a565b6133e9565b565b5f7f496e76616c696420757365720000000000000000000000000000000000000000910152565b613290600c602092610703565b6132998161325c565b0190565b6132b29060208101905f818303910152613283565b90565b156132bc57565b6132c46102d4565b62461bcd60e51b8152806132da6004820161329d565b0390fd5b6132e7906104ba565b90565b90565b906133026132fd613309926132de565b6132ea565b82546129c0565b9055565b90565b9061331c5f19916111e3565b9181191691161790565b61333a61333561333f926104aa565b610b3a565b6104aa565b90565b90565b9061335a61335561336192613326565b613342565b8254613310565b9055565b61337181602093612eb0565b0190565b5f7f5052454d49554d5f555345525f41444445440000000000000000000000000000910152565b6133a96012602092610703565b6133b281613375565b0190565b9160406133e79294936133e06133d5606083018381035f85015261339c565b96602083019061118f565b01906108c0565b565b90613419906134138361340c6134066134015f61276a565b610667565b91610667565b14156132b5565b426126de565b90613430600161342b60078490611e15565b6132ed565b61346a61345261344d61344560038590611596565b6004906115ac565b61330d565b6134606001600683016132ed565b6007849101613345565b61347c613477600c612ea0565b611cb2565b635260590a8261349d6134ac866134916102d4565b92839160208301613365565b60208201810382520382610fb8565b6134be6134b882612f1d565b91612f17565b2092803b15613574576134e45f80946134ef6134d86102d4565b97889687958694612f25565b8452600484016133b6565b03925af1801561356f57613543575b5061353e61352c7f3c521a01e5b8cc0c480919ef2e8031de8d54a2bb0371d2967be98a07aeb8136592611250565b926135356102d4565b91829182610832565b0390a2565b613562905f3d8111613568575b61355a8183610fb8565b810190612f2b565b5f6134fe565b503d613550565b612fae565b612f21565b9061358391613240565b565b5f90565b61359390516104ba565b90565b6135ee6135e66135e16135da6135f3946135ae613585565b506135b7613585565b506135c0613585565b506135c9613585565b506135d2612119565b506003611596565b85906115ac565b61236c565b92600261035c565b612654565b906135ff5f82016126b5565b61360b602083016126b5565b9361363060c06136296060613622604089016126b5565b97016126b5565b9401613589565b919493929190565b9061364a916136456167e3565b6139b8565b613652616867565b565b5f7f496e76616c696420706f6f6c2061646472657373000000000000000000000000910152565b6136886014602092610703565b61369181613654565b0190565b6136aa9060208101905f81830391015261367b565b90565b156136b457565b6136bc6102d4565b62461bcd60e51b8152806136d260048201613695565b0390fd5b5f7f496e76616c696420616d6f756e74000000000000000000000000000000000000910152565b61370a600e602092610703565b613713816136d6565b0190565b61372c9060208101905f8183039101526136fd565b90565b1561373657565b61373e6102d4565b62461bcd60e51b81528061375460048201613717565b0390fd5b5f7f496e73756666696369656e74207061796d656e74000000000000000000000000910152565b61378c6014602092610703565b61379581613758565b0190565b6137ae9060208101905f81830391015261377f565b90565b156137b857565b6137c06102d4565b62461bcd60e51b8152806137d660048201613799565b0390fd5b90565b5f7f506f6f6c206e6f74206163746976650000000000000000000000000000000000910152565b613811600f602092610703565b61381a816137dd565b0190565b6138339060208101905f818303910152613804565b90565b1561383d57565b6138456102d4565b62461bcd60e51b81528061385b6004820161381e565b0390fd5b5f7f4e6f7420617574686f72697a6564000000000000000000000000000000000000910152565b613893600e602092610703565b61389c8161385f565b0190565b6138b59060208101905f818303910152613886565b90565b156138bf57565b6138c76102d4565b62461bcd60e51b8152806138dd600482016138a0565b0390fd5b6138ea90612ecb565b90565b6138f96138fe91610667565b6138e1565b9052565b60148161391561391d93602096956138ed565b018092612eb0565b0190565b5f7f53504f4e534f525f504f4f4c5f46554e44454400000000000000000000000000910152565b6139556013602092610703565b61395e81613921565b0190565b91604061399392949361398c613981606083018381035f850152613948565b96602083019061118f565b01906108c0565b565b9160206139b69294936139af60408201965f8301906104ad565b019061118f565b565b6139dd816139d66139d06139cb5f61276a565b610667565b91610667565b14156136ad565b6139f9826139f36139ed5f6126c2565b916104aa565b1161372f565b613a1634613a0f613a09856104aa565b916104aa565b10156137b1565b613a8c613a2d613a286004849061125c565b6137da565b613a41613a3c600683016103dc565b613836565b613a4c5f8201611291565b613a5e613a5833610667565b91610667565b148015613b9e575b613a6f906138b8565b613a86600285920191613a81836103b5565b6126de565b90613345565b613a9e613a99600c612ea0565b611cb2565b635260590a3383613ad08691613ac1613ab56102d4565b93849260208401613902565b60208201810382520382610fb8565b613ae2613adc82612f1d565b91612f17565b2092803b15613b9957613b085f8094613b13613afc6102d4565b97889687958694612f25565b845260048401613962565b03925af18015613b9457613b68575b5033613b4e7ff34112f972ad506642d0a25206162e3184fbd4449642ed9dab3ae0a963915ffb92611250565b92613b63613b5a6102d4565b92839283613995565b0390a2565b613b87905f3d8111613b8d575b613b7f8183610fb8565b810190612f2b565b5f613b22565b503d613b75565b612fae565b612f21565b50613a6f613bb4613bad6118e5565b3390613bc7565b9050613a66565b90613bc591613638565b565b613bed915f613be2613be893613bdb612119565b5082612a89565b01611e15565b6103dc565b90565b5f90565b90613c0994939291613c046167e3565b6144be565b90613c12616867565b565b90565b5f7f456d70747920706f6f6c206e616d650000000000000000000000000000000000910152565b613c4b600f602092610703565b613c5481613c17565b0190565b613c6d9060208101905f818303910152613c3e565b90565b15613c7757565b613c7f6102d4565b62461bcd60e51b815280613c9560048201613c58565b0390fd5b5f7f496e76616c696420696e697469616c2066756e64696e67000000000000000000910152565b613ccd6017602092610703565b613cd681613c99565b0190565b613cef9060208101905f818303910152613cc0565b90565b15613cf957565b613d016102d4565b62461bcd60e51b815280613d1760048201613cda565b0390fd5b5f7f496e73756666696369656e742066756e64696e67000000000000000000000000910152565b613d4f6014602092610703565b613d5881613d1b565b0190565b613d719060208101905f818303910152613d42565b90565b15613d7b57565b613d836102d4565b62461bcd60e51b815280613d9960048201613d5c565b0390fd5b5190565b5f7f4e6f20737570706f727465642074797065730000000000000000000000000000910152565b613dd56012602092610703565b613dde81613da1565b0190565b613df79060208101905f818303910152613dc8565b90565b15613e0157565b613e096102d4565b62461bcd60e51b815280613e1f60048201613de2565b0390fd5b905090565b613e4d613e4492602092613e3b816106ff565b94858093613e23565b9384910161070c565b0190565b60209392613e6e613e67601493613e7695613e28565b80926138ed565b018092612eb0565b0190565b613e86613e8b91610372565b613326565b90565b613ea2613e9d613ea7926104aa565b610b3a565b61065c565b90565b90613ebb60018060a01b03916111e3565b9181191691161790565b90565b90613edd613ed8613ee492611250565b613ec5565b8254613eaa565b9055565b601f602091010490565b1b90565b91906008613f11910291613f0b5f1984613ef2565b92613ef2565b9181191691161790565b9190613f31613f2c613f3993613326565b613342565b908354613ef6565b9055565b613f4f91613f49613585565b91613f1b565b565b5b818110613f5d575050565b80613f6a5f600193613f3d565b01613f52565b9190601f8111613f80575b505050565b613f8c613fb1936112e5565b906020613f9884613ee8565b83019310613fb9575b613faa90613ee8565b0190613f51565b5f8080613f7b565b9150613faa81929050613fa1565b90613fd7905f19906008026107f9565b191690565b81613fe691613fc7565b906002021790565b90613ff8816106ff565b9067ffffffffffffffff82116140b85761401c8261401685546112b2565b85613f70565b602090601f83116001146140505791809161403f935f92614044575b5050613fdc565b90555b565b90915001515f80614038565b601f1983169161405f856112e5565b925f5b8181106140a057509160029391856001969410614086575b50505002019055614042565b614096910151601f841690613fc7565b90555f808061407a565b91936020600181928787015181550195019201614062565b610fa4565b906140c791613fee565b565b5490565b60209060018203010490565b5f5260205f2090565b5b8181106140ee575050565b806140fb5f600193613f3d565b016140e3565b90614114905f19906020036008026107f9565b8154169055565b91909182821061412b575b505050565b6001602061413b614163956140cd565b61414d614147866140cd565b946140d9565b93840193019306025f811161416b575b506140e2565b5f8080614126565b6141789060018303614101565b5f61415d565b906801000000000000000081116141a7578161419c6141a5936140c9565b9082815561411b565b565b610fa4565b6141b69051610344565b90565b60200190565b6141cf9060086141d493026107f9565b610377565b90565b919060086141f29102916141ec60ff84613ef2565b92613ef2565b9181191691161790565b90565b9061420981613d9d565b9067ffffffffffffffff82116142ec5761422f6142359161422a848661417e565b6141b9565b926140d9565b60208204915f5b8381106142a457506020830290035f8111614258575b50505050565b925f935f5b8181106142725750505001555f808080614252565b909194602061429860019261428e6142898a6141ac565b6141fc565b90858502906141d7565b9601910191909161425d565b5f5f5b602081106142be575090600191818501550161423c565b959060206142e36001926142d96142d4866141ac565b6141fc565b908a8502906141d7565b920196016142a7565b610fa4565b906142fb916141ff565b565b600161430991016104aa565b90565b9061431682613d9d565b811015614327576020809102010190565b610c1a565b9061433690610350565b5f5260205260405f2090565b90565b5f5260205f2090565b5490565b61435b8161434e565b8210156143755761436d600191614345565b910201905f90565b610c1a565b9190600861439a91029161439460018060a01b0384613ef2565b92613ef2565b9181191691161790565b91906143ba6143b56143c293611250565b613ec5565b90835461437a565b9055565b90815491680100000000000000008310156143f657826143ee9160016143f495018155614352565b906143a4565b565b610fa4565b6020939260148261441261441994614420966138ed565b0190613e28565b8092612eb0565b0190565b5f7f53504f4e534f525f504f4f4c5f43524541544544000000000000000000000000910152565b6144586014602092610703565b61446181614424565b0190565b91604061449692949361448f614484606083018381035f85015261444b565b96602083019061118f565b01906108c0565b565b929160206144b46144bc9360408701908782035f890152610721565b9401906104ad565b565b94909394506144ef6144d76144d286613c14565b612f1d565b6144e96144e35f6126c2565b916104aa565b11613c70565b61450b826145056144ff5f6126c2565b916104aa565b11613cf2565b6145283461452161451b856104aa565b916104aa565b1015613d74565b61454c61453484613d9d565b6145466145405f6126c2565b916104aa565b11613dfa565b6145a461459f61459a866145823391614573426145676102d4565b94859360208501613e51565b60208201810382520382610fb8565b61459461458e82612f1d565b91612f17565b20613e7a565b613e8e565b610b59565b6145b86145b36004839061125c565b6137da565b956145c5335f8901613ec8565b6145d286600189016140bd565b6145df8460028901613345565b6145f46145eb5f6126c2565b60038901613345565b6146096146005f6126c2565b60048901613345565b61461685600589016142f1565b6146246001600689016132ed565b6146314260078901613345565b8061464461463e5f6126c2565b916104aa565b115f1461480a5761465861466291426126de565b5b60088801613345565b6146758361466f86613d9d565b90612693565b9261467f5f6126c2565b5b8061469b61469561469089613d9d565b6104aa565b916104aa565b10156146d8576146d3906146ce866146c9600a8c016146c36146be8c879061430c565b6141ac565b9061432c565b613345565b6142fd565b614680565b50935093915093506146f46146ed6009614342565b84906143c6565b614706614701600c612ea0565b611cb2565b635260590a3385614739859161472a8861471e6102d4565b948593602085016143fb565b60208201810382520382610fb8565b61474b61474582612f1d565b91612f17565b2092803b15614805576147715f809461477c6147656102d4565b97889687958694612f25565b845260048401614465565b03925af18015614800576147d4575b503390916147b97f7e5433d7820e8ca6acb94bbaa8485c3bbd52bd2d74fc2b0f9b636a1fad2b6dc492611250565b926147ce6147c56102d4565b92839283614498565b0390a290565b6147f3905f3d81116147f9575b6147eb8183610fb8565b810190612f2b565b5f61478b565b503d6147e1565b612fae565b612f21565b506146626148175f6126c2565b614659565b9061483093929161482b613bf0565b613bf4565b90565b61484a61484f91614842613585565b5060086119e4565b6103b5565b90565b614861614867919392936104aa565b926104aa565b820391821161487257565b612230565b6148bb6148c091614886613bf0565b5061488f61215d565b50614898613585565b506148a1613585565b506148aa613585565b506148b3612119565b50600461125c565b6137da565b906148cc5f8301611291565b9060018301926148de600282016103b5565b926148eb600383016103b5565b9261492361491c6006614915614903600288016103b5565b61490f600389016103b5565b90614852565b95016103dc565b92966123c7565b9493929190565b61493b906149366167e3565b614cd0565b614943616867565b565b5f7f496e76616c69642067617320616d6f756e740000000000000000000000000000910152565b6149796012602092610703565b61498281614945565b0190565b61499b9060208101905f81830391015261496c565b90565b156149a557565b6149ad6102d4565b62461bcd60e51b8152806149c360048201614986565b0390fd5b6149d36149d891610372565b610d20565b90565b6149e590546149c7565b90565b905051906149f582612048565b565b90602082820312614a1057614a0d915f016149e8565b90565b6102de565b5f7f55736572206e6f74207265676973746572656400000000000000000000000000910152565b614a496013602092610703565b614a5281614a15565b0190565b614a6b9060208101905f818303910152614a3c565b90565b15614a7557565b614a7d6102d4565b62461bcd60e51b815280614a9360048201614a56565b0390fd5b614aa3614aa891610372565b611fa5565b90565b614ab59054614a97565b90565b90505190614ac582610696565b565b90602082820312614ae057614add915f01614ab8565b90565b6102de565b5f7f496e73756666696369656e7420746f6b656e7300000000000000000000000000910152565b614b196013602092610703565b614b2281614ae5565b0190565b614b3b9060208101905f818303910152614b0c565b90565b15614b4557565b614b4d6102d4565b62461bcd60e51b815280614b6360048201614b26565b0390fd5b604090614b90614b979496959396614b8660608401985f85019061118f565b602083019061118f565b01906104ad565b565b5f7f546f6b656e207472616e73666572206661696c65640000000000000000000000910152565b614bcd6015602092610703565b614bd681614b99565b0190565b614bef9060208101905f818303910152614bc0565b90565b15614bf957565b614c016102d4565b62461bcd60e51b815280614c1760048201614bda565b0390fd5b602081614c2d614c3593839695612eb0565b018092612eb0565b0190565b5f7f4741535f435245444954535f5055524348415345440000000000000000000000910152565b614c6d6015602092610703565b614c7681614c39565b0190565b916040614cab929493614ca4614c99606083018381035f850152614c60565b96602083019061118f565b01906108c0565b565b916020614cce929493614cc760408201965f8301906104ad565b01906104ad565b565b614cec81614ce6614ce05f6126c2565b916104aa565b1161499e565b614d2d6020614d03614cfe600e6149db565b610d60565b63c3c5a54790614d223392614d166102d4565b95869485938493612f25565b83526004830161119c565b03915afa801561500557614d48915f91614fd7575b50614a6e565b614d5c81614d5660146103b5565b90612244565b90614d9e6020614d74614d6f600f614aab565b611fe5565b6370a0823190614d933392614d876102d4565b95869485938493612f25565b83526004830161119c565b03915afa8015614fd257614dcd915f91614fa4575b50614dc6614dc0856104aa565b916104aa565b1015614b3e565b614ddf614dda600f614aab565b611fe5565b60206323b872dd913390614e0f5f614df630612c72565b95614e1a89614e036102d4565b98899788968795612f25565b855260048501614b67565b03925af18015614f9f57614e35915f91614f71575b50614bf2565b614e5d81614e57614e48600833906119e4565b91614e52836103b5565b6126de565b90613345565b614e6f614e6a600c612ea0565b611cb2565b635260590a3383614ea18691614e92614e866102d4565b93849260208401614c1b565b60208201810382520382610fb8565b614eb3614ead82612f1d565b91612f17565b2092803b15614f6c57614ed95f8094614ee4614ecd6102d4565b97889687958694612f25565b845260048401614c7a565b03925af18015614f6757614f3b575b50339091614f217ffb82fc1c5adf84899709e87563b69dd5f4ac33320f1c60dbca744bec717eb90f92611250565b92614f36614f2d6102d4565b92839283614cad565b0390a2565b614f5a905f3d8111614f60575b614f528183610fb8565b810190612f2b565b5f614ef3565b503d614f48565b612fae565b612f21565b614f92915060203d8111614f98575b614f8a8183610fb8565b8101906149f7565b5f614e2f565b503d614f80565b612fae565b614fc5915060203d8111614fcb575b614fbd8183610fb8565b810190614ac7565b5f614db3565b503d614fb3565b612fae565b614ff8915060203d8111614ffe575b614ff08183610fb8565b8101906149f7565b5f614d42565b503d614fe6565b612fae565b6150139061492a565b565b906150359796959493929161503061502b6118e5565b61664a565b615038565b90565b906150509796959493929161504b6167e3565b6156ec565b90615059616867565b565b5f7f496e76616c69642077616c6c6574000000000000000000000000000000000000910152565b61508f600e602092610703565b6150988161505b565b0190565b6150b19060208101905f818303910152615082565b90565b156150bb57565b6150c36102d4565b62461bcd60e51b8152806150d96004820161509c565b0390fd5b5f7f496e76616c69642075736572206f702068617368000000000000000000000000910152565b6151116014602092610703565b61511a816150dd565b0190565b6151339060208101905f818303910152615104565b90565b1561513d57565b6151456102d4565b62461bcd60e51b81528061515b6004820161511e565b0390fd5b5f7f496e76616c69642067617320706172616d657465727300000000000000000000910152565b6151936016602092610703565b61519c8161515f565b0190565b6151b59060208101905f818303910152615186565b90565b156151bf57565b6151c76102d4565b62461bcd60e51b8152806151dd600482016151a0565b0390fd5b5f7f456d707479207472616e73616374696f6e207479706500000000000000000000910152565b6152156016602092610703565b61521e816151e1565b0190565b6152379060208101905f818303910152615208565b90565b1561524157565b6152496102d4565b62461bcd60e51b81528061525f60048201615222565b0390fd5b6152706014602092610703565b6152798161219a565b0190565b6152929060208101905f818303910152615263565b90565b1561529c57565b6152a46102d4565b62461bcd60e51b8152806152ba6004820161527d565b0390fd5b5f7f53706f6e736f72736869702074797065206e6f74206163746976650000000000910152565b6152f2601b602092610703565b6152fb816152be565b0190565b6153149060208101905f8183039101526152e5565b90565b1561531e57565b6153266102d4565b62461bcd60e51b81528061533c600482016152ff565b0390fd5b91602061536192949361535a60408201965f83019061049d565b01906104ad565b565b61536c906104aa565b5f19811461537a5760010190565b612230565b90565b61538e6153939161087c565b61537f565b9052565b6020816153a96153b193839695615382565b018092612eb0565b0190565b6153c0610160610fe1565b90565b906153cd90610667565b9052565b906153db9061087c565b9052565b52565b6153ec9051610667565b90565b6153f9905161087c565b90565b61540590610372565b90565b9061541d615418615424926116f7565b6153fc565b8254613310565b9055565b9061543d61543861544492610350565b6141fc565b82546129c0565b9055565b60081b90565b90615461610100600160a81b0391615448565b9181191691161790565b9061548061547b61548792611250565b613ec5565b825461544e565b9055565b5190565b9061559e61014060096155a4946154b35f82016154ad5f88016153e2565b90613ec8565b6154cc600182016154c6602088016153e2565b90613ec8565b6154e5600282016154df604088016153ef565b90615408565b6154fe600382016154f8606088016126b5565b90613345565b61551760048201615511608088016126b5565b90613345565b6155306005820161552a60a088016126b5565b90613345565b6155496006820161554360c088016141ac565b90615428565b6155626006820161555c60e088016153e2565b9061546b565b61557c6007820161557661010088016126b5565b90613345565b615596600882016155906101208801613589565b906132ed565b01920161548b565b906140bd565b565b906155b09161548f565b565b90565b5f5260205f2090565b5490565b6155cb816155be565b8210156155e5576155dd6001916155b5565b910201905f90565b610c1a565b91906156006155fb615608936116f7565b6153fc565b908354613ef6565b9055565b908154916801000000000000000083101561563c578261563491600161563a950181556155c2565b906155ea565b565b610fa4565b61564a90610344565b90565b6020939261566c8583615664829561567497615382565b018092612eb0565b018092612eb0565b0190565b5f7f5452414e53414354494f4e5f53504f4e534f5245440000000000000000000000910152565b6156ac6015602092610703565b6156b581615678565b0190565b9160406156ea9294936156e36156d8606083018381035f85015261569f565b96602083019061118f565b01906108c0565b565b96959694929390945061571a8561571361570d6157085f61276a565b610667565b91610667565b14156132b5565b61573f8261573861573261572d5f61276a565b610667565b91610667565b14156150b4565b6157648461575d6157576157525f6111e8565b61087c565b9161087c565b1415615136565b806157776157715f6126c2565b916104aa565b1180615c2a575b615787906151b8565b6157b361579b61579689613c14565b612f1d565b6157ad6157a75f6126c2565b916104aa565b1161523a565b6157d86157c06013612176565b6157d26157cc5f611bc7565b91611bc7565b14615295565b6157ec6157e76002889061035c565b612654565b966158026157fd6101208a01613589565b615317565b61581961581387898590889261611a565b156104ba565b615c1e57615828828590612244565b9761583e615838888a8c9161689a565b156104ba565b615bc3575061584e878990616481565b918261586a61586461585f5f61276a565b610667565b91610667565b1480615b96575b615b89578261589061588a6158855f61276a565b610667565b91610667565b14155f14615b5c576158c3896158bd60036158ad6004889061125c565b01916158b8836103b5565b6126de565b90613345565b5b6158ce600b6103b5565b6158d790615363565b6158e290600b613345565b856158ed600b6103b5565b6158f56102d4565b918291602083019161590692615397565b6020820181038252036159199082610fb8565b61592281612f1d565b9061592c90612f17565b20948794938792918b908b929342955f97986159466153b5565b9a5f8c0190615954916153c3565b60208b0190615962916153c3565b60408a0190615970916153d1565b606089019061597e91612279565b608088019061598c91612279565b60a087019061599a91612279565b60c08601906159a891612378565b60e08501906159b6916153c3565b6101008401906159c591612279565b6101208301906159d491612287565b6101408201906159e3916153df565b6005826159ef91611703565b906159f9916155a6565b600683615a0591611e9f565b615a0e906155b2565b81615a189161560c565b600a615a23906155b2565b90615a2d9161560c565b615a37600c612ea0565b615a4090611cb2565b635260590a838386615a5190615641565b8891615a5b6102d4565b9283926020840192615a6c9361564d565b602082018103825203615a7f9082610fb8565b615a8881612f1d565b90615a9290612f17565b2092803b15615b5757615ab85f8094615ac3615aac6102d4565b97889687958694612f25565b8452600484016156b9565b03925af18015615b5257615b26575b50909192615b09615b037f538c56b99afc39c2edb423fc201d2a7ff7de065d10188d3445a16492a4381e5d936116f7565b93611250565b93615b1e615b156102d4565b92839283615340565b0390a3600190565b615b45905f3d8111615b4b575b615b3d8183610fb8565b810190612f2b565b5f615ad2565b503d615b33565b612fae565b612f21565b615b8489615b7e615b6f60088b906119e4565b91615b79836103b5565b614852565b90613345565b6158c4565b5050505050505050505f90565b50615bab615ba6600889906119e4565b6103b5565b615bbd615bb78b6104aa565b916104aa565b10615871565b975050505050506040615bd8919293016126b5565b615c027fb95c7553d07c19445251a8168d055486ac79e918f4ffdc951da3d6af79ed7f2792611250565b92615c17615c0e6102d4565b92839283615340565b0390a25f90565b50505050505050505f90565b5061578783615c41615c3b5f6126c2565b916104aa565b11905061577e565b90615c60969594939291615c5b612119565b615015565b90565b90615c7e91615c79615c7482612a9f565b61664a565b615c80565b565b90615c8a91616716565b50565b90615c9791615c63565b565b5f90565b615ca5613585565b50615cae613585565b50615cb7613585565b50615cc0613585565b50615cc9615c99565b50615cd4600a610c2e565b90615cde5f6126c2565b91615ce85f6126c2565b925b83615d06615d00615cfb600a610c2e565b6104aa565b916104aa565b1015615d4f57615d43615d4991615d3d6005615d3781615d31615d2b600a8c90610c3b565b90610c7e565b90611703565b016103b5565b906126de565b936142fd565b92615cea565b909250615d5b5f6126c2565b90615d655f6126c2565b90615d6f5f6126c2565b5b80615d8c615d86615d816009611d59565b6104aa565b916104aa565b1015615e1b57615dba615db56004615daf615da960098690611d66565b90611da6565b9061125c565b6137da565b615dc6600682016103dc565b615dda575b50615dd5906142fd565b615d70565b93615dd59193615e0e615def615e1493615363565b96615e086003615e01600284016103b5565b92016103b5565b90614852565b906126de565b9290615dcb565b5092615e276013612176565b90565b90615e49969594939291615e44615e3f610dc3565b61664a565b615eed565b565b90565b60209392615e6d8583615e658295615e7597612eb0565b018092612eb0565b018092612eb0565b0190565b5f7f53504f4e534f52534849505f504f4c4943595f55504441544544000000000000910152565b615ead601a602092610703565b615eb681615e79565b0190565b916040615eeb929493615ee4615ed9606083018381035f850152615ea0565b96602083019061118f565b01906108c0565b565b9395615f4d615f569296615f44615f60969599615f3b615f17615f1260028c9061035c565b615e4b565b97615f258c60018b01613345565b615f328d60028b01613345565b60038901613345565b60048701613345565b600685016132ed565b60078301613345565b600b429101613345565b615f72615f6d600c612ea0565b611cb2565b635260590a33615f8184615641565b615fad8691615f9e89615f926102d4565b94859360208501615e4e565b60208201810382520382610fb8565b615fbf615fb982612f1d565b91612f17565b2092803b1561607757615fe55f8094615ff0615fd96102d4565b97889687958694612f25565b845260048401615eba565b03925af1801561607257616046575b50909161602c7f361134c6109303986cb0de4380349e7147ac0f11a1a090149211c25d51d0a8e792610350565b926160416160386102d4565b92839283614cad565b0390a2565b616065905f3d811161606b575b61605d8183610fb8565b810190612f2b565b5f615fff565b503d616053565b612fae565b612f21565b9061608b969594939291615e2a565b565b616095612119565b506160af6160a96301ffc9a760e01b6105c5565b916105c5565b1490565b6160bf6160c491610372565b610afa565b90565b6160d190546160b3565b90565b608081830312616115576160ea825f83016149e8565b926161126160fb84602085016149e8565b9361610981604086016149e8565b93606001614ab8565b90565b6102de565b91929092616126612119565b5061613b6161366002869061035c565b612654565b9161617d602061615361614e600e6149db565b610d60565b63c3c5a5479061617288926161666102d4565b95869485938493612f25565b83526004830161119c565b03915afa801561643f57616199915f91616411575b50156104ba565b616408576161ba6161b46161af608086016126b5565b6104aa565b916104aa565b119081156163e2575b506163db5761620960206161df6161da600d6160c7565b610b65565b635e09eea1906161fe86926161f26102d4565b95869485938493612f25565b83526004830161119c565b03915afa9081156163d6575f916163a8575b5061623961623361622e602085016126b5565b6104aa565b916104aa565b106163a15761624a60c08201613589565b6162e1575b508161626461625e6004610344565b91610344565b14616271575b5050600190565b61628d91616283616288926003611596565b6115ac565b61236c565b6162a261629c60c08301613589565b156104ba565b9081156162ba575b506162b6575f8061626a565b5f90565b90506162da6162d46162cf60e04294016126b5565b6104aa565b916104aa565b115f6162aa565b61632260806162f86162f3600e6149db565b610d60565b636103681a90616317869261630b6102d4565b95869485938493612f25565b83526004830161119c565b03915afa90811561639c5761635060e061635b93616355935f808080949250505061636c575b5094016126b5565b6104aa565b916104aa565b10616366575f61624f565b50505f90565b61638d915060803d8111616395575b6163858183610fb8565b8101906160d4565b925050616348565b503d61637b565b612fae565b5050505f90565b6163c9915060203d81116163cf575b6163c18183610fb8565b810190614ac7565b5f61621b565b503d6163b7565b612fae565b5050505f90565b90506164016163fb6163f660a085016126b5565b6104aa565b916104aa565b115f6161c3565b50505050505f90565b616432915060203d8111616438575b61642a8183610fb8565b8101906149f7565b5f616192565b503d616420565b612fae565b919091616450816140c9565b83101561646e5760206164646001926140d9565b8185040193060290565b610c1a565b9061647e91546141bf565b90565b9061648a613bf0565b506164945f6126c2565b905b816164b26164ac6164a76009611d59565b6104aa565b916104aa565b101561663b576164cd6164c760098490611d66565b90611da6565b906164e26164dd6004849061125c565b6137da565b906164f86164f2600684016103dc565b156104ba565b61662e57616508600883016103b5565b61651a6165145f6126c2565b916104aa565b1180616609575b6165fc575f946165305f6126c2565b5b8061654f616549616544600588016140c9565b6104aa565b916104aa565b10156165f05761656c616566600586018390616444565b90616473565b61657e61657884610344565b91610344565b146165915761658c906142fd565b616531565b50945092919060015b90816165be575b506165b757506165b1905b6142fd565b90616496565b9250505090565b6165d69150600a6165d19101869061432c565b6103b5565b6165e86165e2856104aa565b916104aa565b10155f6165a1565b5094939291909361659a565b9290506165b191506165ac565b504261662861662261661d600886016103b5565b6104aa565b916104aa565b11616521565b9290506165b191506165ac565b5050506166475f61276a565b90565b61665c90616656616709565b90616aba565b565b616666612119565b5061667b616675828490613bc7565b156104ba565b5f14616703576166a2600161669d5f616695818690612a89565b018590611e15565b6132ed565b906166ab616709565b906166e86166e26166dc7f2f8788117e7eff1d82e926ec794901d17c78024a50270940304540a733656f0d956116f7565b92611250565b92611250565b926166f16102d4565b806166fb816107c1565b0390a4600190565b50505f90565b616711613bf0565b503390565b61671e612119565b5061672a818390613bc7565b5f146167b1576167505f61674b5f616743818690612a89565b018590611e15565b6132ed565b90616759616709565b9061679661679061678a7ff6391f5c32d9c69d2a47ea670b442974b53935d1edc7fd64eb21e047a839171b956116f7565b92611250565b92611250565b9261679f6102d4565b806167a9816107c1565b0390a4600190565b50505f90565b90565b6167ce6167c96167d3926167b7565b610b3a565b6104aa565b90565b6167e060026167ba565b90565b6167ed60016103b5565b6168066168006167fb6167d6565b6104aa565b916104aa565b1461681f5761681d6168166167d6565b6001613345565b565b5f633ee5aeb560e01b815280616837600482016107c1565b0390fd5b90565b61685261684d6168579261683b565b610b3a565b6104aa565b90565b616864600161683e565b90565b61687961687261685a565b6001613345565b565b90565b61689261688d6168979261687b565b610b3a565b6104aa565b90565b6168ce6168c66168c16168ba6168d3946168b2612119565b506003611596565b85906115ac565b61330d565b92600261035c565b612654565b6168e9426168e362015180612663565b90612693565b6168ff426168f962278d0061687e565b90612693565b908061691e616918616913600288016103b5565b6104aa565b916104aa565b11616a70575b508061694361693d616938600387016103b5565b6104aa565b916104aa565b11616a48575b5061695f6169585f84016103b5565b84906126de565b61697c616976616971604085016126b5565b6104aa565b916104aa565b11616a41576169b46169ae6169a960606169a261699b600188016103b5565b88906126de565b94016126b5565b6104aa565b916104aa565b11616a3b57616a306005836169e1616a36956169db5f8701916169d6836103b5565b6126de565b90613345565b616a01816169fb60018701916169f6836103b5565b6126de565b90613345565b616a1f60048501616a19616a14826103b5565b615363565b90613345565b920191616a2b836103b5565b6126de565b90613345565b600190565b50505f90565b5050505f90565b616a6a90616a61616a585f6126c2565b60018601613345565b60038401613345565b5f616949565b616a9190616a88616a805f6126c2565b5f8701613345565b60028501613345565b5f616924565b916020616ab8929493616ab160408201965f83019061118f565b01906108c0565b565b90616acf616ac9838390613bc7565b156104ba565b616ad7575050565b616af15f92839263e2517d3f60e01b845260048401616a97565b0390fdfea26469706673582212201961b5f0d38c4a9d8dddb806970aa36b991da921c339bc20535de6c6694aeae864736f6c634300081e0033","linkReferences":{}},"methodIdentifiers":{"DEFAULT_ADMIN_ROLE()":"a217fddf","PAYMASTER_ADMIN_ROLE()":"645c752c","SPONSOR_ROLE()":"c2d79444","addPremiumUser(address,uint256)":"817f826c","allSponsorPools(uint256)":"e28e965a","allSponsoredTxs(uint256)":"3b14e814","canSponsorTransaction(address,uint8,uint256,uint256)":"11f3c8ea","createSponsorPool(string,uint256,uint8[],uint256)":"a175b2d7","emergencyGasReserve()":"b3c618c1","emergencyWithdraw(uint256,address)":"2f940c70","fundSponsorPool(address,uint256)":"8aebc0b0","getPaymasterStats()":"d8de4081","getRoleAdmin(bytes32)":"248a9ca3","getSponsorPool(address)":"c2f32078","getUserCreditBalance(address)":"aa675703","getUserQuota(address,uint8)":"87d86509","getUserSponsoredTransactions(address)":"2554dd0f","grantRole(bytes32,address)":"2f2ff15d","hasRole(bytes32,address)":"91d14854","maxDailyGasPerUser()":"e239f3f9","maxMonthlyGasPerUser()":"d49e50df","pausePaymaster()":"1565bbf8","paymasterStatus()":"efafaef9","premiumUsers(address)":"e2b2d482","purchaseGasCredits(uint256)":"d23d1fef","renounceRole(bytes32,address)":"36568abe","resumePaymaster()":"4cebed87","revokeRole(bytes32,address)":"d547741f","sponsorPools(address)":"a30ffbaa","sponsorTransaction(address,address,bytes32,uint256,uint256,string,uint8)":"d438c521","sponsoredTransactions(bytes32)":"c264f1fe","sponsorshipCounter()":"b9fbc9ec","sponsorshipPolicies(uint8)":"01c39107","supportsInterface(bytes4)":"01ffc9a7","systemToken()":"fa8a19df","tokenToGasRate()":"1e812d60","trustScore()":"3078d998","updateSponsorshipPolicy(uint8,uint256,uint256,uint256,uint256,bool,uint256)":"fe11a8d8","userCreditBalance(address)":"d23be075","userQuotas(address,uint8)":"bce5097c","userRegistry()":"5c7460d6","userSponsoredTxs(address,uint256)":"e907226d","verificationLogger()":"e1300c88"},"id":70}