{"abi":[{"type":"constructor","inputs":[{"name":"_verificationLogger","type":"address","internalType":"address"},{"name":"_userRegistry","type":"address","internalType":"address"}],"stateMutability":"nonpayable"},{"type":"function","name":"CCPA_RESPONSE_DEADLINE","inputs":[],"outputs":[{"name":"","type":"uint256","internalType":"uint256"}],"stateMutability":"view"},{"type":"function","name":"DATA_PROCESSOR_ROLE","inputs":[],"outputs":[{"name":"","type":"bytes32","internalType":"bytes32"}],"stateMutability":"view"},{"type":"function","name":"DEFAULT_ADMIN_ROLE","inputs":[],"outputs":[{"name":"","type":"bytes32","internalType":"bytes32"}],"stateMutability":"view"},{"type":"function","name":"GDPR_RESPONSE_DEADLINE","inputs":[],"outputs":[{"name":"","type":"uint256","internalType":"uint256"}],"stateMutability":"view"},{"type":"function","name":"PRIVACY_OFFICER_ROLE","inputs":[],"outputs":[{"name":"","type":"bytes32","internalType":"bytes32"}],"stateMutability":"view"},{"type":"function","name":"checkDataRetentionExpiry","inputs":[{"name":"users","type":"address[]","internalType":"address[]"}],"outputs":[],"stateMutability":"nonpayable"},{"type":"function","name":"createPrivacyRequest","inputs":[{"name":"requestType","type":"string","internalType":"string"},{"name":"description","type":"string","internalType":"string"},{"name":"evidenceURI","type":"string","internalType":"string"},{"name":"isUrgent","type":"bool","internalType":"bool"}],"outputs":[{"name":"","type":"uint256","internalType":"uint256"}],"stateMutability":"nonpayable"},{"type":"function","name":"dataAccessCount","inputs":[{"name":"","type":"address","internalType":"address"}],"outputs":[{"name":"","type":"uint256","internalType":"uint256"}],"stateMutability":"view"},{"type":"function","name":"dataMinimizationEnabled","inputs":[{"name":"","type":"address","internalType":"address"}],"outputs":[{"name":"","type":"bool","internalType":"bool"}],"stateMutability":"view"},{"type":"function","name":"disclosureData","inputs":[{"name":"user","type":"address","internalType":"address"},{"name":"dataFields","type":"string[]","internalType":"string[]"},{"name":"recipient","type":"address","internalType":"address"},{"name":"purpose","type":"string","internalType":"string"},{"name":"validityPeriod","type":"uint256","internalType":"uint256"},{"name":"legalBasis","type":"string","internalType":"string"}],"outputs":[],"stateMutability":"nonpayable"},{"type":"function","name":"enableDataMinimization","inputs":[],"outputs":[],"stateMutability":"nonpayable"},{"type":"function","name":"enablePseudonymization","inputs":[],"outputs":[],"stateMutability":"nonpayable"},{"type":"function","name":"gdprApplicable","inputs":[{"name":"","type":"address","internalType":"address"}],"outputs":[{"name":"","type":"bool","internalType":"bool"}],"stateMutability":"view"},{"type":"function","name":"generateZKProof","inputs":[{"name":"proofId","type":"bytes32","internalType":"bytes32"},{"name":"proofHash","type":"bytes32","internalType":"bytes32"}],"outputs":[],"stateMutability":"nonpayable"},{"type":"function","name":"getPrivacyRequest","inputs":[{"name":"requestId","type":"uint256","internalType":"uint256"}],"outputs":[{"name":"requester","type":"address","internalType":"address"},{"name":"requestType","type":"string","internalType":"string"},{"name":"status","type":"uint8","internalType":"enum PrivacyManager.RequestStatus"},{"name":"requestedAt","type":"uint256","internalType":"uint256"},{"name":"deadline","type":"uint256","internalType":"uint256"},{"name":"isUrgent","type":"bool","internalType":"bool"}],"stateMutability":"view"},{"type":"function","name":"getRoleAdmin","inputs":[{"name":"role","type":"bytes32","internalType":"bytes32"}],"outputs":[{"name":"","type":"bytes32","internalType":"bytes32"}],"stateMutability":"view"},{"type":"function","name":"getUserDataDisclosures","inputs":[{"name":"user","type":"address","internalType":"address"}],"outputs":[{"name":"","type":"uint256","internalType":"uint256"}],"stateMutability":"view"},{"type":"function","name":"getUserPrivacyRequests","inputs":[{"name":"user","type":"address","internalType":"address"}],"outputs":[{"name":"","type":"uint256[]","internalType":"uint256[]"}],"stateMutability":"view"},{"type":"function","name":"getUserZKProofs","inputs":[{"name":"user","type":"address","internalType":"address"}],"outputs":[{"name":"","type":"bytes32[]","internalType":"bytes32[]"}],"stateMutability":"view"},{"type":"function","name":"grantRole","inputs":[{"name":"role","type":"bytes32","internalType":"bytes32"},{"name":"account","type":"address","internalType":"address"}],"outputs":[],"stateMutability":"nonpayable"},{"type":"function","name":"hasConsent","inputs":[{"name":"user","type":"address","internalType":"address"},{"name":"consentType","type":"uint8","internalType":"enum PrivacyManager.ConsentType"}],"outputs":[{"name":"","type":"bool","internalType":"bool"}],"stateMutability":"view"},{"type":"function","name":"hasRole","inputs":[{"name":"role","type":"bytes32","internalType":"bytes32"},{"name":"account","type":"address","internalType":"address"}],"outputs":[{"name":"","type":"bool","internalType":"bool"}],"stateMutability":"view"},{"type":"function","name":"isZKProofValid","inputs":[{"name":"proofId","type":"bytes32","internalType":"bytes32"}],"outputs":[{"name":"","type":"bool","internalType":"bool"}],"stateMutability":"view"},{"type":"function","name":"lastDataAccess","inputs":[{"name":"","type":"address","internalType":"address"}],"outputs":[{"name":"","type":"uint256","internalType":"uint256"}],"stateMutability":"view"},{"type":"function","name":"logDataAccess","inputs":[{"name":"user","type":"address","internalType":"address"},{"name":"dataType","type":"string","internalType":"string"}],"outputs":[],"stateMutability":"nonpayable"},{"type":"function","name":"privacyRequests","inputs":[{"name":"","type":"uint256","internalType":"uint256"}],"outputs":[{"name":"id","type":"uint256","internalType":"uint256"},{"name":"requester","type":"address","internalType":"address"},{"name":"requestType","type":"string","internalType":"string"},{"name":"description","type":"string","internalType":"string"},{"name":"evidenceURI","type":"string","internalType":"string"},{"name":"requestedAt","type":"uint256","internalType":"uint256"},{"name":"deadline","type":"uint256","internalType":"uint256"},{"name":"status","type":"uint8","internalType":"enum PrivacyManager.RequestStatus"},{"name":"responseURI","type":"string","internalType":"string"},{"name":"rejectionReason","type":"string","internalType":"string"},{"name":"processor","type":"address","internalType":"address"},{"name":"processedAt","type":"uint256","internalType":"uint256"},{"name":"isUrgent","type":"bool","internalType":"bool"},{"name":"requestHash","type":"bytes32","internalType":"bytes32"}],"stateMutability":"view"},{"type":"function","name":"processPrivacyRequest","inputs":[{"name":"requestId","type":"uint256","internalType":"uint256"},{"name":"status","type":"uint8","internalType":"enum PrivacyManager.RequestStatus"},{"name":"responseURI","type":"string","internalType":"string"},{"name":"rejectionReason","type":"string","internalType":"string"}],"outputs":[],"stateMutability":"nonpayable"},{"type":"function","name":"pseudonymizationEnabled","inputs":[{"name":"","type":"address","internalType":"address"}],"outputs":[{"name":"","type":"bool","internalType":"bool"}],"stateMutability":"view"},{"type":"function","name":"renounceRole","inputs":[{"name":"role","type":"bytes32","internalType":"bytes32"},{"name":"callerConfirmation","type":"address","internalType":"address"}],"outputs":[],"stateMutability":"nonpayable"},{"type":"function","name":"requestCounter","inputs":[],"outputs":[{"name":"","type":"uint256","internalType":"uint256"}],"stateMutability":"view"},{"type":"function","name":"requestZKProof","inputs":[{"name":"user","type":"address","internalType":"address"},{"name":"proofType","type":"string","internalType":"string"},{"name":"criteriaHash","type":"bytes32","internalType":"bytes32"},{"name":"validityPeriod","type":"uint256","internalType":"uint256"}],"outputs":[{"name":"","type":"bytes32","internalType":"bytes32"}],"stateMutability":"nonpayable"},{"type":"function","name":"revokeRole","inputs":[{"name":"role","type":"bytes32","internalType":"bytes32"},{"name":"account","type":"address","internalType":"address"}],"outputs":[],"stateMutability":"nonpayable"},{"type":"function","name":"revokeZKProof","inputs":[{"name":"proofId","type":"bytes32","internalType":"bytes32"}],"outputs":[],"stateMutability":"nonpayable"},{"type":"function","name":"setDataRetentionPolicy","inputs":[{"name":"period","type":"uint8","internalType":"enum PrivacyManager.DataRetentionPeriod"},{"name":"description","type":"string","internalType":"string"}],"outputs":[],"stateMutability":"nonpayable"},{"type":"function","name":"setJurisdiction","inputs":[{"name":"user","type":"address","internalType":"address"},{"name":"jurisdiction","type":"string","internalType":"string"}],"outputs":[],"stateMutability":"nonpayable"},{"type":"function","name":"supportsInterface","inputs":[{"name":"interfaceId","type":"bytes4","internalType":"bytes4"}],"outputs":[{"name":"","type":"bool","internalType":"bool"}],"stateMutability":"view"},{"type":"function","name":"updateConsent","inputs":[{"name":"consentType","type":"uint8","internalType":"enum PrivacyManager.ConsentType"},{"name":"isConsented","type":"bool","internalType":"bool"},{"name":"consentVersion","type":"string","internalType":"string"},{"name":"consentHash","type":"bytes32","internalType":"bytes32"}],"outputs":[],"stateMutability":"nonpayable"},{"type":"function","name":"userConsents","inputs":[{"name":"","type":"address","internalType":"address"},{"name":"","type":"uint8","internalType":"enum PrivacyManager.ConsentType"}],"outputs":[{"name":"isConsented","type":"bool","internalType":"bool"},{"name":"consentedAt","type":"uint256","internalType":"uint256"},{"name":"updatedAt","type":"uint256","internalType":"uint256"},{"name":"consentVersion","type":"string","internalType":"string"},{"name":"consentHash","type":"bytes32","internalType":"bytes32"},{"name":"isWithdrawn","type":"bool","internalType":"bool"},{"name":"withdrawnAt","type":"uint256","internalType":"uint256"}],"stateMutability":"view"},{"type":"function","name":"userDataDisclosures","inputs":[{"name":"","type":"address","internalType":"address"},{"name":"","type":"uint256","internalType":"uint256"}],"outputs":[{"name":"user","type":"address","internalType":"address"},{"name":"recipient","type":"address","internalType":"address"},{"name":"purpose","type":"string","internalType":"string"},{"name":"disclosedAt","type":"uint256","internalType":"uint256"},{"name":"expiresAt","type":"uint256","internalType":"uint256"},{"name":"isActive","type":"bool","internalType":"bool"},{"name":"disclosureHash","type":"bytes32","internalType":"bytes32"},{"name":"legalBasis","type":"string","internalType":"string"}],"stateMutability":"view"},{"type":"function","name":"userJurisdiction","inputs":[{"name":"","type":"address","internalType":"address"}],"outputs":[{"name":"","type":"string","internalType":"string"}],"stateMutability":"view"},{"type":"function","name":"userPrivacyRequests","inputs":[{"name":"","type":"address","internalType":"address"},{"name":"","type":"uint256","internalType":"uint256"}],"outputs":[{"name":"","type":"uint256","internalType":"uint256"}],"stateMutability":"view"},{"type":"function","name":"userRegistry","inputs":[],"outputs":[{"name":"","type":"address","internalType":"contract IUserIdentityRegistry"}],"stateMutability":"view"},{"type":"function","name":"userRetentionPolicies","inputs":[{"name":"","type":"address","internalType":"address"}],"outputs":[{"name":"period","type":"uint8","internalType":"enum PrivacyManager.DataRetentionPeriod"},{"name":"expiryDate","type":"uint256","internalType":"uint256"},{"name":"isActive","type":"bool","internalType":"bool"},{"name":"description","type":"string","internalType":"string"},{"name":"policyHash","type":"bytes32","internalType":"bytes32"}],"stateMutability":"view"},{"type":"function","name":"userZKProofs","inputs":[{"name":"","type":"address","internalType":"address"},{"name":"","type":"uint256","internalType":"uint256"}],"outputs":[{"name":"","type":"bytes32","internalType":"bytes32"}],"stateMutability":"view"},{"type":"function","name":"verificationLogger","inputs":[],"outputs":[{"name":"","type":"address","internalType":"contract IVerificationLogger"}],"stateMutability":"view"},{"type":"function","name":"zkProofRequests","inputs":[{"name":"","type":"bytes32","internalType":"bytes32"}],"outputs":[{"name":"requester","type":"address","internalType":"address"},{"name":"proofType","type":"string","internalType":"string"},{"name":"criteriaHash","type":"bytes32","internalType":"bytes32"},{"name":"requestedAt","type":"uint256","internalType":"uint256"},{"name":"expiresAt","type":"uint256","internalType":"uint256"},{"name":"isCompleted","type":"bool","internalType":"bool"},{"name":"proofHash","type":"bytes32","internalType":"bytes32"},{"name":"isRevoked","type":"bool","internalType":"bool"}],"stateMutability":"view"},{"type":"event","name":"ConsentUpdated","inputs":[{"name":"user","type":"address","indexed":true,"internalType":"address"},{"name":"consentType","type":"uint8","indexed":false,"internalType":"enum PrivacyManager.ConsentType"},{"name":"isConsented","type":"bool","indexed":false,"internalType":"bool"}],"anonymous":false},{"type":"event","name":"ConsentWithdrawn","inputs":[{"name":"user","type":"address","indexed":true,"internalType":"address"},{"name":"consentType","type":"uint8","indexed":false,"internalType":"enum PrivacyManager.ConsentType"}],"anonymous":false},{"type":"event","name":"DataAccessLogged","inputs":[{"name":"user","type":"address","indexed":true,"internalType":"address"},{"name":"accessor","type":"address","indexed":true,"internalType":"address"},{"name":"dataType","type":"string","indexed":false,"internalType":"string"}],"anonymous":false},{"type":"event","name":"DataDisclosed","inputs":[{"name":"user","type":"address","indexed":true,"internalType":"address"},{"name":"recipient","type":"address","indexed":true,"internalType":"address"},{"name":"purpose","type":"string","indexed":false,"internalType":"string"}],"anonymous":false},{"type":"event","name":"DataErased","inputs":[{"name":"user","type":"address","indexed":true,"internalType":"address"},{"name":"dataType","type":"string","indexed":false,"internalType":"string"}],"anonymous":false},{"type":"event","name":"PrivacyRequestCreated","inputs":[{"name":"requestId","type":"uint256","indexed":true,"internalType":"uint256"},{"name":"requester","type":"address","indexed":true,"internalType":"address"},{"name":"requestType","type":"string","indexed":false,"internalType":"string"}],"anonymous":false},{"type":"event","name":"PrivacyRequestProcessed","inputs":[{"name":"requestId","type":"uint256","indexed":true,"internalType":"uint256"},{"name":"status","type":"uint8","indexed":false,"internalType":"enum PrivacyManager.RequestStatus"}],"anonymous":false},{"type":"event","name":"RetentionPolicyUpdated","inputs":[{"name":"user","type":"address","indexed":true,"internalType":"address"},{"name":"period","type":"uint8","indexed":false,"internalType":"enum PrivacyManager.DataRetentionPeriod"}],"anonymous":false},{"type":"event","name":"RoleAdminChanged","inputs":[{"name":"role","type":"bytes32","indexed":true,"internalType":"bytes32"},{"name":"previousAdminRole","type":"bytes32","indexed":true,"internalType":"bytes32"},{"name":"newAdminRole","type":"bytes32","indexed":true,"internalType":"bytes32"}],"anonymous":false},{"type":"event","name":"RoleGranted","inputs":[{"name":"role","type":"bytes32","indexed":true,"internalType":"bytes32"},{"name":"account","type":"address","indexed":true,"internalType":"address"},{"name":"sender","type":"address","indexed":true,"internalType":"address"}],"anonymous":false},{"type":"event","name":"RoleRevoked","inputs":[{"name":"role","type":"bytes32","indexed":true,"internalType":"bytes32"},{"name":"account","type":"address","indexed":true,"internalType":"address"},{"name":"sender","type":"address","indexed":true,"internalType":"address"}],"anonymous":false},{"type":"event","name":"ZKProofGenerated","inputs":[{"name":"proofId","type":"bytes32","indexed":true,"internalType":"bytes32"},{"name":"proofHash","type":"bytes32","indexed":false,"internalType":"bytes32"}],"anonymous":false},{"type":"event","name":"ZKProofRequested","inputs":[{"name":"proofId","type":"bytes32","indexed":true,"internalType":"bytes32"},{"name":"requester","type":"address","indexed":true,"internalType":"address"},{"name":"proofType","type":"string","indexed":false,"internalType":"string"}],"anonymous":false},{"type":"error","name":"AccessControlBadConfirmation","inputs":[]},{"type":"error","name":"AccessControlUnauthorizedAccount","inputs":[{"name":"account","type":"address","internalType":"address"},{"name":"neededRole","type":"bytes32","internalType":"bytes32"}]},{"type":"error","name":"ReentrancyGuardReentrantCall","inputs":[]}],"bytecode":{"object":"0x6080604052346100305761001a610014610104565b906103c4565b610022610035565b6174b26106c482396174b290f35b61003b565b60405190565b5f80fd5b601f801991011690565b634e487b7160e01b5f52604160045260245ffd5b906100679061003f565b810190811060018060401b0382111761007f57604052565b610049565b90610097610090610035565b928361005d565b565b5f80fd5b60018060a01b031690565b6100b19061009d565b90565b6100bd816100a8565b036100c457565b5f80fd5b905051906100d5826100b4565b565b91906040838203126100ff57806100f36100fc925f86016100c8565b936020016100c8565b90565b610099565b610122617b768038038061011781610084565b9283398101906100d7565b9091565b90565b90565b61014061013b61014592610126565b610129565b61009d565b90565b6101519061012c565b90565b60209181520190565b60207f6573730000000000000000000000000000000000000000000000000000000000917f496e76616c696420766572696669636174696f6e206c6f6767657220616464725f8201520152565b6101b76023604092610154565b6101c08161015d565b0190565b6101d99060208101905f8183039101526101aa565b90565b156101e357565b6101eb610035565b62461bcd60e51b815280610201600482016101c4565b0390fd5b5f7f496e76616c696420757365722072656769737472792061646472657373000000910152565b610239601d602092610154565b61024281610205565b0190565b61025b9060208101905f81830391015261022c565b90565b1561026557565b61026d610035565b62461bcd60e51b81528061028360048201610246565b0390fd5b90565b5f1b90565b6102a361029e6102a892610126565b61028a565b610287565b90565b6102b45f61028f565b90565b7fbd6c01bd09485228a1b6e2f82797067ffa0e38468d139cd167844c36a589c62a90565b7feea5ee44c61852da3f87e3db5e7e2e355de9207e7f7bcb7ed0308d5c8561860390565b61031361030e6103189261009d565b610129565b61009d565b90565b610324906102ff565b90565b6103309061031b565b90565b9061034460018060a01b039161028a565b9181191691161790565b6103579061031b565b90565b90565b9061037261036d6103799261034e565b61035a565b8254610333565b9055565b610386906102ff565b90565b6103929061037d565b90565b61039e9061037d565b90565b90565b906103b96103b46103c092610395565b6103a1565b8254610333565b9055565b6104759161046961046261046e936103da6104fb565b6103ff816103f86103f26103ed5f610148565b6100a8565b916100a8565b14156101dc565b6104248461041d6104176104125f610148565b6100a8565b916100a8565b141561025e565b61043661042f6102ab565b33906105b2565b506104496104426102b7565b33906105b2565b5061045c6104556102db565b33906105b2565b50610327565b600c61035d565b610389565b600d6103a4565b565b90565b90565b61049161048c61049692610477565b610129565b61047a565b90565b6104a3600161047d565b90565b906104b25f199161028a565b9181191691161790565b6104d06104cb6104d59261047a565b610129565b61047a565b90565b90565b906104f06104eb6104f7926104bc565b6104d8565b82546104a6565b9055565b61050d610506610499565b60016104db565b565b5f90565b151590565b61052190610287565b90565b9061052e90610518565b5f5260205260405f2090565b610543906102ff565b90565b61054f9061053a565b90565b9061055c90610546565b5f5260205260405f2090565b9061057460ff9161028a565b9181191691161790565b61058790610513565b90565b90565b906105a261059d6105a99261057e565b61058a565b8254610568565b9055565b5f0190565b6105ba61050f565b506105cf6105c9828490610689565b15610513565b5f14610657576105f660016105f15f6105e9818690610524565b018590610552565b61058d565b906105ff6106b6565b9061063c6106366106307f2f8788117e7eff1d82e926ec794901d17c78024a50270940304540a733656f0d95610518565b92610546565b92610546565b92610645610035565b8061064f816105ad565b0390a4600190565b50505f90565b5f1c90565b60ff1690565b6106746106799161065d565b610662565b90565b6106869054610668565b90565b6106af915f6106a46106aa9361069d61050f565b5082610524565b01610552565b61067c565b90565b5f90565b6106be6106b2565b50339056fe60806040526004361015610013575b612482565b61001d5f356102fb565b806210299d146102f657806301ffc9a7146102f157806304df2838146102ec578063066a31fb146102e757806308408bc5146102e25780630dd6187a146102dd57806315d81b73146102d85780631b89b71b146102d3578063248a9ca3146102ce57806328b05f45146102c95780632f2ff15d146102c45780632f37111b146102bf57806336568abe146102ba5780633c0203b9146102b55780633c5bd548146102b05780633e584243146102ab5780634aef1416146102a65780634c92fa26146102a157806353f44c641461029c5780635c7460d6146102975780636d66ee7b1461029257806371c09e291461028d5780638233814414610288578063874e96cb146102835780638ae2714e1461027e5780638d20e2d714610279578063905d9a0d1461027457806391d148541461026f5780639537978c1461026a578063973a814e146102655780639e54c83c14610260578063a217fddf1461025b578063a7da915114610256578063ab69939714610251578063b486b0b91461024c578063b980a76414610247578063c03ab99214610242578063c9de0daa1461023d578063d08d80dd14610238578063d547741f14610233578063da1ad21e1461022e578063dfc4402c14610229578063e1300c8814610224578063f18636a71461021f578063f214db6c1461021a5763f3522c140361000e5761244d565b6123ff565b612391565b612249565b612193565b611f58565b611e90565b611e5b565b611df3565b611caa565b611bc4565b611af0565b611abd565b611a8a565b611a55565b6119e6565b61194f565b611906565b611775565b611741565b61170c565b61169e565b61166a565b611608565b611533565b611458565b6113ea565b611334565b611272565b611165565b610fea565b610f32565b610e7d565b610e30565b610df0565b610b78565b610b16565b610ac8565b610a93565b610899565b61081b565b61065a565b6105db565b61055c565b6104cc565b610423565b60e01c90565b60405190565b5f80fd5b5f80fd5b5f80fd5b60018060a01b031690565b61032790610313565b90565b6103338161031e565b0361033a57565b5f80fd5b9050359061034b8261032a565b565b9060208282031261036657610363915f0161033e565b90565b61030b565b90565b61038261037d61038792610313565b61036b565b610313565b90565b6103939061036e565b90565b61039f9061038a565b90565b906103ac90610396565b5f5260205260405f2090565b1c90565b90565b6103cf9060086103d493026103b8565b6103bc565b90565b906103e291546103bf565b90565b6103fb906103f66011915f926103a2565b6103d7565b90565b90565b61040a906103fe565b9052565b9190610421905f60208501940190610401565b565b346104535761044f61043e61043936600461034d565b6103e5565b610446610301565b9182918261040e565b0390f35b610307565b63ffffffff60e01b1690565b61046d81610458565b0361047457565b5f80fd5b9050359061048582610464565b565b906020828203126104a05761049d915f01610478565b90565b61030b565b151590565b6104b3906104a5565b9052565b91906104ca905f602085019401906104aa565b565b346104fc576104f86104e76104e2366004610487565b61248a565b6104ef610301565b918291826104b7565b0390f35b610307565b9061050b90610396565b5f5260205260405f2090565b60ff1690565b61052d90600861053293026103b8565b610517565b90565b90610540915461051d565b90565b61055990610554600e915f92610501565b610535565b90565b3461058c5761058861057761057236600461034d565b610543565b61057f610301565b918291826104b7565b0390f35b610307565b6006111561059b57565b5f80fd5b905035906105ac82610591565b565b91906040838203126105d657806105ca6105d3925f860161033e565b9360200161059f565b90565b61030b565b3461060c576106086105f76105f13660046105ae565b906125ce565b6105ff610301565b918291826104b7565b0390f35b610307565b90565b61061d81610611565b0361062457565b5f80fd5b9050359061063582610614565b565b906020828203126106505761064d915f01610628565b90565b61030b565b5f0190565b346106885761067261066d366004610637565b61290c565b61067a610301565b8061068481610655565b0390f35b610307565b5f80fd5b5f80fd5b601f801991011690565b634e487b7160e01b5f52604160045260245ffd5b906106bd90610695565b810190811067ffffffffffffffff8211176106d757604052565b61069f565b906106ef6106e8610301565b92836106b3565b565b67ffffffffffffffff811161070f5761070b602091610695565b0190565b61069f565b90825f939282370152565b9092919261073461072f826106f1565b6106dc565b938185526020850190828401116107505761074e92610714565b565b610691565b9080601f83011215610773578160206107709335910161071f565b90565b61068d565b610781816103fe565b0361078857565b5f80fd5b9050359061079982610778565b565b6080818303126107f4576107b1825f830161033e565b92602082013567ffffffffffffffff81116107ef576107d5846107ec928501610755565b936107e38160408601610628565b9360600161078c565b90565b61030f565b61030b565b61080290610611565b9052565b9190610819905f602085019401906107f9565b565b3461084f5761084b61083a61083136600461079b565b929190916131be565b610842610301565b91829182610806565b0390f35b610307565b9190916040818403126108945761086d835f830161033e565b92602082013567ffffffffffffffff811161088f5761088c9201610755565b90565b61030f565b61030b565b346108c8576108b26108ac366004610854565b906136ad565b6108ba610301565b806108c481610655565b0390f35b610307565b906108d790610396565b5f5260205260405f2090565b634e487b7160e01b5f525f60045260245ffd5b634e487b7160e01b5f52602260045260245ffd5b906001600283049216801561092a575b602083101461092557565b6108f6565b91607f169161091a565b60209181520190565b5f5260205f2090565b905f92918054906109606109598361090a565b8094610934565b916001811690815f146109b7575060011461097b575b505050565b610988919293945061093d565b915f925b81841061099f57505001905f8080610976565b6001816020929593955484860152019101929061098c565b92949550505060ff19168252151560200201905f8080610976565b906109dc91610946565b90565b906109ff6109f8926109ef610301565b938480926109d2565b03836106b3565b565b905f10610a1457610a11906109df565b90565b6108e3565b610a2f90610a2a600a915f926108cd565b610a01565b90565b5190565b60209181520190565b90825f9392825e0152565b610a69610a72602093610a7793610a6081610a32565b93848093610a36565b95869101610a3f565b610695565b0190565b610a909160208201915f818403910152610a4a565b90565b34610ac357610abf610aae610aa936600461034d565b610a19565b610ab6610301565b91829182610a7b565b0390f35b610307565b34610af857610af4610ae3610ade366004610637565b6136cf565b610aeb610301565b91829182610806565b0390f35b610307565b610b1390610b0e600f915f92610501565b610535565b90565b34610b4657610b42610b31610b2c36600461034d565b610afd565b610b39610301565b918291826104b7565b0390f35b610307565b9190604083820312610b735780610b67610b70925f8601610628565b9360200161033e565b90565b61030b565b34610ba757610b91610b8b366004610b4b565b9061371a565b610b99610301565b80610ba381610655565b0390f35b610307565b9190604083820312610bd45780610bc8610bd1925f860161033e565b9360200161078c565b90565b61030b565b90610be390610396565b5f5260205260405f2090565b634e487b7160e01b5f52603260045260245ffd5b5490565b5f5260205f2090565b610c1981610c03565b821015610c3357610c2b600991610c07565b910201905f90565b610bef565b5f1c90565b60018060a01b031690565b610c54610c5991610c38565b610c3d565b90565b610c669054610c48565b90565b610c75610c7a91610c38565b6103bc565b90565b610c879054610c69565b90565b610c96610c9b91610c38565b610517565b90565b610ca89054610c8a565b90565b90565b610cba610cbf91610c38565b610cab565b90565b610ccc9054610cae565b90565b610cda906006610bd9565b90610ce482610c03565b811015610d5e57610cf491610c10565b5090610d015f8301610c5c565b91610d0e60028201610c5c565b91610d1b600383016109df565b91610d2860048201610c7d565b91610d3560058301610c7d565b91610d4260068201610c9e565b91610d5b6008610d5460078501610cc2565b93016109df565b90565b5f80fd5b610d6b9061031e565b9052565b94610dcc90610dc2610db788610de0989b97610daa610dd698610ded9f9d98610da0905f6101008701960190610d62565b60208d0190610d62565b8a820360408c0152610a4a565b996060890190610401565b6080870190610401565b60a08501906104aa565b60c08301906107f9565b60e0818403910152610a4a565b90565b34610e2b57610e27610e0c610e06366004610bac565b90610ccf565b94610e1e989698949194939293610301565b98899889610d6f565b0390f35b610307565b34610e5f57610e49610e43366004610b4b565b90613726565b610e51610301565b80610e5b81610655565b0390f35b610307565b610e7a90610e756010915f926103a2565b6103d7565b90565b34610ead57610ea9610e98610e9336600461034d565b610e64565b610ea0610301565b9182918261040e565b0390f35b610307565b90610ebc90610396565b5f5260205260405f2090565b5490565b5f5260205f2090565b610ede81610ec8565b821015610ef857610ef0600191610ecc565b910201905f90565b610bef565b610f08906005610eb2565b610f1181610ec8565b821015610f2e57610f2b91610f2591610ed5565b906103d7565b90565b5f80fd5b34610f6357610f5f610f4e610f48366004610bac565b90610efd565b610f56610301565b9182918261040e565b0390f35b610307565b610f71816104a5565b03610f7857565b5f80fd5b90503590610f8982610f68565b565b608081830312610fe557610fa1825f830161059f565b92610faf8360208401610f7c565b9260408301359067ffffffffffffffff8211610fe057610fd481610fdd938601610755565b93606001610628565b90565b61030f565b61030b565b3461101c57611006610ffd366004610f8b565b929190916138ce565b61100e610301565b8061101881610655565b0390f35b610307565b9061102b90610396565b5f5260205260405f2090565b634e487b7160e01b5f52602160045260245ffd5b6006111561105557565b611037565b906110648261104b565b565b61106f9061105a565b90565b9061107c90611066565b5f5260205260405f2090565b9061109761109c926002611021565b611072565b6110a75f8201610c9e565b916110b460018301610c7d565b916110c160028201610c7d565b916110ce600383016109df565b916110db60048201610cc2565b916110f460066110ed60058501610c9e565b9301610c7d565b90565b92611147611163979260c09661113a6111529461113061115c989e9d9b9e61112660e08c01965f8d01906104aa565b60208b0190610401565b6040890190610401565b8682036060880152610a4a565b9860808501906107f9565b60a08301906104aa565b0190610401565b565b3461119d5761119961118161117b3660046105ae565b90611088565b93611190979597939193610301565b978897886110f7565b0390f35b610307565b67ffffffffffffffff81116111ba5760208091020190565b61069f565b5f80fd5b909291926111d86111d3826111a2565b6106dc565b938185526020808601920283019281841161121557915b8383106111fc5750505050565b6020809161120a848661033e565b8152019201916111ef565b6111bf565b9080601f8301121561123857816020611235933591016111c3565b90565b61068d565b9060208282031261126d575f82013567ffffffffffffffff811161126857611265920161121a565b90565b61030f565b61030b565b346112a05761128a61128536600461123d565b613fe3565b611292610301565b8061129c81610655565b0390f35b610307565b60808183031261132f575f81013567ffffffffffffffff811161132a57826112ce918301610755565b92602082013567ffffffffffffffff811161132557836112ef918401610755565b9260408301359067ffffffffffffffff8211611320576113148161131d938601610755565b93606001610f7c565b90565b61030f565b61030f565b61030f565b61030b565b346113685761136461135361134a3660046112a5565b9291909161455c565b61135b610301565b9182918261040e565b0390f35b610307565b5f91031261137757565b61030b565b60018060a01b031690565b61139790600861139c93026103b8565b61137c565b90565b906113aa9154611387565b90565b6113b9600d5f9061139f565b90565b6113c59061038a565b90565b6113d1906113bc565b9052565b91906113e8905f602085019401906113c8565b565b3461141a576113fa36600461136d565b6114166114056113ad565b61140d610301565b918291826113d5565b0390f35b610307565b90565b61143661143161143b9261141f565b61036b565b6103fe565b90565b61144a62278d00611422565b90565b61145561143e565b90565b346114885761146836600461136d565b61148461147361144d565b61147b610301565b9182918261040e565b0390f35b610307565b9061149790610396565b5f5260205260405f2090565b5490565b5f5260205f2090565b6114b9816114a3565b8210156114d3576114cb6001916114a7565b910201905f90565b610bef565b6114e89060086114ed93026103b8565b610cab565b90565b906114fb91546114d8565b90565b61150990600861148d565b611512816114a3565b82101561152f5761152c91611526916114b0565b906114f0565b90565b5f80fd5b346115645761156061154f611549366004610bac565b906114fe565b611557610301565b91829182610806565b0390f35b610307565b5190565b60209181520190565b60200190565b611585906103fe565b9052565b906115968160209361157c565b0190565b60200190565b906115bd6115b76115b084611569565b809361156d565b92611576565b905f5b8181106115cd5750505090565b9091926115e66115e06001928651611589565b9461159a565b91019190916115c0565b6116059160208201915f8184039101526115a0565b90565b346116385761163461162361161e36600461034d565b614b10565b61162b610301565b918291826115f0565b0390f35b610307565b91906040838203126116655780611659611662925f8601610628565b93602001610628565b90565b61030b565b346116995761168361167d36600461163d565b90614cc5565b61168b610301565b8061169581610655565b0390f35b610307565b346116ce576116ca6116b96116b4366004610637565b614f5c565b6116c1610301565b918291826104b7565b0390f35b610307565b90565b6116ea6116e56116ef926116d3565b61036b565b6103fe565b90565b6116fe623b53806116d6565b90565b6117096116f2565b90565b3461173c5761171c36600461136d565b611738611727611701565b61172f610301565b9182918261040e565b0390f35b610307565b346117705761175a611754366004610854565b906151dc565b611762610301565b8061176c81610655565b0390f35b610307565b346117a6576117a261179161178b366004610b4b565b906151e8565b611799610301565b918291826104b7565b0390f35b610307565b67ffffffffffffffff81116117c35760208091020190565b61069f565b9291906117dc6117d7826117ab565b6106dc565b93818552602080860192028101918383116118335781905b838210611802575050505050565b813567ffffffffffffffff811161182e576020916118238784938701610755565b8152019101906117f4565b61068d565b6111bf565b9080601f8301121561185657816020611853933591016117c8565b90565b61068d565b9160c08383031261190157611872825f850161033e565b92602081013567ffffffffffffffff81116118fc5783611893918301611838565b926118a1816040840161033e565b92606083013567ffffffffffffffff81116118f757826118c2918501610755565b926118d0836080830161078c565b9260a082013567ffffffffffffffff81116118f2576118ef9201610755565b90565b61030f565b61030f565b61030f565b61030b565b3461193b5761192561191936600461185b565b94939093929192615b5c565b61192d610301565b8061193781610655565b0390f35b610307565b61194c600b5f906103d7565b90565b3461197f5761195f36600461136d565b61197b61196a611940565b611972610301565b9182918261040e565b0390f35b610307565b6005111561198e57565b5f80fd5b9050359061199f82611984565b565b9190916040818403126119e1576119ba835f8301611992565b92602082013567ffffffffffffffff81116119dc576119d99201610755565b90565b61030f565b61030b565b34611a15576119ff6119f93660046119a1565b90615d1a565b611a07610301565b80611a1181610655565b0390f35b610307565b90565b5f1b90565b611a36611a31611a3b92611a1a565b611a1d565b610611565b90565b611a475f611a22565b90565b611a52611a3e565b90565b34611a8557611a6536600461136d565b611a81611a70611a4a565b611a78610301565b91829182610806565b0390f35b610307565b34611ab857611a9a36600461136d565b611aa2615f5a565b611aaa610301565b80611ab481610655565b0390f35b610307565b34611aeb57611acd36600461136d565b611ad561607d565b611add610301565b80611ae781610655565b0390f35b610307565b34611b2057611b1c611b0b611b0636600461034d565b61612c565b611b13610301565b9182918261040e565b0390f35b610307565b5190565b60209181520190565b60200190565b611b4190610611565b9052565b90611b5281602093611b38565b0190565b60200190565b90611b79611b73611b6c84611b25565b8093611b29565b92611b32565b905f5b818110611b895750505090565b909192611ba2611b9c6001928651611b45565b94611b56565b9101919091611b7c565b611bc19160208201915f818403910152611b5c565b90565b34611bf457611bf0611bdf611bda36600461034d565b6161fe565b611be7610301565b91829182611bac565b0390f35b610307565b90602082820312611c1257611c0f915f0161078c565b90565b61030b565b60051115611c2157565b611037565b90611c3082611c17565b565b611c3b90611c26565b90565b611c4790611c32565b9052565b9194611c9760a094989795611c8d611c82611ca195611ca89a611c7560c08a01925f8b0190610d62565b88820360208a0152610a4a565b9a6040870190611c3e565b6060850190610401565b6080830190610401565b01906104aa565b565b34611ce157611cdd611cc5611cc0366004611bf9565b6163a3565b92611cd4969496929192610301565b96879687611c4b565b0390f35b610307565b90611cf090610396565b5f5260205260405f2090565b60ff1690565b611d0e611d1391610c38565b611cfc565b90565b611d209054611d02565b90565b611d2e906003611ce6565b611d395f8201611d16565b91611d4660018301610c7d565b91611d5360028201610c9e565b91611d6c6004611d65600385016109df565b9301610cc2565b90565b60051115611d7957565b611037565b90611d8882611d6f565b565b611d9390611d7e565b90565b611d9f90611d8a565b9052565b611df194611ddc82989795611dd2608096611dc8611de9975f60a08901980190611d96565b60208c0190610401565b60408a01906104aa565b8782036060890152610a4a565b9401906107f9565b565b34611e2757611e23611e0e611e0936600461034d565b611d23565b91611e1a959395610301565b95869586611da3565b0390f35b610307565b7fbd6c01bd09485228a1b6e2f82797067ffa0e38468d139cd167844c36a589c62a90565b611e58611e2c565b90565b34611e8b57611e6b36600461136d565b611e87611e76611e50565b611e7e610301565b91829182610806565b0390f35b610307565b34611ebf57611ea9611ea3366004610b4b565b90616466565b611eb1610301565b80611ebb81610655565b0390f35b610307565b60051115611ece57565b5f80fd5b90503590611edf82611ec4565b565b90608082820312611f5357611ef8815f840161078c565b92611f068260208501611ed2565b92604081013567ffffffffffffffff8111611f4e5783611f27918301610755565b92606082013567ffffffffffffffff8111611f4957611f469201610755565b90565b61030f565b61030f565b61030b565b34611f8a57611f74611f6b366004611ee1565b92919091616852565b611f7c610301565b80611f8681610655565b0390f35b610307565b611fa3611f9e611fa8926103fe565b61036b565b6103fe565b90565b90611fb590611f8f565b5f5260205260405f2090565b60ff1690565b611fd3611fd891610c38565b611fc1565b90565b611fe59054611fc7565b90565b611ff3906004611fab565b90611fff5f8301610c7d565b9161200c60018201610c5c565b91612019600283016109df565b91612026600382016109df565b91612033600483016109df565b9161204060058201610c7d565b9161204d60068301610c7d565b9161205a60078201611fdb565b91612067600883016109df565b91612074600982016109df565b91612081600a8301610c5c565b9161208e600b8201610c7d565b916120a7600d6120a0600c8501610c9e565b9301610cc2565b90565b9992986101a09b9f9e9c96916121919e9961214161217f9a60c08f61218a9f61212f6121749d6121216121689e61211361214b9b6121599f9661210661213a986120fc6101c08c01945f8d0190610401565b60208b0190610d62565b88820360408a0152610a4a565b908682036060880152610a4a565b908482036080860152610a4a565b9860a0830190610401565b0190610401565b60e08d0190611c3e565b8a82036101008c0152610a4a565b908882036101208a0152610a4a565b9a610140870190610d62565b610160850190610401565b6101808301906104aa565b01906107f9565b565b346121d6576121d26121ae6121a9366004611bf9565b611fe8565b9a6121c99e9c9e9a919a999299989398979497969596610301565b9e8f9e8f6120aa565b0390f35b610307565b60018060a01b031690565b6121f69060086121fb93026103b8565b6121db565b90565b9061220991546121e6565b90565b612218600c5f906121fe565b90565b6122249061038a565b90565b6122309061221b565b9052565b9190612247905f60208501940190612227565b565b346122795761225936600461136d565b61227561226461220c565b61226c610301565b91829182612234565b0390f35b610307565b61228790610611565b90565b906122949061227e565b5f5260205260405f2090565b6122ab90600761228a565b906122b75f8301610c5c565b916122c4600182016109df565b916122d160028301610cc2565b916122de60038201610c7d565b916122eb60048301610c7d565b916122f860058201610c9e565b91612311600761230a60068501610cc2565b9301610c9e565b90565b939561237460e09661236a612388969c9b996123606123558a61238f9e9961234761237e9a5f6101008501940190610d62565b8c6020818403910152610a4a565b9e60408b01906107f9565b6060890190610401565b6080870190610401565b60a08501906104aa565b60c08301906107f9565b01906104aa565b565b346123cb576123c76123ac6123a7366004610637565b6122a0565b946123be989698949194939293610301565b98899889612314565b0390f35b610307565b7feea5ee44c61852da3f87e3db5e7e2e355de9207e7f7bcb7ed0308d5c8561860390565b6123fc6123d0565b90565b3461242f5761240f36600461136d565b61242b61241a6123f4565b612422610301565b91829182610806565b0390f35b610307565b61244a906124456009915f92610501565b610535565b90565b3461247d5761247961246861246336600461034d565b612434565b612470610301565b918291826104b7565b0390f35b610307565b5f80fd5b5f90565b612492612486565b50806124ad6124a7637965db0b60e01b610458565b91610458565b149081156124ba575b5090565b6124c49150616860565b5f6124b6565b906124d4906104a5565b9052565b906124e2906103fe565b9052565b52565b906124f390610611565b9052565b61250160e06106dc565b90565b906125b36125aa60066125156124f7565b9461252c6125245f8301610c9e565b5f88016124ca565b61254461253b60018301610c7d565b602088016124d8565b61255c61255360028301610c7d565b604088016124d8565b61257461256b600383016109df565b606088016124e6565b61258c61258360048301610cc2565b608088016124e9565b6125a461259b60058301610c9e565b60a088016124ca565b01610c7d565b60c084016124d8565b565b6125be90612504565b90565b6125cb90516104a5565b90565b6125f3916125e96125ee926125e1612486565b506002611021565b611072565b6125b5565b6125fe5f82016125c1565b9081612609575b5090565b612620915060a061261a91016125c1565b156104a5565b5f612605565b90565b61263d61263861264292611a1a565b61036b565b610313565b90565b61264e90612629565b90565b5f7f50726f6f66207265717565737420646f6573206e6f7420657869737400000000910152565b612685601c602092610a36565b61268e81612651565b0190565b6126a79060208101905f818303910152612678565b90565b156126b157565b6126b9610301565b62461bcd60e51b8152806126cf60048201612692565b0390fd5b5f7f50726f6f66206e6f7420636f6d706c6574656400000000000000000000000000910152565b6127076013602092610a36565b612710816126d3565b0190565b6127299060208101905f8183039101526126fa565b90565b1561273357565b61273b610301565b62461bcd60e51b81528061275160048201612714565b0390fd5b5f7f50726f6f6620616c7265616479207265766f6b65640000000000000000000000910152565b6127896015602092610a36565b61279281612755565b0190565b6127ab9060208101905f81830391015261277c565b90565b156127b557565b6127bd610301565b62461bcd60e51b8152806127d360048201612796565b0390fd5b906127e360ff91611a1d565b9181191691161790565b6127f6906104a5565b90565b90565b9061281161280c612818926127ed565b6127f9565b82546127d7565b9055565b61282861282d91610c38565b6121db565b90565b61283a905461281c565b90565b90565b61284c61285191610611565b61283d565b9052565b61286181602093612840565b0190565b60200190565b5190565b5f80fd5b60e01b90565b5f91031261288357565b61030b565b5f7f5a4b5f50524f4f465f5245564f4b454400000000000000000000000000000000910152565b6128bc6010602092610a36565b6128c581612888565b0190565b9160406128fa9294936128f36128e8606083018381035f8501526128af565b966020830190610d62565b01906107f9565b565b612904610301565b3d5f823e3d90fd5b61298e61292361291e6007849061228a565b612626565b6129526129315f8301610c5c565b61294b6129456129405f612645565b61031e565b9161031e565b14156126aa565b61296661296160058301610c9e565b61272c565b61298361297e61297860078401610c9e565b156104a5565b6127ae565b6007600191016127fc565b6129a061299b600c612830565b61221b565b90635260590a906129c36129d233926129b7610301565b92839160208301612855565b602082018103825203826106b3565b6129e46129de8261286b565b91612865565b2092803b15612a5857612a0a5f8094612a156129fe610301565b97889687958694612873565b8452600484016128c9565b03925af18015612a5357612a27575b50565b612a46905f3d8111612a4c575b612a3e81836106b3565b810190612879565b5f612a24565b503d612a34565b6128fc565b61286f565b5f90565b5f7f496e76616c696420757365720000000000000000000000000000000000000000910152565b612a95600c602092610a36565b612a9e81612a61565b0190565b612ab79060208101905f818303910152612a88565b90565b15612ac157565b612ac9610301565b62461bcd60e51b815280612adf60048201612aa2565b0390fd5b90565b612afa612af5612aff92611a1a565b61036b565b6103fe565b90565b5f7f50726f6f66207479706520726571756972656400000000000000000000000000910152565b612b366013602092610a36565b612b3f81612b02565b0190565b612b589060208101905f818303910152612b29565b90565b15612b6257565b612b6a610301565b62461bcd60e51b815280612b8060048201612b43565b0390fd5b5f7f4e6f20636f6e73656e7420666f72205a4b2070726f6f66000000000000000000910152565b612bb86017602092610a36565b612bc181612b84565b0190565b612bda9060208101905f818303910152612bab565b90565b15612be457565b612bec610301565b62461bcd60e51b815280612c0260048201612bc5565b0390fd5b60601b90565b612c1590612c06565b90565b612c2190612c0c565b90565b612c30612c359161031e565b612c18565b9052565b905090565b612c63612c5a92602092612c5181610a32565b94858093612c39565b93849101610a3f565b0190565b90565b612c76612c7b916103fe565b612c67565b9052565b612cb0612cbf946014602098979495612ca98286612ca1612cb7988e9b612c24565b018092612c24565b0190612c3e565b8092612840565b018092612c6a565b0190565b634e487b7160e01b5f52601160045260245ffd5b612ce6612cec919392936103fe565b926103fe565b8201809211612cf757565b612cc3565b612d076101006106dc565b90565b90612d149061031e565b9052565b612d22905161031e565b90565b90612d3660018060a01b0391611a1d565b9181191691161790565b90565b90612d58612d53612d5f92610396565b612d40565b8254612d25565b9055565b5190565b601f602091010490565b1b90565b91906008612d90910291612d8a5f1984612d71565b92612d71565b9181191691161790565b90565b9190612db3612dae612dbb93611f8f565b612d9a565b908354612d75565b9055565b5f90565b612dd591612dcf612dbf565b91612d9d565b565b5b818110612de3575050565b80612df05f600193612dc3565b01612dd8565b9190601f8111612e06575b505050565b612e12612e379361093d565b906020612e1e84612d67565b83019310612e3f575b612e3090612d67565b0190612dd7565b5f8080612e01565b9150612e3081929050612e27565b90612e5d905f19906008026103b8565b191690565b81612e6c91612e4d565b906002021790565b90612e7e81610a32565b9067ffffffffffffffff8211612f3e57612ea282612e9c855461090a565b85612df6565b602090601f8311600114612ed657918091612ec5935f92612eca575b5050612e62565b90555b565b90915001515f80612ebe565b601f19831691612ee58561093d565b925f5b818110612f2657509160029391856001969410612f0c575b50505002019055612ec8565b612f1c910151601f841690612e4d565b90555f8080612f00565b91936020600181928787015181550195019201612ee8565b61069f565b90612f4d91612e74565b565b612f599051610611565b90565b90612f685f1991611a1d565b9181191691161790565b612f7b90610c38565b90565b90612f93612f8e612f9a9261227e565b612f72565b8254612f5c565b9055565b612fa890516103fe565b90565b90612fc0612fbb612fc792611f8f565b612d9a565b8254612f5c565b9055565b9061308c60e0600761309294612fee5f8201612fe85f8801612d18565b90612d43565b6130076001820161300160208801612d63565b90612f43565b6130206002820161301a60408801612f4f565b90612f7e565b6130396003820161303360608801612f9e565b90612fab565b6130526004820161304c60808801612f9e565b90612fab565b61306b6005820161306560a088016125c1565b906127fc565b6130846006820161307e60c08801612f4f565b90612f7e565b0192016125c1565b906127fc565b565b9061309e91612fcb565b565b90565b5f5260205f2090565b5490565b6130b9816130ac565b8210156130d3576130cb6001916130a3565b910201905f90565b610bef565b91906130ee6130e96130f69361227e565b612f72565b908354612d75565b9055565b908154916801000000000000000083101561312a5782613122916001613128950181556130b0565b906130d8565b565b61069f565b806131406020926131479594612840565b0190612c3e565b90565b5f7f5a4b5f50524f4f465f5245515545535445440000000000000000000000000000910152565b61317e6012602092610a36565b6131878161314a565b0190565b9160406131bc9294936131b56131aa606083018381035f850152613171565b966020830190610d62565b01906107f9565b565b9091926131c9612a5d565b50815f6131d590612645565b6131de9061031e565b906131e89061031e565b14156131f390612aba565b826131fd90612ae3565b6132069061286b565b5f61321090612ae6565b9061321a906103fe565b1161322490612b5b565b8161322e906168e2565b61323790612bdd565b81338491864290613246610301565b948594602086019461325795612c7f565b60208201810382520361326a90826106b3565b6132738161286b565b9061327d90612865565b209333918491904290429061329191612cd7565b5f915f61329d90611a22565b935f956132a8612cfc565b975f8901906132b691612d0a565b60208801906132c4916124e6565b60408701906132d2916124e9565b60608601906132e0916124d8565b60808501906132ee916124d8565b60a08401906132fc916124ca565b60c083019061330a916124e9565b60e0820190613318916124ca565b6007846133249161228a565b9061332e91613094565b60088161333a9161148d565b613343906130a0565b8361334d916130fa565b613357600c612830565b6133609061221b565b90635260590a908484613371610301565b91829160208301916133829261312f565b60208201810382520361339590826106b3565b61339e8161286b565b906133a890612865565b2092803b1561346d576133ce5f80946133d96133c2610301565b97889687958694612873565b84526004840161318b565b03925af180156134685761343c575b50819033909161343661342461341e7fe54973e05bbd6f16c050a28904c41801e1509418b42345040fbf98192df3574d9361227e565b93610396565b9361342d610301565b91829182610a7b565b0390a390565b61345b905f3d8111613461575b61345381836106b3565b810190612879565b5f6133e8565b503d613449565b6128fc565b61286f565b9061348c91613487613482611e2c565b61696d565b613502565b565b5f7f4a5552495344494354494f4e5f53455400000000000000000000000000000000910152565b6134c26010602092610a36565b6134cb8161348e565b0190565b9160406135009294936134f96134ee606083018381035f8501526134b5565b966020830190610d62565b01906107f9565b565b61351782613512600a84906108cd565b612f43565b61358b61352383612ae3565b61353561352f8261286b565b91612865565b20806135696135637faef300f897e319d4eccbf3de51155aca9189c469356c1058d5ec6f354eadc64a610611565b91610611565b148015613673575b908115613638575b5061358660098490610501565b6127fc565b61359d613598600c612830565b61221b565b916135ad635260590a9291612ae3565b6135bf6135b98261286b565b91612865565b2092803b15613633576135e55f80946135f06135d9610301565b97889687958694612873565b8452600484016134cf565b03925af1801561362e57613602575b50565b613621905f3d8111613627575b61361981836106b3565b810190612879565b5f6135ff565b503d61360f565b6128fc565b61286f565b905061366c6136667fd49647753fc79506ab30ad1d6323678cbc3d066ef33f73575b77d8eedffaae86610611565b91610611565b145f613579565b50806136a76136a17fa598b232ce55f8f24bea191f06b53f4fa65a36c3aa9b7660732afb7c8c3654e0610611565b91610611565b14613571565b906136b791613472565b565b906136c39061227e565b5f5260205260405f2090565b60016136e76136ed926136e0612a5d565b505f6136b9565b01610cc2565b90565b9061370b91613706613701826136cf565b61696d565b61370d565b565b9061371791616981565b50565b90613724916136f0565b565b908061374161373b613736616a2c565b61031e565b9161031e565b036137525761374f91616a39565b50565b5f63334bd91960e11b81528061376a60048201610655565b0390fd5b90565b9061378361377e836106f1565b6106dc565b918252565b5f7f434f4e53454e545f57495448445241574e000000000000000000000000000000910152565b6137b96011613771565b906137c660208301613788565b565b6137d06137af565b90565b5f7f434f4e53454e545f4752414e5445440000000000000000000000000000000000910152565b613804600f613771565b90613811602083016137d3565b565b61381b6137fa565b90565b6138279061105a565b90565b60208161383c61384493839695612c6a565b018092612840565b0190565b60409061387461386961387b9597969460608401908482035f860152610a4a565b966020830190610d62565b01906107f9565b565b6138869061105a565b90565b6138929061387d565b9052565b9160206138b79294936138b060408201965f830190613889565b01906104aa565b565b91906138cc905f60208501940190613889565b565b9290916139156138f26138ed6138e660023390611021565b8790611072565b61376e565b916138ff855f85016127fc565b61390c4260028501612fab565b60038301612f43565b6139228260048301612f7e565b8280613b2c575b613b1a575b61393883156104a5565b5f14613af25761395a906139506001600583016127fc565b6006429101612fab565b5b61396d613968600c612830565b61221b565b635260590a90835f14613ae457613982613813565b905b33936139b86139928861381e565b6139a961399d610301565b9384926020840161382a565b602082018103825203826106b3565b6139ca6139c48261286b565b91612865565b2092813b15613adf575f6139f1916139fc82966139e5610301565b98899788968795612873565b855260048501613848565b03925af18015613ada57613aae575b50613a1681156104a5565b5f14613a63575033613a5d613a4b7f6824dcf72cfdf969172fc5a89a61a26d1d8d1ae7660b7a845e089bc192b1595692610396565b92613a54610301565b918291826138b9565b0390a25b565b90339091613a917f0e1ddf55b98548b0ee7d963b03b0bc5defe18acd38ef369702a00f62ff77e73a92610396565b92613aa6613a9d610301565b92839283613896565b0390a2613a61565b613acd905f3d8111613ad3575b613ac581836106b3565b810190612879565b5f613a0b565b503d613abb565b6128fc565b61286f565b613aec6137c8565b90613984565b613b1590613b035f600583016127fc565b6006613b0e5f612ae6565b9101612fab565b61395b565b613b274260018301612fab565b61392e565b50613b3960018201610c7d565b613b4b613b455f612ae6565b916103fe565b14613929565b6001613b5d91016103fe565b90565b5190565b90613b6e82613b60565b811015613b7f576020809102010190565b610bef565b90613b8e90611d7e565b9052565b613b9c60a06106dc565b90565b90613c1e613c156004613bb0613b92565b94613bc7613bbf5f8301611d16565b5f8801613b84565b613bdf613bd660018301610c7d565b602088016124d8565b613bf7613bee60028301610c9e565b604088016124ca565b613c0f613c06600383016109df565b606088016124e6565b01610cc2565b608084016124e9565b565b613c2990613b9f565b90565b613c35906103fe565b5f198114613c435760010190565b612cc3565b90565b613c5f613c5a613c6492613c48565b61036b565b6103fe565b90565b5f7f6175746f5f657261737572650000000000000000000000000000000000000000910152565b613c9a600c8092612c39565b613ca381613c67565b0190565b91613cc5602084613cbd613ccb96601496612c6a565b018092612c24565b01613c8e565b90565b613cd96101c06106dc565b90565b5f7f6572617375726500000000000000000000000000000000000000000000000000910152565b613d0d6007613771565b90613d1a60208301613cdc565b565b613d24613d03565b90565b5f7f4175746f6d61746963206461746120726574656e74696f6e2065787069727900910152565b613d58601f613771565b90613d6560208301613d27565b565b613d6f613d4e565b90565b613d7b5f613771565b90565b613d86613d72565b90565b90613d9390611c26565b9052565b613da19051611c26565b90565b613dad90611c26565b90565b90565b90613dc8613dc3613dcf92613da4565b613db0565b82546127d7565b9055565b90613f306101a0600d613f3694613df75f8201613df15f8801612f9e565b90612fab565b613e1060018201613e0a60208801612d18565b90612d43565b613e2960028201613e2360408801612d63565b90612f43565b613e4260038201613e3c60608801612d63565b90612f43565b613e5b60048201613e5560808801612d63565b90612f43565b613e7460058201613e6e60a08801612f9e565b90612fab565b613e8d60068201613e8760c08801612f9e565b90612fab565b613ea660078201613ea060e08801613d97565b90613db3565b613ec060088201613eba6101008801612d63565b90612f43565b613eda60098201613ed46101208801612d63565b90612f43565b613ef4600a8201613eee6101408801612d18565b90612d43565b613f0e600b8201613f086101608801612f9e565b90612fab565b613f28600c8201613f2261018088016125c1565b906127fc565b019201612f4f565b90612f7e565b565b90613f4291613dd3565b565b90565b5f5260205f2090565b5490565b613f5d81613f50565b821015613f7757613f6f600191613f47565b910201905f90565b610bef565b9081549168010000000000000000831015613fac5782613fa4916001613faa95018155613f54565b90612d9d565b565b61069f565b613fbe6007602092610a36565b613fc781613cdc565b0190565b613fe09060208101905f818303910152613fb1565b90565b613fec5f612ae6565b5b80614008614002613ffd85613b60565b6103fe565b916103fe565b10156142cf5761402161401c838390613b64565b612d18565b61403561403060038390611ce6565b613c20565b614041604082016125c1565b806142aa575b9081614283575b50614063575b5061405e90613b51565b613fed565b61406d600b610c7d565b61407690613c2c565b61408190600b612fab565b61408b600b610c7d565b8082424262093a8061409c90613c4b565b6140a591612cd7565b5f5f6140b090612645565b905f92600194888a6140c0610301565b91829160208301916140d192613ca7565b6020820181038252036140e490826106b3565b6140ed8161286b565b906140f790612865565b2096614101613cce565b985f8a019061410f916124d8565b602089019061411d91612d0a565b614125613d1c565b6040890190614133916124e6565b61413b613d67565b6060890190614149916124e6565b614151613d7e565b608089019061415f916124e6565b60a088019061416d916124d8565b60c087019061417b916124d8565b60e086019061418991613d89565b614191613d7e565b6101008601906141a0916124e6565b6141a8613d7e565b6101208601906141b7916124e6565b6101408501906141c691612d0a565b6141cf90612ae6565b6101608401906141de916124d8565b6101808301906141ed916124ca565b6101a08201906141fc916124e9565b60048261420891611fab565b9061421291613f38565b60058261421e91610eb2565b61422790613f44565b8161423191613f7c565b907fbebbe74432ea4603353fe99f43ff8062acead7c2306f3bd2e5234126d722cd609161425d90611f8f565b9061426790610396565b91614270610301565b8061427a81613fcb565b0390a35f614054565b90506142a361429d6142986020429401612f9e565b6103fe565b916103fe565b115f61404e565b506142b760208201612f9e565b6142c96142c35f612ae6565b916103fe565b11614047565b5050565b5f7f5265717565737420747970652072657175697265640000000000000000000000910152565b6143076015602092610a36565b614310816142d3565b0190565b6143299060208101905f8183039101526142fa565b90565b1561433357565b61433b610301565b62461bcd60e51b81528061435160048201614314565b0390fd5b5f7f4465736372697074696f6e207265717569726564000000000000000000000000910152565b6143896014602092610a36565b61439281614355565b0190565b6143ab9060208101905f81830391015261437c565b90565b156143b557565b6143bd610301565b62461bcd60e51b8152806143d360048201614396565b0390fd5b5f7f496e76616c696420726571756573742074797065000000000000000000000000910152565b61440b6014602092610a36565b614414816143d7565b0190565b61442d9060208101905f8183039101526143fe565b90565b1561443757565b61443f610301565b62461bcd60e51b81528061445560048201614418565b0390fd5b6144839261447c6020836144746014956144899a9997612c6a565b018092612c24565b0190612c3e565b90612c3e565b90565b60f81b90565b61449b9061448c565b90565b6144a790614492565b90565b6144b66144bb916104a5565b61449e565b9052565b600193926020826144d66144dd946144e496612c6a565b0190612c3e565b80926144aa565b0190565b5f7f505249564143595f524551554553545f43524541544544000000000000000000910152565b61451c6017602092610a36565b614525816144e8565b0190565b91604061455a929493614553614548606083018381035f85015261450f565b966020830190610d62565b01906107f9565b565b919290614567612dbf565b5061459461457c61457785612ae3565b61286b565b61458e6145885f612ae6565b916103fe565b1161432c565b6145c06145a86145a383612ae3565b61286b565b6145ba6145b45f612ae6565b916103fe565b116143ae565b6146366145cc84612ae3565b6145de6145d88261286b565b91612865565b208061461261460c7f83c54411b96c143f207b96cb5e04900ba028bd92a8d1af95482e6c161335d959610611565b91610611565b148015614a23575b80156149e9575b80156149af575b908115614974575b50614430565b61465261464b614646600b610c7d565b613c2c565b600b612fab565b61465c600b610c7d565b9361467161466c60093390610501565b610c9e565b5f1461495c578461468a4261468461143e565b90612cd7565b5b928461493e575b8193339387918391904290915f935f6146aa90612645565b955f978d8d9a3391926146bb610301565b93849360208501936146cc94614459565b6020820181038252036146df90826106b3565b6146e88161286b565b906146f290612865565b20996146fc613cce565b9b5f8d019061470a916124d8565b60208c019061471891612d0a565b60408b0190614726916124e6565b60608a0190614734916124e6565b6080890190614742916124e6565b60a0880190614750916124d8565b60c087019061475e916124d8565b60e086019061476c91613d89565b614774613d7e565b610100860190614783916124e6565b61478b613d7e565b61012086019061479a916124e6565b6101408501906147a991612d0a565b6147b290612ae6565b6101608401906147c1916124d8565b6101808301906147d0916124ca565b6101a08201906147df916124e9565b6004846147eb91611fab565b906147f591613f38565b60053361480191610eb2565b61480a90613f44565b8361481491613f7c565b61481e600c612830565b6148279061221b565b90635260590a903390859085909161483d610301565b928392602084019261484e936144bf565b60208201810382520361486190826106b3565b61486a8161286b565b9061487490612865565b2092803b156149395761489a5f80946148a561488e610301565b97889687958694612873565b845260048401614529565b03925af1801561493457614908575b5081903390916149026148f06148ea7fbebbe74432ea4603353fe99f43ff8062acead7c2306f3bd2e5234126d722cd6093611f8f565b93610396565b936148f9610301565b91829182610a7b565b0390a390565b614927905f3d811161492d575b61491f81836106b3565b810190612879565b5f6148b4565b503d614915565b6128fc565b61286f565b92506149564261495062093a80613c4b565b90612cd7565b92614692565b8461496f426149696116f2565b90612cd7565b61468b565b90506149a86149a27f5e0e6a61774f52773b52aa0489e927731048aa494ac6c1eb9a2205da8231dada610611565b91610611565b145f614630565b50806149e36149dd7fd93bf5c102f0a256b230a46076ec4a5c456714af822469024884fe6cbdda13b1610611565b91610611565b14614628565b5080614a1d614a177f43d343f946d7cff1e09909f4be980fa90db20e18ae440ec70c2d26bd82ad23b8610611565b91610611565b14614621565b5080614a57614a517f8bb2362d18ca1b9d6dbc55f0a8454b636160cdc8b104d69498ec493a1b61f114610611565b91610611565b1461461a565b606090565b60209181520190565b614a759054610c69565b90565b60010190565b90614a9b614a95614a8e84610ec8565b8093614a62565b92610ecc565b905f5b818110614aab5750505090565b909192614acb614ac5600192614ac087614a6b565b611589565b94614a78565b9101919091614a9e565b90614adf91614a7e565b90565b90614b02614afb92614af2610301565b93848092614ad5565b03836106b3565b565b614b0d90614ae2565b90565b614b27614b2c91614b1f614a5d565b506005610eb2565b614b04565b90565b5f7f50726f6f66207265717565737420657870697265640000000000000000000000910152565b614b636015602092610a36565b614b6c81614b2f565b0190565b614b859060208101905f818303910152614b56565b90565b15614b8f57565b614b97610301565b62461bcd60e51b815280614bad60048201614b70565b0390fd5b5f7f50726f6f6620616c72656164792067656e657261746564000000000000000000910152565b614be56017602092610a36565b614bee81614bb1565b0190565b614c079060208101905f818303910152614bd8565b90565b15614c1157565b614c19610301565b62461bcd60e51b815280614c2f60048201614bf2565b0390fd5b602081614c45614c4d93839695612840565b018092612840565b0190565b5f7f5a4b5f50524f4f465f47454e4552415445440000000000000000000000000000910152565b614c856012602092610a36565b614c8e81614c51565b0190565b916040614cc3929493614cbc614cb1606083018381035f850152614c78565b966020830190610d62565b01906107f9565b565b614d68614cdc614cd76007849061228a565b612626565b614d0b614cea5f8301610c5c565b614d04614cfe614cf95f612645565b61031e565b9161031e565b14156126aa565b614d3342614d2c614d26614d2160048601610c7d565b6103fe565b916103fe565b1115614b88565b614d50614d4b614d4560058401610c9e565b156104a5565b614c0a565b614d5e6001600583016127fc565b6006849101612f7e565b614d7a614d75600c612830565b61221b565b635260590a3383614dac8691614d9d614d91610301565b93849260208401614c33565b602082018103825203826106b3565b614dbe614db88261286b565b91612865565b2092803b15614e7457614de45f8094614def614dd8610301565b97889687958694612873565b845260048401614c92565b03925af18015614e6f57614e43575b50614e3e614e2c7f05977dad5a4b58a3da7f910f82dd58e4e256c5da41b785c53cb17b860aead27e9261227e565b92614e35610301565b91829182610806565b0390a2565b614e62905f3d8111614e68575b614e5a81836106b3565b810190612879565b5f614dfe565b503d614e50565b6128fc565b61286f565b614e846101006106dc565b90565b90614f4e614f456007614e98614e79565b94614eaf614ea75f8301610c5c565b5f8801612d0a565b614ec7614ebe600183016109df565b602088016124e6565b614edf614ed660028301610cc2565b604088016124e9565b614ef7614eee60038301610c7d565b606088016124d8565b614f0f614f0660048301610c7d565b608088016124d8565b614f27614f1e60058301610c9e565b60a088016124ca565b614f3f614f3660068301610cc2565b60c088016124e9565b01610c9e565b60e084016124ca565b565b614f5990614e87565b90565b614f73614f7891614f6b612486565b50600761228a565b614f50565b614f8460a082016125c1565b80614fbd575b9081614f95575b5090565b9050614fb5614faf614faa6080429401612f9e565b6103fe565b916103fe565b11155f614f91565b50614fd3614fcd60e083016125c1565b156104a5565b614f8a565b90614ff291614fed614fe86123d0565b61696d565b615083565b565b8061500560149261500c9594612c24565b0190612c3e565b90565b5f7f444154415f414343455353454400000000000000000000000000000000000000910152565b615043600d602092610a36565b61504c8161500f565b0190565b91604061508192949361507a61506f606083018381035f850152615036565b966020830190610d62565b01906107f9565b565b6150a9615092601083906103a2565b6150a361509e82610c7d565b613c2c565b90612fab565b6150be426150b9601184906103a2565b612fab565b6150d06150cb600c612830565b61221b565b635260590a823361510286916150f36150e7610301565b93849260208401614ff4565b602082018103825203826106b3565b61511461510e8261286b565b91612865565b2092803b156151d75761513a5f809461514561512e610301565b97889687958694612873565b845260048401615050565b03925af180156151d2576151a6575b50903390916151a161518f6151897f12abedcfdd4a1300023d904a4b308667c299ac2c0563ecd04c53d230eb27938a93610396565b93610396565b93615198610301565b91829182610a7b565b0390a3565b6151c5905f3d81116151cb575b6151bd81836106b3565b810190612879565b5f615154565b503d6151b3565b6128fc565b61286f565b906151e691614fd8565b565b61520e915f615203615209936151fc612486565b50826136b9565b01610501565b610c9e565b90565b9061522f959493929161522a6152256123d0565b61696d565b6158a1565b565b5f7f496e76616c696420616464726573736573000000000000000000000000000000910152565b6152656011602092610a36565b61526e81615231565b0190565b6152879060208101905f818303910152615258565b90565b1561529157565b615299610301565b62461bcd60e51b8152806152af60048201615272565b0390fd5b5190565b5f7f44617461206669656c6473207265717569726564000000000000000000000000910152565b6152eb6014602092610a36565b6152f4816152b7565b0190565b61530d9060208101905f8183039101526152de565b90565b1561531757565b61531f610301565b62461bcd60e51b815280615335600482016152f8565b0390fd5b5f7f4e6f20636f6e73656e7420666f7220646973636c6f7375726500000000000000910152565b61536d6019602092610a36565b61537681615339565b0190565b61538f9060208101905f818303910152615360565b90565b1561539957565b6153a1610301565b62461bcd60e51b8152806153b76004820161537a565b0390fd5b9260146153ed936153df82876153d760209a996153e698612c24565b018092612c24565b0190612c3e565b8092612c6a565b0190565b6153fc6101206106dc565b90565b52565b90565b5f5260205f2090565b5490565b61541b8161540e565b8210156154355761542d600991615405565b910201905f90565b610bef565b5190565b60200190565b5490565b600190818003010490565b5f5260205f2090565b9061546f905f19906020036008026103b8565b8154169055565b905f9161548d6154858261093d565b928354612e62565b905555565b919290602082105f146154eb57601f84116001146154bb576154b5929350612e62565b90555b5b565b50906154e16154e69360016154d86154d28561093d565b92612d67565b82019101612dd7565b615476565b6154b8565b5061552282936154fc60019461093d565b61551b61550885612d67565b820192601f86168061552d575b50612d67565b0190612dd7565b6002021790556154b9565b6155399088860361545c565b5f615515565b92909168010000000000000000821161559f576020115f1461559057602081105f146155745761556e91612e62565b90555b5b565b60019160ff19166155848461093d565b55600202019055615571565b60019150600202019055615572565b61069f565b9081546155b08161090a565b908183116155d9575b8183106155c7575b50505050565b6155d093615492565b5f8080806155c1565b6155e58383838761553f565b6155b9565b5f6155f4916155a4565b565b905f0361560857615606906155ea565b565b6108e3565b5b818110615619575050565b806156265f6001936155f6565b0161560e565b909182811061563b575b505050565b61565961565361564d61566495615448565b92615448565b92615453565b91820191019061560d565b5f8080615636565b90680100000000000000008111615695578161568a61569393615444565b9082815561562c565b565b61069f565b6156bf6156b96156a9846152b3565b936156b4858561566c565b61543e565b91615453565b5f915b8383106156cf5750505050565b60016020826156e76156e18495612d63565b86612f43565b019201920191906156c2565b906156fd9161569a565b565b906157da61010060086157e0946157235f820161571d5f8801612d18565b90612d43565b61573c600182016157366020880161543a565b906156f3565b6157556002820161574f60408801612d18565b90612d43565b61576e6003820161576860608801612d63565b90612f43565b6157876004820161578160808801612f9e565b90612fab565b6157a06005820161579a60a08801612f9e565b90612fab565b6157b9600682016157b360c088016125c1565b906127fc565b6157d2600782016157cc60e08801612f4f565b90612f7e565b019201612d63565b90612f43565b565b91906157f3576157f1916156ff565b565b6108e3565b9081549168010000000000000000831015615828578261582091600161582695018155615412565b906157e2565b565b61069f565b5f7f444154415f444953434c4f534544000000000000000000000000000000000000910152565b615861600e602092610a36565b61586a8161582d565b0190565b91604061589f92949361589861588d606083018381035f850152615854565b966020830190610d62565b01906107f9565b565b9293909194836158c16158bb6158b65f612645565b61031e565b9161031e565b141580615b34575b6158d29061528a565b826158dc906152b3565b5f6158e690612ae6565b906158f0906103fe565b116158fa90615310565b838561590591616ada565b61590e90615392565b839291869086904290429061592291612cd7565b91600193888b8b9142615933610301565b9384936020850193615944946153bb565b60208201810382520361595790826106b3565b6159608161286b565b9061596a90612865565b2095966159756153f1565b985f8a019061598391612d0a565b6020890190615991916153ff565b604088019061599f91612d0a565b60608701906159ad916124e6565b60808601906159bb916124d8565b60a08501906159c9916124d8565b60c08401906159d7916124ca565b60e08301906159e5916124e9565b6101008201906159f4916124e6565b600682615a0091610bd9565b615a0990615402565b90615a13916157f8565b615a1d600c612830565b615a269061221b565b635260590a828585615a36610301565b9182916020830191615a4792614ff4565b602082018103825203615a5a90826106b3565b615a638161286b565b90615a6d90612865565b2092803b15615b2f57615a935f8094615a9e615a87610301565b97889687958694612873565b84526004840161586e565b03925af18015615b2a57615afe575b50919091615af9615ae7615ae17f2567a397ed8f38b115805052f3ce31e211c5122fa128c6727b3c1669cfb610c593610396565b93610396565b93615af0610301565b91829182610a7b565b0390a3565b615b1d905f3d8111615b23575b615b1581836106b3565b810190612879565b5f615aad565b503d615b0b565b6128fc565b61286f565b506158d286615b53615b4d615b485f612645565b61031e565b9161031e565b141590506158c9565b90615b6a9594939291615211565b565b615b7590611d7e565b90565b602093928482615b8e615b9594615b9c96612c6a565b0190612c3e565b8092612c6a565b0190565b615baa60a06106dc565b90565b615bb79051611d7e565b90565b615bc390611d7e565b90565b90565b90615bde615bd9615be592615bba565b615bc6565b82546127d7565b9055565b90615c5f60806004615c6594615c0c5f8201615c065f8801615bad565b90615bc9565b615c2560018201615c1f60208801612f9e565b90612fab565b615c3e60028201615c38604088016125c1565b906127fc565b615c5760038201615c5160608801612d63565b90612f43565b019201612f4f565b90612f7e565b565b90615c7191615be9565b565b602081615c85615c8d93839695612c6a565b018092612c6a565b0190565b5f7f524554454e54494f4e5f504f4c4943595f534554000000000000000000000000910152565b615cc56014602092610a36565b615cce81615c91565b0190565b916040615d03929493615cfc615cf1606083018381035f850152615cb8565b966020830190610d62565b01906107f9565b565b9190615d18905f60208501940190611d96565b565b90615dcb615d2783616e34565b91615dba8491615db18591615da86001615d9f83615d6e615d478d615b6c565b615d5f42615d53610301565b94859360208501615b78565b602082018103825203826106b3565b615d80615d7a8261286b565b91612865565b2095615d96615d8d615ba0565b995f8b01613b84565b602089016124d8565b604087016124ca565b606085016124e6565b608083016124e9565b615dc660033390611ce6565b615c67565b615ddd615dd8600c612830565b61221b565b90635260590a903390615e18615df286615b6c565b615e09615dfd610301565b93849260208401615c73565b602082018103825203826106b3565b615e2a615e248261286b565b91612865565b2092803b15615ee157615e505f8094615e5b615e44610301565b97889687958694612873565b845260048401615cd2565b03925af18015615edc57615eb0575b5033615eab615e997fb06238043386dfdf02d70926b920bb7f63c65dcb44796f182f21b45899abac8b92610396565b92615ea2610301565b91829182615d05565b0390a2565b615ecf905f3d8111615ed5575b615ec781836106b3565b810190612879565b5f615e6a565b503d615ebd565b6128fc565b61286f565b5f7f50534555444f4e594d495a4154494f4e5f454e41424c45440000000000000000910152565b615f1a6018602092610a36565b615f2381615ee6565b0190565b916040615f58929493615f51615f46606083018381035f850152615f0d565b966020830190610d62565b01906107f9565b565b615f706001615f6b600f3390610501565b6127fc565b615f82615f7d600c612830565b61221b565b635260590a33615f915f611a22565b92803b1561600457615fb65f8094615fc1615faa610301565b97889687958694612873565b845260048401615f27565b03925af18015615fff57615fd3575b50565b615ff2905f3d8111615ff8575b615fea81836106b3565b810190612879565b5f615fd0565b503d615fe0565b6128fc565b61286f565b5f7f444154415f4d494e494d495a4154494f4e5f454e41424c454400000000000000910152565b61603d6019602092610a36565b61604681616009565b0190565b91604061607b929493616074616069606083018381035f850152616030565b966020830190610d62565b01906107f9565b565b616093600161608e600e3390610501565b6127fc565b6160a56160a0600c612830565b61221b565b635260590a336160b45f611a22565b92803b15616127576160d95f80946160e46160cd610301565b97889687958694612873565b84526004840161604a565b03925af18015616122576160f6575b50565b616115905f3d811161611b575b61610d81836106b3565b810190612879565b5f6160f3565b503d616103565b6128fc565b61286f565b6161436161489161613b612dbf565b506006610bd9565b610c03565b90565b606090565b60209181520190565b6161639054610cae565b90565b60010190565b9061618961618361617c846114a3565b8093616150565b926114a7565b905f5b8181106161995750505090565b9091926161b96161b36001926161ae87616159565b611b45565b94616166565b910191909161618c565b906161cd9161616c565b90565b906161f06161e9926161e0610301565b938480926161c3565b03836106b3565b565b6161fb906161d0565b90565b61621561621a9161620d61614b565b50600861148d565b6161f2565b90565b5f90565b606090565b5f90565b6162356101c06106dc565b90565b9061639561638b600d61624961622a565b946162606162585f8301610c7d565b5f88016124d8565b61627861626f60018301610c5c565b60208801612d0a565b616290616287600283016109df565b604088016124e6565b6162a861629f600383016109df565b606088016124e6565b6162c06162b7600483016109df565b608088016124e6565b6162d86162cf60058301610c7d565b60a088016124d8565b6162f06162e760068301610c7d565b60c088016124d8565b6163086162ff60078301611fdb565b60e08801613d89565b616321616317600883016109df565b61010088016124e6565b61633a616330600983016109df565b61012088016124e6565b616353616349600a8301610c5c565b6101408801612d0a565b61636c616362600b8301610c7d565b61016088016124d8565b61638561637b600c8301610c9e565b61018088016124ca565b01610cc2565b6101a084016124e9565b565b6163a090616238565b90565b6163e76163ec916163b261621d565b506163bb616221565b506163c4616226565b506163cd612dbf565b506163d6612dbf565b506163df612486565b506004611fab565b616397565b906163f960208301612d18565b9060408301519261640c60e08201613d97565b9261641960a08301612f9e565b9261643361018061642c60c08601612f9e565b94016125c1565b91959493929190565b906164579161645261644d826136cf565b61696d565b616459565b565b9061646391616a39565b50565b906164709161643c565b565b9061648e9392916164896164846123d0565b61696d565b61662c565b565b90565b5f7f5265717565737420646f6573206e6f7420657869737400000000000000000000910152565b6164c76016602092610a36565b6164d081616493565b0190565b6164e99060208101905f8183039101526164ba565b90565b156164f357565b6164fb610301565b62461bcd60e51b815280616511600482016164d4565b0390fd5b5f7f43616e6e6f742070726f63657373000000000000000000000000000000000000910152565b616549600e602092610a36565b61655281616515565b0190565b61656b9060208101905f81830391015261653c565b90565b1561657557565b61657d610301565b62461bcd60e51b81528061659360048201616556565b0390fd5b6165a090611c26565b90565b5f7f505249564143595f524551554553545f50524f43455353454400000000000000910152565b6165d76019602092610a36565b6165e0816165a3565b0190565b91604061661592949361660e616603606083018381035f8501526165ca565b966020830190610d62565b01906107f9565b565b919061662a905f60208501940190611c3e565b565b9190926166c0906166b761664a61664560048790611fab565b616490565b936166726166595f8701610c7d565b61666b6166655f612ae6565b916103fe565b14156164ec565b61667e60078601611fdb565b61669061668a5f611c26565b91611c26565b148015616827575b6166a19061656e565b6166ae8760078701613db3565b60088501612f43565b60098301612f43565b6166cd33600a8301612d43565b6166da42600b8301612fab565b826166ee6166e86002611c26565b91611c26565b14616819575b616706616701600c612830565b61221b565b906167186001635260590a9201610c5c565b8361674c61672587616597565b9161673d616731610301565b93849260208401615c73565b602082018103825203826106b3565b61675e6167588261286b565b91612865565b2092803b15616814576167845f809461678f616778610301565b97889687958694612873565b8452600484016165e4565b03925af1801561680f576167e3575b506167de6167cc7ffa874ccdd7bad7ae27379c9ba1e2591252a86950c38bca55b3a37356cf6a823792611f8f565b926167d5610301565b91829182616617565b0390a2565b616802905f3d8111616808575b6167fa81836106b3565b810190612879565b5f61679e565b503d6167f0565b6128fc565b61286f565b61682282616f16565b6166f4565b506166a161683760078701611fdb565b61684a6168446001611c26565b91611c26565b149050616698565b9061685e939291616472565b565b616868612486565b5061688261687c6301ffc9a760e01b610458565b91610458565b1490565b61688f9061038a565b90565b9050519061689f82610f68565b565b906020828203126168ba576168b7915f01616892565b90565b61030b565b9160206168e09294936168d960408201965f830190610d62565b0190613889565b565b6168ea612486565b5060206168f630616886565b63066a31fb92906169195f9461692461690d610301565b96879586948594612873565b8452600484016168bf565b03915afa908115616968575f9161693a575b5090565b61695b915060203d8111616961575b61695381836106b3565b8101906168a1565b5f616936565b503d616949565b6128fc565b61697f90616979616a2c565b90617025565b565b616989612486565b5061699e6169988284906151e8565b156104a5565b5f14616a26576169c560016169c05f6169b88186906136b9565b018590610501565b6127fc565b906169ce616a2c565b90616a0b616a056169ff7f2f8788117e7eff1d82e926ec794901d17c78024a50270940304540a733656f0d9561227e565b92610396565b92610396565b92616a14610301565b80616a1e81610655565b0390a4600190565b50505f90565b616a3461621d565b503390565b616a41612486565b50616a4d8183906151e8565b5f14616ad457616a735f616a6e5f616a668186906136b9565b018590610501565b6127fc565b90616a7c616a2c565b90616ab9616ab3616aad7ff6391f5c32d9c69d2a47ea670b442974b53935d1edc7fd64eb21e047a839171b9561227e565b92610396565b92610396565b92616ac2610301565b80616acc81610655565b0390a4600190565b50505f90565b90616aed90616ae7612486565b50612ae3565b616aff616af98261286b565b91612865565b2080616b33616b2d7f480d3dacbe70ae0541e56579fab062a46bee6f5728375bd8a481f9f9e71bafdb610611565b91610611565b145f14616bbe57506020616b4630616886565b63066a31fb9290616b6a600194616b75616b5e610301565b96879586948594612873565b8452600484016168bf565b03915afa908115616bb9575f91616b8b575b5090565b616bac915060203d8111616bb2575b616ba481836106b3565b8101906168a1565b5f616b87565b503d616b9a565b6128fc565b80616bf1616beb7f95f7801c97b17401c2c5a5b8fdb4f956cc377f647e35794f5b5da6aed60cd40d610611565b91610611565b145f14616c7c57506020616c0430616886565b63066a31fb9290616c28600494616c33616c1c610301565b96879586948594612873565b8452600484016168bf565b03915afa908115616c77575f91616c49575b5090565b616c6a915060203d8111616c70575b616c6281836106b3565b8101906168a1565b5f616c45565b503d616c58565b6128fc565b616cae616ca87fd12b5575a0d6b46e06cf3dde68dfdffac67ed5be66af3b98315907df688d04ef610611565b91610611565b14616d35576020616cbe30616886565b63066a31fb9290616ce15f94616cec616cd5610301565b96879586948594612873565b8452600484016168bf565b03915afa908115616d30575f91616d02575b5090565b616d23915060203d8111616d29575b616d1b81836106b3565b8101906168a1565b5f616cfe565b503d616d11565b6128fc565b6020616d4030616886565b63066a31fb9290616d64600394616d6f616d58610301565b96879586948594612873565b8452600484016168bf565b03915afa908115616db3575f91616d85575b5090565b616da6915060203d8111616dac575b616d9e81836106b3565b8101906168a1565b5f616d81565b503d616d94565b6128fc565b90565b616dcf616dca616dd492616db8565b61036b565b6103fe565b90565b90565b616dee616de9616df392616dd7565b61036b565b6103fe565b90565b90565b616e0d616e08616e1292616df6565b61036b565b6103fe565b90565b90565b616e2c616e27616e3192616e15565b61036b565b6103fe565b90565b616e3c612dbf565b5080616e50616e4a5f611d7e565b91611d7e565b14616efb5780616e69616e636001611d7e565b91611d7e565b14616ee05780616e82616e7c6002611d7e565b91611d7e565b14616ec557616e9a616e946003611d7e565b91611d7e565b14616eab57616ea85f612ae6565b90565b616ec242616ebc6312cc0300616e18565b90612cd7565b90565b50616edd42616ed76309660180616df9565b90612cd7565b90565b50616ef842616ef26305a39a80616dda565b90612cd7565b90565b50616f1342616f0d6301e13380616dbb565b90612cd7565b90565b616f24616f29916004611fab565b616397565b616f366040820151612ae3565b616f48616f428261286b565b91612865565b2080616f7c616f767f43d343f946d7cff1e09909f4be980fa90db20e18ae440ec70c2d26bd82ad23b8610611565b91610611565b145f14616f9b5750616f936020616f989201612d18565b617261565b5b565b616fcd616fc77f5e0e6a61774f52773b52aa0489e927731048aa494ac6c1eb9a2205da8231dada610611565b91610611565b14616fd9575b50616f99565b616ffc90616ff7600191616ff16020600e9201612d18565b90610501565b6127fc565b5f616fd3565b91602061702392949361701c60408201965f830190610d62565b01906107f9565b565b9061703a6170348383906151e8565b156104a5565b617042575050565b61705c5f92839263e2517d3f60e01b845260048401617002565b0390fd5b5f7f4552415345440000000000000000000000000000000000000000000000000000910152565b61709360068092612c39565b61709c81617060565b0190565b6014602093926170bc6170b56170c494617087565b8092612c24565b018092612c6a565b0190565b6170d46170d991610c38565b61137c565b90565b6170e690546170c8565b90565b6170fb916170f5612a5d565b916130d8565b565b5f600461712f9282808201556171168360018301612dc3565b82600282015561712983600383016155f6565b016170e9565b565b905f0361714357617141906170fd565b565b6108e3565b5f7f757365725f646174615f65726173757265000000000000000000000000000000910152565b61717b60118092612c39565b61718481617148565b0190565b6171919061716f565b90565b5f7f444154415f455241534544000000000000000000000000000000000000000000910152565b6171c8600b602092610a36565b6171d181617194565b0190565b9160406172069294936171ff6171f4606083018381035f8501526171bb565b966020830190610d62565b01906107f9565b565b5f7f757365725f646174610000000000000000000000000000000000000000000000910152565b61723c6009602092610a36565b61724581617208565b0190565b61725e9060208101905f81830391015261722f565b90565b8061728d429161727e617272610301565b938492602084016170a0565b602082018103825203826106b3565b61729f6172998261286b565b91612865565b206172b26172ad600d6170dc565b6113bc565b9063edf3a8e090839092803b15617477576172e05f80946172eb6172d4610301565b97889687958694612873565b845260048401617002565b03925af1801561747257617446575b506173105f61730b60038490611ce6565b617131565b6173266001617321600e8490610501565b6127fc565b61733c6001617337600f8490610501565b6127fc565b61734e617349600c612830565b61221b565b635260590a8261735c610301565b61737b8161736c60208201617188565b602082018103825203826106b3565b61738d6173878261286b565b91612865565b2092803b15617441576173b35f80946173be6173a7610301565b97889687958694612873565b8452600484016171d5565b03925af1801561743c57617410575b506173f87f2cdf11281d5f3db1197f4fe12c1a8fc45bd823000e752b3491f0c465808b544291610396565b90617401610301565b8061740b81617249565b0390a2565b61742f905f3d8111617435575b61742781836106b3565b810190612879565b5f6173cd565b503d61741d565b6128fc565b61286f565b617465905f3d811161746b575b61745d81836106b3565b810190612879565b5f6172fa565b503d617453565b6128fc565b61286f56fea2646970667358221220258003cb81791032ca097deb4cd9e313b5e44b7d5ed86b6ecd2445589e9b297764736f6c634300081e0033","linkReferences":{}},"methodIdentifiers":{"CCPA_RESPONSE_DEADLINE()":"8d20e2d7","DATA_PROCESSOR_ROLE()":"f214db6c","DEFAULT_ADMIN_ROLE()":"a217fddf","GDPR_RESPONSE_DEADLINE()":"6d66ee7b","PRIVACY_OFFICER_ROLE()":"d08d80dd","checkDataRetentionExpiry(address[])":"4c92fa26","createPrivacyRequest(string,string,string,bool)":"53f44c64","dataAccessCount(address)":"3c0203b9","dataMinimizationEnabled(address)":"04df2838","disclosureData(address,string[],address,string,uint256,string)":"9537978c","enableDataMinimization()":"ab699397","enablePseudonymization()":"a7da9151","gdprApplicable(address)":"f3522c14","generateZKProof(bytes32,bytes32)":"874e96cb","getPrivacyRequest(uint256)":"c03ab992","getRoleAdmin(bytes32)":"248a9ca3","getUserDataDisclosures(address)":"b486b0b9","getUserPrivacyRequests(address)":"82338144","getUserZKProofs(address)":"b980a764","grantRole(bytes32,address)":"2f2ff15d","hasConsent(address,uint8)":"066a31fb","hasRole(bytes32,address)":"91d14854","isZKProofValid(bytes32)":"8ae2714e","lastDataAccess(address)":"0010299d","logDataAccess(address,string)":"905d9a0d","privacyRequests(uint256)":"dfc4402c","processPrivacyRequest(uint256,uint8,string,string)":"da1ad21e","pseudonymizationEnabled(address)":"28b05f45","renounceRole(bytes32,address)":"36568abe","requestCounter()":"973a814e","requestZKProof(address,string,bytes32,uint256)":"0dd6187a","revokeRole(bytes32,address)":"d547741f","revokeZKProof(bytes32)":"08408bc5","setDataRetentionPolicy(uint8,string)":"9e54c83c","setJurisdiction(address,string)":"15d81b73","supportsInterface(bytes4)":"01ffc9a7","updateConsent(uint8,bool,string,bytes32)":"3e584243","userConsents(address,uint8)":"4aef1416","userDataDisclosures(address,uint256)":"2f37111b","userJurisdiction(address)":"1b89b71b","userPrivacyRequests(address,uint256)":"3c5bd548","userRegistry()":"5c7460d6","userRetentionPolicies(address)":"c9de0daa","userZKProofs(address,uint256)":"71c09e29","verificationLogger()":"e1300c88","zkProofRequests(bytes32)":"f18636a7"},"id":88}