{"abi":[{"type":"constructor","inputs":[{"name":"_trustScore","type":"address","internalType":"address"},{"name":"_verificationLogger","type":"address","internalType":"address"},{"name":"_certificateManager","type":"address","internalType":"address"}],"stateMutability":"nonpayable"},{"type":"function","name":"BADGE_ADMIN_ROLE","inputs":[],"outputs":[{"name":"","type":"bytes32","internalType":"bytes32"}],"stateMutability":"view"},{"type":"function","name":"DEFAULT_ADMIN_ROLE","inputs":[],"outputs":[{"name":"","type":"bytes32","internalType":"bytes32"}],"stateMutability":"view"},{"type":"function","name":"MINTER_ROLE","inputs":[],"outputs":[{"name":"","type":"bytes32","internalType":"bytes32"}],"stateMutability":"view"},{"type":"function","name":"awardBadge","inputs":[{"name":"badgeId","type":"uint256","internalType":"uint256"},{"name":"recipient","type":"address","internalType":"address"},{"name":"reason","type":"string","internalType":"string"},{"name":"evidenceHash","type":"bytes32","internalType":"bytes32"}],"outputs":[],"stateMutability":"nonpayable"},{"type":"function","name":"badgesByRarity","inputs":[{"name":"","type":"uint8","internalType":"enum RecognitionManager.BadgeRarity"},{"name":"","type":"uint256","internalType":"uint256"}],"outputs":[{"name":"","type":"uint256","internalType":"uint256"}],"stateMutability":"view"},{"type":"function","name":"badgesByType","inputs":[{"name":"","type":"uint8","internalType":"enum RecognitionManager.BadgeType"},{"name":"","type":"uint256","internalType":"uint256"}],"outputs":[{"name":"","type":"uint256","internalType":"uint256"}],"stateMutability":"view"},{"type":"function","name":"balanceOf","inputs":[{"name":"account","type":"address","internalType":"address"},{"name":"id","type":"uint256","internalType":"uint256"}],"outputs":[{"name":"","type":"uint256","internalType":"uint256"}],"stateMutability":"view"},{"type":"function","name":"balanceOfBatch","inputs":[{"name":"accounts","type":"address[]","internalType":"address[]"},{"name":"ids","type":"uint256[]","internalType":"uint256[]"}],"outputs":[{"name":"","type":"uint256[]","internalType":"uint256[]"}],"stateMutability":"view"},{"type":"function","name":"certificateManager","inputs":[],"outputs":[{"name":"","type":"address","internalType":"contract ICertificateManager"}],"stateMutability":"view"},{"type":"function","name":"createBadge","inputs":[{"name":"badgeType","type":"uint8","internalType":"enum RecognitionManager.BadgeType"},{"name":"rarity","type":"uint8","internalType":"enum RecognitionManager.BadgeRarity"},{"name":"name","type":"string","internalType":"string"},{"name":"description","type":"string","internalType":"string"},{"name":"imageUri","type":"string","internalType":"string"},{"name":"externalUrl","type":"string","internalType":"string"},{"name":"requiredTrustScore","type":"uint256","internalType":"uint256"},{"name":"maxSupply","type":"uint256","internalType":"uint256"},{"name":"isTransferable","type":"bool","internalType":"bool"},{"name":"criteriaHash","type":"bytes32","internalType":"bytes32"},{"name":"validityPeriod","type":"uint256","internalType":"uint256"}],"outputs":[{"name":"","type":"uint256","internalType":"uint256"}],"stateMutability":"nonpayable"},{"type":"function","name":"getRoleAdmin","inputs":[{"name":"role","type":"bytes32","internalType":"bytes32"}],"outputs":[{"name":"","type":"bytes32","internalType":"bytes32"}],"stateMutability":"view"},{"type":"function","name":"grantRole","inputs":[{"name":"role","type":"bytes32","internalType":"bytes32"},{"name":"account","type":"address","internalType":"address"}],"outputs":[],"stateMutability":"nonpayable"},{"type":"function","name":"hasRole","inputs":[{"name":"role","type":"bytes32","internalType":"bytes32"},{"name":"account","type":"address","internalType":"address"}],"outputs":[{"name":"","type":"bool","internalType":"bool"}],"stateMutability":"view"},{"type":"function","name":"isApprovedForAll","inputs":[{"name":"account","type":"address","internalType":"address"},{"name":"operator","type":"address","internalType":"address"}],"outputs":[{"name":"","type":"bool","internalType":"bool"}],"stateMutability":"view"},{"type":"function","name":"renounceRole","inputs":[{"name":"role","type":"bytes32","internalType":"bytes32"},{"name":"callerConfirmation","type":"address","internalType":"address"}],"outputs":[],"stateMutability":"nonpayable"},{"type":"function","name":"revokeBadge","inputs":[{"name":"badgeId","type":"uint256","internalType":"uint256"},{"name":"user","type":"address","internalType":"address"},{"name":"reason","type":"string","internalType":"string"}],"outputs":[],"stateMutability":"nonpayable"},{"type":"function","name":"revokeRole","inputs":[{"name":"role","type":"bytes32","internalType":"bytes32"},{"name":"account","type":"address","internalType":"address"}],"outputs":[],"stateMutability":"nonpayable"},{"type":"function","name":"safeBatchTransferFrom","inputs":[{"name":"from","type":"address","internalType":"address"},{"name":"to","type":"address","internalType":"address"},{"name":"ids","type":"uint256[]","internalType":"uint256[]"},{"name":"values","type":"uint256[]","internalType":"uint256[]"},{"name":"data","type":"bytes","internalType":"bytes"}],"outputs":[],"stateMutability":"nonpayable"},{"type":"function","name":"safeTransferFrom","inputs":[{"name":"from","type":"address","internalType":"address"},{"name":"to","type":"address","internalType":"address"},{"name":"id","type":"uint256","internalType":"uint256"},{"name":"value","type":"uint256","internalType":"uint256"},{"name":"data","type":"bytes","internalType":"bytes"}],"outputs":[],"stateMutability":"nonpayable"},{"type":"function","name":"setApprovalForAll","inputs":[{"name":"operator","type":"address","internalType":"address"},{"name":"approved","type":"bool","internalType":"bool"}],"outputs":[],"stateMutability":"nonpayable"},{"type":"function","name":"supportsInterface","inputs":[{"name":"interfaceId","type":"bytes4","internalType":"bytes4"}],"outputs":[{"name":"","type":"bool","internalType":"bool"}],"stateMutability":"view"},{"type":"function","name":"trustScore","inputs":[],"outputs":[{"name":"","type":"address","internalType":"contract ITrustScore"}],"stateMutability":"view"},{"type":"function","name":"uri","inputs":[{"name":"","type":"uint256","internalType":"uint256"}],"outputs":[{"name":"","type":"string","internalType":"string"}],"stateMutability":"view"},{"type":"function","name":"userBadgeList","inputs":[{"name":"","type":"address","internalType":"address"},{"name":"","type":"uint256","internalType":"uint256"}],"outputs":[{"name":"","type":"uint256","internalType":"uint256"}],"stateMutability":"view"},{"type":"function","name":"userBadges","inputs":[{"name":"","type":"address","internalType":"address"},{"name":"","type":"uint256","internalType":"uint256"}],"outputs":[{"name":"earnedAt","type":"uint256","internalType":"uint256"},{"name":"expiresAt","type":"uint256","internalType":"uint256"},{"name":"isRevoked","type":"bool","internalType":"bool"},{"name":"earnReason","type":"string","internalType":"string"},{"name":"evidenceHash","type":"bytes32","internalType":"bytes32"}],"stateMutability":"view"},{"type":"function","name":"verificationLogger","inputs":[],"outputs":[{"name":"","type":"address","internalType":"contract IVerificationLogger"}],"stateMutability":"view"},{"type":"event","name":"ApprovalForAll","inputs":[{"name":"account","type":"address","indexed":true,"internalType":"address"},{"name":"operator","type":"address","indexed":true,"internalType":"address"},{"name":"approved","type":"bool","indexed":false,"internalType":"bool"}],"anonymous":false},{"type":"event","name":"AutoBadgeAwarded","inputs":[{"name":"badgeId","type":"uint256","indexed":true,"internalType":"uint256"},{"name":"recipient","type":"address","indexed":true,"internalType":"address"},{"name":"trigger","type":"string","indexed":false,"internalType":"string"}],"anonymous":false},{"type":"event","name":"BadgeAwarded","inputs":[{"name":"badgeId","type":"uint256","indexed":true,"internalType":"uint256"},{"name":"recipient","type":"address","indexed":true,"internalType":"address"},{"name":"reason","type":"string","indexed":false,"internalType":"string"}],"anonymous":false},{"type":"event","name":"BadgeCreated","inputs":[{"name":"badgeId","type":"uint256","indexed":true,"internalType":"uint256"},{"name":"badgeType","type":"uint8","indexed":false,"internalType":"enum RecognitionManager.BadgeType"},{"name":"rarity","type":"uint8","indexed":false,"internalType":"enum RecognitionManager.BadgeRarity"},{"name":"name","type":"string","indexed":false,"internalType":"string"},{"name":"creator","type":"address","indexed":false,"internalType":"address"}],"anonymous":false},{"type":"event","name":"BadgeExpired","inputs":[{"name":"badgeId","type":"uint256","indexed":true,"internalType":"uint256"},{"name":"user","type":"address","indexed":true,"internalType":"address"}],"anonymous":false},{"type":"event","name":"BadgeRenewed","inputs":[{"name":"badgeId","type":"uint256","indexed":true,"internalType":"uint256"},{"name":"user","type":"address","indexed":true,"internalType":"address"},{"name":"newExpiryDate","type":"uint256","indexed":false,"internalType":"uint256"}],"anonymous":false},{"type":"event","name":"BadgeRevoked","inputs":[{"name":"badgeId","type":"uint256","indexed":true,"internalType":"uint256"},{"name":"user","type":"address","indexed":true,"internalType":"address"},{"name":"reason","type":"string","indexed":false,"internalType":"string"}],"anonymous":false},{"type":"event","name":"BadgeUpdated","inputs":[{"name":"badgeId","type":"uint256","indexed":true,"internalType":"uint256"},{"name":"field","type":"string","indexed":false,"internalType":"string"}],"anonymous":false},{"type":"event","name":"RoleAdminChanged","inputs":[{"name":"role","type":"bytes32","indexed":true,"internalType":"bytes32"},{"name":"previousAdminRole","type":"bytes32","indexed":true,"internalType":"bytes32"},{"name":"newAdminRole","type":"bytes32","indexed":true,"internalType":"bytes32"}],"anonymous":false},{"type":"event","name":"RoleGranted","inputs":[{"name":"role","type":"bytes32","indexed":true,"internalType":"bytes32"},{"name":"account","type":"address","indexed":true,"internalType":"address"},{"name":"sender","type":"address","indexed":true,"internalType":"address"}],"anonymous":false},{"type":"event","name":"RoleRevoked","inputs":[{"name":"role","type":"bytes32","indexed":true,"internalType":"bytes32"},{"name":"account","type":"address","indexed":true,"internalType":"address"},{"name":"sender","type":"address","indexed":true,"internalType":"address"}],"anonymous":false},{"type":"event","name":"TransferBatch","inputs":[{"name":"operator","type":"address","indexed":true,"internalType":"address"},{"name":"from","type":"address","indexed":true,"internalType":"address"},{"name":"to","type":"address","indexed":true,"internalType":"address"},{"name":"ids","type":"uint256[]","indexed":false,"internalType":"uint256[]"},{"name":"values","type":"uint256[]","indexed":false,"internalType":"uint256[]"}],"anonymous":false},{"type":"event","name":"TransferSingle","inputs":[{"name":"operator","type":"address","indexed":true,"internalType":"address"},{"name":"from","type":"address","indexed":true,"internalType":"address"},{"name":"to","type":"address","indexed":true,"internalType":"address"},{"name":"id","type":"uint256","indexed":false,"internalType":"uint256"},{"name":"value","type":"uint256","indexed":false,"internalType":"uint256"}],"anonymous":false},{"type":"event","name":"URI","inputs":[{"name":"value","type":"string","indexed":false,"internalType":"string"},{"name":"id","type":"uint256","indexed":true,"internalType":"uint256"}],"anonymous":false},{"type":"error","name":"AccessControlBadConfirmation","inputs":[]},{"type":"error","name":"AccessControlUnauthorizedAccount","inputs":[{"name":"account","type":"address","internalType":"address"},{"name":"neededRole","type":"bytes32","internalType":"bytes32"}]},{"type":"error","name":"ERC1155InsufficientBalance","inputs":[{"name":"sender","type":"address","internalType":"address"},{"name":"balance","type":"uint256","internalType":"uint256"},{"name":"needed","type":"uint256","internalType":"uint256"},{"name":"tokenId","type":"uint256","internalType":"uint256"}]},{"type":"error","name":"ERC1155InvalidApprover","inputs":[{"name":"approver","type":"address","internalType":"address"}]},{"type":"error","name":"ERC1155InvalidArrayLength","inputs":[{"name":"idsLength","type":"uint256","internalType":"uint256"},{"name":"valuesLength","type":"uint256","internalType":"uint256"}]},{"type":"error","name":"ERC1155InvalidOperator","inputs":[{"name":"operator","type":"address","internalType":"address"}]},{"type":"error","name":"ERC1155InvalidReceiver","inputs":[{"name":"receiver","type":"address","internalType":"address"}]},{"type":"error","name":"ERC1155InvalidSender","inputs":[{"name":"sender","type":"address","internalType":"address"}]},{"type":"error","name":"ERC1155MissingApprovalForAll","inputs":[{"name":"operator","type":"address","internalType":"address"},{"name":"owner","type":"address","internalType":"address"}]},{"type":"error","name":"ReentrancyGuardReentrantCall","inputs":[]}],"bytecode":{"object":"0x6080604052346100305761001a610014610111565b91610367565b610022610035565b6146bc610e9082396146bc90f35b61003b565b60405190565b5f80fd5b601f801991011690565b634e487b7160e01b5f52604160045260245ffd5b906100679061003f565b810190811060018060401b0382111761007f57604052565b610049565b90610097610090610035565b928361005d565b565b5f80fd5b60018060a01b031690565b6100b19061009d565b90565b6100bd816100a8565b036100c457565b5f80fd5b905051906100d5826100b4565b565b909160608284031261010c576101096100f2845f85016100c8565b9361010081602086016100c8565b936040016100c8565b90565b610099565b61012f61554c8038038061012481610084565b9283398101906100d7565b909192565b60018060401b0381116101505761014c60209161003f565b0190565b610049565b9061016761016283610134565b610084565b918252565b60207f647d2e6a736f6e00000000000000000000000000000000000000000000000000917f68747470733a2f2f6170692e656475636572742e6f72672f62616467652f7b695f8201520152565b6101c36027610155565b906101d06020830161016c565b565b6101da6101b9565b90565b90565b90565b5f1b90565b6101fc6101f7610201926101dd565b6101e3565b6101e0565b90565b61020d5f6101e8565b90565b7f4edf5afbdc763971556e31a9d4d295aa46e94ad2348abeeba4a0ffcac0b2296790565b7f9f2df0fed2c77648de5860a4cc508cd0818c85b8b8a1ab4ceeef8d981c8956a690565b90565b61026f61026a6102749261009d565b610258565b61009d565b90565b6102809061025b565b90565b61028c90610277565b90565b906102a060018060a01b03916101e3565b9181191691161790565b6102b390610277565b90565b90565b906102ce6102c96102d5926102aa565b6102b6565b825461028f565b9055565b6102e29061025b565b90565b6102ee906102d9565b90565b6102fa906102d9565b90565b90565b9061031561031061031c926102f1565b6102fd565b825461028f565b9055565b6103299061025b565b90565b61033590610320565b90565b61034190610320565b90565b90565b9061035c61035761036392610338565b610344565b825461028f565b9055565b916103dd6103d66103e2936103d16103ca6103e99761038c6103876101d2565b610477565b61039e610397610204565b339061054d565b506103b16103aa610210565b339061054d565b506103c46103bd610234565b339061054d565b50610283565b600b6102b9565b6102e5565b600c610300565b61032c565b600d610347565b6103f1610b03565b565b90565b90565b61040d610408610412926103f3565b610258565b6103f6565b90565b61041f60016103f9565b90565b9061042e5f19916101e3565b9181191691161790565b61044c610447610451926103f6565b610258565b6103f6565b90565b90565b9061046c61046761047392610438565b610454565b8254610422565b9055565b61048090610494565b61049261048b610415565b6004610457565b565b61049d9061049f565b565b6104a890610e20565b565b5f90565b151590565b6104bc906101e0565b90565b906104c9906104b3565b5f5260205260405f2090565b6104de9061025b565b90565b6104ea906104d5565b90565b906104f7906104e1565b5f5260205260405f2090565b9061050f60ff916101e3565b9181191691161790565b610522906104ae565b90565b90565b9061053d61053861054492610519565b610525565b8254610503565b9055565b5f0190565b6105556104aa565b5061056a610564828490610e54565b156104ae565b5f146105f357610592600161058d5f610585600386906104bf565b0185906104ed565b610528565b9061059b610e82565b906105d86105d26105cc7f2f8788117e7eff1d82e926ec794901d17c78024a50270940304540a733656f0d956104b3565b926104e1565b926104e1565b926105e1610035565b806105eb81610548565b0390a4600190565b50505f90565b5f1c90565b90565b61060d610612916105f9565b6105fe565b90565b61061f9054610601565b90565b634e487b7160e01b5f52601160045260245ffd5b61063f906103f6565b5f19811461064d5760010190565b610622565b9061065c90610438565b5f5260205260405f2090565b90565b634e487b7160e01b5f52602160045260245ffd5b6008111561068957565b61066b565b906106988261067f565b565b6106a39061068e565b90565b90565b906106be6106b96106c59261069a565b6106a6565b8254610503565b9055565b60081b90565b906106dc61ff00916106c9565b9181191691161790565b600511156106f057565b61066b565b906106ff826106e6565b565b61070a906106f5565b90565b90565b9061072561072061072c92610701565b61070d565b82546106cf565b9055565b634e487b7160e01b5f52602260045260245ffd5b9060016002830492168015610764575b602083101461075f57565b610730565b91607f1691610754565b5f5260205f2090565b601f602091010490565b1b90565b919060086107a091029161079a5f1984610781565b92610781565b9181191691161790565b91906107c06107bb6107c893610438565b610454565b908354610785565b9055565b5f90565b6107e2916107dc6107cc565b916107aa565b565b5b8181106107f0575050565b806107fd5f6001936107d0565b016107e5565b9190601f8111610813575b505050565b61081f6108449361076e565b90602061082b84610777565b8301931061084c575b61083d90610777565b01906107e4565b5f808061080e565b915061083d81929050610834565b61086f600b6108698354610744565b83610803565b60167f4669727374205374657073000000000000000000000000000000000000000000019055565b6108a09061085a565b565b6108b760166108b18354610744565b83610803565b602c7f526561636865642032352074727573742073636f726500000000000000000000019055565b6108e8906108a2565b565b6108ff600f6108f98354610744565b83610803565b601e7f66697273742d73746570732e706e670000000000000000000000000000000000019055565b610930906108ea565b565b6109465f6109408354610744565b83610803565b5f80019055565b61095690610932565b565b90565b61096f61096a61097492610958565b610258565b6103f6565b90565b61098b610986610990926101dd565b610258565b6103f6565b90565b906109a86109a36109af92610519565b610525565b82546106cf565b9055565b90565b906109cb6109c66109d2926104e1565b6109b3565b825461028f565b9055565b6109df906105f9565b90565b906109f76109f26109fe926104b3565b6109d6565b8254610422565b9055565b60ff1690565b610a14610a19916105f9565b610a02565b90565b610a269054610a08565b90565b90610a339061069a565b5f5260205260405f2090565b90565b5f5260205f2090565b634e487b7160e01b5f52603260045260245ffd5b5490565b610a6c81610a5f565b821015610a8657610a7e600191610a42565b910201905f90565b610a4b565b9081549168010000000000000000831015610abb5782610ab3916001610ab995018155610a63565b906107aa565b565b610049565b60081c90565b60ff1690565b610ad8610add91610ac0565b610ac6565b90565b610aea9054610acc565b90565b90610af790610701565b5f5260205260405f2090565b610b1f610b18610b136005610615565b610636565b6005610457565b610cb6610ca6610ca1610b45610b406006610b3a6005610615565b90610652565b610668565b610b5a610b526005610615565b5f8301610457565b610b6760018083016106a9565b610b745f60018301610710565b610b8060028201610897565b610b8c600382016108df565b610b9860048201610927565b610ba46005820161094d565b610bba610bb1601961095b565b60068301610457565b610bcf610bc65f610977565b60078301610457565b610be4610bdb5f610977565b60088301610457565b610bf2600160098301610528565b610bff5f60098301610993565b610c0c42600a8301610457565b610c1933600b83016109b6565b610c467fc2cd15937ee9ef179837000c66a35fee42de98808f0b206f6db739410c256f70600c83016109e2565b610c5b610c525f610977565b600d8301610457565b610c8d610c7d610c786009610c7260018601610a1c565b90610a29565b610a3f565b610c876005610615565b90610a8b565b610c9b6001600a9201610ae0565b90610aed565b610a3f565b610cb06005610615565b90610a8b565b565b5190565b5f5260205f2090565b9190601f8111610cd5575b505050565b610ce1610d0693610cbc565b906020610ced84610777565b83019310610d0e575b610cff90610777565b01906107e4565b5f8080610cd0565b9150610cff81929050610cf6565b1c90565b90610d30905f1990600802610d1c565b191690565b81610d3f91610d20565b906002021790565b90610d5181610cb8565b9060018060401b038211610e0f57610d7382610d6d8554610744565b85610cc5565b602090601f8311600114610da757918091610d96935f92610d9b575b5050610d35565b90555b565b90915001515f80610d8f565b601f19831691610db685610cbc565b925f5b818110610df757509160029391856001969410610ddd575b50505002019055610d99565b610ded910151601f841690610d20565b90555f8080610dd1565b91936020600181928787015181550195019201610db9565b610049565b90610e1e91610d47565b565b610e2b906002610e14565b565b60ff1690565b610e3f610e44916105f9565b610e2d565b90565b610e519054610e33565b90565b610e7b915f610e70610e7693610e686104aa565b5060036104bf565b016104ed565b610e47565b90565b5f90565b610e8a610e7e565b50339056fe60806040526004361015610013575b611746565b61001d5f356101bb565b8062fdd58e146101b657806301ffc9a7146101b15780630e89341c146101ac5780631f801e27146101a7578063248a9ca3146101a25780632c81daf11461019d5780632eb2c2d6146101985780632f2ff15d146101935780633078d9981461018e578063361daaeb1461018957806336568abe146101845780634a5a89a41461017f5780634e1273f41461017a5780635476c00514610175578063568549731461017057806391d148541461016b578063a217fddf14610166578063a22cb46514610161578063c1c161401461015c578063d539139314610157578063d547741f14610152578063da8679bb1461014d578063df91cc2314610148578063e1300c8814610143578063e985e9c51461013e5763f242432a0361000e5761170f565b61166a565b611608565b611560565b6112c1565b611236565b611201565b61119d565b6110fb565b611099565b611028565b610fe6565b610e7f565b610d8d565b610bc3565b610b30565b610afa565b610983565b6108b2565b61084e565b610664565b6104f8565b610482565b6103ea565b61032c565b610282565b60e01c90565b60405190565b5f80fd5b5f80fd5b5f80fd5b60018060a01b031690565b6101e7906101d3565b90565b6101f3816101de565b036101fa57565b5f80fd5b9050359061020b826101ea565b565b90565b6102198161020d565b0361022057565b5f80fd5b9050359061023182610210565b565b919060408382031261025b578061024f610258925f86016101fe565b93602001610224565b90565b6101cb565b6102699061020d565b9052565b9190610280905f60208501940190610260565b565b346102b3576102af61029e610298366004610233565b9061177a565b6102a66101c1565b9182918261026d565b0390f35b6101c7565b63ffffffff60e01b1690565b6102cd816102b8565b036102d457565b5f80fd5b905035906102e5826102c4565b565b90602082820312610300576102fd915f016102d8565b90565b6101cb565b151590565b61031390610305565b9052565b919061032a905f6020850194019061030a565b565b3461035c576103586103476103423660046102e7565b6117a5565b61034f6101c1565b91829182610317565b0390f35b6101c7565b9060208282031261037a57610377915f01610224565b90565b6101cb565b5190565b60209181520190565b90825f9392825e0152565b601f801991011690565b6103c06103c96020936103ce936103b78161037f565b93848093610383565b9586910161038c565b610397565b0190565b6103e79160208201915f8184039101526103a1565b90565b3461041a57610416610405610400366004610361565b6117cb565b61040d6101c1565b918291826103d2565b0390f35b6101c7565b5f91031261042957565b6101cb565b7f4edf5afbdc763971556e31a9d4d295aa46e94ad2348abeeba4a0ffcac0b2296790565b61045a61042e565b90565b90565b6104699061045d565b9052565b9190610480905f60208501940190610460565b565b346104b25761049236600461041f565b6104ae61049d610452565b6104a56101c1565b9182918261046d565b0390f35b6101c7565b6104c08161045d565b036104c757565b5f80fd5b905035906104d8826104b7565b565b906020828203126104f3576104f0915f016104cb565b90565b6101cb565b346105285761052461051361050e3660046104da565b611808565b61051b6101c1565b9182918261046d565b0390f35b6101c7565b5f80fd5b5f80fd5b634e487b7160e01b5f52604160045260245ffd5b9061055390610397565b810190811067ffffffffffffffff82111761056d57604052565b610535565b9061058561057e6101c1565b9283610549565b565b67ffffffffffffffff81116105a5576105a1602091610397565b0190565b610535565b90825f939282370152565b909291926105ca6105c582610587565b610572565b938185526020850190828401116105e6576105e4926105aa565b565b610531565b9080601f8301121561060957816020610606933591016105b5565b90565b61052d565b9160608383031261065a57610625825f8501610224565b9261063383602083016101fe565b92604082013567ffffffffffffffff81116106555761065292016105eb565b90565b6101cf565b6101cb565b5f0190565b346106935761067d61067736600461060e565b91611f02565b6106856101c1565b8061068f8161065f565b0390f35b6101c7565b67ffffffffffffffff81116106b05760208091020190565b610535565b5f80fd5b909291926106ce6106c982610698565b610572565b938185526020808601920283019281841161070b57915b8383106106f25750505050565b602080916107008486610224565b8152019201916106e5565b6106b5565b9080601f8301121561072e5781602061072b933591016106b9565b90565b61052d565b67ffffffffffffffff81116107515761074d602091610397565b0190565b610535565b9092919261076b61076682610733565b610572565b9381855260208501908284011161078757610785926105aa565b565b610531565b9080601f830112156107aa578160206107a793359101610756565b90565b61052d565b91909160a081840312610849576107c8835f83016101fe565b926107d681602084016101fe565b92604083013567ffffffffffffffff811161084457826107f7918501610710565b92606081013567ffffffffffffffff811161083f5783610818918301610710565b92608082013567ffffffffffffffff811161083a57610837920161078c565b90565b6101cf565b6101cf565b6101cf565b6101cb565b346108805761086a6108613660046107af565b93929092611f32565b6108726101c1565b8061087c8161065f565b0390f35b6101c7565b91906040838203126108ad57806108a16108aa925f86016104cb565b936020016101fe565b90565b6101cb565b346108e1576108cb6108c5366004610885565b90611fd5565b6108d36101c1565b806108dd8161065f565b0390f35b6101c7565b1c90565b60018060a01b031690565b61090590600861090a93026108e6565b6108ea565b90565b9061091891546108f5565b90565b610927600b5f9061090d565b90565b90565b61094161093c610946926101d3565b61092a565b6101d3565b90565b6109529061092d565b90565b61095e90610949565b90565b61096a90610955565b9052565b9190610981905f60208501940190610961565b565b346109b35761099336600461041f565b6109af61099e61091b565b6109a66101c1565b9182918261096e565b0390f35b6101c7565b600511156109c257565b5f80fd5b905035906109d3826109b8565b565b91906040838203126109fd57806109f16109fa925f86016109c6565b93602001610224565b90565b6101cb565b634e487b7160e01b5f52602160045260245ffd5b60051115610a2057565b610a02565b90610a2f82610a16565b565b610a3a90610a25565b90565b90610a4790610a31565b5f5260205260405f2090565b634e487b7160e01b5f52603260045260245ffd5b5490565b5f5260205f2090565b610a7d81610a67565b821015610a9757610a8f600191610a6b565b910201905f90565b610a53565b90565b610aaf906008610ab493026108e6565b610a9c565b90565b90610ac29154610a9f565b90565b610ad090600a610a3d565b610ad981610a67565b821015610af657610af391610aed91610a74565b90610ab7565b90565b5f80fd5b34610b2b57610b27610b16610b103660046109d5565b90610ac5565b610b1e6101c1565b9182918261026d565b0390f35b6101c7565b34610b5f57610b49610b43366004610885565b90611fe1565b610b516101c1565b80610b5b8161065f565b0390f35b6101c7565b608081830312610bbe57610b7a825f8301610224565b92610b8883602084016101fe565b9260408301359067ffffffffffffffff8211610bb957610bad81610bb69386016105eb565b936060016104cb565b90565b6101cf565b6101cb565b34610bf557610bdf610bd6366004610b64565b92919091612be8565b610be76101c1565b80610bf18161065f565b0390f35b6101c7565b67ffffffffffffffff8111610c125760208091020190565b610535565b90929192610c2c610c2782610bfa565b610572565b9381855260208086019202830192818411610c6957915b838310610c505750505050565b60208091610c5e84866101fe565b815201920191610c43565b6106b5565b9080601f83011215610c8c57816020610c8993359101610c17565b90565b61052d565b919091604081840312610ce9575f81013567ffffffffffffffff8111610ce45783610cbd918301610c6e565b92602082013567ffffffffffffffff8111610cdf57610cdc9201610710565b90565b6101cf565b6101cf565b6101cb565b5190565b60209181520190565b60200190565b610d0a9061020d565b9052565b90610d1b81602093610d01565b0190565b60200190565b90610d42610d3c610d3584610cee565b8093610cf2565b92610cfb565b905f5b818110610d525750505090565b909192610d6b610d656001928651610d0e565b94610d1f565b9101919091610d45565b610d8a9160208201915f818403910152610d25565b90565b34610dbe57610dba610da9610da3366004610c91565b90612c94565b610db16101c1565b91829182610d75565b0390f35b6101c7565b60081115610dcd57565b5f80fd5b90503590610dde82610dc3565b565b9190604083820312610e085780610dfc610e05925f8601610dd1565b93602001610224565b90565b6101cb565b60081115610e1757565b610a02565b90610e2682610e0d565b565b610e3190610e1c565b90565b90610e3e90610e28565b5f5260205260405f2090565b610e55906009610e34565b610e5e81610a67565b821015610e7b57610e7891610e7291610a74565b90610ab7565b90565b5f80fd5b34610eb057610eac610e9b610e95366004610de0565b90610e4a565b610ea36101c1565b9182918261026d565b0390f35b6101c7565b610ebe81610305565b03610ec557565b5f80fd5b90503590610ed682610eb5565b565b919061016083820312610fe157610ef1815f8501610dd1565b92610eff82602083016109c6565b92604082013567ffffffffffffffff8111610fdc5783610f209184016105eb565b92606083013567ffffffffffffffff8111610fd75781610f419185016105eb565b92608081013567ffffffffffffffff8111610fd25782610f629183016105eb565b9260a082013567ffffffffffffffff8111610fcd5783610f839184016105eb565b92610f918160c08501610224565b92610f9f8260e08301610224565b92610fca610fb1846101008501610ec9565b93610fc08161012086016104cb565b9361014001610224565b90565b6101cf565b6101cf565b6101cf565b6101cf565b6101cb565b346110235761101f61100e610ffc366004610ed8565b999890989791979692969593956133b0565b6110166101c1565b9182918261026d565b0390f35b6101c7565b346110595761105561104461103e366004610885565b906133e4565b61104c6101c1565b91829182610317565b0390f35b6101c7565b90565b5f1b90565b61107a61107561107f9261105e565b611061565b61045d565b90565b61108b5f611066565b90565b611096611082565b90565b346110c9576110a936600461041f565b6110c56110b461108e565b6110bc6101c1565b9182918261046d565b0390f35b6101c7565b91906040838203126110f657806110ea6110f3925f86016101fe565b93602001610ec9565b90565b6101cb565b3461112a5761111461110e3660046110ce565b9061340e565b61111c6101c1565b806111268161065f565b0390f35b6101c7565b60018060a01b031690565b61114a90600861114f93026108e6565b61112f565b90565b9061115d915461113a565b90565b61116c600d5f90611152565b90565b61117890610949565b90565b6111849061116f565b9052565b919061119b905f6020850194019061117b565b565b346111cd576111ad36600461041f565b6111c96111b8611160565b6111c06101c1565b91829182611188565b0390f35b6101c7565b7f9f2df0fed2c77648de5860a4cc508cd0818c85b8b8a1ab4ceeef8d981c8956a690565b6111fe6111d2565b90565b346112315761121136600461041f565b61122d61121c6111f6565b6112246101c1565b9182918261046d565b0390f35b6101c7565b346112655761124f611249366004610885565b9061344e565b6112576101c1565b806112618161065f565b0390f35b6101c7565b61127390610949565b90565b906112809061126a565b5f5260205260405f2090565b611297906008611276565b6112a081610a67565b8210156112bd576112ba916112b491610a74565b90610ab7565b90565b5f80fd5b346112f2576112ee6112dd6112d7366004610233565b9061128c565b6112e56101c1565b9182918261026d565b0390f35b6101c7565b906113019061126a565b5f5260205260405f2090565b61132161131c6113269261020d565b61092a565b61020d565b90565b906113339061130d565b5f5260205260405f2090565b5f1c90565b6113506113559161133f565b610a9c565b90565b6113629054611344565b90565b60ff1690565b61137761137c9161133f565b611365565b90565b611389905461136b565b90565b634e487b7160e01b5f52602260045260245ffd5b90600160028304921680156113c0575b60208310146113bb57565b61138c565b91607f16916113b0565b60209181520190565b5f5260205f2090565b905f92918054906113f66113ef836113a0565b80946113ca565b916001811690815f1461144d5750600114611411575b505050565b61141e91929394506113d3565b915f925b81841061143557505001905f808061140c565b60018160209295939554848601520191019290611422565b92949550505060ff19168252151560200201905f808061140c565b90611472916113dc565b90565b9061149561148e926114856101c1565b93848092611468565b0383610549565b565b90565b6114a66114ab9161133f565b611497565b90565b6114b8905461149a565b90565b906114ca6114cf9260076112f7565b611329565b6114da5f8201611358565b916114e760018301611358565b916114f46002820161137f565b9161150d600461150660038501611475565b93016114ae565b90565b61155e946115498298979561153f608096611535611556975f60a08901980190610260565b60208c0190610260565b60408a019061030a565b87820360608901526103a1565b940190610460565b565b346115955761159161157c611576366004610233565b906114bb565b916115889593956101c1565b95869586611510565b0390f35b6101c7565b60018060a01b031690565b6115b59060086115ba93026108e6565b61159a565b90565b906115c891546115a5565b90565b6115d7600c5f906115bd565b90565b6115e390610949565b90565b6115ef906115da565b9052565b9190611606905f602085019401906115e6565b565b346116385761161836600461041f565b6116346116236115cb565b61162b6101c1565b918291826115f3565b0390f35b6101c7565b91906040838203126116655780611659611662925f86016101fe565b936020016101fe565b90565b6101cb565b3461169b5761169761168661168036600461163d565b90613470565b61168e6101c1565b91829182610317565b0390f35b6101c7565b91909160a08184031261170a576116b9835f83016101fe565b926116c781602084016101fe565b926116d58260408501610224565b926116e38360608301610224565b92608082013567ffffffffffffffff811161170557611702920161078c565b90565b6101cf565b6101cb565b346117415761172b6117223660046116a0565b93929092613498565b6117336101c1565b8061173d8161065f565b0390f35b6101c7565b5f80fd5b5f90565b906117589061130d565b5f5260205260405f2090565b9061176e9061126a565b5f5260205260405f2090565b6117999061179461179e9361178d61174a565b505f61174e565b611764565b611358565b90565b5f90565b6117b7906117b16117a1565b50613511565b90565b606090565b6117c890611475565b90565b506117d46117ba565b506117df60026117bf565b90565b5f90565b6117ef9061045d565b90565b906117fc906117e6565b5f5260205260405f2090565b6001611821611827926118196117e2565b5060036117f2565b016114ae565b90565b90611845929161184061183b61042e565b613551565b611c72565b565b61185b6118566118609261105e565b61092a565b61020d565b90565b5f7f4261646765206e6f74206f776e65640000000000000000000000000000000000910152565b611897600f602092610383565b6118a081611863565b0190565b6118b99060208101905f81830391015261188a565b90565b156118c357565b6118cb6101c1565b62461bcd60e51b8152806118e1600482016118a4565b0390fd5b90565b5f7f426164676520616c7265616479207265766f6b65640000000000000000000000910152565b61191c6015602092610383565b611925816118e8565b0190565b61193e9060208101905f81830391015261190f565b90565b1561194857565b6119506101c1565b62461bcd60e51b81528061196660048201611929565b0390fd5b9061197660ff91611061565b9181191691161790565b61198990610305565b90565b90565b906119a461199f6119ab92611980565b61198c565b825461196a565b9055565b906119b99061130d565b5f5260205260405f2090565b634e487b7160e01b5f52601160045260245ffd5b6119e29061020d565b5f81146119f0576001900390565b6119c5565b90611a015f1991611061565b9181191691161790565b90565b90611a23611a1e611a2a9261130d565b611a0b565b82546119f5565b9055565b90565b611a45611a40611a4a92611a2e565b61092a565b61020d565b90565b60081c90565b60ff1690565b611a65611a6a91611a4d565b611a53565b90565b611a779054611a59565b90565b90565b611a8690611a7a565b600160ff1b8114611a96575f0390565b6119c5565b611aa7611aac9161133f565b6108ea565b90565b611ab99054611a9b565b90565b5f80fd5b60e01b90565b5f910312611ad057565b6101cb565b611ade906101de565b9052565b611aeb90611a7a565b9052565b5f7f4261646765207265766f6b656400000000000000000000000000000000000000910152565b611b23600d602092610383565b611b2c81611aef565b0190565b611b52611b5f93611b4860608401945f850190611ad5565b6020830190611ae2565b6040818303910152611b16565b90565b611b6a6101c1565b3d5f823e3d90fd5b611b7e611b839161133f565b61159a565b90565b611b909054611b72565b90565b90565b611ba2611ba79161020d565b611b93565b9052565b905090565b611bd5611bcc92602092611bc38161037f565b94858093611bab565b9384910161038c565b0190565b80611bea602092611bf19594611b96565b0190611bb0565b90565b60200190565b5190565b5f7f42414447455f5245564f4b454400000000000000000000000000000000000000910152565b611c32600d602092610383565b611c3b81611bfe565b0190565b916040611c70929493611c69611c5e606083018381035f850152611c25565b966020830190611ad5565b0190610460565b565b919091611c9b611c8384839061177a565b611c95611c8f5f611847565b9161020d565b116118bc565b611ce4611cbc611cb7611cb0600787906112f7565b8490611329565b6118e5565b611cd9611cd4611cce6002840161137f565b15610305565b611941565b60026001910161198f565b611d0d6008611cf5600684906119af565b01611d07611d0282611358565b6119d9565b90611a0e565b611d228382611d1c6001611a31565b9161358d565b611d2d838290613665565b611d54611d4f611d4a6001611d44600686906119af565b01611a6d565b6137d3565b611a7d565b611d66611d61600b611aaf565b610955565b90630cc9ec5b90859092803b15611efd57611d945f8094611d9f611d886101c1565b97889687958694611ac0565b845260048401611b30565b03925af18015611ef857611ecc575b50611dc1611dbc600c611b86565b6115da565b635260590a8483611df38691611de4611dd86101c1565b93849260208401611bd9565b60208201810382520382610549565b611e05611dff82611bfa565b91611bf4565b2092803b15611ec757611e2b5f8094611e36611e1f6101c1565b97889687958694611ac0565b845260048401611c3f565b03925af18015611ec257611e96575b50919091611e91611e7f611e797f69c1ff3c5bdf9ff8aa53ed8467eacce439afd3a7a7befccc4aaaf979373f09b99361130d565b9361126a565b93611e886101c1565b918291826103d2565b0390a3565b611eb5905f3d8111611ebb575b611ead8183610549565b810190611ac6565b5f611e45565b503d611ea3565b611b62565b611abc565b611eeb905f3d8111611ef1575b611ee38183610549565b810190611ac6565b5f611dae565b503d611ed9565b611b62565b611abc565b90611f0d929161182a565b565b916020611f30929493611f2960408201965f830190611ad5565b0190611ad5565b565b949391929092611f40613887565b86611f53611f4d836101de565b916101de565b141580611f91575b611f715750611f6f94959390919293613894565b565b8690611f8d5f92839263711bec9160e11b845260048401611f0f565b0390fd5b50611fa6611fa0888390613470565b15610305565b611f5b565b90611fc691611fc1611fbc82611808565b613551565b611fc8565b565b90611fd291613936565b50565b90611fdf91611fab565b565b9080611ffc611ff6611ff1613887565b6101de565b916101de565b0361200d5761200a916139e2565b50565b5f63334bd91960e11b8152806120256004820161065f565b0390fd5b9061204593929161204061203b6111d2565b613551565b612047565b565b9061205b939291612056613ab0565b6127b1565b612063613b15565b565b90565b5f7f4261646765206e6f742061637469766500000000000000000000000000000000910152565b61209c6010602092610383565b6120a581612068565b0190565b6120be9060208101905f81830391015261208f565b90565b156120c857565b6120d06101c1565b62461bcd60e51b8152806120e6600482016120a9565b0390fd5b5f7f4d617820737570706c7920726561636865640000000000000000000000000000910152565b61211e6012602092610383565b612127816120ea565b0190565b6121409060208101905f818303910152612111565b90565b1561214a57565b6121526101c1565b62461bcd60e51b8152806121686004820161212b565b0390fd5b5f7f426164676520616c726561647920617761726465640000000000000000000000910152565b6121a06015602092610383565b6121a98161216c565b0190565b6121c29060208101905f818303910152612193565b90565b156121cc57565b6121d46101c1565b62461bcd60e51b8152806121ea600482016121ad565b0390fd5b905051906121fb82610210565b565b9060208282031261221657612213915f016121ee565b90565b6101cb565b919061222e905f60208501940190611ad5565b565b5f7f496e73756666696369656e742074727573742073636f72650000000000000000910152565b6122646018602092610383565b61226d81612230565b0190565b6122869060208101905f818303910152612257565b90565b1561229057565b6122986101c1565b62461bcd60e51b8152806122ae60048201612271565b0390fd5b6122c16122c79193929361020d565b9261020d565b82018092116122d257565b6119c5565b6122e160a0610572565b90565b906122ee9061020d565b9052565b906122fc90610305565b9052565b52565b9061230d9061045d565b9052565b61231b905161020d565b90565b6123289051610305565b90565b5190565b601f602091010490565b1b90565b919060086123589102916123525f1984612339565b92612339565b9181191691161790565b91906123786123736123809361130d565b611a0b565b90835461233d565b9055565b6123969161239061174a565b91612362565b565b5b8181106123a4575050565b806123b15f600193612384565b01612399565b9190601f81116123c7575b505050565b6123d36123f8936113d3565b9060206123df8461232f565b83019310612400575b6123f19061232f565b0190612398565b5f80806123c2565b91506123f1819290506123e8565b9061241e905f19906008026108e6565b191690565b8161242d9161240e565b906002021790565b9061243f8161037f565b9067ffffffffffffffff82116124ff576124638261245d85546113a0565b856123b7565b602090601f831160011461249757918091612486935f9261248b575b5050612423565b90555b565b90915001515f8061247f565b601f198316916124a6856113d3565b925f5b8181106124e7575091600293918560019694106124cd575b50505002019055612489565b6124dd910151601f84169061240e565b90555f80806124c1565b919360206001819287870151815501950192016124a9565b610535565b9061250e91612435565b565b61251a905161045d565b90565b6125269061133f565b90565b9061253e612539612545926117e6565b61251d565b82546119f5565b9055565b906125bf608060046125c59461256c5f82016125665f8801612311565b90611a0e565b6125856001820161257f60208801612311565b90611a0e565b61259e600282016125986040880161231e565b9061198f565b6125b7600382016125b16060880161232b565b90612504565b019201612510565b90612529565b565b906125d191612549565b565b6125dc9061020d565b5f1981146125ea5760010190565b6119c5565b90565b5f5260205f2090565b5490565b612608816125fb565b8210156126225761261a6001916125f2565b910201905f90565b610a53565b9081549168010000000000000000831015612657578261264f916001612655950181556125ff565b90612362565b565b610535565b9061266e61266983610587565b610572565b918252565b61267c5f61265c565b90565b612687612673565b90565b5f7f4261646765206561726e65640000000000000000000000000000000000000000910152565b6126be600c602092610383565b6126c78161268a565b0190565b6126ed6126fa936126e360608401945f850190611ad5565b6020830190611ae2565b60408183039101526126b1565b90565b90565b61270c6127119161045d565b6126fd565b9052565b60209392848261272b6127329461273996611b96565b0190611bb0565b8092612700565b0190565b5f7f42414447455f4157415244454400000000000000000000000000000000000000910152565b612771600d602092610383565b61277a8161273d565b0190565b9160406127af9294936127a861279d606083018381035f850152612764565b966020830190611ad5565b0190610460565b565b90926127c76127c2600684906119af565b612065565b6127db6127d66009830161137f565b6120c1565b6127e760088201611358565b6128046127fe6127f960078501611358565b61020d565b9161020d565b108015612bbe575b61281590612143565b61283b61282386859061177a565b61283561282f5f611847565b9161020d565b146121c5565b61287c602061285261284d600b611aaf565b610955565b635e09eea19061287189926128656101c1565b95869485938493611ac0565b83526004830161221b565b03915afa8015612bb9576129c9926128c06001926129c4945f91612b8b575b506128b96128b36128ae60068601611358565b61020d565b9161020d565b1015612289565b6128cc600d8201611358565b6128de6128d85f611847565b9161020d565b115f14612b7a576129656128fe426128f8600d8501611358565b906122b2565b5b61294a42916129415f6129388d9161292f8d9561292661291d6122d7565b995f8b016122e4565b602089016122e4565b604087016122f2565b60608501612300565b60808301612303565b61296061295960078c906112f7565b8990611329565b6125c7565b6129836008820161297d61297882611358565b6125d3565b90611a0e565b6129a161299a61299560088b90611276565b6125ef565b8790612627565b6129be88876129af85611a31565b906129b861267f565b92613b29565b01611a6d565b6137d3565b6129db6129d6600b611aaf565b610955565b90630cc9ec5b90869092803b15612b7557612a095f8094612a146129fd6101c1565b97889687958694611ac0565b8452600484016126cb565b03925af18015612b7057612b44575b50612a36612a31600c611b86565b6115da565b90635260590a908590612a6b85612a5c8893612a506101c1565b94859360208501612715565b60208201810382520382610549565b612a7d612a7782611bfa565b91611bf4565b2092803b15612b3f57612aa35f8094612aae612a976101c1565b97889687958694611ac0565b84526004840161277e565b03925af18015612b3a57612b0e575b50919091612b09612af7612af17f2070a91e092f125dd21340f4fb86539dd83f09bf9af03a6417d41099e46b46929361130d565b9361126a565b93612b006101c1565b918291826103d2565b0390a3565b612b2d905f3d8111612b33575b612b258183610549565b810190611ac6565b5f612abd565b503d612b1b565b611b62565b611abc565b612b63905f3d8111612b69575b612b5b8183610549565b810190611ac6565b5f612a23565b503d612b51565b611b62565b611abc565b612965612b865f611847565b6128ff565b612bac915060203d8111612bb2575b612ba48183610549565b8101906121fd565b5f61289b565b503d612b9a565b611b62565b50612815612bce60078301611358565b612be0612bda5f611847565b9161020d565b14905061280c565b90612bf4939291612029565b565b606090565b5190565b916020612c20929493612c1960408201965f830190610260565b0190610260565b565b90612c34612c2f83610698565b610572565b918252565b369037565b90612c63612c4b83612c22565b92602080612c598693610698565b9201910390612c39565b565b6001612c71910161020d565b90565b90612c7e82610cee565b811015612c8f576020809102010190565b610a53565b90612c9d612bf6565b50612ca782612bfb565b612cc1612cbb612cb684610cee565b61020d565b9161020d565b03612d4b57612cd7612cd283612bfb565b612c3e565b91612ce15f611847565b5b80612cfd612cf7612cf285612bfb565b61020d565b9161020d565b1015612d4557612d4090612d3b612d29612d18858490613b96565b612d23878590613bac565b9061177a565b612d368791849092612c74565b6122e4565b612c65565b612ce2565b50505090565b612d57612d5d91610cee565b91612bfb565b90612d785f928392635b05999160e01b845260048401612bff565b0390fd5b90612da09b9a999897969594939291612d9b612d9661042e565b613551565b6130a1565b90565b90565b5f7f4e616d652063616e6e6f7420626520656d707479000000000000000000000000910152565b612dda6014602092610383565b612de381612da6565b0190565b612dfc9060208101905f818303910152612dcd565b90565b15612e0657565b612e0e6101c1565b62461bcd60e51b815280612e2460048201612de7565b0390fd5b5f7f4465736372697074696f6e2063616e6e6f7420626520656d7074790000000000910152565b612e5c601b602092610383565b612e6581612e28565b0190565b612e7e9060208101905f818303910152612e4f565b90565b15612e8857565b612e906101c1565b62461bcd60e51b815280612ea660048201612e69565b0390fd5b90565b90612ec2612ebd612ec992610e28565b612eaa565b825461196a565b9055565b60081b90565b90612ee061ff0091612ecd565b9181191691161790565b90565b90612f02612efd612f0992610a31565b612eea565b8254612ed3565b9055565b90612f22612f1d612f2992611980565b61198c565b8254612ed3565b9055565b90612f3e60018060a01b0391611061565b9181191691161790565b90565b90612f60612f5b612f679261126a565b612f48565b8254612f2d565b9055565b612f7490610e1c565b90565b612f8090610a25565b90565b92612fac612fa5612fb494602087612f9e829a998398611b96565b0190611bb0565b8092611b96565b018092611b96565b0190565b5f7f42414447455f4352454154454400000000000000000000000000000000000000910152565b612fec600d602092610383565b612ff581612fb8565b0190565b91604061302a929493613023613018606083018381035f850152612fdf565b966020830190611ad5565b0190610460565b565b61303590610e1c565b90565b6130419061302c565b9052565b61304e90610a25565b90565b61305a90613045565b9052565b94939160609161309f9461308a6130979361308060808b01945f8c0190613038565b60208a0190613051565b87820360408901526103a1565b940190611ad5565b565b9a95909893969199949a97929750876130b990612da3565b6130c290611bfa565b5f6130cc90611847565b906130d69061020d565b116130e090612dff565b866130ea90612da3565b6130f390611bfa565b5f6130fd90611847565b906131079061020d565b1161311190612e81565b61311b6005611358565b613124906125d3565b61312f906005611a0e565b6131396005611358565b9a60068c613146916119af565b61314f90612065565b978c895f019061315e91611a0e565b8a896001019061316d91612ead565b8b896001019061317c91612eed565b89896002019061318b91612504565b886003019061319991612504565b87600401906131a791612504565b86600501906131b591612504565b85600601906131c391611a0e565b84600701906131d191611a0e565b5f6131db90611847565b84600801906131e991611a0e565b600184600901906131f99161198f565b836009019061320791612f0d565b4283600a019061321691611a0e565b3383600b019061322591612f4b565b82600c019061323391612529565b90600d019061324191611a0e565b60098261324d91610e34565b613256906125ef565b8461326091612627565b600a8361326c91610a3d565b613275906125ef565b8461327f91612627565b613289600c611b86565b613292906115da565b635260590a338684866132a490612f6b565b91886132af90612f77565b6132b76101c1565b93849360208501936132c894612f83565b6020820181038252036132db9082610549565b6132e481611bfa565b906132ee90611bf4565b2092803b156133ab576133145f809461331f6133086101c1565b97889687958694611ac0565b845260048401612ff9565b03925af180156133a65761337a575b508391929092613374336133627f8125fb629a462f60ae9ae745cbea90cd61f052b1cb6c8712cd164b78d194b6369561130d565b9561336b6101c1565b9485948561305e565b0390a290565b613399905f3d811161339f575b6133918183610549565b810190611ac6565b5f61332e565b503d613387565b611b62565b611abc565b906133cb9a9998979695949392916133c661174a565b612d7c565b90565b906133d89061126a565b5f5260205260405f2090565b61340b915f613400613406936133f86117a1565b5060036117f2565b016133ce565b61137f565b90565b6134229161341a613887565b919091613bc2565b565b9061343f9161343a61343582611808565b613551565b613441565b565b9061344b916139e2565b50565b9061345891613424565b565b906134649061126a565b5f5260205260405f2090565b6134959161348b613490926134836117a1565b50600161345a565b6133ce565b61137f565b90565b9493919290926134a6613887565b866134b96134b3836101de565b916101de565b1415806134f7575b6134d757506134d594959390919293613c7a565b565b86906134f35f92839263711bec9160e11b845260048401611f0f565b0390fd5b5061350c613506888390613470565b15610305565b6134c1565b6135196117a1565b508061353461352e637965db0b60e01b6102b8565b916102b8565b14908115613541575b5090565b61354b9150613d25565b5f61353d565b6135639061355d613887565b90613db0565b565b61357961357461357e9261105e565b61092a565b6101d3565b90565b61358a90613565565b90565b90816135a96135a361359e5f613581565b6101de565b916101de565b146135d7576135d5926135bb91613deb565b6135c45f613581565b9190916135cf61267f565b93613e22565b565b6135f96135e35f613581565b5f918291626a0d4560e21b83526004830161221b565b0390fd5b61360c6136129193929361020d565b9261020d565b820391821161361d57565b6119c5565b634e487b7160e01b5f52603160045260245ffd5b61363f816125fb565b801561366057600190039061365d61365783836125ff565b90612384565b55565b613622565b613673613678916008611276565b6125ef565b6136815f611847565b5b8061369d613697613692856125fb565b61020d565b9161020d565b101561372c576136b76136b18383906125ff565b90610ab7565b6136c96136c38561020d565b9161020d565b146136dc576136d790612c65565b613682565b61372992506137249061371e6137176137118561370b6136fb886125fb565b6137056001611a31565b906135fd565b906125ff565b90610ab7565b91846125ff565b90612362565b613636565b5b565b50505061372a565b5f90565b90565b61374f61374a61375492613738565b61092a565b611a7a565b90565b90565b61376e61376961377392613757565b61092a565b611a7a565b90565b90565b61378d61378861379292613776565b61092a565b611a7a565b90565b90565b6137ac6137a76137b192613795565b61092a565b611a7a565b90565b90565b6137cb6137c66137d0926137b4565b61092a565b611a7a565b90565b6137db613734565b50806137f06137ea6004610a25565b91610a25565b1461387557806138096138036003610a25565b91610a25565b14613867578061382261381c6002610a25565b91610a25565b146138595761383a6138346001610a25565b91610a25565b1461384c5761384960036137b7565b90565b6138566008613798565b90565b50613864600f613779565b90565b50613872601961375a565b90565b50613880603261373b565b90565b5f90565b61388f613883565b503390565b9391929092836138b46138ae6138a95f613581565b6101de565b916101de565b1461390f57846138d46138ce6138c95f613581565b6101de565b916101de565b146138e9576138e7949390919293613e22565b565b61390b6138f55f613581565b5f918291626a0d4560e21b83526004830161221b565b0390fd5b61393261391b5f613581565b5f918291632bfa23e760e11b83526004830161221b565b0390fd5b61393e6117a1565b5061395361394d8284906133e4565b15610305565b5f146139dc5761397b60016139765f61396e600386906117f2565b0185906133ce565b61198f565b90613984613887565b906139c16139bb6139b57f2f8788117e7eff1d82e926ec794901d17c78024a50270940304540a733656f0d956117e6565b9261126a565b9261126a565b926139ca6101c1565b806139d48161065f565b0390a4600190565b50505f90565b6139ea6117a1565b506139f68183906133e4565b5f14613a7e57613a1d5f613a185f613a10600386906117f2565b0185906133ce565b61198f565b90613a26613887565b90613a63613a5d613a577ff6391f5c32d9c69d2a47ea670b442974b53935d1edc7fd64eb21e047a839171b956117e6565b9261126a565b9261126a565b92613a6c6101c1565b80613a768161065f565b0390a4600190565b50505f90565b90565b613a9b613a96613aa092613a84565b61092a565b61020d565b90565b613aad6002613a87565b90565b613aba6004611358565b613ad3613acd613ac8613aa3565b61020d565b9161020d565b14613aec57613aea613ae3613aa3565b6004611a0e565b565b5f633ee5aeb560e01b815280613b046004820161065f565b0390fd5b613b126001611a31565b90565b613b27613b20613b08565b6004611a0e565b565b91929082613b47613b41613b3c5f613581565b6101de565b916101de565b14613b6f57613b6d93613b5991613deb565b90613b635f613581565b9390919293613e22565b565b613b92613b7b5f613581565b5f918291632bfa23e760e11b83526004830161221b565b0390fd5b9060208091613ba3613883565b50029101015190565b9060208091613bb961174a565b50029101015190565b91909182613be0613bda613bd55f613581565b6101de565b916101de565b14613c5457613c0482613bff613bf86001859061345a565b86906133ce565b61198f565b919091613c4f613c3d613c377f17307eab39ab6107e8899845ad3d59bd9653f200f220920489ca2b5937696c319361126a565b9361126a565b93613c466101c1565b91829182610317565b0390a3565b613c76613c605f613581565b5f91829162ced3e160e81b83526004830161221b565b0390fd5b9092939183613c99613c93613c8e5f613581565b6101de565b916101de565b14613cfe5781613cb9613cb3613cae5f613581565b6101de565b916101de565b14613cd857613cd694613ccb91613deb565b919390919293613e22565b565b613cfa613ce45f613581565b5f918291626a0d4560e21b83526004830161221b565b0390fd5b613d21613d0a5f613581565b5f918291632bfa23e760e11b83526004830161221b565b0390fd5b613d2d6117a1565b5080613d48613d42636cdb3d1360e11b6102b8565b916102b8565b148015613d6c575b908115613d5c575b5090565b613d669150613ede565b5f613d58565b5080613d87613d816303a24d0760e21b6102b8565b916102b8565b14613d50565b916020613dae929493613da760408201965f830190611ad5565b0190610460565b565b90613dc5613dbf8383906133e4565b15610305565b613dcd575050565b613de75f92839263e2517d3f60e01b845260048401613d8d565b0390fd5b91613df4612bf6565b50613dfd612bf6565b5060405192600184526020840152604083019160018352602083015260408201604052565b92939193613e34848387908492613f7b565b81613e4f613e49613e445f613581565b6101de565b916101de565b03613e5c575b5050505050565b613e64613887565b91613e6e86610cee565b613e81613e7b6001611a31565b9161020d565b145f14613ec857613eb1613ea1613ebd97613e9b5f611847565b90613bac565b92613eab5f611847565b90613bac565b92949091929394614527565b5b5f80808080613e55565b613ed9959192949091929394614377565b613ebe565b613ee66117a1565b50613f00613efa6301ffc9a760e01b6102b8565b916102b8565b1490565b613f39613f4094613f2f606094989795613f25608086019a5f870190611ad5565b6020850190610260565b6040830190610260565b0190610260565b565b90613f4d910361020d565b90565b9091613f6a613f789360408401908482035f860152610d25565b916020818403910152610d25565b90565b93929091613f8881610cee565b613fa2613f9c613f9785610cee565b61020d565b9161020d565b0361421d57613faf613887565b93613fb95f611847565b5b80613fd5613fcf613fca86610cee565b61020d565b9161020d565b101561411357613fe6838290613bac565b613ff1858390613bac565b908861400d6140076140025f613581565b6101de565b916101de565b0361407d575b9061404192918761403461402e6140295f613581565b6101de565b916101de565b03614046575b5050612c65565b613fba565b61407061406161405a61407694935f61174e565b8a90611764565b9161406b83611358565b6122b2565b90611a0e565b5f8061403a565b61409a61409561408e5f849061174e565b8b90611764565b611358565b806140ad6140a78561020d565b9161020d565b106140e957906140e06140c66140419594938490613f42565b6140db6140d45f859061174e565b8d90611764565b611a0e565b90919250614013565b9061410f908a92936140f96101c1565b9485946303dee4c560e01b865260048601613f04565b0390fd5b50949092919261412281610cee565b61413561412f6001611a31565b9161020d565b145f146141be576141526141629161414c5f611847565b90613bac565b9361415c5f611847565b90613bac565b93909192936141a361419d6141977fc3d58168c5ae7397731d063d5bbf3d657854427343f4c083240f7aacaa2d0f629461126a565b9461126a565b9461126a565b946141b86141af6101c1565b92839283612bff565b0390a45b565b9293909192936142006141fa6141f47f4a39dc06d4c0dbc64b70af90fd698a233a518aa5d07e595d983b8c0526c8f7fb9461126a565b9461126a565b9461126a565b9461421561420c6101c1565b92839283613f50565b0390a46141bc565b61422961422f91610cee565b91610cee565b9061424a5f928392635b05999160e01b845260048401612bff565b0390fd5b6142579061092d565b90565b6142639061424e565b90565b61426f90610949565b90565b9050519061427f826102c4565b565b9060208282031261429a57614297915f01614272565b90565b6101cb565b60209181520190565b6142c76142d06020936142d5936142be81611bfa565b9384809361429f565b9586910161038c565b610397565b0190565b93906143139061432f9694614306614321956142fc60a08a01945f8b0190611ad5565b6020890190611ad5565b8682036040880152610d25565b908482036060860152610d25565b9160808184039101526142a8565b90565b9061434461433f83610733565b610572565b918252565b606090565b3d5f146143695761435e3d614332565b903d5f602084013e5b565b614371614349565b90614367565b94909194939293853b61439261438c5f611847565b9161020d565b116143a0575b505050505050565b5f6143dc916143e76020966143bc6143b78b61425a565b614266565b9563bc197c819397999190916143d06101c1565b9a8b998a988997611ac0565b8752600487016142d9565b03925af180915f926144a6575b50155f146144635750600161441057505b5f8080808080614398565b61441861434e565b9061442282611bfa565b61443461442e5f611847565b9161020d565b145f1461445a57614456905f918291632bfa23e760e11b83526004830161221b565b0390fd5b50602081519101fd5b61447c61447663bc197c8160e01b6102b8565b916102b8565b036144875750614405565b6144a2905f918291632bfa23e760e11b83526004830161221b565b0390fd5b6144c891925060203d81116144cf575b6144c08183610549565b810190614281565b905f6143f4565b503d6144b6565b919361450d614524969461450361451794976144f960a08801995f890190611ad5565b6020870190611ad5565b6040850190610260565b6060830190610260565b60808184039101526142a8565b90565b94909194939293853b61454261453c5f611847565b9161020d565b11614550575b505050505050565b5f61458c9161459760209661456c6145678b61425a565b614266565b9563f23a6e619397999190916145806101c1565b9a8b998a988997611ac0565b8752600487016144d6565b03925af180915f92614656575b50155f14614613575060016145c057505b5f8080808080614548565b6145c861434e565b906145d282611bfa565b6145e46145de5f611847565b9161020d565b145f1461460a57614606905f918291632bfa23e760e11b83526004830161221b565b0390fd5b50602081519101fd5b61462c61462663f23a6e6160e01b6102b8565b916102b8565b0361463757506145b5565b614652905f918291632bfa23e760e11b83526004830161221b565b0390fd5b61467891925060203d811161467f575b6146708183610549565b810190614281565b905f6145a4565b503d61466656fea2646970667358221220f98021319426a446e8fde4ab99e292fb5694704a2100eed6bae0a0772731d45764736f6c634300081e0033","linkReferences":{}},"methodIdentifiers":{"BADGE_ADMIN_ROLE()":"1f801e27","DEFAULT_ADMIN_ROLE()":"a217fddf","MINTER_ROLE()":"d5391393","awardBadge(uint256,address,string,bytes32)":"4a5a89a4","badgesByRarity(uint8,uint256)":"361daaeb","badgesByType(uint8,uint256)":"5476c005","balanceOf(address,uint256)":"00fdd58e","balanceOfBatch(address[],uint256[])":"4e1273f4","certificateManager()":"c1c16140","createBadge(uint8,uint8,string,string,string,string,uint256,uint256,bool,bytes32,uint256)":"56854973","getRoleAdmin(bytes32)":"248a9ca3","grantRole(bytes32,address)":"2f2ff15d","hasRole(bytes32,address)":"91d14854","isApprovedForAll(address,address)":"e985e9c5","renounceRole(bytes32,address)":"36568abe","revokeBadge(uint256,address,string)":"2c81daf1","revokeRole(bytes32,address)":"d547741f","safeBatchTransferFrom(address,address,uint256[],uint256[],bytes)":"2eb2c2d6","safeTransferFrom(address,address,uint256,uint256,bytes)":"f242432a","setApprovalForAll(address,bool)":"a22cb465","supportsInterface(bytes4)":"01ffc9a7","trustScore()":"3078d998","uri(uint256)":"0e89341c","userBadgeList(address,uint256)":"da8679bb","userBadges(address,uint256)":"df91cc23","verificationLogger()":"e1300c88"},"id":85}