{"abi":[{"type":"constructor","inputs":[{"name":"_communityWallet","type":"address","internalType":"address"},{"name":"_teamWallet","type":"address","internalType":"address"},{"name":"_treasuryWallet","type":"address","internalType":"address"},{"name":"_ecosystemWallet","type":"address","internalType":"address"},{"name":"_verificationLogger","type":"address","internalType":"address"}],"stateMutability":"nonpayable"},{"type":"function","name":"BURNER_ROLE","inputs":[],"outputs":[{"name":"","type":"bytes32","internalType":"bytes32"}],"stateMutability":"view"},{"type":"function","name":"COMMUNITY_ALLOCATION","inputs":[],"outputs":[{"name":"","type":"uint256","internalType":"uint256"}],"stateMutability":"view"},{"type":"function","name":"DEFAULT_ADMIN_ROLE","inputs":[],"outputs":[{"name":"","type":"bytes32","internalType":"bytes32"}],"stateMutability":"view"},{"type":"function","name":"ECOSYSTEM_ALLOCATION","inputs":[],"outputs":[{"name":"","type":"uint256","internalType":"uint256"}],"stateMutability":"view"},{"type":"function","name":"INITIAL_SUPPLY","inputs":[],"outputs":[{"name":"","type":"uint256","internalType":"uint256"}],"stateMutability":"view"},{"type":"function","name":"MAX_SUPPLY","inputs":[],"outputs":[{"name":"","type":"uint256","internalType":"uint256"}],"stateMutability":"view"},{"type":"function","name":"MINTER_ROLE","inputs":[],"outputs":[{"name":"","type":"bytes32","internalType":"bytes32"}],"stateMutability":"view"},{"type":"function","name":"PAUSER_ROLE","inputs":[],"outputs":[{"name":"","type":"bytes32","internalType":"bytes32"}],"stateMutability":"view"},{"type":"function","name":"PUBLIC_SALE_ALLOCATION","inputs":[],"outputs":[{"name":"","type":"uint256","internalType":"uint256"}],"stateMutability":"view"},{"type":"function","name":"TEAM_ALLOCATION","inputs":[],"outputs":[{"name":"","type":"uint256","internalType":"uint256"}],"stateMutability":"view"},{"type":"function","name":"TREASURY_ALLOCATION","inputs":[],"outputs":[{"name":"","type":"uint256","internalType":"uint256"}],"stateMutability":"view"},{"type":"function","name":"allowance","inputs":[{"name":"owner","type":"address","internalType":"address"},{"name":"spender","type":"address","internalType":"address"}],"outputs":[{"name":"","type":"uint256","internalType":"uint256"}],"stateMutability":"view"},{"type":"function","name":"approve","inputs":[{"name":"spender","type":"address","internalType":"address"},{"name":"value","type":"uint256","internalType":"uint256"}],"outputs":[{"name":"","type":"bool","internalType":"bool"}],"stateMutability":"nonpayable"},{"type":"function","name":"balanceOf","inputs":[{"name":"account","type":"address","internalType":"address"}],"outputs":[{"name":"","type":"uint256","internalType":"uint256"}],"stateMutability":"view"},{"type":"function","name":"blacklist","inputs":[{"name":"account","type":"address","internalType":"address"}],"outputs":[],"stateMutability":"nonpayable"},{"type":"function","name":"blacklisted","inputs":[{"name":"","type":"address","internalType":"address"}],"outputs":[{"name":"","type":"bool","internalType":"bool"}],"stateMutability":"view"},{"type":"function","name":"burn","inputs":[{"name":"amount","type":"uint256","internalType":"uint256"}],"outputs":[],"stateMutability":"nonpayable"},{"type":"function","name":"burnFrom","inputs":[{"name":"account","type":"address","internalType":"address"},{"name":"amount","type":"uint256","internalType":"uint256"}],"outputs":[],"stateMutability":"nonpayable"},{"type":"function","name":"communityWallet","inputs":[],"outputs":[{"name":"","type":"address","internalType":"address"}],"stateMutability":"view"},{"type":"function","name":"createVestingSchedule","inputs":[{"name":"beneficiary","type":"address","internalType":"address"},{"name":"amount","type":"uint256","internalType":"uint256"},{"name":"startTime","type":"uint256","internalType":"uint256"},{"name":"cliffDuration","type":"uint256","internalType":"uint256"},{"name":"duration","type":"uint256","internalType":"uint256"},{"name":"slicePeriodSeconds","type":"uint256","internalType":"uint256"},{"name":"revocable","type":"bool","internalType":"bool"}],"outputs":[],"stateMutability":"nonpayable"},{"type":"function","name":"decimals","inputs":[],"outputs":[{"name":"","type":"uint8","internalType":"uint8"}],"stateMutability":"view"},{"type":"function","name":"ecosystemWallet","inputs":[],"outputs":[{"name":"","type":"address","internalType":"address"}],"stateMutability":"view"},{"type":"function","name":"getRoleAdmin","inputs":[{"name":"role","type":"bytes32","internalType":"bytes32"}],"outputs":[{"name":"","type":"bytes32","internalType":"bytes32"}],"stateMutability":"view"},{"type":"function","name":"getTotalVestedAmount","inputs":[{"name":"beneficiary","type":"address","internalType":"address"}],"outputs":[{"name":"","type":"uint256","internalType":"uint256"}],"stateMutability":"view"},{"type":"function","name":"getVestingSchedule","inputs":[{"name":"beneficiary","type":"address","internalType":"address"},{"name":"index","type":"uint256","internalType":"uint256"}],"outputs":[{"name":"totalAmount","type":"uint256","internalType":"uint256"},{"name":"startTime","type":"uint256","internalType":"uint256"},{"name":"cliffDuration","type":"uint256","internalType":"uint256"},{"name":"duration","type":"uint256","internalType":"uint256"},{"name":"amountWithdrawn","type":"uint256","internalType":"uint256"},{"name":"revoked","type":"bool","internalType":"bool"},{"name":"withdrawable","type":"uint256","internalType":"uint256"}],"stateMutability":"view"},{"type":"function","name":"getVestingScheduleCount","inputs":[{"name":"beneficiary","type":"address","internalType":"address"}],"outputs":[{"name":"","type":"uint256","internalType":"uint256"}],"stateMutability":"view"},{"type":"function","name":"grantRole","inputs":[{"name":"role","type":"bytes32","internalType":"bytes32"},{"name":"account","type":"address","internalType":"address"}],"outputs":[],"stateMutability":"nonpayable"},{"type":"function","name":"hasRole","inputs":[{"name":"role","type":"bytes32","internalType":"bytes32"},{"name":"account","type":"address","internalType":"address"}],"outputs":[{"name":"","type":"bool","internalType":"bool"}],"stateMutability":"view"},{"type":"function","name":"mint","inputs":[{"name":"to","type":"address","internalType":"address"},{"name":"amount","type":"uint256","internalType":"uint256"}],"outputs":[],"stateMutability":"nonpayable"},{"type":"function","name":"name","inputs":[],"outputs":[{"name":"","type":"string","internalType":"string"}],"stateMutability":"view"},{"type":"function","name":"pause","inputs":[],"outputs":[],"stateMutability":"nonpayable"},{"type":"function","name":"paused","inputs":[],"outputs":[{"name":"","type":"bool","internalType":"bool"}],"stateMutability":"view"},{"type":"function","name":"renounceRole","inputs":[{"name":"role","type":"bytes32","internalType":"bytes32"},{"name":"callerConfirmation","type":"address","internalType":"address"}],"outputs":[],"stateMutability":"nonpayable"},{"type":"function","name":"revokeRole","inputs":[{"name":"role","type":"bytes32","internalType":"bytes32"},{"name":"account","type":"address","internalType":"address"}],"outputs":[],"stateMutability":"nonpayable"},{"type":"function","name":"revokeVesting","inputs":[{"name":"beneficiary","type":"address","internalType":"address"},{"name":"scheduleIndex","type":"uint256","internalType":"uint256"}],"outputs":[],"stateMutability":"nonpayable"},{"type":"function","name":"supportsInterface","inputs":[{"name":"interfaceId","type":"bytes4","internalType":"bytes4"}],"outputs":[{"name":"","type":"bool","internalType":"bool"}],"stateMutability":"view"},{"type":"function","name":"symbol","inputs":[],"outputs":[{"name":"","type":"string","internalType":"string"}],"stateMutability":"view"},{"type":"function","name":"teamWallet","inputs":[],"outputs":[{"name":"","type":"address","internalType":"address"}],"stateMutability":"view"},{"type":"function","name":"totalSupply","inputs":[],"outputs":[{"name":"","type":"uint256","internalType":"uint256"}],"stateMutability":"view"},{"type":"function","name":"transfer","inputs":[{"name":"to","type":"address","internalType":"address"},{"name":"value","type":"uint256","internalType":"uint256"}],"outputs":[{"name":"","type":"bool","internalType":"bool"}],"stateMutability":"nonpayable"},{"type":"function","name":"transferFrom","inputs":[{"name":"from","type":"address","internalType":"address"},{"name":"to","type":"address","internalType":"address"},{"name":"value","type":"uint256","internalType":"uint256"}],"outputs":[{"name":"","type":"bool","internalType":"bool"}],"stateMutability":"nonpayable"},{"type":"function","name":"treasuryWallet","inputs":[],"outputs":[{"name":"","type":"address","internalType":"address"}],"stateMutability":"view"},{"type":"function","name":"unblacklist","inputs":[{"name":"account","type":"address","internalType":"address"}],"outputs":[],"stateMutability":"nonpayable"},{"type":"function","name":"unpause","inputs":[],"outputs":[],"stateMutability":"nonpayable"},{"type":"function","name":"verificationLogger","inputs":[],"outputs":[{"name":"","type":"address","internalType":"contract IVerificationLogger"}],"stateMutability":"view"},{"type":"function","name":"withdraw","inputs":[{"name":"scheduleIndex","type":"uint256","internalType":"uint256"}],"outputs":[],"stateMutability":"nonpayable"},{"type":"event","name":"Approval","inputs":[{"name":"owner","type":"address","indexed":true,"internalType":"address"},{"name":"spender","type":"address","indexed":true,"internalType":"address"},{"name":"value","type":"uint256","indexed":false,"internalType":"uint256"}],"anonymous":false},{"type":"event","name":"Blacklisted","inputs":[{"name":"account","type":"address","indexed":true,"internalType":"address"}],"anonymous":false},{"type":"event","name":"Paused","inputs":[{"name":"account","type":"address","indexed":false,"internalType":"address"}],"anonymous":false},{"type":"event","name":"RoleAdminChanged","inputs":[{"name":"role","type":"bytes32","indexed":true,"internalType":"bytes32"},{"name":"previousAdminRole","type":"bytes32","indexed":true,"internalType":"bytes32"},{"name":"newAdminRole","type":"bytes32","indexed":true,"internalType":"bytes32"}],"anonymous":false},{"type":"event","name":"RoleGranted","inputs":[{"name":"role","type":"bytes32","indexed":true,"internalType":"bytes32"},{"name":"account","type":"address","indexed":true,"internalType":"address"},{"name":"sender","type":"address","indexed":true,"internalType":"address"}],"anonymous":false},{"type":"event","name":"RoleRevoked","inputs":[{"name":"role","type":"bytes32","indexed":true,"internalType":"bytes32"},{"name":"account","type":"address","indexed":true,"internalType":"address"},{"name":"sender","type":"address","indexed":true,"internalType":"address"}],"anonymous":false},{"type":"event","name":"TokensWithdrawn","inputs":[{"name":"beneficiary","type":"address","indexed":true,"internalType":"address"},{"name":"amount","type":"uint256","indexed":false,"internalType":"uint256"}],"anonymous":false},{"type":"event","name":"Transfer","inputs":[{"name":"from","type":"address","indexed":true,"internalType":"address"},{"name":"to","type":"address","indexed":true,"internalType":"address"},{"name":"value","type":"uint256","indexed":false,"internalType":"uint256"}],"anonymous":false},{"type":"event","name":"Unblacklisted","inputs":[{"name":"account","type":"address","indexed":true,"internalType":"address"}],"anonymous":false},{"type":"event","name":"Unpaused","inputs":[{"name":"account","type":"address","indexed":false,"internalType":"address"}],"anonymous":false},{"type":"event","name":"VestingCreated","inputs":[{"name":"beneficiary","type":"address","indexed":true,"internalType":"address"},{"name":"amount","type":"uint256","indexed":false,"internalType":"uint256"},{"name":"duration","type":"uint256","indexed":false,"internalType":"uint256"}],"anonymous":false},{"type":"event","name":"VestingRevoked","inputs":[{"name":"beneficiary","type":"address","indexed":true,"internalType":"address"},{"name":"scheduleIndex","type":"uint256","indexed":false,"internalType":"uint256"}],"anonymous":false},{"type":"error","name":"AccessControlBadConfirmation","inputs":[]},{"type":"error","name":"AccessControlUnauthorizedAccount","inputs":[{"name":"account","type":"address","internalType":"address"},{"name":"neededRole","type":"bytes32","internalType":"bytes32"}]},{"type":"error","name":"ERC20InsufficientAllowance","inputs":[{"name":"spender","type":"address","internalType":"address"},{"name":"allowance","type":"uint256","internalType":"uint256"},{"name":"needed","type":"uint256","internalType":"uint256"}]},{"type":"error","name":"ERC20InsufficientBalance","inputs":[{"name":"sender","type":"address","internalType":"address"},{"name":"balance","type":"uint256","internalType":"uint256"},{"name":"needed","type":"uint256","internalType":"uint256"}]},{"type":"error","name":"ERC20InvalidApprover","inputs":[{"name":"approver","type":"address","internalType":"address"}]},{"type":"error","name":"ERC20InvalidReceiver","inputs":[{"name":"receiver","type":"address","internalType":"address"}]},{"type":"error","name":"ERC20InvalidSender","inputs":[{"name":"sender","type":"address","internalType":"address"}]},{"type":"error","name":"ERC20InvalidSpender","inputs":[{"name":"spender","type":"address","internalType":"address"}]},{"type":"error","name":"EnforcedPause","inputs":[]},{"type":"error","name":"ExpectedPause","inputs":[]}],"bytecode":{"object":"0x6080604052346100335761001d610014610130565b9392909261067f565b610025610038565b6143e1611d0982396143e190f35b61003e565b60405190565b5f80fd5b601f801991011690565b634e487b7160e01b5f52604160045260245ffd5b9061006a90610042565b810190811060018060401b0382111761008257604052565b61004c565b9061009a610093610038565b9283610060565b565b5f80fd5b60018060a01b031690565b6100b4906100a0565b90565b6100c0816100ab565b036100c757565b5f80fd5b905051906100d8826100b7565b565b919060a08382031261012b576100f2815f85016100cb565b9261010082602083016100cb565b9261012861011184604085016100cb565b9361011f81606086016100cb565b936080016100cb565b90565b61009c565b61014e6160ea8038038061014381610087565b9283398101906100da565b9091929394565b60018060401b0381116101715761016d602091610042565b0190565b61004c565b9061018861018383610155565b610087565b918252565b5f7f4564754365727420546f6b656e00000000000000000000000000000000000000910152565b6101be600d610176565b906101cb6020830161018d565b565b6101d56101b4565b90565b5f7f4544550000000000000000000000000000000000000000000000000000000000910152565b6102096003610176565b90610216602083016101d8565b565b6102206101ff565b90565b90565b90565b61023d61023861024292610223565b610226565b6100a0565b90565b61024e90610229565b90565b60209181520190565b5f7f496e76616c696420636f6d6d756e6974792077616c6c65740000000000000000910152565b61028e6018602092610251565b6102978161025a565b0190565b6102b09060208101905f818303910152610281565b90565b156102ba57565b6102c2610038565b62461bcd60e51b8152806102d86004820161029b565b0390fd5b5f7f496e76616c6964207465616d2077616c6c657400000000000000000000000000910152565b6103106013602092610251565b610319816102dc565b0190565b6103329060208101905f818303910152610303565b90565b1561033c57565b610344610038565b62461bcd60e51b81528061035a6004820161031d565b0390fd5b5f7f496e76616c69642074726561737572792077616c6c6574000000000000000000910152565b6103926017602092610251565b61039b8161035e565b0190565b6103b49060208101905f818303910152610385565b90565b156103be57565b6103c6610038565b62461bcd60e51b8152806103dc6004820161039f565b0390fd5b5f7f496e76616c69642065636f73797374656d2077616c6c65740000000000000000910152565b6104146018602092610251565b61041d816103e0565b0190565b6104369060208101905f818303910152610407565b90565b1561044057565b610448610038565b62461bcd60e51b81528061045e60048201610421565b0390fd5b5f7f496e76616c6964206c6f67676572206164647265737300000000000000000000910152565b6104966016602092610251565b61049f81610462565b0190565b6104b89060208101905f818303910152610489565b90565b156104c257565b6104ca610038565b62461bcd60e51b8152806104e0600482016104a3565b0390fd5b90565b5f1b90565b6105006104fb61050592610223565b6104e7565b6104e4565b90565b6105115f6104ec565b90565b7f9f2df0fed2c77648de5860a4cc508cd0818c85b8b8a1ab4ceeef8d981c8956a690565b7f3c11d16cbaffd01df69ce1c404f6340ee057498f5f00246190ea54220576a84890565b7f65d7a28e3265b37a6474929f336521b332c1681b933f6cb9f3376673440d862a90565b9061059160018060a01b03916104e7565b9181191691161790565b6105af6105aa6105b4926100a0565b610226565b6100a0565b90565b6105c09061059b565b90565b6105cc906105b7565b90565b90565b906105e76105e26105ee926105c3565b6105cf565b8254610580565b9055565b6105fb9061059b565b90565b610607906105f2565b90565b610613906105f2565b90565b90565b9061062e6106296106359261060a565b610616565b8254610580565b9055565b610642906105b7565b90565b90565b90565b61065f61065a61066492610645565b610226565b610648565b90565b61067c6b033b2e3c9fd0803ce800000061064b565b90565b926107c96107dc95936107c26107d0946107bb6107d5986106af6106a16101cd565b6106a9610218565b90610800565b6106d4816106cd6106c76106c25f610245565b6100ab565b916100ab565b14156102b3565b6106f9836106f26106ec6106e75f610245565b6100ab565b916100ab565b1415610335565b61071e8561071761071161070c5f610245565b6100ab565b916100ab565b14156103b7565b6107438761073c6107366107315f610245565b6100ab565b916100ab565b1415610439565b6107688961076161075b6107565f610245565b6100ab565b916100ab565b14156104bb565b61077a610773610508565b3390610b5b565b5061078d610786610514565b3390610b5b565b506107a0610799610538565b3390610b5b565b506107b36107ac61055c565b3390610b5b565b50600a6105d2565b600b6105d2565b600c6105d2565b600d6105d2565b6105fe565b6009610619565b6107f66107e830610639565b6107f0610667565b90610c29565b6107fe610e75565b565b9061080a9161080c565b565b9061081691610818565b565b9061082291610824565b565b9061082e91610830565b565b9061083a9161083c565b565b9061084691610848565b565b9061085291610ab8565b565b634e487b7160e01b5f525f60045260245ffd5b5190565b634e487b7160e01b5f52602260045260245ffd5b906001600283049216801561089f575b602083101461089a57565b61086b565b91607f169161088f565b5f5260205f2090565b601f602091010490565b1b90565b919060086108db9102916108d55f19846108bc565b926108bc565b9181191691161790565b6108f96108f46108fe92610648565b610226565b610648565b90565b90565b919061091a610915610922936108e5565b610901565b9083546108c0565b9055565b5f90565b61093c91610936610926565b91610904565b565b5b81811061094a575050565b806109575f60019361092a565b0161093f565b9190601f811161096d575b505050565b61097961099e936108a9565b906020610985846108b2565b830193106109a6575b610997906108b2565b019061093e565b5f8080610968565b91506109978192905061098e565b1c90565b906109c8905f19906008026109b4565b191690565b816109d7916109b8565b906002021790565b906109e981610867565b9060018060401b038211610aa757610a0b82610a05855461087f565b8561095d565b602090601f8311600114610a3f57918091610a2e935f92610a33575b50506109cd565b90555b565b90915001515f80610a27565b601f19831691610a4e856108a9565b925f5b818110610a8f57509160029391856001969410610a75575b50505002019055610a31565b610a85910151601f8416906109b8565b90555f8080610a69565b91936020600181928787015181550195019201610a51565b61004c565b90610ab6916109df565b565b90610ac7610ace926003610aac565b6004610aac565b565b5f90565b151590565b610ae2906104e4565b90565b90610aef90610ad9565b5f5260205260405f2090565b90610b05906105c3565b5f5260205260405f2090565b90610b1d60ff916104e7565b9181191691161790565b610b3090610ad4565b90565b90565b90610b4b610b46610b5292610b27565b610b33565b8254610b11565b9055565b5f0190565b610b63610ad0565b50610b78610b7282849061101e565b15610ad4565b5f14610c0157610ba06001610b9b5f610b9360068690610ae5565b018590610afb565b610b36565b90610ba961104c565b90610be6610be0610bda7f2f8788117e7eff1d82e926ec794901d17c78024a50270940304540a733656f0d95610ad9565b926105c3565b926105c3565b92610bef610038565b80610bf981610b56565b0390a4600190565b50505f90565b610c10906100ab565b9052565b9190610c27905f60208501940190610c07565b565b80610c44610c3e610c395f610245565b6100ab565b916100ab565b14610c6057610c5e91610c565f610245565b9190916110db565b565b610c83610c6c5f610245565b5f91829163ec442f0560e01b835260048301610c14565b0390fd5b90565b610c9e610c99610ca392610c87565b610226565b610648565b90565b610cb1610fa0610c8a565b90565b634e487b7160e01b5f52601160045260245ffd5b610cd7610cdd91939293610648565b92610648565b91610ce9838202610648565b928184041490151715610cf857565b610cb4565b90565b610d14610d0f610d1992610cfd565b610226565b610648565b90565b634e487b7160e01b5f52601260045260245ffd5b610d3c610d4291610648565b91610648565b908115610d4d570490565b610d1c565b90565b610d69610d64610d6e92610d52565b610226565b610648565b90565b610d7c6107d0610d55565b90565b90565b610d96610d91610d9b92610d7f565b610226565b610648565b90565b610da96105dc610d82565b90565b610db76105dc610d82565b90565b90565b610dd1610dcc610dd692610dba565b610226565b610648565b90565b610de46103e8610dbd565b90565b5f1c90565b60018060a01b031690565b610e03610e0891610de7565b610dec565b90565b610e159054610df7565b90565b90565b610e2f610e2a610e3492610e18565b610226565b610648565b90565b90565b610e4e610e49610e5392610e37565b610226565b610648565b90565b90565b610e6d610e68610e7292610e56565b610226565b610648565b90565b610ff5610ea5610e94610e86610667565b610e8e610ca6565b90610cc8565b610e9f612710610d00565b90610d30565b610fda610ed5610ec4610eb6610667565b610ebe610d71565b90610cc8565b610ecf612710610d00565b90610d30565b610fbf610f05610ef4610ee6610667565b610eee610d9e565b90610cc8565b610eff612710610d00565b90610d30565b91610f80610f36610f25610f17610667565b610f1f610dac565b90610cc8565b610f30612710610d00565b90610d30565b95610f64610f53610f45610667565b610f4d610dd9565b90610cc8565b610f5e612710610d00565b90610d30565b50610f6e30610639565b90610f79600a610e0b565b909161113e565b610f8a600b610e0b565b429162ed4e00926303c267009062278d0092610fb9610fb3610fad600198610e1b565b94610e3a565b94610e59565b946119c5565b610fc830610639565b90610fd3600c610e0b565b909161113e565b610fe330610639565b90610fee600d610e0b565b909161113e565b565b60ff1690565b61100961100e91610de7565b610ff7565b90565b61101b9054610ffd565b90565b611045915f61103a61104093611032610ad0565b506006610ae5565b01610afb565b611011565b90565b5f90565b611054611048565b503390565b5f7f426c61636b6c6973746564206164647265737300000000000000000000000000910152565b61108d6013602092610251565b61109681611059565b0190565b6110af9060208101905f818303910152611080565b90565b156110b957565b6110c1610038565b62461bcd60e51b8152806110d76004820161109a565b0390fd5b91611114926110fd6110f76110f260088490610afb565b611011565b15610ad4565b80611116575b61110c906110b2565b9190916119fa565b565b5061110c61113761113161112c60088790610afb565b611011565b15610ad4565b9050611103565b918261115a61115461114f5f610245565b6100ab565b916100ab565b146111b4578161117a61117461116f5f610245565b6100ab565b916100ab565b1461118d5761118b929190916110db565b565b6111b06111995f610245565b5f91829163ec442f0560e01b835260048301610c14565b0390fd5b6111d76111c05f610245565b5f918291634b637e8f60e11b835260048301610c14565b0390fd5b906111fa9695949392916111f56111f0610508565b611a07565b611762565b565b5f7f496e76616c69642062656e656669636961727900000000000000000000000000910152565b6112306013602092610251565b611239816111fc565b0190565b6112529060208101905f818303910152611223565b90565b1561125c57565b611264610038565b62461bcd60e51b81528061127a6004820161123d565b0390fd5b61129261128d61129792610223565b610226565b610648565b90565b5f7f416d6f756e74206d75737420626520706f736974697665000000000000000000910152565b6112ce6017602092610251565b6112d78161129a565b0190565b6112f09060208101905f8183039101526112c1565b90565b156112fa57565b611302610038565b62461bcd60e51b815280611318600482016112db565b0390fd5b5f7f4475726174696f6e203c20636c69666600000000000000000000000000000000910152565b6113506010602092610251565b6113598161131c565b0190565b6113729060208101905f818303910152611343565b90565b1561137c57565b611384610038565b62461bcd60e51b81528061139a6004820161135d565b0390fd5b5f7f496e73756666696369656e7420636f6e74726163742062616c616e6365000000910152565b6113d2601d602092610251565b6113db8161139e565b0190565b6113f49060208101905f8183039101526113c5565b90565b156113fe57565b611406610038565b62461bcd60e51b81528061141c600482016113df565b0390fd5b9061142a906105c3565b5f5260205260405f2090565b90565b611444610100610087565b90565b9061145190610648565b9052565b9061145f90610ad4565b9052565b5f5260205f2090565b634e487b7160e01b5f52603260045260245ffd5b5490565b61148d81611480565b8210156114a75761149f600891611463565b910201905f90565b61146c565b6114b69051610648565b90565b906114c55f19916104e7565b9181191691161790565b906114e46114df6114eb926108e5565b610901565b82546114b9565b9055565b6114f99051610ad4565b90565b906115bd60e060076115c39461151f5f82016115195f88016114ac565b906114cf565b61153860018201611532602088016114ac565b906114cf565b6115516002820161154b604088016114ac565b906114cf565b61156a60038201611564606088016114ac565b906114cf565b6115836004820161157d608088016114ac565b906114cf565b61159c6005820161159660a088016114ef565b90610b36565b6115b5600682016115af60c088016114ac565b906114cf565b0192016114ef565b90610b36565b565b91906115d6576115d4916114fc565b565b610854565b908154916801000000000000000083101561160b578261160391600161160995018155611484565b906115c5565b565b61004c565b60018060a01b031690565b61162761162c91610de7565b611610565b90565b611639905461161b565b90565b611645906105b7565b90565b90565b61165761165c91610648565b611648565b9052565b60208161167261167a9383969561164b565b01809261164b565b0190565b60200190565b5190565b5f80fd5b60e01b90565b5f91031261169c57565b61009c565b5f7f56455354494e475f435245415445440000000000000000000000000000000000910152565b6116d5600f602092610251565b6116de816116a1565b0190565b6116eb906104e4565b9052565b91604061172092949361171961170e606083018381035f8501526116c8565b966020830190610c07565b01906116e2565b565b61172a610038565b3d5f823e3d90fd5b61173b90610648565b9052565b91602061176092949361175960408201965f830190611732565b0190611732565b565b939594929094845f61177390610245565b61177c906100ab565b90611786906100ab565b141561179190611255565b855f61179c9061127e565b906117a690610648565b116117b0906112f3565b86826117bb90610648565b906117c590610648565b10156117d090611375565b306117da90610639565b6117e390611a55565b866117ed90610648565b906117f790610648565b1015611802906113f7565b60078561180e91611420565b61181790611436565b9386939291889190915f935f9561182c611439565b975f89019061183a91611447565b602088019061184891611447565b604087019061185691611447565b606086019061186491611447565b608085019061187291611447565b60a084019061188091611455565b6118899061127e565b60c083019061189791611447565b60e08201906118a591611455565b6118ae916115db565b6118b8600961162f565b6118c19061163c565b635260590a8284866118d1610038565b91829160208301916118e292611660565b6020820181038252036118f59082610060565b6118fe81611684565b906119089061167e565b2092803b156119c05761192e5f8094611939611922610038565b9788968795869461168c565b8452600484016116ef565b03925af180156119bb5761198f575b5090916119757f9ade76f4385de306666dfb21a52b27d52db0fde8ad0f515fa261f532cac60d21926105c3565b9261198a611981610038565b9283928361173f565b0390a2565b6119ae905f3d81116119b4575b6119a68183610060565b810190611692565b5f611948565b503d61199c565b611722565b611688565b906119d49695949392916111db565b565b906119e992916119e4611a73565b6119eb565b565b916119f892919091611b25565b565b90611a0592916119d6565b565b611a1990611a1361104c565b90611cb7565b565b90611a25906105c3565b5f5260205260405f2090565b90565b611a40611a4591610de7565b611a31565b90565b611a529054611a34565b90565b611a6b611a7091611a64610926565b505f611a1b565b611a48565b90565b611a7b611cf2565b611a8157565b5f63d93c066560e01b815280611a9960048201610b56565b0390fd5b604090611ac6611acd9496959396611abc60608401985f850190610c07565b6020830190611732565b0190611732565b565b90611ada9103610648565b90565b611aec611af291939293610648565b92610648565b8201809211611afd57565b610cb4565b90611b0d9101610648565b90565b9190611b23905f60208501940190611732565b565b91909180611b43611b3d611b385f610245565b6100ab565b916100ab565b145f14611c2457611b67611b6083611b5b6002611a48565b611add565b60026114cf565b5b82611b83611b7d611b785f610245565b6100ab565b916100ab565b145f14611bf857611ba7611ba083611b9b6002611a48565b611acf565b60026114cf565b5b919091611bf3611be1611bdb7fddf252ad1be2c89b69c2b068fc378daa952ba7f163c4a11628f55a4df523b3ef936105c3565b936105c3565b93611bea610038565b91829182611b10565b0390a3565b611c1f82611c19611c0a5f8790611a1b565b91611c1483611a48565b611b02565b906114cf565b611ba8565b611c37611c325f8390611a1b565b611a48565b80611c4a611c4485610648565b91610648565b10611c7257611c5d611c6d918490611acf565b611c685f8490611a1b565b6114cf565b611b68565b90611c909091925f93849363391434e360e21b855260048501611a9d565b0390fd5b916020611cb5929493611cae60408201965f830190610c07565b01906116e2565b565b90611ccc611cc683839061101e565b15610ad4565b611cd4575050565b611cee5f92839263e2517d3f60e01b845260048401611c94565b0390fd5b611cfa610ad0565b50611d056005611011565b9056fe60806040526004361015610013575b611469565b61001d5f356102fc565b806301ffc9a7146102f757806306fdde03146102f257806307d0d916146102ed578063095ea7b3146102e857806318160ddd146102e357806323b872dd146102de578063248a9ca3146102d9578063282c51f3146102d45780632e1a7d4d146102cf5780632f2ff15d146102ca5780632ff2e9dc146102c5578063313ce567146102c057806332cb6b0c146102bb57806336568abe146102b65780633dc762f0146102b15780633f4ba83a146102ac57806340c10f19146102a757806342966c68146102a2578063435263ef1461029d5780634495e827146102985780634626402b14610293578063599270441461028e5780635c975abb1461028957806370a082311461028457806375e3661e1461027f57806379cc67901461027a5780638456cb591461027557806390534f241461027057806391d148541461026b57806395d89b4114610266578063993eb1c514610261578063a217fddf1461025c578063a9059cbb14610257578063bed9757e14610252578063bf1ad7e01461024d578063c757483914610248578063d3715c7614610243578063d53913931461023e578063d547741f14610239578063dbac26e914610234578063dd62ed3e1461022f578063e1300c881461022a578063e63ab1e914610225578063f9f92be414610220578063fa6799f21461021b5763fd99cbed0361000e57611434565b6113c8565b611395565b611360565b6112fc565b611258565b6111f6565b611133565b6110fe565b61109a565b611065565b611021565b610fcb565b610f2d565b610ef8565b610e88565b610e1b565b610de5565b610db0565b610d45565b610d11565b610cde565b610ca9565b610c74565b610c3f565b610bfb565b610bb2565b610aea565b610a51565b610a1d565b6109ea565b6109b5565b610949565b610914565b61089d565b610840565b6107c7565b610767565b61070f565b6106ab565b61060f565b6105a0565b61056a565b6104e5565b610433565b610384565b60e01c90565b60405190565b5f80fd5b5f80fd5b63ffffffff60e01b1690565b61032581610310565b0361032c57565b5f80fd5b9050359061033d8261031c565b565b9060208282031261035857610355915f01610330565b90565b61030c565b151590565b61036b9061035d565b9052565b9190610382905f60208501940190610362565b565b346103b4576103b061039f61039a36600461033f565b611471565b6103a7610302565b9182918261036f565b0390f35b610308565b5f9103126103c357565b61030c565b5190565b60209181520190565b90825f9392825e0152565b601f801991011690565b61040961041260209361041793610400816103c8565b938480936103cc565b958691016103d5565b6103e0565b0190565b6104309160208201915f8184039101526103ea565b90565b34610463576104433660046103b9565b61045f61044e6115df565b610456610302565b9182918261041b565b0390f35b610308565b60018060a01b031690565b61047c90610468565b90565b61048881610473565b0361048f57565b5f80fd5b905035906104a08261047f565b565b906020828203126104bb576104b8915f01610493565b90565b61030c565b90565b6104cc906104c0565b9052565b91906104e3905f602085019401906104c3565b565b34610515576105116105006104fb3660046104a2565b611613565b610508610302565b918291826104d0565b0390f35b610308565b610523816104c0565b0361052a57565b5f80fd5b9050359061053b8261051a565b565b91906040838203126105655780610559610562925f8601610493565b9360200161052e565b90565b61030c565b3461059b5761059761058661058036600461053d565b90611632565b61058e610302565b9182918261036f565b0390f35b610308565b346105d0576105b03660046103b9565b6105cc6105bb61167d565b6105c3610302565b918291826104d0565b0390f35b610308565b909160608284031261060a576106076105f0845f8501610493565b936105fe8160208601610493565b9360400161052e565b90565b61030c565b346106405761063c61062b6106253660046105d5565b91611693565b610633610302565b9182918261036f565b0390f35b610308565b90565b61065181610645565b0361065857565b5f80fd5b9050359061066982610648565b565b9060208282031261068457610681915f0161065c565b90565b61030c565b61069290610645565b9052565b91906106a9905f60208501940190610689565b565b346106db576106d76106c66106c136600461066b565b61170c565b6106ce610302565b91829182610696565b0390f35b610308565b7f3c11d16cbaffd01df69ce1c404f6340ee057498f5f00246190ea54220576a84890565b61070c6106e0565b90565b3461073f5761071f3660046103b9565b61073b61072a610704565b610732610302565b91829182610696565b0390f35b610308565b9060208282031261075d5761075a915f0161052e565b90565b61030c565b5f0190565b346107955761077f61077a366004610744565b611be5565b610787610302565b8061079181610762565b0390f35b610308565b91906040838203126107c257806107b66107bf925f860161065c565b93602001610493565b90565b61030c565b346107f6576107e06107da36600461079a565b90611df0565b6107e8610302565b806107f281610762565b0390f35b610308565b90565b90565b61081561081061081a926107fb565b6107fe565b6104c0565b90565b6108326b033b2e3c9fd0803ce8000000610801565b90565b61083d61081d565b90565b34610870576108503660046103b9565b61086c61085b610835565b610863610302565b918291826104d0565b0390f35b610308565b60ff1690565b61088490610875565b9052565b919061089b905f6020850194019061087b565b565b346108cd576108ad3660046103b9565b6108c96108b8611e1f565b6108c0610302565b91829182610888565b0390f35b610308565b90565b6108e96108e46108ee926108d2565b6107fe565b6104c0565b90565b6109066b204fce5e3e250261100000006108d5565b90565b6109116108f1565b90565b34610944576109243660046103b9565b61094061092f610909565b610937610302565b918291826104d0565b0390f35b610308565b346109785761096261095c36600461079a565b90611e35565b61096a610302565b8061097481610762565b0390f35b610308565b90565b61099461098f6109999261097d565b6107fe565b6104c0565b90565b6109a76103e8610980565b90565b6109b261099c565b90565b346109e5576109c53660046103b9565b6109e16109d06109aa565b6109d8610302565b918291826104d0565b0390f35b610308565b34610a18576109fa3660046103b9565b610a02611ea1565b610a0a610302565b80610a1481610762565b0390f35b610308565b34610a4c57610a36610a3036600461053d565b90612182565b610a3e610302565b80610a4881610762565b0390f35b610308565b34610a7f57610a69610a64366004610744565b612202565b610a71610302565b80610a7b81610762565b0390f35b610308565b1c90565b60018060a01b031690565b610aa3906008610aa89302610a84565b610a88565b90565b90610ab69154610a93565b90565b610ac5600d5f90610aab565b90565b610ad190610473565b9052565b9190610ae8905f60208501940190610ac8565b565b34610b1a57610afa3660046103b9565b610b16610b05610ab9565b610b0d610302565b91829182610ad5565b0390f35b610308565b610b288161035d565b03610b2f57565b5f80fd5b90503590610b4082610b1f565b565b60e081830312610bad57610b58825f8301610493565b92610b66836020840161052e565b92610b74816040850161052e565b92610b82826060830161052e565b92610baa610b93846080850161052e565b93610ba18160a0860161052e565b9360c001610b33565b90565b61030c565b34610be757610bd1610bc5366004610b42565b959490949391936129f1565b610bd9610302565b80610be381610762565b0390f35b610308565b610bf8600c5f90610aab565b90565b34610c2b57610c0b3660046103b9565b610c27610c16610bec565b610c1e610302565b91829182610ad5565b0390f35b610308565b610c3c600b5f90610aab565b90565b34610c6f57610c4f3660046103b9565b610c6b610c5a610c30565b610c62610302565b91829182610ad5565b0390f35b610308565b34610ca457610c843660046103b9565b610ca0610c8f612a02565b610c97610302565b9182918261036f565b0390f35b610308565b34610cd957610cd5610cc4610cbf3660046104a2565b612a2e565b610ccc610302565b918291826104d0565b0390f35b610308565b34610d0c57610cf6610cf13660046104a2565b612bc9565b610cfe610302565b80610d0881610762565b0390f35b610308565b34610d4057610d2a610d2436600461053d565b90612d91565b610d32610302565b80610d3c81610762565b0390f35b610308565b34610d7357610d553660046103b9565b610d5d612dc1565b610d65610302565b80610d6f81610762565b0390f35b610308565b90565b610d8f610d8a610d9492610d78565b6107fe565b6104c0565b90565b610da26105dc610d7b565b90565b610dad610d97565b90565b34610de057610dc03660046103b9565b610ddc610dcb610da5565b610dd3610302565b918291826104d0565b0390f35b610308565b34610e1657610e12610e01610dfb36600461079a565b90612dcb565b610e09610302565b9182918261036f565b0390f35b610308565b34610e4b57610e2b3660046103b9565b610e47610e36612df5565b610e3e610302565b9182918261041b565b0390f35b610308565b90565b610e67610e62610e6c92610e50565b6107fe565b6104c0565b90565b610e7a610fa0610e53565b90565b610e85610e6f565b90565b34610eb857610e983660046103b9565b610eb4610ea3610e7d565b610eab610302565b918291826104d0565b0390f35b610308565b90565b5f1b90565b610ed9610ed4610ede92610ebd565b610ec0565b610645565b90565b610eea5f610ec5565b90565b610ef5610ee1565b90565b34610f2857610f083660046103b9565b610f24610f13610eed565b610f1b610302565b91829182610696565b0390f35b610308565b34610f5e57610f5a610f49610f4336600461053d565b90612e0b565b610f51610302565b9182918261036f565b0390f35b610308565b949290979695939160e08601985f8701610f7c916104c3565b60208601610f89916104c3565b60408501610f96916104c3565b60608401610fa3916104c3565b60808301610fb0916104c3565b60a08201610fbd91610362565b60c001610fc9916104c3565b565b3461100357610fff610fe7610fe136600461053d565b90612ebb565b93610ff6979597939193610302565b97889788610f63565b0390f35b610308565b6110136105dc610d7b565b90565b61101e611008565b90565b34611051576110313660046103b9565b61104d61103c611016565b611044610302565b918291826104d0565b0390f35b610308565b611062600a5f90610aab565b90565b34611095576110753660046103b9565b611091611080611056565b611088610302565b91829182610ad5565b0390f35b610308565b346110ca576110c66110b56110b03660046104a2565b612fb5565b6110bd610302565b918291826104d0565b0390f35b610308565b7f9f2df0fed2c77648de5860a4cc508cd0818c85b8b8a1ab4ceeef8d981c8956a690565b6110fb6110cf565b90565b3461112e5761110e3660046103b9565b61112a6111196110f3565b611121610302565b91829182610696565b0390f35b610308565b346111625761114c61114636600461079a565b906130a1565b611154610302565b8061115e81610762565b0390f35b610308565b61117b61117661118092610468565b6107fe565b610468565b90565b61118c90611167565b90565b61119890611183565b90565b906111a59061118f565b5f5260205260405f2090565b60ff1690565b6111c79060086111cc9302610a84565b6111b1565b90565b906111da91546111b7565b90565b6111f3906111ee6008915f9261119b565b6111cf565b90565b346112265761122261121161120c3660046104a2565b6111dd565b611219610302565b9182918261036f565b0390f35b610308565b91906040838203126112535780611247611250925f8601610493565b93602001610493565b90565b61030c565b346112895761128561127461126e36600461122b565b906130c3565b61127c610302565b918291826104d0565b0390f35b610308565b60018060a01b031690565b6112a99060086112ae9302610a84565b61128e565b90565b906112bc9154611299565b90565b6112cb60095f906112b1565b90565b6112d790611183565b90565b6112e3906112ce565b9052565b91906112fa905f602085019401906112da565b565b3461132c5761130c3660046103b9565b6113286113176112bf565b61131f610302565b918291826112e7565b0390f35b610308565b7f65d7a28e3265b37a6474929f336521b332c1681b933f6cb9f3376673440d862a90565b61135d611331565b90565b34611390576113703660046103b9565b61138c61137b611355565b611383610302565b91829182610696565b0390f35b610308565b346113c3576113ad6113a83660046104a2565b613310565b6113b5610302565b806113bf81610762565b0390f35b610308565b346113f7576113e16113db36600461053d565b906136b2565b6113e9610302565b806113f381610762565b0390f35b610308565b90565b61141361140e611418926113fc565b6107fe565b6104c0565b90565b6114266107d06113ff565b90565b61143161141b565b90565b34611464576114443660046103b9565b61146061144f611429565b611457610302565b918291826104d0565b0390f35b610308565b5f80fd5b5f90565b6114839061147d61146d565b506136be565b90565b606090565b634e487b7160e01b5f52602260045260245ffd5b90600160028304921680156114bf575b60208310146114ba57565b61148b565b91607f16916114af565b60209181520190565b5f5260205f2090565b905f92918054906114f56114ee8361149f565b80946114c9565b916001811690815f1461154c5750600114611510575b505050565b61151d91929394506114d2565b915f925b81841061153457505001905f808061150b565b60018160209295939554848601520191019290611521565b92949550505060ff19168252151560200201905f808061150b565b90611571916114db565b90565b634e487b7160e01b5f52604160045260245ffd5b90611592906103e0565b810190811067ffffffffffffffff8211176115ac57604052565b611574565b906115d16115ca926115c1610302565b93848092611567565b0383611588565b565b6115dc906115b1565b90565b6115e7611486565b506115f260036115d3565b90565b5f90565b906116039061118f565b5f5260205260405f2090565b5490565b61162a61162f916116226115f5565b5060076115f9565b61160f565b90565b61164f9161163e61146d565b50611647613702565b91909161370f565b600190565b5f1c90565b90565b61166861166d91611654565b611659565b90565b61167a905461165c565b90565b6116856115f5565b506116906002611670565b90565b916116bd926116a061146d565b506116b56116ac613702565b8290849161375f565b9190916137eb565b600190565b5f90565b6116cf90610645565b90565b906116dc906116c6565b5f5260205260405f2090565b90565b6116f76116fc91611654565b6116e8565b90565b61170990546116eb565b90565b600161172561172b9261171d6116c2565b5060066116d2565b016116ff565b90565b5f7f496e76616c6964207363686564756c6520696e64657800000000000000000000910152565b61176260166020926103cc565b61176b8161172e565b0190565b6117849060208101905f818303910152611755565b90565b1561178e57565b611796610302565b62461bcd60e51b8152806117ac6004820161176f565b0390fd5b634e487b7160e01b5f52603260045260245ffd5b5f5260205f2090565b6117d68161160f565b8210156117f0576117e86008916117c4565b910201905f90565b6117b0565b90565b61180461180991611654565b6111b1565b90565b61181690546117f8565b90565b5f7f5363686564756c65207265766f6b656400000000000000000000000000000000910152565b61184d60106020926103cc565b61185681611819565b0190565b61186f9060208101905f818303910152611840565b90565b1561187957565b611881610302565b62461bcd60e51b8152806118976004820161185a565b0390fd5b906118a5906104c0565b9052565b906118b39061035d565b9052565b906118ca6118c3610302565b9283611588565b565b6118d76101006118b7565b90565b906119a161199860076118eb6118cc565b946119026118fa5f8301611670565b5f880161189b565b61191a61191160018301611670565b6020880161189b565b61193261192960028301611670565b6040880161189b565b61194a61194160038301611670565b6060880161189b565b61196261195960048301611670565b6080880161189b565b61197a6119716005830161180c565b60a088016118a9565b61199261198960068301611670565b60c0880161189b565b0161180c565b60e084016118a9565b565b6119ac906118da565b90565b6119c36119be6119c892610ebd565b6107fe565b6104c0565b90565b5f7f4e6f20746f6b656e7320746f2077697468647261770000000000000000000000910152565b6119ff60156020926103cc565b611a08816119cb565b0190565b611a219060208101905f8183039101526119f2565b90565b15611a2b57565b611a33610302565b62461bcd60e51b815280611a4960048201611a0c565b0390fd5b634e487b7160e01b5f52601160045260245ffd5b611a70611a76919392936104c0565b926104c0565b8201809211611a8157565b611a4d565b90611a925f1991610ec0565b9181191691161790565b611ab0611aab611ab5926104c0565b6107fe565b6104c0565b90565b90565b90611ad0611acb611ad792611a9c565b611ab8565b8254611a86565b9055565b611ae490611183565b90565b611af3611af891611654565b61128e565b90565b611b059054611ae7565b90565b90565b611b17611b1c916104c0565b611b08565b9052565b602081611b32611b3a93839695611b0b565b018092611b0b565b0190565b60200190565b5190565b5f80fd5b60e01b90565b5f910312611b5c57565b61030c565b5f7f5645535445445f544f4b454e535f57495448445241574e000000000000000000910152565b611b9560176020926103cc565b611b9e81611b61565b0190565b916040611bd3929493611bcc611bc1606083018381035f850152611b88565b966020830190610ac8565b0190610689565b565b611bdd610302565b3d5f823e3d90fd5b611c1481611c0e611c08611c03611bfe600733906115f9565b61160f565b6104c0565b916104c0565b10611787565b611c33611c2d611c26600733906115f9565b83906117cd565b506117f5565b90611c51611c4c611c466007850161180c565b1561035d565b611872565b611c9f611c65611c60846119a3565b613a1c565b92611c8284611c7c611c765f6119af565b916104c0565b11611a24565b611c99600685920191611c9483611670565b611a61565b90611abb565b611cb3611cab30611adb565b3384916137eb565b611cc5611cc06009611afb565b6112ce565b90635260590a903390611cf885611ce9611cdd610302565b93849260208401611b20565b60208201810382520382611588565b611d0a611d0482611b44565b91611b3e565b2092803b15611dc157611d305f8094611d3b611d24610302565b97889687958694611b4c565b845260048401611ba2565b03925af18015611dbc57611d90575b5033611d8b611d797f6352c5382c4a4578e712449ca65e83cdb392d045dfcf1cad9615189db2da244b9261118f565b92611d82610302565b918291826104d0565b0390a2565b611daf905f3d8111611db5575b611da78183611588565b810190611b52565b5f611d4a565b503d611d9d565b611bd5565b611b48565b90611de191611ddc611dd78261170c565b613c02565b611de3565b565b90611ded91613c16565b50565b90611dfa91611dc6565b565b5f90565b90565b611e17611e12611e1c92611e00565b6107fe565b610875565b90565b611e27611dfc565b50611e326012611e03565b90565b9080611e50611e4a611e45613702565b610473565b91610473565b03611e6157611e5e91613cc2565b50565b5f63334bd91960e11b815280611e7960048201610762565b0390fd5b611e8d611e88611331565b613c02565b611e95611e97565b565b611e9f613dc4565b565b611ea9611e7d565b565b90611ec591611ec0611ebb6110cf565b613c02565b61204f565b565b5f7f45786365656473206d617820737570706c790000000000000000000000000000910152565b611efb60126020926103cc565b611f0481611ec7565b0190565b611f1d9060208101905f818303910152611eee565b90565b15611f2757565b611f2f610302565b62461bcd60e51b815280611f4560048201611f08565b0390fd5b5f7f4164647265737320626c61636b6c697374656400000000000000000000000000910152565b611f7d60136020926103cc565b611f8681611f49565b0190565b611f9f9060208101905f818303910152611f70565b90565b15611fa957565b611fb1610302565b62461bcd60e51b815280611fc760048201611f8a565b0390fd5b611fd781602093611b0b565b0190565b5f7f544f4b454e535f4d494e54454400000000000000000000000000000000000000910152565b61200f600d6020926103cc565b61201881611fdb565b0190565b91604061204d92949361204661203b606083018381035f850152612002565b966020830190610ac8565b0190610689565b565b61208461206461205d61167d565b8490611a61565b61207d6120776120726108f1565b6104c0565b916104c0565b1115611f20565b6120a96120a461209e6120996008859061119b565b61180c565b1561035d565b611fa2565b6120b4818390613dce565b6120c66120c16009611afb565b6112ce565b916120e86120f7635260590a93926120dc610302565b92839160208301611fcb565b60208201810382520382611588565b61210961210382611b44565b91611b3e565b2092803b1561217d5761212f5f809461213a612123610302565b97889687958694611b4c565b84526004840161201c565b03925af180156121785761214c575b50565b61216b905f3d8111612171575b6121638183611588565b810190611b52565b5f612149565b503d612159565b611bd5565b611b48565b9061218c91611eab565b565b5f7f544f4b454e535f4255524e454400000000000000000000000000000000000000910152565b6121c2600d6020926103cc565b6121cb8161218e565b0190565b9160406122009294936121f96121ee606083018381035f8501526121b5565b966020830190610ac8565b0190610689565b565b61220b81613e2c565b61221d6122186009611afb565b6112ce565b90635260590a9061224061224f3392612234610302565b92839160208301611fcb565b60208201810382520382611588565b61226161225b82611b44565b91611b3e565b2092803b156122d5576122875f809461229261227b610302565b97889687958694611b4c565b8452600484016121cf565b03925af180156122d0576122a4575b50565b6122c3905f3d81116122c9575b6122bb8183611588565b810190611b52565b5f6122a1565b503d6122b1565b611bd5565b611b48565b906122f99695949392916122f46122ef610ee1565b613c02565b61278e565b565b61230f61230a61231492610ebd565b6107fe565b610468565b90565b612320906122fb565b90565b5f7f496e76616c69642062656e656669636961727900000000000000000000000000910152565b61235760136020926103cc565b61236081612323565b0190565b6123799060208101905f81830391015261234a565b90565b1561238357565b61238b610302565b62461bcd60e51b8152806123a160048201612364565b0390fd5b5f7f416d6f756e74206d75737420626520706f736974697665000000000000000000910152565b6123d960176020926103cc565b6123e2816123a5565b0190565b6123fb9060208101905f8183039101526123cc565b90565b1561240557565b61240d610302565b62461bcd60e51b815280612423600482016123e6565b0390fd5b5f7f4475726174696f6e203c20636c69666600000000000000000000000000000000910152565b61245b60106020926103cc565b61246481612427565b0190565b61247d9060208101905f81830391015261244e565b90565b1561248757565b61248f610302565b62461bcd60e51b8152806124a560048201612468565b0390fd5b5f7f496e73756666696369656e7420636f6e74726163742062616c616e6365000000910152565b6124dd601d6020926103cc565b6124e6816124a9565b0190565b6124ff9060208101905f8183039101526124d0565b90565b1561250957565b612511610302565b62461bcd60e51b815280612527600482016124ea565b0390fd5b90565b6125396101006118b7565b90565b5f5260205f2090565b5490565b61255281612545565b82101561256c5761256460089161253c565b910201905f90565b6117b0565b634e487b7160e01b5f525f60045260245ffd5b61258e90516104c0565b90565b61259b905161035d565b90565b906125aa60ff91610ec0565b9181191691161790565b6125bd9061035d565b90565b90565b906125d86125d36125df926125b4565b6125c0565b825461259e565b9055565b906126a460e060076126aa946126065f82016126005f8801612584565b90611abb565b61261f6001820161261960208801612584565b90611abb565b6126386002820161263260408801612584565b90611abb565b6126516003820161264b60608801612584565b90611abb565b61266a6004820161266460808801612584565b90611abb565b6126836005820161267d60a08801612591565b906125c3565b61269c6006820161269660c08801612584565b90611abb565b019201612591565b906125c3565b565b91906126bd576126bb916125e3565b565b612571565b90815491680100000000000000008310156126f257826126ea9160016126f095018155612549565b906126ac565b565b611574565b5f7f56455354494e475f435245415445440000000000000000000000000000000000910152565b61272b600f6020926103cc565b612734816126f7565b0190565b916040612769929493612762612757606083018381035f85015261271e565b966020830190610ac8565b0190610689565b565b91602061278c92949361278560408201965f8301906104c3565b01906104c3565b565b939594929094845f61279f90612317565b6127a890610473565b906127b290610473565b14156127bd9061237c565b855f6127c8906119af565b906127d2906104c0565b116127dc906123fe565b86826127e7906104c0565b906127f1906104c0565b10156127fc90612480565b3061280690611adb565b61280f90612a2e565b86612819906104c0565b90612823906104c0565b101561282e90612502565b60078561283a916115f9565b6128439061252b565b9386939291889190915f935f9561285861252e565b975f8901906128669161189b565b60208801906128749161189b565b60408701906128829161189b565b60608601906128909161189b565b608085019061289e9161189b565b60a08401906128ac916118a9565b6128b5906119af565b60c08301906128c39161189b565b60e08201906128d1916118a9565b6128da916126c2565b6128e46009611afb565b6128ed906112ce565b635260590a8284866128fd610302565b918291602083019161290e92611b20565b6020820181038252036129219082611588565b61292a81611b44565b9061293490611b3e565b2092803b156129ec5761295a5f809461296561294e610302565b97889687958694611b4c565b845260048401612738565b03925af180156129e7576129bb575b5090916129a17f9ade76f4385de306666dfb21a52b27d52db0fde8ad0f515fa261f532cac60d219261118f565b926129b66129ad610302565b9283928361276b565b0390a2565b6129da905f3d81116129e0575b6129d28183611588565b810190611b52565b5f612974565b503d6129c8565b611bd5565b611b48565b90612a009695949392916122da565b565b612a0a61146d565b50612a15600561180c565b90565b90612a229061118f565b5f5260205260405f2090565b612a44612a4991612a3d6115f5565b505f612a18565b611670565b90565b612a6590612a60612a5b610ee1565b613c02565b612adb565b565b5f7f414444524553535f554e424c41434b4c49535445440000000000000000000000910152565b612a9b60156020926103cc565b612aa481612a67565b0190565b916040612ad9929493612ad2612ac7606083018381035f850152612a8e565b966020830190610ac8565b0190610689565b565b612af05f612aeb6008849061119b565b6125c3565b612b02612afd6009611afb565b6112ce565b635260590a82612b115f610ec5565b92803b15612bc457612b365f8094612b41612b2a610302565b97889687958694611b4c565b845260048401612aa8565b03925af18015612bbf57612b93575b50612b7b7f7534c63860313c46c473e4e98328f37017e9674e2162faf1a3ad7a96236c3b7b9161118f565b90612b84610302565b80612b8e81610762565b0390a2565b612bb2905f3d8111612bb8575b612baa8183611588565b810190611b52565b5f612b50565b503d612ba0565b611bd5565b611b48565b612bd290612a4c565b565b90612bee91612be9612be46106e0565b613c02565b612cb6565b565b60601b90565b612bff90612bf0565b90565b612c0b90612bf6565b90565b612c1a612c1f91610473565b612c02565b9052565b602081612c36612c3e9360149695611b0b565b018092612c0e565b0190565b5f7f544f4b454e535f4255524e45445f46524f4d0000000000000000000000000000910152565b612c7660126020926103cc565b612c7f81612c42565b0190565b916040612cb4929493612cad612ca2606083018381035f850152612c69565b966020830190610ac8565b0190610689565b565b612cc1818390613e3f565b612cd3612cce6009611afb565b6112ce565b91635260590a9190612d063391612cf7612ceb610302565b93849260208401612c23565b60208201810382520382611588565b612d18612d1282611b44565b91611b3e565b2092803b15612d8c57612d3e5f8094612d49612d32610302565b97889687958694611b4c565b845260048401612c83565b03925af18015612d8757612d5b575b50565b612d7a905f3d8111612d80575b612d728183611588565b810190611b52565b5f612d58565b503d612d68565b611bd5565b611b48565b90612d9b91612bd4565b565b612dad612da8611331565b613c02565b612db5612db7565b565b612dbf613ebf565b565b612dc9612d9d565b565b612df2915f612de7612ded93612ddf61146d565b5060066116d2565b0161119b565b61180c565b90565b612dfd611486565b50612e0860046115d3565b90565b612e2891612e1761146d565b50612e20613702565b9190916137eb565b600190565b5f7f496e76616c696420696e64657800000000000000000000000000000000000000910152565b612e61600d6020926103cc565b612e6a81612e2d565b0190565b612e839060208101905f818303910152612e54565b90565b15612e8d57565b612e95610302565b62461bcd60e51b815280612eab60048201612e6e565b0390fd5b612eb8906118da565b90565b612f4691612f3b612f4092612ece6115f5565b50612ed76115f5565b50612ee06115f5565b50612ee96115f5565b50612ef26115f5565b50612efb61146d565b50612f046115f5565b50612f3483612f2e612f28612f23612f1e600787906115f9565b61160f565b6104c0565b916104c0565b10612e86565b60076115f9565b6117cd565b50612eaf565b612f4f81613a1c565b91612f5b5f8301612584565b91612f6860208201612584565b93612f7560408301612584565b93612f8260608401612584565b93612f9b60e0612f9460c08701612584565b9501612591565b929196959493929190565b6001612fb291016104c0565b90565b612fbd6115f5565b50612fc75f6119af565b90612fd15f6119af565b5b80612ff8612ff2612fed612fe8600787906115f9565b61160f565b6104c0565b916104c0565b101561307257613028613022600761301b6130148287906115f9565b85906117cd565b500161180c565b1561035d565b61303b575b61303690612fa6565b612fd2565b9161306a613036916130645f61305d613056600788906115f9565b88906117cd565b5001611670565b90611a61565b92905061302d565b505090565b906130929161308d6130888261170c565b613c02565b613094565b565b9061309e91613cc2565b50565b906130ab91613077565b565b906130b79061118f565b5f5260205260405f2090565b6130e8916130de6130e3926130d66115f5565b5060016130ad565b612a18565b611670565b90565b613104906130ff6130fa610ee1565b613c02565b6131fc565b565b5f7f43616e6e6f7420626c61636b6c697374207a65726f2061646472657373000000910152565b61313a601d6020926103cc565b61314381613106565b0190565b61315c9060208101905f81830391015261312d565b90565b1561316657565b61316e610302565b62461bcd60e51b81528061318460048201613147565b0390fd5b5f7f414444524553535f424c41434b4c495354454400000000000000000000000000910152565b6131bc60136020926103cc565b6131c581613188565b0190565b9160406131fa9294936131f36131e8606083018381035f8501526131af565b966020830190610ac8565b0190610689565b565b6132218161321a61321461320f5f612317565b610473565b91610473565b141561315f565b61323760016132326008849061119b565b6125c3565b6132496132446009611afb565b6112ce565b635260590a826132585f610ec5565b92803b1561330b5761327d5f8094613288613271610302565b97889687958694611b4c565b8452600484016131c9565b03925af18015613306576132da575b506132c27fffa4e6181777692565cf28528fc88fd1516ea86b56da075235fa575af6a4b8559161118f565b906132cb610302565b806132d581610762565b0390a2565b6132f9905f3d81116132ff575b6132f18183611588565b810190611b52565b5f613297565b503d6132e7565b611bd5565b611b48565b613319906130eb565b565b906133359161333061332b610ee1565b613c02565b6134af565b565b5f7f5363686564756c65206e6f74207265766f6361626c6500000000000000000000910152565b61336b60166020926103cc565b61337481613337565b0190565b61338d9060208101905f81830391015261335e565b90565b1561339757565b61339f610302565b62461bcd60e51b8152806133b560048201613378565b0390fd5b5f7f416c7265616479207265766f6b65640000000000000000000000000000000000910152565b6133ed600f6020926103cc565b6133f6816133b9565b0190565b61340f9060208101905f8183039101526133e0565b90565b1561341957565b613421610302565b62461bcd60e51b815280613437600482016133fa565b0390fd5b5f7f56455354494e475f5245564f4b45440000000000000000000000000000000000910152565b61346f600f6020926103cc565b6134788161343b565b0190565b9160406134ad9294936134a661349b606083018381035f850152613462565b966020830190610ac8565b0190610689565b565b6134de826134d86134d26134cd6134c8600787906115f9565b61160f565b6104c0565b916104c0565b10611787565b6135676135006134fa6134f3600785906115f9565b85906117cd565b506117f5565b61351461350f6005830161180c565b613390565b61353161352c6135266007840161180c565b1561035d565b613412565b61354261353d826119a3565b613a1c565b8061355561354f5f6119af565b916104c0565b11613676575b506007600191016125c3565b6135796135746009611afb565b6112ce565b635260590a8261359a6135a98661358e610302565b92839160208301611fcb565b60208201810382520382611588565b6135bb6135b582611b44565b91611b3e565b2092803b15613671576135e15f80946135ec6135d5610302565b97889687958694611b4c565b84526004840161347c565b03925af1801561366c57613640575b5061363b6136297f57c76f5e278bfbd4eeb5207d287aa5a1a9e1113c65f7eefa540e379a2774d13b9261118f565b92613632610302565b918291826104d0565b0390a2565b61365f905f3d8111613665575b6136578183611588565b810190611b52565b5f6135fb565b503d61364d565b611bd5565b611b48565b8061369a6136ac92613694600686019161368f83611670565b611a61565b90611abb565b6136a330611adb565b908590916137eb565b5f61355b565b906136bc9161331b565b565b6136c661146d565b50806136e16136db637965db0b60e01b610310565b91610310565b149081156136ee575b5090565b6136f89150613ec9565b5f6136ea565b5f90565b61370a6136fe565b503390565b9161371d9291600192613eef565b565b60409061374861374f949695939661373e60608401985f850190610ac8565b60208301906104c3565b01906104c3565b565b9061375c91036104c0565b90565b92919261376d8183906130c3565b908161378261377c5f196104c0565b916104c0565b1061378f575b5050509050565b816137a261379c876104c0565b916104c0565b106137c8576137bf93946137b7919392613751565b905f92613eef565b805f8080613788565b506137e7849291925f938493637dc7a0d960e11b85526004850161371f565b0390fd5b91826138076138016137fc5f612317565b610473565b91610473565b14613861578161382761382161381c5f612317565b610473565b91610473565b1461383a5761383892919091614080565b565b61385d6138465f612317565b5f91829163ec442f0560e01b835260048301610ad5565b0390fd5b61388461386d5f612317565b5f918291634b637e8f60e11b835260048301610ad5565b0390fd5b61389761389d919392936104c0565b926104c0565b82039182116138a857565b611a4d565b5f7f496e76616c696420736c69636520706572696f64000000000000000000000000910152565b6138e160146020926103cc565b6138ea816138ad565b0190565b6139039060208101905f8183039101526138d4565b90565b1561390d57565b613915610302565b62461bcd60e51b81528061392b600482016138ee565b0390fd5b5f7f496e76616c6964206475726174696f6e00000000000000000000000000000000910152565b61396360106020926103cc565b61396c8161392f565b0190565b6139859060208101905f818303910152613956565b90565b1561398f57565b613997610302565b62461bcd60e51b8152806139ad60048201613970565b0390fd5b634e487b7160e01b5f52601260045260245ffd5b6139d16139d7916104c0565b916104c0565b9081156139e2570490565b6139b1565b6139f66139fc919392936104c0565b926104c0565b91613a088382026104c0565b928184041490151715613a1757565b611a4d565b613a246115f5565b50613a3160e08201612591565b613bf55742613a68613a62613a5d613a4b60208601612584565b613a5760408701612584565b90611a61565b6104c0565b916104c0565b10613be857613a8342613a7d60208401612584565b90613888565b613a8b6115f5565b5080613aaa613aa4613a9f60608601612584565b6104c0565b916104c0565b10155f14613b415750613abe5f8201612584565b905b81613add613ad7613ad25f8501612584565b6104c0565b916104c0565b11613b2e575b81613b01613afb613af660c08501612584565b6104c0565b916104c0565b1115613b2057613b1760c0613b1d939201612584565b90613888565b90565b5050613b2b5f6119af565b90565b9050613b3b5f8201612584565b90613ae3565b613bd0613bbe613bae613be293613b75613b5d60808801612584565b613b6f613b695f6119af565b916104c0565b11613906565b613b9c613b8460608801612584565b613b96613b905f6119af565b916104c0565b11613988565b613ba860808701612584565b906139c5565b613bb95f8601612584565b6139e7565b613bca60808501612584565b906139e7565b613bdc60608401612584565b906139c5565b90613ac0565b50613bf25f6119af565b90565b50613bff5f6119af565b90565b613c1490613c0e613702565b90614106565b565b613c1e61146d565b50613c33613c2d828490612dcb565b1561035d565b5f14613cbc57613c5b6001613c565f613c4e600686906116d2565b01859061119b565b6125c3565b90613c64613702565b90613ca1613c9b613c957f2f8788117e7eff1d82e926ec794901d17c78024a50270940304540a733656f0d956116c6565b9261118f565b9261118f565b92613caa610302565b80613cb481610762565b0390a4600190565b50505f90565b613cca61146d565b50613cd6818390612dcb565b5f14613d5e57613cfd5f613cf85f613cf0600686906116d2565b01859061119b565b6125c3565b90613d06613702565b90613d43613d3d613d377ff6391f5c32d9c69d2a47ea670b442974b53935d1edc7fd64eb21e047a839171b956116c6565b9261118f565b9261118f565b92613d4c610302565b80613d5681610762565b0390a4600190565b50505f90565b613d6c614141565b613d74613d76565b565b613d815f60056125c3565b613d89613702565b613dbf7f5db9ee0a495bf2e6ff9c91a7834c1ba4fdd244a5e8aa4e537bd38aeae4b073aa91613db6610302565b91829182610ad5565b0390a1565b613dcc613d64565b565b80613de9613de3613dde5f612317565b610473565b91610473565b14613e0557613e0391613dfb5f612317565b919091614080565b565b613e28613e115f612317565b5f91829163ec442f0560e01b835260048301610ad5565b0390fd5b613e3d90613e38613702565b614174565b565b90613e5c91613e5781613e50613702565b849161375f565b614174565b565b613e666141d3565b613e6e613e70565b565b613e7c600160056125c3565b613e84613702565b613eba7f62e78cea01bee320cd4e420270b5ea74000d11b0c9f74754ebdbfc544b05a25891613eb1610302565b91829182610ad5565b0390a1565b613ec7613e5e565b565b613ed161146d565b50613eeb613ee56301ffc9a760e01b610310565b91610310565b1490565b909281613f0c613f06613f015f612317565b610473565b91610473565b14613fd75783613f2c613f26613f215f612317565b610473565b91610473565b14613fb057613f5083613f4b613f44600186906130ad565b8790612a18565b611abb565b613f5a575b505050565b919091613fa5613f93613f8d7f8c5be1e5ebec7d5bd14f71427d1e84f3dd0314c0f7b2291e5b200ac8c7c3b9259361118f565b9361118f565b93613f9c610302565b918291826104d0565b0390a35f8080613f55565b613fd3613fbc5f612317565b5f918291634a1406b160e11b835260048301610ad5565b0390fd5b613ffa613fe35f612317565b5f91829163e602df0560e01b835260048301610ad5565b0390fd5b5f7f426c61636b6c6973746564206164647265737300000000000000000000000000910152565b61403260136020926103cc565b61403b81613ffe565b0190565b6140549060208101905f818303910152614025565b90565b1561405e57565b614066610302565b62461bcd60e51b81528061407c6004820161403f565b0390fd5b916140b9926140a261409c6140976008849061119b565b61180c565b1561035d565b806140bb575b6140b190614057565b919091614221565b565b506140b16140dc6140d66140d16008879061119b565b61180c565b1561035d565b90506140a8565b9160206141049294936140fd60408201965f830190610ac8565b0190610689565b565b9061411b614115838390612dcb565b1561035d565b614123575050565b61413d5f92839263e2517d3f60e01b8452600484016140e3565b0390fd5b61415261414c612a02565b1561035d565b61415857565b5f638dfc202b60e01b81528061417060048201610762565b0390fd5b908161419061418a6141855f612317565b610473565b91610473565b146141ac576141aa91906141a35f612317565b9091614080565b565b6141cf6141b85f612317565b5f918291634b637e8f60e11b835260048301610ad5565b0390fd5b6141db612a02565b6141e157565b5f63d93c066560e01b8152806141f960048201610762565b0390fd5b90614210929161420b6141d3565b614212565b565b9161421f9291909161423c565b565b9061422c92916141fd565b565b9061423991016104c0565b90565b9190918061425a61425461424f5f612317565b610473565b91610473565b145f1461433b5761427e614277836142726002611670565b611a61565b6002611abb565b5b8261429a61429461428f5f612317565b610473565b91610473565b145f1461430f576142be6142b7836142b26002611670565b613751565b6002611abb565b5b91909161430a6142f86142f27fddf252ad1be2c89b69c2b068fc378daa952ba7f163c4a11628f55a4df523b3ef9361118f565b9361118f565b93614301610302565b918291826104d0565b0390a3565b614336826143306143215f8790612a18565b9161432b83611670565b61422e565b90611abb565b6142bf565b61434e6143495f8390612a18565b611670565b8061436161435b856104c0565b916104c0565b1061438957614374614384918490613751565b61437f5f8490612a18565b611abb565b61427f565b906143a79091925f93849363391434e360e21b85526004850161371f565b0390fdfea264697066735822122079d2d196cacd9379d84a738b578c5689093551807c93a0242cb3b3f6face63ae64736f6c634300081e0033","linkReferences":{}},"methodIdentifiers":{"BURNER_ROLE()":"282c51f3","COMMUNITY_ALLOCATION()":"993eb1c5","DEFAULT_ADMIN_ROLE()":"a217fddf","ECOSYSTEM_ALLOCATION()":"90534f24","INITIAL_SUPPLY()":"2ff2e9dc","MAX_SUPPLY()":"32cb6b0c","MINTER_ROLE()":"d5391393","PAUSER_ROLE()":"e63ab1e9","PUBLIC_SALE_ALLOCATION()":"3dc762f0","TEAM_ALLOCATION()":"fd99cbed","TREASURY_ALLOCATION()":"bf1ad7e0","allowance(address,address)":"dd62ed3e","approve(address,uint256)":"095ea7b3","balanceOf(address)":"70a08231","blacklist(address)":"f9f92be4","blacklisted(address)":"dbac26e9","burn(uint256)":"42966c68","burnFrom(address,uint256)":"79cc6790","communityWallet()":"c7574839","createVestingSchedule(address,uint256,uint256,uint256,uint256,uint256,bool)":"4495e827","decimals()":"313ce567","ecosystemWallet()":"435263ef","getRoleAdmin(bytes32)":"248a9ca3","getTotalVestedAmount(address)":"d3715c76","getVestingSchedule(address,uint256)":"bed9757e","getVestingScheduleCount(address)":"07d0d916","grantRole(bytes32,address)":"2f2ff15d","hasRole(bytes32,address)":"91d14854","mint(address,uint256)":"40c10f19","name()":"06fdde03","pause()":"8456cb59","paused()":"5c975abb","renounceRole(bytes32,address)":"36568abe","revokeRole(bytes32,address)":"d547741f","revokeVesting(address,uint256)":"fa6799f2","supportsInterface(bytes4)":"01ffc9a7","symbol()":"95d89b41","teamWallet()":"59927044","totalSupply()":"18160ddd","transfer(address,uint256)":"a9059cbb","transferFrom(address,address,uint256)":"23b872dd","treasuryWallet()":"4626402b","unblacklist(address)":"75e3661e","unpause()":"3f4ba83a","verificationLogger()":"e1300c88","withdraw(uint256)":"2e1a7d4d"},"id":73}