{"abi":[{"type":"constructor","inputs":[{"name":"_verificationLogger","type":"address","internalType":"address"}],"stateMutability":"nonpayable"},{"type":"function","name":"AADHAAR_VERIFICATION_SCORE","inputs":[],"outputs":[{"name":"","type":"uint256","internalType":"uint256"}],"stateMutability":"view"},{"type":"function","name":"DECAY_RATE","inputs":[],"outputs":[{"name":"","type":"uint256","internalType":"uint256"}],"stateMutability":"view"},{"type":"function","name":"DEFAULT_ADMIN_ROLE","inputs":[],"outputs":[{"name":"","type":"bytes32","internalType":"bytes32"}],"stateMutability":"view"},{"type":"function","name":"FACE_VERIFICATION_SCORE","inputs":[],"outputs":[{"name":"","type":"uint256","internalType":"uint256"}],"stateMutability":"view"},{"type":"function","name":"INCOME_VERIFICATION_BASE_SCORE","inputs":[],"outputs":[{"name":"","type":"uint256","internalType":"uint256"}],"stateMutability":"view"},{"type":"function","name":"INITIAL_SCORE","inputs":[],"outputs":[{"name":"","type":"uint256","internalType":"uint256"}],"stateMutability":"view"},{"type":"function","name":"LOCK_PENALTY","inputs":[],"outputs":[{"name":"","type":"uint256","internalType":"uint256"}],"stateMutability":"view"},{"type":"function","name":"MAX_SCORE","inputs":[],"outputs":[{"name":"","type":"uint256","internalType":"uint256"}],"stateMutability":"view"},{"type":"function","name":"SCORE_MANAGER_ROLE","inputs":[],"outputs":[{"name":"","type":"bytes32","internalType":"bytes32"}],"stateMutability":"view"},{"type":"function","name":"getDetailedScore","inputs":[{"name":"user","type":"address","internalType":"address"}],"outputs":[{"name":"totalScore","type":"uint256","internalType":"uint256"},{"name":"faceVerificationScore","type":"uint256","internalType":"uint256"},{"name":"aadhaarVerificationScore","type":"uint256","internalType":"uint256"},{"name":"incomeVerificationScore","type":"uint256","internalType":"uint256"},{"name":"certificateScore","type":"uint256","internalType":"uint256"},{"name":"participationScore","type":"uint256","internalType":"uint256"},{"name":"reputationScore","type":"uint256","internalType":"uint256"},{"name":"penaltyScore","type":"uint256","internalType":"uint256"},{"name":"lastUpdated","type":"uint256","internalType":"uint256"},{"name":"isLocked","type":"bool","internalType":"bool"}],"stateMutability":"view"},{"type":"function","name":"getRoleAdmin","inputs":[{"name":"role","type":"bytes32","internalType":"bytes32"}],"outputs":[{"name":"","type":"bytes32","internalType":"bytes32"}],"stateMutability":"view"},{"type":"function","name":"getScoreHistory","inputs":[{"name":"user","type":"address","internalType":"address"}],"outputs":[{"name":"","type":"tuple[]","internalType":"struct TrustScore.ScoreHistory[]","components":[{"name":"delta","type":"int256","internalType":"int256"},{"name":"reason","type":"string","internalType":"string"},{"name":"timestamp","type":"uint256","internalType":"uint256"},{"name":"updater","type":"address","internalType":"address"}]}],"stateMutability":"view"},{"type":"function","name":"getTrustScore","inputs":[{"name":"user","type":"address","internalType":"address"}],"outputs":[{"name":"","type":"uint256","internalType":"uint256"}],"stateMutability":"view"},{"type":"function","name":"getUsersAboveScore","inputs":[{"name":"minScore","type":"uint256","internalType":"uint256"}],"outputs":[{"name":"","type":"address[]","internalType":"address[]"}],"stateMutability":"view"},{"type":"function","name":"getVerificationLevel","inputs":[{"name":"user","type":"address","internalType":"address"}],"outputs":[{"name":"","type":"uint256","internalType":"uint256"}],"stateMutability":"view"},{"type":"function","name":"grantRole","inputs":[{"name":"role","type":"bytes32","internalType":"bytes32"},{"name":"account","type":"address","internalType":"address"}],"outputs":[],"stateMutability":"nonpayable"},{"type":"function","name":"hasRole","inputs":[{"name":"role","type":"bytes32","internalType":"bytes32"},{"name":"account","type":"address","internalType":"address"}],"outputs":[{"name":"","type":"bool","internalType":"bool"}],"stateMutability":"view"},{"type":"function","name":"hasScore","inputs":[{"name":"","type":"address","internalType":"address"}],"outputs":[{"name":"","type":"bool","internalType":"bool"}],"stateMutability":"view"},{"type":"function","name":"initializeUser","inputs":[{"name":"user","type":"address","internalType":"address"}],"outputs":[],"stateMutability":"nonpayable"},{"type":"function","name":"isScoreLocked","inputs":[{"name":"user","type":"address","internalType":"address"}],"outputs":[{"name":"","type":"bool","internalType":"bool"}],"stateMutability":"view"},{"type":"function","name":"lockScore","inputs":[{"name":"user","type":"address","internalType":"address"},{"name":"reason","type":"string","internalType":"string"}],"outputs":[],"stateMutability":"nonpayable"},{"type":"function","name":"renounceRole","inputs":[{"name":"role","type":"bytes32","internalType":"bytes32"},{"name":"callerConfirmation","type":"address","internalType":"address"}],"outputs":[],"stateMutability":"nonpayable"},{"type":"function","name":"revokeRole","inputs":[{"name":"role","type":"bytes32","internalType":"bytes32"},{"name":"account","type":"address","internalType":"address"}],"outputs":[],"stateMutability":"nonpayable"},{"type":"function","name":"scoreHistory","inputs":[{"name":"","type":"address","internalType":"address"},{"name":"","type":"uint256","internalType":"uint256"}],"outputs":[{"name":"delta","type":"int256","internalType":"int256"},{"name":"reason","type":"string","internalType":"string"},{"name":"timestamp","type":"uint256","internalType":"uint256"},{"name":"updater","type":"address","internalType":"address"}],"stateMutability":"view"},{"type":"function","name":"scoredUsers","inputs":[{"name":"","type":"uint256","internalType":"uint256"}],"outputs":[{"name":"","type":"address","internalType":"address"}],"stateMutability":"view"},{"type":"function","name":"supportsInterface","inputs":[{"name":"interfaceId","type":"bytes4","internalType":"bytes4"}],"outputs":[{"name":"","type":"bool","internalType":"bool"}],"stateMutability":"view"},{"type":"function","name":"unlockScore","inputs":[{"name":"user","type":"address","internalType":"address"}],"outputs":[],"stateMutability":"nonpayable"},{"type":"function","name":"updateScore","inputs":[{"name":"user","type":"address","internalType":"address"},{"name":"delta","type":"int256","internalType":"int256"},{"name":"reason","type":"string","internalType":"string"}],"outputs":[],"stateMutability":"nonpayable"},{"type":"function","name":"userScores","inputs":[{"name":"","type":"address","internalType":"address"}],"outputs":[{"name":"baseScore","type":"uint256","internalType":"uint256"},{"name":"faceVerificationScore","type":"uint256","internalType":"uint256"},{"name":"aadhaarVerificationScore","type":"uint256","internalType":"uint256"},{"name":"incomeVerificationScore","type":"uint256","internalType":"uint256"},{"name":"certificateScore","type":"uint256","internalType":"uint256"},{"name":"participationScore","type":"uint256","internalType":"uint256"},{"name":"reputationScore","type":"uint256","internalType":"uint256"},{"name":"penaltyScore","type":"uint256","internalType":"uint256"},{"name":"lastUpdated","type":"uint256","internalType":"uint256"},{"name":"totalInteractions","type":"uint256","internalType":"uint256"},{"name":"isLocked","type":"bool","internalType":"bool"},{"name":"lockPenalty","type":"uint256","internalType":"uint256"}],"stateMutability":"view"},{"type":"function","name":"verificationLogger","inputs":[],"outputs":[{"name":"","type":"address","internalType":"contract IVerificationLogger"}],"stateMutability":"view"},{"type":"event","name":"RoleAdminChanged","inputs":[{"name":"role","type":"bytes32","indexed":true,"internalType":"bytes32"},{"name":"previousAdminRole","type":"bytes32","indexed":true,"internalType":"bytes32"},{"name":"newAdminRole","type":"bytes32","indexed":true,"internalType":"bytes32"}],"anonymous":false},{"type":"event","name":"RoleGranted","inputs":[{"name":"role","type":"bytes32","indexed":true,"internalType":"bytes32"},{"name":"account","type":"address","indexed":true,"internalType":"address"},{"name":"sender","type":"address","indexed":true,"internalType":"address"}],"anonymous":false},{"type":"event","name":"RoleRevoked","inputs":[{"name":"role","type":"bytes32","indexed":true,"internalType":"bytes32"},{"name":"account","type":"address","indexed":true,"internalType":"address"},{"name":"sender","type":"address","indexed":true,"internalType":"address"}],"anonymous":false},{"type":"event","name":"ScoreDecayed","inputs":[{"name":"user","type":"address","indexed":true,"internalType":"address"},{"name":"decayAmount","type":"uint256","indexed":false,"internalType":"uint256"}],"anonymous":false},{"type":"event","name":"ScoreLocked","inputs":[{"name":"user","type":"address","indexed":true,"internalType":"address"},{"name":"penalty","type":"uint256","indexed":false,"internalType":"uint256"}],"anonymous":false},{"type":"event","name":"ScoreUnlocked","inputs":[{"name":"user","type":"address","indexed":true,"internalType":"address"}],"anonymous":false},{"type":"event","name":"ScoreUpdated","inputs":[{"name":"user","type":"address","indexed":true,"internalType":"address"},{"name":"delta","type":"int256","indexed":false,"internalType":"int256"},{"name":"newScore","type":"uint256","indexed":false,"internalType":"uint256"},{"name":"reason","type":"string","indexed":false,"internalType":"string"}],"anonymous":false},{"type":"event","name":"UserInitialized","inputs":[{"name":"user","type":"address","indexed":true,"internalType":"address"}],"anonymous":false},{"type":"error","name":"AccessControlBadConfirmation","inputs":[]},{"type":"error","name":"AccessControlUnauthorizedAccount","inputs":[{"name":"account","type":"address","internalType":"address"},{"name":"neededRole","type":"bytes32","internalType":"bytes32"}]}],"bytecode":{"object":"0x60806040523461002f576100196100146100f4565b6101ed565b610021610034565b6141546103dd823961415490f35b61003a565b60405190565b5f80fd5b601f801991011690565b634e487b7160e01b5f52604160045260245ffd5b906100669061003e565b810190811060018060401b0382111761007e57604052565b610048565b9061009661008f610034565b928361005c565b565b5f80fd5b60018060a01b031690565b6100b09061009c565b90565b6100bc816100a7565b036100c357565b5f80fd5b905051906100d4826100b3565b565b906020828203126100ef576100ec915f016100c7565b90565b610098565b6101126145318038038061010781610083565b9283398101906100d6565b90565b90565b90565b5f1b90565b61013461012f61013992610115565b61011b565b610118565b90565b6101455f610120565b90565b7f4a83b62ba833bb00089c50043a232459cfd39d4117a1430bd940d1e73667f82190565b90565b61018361017e6101889261009c565b61016c565b61009c565b90565b6101949061016f565b90565b6101a09061018b565b90565b906101b460018060a01b039161011b565b9181191691161790565b6101c79061018b565b90565b90565b906101e26101dd6101e9926101be565b6101ca565b82546101a3565b9055565b61021f610226916102066101ff61013c565b33906102cb565b50610219610212610148565b33906102cb565b50610197565b60056101cd565b565b5f90565b151590565b61023a90610118565b90565b9061024790610231565b5f5260205260405f2090565b61025c9061016f565b90565b61026890610253565b90565b906102759061025f565b5f5260205260405f2090565b9061028d60ff9161011b565b9181191691161790565b6102a09061022c565b90565b90565b906102bb6102b66102c292610297565b6102a3565b8254610281565b9055565b5f0190565b6102d3610228565b506102e86102e28284906103a2565b1561022c565b5f146103705761030f600161030a5f61030281869061023d565b01859061026b565b6102a6565b906103186103cf565b9061035561034f6103497f2f8788117e7eff1d82e926ec794901d17c78024a50270940304540a733656f0d95610231565b9261025f565b9261025f565b9261035e610034565b80610368816102c6565b0390a4600190565b50505f90565b5f1c90565b60ff1690565b61038d61039291610376565b61037b565b90565b61039f9054610381565b90565b6103c8915f6103bd6103c3936103b6610228565b508261023d565b0161026b565b610395565b90565b5f90565b6103d76103cb565b50339056fe60806040526004361015610013575b611669565b61001d5f356101fb565b8062be4984146101f657806301ffc9a7146101f157806304505433146101ec5780630cc9ec5b146101e7578063128db35a146101e25780631413d4c0146101dd5780631de40e49146101d8578063200b2512146101d357806320e21535146101ce578063248a9ca3146101c957806327ff6223146101c45780632bf41e18146101bf5780632f2ff15d146101ba57806336568abe146101b5578063578e4295146101b05780635bed5604146101ab5780635e09eea1146101a6578063691845e4146101a157806374ba3f391461019c57806391d148541461019757806395a6cd6c1461019257806395b4c85e1461018d578063a217fddf14610188578063bf75d4b114610183578063c5b23e821461017e578063d272f39a14610179578063d547741f14610174578063de3303731461016f578063e1300c881461016a5763eed0594c0361000e57611634565b6115ff565b61155c565b6114f5565b6114c0565b6113f9565b6113ae565b611379565b611309565b61129d565b611238565b611204565b611185565b610ea9565b610e74565b610cd9565b610c50565b610c1c565b610bad565b610ae2565b610a75565b6109da565b6109a5565b610939565b6108bd565b610692565b6105f3565b61045c565b610317565b610270565b60e01c90565b60405190565b5f80fd5b5f80fd5b5f80fd5b60018060a01b031690565b61022790610213565b90565b6102338161021e565b0361023a57565b5f80fd5b9050359061024b8261022a565b565b9060208282031261026657610263915f0161023e565b90565b61020b565b5f0190565b3461029e5761028861028336600461024d565b611e0f565b610290610201565b8061029a8161026b565b0390f35b610207565b63ffffffff60e01b1690565b6102b8816102a3565b036102bf57565b5f80fd5b905035906102d0826102af565b565b906020828203126102eb576102e8915f016102c3565b90565b61020b565b151590565b6102fe906102f0565b9052565b9190610315905f602085019401906102f5565b565b346103475761034361033261032d3660046102d2565b611e1e565b61033a610201565b91829182610302565b0390f35b610207565b90565b6103588161034c565b0361035f57565b5f80fd5b905035906103708261034f565b565b9060208282031261038b57610388915f01610363565b90565b61020b565b634e487b7160e01b5f52603260045260245ffd5b5490565b5f5260205f2090565b6103ba816103a4565b8210156103d4576103cc6001916103a8565b910201905f90565b610390565b1c90565b60018060a01b031690565b6103f89060086103fd93026103d9565b6103dd565b90565b9061040b91546103e8565b90565b6004610419816103a4565b821015610436576104339161042d916103b1565b90610400565b90565b5f80fd5b6104439061021e565b9052565b919061045a905f6020850194019061043a565b565b3461048c57610488610477610472366004610372565b61040e565b61047f610201565b91829182610447565b0390f35b610207565b90565b61049d81610491565b036104a457565b5f80fd5b905035906104b582610494565b565b5f80fd5b5f80fd5b601f801991011690565b634e487b7160e01b5f52604160045260245ffd5b906104e7906104bf565b810190811067ffffffffffffffff82111761050157604052565b6104c9565b90610519610512610201565b92836104dd565b565b67ffffffffffffffff8111610539576105356020916104bf565b0190565b6104c9565b90825f939282370152565b9092919261055e6105598261051b565b610506565b9381855260208501908284011161057a576105789261053e565b565b6104bb565b9080601f8301121561059d5781602061059a93359101610549565b90565b6104b7565b916060838303126105ee576105b9825f850161023e565b926105c783602083016104a8565b92604082013567ffffffffffffffff81116105e9576105e6920161057f565b90565b61020f565b61020b565b346106225761060c6106063660046105a2565b91612d3f565b610614610201565b8061061e8161026b565b0390f35b610207565b5f91031261063157565b61020b565b90565b90565b61065061064b61065592610636565b610639565b61034c565b90565b610662603261063c565b90565b61066d610658565b90565b6106799061034c565b9052565b9190610690905f60208501940190610670565b565b346106c2576106a2366004610627565b6106be6106ad610665565b6106b5610201565b9182918261067d565b0390f35b610207565b6106db6106d66106e092610213565b610639565b610213565b90565b6106ec906106c7565b90565b6106f8906106e3565b90565b90610705906106ef565b5f5260205260405f2090565b5f1c90565b90565b61072561072a91610711565b610716565b90565b6107379054610719565b90565b60ff1690565b61074c61075191610711565b61073a565b90565b61075e9054610740565b90565b61076c9060016106fb565b906107785f830161072d565b916107856001820161072d565b916107926002830161072d565b9161079f6003820161072d565b916107ac6004830161072d565b916107b96005820161072d565b916107c66006830161072d565b916107d36007820161072d565b916107e06008830161072d565b916107ed6009820161072d565b91610806600b6107ff600a8501610754565b930161072d565b90565b99979593919c9b9a98969492909c6101808b019d5f8c0161082991610670565b60208b0161083691610670565b60408a0161084391610670565b6060890161085091610670565b6080880161085d91610670565b60a0870161086a91610670565b60c0860161087791610670565b60e0850161088491610670565b610100840161089291610670565b61012083016108a091610670565b61014082016108ae916102f5565b610160016108bb91610670565b565b346108fd576108f96108d86108d336600461024d565b610761565b986108f09c9a9c989198979297969396959495610201565b9c8d9c8d610809565b0390f35b610207565b90565b61091961091461091e92610902565b610639565b61034c565b90565b61092b6001610905565b90565b610936610921565b90565b3461096957610949366004610627565b61096561095461092e565b61095c610201565b9182918261067d565b0390f35b610207565b90565b61098561098061098a9261096e565b610639565b61034c565b90565b6109976019610971565b90565b6109a261098d565b90565b346109d5576109b5366004610627565b6109d16109c061099a565b6109c8610201565b9182918261067d565b0390f35b610207565b34610a0a57610a066109f56109f036600461024d565b612ed1565b6109fd610201565b9182918261067d565b0390f35b610207565b90565b610a1b81610a0f565b03610a2257565b5f80fd5b90503590610a3382610a12565b565b90602082820312610a4e57610a4b915f01610a26565b90565b61020b565b610a5c90610a0f565b9052565b9190610a73905f60208501940190610a53565b565b34610aa557610aa1610a90610a8b366004610a35565b613096565b610a98610201565b91829182610a60565b0390f35b610207565b90565b610ac1610abc610ac692610aaa565b610639565b61034c565b90565b610ad46103e8610aad565b90565b610adf610ac9565b90565b34610b1257610af2366004610627565b610b0e610afd610ad7565b610b05610201565b9182918261067d565b0390f35b610207565b979593919a9998969492909a61014089019b5f8a01610b3591610670565b60208901610b4291610670565b60408801610b4f91610670565b60608701610b5c91610670565b60808601610b6991610670565b60a08501610b7691610670565b60c08401610b8391610670565b60e08301610b9091610670565b6101008201610b9e91610670565b61012001610bab916102f5565b565b34610bea57610be6610bc8610bc336600461024d565b6130b7565b96610bdd9a989a969196959295949394610201565b9a8b9a8b610b17565b0390f35b610207565b9190604083820312610c175780610c0b610c14925f8601610a26565b9360200161023e565b90565b61020b565b34610c4b57610c35610c2f366004610bef565b9061326d565b610c3d610201565b80610c478161026b565b0390f35b610207565b34610c7f57610c69610c63366004610bef565b90613279565b610c71610201565b80610c7b8161026b565b0390f35b610207565b90610c8e906106ef565b5f5260205260405f2090565b610caa906008610caf93026103d9565b61073a565b90565b90610cbd9154610c9a565b90565b610cd690610cd16003915f92610c84565b610cb2565b90565b34610d0957610d05610cf4610cef36600461024d565b610cc0565b610cfc610201565b91829182610302565b0390f35b610207565b5190565b60209181520190565b60200190565b610d2a90610491565b9052565b5190565b60209181520190565b90825f9392825e0152565b610d65610d6e602093610d7393610d5c81610d2e565b93848093610d32565b95869101610d3b565b6104bf565b0190565b610d809061034c565b9052565b610d8d9061021e565b9052565b90610ddf90606080610dc260808401610db05f8801515f870190610d21565b60208701518582036020870152610d46565b94610dd560408201516040860190610d77565b0151910190610d84565b90565b90610dec91610d91565b90565b60200190565b90610e09610e0283610d0e565b8092610d12565b9081610e1a60208302840194610d1b565b925f915b838310610e2d57505050505090565b90919293946020610e4f610e4983856001950387528951610de2565b97610def565b9301930191939290610e1e565b610e719160208201915f818403910152610df5565b90565b34610ea457610ea0610e8f610e8a36600461024d565b6133d7565b610e97610201565b91829182610e5c565b0390f35b610207565b34610ed957610ed5610ec4610ebf36600461024d565b6133f6565b610ecc610201565b9182918261067d565b0390f35b610207565b9190604083820312610f065780610efa610f03925f860161023e565b93602001610363565b90565b61020b565b90610f15906106ef565b5f5260205260405f2090565b5490565b5f5260205f2090565b610f3781610f21565b821015610f5157610f49600491610f25565b910201905f90565b610390565b90565b610f65610f6a91610711565b610f56565b90565b610f779054610f59565b90565b634e487b7160e01b5f52602260045260245ffd5b9060016002830492168015610fae575b6020831014610fa957565b610f7a565b91607f1691610f9e565b5f5260205f2090565b905f9291805490610fdb610fd483610f8e565b8094610d32565b916001811690815f146110325750600114610ff6575b505050565b6110039192939450610fb8565b915f925b81841061101a57505001905f8080610ff1565b60018160209295939554848601520191019290611007565b92949550505060ff19168252151560200201905f8080610ff1565b9061105791610fc1565b90565b9061107a6110739261106a610201565b9384809261104d565b03836104dd565b565b61108861108d91610711565b6103dd565b90565b61109a905461107c565b90565b6110a8906002610f0b565b906110b282610f21565b8110156110f8576110c291610f2e565b50906110cf5f8301610f6d565b916110dc6001820161105a565b916110f560036110ee6002850161072d565b9301611090565b90565b5f80fd5b61110590610491565b9052565b60209181520190565b61113161113a60209361113f9361112881610d2e565b93848093611109565b95869101610d3b565b6104bf565b0190565b61117c6111716060936111839698979561116460808601925f8701906110fc565b8482036020860152611112565b966040830190610670565b019061043a565b565b346111ba576111b66111a161119b366004610ede565b9061109d565b906111ad949294610201565b94859485611143565b0390f35b610207565b9190916040818403126111ff576111d8835f830161023e565b92602082013567ffffffffffffffff81116111fa576111f7920161057f565b90565b61020f565b61020b565b346112335761121d6112173660046111bf565b906136c1565b611225610201565b8061122f8161026b565b0390f35b610207565b346112695761126561125461124e366004610bef565b906136cd565b61125c610201565b91829182610302565b0390f35b610207565b7f4a83b62ba833bb00089c50043a232459cfd39d4117a1430bd940d1e73667f82190565b61129a61126e565b90565b346112cd576112ad366004610627565b6112c96112b8611292565b6112c0610201565b91829182610a60565b0390f35b610207565b90565b6112e96112e46112ee926112d2565b610639565b61034c565b90565b6112fb60146112d5565b90565b6113066112f1565b90565b3461133957611319366004610627565b6113356113246112fe565b61132c610201565b9182918261067d565b0390f35b610207565b90565b5f1b90565b61135a61135561135f9261133e565b611341565b610a0f565b90565b61136b5f611346565b90565b611376611362565b90565b346113a957611389366004610627565b6113a561139461136e565b61139c610201565b91829182610a60565b0390f35b610207565b346113dc576113c66113c136600461024d565b613953565b6113ce610201565b806113d88161026b565b0390f35b610207565b6113eb6019610971565b90565b6113f66113e1565b90565b3461142957611409366004610627565b6114256114146113ee565b61141c610201565b9182918261067d565b0390f35b610207565b5190565b60209181520190565b60200190565b9061144e81602093610d84565b0190565b60200190565b9061147561146f6114688461142e565b8093611432565b9261143b565b905f5b8181106114855750505090565b90919261149e6114986001928651611441565b94611452565b9101919091611478565b6114bd9160208201915f818403910152611458565b90565b346114f0576114ec6114db6114d6366004610372565b613a0e565b6114e3610201565b918291826114a8565b0390f35b610207565b346115245761150e611508366004610bef565b90613b14565b611516610201565b806115208161026b565b0390f35b610207565b61153d6115386115429261133e565b610639565b61034c565b90565b61154e5f611529565b90565b611559611545565b90565b3461158c5761156c366004610627565b611588611577611551565b61157f610201565b9182918261067d565b0390f35b610207565b60018060a01b031690565b6115ac9060086115b193026103d9565b611591565b90565b906115bf915461159c565b90565b6115ce60055f906115b4565b90565b6115da906106e3565b90565b6115e6906115d1565b9052565b91906115fd905f602085019401906115dd565b565b3461162f5761160f366004610627565b61162b61161a6115c2565b611622610201565b918291826115ea565b0390f35b610207565b346116645761166061164f61164a36600461024d565b613b20565b611657610201565b91829182610302565b0390f35b610207565b5f80fd5b6116869061168161167c61126e565b613b68565b611b7c565b565b61169c6116976116a19261133e565b610639565b610213565b90565b6116ad90611688565b90565b5f7f496e76616c696420757365722061646472657373000000000000000000000000910152565b6116e46014602092611109565b6116ed816116b0565b0190565b6117069060208101905f8183039101526116d7565b90565b1561171057565b611718610201565b62461bcd60e51b81528061172e600482016116f1565b0390fd5b5f7f5573657220616c726561647920696e697469616c697a65640000000000000000910152565b6117666018602092611109565b61176f81611732565b0190565b6117889060208101905f818303910152611759565b90565b1561179257565b61179a610201565b62461bcd60e51b8152806117b060048201611773565b0390fd5b6117bf610180610506565b90565b906117cc9061034c565b9052565b906117da906102f0565b9052565b634e487b7160e01b5f525f60045260245ffd5b6117fb905161034c565b90565b9061180a5f1991611341565b9181191691161790565b61182861182361182d9261034c565b610639565b61034c565b90565b90565b9061184861184361184f92611814565b611830565b82546117fe565b9055565b61185d90516102f0565b90565b9061186c60ff91611341565b9181191691161790565b61187f906102f0565b90565b90565b9061189a6118956118a192611876565b611882565b8254611860565b9055565b906119ce610160600b6119d4946118c95f82016118c35f88016117f1565b90611833565b6118e2600182016118dc602088016117f1565b90611833565b6118fb600282016118f5604088016117f1565b90611833565b6119146003820161190e606088016117f1565b90611833565b61192d60048201611927608088016117f1565b90611833565b6119466005820161194060a088016117f1565b90611833565b61195f6006820161195960c088016117f1565b90611833565b6119786007820161197260e088016117f1565b90611833565b6119926008820161198c61010088016117f1565b90611833565b6119ac600982016119a661012088016117f1565b90611833565b6119c6600a82016119c06101408801611853565b90611885565b0192016117f1565b90611833565b565b906119e0916118a5565b565b90565b5f5260205f2090565b5490565b6119fb816119ee565b821015611a1557611a0d6001916119e5565b910201905f90565b610390565b1b90565b91906008611a3e910291611a3860018060a01b0384611a1a565b92611a1a565b9181191691161790565b90565b9190611a61611a5c611a69936106ef565b611a48565b908354611a1e565b9055565b9081549168010000000000000000831015611a9d5782611a95916001611a9b950181556119f2565b90611a4b565b565b6104c9565b611aae611ab391610711565b611591565b90565b611ac09054611aa2565b90565b611ad7611ad2611adc9261034c565b611341565b610a0f565b90565b5f80fd5b60e01b90565b5f910312611af357565b61020b565b5f7f555345525f54525553545f53434f52455f494e495449414c495a454400000000910152565b611b2c601c602092611109565b611b3581611af8565b0190565b916040611b6a929493611b63611b58606083018381035f850152611b1f565b96602083019061043a565b0190610a53565b565b611b74610201565b3d5f823e3d90fd5b805f611b87906116a4565b611b909061021e565b90611b9a9061021e565b1415611ba590611709565b600381611bb191610c84565b611bba90610754565b15611bc4906102f0565b611bcd9061178b565b611bd5611545565b5f5f5f5f5f5f5f9142935f955f975f99611bed6117b4565b9b5f8d0190611bfb916117c2565b611c0490611529565b60208c0190611c12916117c2565b611c1b90611529565b60408b0190611c29916117c2565b611c3290611529565b60608a0190611c40916117c2565b611c4990611529565b6080890190611c57916117c2565b611c6090611529565b60a0880190611c6e916117c2565b611c7790611529565b60c0870190611c85916117c2565b611c8e90611529565b60e0860190611c9c916117c2565b610100850190611cab916117c2565b611cb490611529565b610120840190611cc3916117c2565b610140830190611cd2916117d0565b611cdb90611529565b610160820190611cea916117c2565b600182611cf6916106fb565b90611d00916119d6565b6001600382611d0e91610c84565b90611d1891611885565b6004611d23906119e2565b81611d2d91611a6d565b611d376005611ab6565b611d40906115d1565b635260590a82611d4e611545565b611d5790611ac3565b92803b15611e0a57611d7c5f8094611d87611d70610201565b97889687958694611ae3565b845260048401611b39565b03925af18015611e0557611dd9575b50611dc17f51f3e16491a1245725e3dd6aab55df59539bc9a5a3c1984f588ca1beef5d2238916106ef565b90611dca610201565b80611dd48161026b565b0390a2565b611df8905f3d8111611dfe575b611df081836104dd565b810190611ae9565b5f611d96565b503d611de6565b611b6c565b611adf565b611e189061166d565b565b5f90565b611e26611e1a565b5080611e41611e3b637965db0b60e01b6102a3565b916102a3565b14908115611e4e575b5090565b611e589150613b7c565b5f611e4a565b90611e799291611e74611e6f61126e565b613b68565b6125dd565b565b90565b5190565b5f7f526561736f6e2072657175697265640000000000000000000000000000000000910152565b611eb6600f602092611109565b611ebf81611e82565b0190565b611ed89060208101905f818303910152611ea9565b90565b15611ee257565b611eea610201565b62461bcd60e51b815280611f0060048201611ec3565b0390fd5b5f7f55736572206e6f7420696e697469616c697a6564000000000000000000000000910152565b611f386014602092611109565b611f4181611f04565b0190565b611f5a9060208101905f818303910152611f2b565b90565b15611f6457565b611f6c610201565b62461bcd60e51b815280611f8260048201611f45565b0390fd5b5f7f53636f7265206973206c6f636b65640000000000000000000000000000000000910152565b611fba600f602092611109565b611fc381611f86565b0190565b611fdc9060208101905f818303910152611fad565b90565b15611fe657565b611fee610201565b62461bcd60e51b81528061200460048201611fc7565b0390fd5b90565b60200190565b61202561202061202a9261133e565b610639565b610491565b90565b634e487b7160e01b5f52601160045260245ffd5b61204a90610491565b600160ff1b811461205a575f0390565b61202d565b61207361206e61207892610491565b610639565b61034c565b90565b5f7f44656c746120746f6f206c617267650000000000000000000000000000000000910152565b6120af600f602092611109565b6120b88161207b565b0190565b6120d19060208101905f8183039101526120a2565b90565b156120db57565b6120e3610201565b62461bcd60e51b8152806120f9600482016120bc565b0390fd5b61210c6121129193929361034c565b9261034c565b820180921161211d57565b61202d565b90565b61212f6080610506565b90565b9061213c90610491565b9052565b52565b9061214d9061021e565b9052565b5f5260205f2090565b5490565b6121678161215a565b82101561218157612179600491612151565b910201905f90565b610390565b6121909051610491565b90565b6121a76121a26121ac92610491565b610639565b610491565b90565b90565b906121c76121c26121ce92612193565b6121af565b82546117fe565b9055565b5190565b601f602091010490565b919060086121fb9102916121f55f1984611a1a565b92611a1a565b9181191691161790565b919061221b61221661222393611814565b611830565b9083546121e0565b9055565b5f90565b61223d91612237612227565b91612205565b565b5b81811061224b575050565b806122585f60019361222b565b01612240565b9190601f811161226e575b505050565b61227a61229f93610fb8565b906020612286846121d6565b830193106122a7575b612298906121d6565b019061223f565b5f8080612269565b91506122988192905061228f565b906122c5905f19906008026103d9565b191690565b816122d4916122b5565b906002021790565b906122e681610d2e565b9067ffffffffffffffff82116123a65761230a826123048554610f8e565b8561225e565b602090601f831160011461233e5791809161232d935f92612332575b50506122ca565b90555b565b90915001515f80612326565b601f1983169161234d85610fb8565b925f5b81811061238e57509160029391856001969410612374575b50505002019055612330565b612384910151601f8416906122b5565b90555f8080612368565b91936020600181928787015181550195019201612350565b6104c9565b906123b5916122dc565b565b6123c1905161021e565b90565b906123d560018060a01b0391611341565b9181191691161790565b906123f46123ef6123fb926106ef565b611a48565b82546123c4565b9055565b9061245c60606003612462946124225f820161241c5f8801612186565b906121b2565b61243b60018201612435602088016121d2565b906123ab565b6124546002820161244e604088016117f1565b90611833565b0192016123b7565b906123df565b565b919061247557612473916123ff565b565b6117de565b90815491680100000000000000008310156124aa57826124a29160016124a89501815561215e565b90612464565b565b6104c9565b90565b6124be6124c391610491565b6124af565b9052565b905090565b6124f16124e8926020926124df81610d2e565b948580936124c7565b93849101610d3b565b0190565b90565b6125046125099161034c565b6124f5565b9052565b60209392848261252361252a94612531966124b2565b01906124cc565b80926124f8565b0190565b5f7f54525553545f53434f52455f5550444154454400000000000000000000000000910152565b6125696013602092611109565b61257281612535565b0190565b9160406125a79294936125a0612595606083018381035f85015261255c565b96602083019061043a565b0190610a53565b565b6125cd6125da9492936125c360608401955f8501906110fc565b6020830190610670565b6040818403910152611112565b90565b91612603836125fc6125f66125f15f6116a4565b61021e565b9161021e565b1415611709565b61262f61261761261283611e7b565b611e7e565b6126296126235f611529565b9161034c565b11611edb565b61264b61264661264160038690610c84565b610754565b611f5d565b61267361266e612668600a612662600188906106fb565b01610754565b156102f0565b611fdf565b61277d61268a612685600186906106fb565b612008565b61269385613ba2565b61269c83611e7b565b6126ae6126a882611e7e565b9161200b565b20846126c26126bc5f612011565b91610491565b135f14612bac576126d28561205f565b906126f7826126f06126ea6126e5610ac9565b61034c565b9161034c565b11156120d4565b8061272a6127247f0496fa6bb3b2773e8a1b20513ea22e3375d761ba7ba03d6a9830c8c687fffbd5610a0f565b91610a0f565b145f146128f757505061274761273e6113e1565b60018301611833565b5b5b6127564260088301611833565b600961277661276682840161072d565b6127706001610905565b906120fd565b9101611833565b6127d761279461278f60028690610f0b565b612122565b83906127d2846127c9426127c033936127b76127ae612125565b985f8a01612132565b60208801612140565b604086016117c2565b60608401612143565b61247a565b6127e083613c87565b926127f36127ee6005611ab6565b6115d1565b635260590a828561282686916128178a61280b610201565b9485936020850161250d565b602082018103825203826104dd565b61283861283282611e7e565b9161200b565b2092803b156128f25761285e5f8094612869612852610201565b97889687958694611ae3565b845260048401612576565b03925af180156128ed576128c1575b50919290926128bc6128aa7fd902ee024fd6f54cb7182bb209a273ae6f9262d612a102027f010b15604f3913946106ef565b946128b3610201565b938493846125a9565b0390a2565b6128e0905f3d81116128e6575b6128d881836104dd565b810190611ae9565b5f612878565b503d6128ce565b611b6c565b611adf565b8061292a6129247f4c9a11b5dc640f78f4036ad5935ba1d52c08f90802198f4b244265dfb9ddc281610a0f565b91610a0f565b145f1461294d57505061294761293e610658565b60028301611833565b5b612748565b8061298061297a7fc5b9844d1e694ec5790e04946ae9e8e8db59215ad14875bf78e9bc7b81539ced610a0f565b91610a0f565b145f146129e3575061299d906129986003840161072d565b6120fd565b806129b76129b16129ac610ac9565b61034c565b9161034c565b115f146129da57506129d46129ca610ac9565b5b60038301611833565b5b612948565b6129d4906129cb565b80612a16612a107fa82ac47c12a65e251a838b1ec425fc9dab87df65cfb57c8763feee68cae5befb610a0f565b91610a0f565b145f14612a795750612a3390612a2e6004840161072d565b6120fd565b80612a4d612a47612a42610ac9565b61034c565b9161034c565b115f14612a705750612a6a612a60610ac9565b5b60048301611833565b5b6129d5565b612a6a90612a61565b80612aac612aa67f85bd61ff879ddf05bdc9858014e78c22fc71a30a920ba9096604d38e301fe953610a0f565b91610a0f565b14908115612b71575b505f14612b1757612ad190612acc6006840161072d565b6120fd565b80612aeb612ae5612ae0610ac9565b61034c565b9161034c565b115f14612b0e5750612b08612afe610ac9565b5b60068301611833565b5b612a6b565b612b0890612aff565b612b2c90612b276005840161072d565b6120fd565b80612b46612b40612b3b610ac9565b61034c565b9161034c565b115f14612b685750612b63612b59610ac9565b5b60058301611833565b612b09565b612b6390612b5a565b9050612ba5612b9f7f86f46f2ac9cfd00ea64b06113b3d4ff39525159ac17b5d0a0f4252c80f428935610a0f565b91610a0f565b145f612ab5565b612bbd612bb886612041565b61205f565b90612be282612bdb612bd5612bd0610ac9565b61034c565b9161034c565b11156120d4565b80612c15612c0f7fbf2d7857b33bfa6b727455ad037fb0de48051cf3e5bc7dc07242411d43b2495d610a0f565b91610a0f565b145f14612c39575050612c33612c2a5f611529565b60018301611833565b5b612749565b80612c6c612c667f2fcc4f8a42fa30e5b5f7ee14e5ec90be1757ba40275f616cebefaa7ef2372a25610a0f565b91610a0f565b145f14612c90575050612c8a612c815f611529565b60028301611833565b5b612c34565b612cc2612cbc7f45145a944f18b560269b46de22080e08a891ecea97199833cbb3fce584878a4a610a0f565b91610a0f565b145f14612ce55750612cdf612cd65f611529565b60038301611833565b5b612c8b565b612cfa90612cf56007840161072d565b6120fd565b80612d14612d0e612d09610ac9565b61034c565b9161034c565b115f14612d365750612d31612d27610ac9565b5b60078301611833565b612ce0565b612d3190612d28565b90612d4a9291611e5e565b565b612d57610180610506565b90565b90612e85612e7b600b612d6b612d4c565b94612d82612d7a5f830161072d565b5f88016117c2565b612d9a612d916001830161072d565b602088016117c2565b612db2612da96002830161072d565b604088016117c2565b612dca612dc16003830161072d565b606088016117c2565b612de2612dd96004830161072d565b608088016117c2565b612dfa612df16005830161072d565b60a088016117c2565b612e12612e096006830161072d565b60c088016117c2565b612e2a612e216007830161072d565b60e088016117c2565b612e43612e396008830161072d565b61010088016117c2565b612e5c612e526009830161072d565b61012088016117c2565b612e75612e6b600a8301610754565b61014088016117d0565b0161072d565b61016084016117c2565b565b612e9090612d5a565b90565b90565b612eaa612ea5612eaf92612e93565b610639565b61034c565b90565b90565b612ec9612ec4612ece92612eb2565b610639565b61034c565b90565b612ed9612227565b50612ef7612ef1612eec60038490610c84565b610754565b156102f0565b61303f57612f09612f0e9160016106fb565b612e87565b612f175f611529565b90612f24602082016117f1565b612f36612f305f611529565b9161034c565b1161302d575b612f48602082016117f1565b612f5a612f545f611529565b9161034c565b1180613008575b612ff6575b612f72602082016117f1565b612f84612f7e5f611529565b9161034c565b1180612fd1575b9081612fab575b50612f9b575b90565b50612fa66003612eb5565b612f98565b612fb891506060016117f1565b612fca612fc45f611529565b9161034c565b115f612f92565b50612fde604082016117f1565b612ff0612fea5f611529565b9161034c565b11612f8b565b90506130026002612e96565b90612f66565b50613015604082016117f1565b6130276130215f611529565b9161034c565b11612f61565b90506130396001610905565b90612f3c565b506130495f611529565b90565b5f90565b61305990610a0f565b90565b9061306690613050565b5f5260205260405f2090565b90565b61308161308691610711565b613072565b90565b6130939054613075565b90565b60016130ae6130b4926130a761304c565b505f61305c565b01613089565b90565b6130bf612227565b506130c8612227565b506130d1612227565b506130da612227565b506130e3612227565b506130ec612227565b506130f5612227565b506130fe612227565b50613107612227565b50613110611e1a565b5061312e61312861312360038490610c84565b610754565b156102f0565b6131d15761314f613149613144600184906106fb565b612e87565b91613db2565b61315b602083016117f1565b92613168604084016117f1565b92613175606082016117f1565b92613182608083016117f1565b9261318f60a084016117f1565b9261319c60c082016117f1565b926131a960e083016117f1565b926131c46101406131bd61010086016117f1565b9401611853565b9199989796959493929190565b505f905f915f915f915f915f915f915f915f915f916131ef90611529565b996131f990611529565b9861320390611529565b9761320d90611529565b9661321790611529565b9561322190611529565b9461322b90611529565b9361323590611529565b9261323f90611529565b9190565b9061325e9161325961325482613096565b613b68565b613260565b565b9061326a91613e2e565b50565b9061327791613243565b565b908061329461328e613289613edd565b61021e565b9161021e565b036132a5576132a291613eea565b50565b5f63334bd91960e11b8152806132bd6004820161026b565b0390fd5b606090565b67ffffffffffffffff81116132de5760208091020190565b6104c9565b906132f56132f0836132c6565b610506565b918252565b6133046080610506565b90565b9061336e61336560036133186132fa565b9461332f6133275f8301610f6d565b5f8801612132565b61334761333e6001830161105a565b60208801612140565b61335f6133566002830161072d565b604088016117c2565b01611090565b60608401612143565b565b61337990613307565b90565b9061338682610f21565b61338f816132e3565b9261339d6020850191610f25565b5f915b8383106133ad5750505050565b600460206001926133bd85613370565b8152019201920191906133a0565b6133d49061337c565b90565b6133ee6133f3916133e66132c1565b506002610f0b565b6133cb565b90565b6133fe612227565b5061341c61341661341160038490610c84565b610754565b156102f0565b61342c5761342990613db2565b90565b506134365f611529565b90565b906134539161344e61344961126e565b613b68565b61354b565b565b5f7f53636f726520616c7265616479206c6f636b6564000000000000000000000000910152565b6134896014602092611109565b61349281613455565b0190565b6134ab9060208101905f81830391015261347c565b90565b156134b557565b6134bd610201565b62461bcd60e51b8152806134d360048201613496565b0390fd5b5f7f54525553545f53434f52455f4c4f434b45440000000000000000000000000000910152565b61350b6012602092611109565b613514816134d7565b0190565b916040613549929493613542613537606083018381035f8501526134fe565b96602083019061043a565b0190610a53565b565b9061356861356361355e60038590610c84565b610754565b611f5d565b61359061358b613585600a61357f600187906106fb565b01610754565b156102f0565b6134ae565b6135a96001600a6135a3600186906106fb565b01611885565b6135c86135b46112f1565b600b6135c2600186906106fb565b01611833565b6135da6135d56005611ab6565b6115d1565b90635260590a906135eb8491611e7b565b6135fd6135f782611e7e565b9161200b565b2092803b156136bc576136235f809461362e613617610201565b97889687958694611ae3565b845260048401613518565b03925af180156136b75761368b575b506136466112f1565b906136866136747fe3dfb90b5410a3b7b26f36049fca96e0d01ed890309ed2e976458b7183d48584926106ef565b9261367d610201565b9182918261067d565b0390a2565b6136aa905f3d81116136b0575b6136a281836104dd565b810190611ae9565b5f61363d565b503d613698565b611b6c565b611adf565b906136cb91613439565b565b6136f3915f6136e86136ee936136e1611e1a565b508261305c565b01610c84565b610754565b90565b61370f9061370a61370561126e565b613b68565b613807565b565b5f7f53636f7265206e6f74206c6f636b656400000000000000000000000000000000910152565b6137456010602092611109565b61374e81613711565b0190565b6137679060208101905f818303910152613738565b90565b1561377157565b613779610201565b62461bcd60e51b81528061378f60048201613752565b0390fd5b5f7f54525553545f53434f52455f554e4c4f434b4544000000000000000000000000910152565b6137c76014602092611109565b6137d081613793565b0190565b9160406138059294936137fe6137f3606083018381035f8501526137ba565b96602083019061043a565b0190610a53565b565b61382361381e61381960038490610c84565b610754565b611f5d565b61384261383d600a613837600185906106fb565b01610754565b61376a565b61385a5f600a613854600185906106fb565b01611885565b61387a6138665f611529565b600b613874600185906106fb565b01611833565b61388c6138876005611ab6565b6115d1565b635260590a8261389b5f611346565b92803b1561394e576138c05f80946138cb6138b4610201565b97889687958694611ae3565b8452600484016137d4565b03925af180156139495761391d575b506139057f42160b74d1773fb6f9ff5dd3e7a0fcf630f94feb421abcf6c82a480b4a216d56916106ef565b9061390e610201565b806139188161026b565b0390a2565b61393c905f3d8111613942575b61393481836104dd565b810190611ae9565b5f6138da565b503d61392a565b611b6c565b611adf565b61395c906136f6565b565b606090565b67ffffffffffffffff811161397b5760208091020190565b6104c9565b9061399261398d83613963565b610506565b918252565b369037565b906139c16139a983613980565b926020806139b78693613963565b9201910390613997565b565b60016139cf910161034c565b90565b906139dc8261142e565b8110156139ed576020809102010190565b610390565b6139fb9061034c565b5f198114613a095760010190565b61202d565b613a1661395e565b50613a29613a2460046103a4565b61399c565b613a325f611529565b613a3b5f611529565b5b80613a58613a52613a4d60046103a4565b61034c565b9161034c565b1015613ae157613a7b613a76613a70600484906103b1565b90610400565b613db2565b613a8d613a878661034c565b9161034c565b1015613aa2575b613a9d906139c3565b613a3c565b90613ad9613a9d91613ad4613ac2613abc600487906103b1565b90610400565b613acf87918490926139d2565b612143565b6139f2565b919050613a94565b50909150815290565b90613b0591613b00613afb82613096565b613b68565b613b07565b565b90613b1191613eea565b50565b90613b1e91613aea565b565b613b28611e1a565b50613b46613b40613b3b60038490610c84565b610754565b156102f0565b613b6357600a613b5a613b609260016106fb565b01610754565b90565b505f90565b613b7a90613b74613edd565b90613fae565b565b613b84611e1a565b50613b9e613b986301ffc9a760e01b6102a3565b916102a3565b1490565b613bab81614092565b9081613bbf613bb95f611529565b9161034c565b11613bc9575b5050565b613c01613bed613be66007613be0600186906106fb565b0161072d565b84906120fd565b6007613bfb600185906106fb565b01611833565b613c19426008613c13600185906106fb565b01611833565b613c58613c467f5d1445b1e6b78e26d1cbc8034f74e25ad0e4c9a5b07b762df6be36a3be64c5fa926106ef565b92613c4f610201565b9182918261067d565b0390a25f80613bc5565b613c71613c779193929361034c565b9261034c565b8203918211613c8257565b61202d565b613c9e613ca391613c96612227565b5060016106fb565b612e87565b613d4f613d2f613d1d613d0b613cf9613ce7613cd5613cc35f89016117f1565b613ccf60208a016117f1565b906120fd565b613ce1604089016117f1565b906120fd565b613cf3606088016117f1565b906120fd565b613d05608087016117f1565b906120fd565b613d1760a086016117f1565b906120fd565b613d2960c085016117f1565b906120fd565b91613d49610160613d4260e084016117f1565b92016117f1565b906120fd565b80613d62613d5c8461034c565b9161034c565b1015613da457613d7191613c62565b80613d8b613d85613d80610ac9565b61034c565b9161034c565b115f14613d9f5750613d9b610ac9565b5b90565b613d9c565b5050613daf5f611529565b90565b613dba612227565b50613dd8613dd2613dcd60038490610c84565b610754565b156102f0565b613e2157613dee613de882613c87565b91614092565b80613e01613dfb8461034c565b9161034c565b1015613e1357613e1091613c62565b90565b5050613e1e5f611529565b90565b50613e2b5f611529565b90565b613e36611e1a565b50613e4b613e458284906136cd565b156102f0565b5f14613ed357613e726001613e6d5f613e6581869061305c565b018590610c84565b611885565b90613e7b613edd565b90613eb8613eb2613eac7f2f8788117e7eff1d82e926ec794901d17c78024a50270940304540a733656f0d95613050565b926106ef565b926106ef565b92613ec1610201565b80613ecb8161026b565b0390a4600190565b50505f90565b5f90565b613ee5613ed9565b503390565b613ef2611e1a565b50613efe8183906136cd565b5f14613f8557613f245f613f1f5f613f1781869061305c565b018590610c84565b611885565b90613f2d613edd565b90613f6a613f64613f5e7ff6391f5c32d9c69d2a47ea670b442974b53935d1edc7fd64eb21e047a839171b95613050565b926106ef565b926106ef565b92613f73610201565b80613f7d8161026b565b0390a4600190565b50505f90565b916020613fac929493613fa560408201965f83019061043a565b0190610a53565b565b90613fc3613fbd8383906136cd565b156102f0565b613fcb575050565b613fe55f92839263e2517d3f60e01b845260048401613f8b565b0390fd5b90565b614000613ffb61400592613fe9565b610639565b61034c565b90565b634e487b7160e01b5f52601260045260245ffd5b61402861402e9161034c565b9161034c565b908115614039570490565b614008565b90565b61405561405061405a9261403e565b610639565b61034c565b90565b61406c6140729193929361034c565b9261034c565b9161407e83820261034c565b92818404149015171561408d57565b61202d565b6140c86140b46140af6140da936140a7612227565b5060016106fb565b612e87565b6140c26101004292016117f1565b90613c62565b6140d462278d00613fec565b9061401c565b806140ee6140e86064614041565b9161034c565b11614109575b61410690614100610921565b9061405d565b90565b506141066141176064614041565b90506140f456fea2646970667358221220a08935f9b37f8c5309d1af619e13859065987865a6c2a88498c9e2f096d4cd2c64736f6c634300081e0033","linkReferences":{}},"methodIdentifiers":{"AADHAAR_VERIFICATION_SCORE()":"128db35a","DECAY_RATE()":"1de40e49","DEFAULT_ADMIN_ROLE()":"a217fddf","FACE_VERIFICATION_SCORE()":"c5b23e82","INCOME_VERIFICATION_BASE_SCORE()":"200b2512","INITIAL_SCORE()":"de330373","LOCK_PENALTY()":"95b4c85e","MAX_SCORE()":"27ff6223","SCORE_MANAGER_ROLE()":"95a6cd6c","getDetailedScore(address)":"2bf41e18","getRoleAdmin(bytes32)":"248a9ca3","getScoreHistory(address)":"5bed5604","getTrustScore(address)":"5e09eea1","getUsersAboveScore(uint256)":"d272f39a","getVerificationLevel(address)":"20e21535","grantRole(bytes32,address)":"2f2ff15d","hasRole(bytes32,address)":"91d14854","hasScore(address)":"578e4295","initializeUser(address)":"00be4984","isScoreLocked(address)":"eed0594c","lockScore(address,string)":"74ba3f39","renounceRole(bytes32,address)":"36568abe","revokeRole(bytes32,address)":"d547741f","scoreHistory(address,uint256)":"691845e4","scoredUsers(uint256)":"04505433","supportsInterface(bytes4)":"01ffc9a7","unlockScore(address)":"bf75d4b1","updateScore(address,int256,string)":"0cc9ec5b","userScores(address)":"1413d4c0","verificationLogger()":"e1300c88"},"id":71}