{"abi":[{"type":"constructor","inputs":[{"name":"_verificationLogger","type":"address","internalType":"address"},{"name":"_trustScore","type":"address","internalType":"address"}],"stateMutability":"nonpayable"},{"type":"function","name":"DEFAULT_ADMIN_ROLE","inputs":[],"outputs":[{"name":"","type":"bytes32","internalType":"bytes32"}],"stateMutability":"view"},{"type":"function","name":"PAUSER_ROLE","inputs":[],"outputs":[{"name":"","type":"bytes32","internalType":"bytes32"}],"stateMutability":"view"},{"type":"function","name":"REGISTRY_MANAGER_ROLE","inputs":[],"outputs":[{"name":"","type":"bytes32","internalType":"bytes32"}],"stateMutability":"view"},{"type":"function","name":"commitmentToAddress","inputs":[{"name":"","type":"bytes32","internalType":"bytes32"}],"outputs":[{"name":"","type":"address","internalType":"address"}],"stateMutability":"view"},{"type":"function","name":"deregisterIdentity","inputs":[{"name":"user","type":"address","internalType":"address"}],"outputs":[],"stateMutability":"nonpayable"},{"type":"function","name":"getIdentityCommitment","inputs":[{"name":"user","type":"address","internalType":"address"}],"outputs":[{"name":"","type":"bytes32","internalType":"bytes32"}],"stateMutability":"view"},{"type":"function","name":"getIdentityInfo","inputs":[{"name":"user","type":"address","internalType":"address"}],"outputs":[{"name":"","type":"tuple","internalType":"struct UserIdentityRegistry.Identity","components":[{"name":"identityCommitment","type":"bytes32","internalType":"bytes32"},{"name":"registeredAt","type":"uint256","internalType":"uint256"},{"name":"isActive","type":"bool","internalType":"bool"},{"name":"metadataURI","type":"string","internalType":"string"},{"name":"faceVerified","type":"bool","internalType":"bool"},{"name":"aadhaarVerified","type":"bool","internalType":"bool"},{"name":"incomeVerified","type":"bool","internalType":"bool"},{"name":"verificationLevel","type":"uint256","internalType":"uint256"},{"name":"isLocked","type":"bool","internalType":"bool"},{"name":"lockExpiry","type":"uint256","internalType":"uint256"}]}],"stateMutability":"view"},{"type":"function","name":"getRoleAdmin","inputs":[{"name":"role","type":"bytes32","internalType":"bytes32"}],"outputs":[{"name":"","type":"bytes32","internalType":"bytes32"}],"stateMutability":"view"},{"type":"function","name":"getVerificationStatus","inputs":[{"name":"user","type":"address","internalType":"address"}],"outputs":[{"name":"faceVerified","type":"bool","internalType":"bool"},{"name":"aadhaarVerified","type":"bool","internalType":"bool"},{"name":"incomeVerified","type":"bool","internalType":"bool"},{"name":"verificationLevel","type":"uint256","internalType":"uint256"}],"stateMutability":"view"},{"type":"function","name":"grantRole","inputs":[{"name":"role","type":"bytes32","internalType":"bytes32"},{"name":"account","type":"address","internalType":"address"}],"outputs":[],"stateMutability":"nonpayable"},{"type":"function","name":"hasRole","inputs":[{"name":"role","type":"bytes32","internalType":"bytes32"},{"name":"account","type":"address","internalType":"address"}],"outputs":[{"name":"","type":"bool","internalType":"bool"}],"stateMutability":"view"},{"type":"function","name":"identities","inputs":[{"name":"","type":"address","internalType":"address"}],"outputs":[{"name":"identityCommitment","type":"bytes32","internalType":"bytes32"},{"name":"registeredAt","type":"uint256","internalType":"uint256"},{"name":"isActive","type":"bool","internalType":"bool"},{"name":"metadataURI","type":"string","internalType":"string"},{"name":"faceVerified","type":"bool","internalType":"bool"},{"name":"aadhaarVerified","type":"bool","internalType":"bool"},{"name":"incomeVerified","type":"bool","internalType":"bool"},{"name":"verificationLevel","type":"uint256","internalType":"uint256"},{"name":"isLocked","type":"bool","internalType":"bool"},{"name":"lockExpiry","type":"uint256","internalType":"uint256"}],"stateMutability":"view"},{"type":"function","name":"inactiveCommitments","inputs":[{"name":"","type":"bytes32","internalType":"bytes32"}],"outputs":[{"name":"","type":"bool","internalType":"bool"}],"stateMutability":"view"},{"type":"function","name":"isCommitmentActive","inputs":[{"name":"commitment","type":"bytes32","internalType":"bytes32"}],"outputs":[{"name":"","type":"bool","internalType":"bool"}],"stateMutability":"view"},{"type":"function","name":"isCommitmentValid","inputs":[{"name":"commitment","type":"bytes32","internalType":"bytes32"},{"name":"expectedUser","type":"address","internalType":"address"}],"outputs":[{"name":"","type":"bool","internalType":"bool"}],"stateMutability":"view"},{"type":"function","name":"isIdentityLocked","inputs":[{"name":"user","type":"address","internalType":"address"}],"outputs":[{"name":"","type":"bool","internalType":"bool"}],"stateMutability":"view"},{"type":"function","name":"isIdentityLockedWithUpdate","inputs":[{"name":"user","type":"address","internalType":"address"}],"outputs":[{"name":"","type":"bool","internalType":"bool"}],"stateMutability":"nonpayable"},{"type":"function","name":"isRegistered","inputs":[{"name":"user","type":"address","internalType":"address"}],"outputs":[{"name":"","type":"bool","internalType":"bool"}],"stateMutability":"view"},{"type":"function","name":"lockIdentity","inputs":[{"name":"user","type":"address","internalType":"address"},{"name":"lockDuration","type":"uint256","internalType":"uint256"}],"outputs":[],"stateMutability":"nonpayable"},{"type":"function","name":"nullifiers","inputs":[{"name":"","type":"bytes32","internalType":"bytes32"}],"outputs":[{"name":"","type":"bool","internalType":"bool"}],"stateMutability":"view"},{"type":"function","name":"pause","inputs":[],"outputs":[],"stateMutability":"nonpayable"},{"type":"function","name":"paused","inputs":[],"outputs":[{"name":"","type":"bool","internalType":"bool"}],"stateMutability":"view"},{"type":"function","name":"registerIdentity","inputs":[{"name":"user","type":"address","internalType":"address"},{"name":"identityCommitment","type":"bytes32","internalType":"bytes32"}],"outputs":[],"stateMutability":"nonpayable"},{"type":"function","name":"renounceRole","inputs":[{"name":"role","type":"bytes32","internalType":"bytes32"},{"name":"callerConfirmation","type":"address","internalType":"address"}],"outputs":[],"stateMutability":"nonpayable"},{"type":"function","name":"revokeRole","inputs":[{"name":"role","type":"bytes32","internalType":"bytes32"},{"name":"account","type":"address","internalType":"address"}],"outputs":[],"stateMutability":"nonpayable"},{"type":"function","name":"supportsInterface","inputs":[{"name":"interfaceId","type":"bytes4","internalType":"bytes4"}],"outputs":[{"name":"","type":"bool","internalType":"bool"}],"stateMutability":"view"},{"type":"function","name":"trustScore","inputs":[],"outputs":[{"name":"","type":"address","internalType":"contract ITrustScore"}],"stateMutability":"view"},{"type":"function","name":"unlockIdentity","inputs":[{"name":"user","type":"address","internalType":"address"}],"outputs":[],"stateMutability":"nonpayable"},{"type":"function","name":"unpause","inputs":[],"outputs":[],"stateMutability":"nonpayable"},{"type":"function","name":"updateIdentityCommitment","inputs":[{"name":"user","type":"address","internalType":"address"},{"name":"newCommitment","type":"bytes32","internalType":"bytes32"}],"outputs":[],"stateMutability":"nonpayable"},{"type":"function","name":"updateVerificationStatus","inputs":[{"name":"user","type":"address","internalType":"address"},{"name":"verificationType","type":"string","internalType":"string"},{"name":"status","type":"bool","internalType":"bool"}],"outputs":[],"stateMutability":"nonpayable"},{"type":"function","name":"verificationLogger","inputs":[],"outputs":[{"name":"","type":"address","internalType":"contract IVerificationLogger"}],"stateMutability":"view"},{"type":"event","name":"CommitmentNullified","inputs":[{"name":"commitment","type":"bytes32","indexed":true,"internalType":"bytes32"}],"anonymous":false},{"type":"event","name":"IdentityDeregistered","inputs":[{"name":"user","type":"address","indexed":true,"internalType":"address"}],"anonymous":false},{"type":"event","name":"IdentityLocked","inputs":[{"name":"user","type":"address","indexed":true,"internalType":"address"},{"name":"lockExpiry","type":"uint256","indexed":false,"internalType":"uint256"}],"anonymous":false},{"type":"event","name":"IdentityRegistered","inputs":[{"name":"user","type":"address","indexed":true,"internalType":"address"},{"name":"commitment","type":"bytes32","indexed":true,"internalType":"bytes32"}],"anonymous":false},{"type":"event","name":"IdentityUnlocked","inputs":[{"name":"user","type":"address","indexed":true,"internalType":"address"}],"anonymous":false},{"type":"event","name":"IdentityUpdated","inputs":[{"name":"user","type":"address","indexed":true,"internalType":"address"},{"name":"newCommitment","type":"bytes32","indexed":false,"internalType":"bytes32"}],"anonymous":false},{"type":"event","name":"Paused","inputs":[{"name":"account","type":"address","indexed":false,"internalType":"address"}],"anonymous":false},{"type":"event","name":"RoleAdminChanged","inputs":[{"name":"role","type":"bytes32","indexed":true,"internalType":"bytes32"},{"name":"previousAdminRole","type":"bytes32","indexed":true,"internalType":"bytes32"},{"name":"newAdminRole","type":"bytes32","indexed":true,"internalType":"bytes32"}],"anonymous":false},{"type":"event","name":"RoleGranted","inputs":[{"name":"role","type":"bytes32","indexed":true,"internalType":"bytes32"},{"name":"account","type":"address","indexed":true,"internalType":"address"},{"name":"sender","type":"address","indexed":true,"internalType":"address"}],"anonymous":false},{"type":"event","name":"RoleRevoked","inputs":[{"name":"role","type":"bytes32","indexed":true,"internalType":"bytes32"},{"name":"account","type":"address","indexed":true,"internalType":"address"},{"name":"sender","type":"address","indexed":true,"internalType":"address"}],"anonymous":false},{"type":"event","name":"Unpaused","inputs":[{"name":"account","type":"address","indexed":false,"internalType":"address"}],"anonymous":false},{"type":"event","name":"VerificationStatusUpdated","inputs":[{"name":"user","type":"address","indexed":true,"internalType":"address"},{"name":"verificationType","type":"string","indexed":false,"internalType":"string"},{"name":"status","type":"bool","indexed":false,"internalType":"bool"}],"anonymous":false},{"type":"error","name":"AccessControlBadConfirmation","inputs":[]},{"type":"error","name":"AccessControlUnauthorizedAccount","inputs":[{"name":"account","type":"address","internalType":"address"},{"name":"neededRole","type":"bytes32","internalType":"bytes32"}]},{"type":"error","name":"EnforcedPause","inputs":[]},{"type":"error","name":"ExpectedPause","inputs":[]},{"type":"error","name":"ReentrancyGuardReentrantCall","inputs":[]}],"bytecode":{"object":"0x6080604052346100305761001a610014610104565b90610269565b610022610035565b613dcb6105298239613dcb90f35b61003b565b60405190565b5f80fd5b601f801991011690565b634e487b7160e01b5f52604160045260245ffd5b906100679061003f565b810190811060018060401b0382111761007f57604052565b610049565b90610097610090610035565b928361005d565b565b5f80fd5b60018060a01b031690565b6100b19061009d565b90565b6100bd816100a8565b036100c457565b5f80fd5b905051906100d5826100b4565b565b91906040838203126100ff57806100f36100fc925f86016100c8565b936020016100c8565b90565b610099565b6101226142f48038038061011781610084565b9283398101906100d7565b9091565b90565b90565b5f1b90565b61014561014061014a92610126565b61012c565b610129565b90565b6101565f610131565b90565b7ff7a450ef335e1892cb42c8ca72e7242359d7711924b75db5717410da3f614aa390565b7f65d7a28e3265b37a6474929f336521b332c1681b933f6cb9f3376673440d862a90565b90565b6101b86101b36101bd9261009d565b6101a1565b61009d565b90565b6101c9906101a4565b90565b6101d5906101c0565b90565b906101e960018060a01b039161012c565b9181191691161790565b6101fc906101c0565b90565b90565b9061021761021261021e926101f3565b6101ff565b82546101d8565b9055565b61022b906101a4565b90565b61023790610222565b90565b61024390610222565b90565b90565b9061025e6102596102659261023a565b610246565b82546101d8565b9055565b6102d0916102c46102bd6102c99361027f6102d2565b61029161028a61014d565b3390610417565b506102a461029d610159565b3390610417565b506102b76102b061017d565b3390610417565b506101cc565b6007610202565b61022e565b6008610249565b565b6102da610360565b565b90565b90565b6102f66102f16102fb926102dc565b6101a1565b6102df565b90565b61030860016102e2565b90565b906103175f199161012c565b9181191691161790565b61033561033061033a926102df565b6101a1565b6102df565b90565b90565b9061035561035061035c92610321565b61033d565b825461030b565b9055565b61037261036b6102fe565b6001610340565b565b5f90565b151590565b61038690610129565b90565b906103939061037d565b5f5260205260405f2090565b6103a8906101a4565b90565b6103b49061039f565b90565b906103c1906103ab565b5f5260205260405f2090565b906103d960ff9161012c565b9181191691161790565b6103ec90610378565b90565b90565b9061040761040261040e926103e3565b6103ef565b82546103cd565b9055565b5f0190565b61041f610374565b5061043461042e8284906104ee565b15610378565b5f146104bc5761045b60016104565f61044e818690610389565b0185906103b7565b6103f2565b9061046461051b565b906104a161049b6104957f2f8788117e7eff1d82e926ec794901d17c78024a50270940304540a733656f0d9561037d565b926103ab565b926103ab565b926104aa610035565b806104b481610412565b0390a4600190565b50505f90565b5f1c90565b60ff1690565b6104d96104de916104c2565b6104c7565b90565b6104eb90546104cd565b90565b610514915f61050961050f93610502610374565b5082610389565b016103b7565b6104e1565b90565b5f90565b610523610517565b50339056fe60806040526004361015610013575b6113aa565b61001d5f3561021c565b806301ffc9a71461021757806305e90792146102125780631ac505a11461020d578063248a9ca3146102085780632997e86b146102035780632f2ff15d146101fe5780633078d998146101f957806336568abe146101f45780633f4ba83a146101ef5780634ccea8c8146101ea5780635688eb89146101e55780635c975abb146101e05780636103681a146101db57806376af06a9146101d65780637d54b5fb146101d157806381b764fb146101cc5780638456cb59146101c757806391d14854146101c2578063a217fddf146101bd578063a6c708a7146101b8578063bd8fde1c146101b3578063c3c5a547146101ae578063d547741f146101a9578063d7478cfc146101a4578063db2c88b61461019f578063df551ce81461019a578063e1300c8814610195578063e2706d0714610190578063e2b104ec1461018b578063e63ab1e914610186578063edf3a8e0146101815763f653b81e0361000e57611368565b610ff0565b610fbb565b610f57565b610f23565b610ec1565b610e1f565b610c93565b610c5f565b610bdb565b610ba6565b610b71565b610b0d565b610ad8565b610a67565b610a34565b6109ff565b610879565b610844565b610789565b610706565b6106d1565b610685565b610652565b61061e565b6105e9565b61050d565b6104d3565b610433565b6103e0565b61036a565b6102a8565b60e01c90565b60405190565b5f80fd5b5f80fd5b5f80fd5b63ffffffff60e01b1690565b61024981610234565b0361025057565b5f80fd5b9050359061026182610240565b565b9060208282031261027c57610279915f01610254565b90565b61022c565b151590565b61028f90610281565b9052565b91906102a6905f60208501940190610286565b565b346102d8576102d46102c36102be366004610263565b6113b2565b6102cb610222565b91829182610293565b0390f35b610228565b90565b6102e9816102dd565b036102f057565b5f80fd5b90503590610301826102e0565b565b60018060a01b031690565b61031790610303565b90565b6103238161030e565b0361032a57565b5f80fd5b9050359061033b8261031a565b565b91906040838203126103655780610359610362925f86016102f4565b9360200161032e565b90565b61022c565b3461039b5761039761038661038036600461033d565b90611413565b61038e610222565b91829182610293565b0390f35b610228565b906020828203126103b9576103b6915f0161032e565b90565b61022c565b6103c7906102dd565b9052565b91906103de905f602085019401906103be565b565b346104105761040c6103fb6103f63660046103a0565b61156a565b610403610222565b918291826103cb565b0390f35b610228565b9060208282031261042e5761042b915f016102f4565b90565b61022c565b346104635761045f61044e610449366004610415565b6115c0565b610456610222565b918291826103cb565b0390f35b610228565b610471906102dd565b90565b9061047e90610468565b5f5260205260405f2090565b1c90565b60ff1690565b6104a49060086104a9930261048a565b61048e565b90565b906104b79154610494565b90565b6104d0906104cb6004915f92610474565b6104ac565b90565b34610503576104ff6104ee6104e9366004610415565b6104ba565b6104f6610222565b91829182610293565b0390f35b610228565b5f0190565b3461053c5761052661052036600461033d565b9061160b565b61052e610222565b8061053881610508565b0390f35b610228565b5f91031261054b57565b61022c565b60018060a01b031690565b61056b906008610570930261048a565b610550565b90565b9061057e915461055b565b90565b61058d60085f90610573565b90565b90565b6105a76105a26105ac92610303565b610590565b610303565b90565b6105b890610593565b90565b6105c4906105af565b90565b6105d0906105bb565b9052565b91906105e7905f602085019401906105c7565b565b34610619576105f9366004610541565b610615610604610581565b61060c610222565b918291826105d4565b0390f35b610228565b3461064d5761063761063136600461033d565b90611617565b61063f610222565b8061064981610508565b0390f35b610228565b3461068057610662366004610541565b61066a611683565b610672610222565b8061067c81610508565b0390f35b610228565b346106b35761069d6106983660046103a0565b6119ed565b6106a5610222565b806106af81610508565b0390f35b610228565b6106ce906106c96006915f92610474565b6104ac565b90565b34610701576106fd6106ec6106e7366004610415565b6106b8565b6106f4610222565b91829182610293565b0390f35b610228565b3461073657610716366004610541565b6107326107216119f8565b610729610222565b91829182610293565b0390f35b610228565b90565b6107479061073b565b9052565b6107806107879461077660609498979561076c608086019a5f870190610286565b6020850190610286565b6040830190610286565b019061073e565b565b346107bd576107b96107a461079f3660046103a0565b611b6e565b906107b0949294610222565b9485948561074b565b0390f35b610228565b906107cc90610468565b5f5260205260405f2090565b60018060a01b031690565b6107f39060086107f8930261048a565b6107d8565b90565b9061080691546107e3565b90565b61081f9061081a6005915f926107c2565b6107fb565b90565b61082b9061030e565b9052565b9190610842905f60208501940190610822565b565b346108745761087061085f61085a366004610415565b610809565b610867610222565b9182918261082f565b0390f35b610228565b346108a75761089161088c3660046103a0565b611e61565b610899610222565b806108a381610508565b0390f35b610228565b6108b5906102dd565b9052565b6108c29061073b565b9052565b6108cf90610281565b9052565b5190565b60209181520190565b90825f9392825e0152565b601f801991011690565b61091461091d6020936109229361090b816108d3565b938480936108d7565b958691016108e0565b6108eb565b0190565b906109e4906101208061097d61014084016109475f8801515f8701906108ac565b610959602088015160208701906108b9565b61096b604088015160408701906108c6565b606087015185820360608701526108f5565b94610990608082015160808601906108c6565b6109a260a082015160a08601906108c6565b6109b460c082015160c08601906108c6565b6109c660e082015160e08601906108b9565b6109da6101008201516101008601906108c6565b01519101906108b9565b90565b6109fc9160208201915f818403910152610926565b90565b34610a2f57610a2b610a1a610a153660046103a0565b611f0e565b610a22610222565b918291826109e7565b0390f35b610228565b34610a6257610a44366004610541565b610a4c611f51565b610a54610222565b80610a5e81610508565b0390f35b610228565b34610a9857610a94610a83610a7d36600461033d565b90611f71565b610a8b610222565b91829182610293565b0390f35b610228565b90565b5f1b90565b610ab9610ab4610abe92610a9d565b610aa0565b6102dd565b90565b610aca5f610aa5565b90565b610ad5610ac1565b90565b34610b0857610ae8366004610541565b610b04610af3610acd565b610afb610222565b918291826103cb565b0390f35b610228565b34610b3d57610b39610b28610b233660046103a0565b612036565b610b30610222565b91829182610293565b0390f35b610228565b7ff7a450ef335e1892cb42c8ca72e7242359d7711924b75db5717410da3f614aa390565b610b6e610b42565b90565b34610ba157610b81366004610541565b610b9d610b8c610b66565b610b94610222565b918291826103cb565b0390f35b610228565b34610bd657610bd2610bc1610bbc3660046103a0565b6121e6565b610bc9610222565b91829182610293565b0390f35b610228565b34610c0a57610bf4610bee36600461033d565b90612232565b610bfc610222565b80610c0681610508565b0390f35b610228565b610c188161073b565b03610c1f57565b5f80fd5b90503590610c3082610c0f565b565b9190604083820312610c5a5780610c4e610c57925f860161032e565b93602001610c23565b90565b61022c565b34610c8e57610c78610c72366004610c32565b90612490565b610c80610222565b80610c8a81610508565b0390f35b610228565b34610cc357610cbf610cae610ca9366004610415565b61249c565b610cb6610222565b91829182610293565b0390f35b610228565b5f80fd5b5f80fd5b634e487b7160e01b5f52604160045260245ffd5b90610cee906108eb565b810190811067ffffffffffffffff821117610d0857604052565b610cd0565b90610d20610d19610222565b9283610ce4565b565b67ffffffffffffffff8111610d4057610d3c6020916108eb565b0190565b610cd0565b90825f939282370152565b90929192610d65610d6082610d22565b610d0d565b93818552602085019082840111610d8157610d7f92610d45565b565b610ccc565b9080601f83011215610da457816020610da193359101610d50565b90565b610cc8565b610db281610281565b03610db957565b5f80fd5b90503590610dca82610da9565b565b9091606082840312610e1a57610de4835f840161032e565b9260208301359067ffffffffffffffff8211610e1557610e0981610e12938601610d86565b93604001610dbd565b90565b610230565b61022c565b34610e4e57610e38610e32366004610dcc565b91612b1b565b610e40610222565b80610e4a81610508565b0390f35b610228565b60018060a01b031690565b610e6e906008610e73930261048a565b610e53565b90565b90610e819154610e5e565b90565b610e9060075f90610e76565b90565b610e9c906105af565b90565b610ea890610e93565b9052565b9190610ebf905f60208501940190610e9f565b565b34610ef157610ed1366004610541565b610eed610edc610e84565b610ee4610222565b91829182610eac565b0390f35b610228565b9190604083820312610f1e5780610f12610f1b925f860161032e565b936020016102f4565b90565b61022c565b34610f5257610f3c610f36366004610ef6565b9061358c565b610f44610222565b80610f4e81610508565b0390f35b610228565b34610f8757610f83610f72610f6d3660046103a0565b613598565b610f7a610222565b91829182610293565b0390f35b610228565b7f65d7a28e3265b37a6474929f336521b332c1681b933f6cb9f3376673440d862a90565b610fb8610f8c565b90565b34610feb57610fcb366004610541565b610fe7610fd6610fb0565b610fde610222565b918291826103cb565b0390f35b610228565b3461101f57611009611003366004610ef6565b906139e0565b611011610222565b8061101b81610508565b0390f35b610228565b61102d906105af565b90565b9061103a90611024565b5f5260205260405f2090565b5f1c90565b90565b61105a61105f91611046565b61104b565b90565b61106c905461104e565b90565b90565b61107e61108391611046565b61106f565b90565b6110909054611072565b90565b61109f6110a491611046565b61048e565b90565b6110b19054611093565b90565b634e487b7160e01b5f52602260045260245ffd5b90600160028304921680156110e8575b60208310146110e357565b6110b4565b91607f16916110d8565b5f5260205f2090565b905f929180549061111561110e836110c8565b80946108d7565b916001811690815f1461116c5750600114611130575b505050565b61113d91929394506110f2565b915f925b81841061115457505001905f808061112b565b60018160209295939554848601520191019290611141565b92949550505060ff19168252151560200201905f808061112b565b90611191916110fb565b90565b906111b46111ad926111a4610222565b93848092611187565b0383610ce4565b565b60081c90565b6111c86111cd916111b6565b61048e565b90565b6111da90546111bc565b90565b60101c90565b6111ef6111f4916111dd565b61048e565b90565b61120190546111e3565b90565b61120f906003611030565b9061121b5f8301611062565b9161122860018201611086565b91611235600283016110a7565b9161124260038201611194565b9161124f600483016110a7565b9161125c600482016111d0565b91611269600483016111f7565b9161127660058201611086565b9161128f6007611288600685016110a7565b9301611086565b90565b60209181520190565b6112ba6112c36020936112c8936112b1816108d3565b93848093611292565b958691016108e0565b6108eb565b0190565b95966113406101209861133661132b61135f999f9e9c96956113669e9961131d6113549a60408f61131661134a9c61130c6101408401985f8501906103be565b602083019061073e565b0190610286565b8c606081840391015261129b565b9e60808b0190610286565b60a0890190610286565b60c0870190610286565b60e085019061073e565b610100830190610286565b019061073e565b565b346113a5576113a161138361137e3660046103a0565b611204565b966113989a989a969196959295949394610222565b9a8b9a8b6112cc565b0390f35b610228565b5f80fd5b5f90565b6113ba6113ae565b50806113d56113cf637965db0b60e01b610234565b91610234565b149081156113e2575b5090565b6113ec91506139ec565b5f6113de565b6113fe61140391611046565b6107d8565b90565b61141090546113f2565b90565b61141b6113ae565b5061143061142b60048390610474565b6110a7565b806114c1575b9081611493575b5080611476575b908161144f575b5090565b6114709150600661146461146a926003611030565b016110a7565b15610281565b5f61144b565b5061148e600261148860038490611030565b016110a7565b611444565b6114a891506114a39060056107c2565b611406565b6114ba6114b48361030e565b9161030e565b145f61143d565b506114df6114d96114d460068490610474565b6110a7565b15610281565b611436565b5f90565b5f7f4964656e74697479206e6f742072656769737465726564000000000000000000910152565b61151c6017602092611292565b611525816114e8565b0190565b61153e9060208101905f81830391015261150f565b90565b1561154857565b611550610222565b62461bcd60e51b81528061156660048201611529565b0390fd5b5f6115a16115a79261157a6114e4565b5061159a611595600261158f60038590611030565b016110a7565b611541565b6003611030565b01611062565b90565b906115b490610468565b5f5260205260405f2090565b60016115d86115de926115d16114e4565b505f6115aa565b01611062565b90565b906115fc916115f76115f2826115c0565b613a12565b6115fe565b565b9061160891613a26565b50565b90611615916115e1565b565b908061163261162c611627613ad1565b61030e565b9161030e565b036116435761164091613ade565b50565b5f63334bd91960e11b81528061165b60048201610508565b0390fd5b61166f61166a610f8c565b613a12565b611677611679565b565b611681613bdf565b565b61168b61165f565b565b6116a6906116a161169c610b42565b613a12565b61189e565b565b5f7f4964656e74697479206e6f74206c6f636b656400000000000000000000000000910152565b6116dc6013602092611292565b6116e5816116a8565b0190565b6116fe9060208101905f8183039101526116cf565b90565b1561170857565b611710610222565b62461bcd60e51b815280611726600482016116e9565b0390fd5b9061173660ff91610aa0565b9181191691161790565b61174990610281565b90565b90565b9061176461175f61176b92611740565b61174c565b825461172a565b9055565b61178361177e61178892610a9d565b610590565b61073b565b90565b906117975f1991610aa0565b9181191691161790565b6117b56117b06117ba9261073b565b610590565b61073b565b90565b90565b906117d56117d06117dc926117a1565b6117bd565b825461178b565b9055565b6117ec6117f191611046565b610e53565b90565b6117fe90546117e0565b90565b5f80fd5b60e01b90565b5f91031261181557565b61022c565b5f7f4944454e544954595f554e4c4f434b4544000000000000000000000000000000910152565b61184e6011602092611292565b6118578161181a565b0190565b91604061188c92949361188561187a606083018381035f850152611841565b966020830190610822565b01906103be565b565b611896610222565b3d5f823e3d90fd5b6118bd6118b860026118b260038590611030565b016110a7565b611541565b6118dc6118d760066118d160038590611030565b016110a7565b611701565b6118f45f60066118ee60038590611030565b0161174f565b6119146119005f61176f565b600761190e60038590611030565b016117c0565b61192661192160076117f4565b610e93565b635260590a826119355f610aa5565b92803b156119e85761195a5f809461196561194e610222565b97889687958694611805565b84526004840161185b565b03925af180156119e3576119b7575b5061199f7fa46e5937e211b7bac9ae8fcc6c32bac10a9eee874bf68d4c98e9f9dac306646d91611024565b906119a8610222565b806119b281610508565b0390a2565b6119d6905f3d81116119dc575b6119ce8183610ce4565b81019061180b565b5f611974565b503d6119c4565b61188e565b611801565b6119f69061168d565b565b611a006113ae565b50611a0b60026110a7565b90565b5f90565b90611a1c906102dd565b9052565b90611a2a9061073b565b9052565b90611a3890610281565b9052565b52565b611a4a610140610d0d565b90565b90611b46611b3c6007611a5e611a3f565b94611a75611a6d5f8301611062565b5f8801611a12565b611a8d611a8460018301611086565b60208801611a20565b611aa5611a9c600283016110a7565b60408801611a2e565b611abd611ab460038301611194565b60608801611a3c565b611ad5611acc600483016110a7565b60808801611a2e565b611aed611ae4600483016111d0565b60a08801611a2e565b611b05611afc600483016111f7565b60c08801611a2e565b611b1d611b1460058301611086565b60e08801611a20565b611b36611b2c600683016110a7565b6101008801611a2e565b01611086565b6101208401611a20565b565b611b5190611a4d565b90565b611b5e9051610281565b90565b611b6b905161073b565b90565b611ba0611ba591611b7d6113ae565b50611b866113ae565b50611b8f6113ae565b50611b98611a0e565b506003611030565b611b48565b611bb160808201611b54565b611bbd60a08301611b54565b92611bd660e0611bcf60c08601611b54565b9401611b61565b9193929190565b611bf690611bf1611bec610b42565b613a12565b611cd7565b565b1b90565b91906008611c1c910291611c1660018060a01b0384611bf8565b92611bf8565b9181191691161790565b90565b9190611c3f611c3a611c4793611024565b611c26565b908354611bfc565b9055565b5f90565b611c6191611c5b611c4b565b91611c29565b565b5f7f4944454e544954595f4445524547495354455245440000000000000000000000910152565b611c976015602092611292565b611ca081611c63565b0190565b916040611cd5929493611cce611cc3606083018381035f850152611c8a565b966020830190610822565b01906103be565b565b611cf6611cf16002611ceb60038590611030565b016110a7565b611541565b611d0c5f611d0660038490611030565b01611062565b90611d255f6002611d1f60038590611030565b0161174f565b611d3b6001611d3660068590610474565b61174f565b611d505f611d4b600585906107c2565b611c4f565b611d62611d5d60076117f4565b610e93565b635260590a828492803b15611e5c57611d8e5f8094611d99611d82610222565b97889687958694611805565b845260048401611ca4565b03925af18015611e5757611e2b575b50611dd37fa8f8ce8f205a4a232dac631565adf3848124924d6ee91770555f8ec8b19175d091611024565b90611ddc610222565b80611de681610508565b0390a2611e137f54bb099253cb7fbcc66cc9a7d88ee3cbf8a08fecdc093811d6388347fa50767f91610468565b90611e1c610222565b80611e2681610508565b0390a2565b611e4a905f3d8111611e50575b611e428183610ce4565b81019061180b565b5f611da8565b503d611e38565b61188e565b611801565b611e6a90611bdd565b565b5f90565b5f90565b5f90565b606090565b611e85611a3f565b9060208080808080808080808b611e9a611e6c565b815201611ea5611e70565b815201611eb0611e74565b815201611ebb611e78565b815201611ec6611e74565b815201611ed1611e74565b815201611edc611e74565b815201611ee7611e70565b815201611ef2611e74565b815201611efd611e70565b81525050565b611f0b611e7d565b90565b611f25611f2a91611f1d611f03565b506003611030565b611b48565b90565b611f3d611f38610f8c565b613a12565b611f45611f47565b565b611f4f613c4a565b565b611f59611f2d565b565b90611f6590611024565b5f5260205260405f2090565b611f97915f611f8c611f9293611f856113ae565b50826115aa565b01611f5b565b6110a7565b90565b611fae611fa9611fb392610a9d565b610590565b610303565b90565b611fbf90611f9a565b90565b5f7f4944454e544954595f4155544f5f554e4c4f434b454400000000000000000000910152565b611ff66016602092611292565b611fff81611fc2565b0190565b91604061203492949361202d612022606083018381035f850152611fe9565b966020830190610822565b01906103be565b565b61203e6113ae565b5061205f612059600661205360038590611030565b016110a7565b15610281565b6121e1574261208c612086612081600761207b60038790611030565b01611086565b61073b565b9161073b565b116120975750600190565b6120af5f60066120a960038590611030565b0161174f565b6120cf6120bb5f61176f565b60076120c960038590611030565b016117c0565b6120e16120dc60076117f4565b610e93565b6120fb6120f56120f05f611fb6565b61030e565b9161030e565b03612145575b61212b7fa46e5937e211b7bac9ae8fcc6c32bac10a9eee874bf68d4c98e9f9dac306646d91611024565b90612134610222565b8061213e81610508565b0390a25f90565b61215761215260076117f4565b610e93565b635260590a826121665f610aa5565b92803b156121dc5761218b5f809461219661217f610222565b97889687958694611805565b845260048401612003565b03925af180156121d7576121ab575b50612101565b6121ca905f3d81116121d0575b6121c28183610ce4565b81019061180b565b5f6121a5565b503d6121b8565b61188e565b611801565b505f90565b60026121ff612205926121f76113ae565b506003611030565b016110a7565b90565b906122239161221e612219826115c0565b613a12565b612225565b565b9061222f91613ade565b50565b9061223c91612208565b565b906122589161225361224e610b42565b613a12565b612338565b565b634e487b7160e01b5f52601160045260245ffd5b61227d6122839193929361073b565b9261073b565b820180921161228e57565b61225a565b6122a76122a26122ac9261073b565b610aa0565b6102dd565b90565b5f7f4944454e544954595f4c4f434b45440000000000000000000000000000000000910152565b6122e3600f602092611292565b6122ec816122af565b0190565b91604061232192949361231a61230f606083018381035f8501526122d6565b966020830190610822565b01906103be565b565b9190612336905f6020850194019061073e565b565b90612358612353600261234d60038690611030565b016110a7565b611541565b6123716001600661236b60038690611030565b0161174f565b61239361237f42839061226e565b600761238d60038690611030565b016117c0565b6123a56123a060076117f4565b610e93565b90635260590a906123bf6123ba85924261226e565b612293565b92803b1561248b576123e45f80946123ef6123d8610222565b97889687958694611805565b8452600484016122f0565b03925af180156124865761245a575b50612415600761240f836003611030565b01611086565b906124556124437f449f3b954cfa857257853f07e59a401c1156453483754ad85f78bb6e0590bb2f92611024565b9261244c610222565b91829182612323565b0390a2565b612479905f3d811161247f575b6124718183610ce4565b81019061180b565b5f6123fe565b503d612467565b61188e565b611801565b9061249a9161223e565b565b6124a46113ae565b506124b96124b460048390610474565b6110a7565b80612501575b90816124ca575b5090565b6124df91506124da9060056107c2565b611406565b6124f96124f36124ee5f611fb6565b61030e565b9161030e565b14155f6124c6565b5061251f61251961251460068490610474565b6110a7565b15610281565b6124bf565b9061253f929161253a612535610b42565b613a12565b612795565b565b90565b60200190565b5190565b5f7f496e76616c696420766572696669636174696f6e207479706500000000000000910152565b6125826019602092611292565b61258b8161254e565b0190565b6125a49060208101905f818303910152612575565b90565b60101b90565b906125bb62ff0000916125a7565b9181191691161790565b906125da6125d56125e192611740565b61174c565b82546125ad565b9055565b60081b90565b906125f861ff00916125e5565b9181191691161790565b9061261761261261261e92611740565b61174c565b82546125eb565b9055565b90565b61263961263461263e92612622565b610590565b61073b565b90565b90565b61265861265361265d92612641565b610590565b61073b565b90565b90565b61267761267261267c92612660565b610590565b61073b565b90565b905090565b6126a96126a092602092612697816108d3565b9485809361267f565b938491016108e0565b0190565b60f81b90565b6126bc906126ad565b90565b6126c8906126b3565b90565b6126d76126dc91610281565b6126bf565b9052565b6126f06126f79160019493612684565b80926126cb565b0190565b5f7f564552494649434154494f4e5f5354415455535f555044415445440000000000910152565b61272f601b602092611292565b612738816126fb565b0190565b91604061276d92949361276661275b606083018381035f850152612722565b966020830190610822565b01906103be565b565b9291602061278b6127939360408701908782035f89015261129b565b940190610286565b565b6127b46127af60026127a960038590611030565b016110a7565b611541565b6127bd82612541565b6127cf6127c98261254a565b91612544565b20806128036127fd7fa8e4bb025a73646cfe06345cbc34c0107d847f298881ca88e581f4f51a60e1f16102dd565b916102dd565b145f14612a4a575061282383600461281d60038590611030565b0161174f565b5b61282d5f61176f565b612844600461283e60038590611030565b016110a7565b612a3a575b612860600461285a60038590611030565b016110a7565b80612a1d575b612a0d575b612882600461287c60038590611030565b016110a7565b806129f0575b806129d3575b6129be575b6128ab9060056128a560038590611030565b016117c0565b6128bd6128b860076117f4565b610e93565b635260590a82846128ef87916128e06128d4610222565b938492602084016126e0565b60208201810382520382610ce4565b6129016128fb8261254a565b91612544565b2092803b156129b9576129275f809461293261291b610222565b97889687958694611805565b84526004840161273c565b03925af180156129b457612988575b50909161296e7f0644d640f5ed42d24896c838f80e7f2f63892f016fc08ec4b02da583a116cab192611024565b9261298361297a610222565b9283928361276f565b0390a2565b6129a7905f3d81116129ad575b61299f8183610ce4565b81019061180b565b5f612941565b503d612995565b61188e565b611801565b506128ab6129cc6003612663565b9050612893565b506129eb60046129e560038590611030565b016111f7565b61288e565b50612a086004612a0260038590611030565b016111d0565b612888565b50612a186002612644565b61286b565b50612a356004612a2f60038590611030565b016111d0565b612866565b50612a456001612625565b612849565b80612a7d612a777f95095a9df79227e103feeabb34a75afe55d6bd73b25bc2e9ab9cd614391254096102dd565b916102dd565b145f14612aa35750612a9d836004612a9760038590611030565b01612602565b5b612824565b612ad5612acf7ff0f404ee83c97c0a22012fc6b409dedf5da9ea34aae8de51b4c007c926a4a35f6102dd565b916102dd565b145f14612af957612af4836004612aee60038590611030565b016125c5565b612a9e565b612b01610222565b62461bcd60e51b815280612b176004820161258f565b0390fd5b90612b269291612524565b565b90612b4291612b3d612b38610b42565b613a12565b612b44565b565b90612b5691612b51613c61565b612b60565b612b5e613cc6565b565b90612b7291612b6d613cda565b613253565b565b5f7f496e76616c696420757365722061646472657373000000000000000000000000910152565b612ba86014602092611292565b612bb181612b74565b0190565b612bca9060208101905f818303910152612b9b565b90565b15612bd457565b612bdc610222565b62461bcd60e51b815280612bf260048201612bb5565b0390fd5b5f7f496e76616c696420636f6d6d69746d656e740000000000000000000000000000910152565b612c2a6012602092611292565b612c3381612bf6565b0190565b612c4c9060208101905f818303910152612c1d565b90565b15612c5657565b612c5e610222565b62461bcd60e51b815280612c7460048201612c37565b0390fd5b5f7f4964656e7469747920616c726561647920726567697374657265640000000000910152565b612cac601b602092611292565b612cb581612c78565b0190565b612cce9060208101905f818303910152612c9f565b90565b15612cd857565b612ce0610222565b62461bcd60e51b815280612cf660048201612cb9565b0390fd5b5f7f436f6d6d69746d656e7420616c72656164792075736564000000000000000000910152565b612d2e6017602092611292565b612d3781612cfa565b0190565b612d509060208101905f818303910152612d21565b90565b15612d5a57565b612d62610222565b62461bcd60e51b815280612d7860048201612d3b565b0390fd5b60207f6965640000000000000000000000000000000000000000000000000000000000917f436f6d6d69746d656e74207761732070726576696f75736c79206e756c6c69665f8201520152565b612dd66023604092611292565b612ddf81612d7c565b0190565b612df89060208101905f818303910152612dc9565b90565b15612e0257565b612e0a610222565b62461bcd60e51b815280612e2060048201612de3565b0390fd5b612e2f610140610d0d565b90565b90612e44612e3f83610d22565b610d0d565b918252565b612e525f612e32565b90565b612e5d612e49565b90565b612e6a90516102dd565b90565b612e7690611046565b90565b90612e8e612e89612e9592610468565b612e6d565b825461178b565b9055565b5190565b601f602091010490565b91906008612ec2910291612ebc5f1984611bf8565b92611bf8565b9181191691161790565b9190612ee2612edd612eea936117a1565b6117bd565b908354612ea7565b9055565b612f0091612efa611a0e565b91612ecc565b565b5b818110612f0e575050565b80612f1b5f600193612eee565b01612f03565b9190601f8111612f31575b505050565b612f3d612f62936110f2565b906020612f4984612e9d565b83019310612f6a575b612f5b90612e9d565b0190612f02565b5f8080612f2c565b9150612f5b81929050612f52565b90612f88905f199060080261048a565b191690565b81612f9791612f78565b906002021790565b90612fa9816108d3565b9067ffffffffffffffff821161306957612fcd82612fc785546110c8565b85612f21565b602090601f831160011461300157918091612ff0935f92612ff5575b5050612f8d565b90555b565b90915001515f80612fe9565b601f19831691613010856110f2565b925f5b81811061305157509160029391856001969410613037575b50505002019055612ff3565b613047910151601f841690612f78565b90555f808061302b565b91936020600181928787015181550195019201613013565b610cd0565b9061307891612f9f565b565b9061316f61012060076131759461309e5f82016130985f8801612e60565b90612e79565b6130b7600182016130b160208801611b61565b906117c0565b6130d0600282016130ca60408801611b54565b9061174f565b6130e9600382016130e360608801612e99565b9061306e565b613102600482016130fc60808801611b54565b9061174f565b61311b6004820161311560a08801611b54565b90612602565b6131346004820161312e60c08801611b54565b906125c5565b61314d6005820161314760e08801611b61565b906117c0565b613167600682016131616101008801611b54565b9061174f565b019201611b61565b906117c0565b565b906131819161307a565b565b9061319460018060a01b0391610aa0565b9181191691161790565b906131b36131ae6131ba92611024565b611c26565b8254613183565b9055565b6131ca6131cf91611046565b610550565b90565b6131dc90546131be565b90565b5f7f4944454e544954595f5245474953544552454400000000000000000000000000910152565b6132136013602092611292565b61321c816131df565b0190565b91604061325192949361324a61323f606083018381035f850152613206565b966020830190610822565b01906103be565b565b805f61325e90611fb6565b6132679061030e565b906132719061030e565b141561327c90612bcd565b815f61328790610aa5565b613290906102dd565b9061329a906102dd565b14156132a590612c4f565b6003816132b191611030565b6002016132bd906110a7565b156132c790610281565b6132d090612cd1565b6004826132dc91610474565b6132e5906110a7565b156132ef90610281565b6132f890612d53565b60068261330491610474565b61330d906110a7565b1561331790610281565b61332090612dfb565b814260015f5f5f905f925f945f96613336612e24565b985f8a019061334491611a12565b602089019061335291611a20565b604088019061336091611a2e565b613368612e55565b606088019061337691611a3c565b608087019061338491611a2e565b60a086019061339291611a2e565b60c08501906133a091611a2e565b6133a99061176f565b60e08401906133b791611a20565b6101008301906133c691611a2e565b6133cf9061176f565b6101208201906133de91611a20565b6003826133ea91611030565b906133f491613177565b600160048361340291610474565b9061340c9161174f565b80600583613419916107c2565b906134239161319e565b61342d60086131d2565b613436906105bb565b62be498482823b156135875761346b926134605f8094613454610222565b96879586948593611805565b83526004830161082f565b03925af1801561358257613556575b5061348d61348860076117f4565b610e93565b635260590a828492803b15613551576134b95f80946134c46134ad610222565b97889687958694611805565b845260048401613220565b03925af1801561354c57613520575b50906135086135027f209ae2eb4ff1890ce972a80ec3e167b52d41ab089135cc6430447b1430e824be93611024565b91610468565b91613511610222565b8061351b81610508565b0390a3565b61353f905f3d8111613545575b6135378183610ce4565b81019061180b565b5f6134d3565b503d61352d565b61188e565b611801565b613575905f3d811161357b575b61356d8183610ce4565b81019061180b565b5f61347a565b503d613563565b61188e565b611801565b9061359691612b28565b565b6135a06113ae565b506135c16135bb60066135b560038590611030565b016110a7565b15610281565b6135fb576135ed6135e76135e260076135dc42956003611030565b01611086565b61073b565b9161073b565b116135f757600190565b5f90565b505f90565b9061361a91613615613610610b42565b613a12565b6137ba565b565b5f7f4e657720636f6d6d69746d656e7420616c726561647920757365640000000000910152565b613650601b602092611292565b6136598161361c565b0190565b6136729060208101905f818303910152613643565b90565b1561367c57565b613684610222565b62461bcd60e51b81528061369a6004820161365d565b0390fd5b60207f6c6c696669656400000000000000000000000000000000000000000000000000917f4e657720636f6d6d69746d656e74207761732070726576696f75736c79206e755f8201520152565b6136f86027604092611292565b6137018161369e565b0190565b61371a9060208101905f8183039101526136eb565b90565b1561372457565b61372c610222565b62461bcd60e51b81528061374260048201613705565b0390fd5b5f7f4944454e544954595f5550444154454400000000000000000000000000000000910152565b61377a6010602092611292565b61378381613746565b0190565b9160406137b89294936137b16137a6606083018381035f85015261376d565b966020830190610822565b01906103be565b565b906137da6137d560026137cf60038690611030565b016110a7565b611541565b6137ff816137f86137f26137ed5f610aa5565b6102dd565b916102dd565b1415612c4f565b61382461381f61381961381460048590610474565b6110a7565b15610281565b613675565b61384961384461383e61383960068590610474565b6110a7565b15610281565b61371d565b61385f5f61385960038590611030565b01611062565b91613876600161387160068690610474565b61174f565b61388b5f613886600586906107c2565b611c4f565b6138a2825f61389c60038590611030565b01612e79565b6138b860016138b360048590610474565b61174f565b6138cd816138c8600585906107c2565b61319e565b6138df6138da60076117f4565b610e93565b635260590a828492803b156139db5761390b5f80946139166138ff610222565b97889687958694611805565b845260048401613787565b03925af180156139d6576139aa575b506139656139537f8a49a94a170e0377e29de8e4b741993bed3dc902443fdc59d79e455137ecab1892611024565b9261395c610222565b918291826103cb565b0390a26139927f54bb099253cb7fbcc66cc9a7d88ee3cbf8a08fecdc093811d6388347fa50767f91610468565b9061399b610222565b806139a581610508565b0390a2565b6139c9905f3d81116139cf575b6139c18183610ce4565b81019061180b565b5f613925565b503d6139b7565b61188e565b611801565b906139ea91613600565b565b6139f46113ae565b50613a0e613a086301ffc9a760e01b610234565b91610234565b1490565b613a2490613a1e613ad1565b90613d27565b565b613a2e6113ae565b50613a43613a3d828490611f71565b15610281565b5f14613acb57613a6a6001613a655f613a5d8186906115aa565b018590611f5b565b61174f565b90613a73613ad1565b90613ab0613aaa613aa47f2f8788117e7eff1d82e926ec794901d17c78024a50270940304540a733656f0d95610468565b92611024565b92611024565b92613ab9610222565b80613ac381610508565b0390a4600190565b50505f90565b613ad9611c4b565b503390565b613ae66113ae565b50613af2818390611f71565b5f14613b7957613b185f613b135f613b0b8186906115aa565b018590611f5b565b61174f565b90613b21613ad1565b90613b5e613b58613b527ff6391f5c32d9c69d2a47ea670b442974b53935d1edc7fd64eb21e047a839171b95610468565b92611024565b92611024565b92613b67610222565b80613b7181610508565b0390a4600190565b50505f90565b613b87613d62565b613b8f613b91565b565b613b9c5f600261174f565b613ba4613ad1565b613bda7f5db9ee0a495bf2e6ff9c91a7834c1ba4fdd244a5e8aa4e537bd38aeae4b073aa91613bd1610222565b9182918261082f565b0390a1565b613be7613b7f565b565b613bf1613cda565b613bf9613bfb565b565b613c076001600261174f565b613c0f613ad1565b613c457f62e78cea01bee320cd4e420270b5ea74000d11b0c9f74754ebdbfc544b05a25891613c3c610222565b9182918261082f565b0390a1565b613c52613be9565b565b613c5e6002612644565b90565b613c6b6001611086565b613c84613c7e613c79613c54565b61073b565b9161073b565b14613c9d57613c9b613c94613c54565b60016117c0565b565b5f633ee5aeb560e01b815280613cb560048201610508565b0390fd5b613cc36001612625565b90565b613cd8613cd1613cb9565b60016117c0565b565b613ce26119f8565b613ce857565b5f63d93c066560e01b815280613d0060048201610508565b0390fd5b916020613d25929493613d1e60408201965f830190610822565b01906103be565b565b90613d3c613d36838390611f71565b15610281565b613d44575050565b613d5e5f92839263e2517d3f60e01b845260048401613d04565b0390fd5b613d73613d6d6119f8565b15610281565b613d7957565b5f638dfc202b60e01b815280613d9160048201610508565b0390fdfea2646970667358221220bcbf28ca15d6f847e91ba1dc52cc1f4d58422240e329d5dc77df7779f2e257ec64736f6c634300081e0033","linkReferences":{}},"methodIdentifiers":{"DEFAULT_ADMIN_ROLE()":"a217fddf","PAUSER_ROLE()":"e63ab1e9","REGISTRY_MANAGER_ROLE()":"bd8fde1c","commitmentToAddress(bytes32)":"76af06a9","deregisterIdentity(address)":"7d54b5fb","getIdentityCommitment(address)":"1ac505a1","getIdentityInfo(address)":"81b764fb","getRoleAdmin(bytes32)":"248a9ca3","getVerificationStatus(address)":"6103681a","grantRole(bytes32,address)":"2f2ff15d","hasRole(bytes32,address)":"91d14854","identities(address)":"f653b81e","inactiveCommitments(bytes32)":"5688eb89","isCommitmentActive(bytes32)":"db2c88b6","isCommitmentValid(bytes32,address)":"05e90792","isIdentityLocked(address)":"e2b104ec","isIdentityLockedWithUpdate(address)":"a6c708a7","isRegistered(address)":"c3c5a547","lockIdentity(address,uint256)":"d7478cfc","nullifiers(bytes32)":"2997e86b","pause()":"8456cb59","paused()":"5c975abb","registerIdentity(address,bytes32)":"e2706d07","renounceRole(bytes32,address)":"36568abe","revokeRole(bytes32,address)":"d547741f","supportsInterface(bytes4)":"01ffc9a7","trustScore()":"3078d998","unlockIdentity(address)":"4ccea8c8","unpause()":"3f4ba83a","updateIdentityCommitment(address,bytes32)":"edf3a8e0","updateVerificationStatus(address,string,bool)":"df551ce8","verificationLogger()":"e1300c88"},"id":74}