{"abi":[{"type":"constructor","inputs":[],"stateMutability":"nonpayable"},{"type":"function","name":"DEFAULT_ADMIN_ROLE","inputs":[],"outputs":[{"name":"","type":"bytes32","internalType":"bytes32"}],"stateMutability":"view"},{"type":"function","name":"LOGGER_ROLE","inputs":[],"outputs":[{"name":"","type":"bytes32","internalType":"bytes32"}],"stateMutability":"view"},{"type":"function","name":"archiveLogs","inputs":[{"name":"fromId","type":"uint256","internalType":"uint256"},{"name":"toId","type":"uint256","internalType":"uint256"}],"outputs":[],"stateMutability":"nonpayable"},{"type":"function","name":"archiveThreshold","inputs":[],"outputs":[{"name":"","type":"uint256","internalType":"uint256"}],"stateMutability":"view"},{"type":"function","name":"batchLogEvents","inputs":[{"name":"eventTypes","type":"string[]","internalType":"string[]"},{"name":"users","type":"address[]","internalType":"address[]"},{"name":"dataHashes","type":"bytes32[]","internalType":"bytes32[]"}],"outputs":[],"stateMutability":"nonpayable"},{"type":"function","name":"contractLogs","inputs":[{"name":"","type":"address","internalType":"address"},{"name":"","type":"uint256","internalType":"uint256"}],"outputs":[{"name":"","type":"uint256","internalType":"uint256"}],"stateMutability":"view"},{"type":"function","name":"eventTypeLogs","inputs":[{"name":"","type":"string","internalType":"string"},{"name":"","type":"uint256","internalType":"uint256"}],"outputs":[{"name":"","type":"uint256","internalType":"uint256"}],"stateMutability":"view"},{"type":"function","name":"getContractLogs","inputs":[{"name":"contractAddress","type":"address","internalType":"address"}],"outputs":[{"name":"","type":"uint256[]","internalType":"uint256[]"}],"stateMutability":"view"},{"type":"function","name":"getEventTypeLogs","inputs":[{"name":"eventType","type":"string","internalType":"string"}],"outputs":[{"name":"","type":"uint256[]","internalType":"uint256[]"}],"stateMutability":"view"},{"type":"function","name":"getLogStats","inputs":[],"outputs":[{"name":"totalLogs","type":"uint256","internalType":"uint256"},{"name":"archivedLogs","type":"uint256","internalType":"uint256"},{"name":"activeLogs","type":"uint256","internalType":"uint256"}],"stateMutability":"view"},{"type":"function","name":"getLogsByEventTypeAndTimeRange","inputs":[{"name":"eventType","type":"string","internalType":"string"},{"name":"fromTime","type":"uint256","internalType":"uint256"},{"name":"toTime","type":"uint256","internalType":"uint256"}],"outputs":[{"name":"","type":"tuple[]","internalType":"struct VerificationLogger.LogEntry[]","components":[{"name":"id","type":"uint256","internalType":"uint256"},{"name":"eventType","type":"string","internalType":"string"},{"name":"user","type":"address","internalType":"address"},{"name":"contractAddress","type":"address","internalType":"address"},{"name":"dataHash","type":"bytes32","internalType":"bytes32"},{"name":"timestamp","type":"uint256","internalType":"uint256"},{"name":"blockNumber","type":"uint256","internalType":"uint256"},{"name":"isArchived","type":"bool","internalType":"bool"}]}],"stateMutability":"view"},{"type":"function","name":"getLogsByTimeRange","inputs":[{"name":"fromTime","type":"uint256","internalType":"uint256"},{"name":"toTime","type":"uint256","internalType":"uint256"}],"outputs":[{"name":"","type":"tuple[]","internalType":"struct VerificationLogger.LogEntry[]","components":[{"name":"id","type":"uint256","internalType":"uint256"},{"name":"eventType","type":"string","internalType":"string"},{"name":"user","type":"address","internalType":"address"},{"name":"contractAddress","type":"address","internalType":"address"},{"name":"dataHash","type":"bytes32","internalType":"bytes32"},{"name":"timestamp","type":"uint256","internalType":"uint256"},{"name":"blockNumber","type":"uint256","internalType":"uint256"},{"name":"isArchived","type":"bool","internalType":"bool"}]}],"stateMutability":"view"},{"type":"function","name":"getLogsInRange","inputs":[{"name":"fromId","type":"uint256","internalType":"uint256"},{"name":"toId","type":"uint256","internalType":"uint256"}],"outputs":[{"name":"","type":"tuple[]","internalType":"struct VerificationLogger.LogEntry[]","components":[{"name":"id","type":"uint256","internalType":"uint256"},{"name":"eventType","type":"string","internalType":"string"},{"name":"user","type":"address","internalType":"address"},{"name":"contractAddress","type":"address","internalType":"address"},{"name":"dataHash","type":"bytes32","internalType":"bytes32"},{"name":"timestamp","type":"uint256","internalType":"uint256"},{"name":"blockNumber","type":"uint256","internalType":"uint256"},{"name":"isArchived","type":"bool","internalType":"bool"}]}],"stateMutability":"view"},{"type":"function","name":"getRoleAdmin","inputs":[{"name":"role","type":"bytes32","internalType":"bytes32"}],"outputs":[{"name":"","type":"bytes32","internalType":"bytes32"}],"stateMutability":"view"},{"type":"function","name":"getTotalLogs","inputs":[],"outputs":[{"name":"","type":"uint256","internalType":"uint256"}],"stateMutability":"view"},{"type":"function","name":"getUserLogs","inputs":[{"name":"user","type":"address","internalType":"address"}],"outputs":[{"name":"","type":"uint256[]","internalType":"uint256[]"}],"stateMutability":"view"},{"type":"function","name":"getUserLogsInRange","inputs":[{"name":"user","type":"address","internalType":"address"},{"name":"fromTimestamp","type":"uint256","internalType":"uint256"},{"name":"toTimestamp","type":"uint256","internalType":"uint256"}],"outputs":[{"name":"","type":"tuple[]","internalType":"struct VerificationLogger.LogEntry[]","components":[{"name":"id","type":"uint256","internalType":"uint256"},{"name":"eventType","type":"string","internalType":"string"},{"name":"user","type":"address","internalType":"address"},{"name":"contractAddress","type":"address","internalType":"address"},{"name":"dataHash","type":"bytes32","internalType":"bytes32"},{"name":"timestamp","type":"uint256","internalType":"uint256"},{"name":"blockNumber","type":"uint256","internalType":"uint256"},{"name":"isArchived","type":"bool","internalType":"bool"}]}],"stateMutability":"view"},{"type":"function","name":"grantRole","inputs":[{"name":"role","type":"bytes32","internalType":"bytes32"},{"name":"account","type":"address","internalType":"address"}],"outputs":[],"stateMutability":"nonpayable"},{"type":"function","name":"hasRole","inputs":[{"name":"role","type":"bytes32","internalType":"bytes32"},{"name":"account","type":"address","internalType":"address"}],"outputs":[{"name":"","type":"bool","internalType":"bool"}],"stateMutability":"view"},{"type":"function","name":"logCounter","inputs":[],"outputs":[{"name":"","type":"uint256","internalType":"uint256"}],"stateMutability":"view"},{"type":"function","name":"logEvent","inputs":[{"name":"eventType","type":"string","internalType":"string"},{"name":"user","type":"address","internalType":"address"},{"name":"dataHash","type":"bytes32","internalType":"bytes32"}],"outputs":[],"stateMutability":"nonpayable"},{"type":"function","name":"logs","inputs":[{"name":"","type":"uint256","internalType":"uint256"}],"outputs":[{"name":"id","type":"uint256","internalType":"uint256"},{"name":"eventType","type":"string","internalType":"string"},{"name":"user","type":"address","internalType":"address"},{"name":"contractAddress","type":"address","internalType":"address"},{"name":"dataHash","type":"bytes32","internalType":"bytes32"},{"name":"timestamp","type":"uint256","internalType":"uint256"},{"name":"blockNumber","type":"uint256","internalType":"uint256"},{"name":"isArchived","type":"bool","internalType":"bool"}],"stateMutability":"view"},{"type":"function","name":"renounceRole","inputs":[{"name":"role","type":"bytes32","internalType":"bytes32"},{"name":"callerConfirmation","type":"address","internalType":"address"}],"outputs":[],"stateMutability":"nonpayable"},{"type":"function","name":"revokeRole","inputs":[{"name":"role","type":"bytes32","internalType":"bytes32"},{"name":"account","type":"address","internalType":"address"}],"outputs":[],"stateMutability":"nonpayable"},{"type":"function","name":"setArchiveThreshold","inputs":[{"name":"newThreshold","type":"uint256","internalType":"uint256"}],"outputs":[],"stateMutability":"nonpayable"},{"type":"function","name":"supportsInterface","inputs":[{"name":"interfaceId","type":"bytes4","internalType":"bytes4"}],"outputs":[{"name":"","type":"bool","internalType":"bool"}],"stateMutability":"view"},{"type":"function","name":"userLogs","inputs":[{"name":"","type":"address","internalType":"address"},{"name":"","type":"uint256","internalType":"uint256"}],"outputs":[{"name":"","type":"uint256","internalType":"uint256"}],"stateMutability":"view"},{"type":"function","name":"verifyLogIntegrity","inputs":[{"name":"logId","type":"uint256","internalType":"uint256"}],"outputs":[{"name":"","type":"bool","internalType":"bool"}],"stateMutability":"view"},{"type":"event","name":"EventLogged","inputs":[{"name":"logId","type":"uint256","indexed":true,"internalType":"uint256"},{"name":"eventType","type":"string","indexed":true,"internalType":"string"},{"name":"user","type":"address","indexed":true,"internalType":"address"},{"name":"contractAddress","type":"address","indexed":false,"internalType":"address"},{"name":"dataHash","type":"bytes32","indexed":false,"internalType":"bytes32"}],"anonymous":false},{"type":"event","name":"LogsArchived","inputs":[{"name":"fromId","type":"uint256","indexed":false,"internalType":"uint256"},{"name":"toId","type":"uint256","indexed":false,"internalType":"uint256"}],"anonymous":false},{"type":"event","name":"RoleAdminChanged","inputs":[{"name":"role","type":"bytes32","indexed":true,"internalType":"bytes32"},{"name":"previousAdminRole","type":"bytes32","indexed":true,"internalType":"bytes32"},{"name":"newAdminRole","type":"bytes32","indexed":true,"internalType":"bytes32"}],"anonymous":false},{"type":"event","name":"RoleGranted","inputs":[{"name":"role","type":"bytes32","indexed":true,"internalType":"bytes32"},{"name":"account","type":"address","indexed":true,"internalType":"address"},{"name":"sender","type":"address","indexed":true,"internalType":"address"}],"anonymous":false},{"type":"event","name":"RoleRevoked","inputs":[{"name":"role","type":"bytes32","indexed":true,"internalType":"bytes32"},{"name":"account","type":"address","indexed":true,"internalType":"address"},{"name":"sender","type":"address","indexed":true,"internalType":"address"}],"anonymous":false},{"type":"error","name":"AccessControlBadConfirmation","inputs":[]},{"type":"error","name":"AccessControlUnauthorizedAccount","inputs":[{"name":"account","type":"address","internalType":"address"},{"name":"neededRole","type":"bytes32","internalType":"bytes32"}]}],"bytecode":{"object":"0x608060405234610027576100116100eb565b61001961002c565b6136e26102fd82396136e290f35b610032565b60405190565b5f80fd5b5f1b90565b906100475f1991610036565b9181191691161790565b90565b90565b90565b61006e61006961007392610051565b610057565b610054565b90565b90565b9061008e6100896100959261005a565b610076565b825461003b565b9055565b90565b90565b6100b36100ae6100b892610099565b610036565b61009c565b90565b6100c45f61009f565b90565b7f566c814873eed56a69b28c40ab27cc2cb150d74068bae3e884ccd44f8de60f8a90565b6100f9620f42406006610079565b61010b6101046100bb565b33906101eb565b5061011e6101176100c7565b33906101eb565b50565b5f90565b151590565b6101339061009c565b90565b906101409061012a565b5f5260205260405f2090565b60018060a01b031690565b61016b6101666101709261014c565b610057565b61014c565b90565b61017c90610157565b90565b61018890610173565b90565b906101959061017f565b5f5260205260405f2090565b906101ad60ff91610036565b9181191691161790565b6101c090610125565b90565b90565b906101db6101d66101e2926101b7565b6101c3565b82546101a1565b9055565b5f0190565b6101f3610121565b506102086102028284906102c2565b15610125565b5f146102905761022f600161022a5f610222818690610136565b01859061018b565b6101c6565b906102386102ef565b9061027561026f6102697f2f8788117e7eff1d82e926ec794901d17c78024a50270940304540a733656f0d9561012a565b9261017f565b9261017f565b9261027e61002c565b80610288816101e6565b0390a4600190565b50505f90565b5f1c90565b60ff1690565b6102ad6102b291610296565b61029b565b90565b6102bf90546102a1565b90565b6102e8915f6102dd6102e3936102d6610121565b5082610136565b0161018b565b6102b5565b90565b5f90565b6102f76102eb565b50339056fe60806040526004361015610013575b6116a0565b61001d5f356101dc565b806301ffc9a7146101d757806307494b8c146101d2578063159daf36146101cd5780631cd3e656146101c8578063248a9ca3146101c35780632f2ff15d146101be57806336568abe146101b95780634dea9b53146101b457806350862c2b146101af5780635260590a146101aa57806352d5adfd146101a557806357533f01146101a05780635de0f6f61461019b57806360d479df1461019657806369c00cf3146101915780637a1138e31461018c5780637bf0fbde146101875780638f2500ce1461018257806391d148541461017d578063a217fddf14610178578063a2b08f2514610173578063ac42100f1461016e578063bd628d2614610169578063c9a9ba5114610164578063d547741f1461015f578063dc7dc6ce1461015a578063e34011ef146101555763e79899bd0361000e57611661565b611322565b61129c565b611005565b610fcf565b610f9a565b610f65565b610f20565b610eeb565b610e7a565b610e45565b610ddb565b610d76565b610b66565b610af9565b610a92565b610a5c565b610978565b610887565b6107ff565b610588565b610554565b610520565b610484565b6103ea565b610383565b6102e1565b610268565b60e01c90565b60405190565b5f80fd5b5f80fd5b5f80fd5b63ffffffff60e01b1690565b610209816101f4565b0361021057565b5f80fd5b9050359061022182610200565b565b9060208282031261023c57610239915f01610214565b90565b6101ec565b151590565b61024f90610241565b9052565b9190610266905f60208501940190610246565b565b346102985761029461028361027e366004610223565b6116a8565b61028b6101e2565b91829182610253565b0390f35b6101e8565b90565b6102a98161029d565b036102b057565b5f80fd5b905035906102c1826102a0565b565b906020828203126102dc576102d9915f016102b4565b90565b6101ec565b346103115761030d6102fc6102f73660046102c3565b61182f565b6103046101e2565b91829182610253565b0390f35b6101e8565b5f91031261032057565b6101ec565b1c90565b90565b61033c9060086103419302610325565b610329565b90565b9061034f915461032c565b90565b61035e60065f90610344565b90565b61036a9061029d565b9052565b9190610381905f60208501940190610361565b565b346103b357610393366004610316565b6103af61039e610352565b6103a66101e2565b9182918261036e565b0390f35b6101e8565b91906040838203126103e057806103d46103dd925f86016102b4565b936020016102b4565b90565b6101ec565b5f0190565b34610419576104036103fd3660046103b8565b90611bb3565b61040b6101e2565b80610415816103e5565b0390f35b6101e8565b90565b61042a8161041e565b0361043157565b5f80fd5b9050359061044282610421565b565b9060208282031261045d5761045a915f01610435565b90565b6101ec565b61046b9061041e565b9052565b9190610482905f60208501940190610462565b565b346104b4576104b061049f61049a366004610444565b611be5565b6104a76101e2565b9182918261046f565b0390f35b6101e8565b60018060a01b031690565b6104cd906104b9565b90565b6104d9816104c4565b036104e057565b5f80fd5b905035906104f1826104d0565b565b919060408382031261051b578061050f610518925f8601610435565b936020016104e4565b90565b6101ec565b3461054f576105396105333660046104f3565b90611c30565b6105416101e2565b8061054b816103e5565b0390f35b6101e8565b346105835761056d6105673660046104f3565b90611c3c565b6105756101e2565b8061057f816103e5565b0390f35b6101e8565b346105b6576105a061059b3660046102c3565b611ce5565b6105a86101e2565b806105b2816103e5565b0390f35b6101e8565b5f80fd5b5f80fd5b601f801991011690565b634e487b7160e01b5f52604160045260245ffd5b906105eb906105c3565b810190811067ffffffffffffffff82111761060557604052565b6105cd565b9061061d6106166101e2565b92836105e1565b565b67ffffffffffffffff811161063d576106396020916105c3565b0190565b6105cd565b90825f939282370152565b9092919261066261065d8261061f565b61060a565b9381855260208501908284011161067e5761067c92610642565b565b6105bf565b9080601f830112156106a15781602061069e9335910161064d565b90565b6105bb565b91906040838203126106e6575f8301359067ffffffffffffffff82116106e1576106d5816106de938601610683565b936020016102b4565b90565b6101f0565b6101ec565b5190565b905090565b90825f9392825e0152565b61072461071b92602092610712816106eb565b948580936106ef565b938491016106f4565b0190565b90565b61073761073c9161029d565b610728565b9052565b61075061075791602094936106ff565b809261072b565b0190565b61076f6107666101e2565b92839283610740565b03902090565b61077e9161075b565b90565b634e487b7160e01b5f52603260045260245ffd5b5490565b5f5260205f2090565b6107ab81610795565b8210156107c5576107bd600191610799565b910201905f90565b610781565b6107d5906003610775565b6107de81610795565b8210156107fb576107f8916107f2916107a2565b90610344565b90565b5f80fd5b346108305761082c61081b6108153660046106a6565b906107ca565b6108236101e2565b9182918261036e565b0390f35b6101e8565b9091606082840312610882575f82013567ffffffffffffffff811161087d576108638461087a928501610683565b9361087181602086016104e4565b93604001610435565b90565b6101f0565b6101ec565b346108b6576108a061089a366004610835565b91612458565b6108a86101e2565b806108b2816103e5565b0390f35b6101e8565b906020828203126108d4576108d1915f016104e4565b90565b6101ec565b5190565b60209181520190565b60200190565b6108f59061029d565b9052565b90610906816020936108ec565b0190565b60200190565b9061092d610927610920846108d9565b80936108dd565b926108e6565b905f5b81811061093d5750505090565b90919261095661095060019286516108f9565b9461090a565b9101919091610930565b6109759160208201915f818403910152610910565b90565b346109a8576109a461099361098e3660046108bb565b612518565b61099b6101e2565b91829182610960565b0390f35b6101e8565b91906040838203126109d557806109c96109d2925f86016104e4565b936020016102b4565b90565b6101ec565b90565b6109f16109ec6109f6926104b9565b6109da565b6104b9565b90565b610a02906109dd565b90565b610a0e906109f9565b90565b90610a1b90610a05565b5f5260205260405f2090565b610a32906002610a11565b610a3b81610795565b821015610a5857610a5591610a4f916107a2565b90610344565b90565b5f80fd5b34610a8d57610a89610a78610a723660046109ad565b90610a27565b610a806101e2565b9182918261036e565b0390f35b6101e8565b34610ac257610abe610aad610aa83660046108bb565b612537565b610ab56101e2565b91829182610960565b0390f35b6101e8565b604090610af0610af79496959396610ae660608401985f850190610361565b6020830190610361565b0190610361565b565b34610b2c57610b09366004610316565b610b28610b14612575565b610b1f9391936101e2565b93849384610ac7565b0390f35b6101e8565b610b3c906004610a11565b610b4581610795565b821015610b6257610b5f91610b59916107a2565b90610344565b90565b5f80fd5b34610b9757610b93610b82610b7c3660046109ad565b90610b31565b610b8a6101e2565b9182918261036e565b0390f35b6101e8565b9091606082840312610bd157610bce610bb7845f85016104e4565b93610bc581602086016102b4565b936040016102b4565b90565b6101ec565b5190565b60209181520190565b60200190565b60209181520190565b610c11610c1a602093610c1f93610c08816106eb565b93848093610be9565b958691016106f4565b6105c3565b0190565b610c2c906104c4565b9052565b610c399061041e565b9052565b610c4690610241565b9052565b90610ce19060e080610c7c6101008401610c6a5f8801515f8701906108ec565b60208701518582036020870152610bf2565b94610c8f60408201516040860190610c23565b610ca160608201516060860190610c23565b610cb360808201516080860190610c30565b610cc560a082015160a08601906108ec565b610cd760c082015160c08601906108ec565b0151910190610c3d565b90565b90610cee91610c4a565b90565b60200190565b90610d0b610d0483610bd6565b8092610bda565b9081610d1c60208302840194610be3565b925f915b838310610d2f57505050505090565b90919293946020610d51610d4b83856001950387528951610ce4565b97610cf1565b9301930191939290610d20565b610d739160208201915f818403910152610cf7565b90565b34610da757610da3610d92610d8c366004610b9c565b9161277e565b610d9a6101e2565b91829182610d5e565b0390f35b6101e8565b7f566c814873eed56a69b28c40ab27cc2cb150d74068bae3e884ccd44f8de60f8a90565b610dd8610dac565b90565b34610e0b57610deb366004610316565b610e07610df6610dd0565b610dfe6101e2565b9182918261046f565b0390f35b6101e8565b90602082820312610e40575f82013567ffffffffffffffff8111610e3b57610e389201610683565b90565b6101f0565b6101ec565b34610e7557610e71610e60610e5b366004610e10565b612970565b610e686101e2565b91829182610960565b0390f35b6101e8565b34610eab57610ea7610e96610e903660046104f3565b906129a5565b610e9e6101e2565b91829182610253565b0390f35b6101e8565b90565b5f1b90565b610ecc610ec7610ed192610eb0565b610eb3565b61041e565b90565b610edd5f610eb8565b90565b610ee8610ed4565b90565b34610f1b57610efb366004610316565b610f17610f06610ee0565b610f0e6101e2565b9182918261046f565b0390f35b6101e8565b34610f5157610f4d610f3c610f363660046103b8565b90612a50565b610f446101e2565b91829182610d5e565b0390f35b6101e8565b610f6260055f90610344565b90565b34610f9557610f75366004610316565b610f91610f80610f56565b610f886101e2565b9182918261036e565b0390f35b6101e8565b34610fca57610faa366004610316565b610fc6610fb5612c37565b610fbd6101e2565b9182918261036e565b0390f35b6101e8565b3461100057610ffc610feb610fe53660046103b8565b90612c72565b610ff36101e2565b91829182610d5e565b0390f35b6101e8565b346110345761101e6110183660046104f3565b90612d8b565b6110266101e2565b80611030816103e5565b0390f35b6101e8565b67ffffffffffffffff81116110515760208091020190565b6105cd565b5f80fd5b92919061106e61106982611039565b61060a565b93818552602080860192028101918383116110c55781905b838210611094575050505050565b813567ffffffffffffffff81116110c0576020916110b58784938701610683565b815201910190611086565b6105bb565b611056565b9080601f830112156110e8578160206110e59335910161105a565b90565b6105bb565b67ffffffffffffffff81116111055760208091020190565b6105cd565b9092919261111f61111a826110ed565b61060a565b938185526020808601920283019281841161115c57915b8383106111435750505050565b6020809161115184866104e4565b815201920191611136565b611056565b9080601f8301121561117f5781602061117c9335910161110a565b90565b6105bb565b67ffffffffffffffff811161119c5760208091020190565b6105cd565b909291926111b66111b182611184565b61060a565b93818552602080860192028301928184116111f357915b8383106111da5750505050565b602080916111e88486610435565b8152019201916111cd565b611056565b9080601f8301121561121657816020611213933591016111a1565b90565b6105bb565b91606083830312611297575f83013567ffffffffffffffff811161129257826112459185016110ca565b92602081013567ffffffffffffffff811161128d5783611266918301611161565b92604082013567ffffffffffffffff81116112885761128592016111f8565b90565b6101f0565b6101f0565b6101f0565b6101ec565b346112cb576112b56112af36600461121b565b916132db565b6112bd6101e2565b806112c7816103e5565b0390f35b6101e8565b909160608284031261131d575f82013567ffffffffffffffff8111611318576112fe84611315928501610683565b9361130c81602086016102b4565b936040016102b4565b90565b6101f0565b6101ec565b346113535761134f61133e6113383660046112d0565b916132e8565b6113466101e2565b91829182610d5e565b0390f35b6101e8565b61136c6113676113719261029d565b6109da565b61029d565b90565b9061137e90611358565b5f5260205260405f2090565b5f1c90565b61139b6113a09161138a565b610329565b90565b6113ad905461138f565b90565b634e487b7160e01b5f52602260045260245ffd5b90600160028304921680156113e4575b60208310146113df57565b6113b0565b91607f16916113d4565b5f5260205f2090565b905f929180549061141161140a836113c4565b8094610be9565b916001811690815f14611468575060011461142c575b505050565b61143991929394506113ee565b915f925b81841061145057505001905f8080611427565b6001816020929593955484860152019101929061143d565b92949550505060ff19168252151560200201905f8080611427565b9061148d916113f7565b90565b906114b06114a9926114a06101e2565b93848092611483565b03836105e1565b565b60018060a01b031690565b6114c96114ce9161138a565b6114b2565b90565b6114db90546114bd565b90565b90565b6114ed6114f29161138a565b6114de565b90565b6114ff90546114e1565b90565b60ff1690565b6115146115199161138a565b611502565b90565b6115269054611508565b90565b611534906001611374565b906115405f83016113a3565b9161154d60018201611490565b9161155a600283016114d1565b91611567600382016114d1565b91611574600483016114f5565b91611581600582016113a3565b9161159a6007611593600685016113a3565b930161151c565b90565b60209181520190565b6115c56115ce6020936115d3936115bc816106eb565b9384809361159d565b958691016106f4565b6105c3565b0190565b6115e0906104c4565b9052565b939561164460e09661163a611658969c9b996116306116258a61165f9e9961161761164e9a5f6101008501940190610361565b8c60208184039101526115a6565b9e60408b01906115d7565b60608901906115d7565b6080870190610462565b60a0850190610361565b60c0830190610361565b0190610246565b565b3461169b5761169761167c6116773660046102c3565b611529565b9461168e9896989491949392936101e2565b988998896115e4565b0390f35b6101e8565b5f80fd5b5f90565b6116b06116a4565b50806116cb6116c5637965db0b60e01b6101f4565b916101f4565b149081156116d8575b5090565b6116e291506134da565b5f6116d4565b906116f29061029d565b9052565b52565b90611703906104c4565b9052565b906117119061041e565b9052565b9061171f90610241565b9052565b61172e61010061060a565b90565b906117f86117ef6007611742611723565b946117596117515f83016113a3565b5f88016116e8565b61177161176860018301611490565b602088016116f6565b611789611780600283016114d1565b604088016116f9565b6117a1611798600383016114d1565b606088016116f9565b6117b96117b0600483016114f5565b60808801611707565b6117d16117c8600583016113a3565b60a088016116e8565b6117e96117e0600683016113a3565b60c088016116e8565b0161151c565b60e08401611715565b565b61180390611731565b90565b611810905161029d565b90565b61182761182261182c92610eb0565b6109da565b61029d565b90565b6118376116a4565b5061184c61184760018390611374565b6117fa565b9061186a61186461185e5f8501611806565b9261029d565b9161029d565b0361189b5760a061187b9101611806565b61188d6118875f611813565b9161029d565b1461189757600190565b5f90565b505f90565b906118ba916118b56118b0610ed4565b613500565b611a7d565b565b5f7f496e76616c69642072616e676500000000000000000000000000000000000000910152565b6118f0600d60209261159d565b6118f9816118bc565b0190565b6119129060208101905f8183039101526118e3565b90565b1561191c57565b6119246101e2565b62461bcd60e51b81528061193a600482016118fd565b0390fd5b634e487b7160e01b5f52601160045260245ffd5b6119616119679193929361029d565b9261029d565b820391821161197257565b61193e565b5f7f43616e6e6f74206172636869766520726563656e74206c6f6773000000000000910152565b6119ab601a60209261159d565b6119b481611977565b0190565b6119cd9060208101905f81830391015261199e565b90565b156119d757565b6119df6101e2565b62461bcd60e51b8152806119f5600482016119b8565b0390fd5b611a029061029d565b5f198114611a105760010190565b61193e565b90611a2160ff91610eb3565b9181191691161790565b611a3490610241565b90565b90565b90611a4f611a4a611a5692611a2b565b611a37565b8254611a15565b9055565b916020611a7b929493611a7460408201965f830190610361565b0190610361565b565b9081611a91611a8b8361029d565b9161029d565b111580611b8a575b611aa290611915565b611ada81611ad4611ace611ac9611ab960056113a3565b611ac360066113a3565b90611952565b61029d565b9161029d565b106119d0565b815b80611aef611ae98461029d565b9161029d565b11611b4e57611b2b90611b0e5f611b0860018490611374565b016113a3565b611b20611b1a5f611813565b9161029d565b03611b30575b6119f9565b611adc565b611b4960016007611b4360018590611374565b01611a3a565b611b26565b507f7787e4d3ce11e24323669652d429e0bd267862abd941ac00e11c464fa53d18dd91611b85611b7c6101e2565b92839283611a5a565b0390a1565b50611aa281611baa611ba4611b9f60056113a3565b61029d565b9161029d565b11159050611a99565b90611bbd916118a0565b565b5f90565b611bcc9061041e565b90565b90611bd990611bc3565b5f5260205260405f2090565b6001611bfd611c0392611bf6611bbf565b505f611bcf565b016114f5565b90565b90611c2191611c1c611c1782611be5565b613500565b611c23565b565b90611c2d91613514565b50565b90611c3a91611c06565b565b9080611c57611c51611c4c6135c3565b6104c4565b916104c4565b03611c6857611c65916135d0565b50565b5f63334bd91960e11b815280611c80600482016103e5565b0390fd5b611c9d90611c98611c93610ed4565b613500565b611cd8565b565b90611cab5f1991610eb3565b9181191691161790565b90565b90611ccd611cc8611cd492611358565b611cb5565b8254611c9f565b9055565b611ce3906006611cb8565b565b611cee90611c84565b565b90611d0b9291611d06611d01610dac565b613500565b612254565b565b90565b5190565b5f7f456d707479206576656e74207479706500000000000000000000000000000000910152565b611d48601060209261159d565b611d5181611d14565b0190565b611d6a9060208101905f818303910152611d3b565b90565b15611d7457565b611d7c6101e2565b62461bcd60e51b815280611d9260048201611d55565b0390fd5b611daa611da5611daf92610eb0565b6109da565b6104b9565b90565b611dbb90611d96565b90565b5f7f496e76616c696420757365722061646472657373000000000000000000000000910152565b611df2601460209261159d565b611dfb81611dbe565b0190565b611e149060208101905f818303910152611de5565b90565b15611e1e57565b611e266101e2565b62461bcd60e51b815280611e3c60048201611dff565b0390fd5b611e4b61010061060a565b90565b5190565b601f602091010490565b1b90565b91906008611e7b910291611e755f1984611e5c565b92611e5c565b9181191691161790565b9190611e9b611e96611ea393611358565b611cb5565b908354611e60565b9055565b5f90565b611ebd91611eb7611ea7565b91611e85565b565b5b818110611ecb575050565b80611ed85f600193611eab565b01611ec0565b9190601f8111611eee575b505050565b611efa611f1f936113ee565b906020611f0684611e52565b83019310611f27575b611f1890611e52565b0190611ebf565b5f8080611ee9565b9150611f1881929050611f0f565b90611f45905f1990600802610325565b191690565b81611f5491611f35565b906002021790565b90611f66816106eb565b9067ffffffffffffffff821161202657611f8a82611f8485546113c4565b85611ede565b602090601f8311600114611fbe57918091611fad935f92611fb2575b5050611f4a565b90555b565b90915001515f80611fa6565b601f19831691611fcd856113ee565b925f5b81811061200e57509160029391856001969410611ff4575b50505002019055611fb0565b612004910151601f841690611f35565b90555f8080611fe8565b91936020600181928787015181550195019201611fd0565b6105cd565b9061203591611f5c565b565b61204190516104c4565b90565b9061205560018060a01b0391610eb3565b9181191691161790565b90565b9061207761207261207e92610a05565b61205f565b8254612044565b9055565b61208c905161041e565b90565b6120989061138a565b90565b906120b06120ab6120b792611bc3565b61208f565b8254611c9f565b9055565b6120c59051610241565b90565b9061218960e0600761218f946120eb5f82016120e55f8801611806565b90611cb8565b612104600182016120fe60208801611e4e565b9061202b565b61211d6002820161211760408801612037565b90612062565b6121366003820161213060608801612037565b90612062565b61214f6004820161214960808801612082565b9061209b565b6121686005820161216260a08801611806565b90611cb8565b6121816006820161217b60c08801611806565b90611cb8565b0192016120bb565b90611a3a565b565b9061219b916120c8565b565b90565b5f5260205f2090565b5490565b6121b6816121a9565b8210156121d0576121c86001916121a0565b910201905f90565b610781565b908154916801000000000000000083101561220557826121fd916001612203950181556121ad565b90611e85565b565b6105cd565b612213916106ff565b90565b61222b906122226101e2565b9182918261220a565b03902090565b91602061225292949361224b60408201965f8301906115d7565b0190610462565b565b908161225f90611d0d565b61226890611d10565b5f61227290611813565b9061227c9061029d565b1161228690611d6d565b805f61229190611db2565b61229a906104c4565b906122a4906104c4565b14156122af90611e17565b6122b960056113a3565b6122c2906119f9565b6122cd906005611cb8565b6122d760056113a3565b82823386429143935f956122e9611e40565b975f8901906122f7916116e8565b6020880190612305916116f6565b6040870190612313916116f9565b6060860190612321916116f9565b608085019061232f91611707565b60a084019061233d916116e8565b60c083019061234b916116e8565b60e082019061235991611715565b600161236560056113a3565b61236e91611374565b9061237891612191565b60028161238491610a11565b61238d9061219d565b61239760056113a3565b6123a0916121d5565b6003826123ac91610775565b6123b59061219d565b6123bf60056113a3565b6123c8916121d5565b6004336123d491610a11565b6123dd9061219d565b6123e760056113a3565b6123f0916121d5565b6123fa60056113a3565b919091337f103cd5403410d6908bdc2f851448a30f60c77a8af566d2a82b2404582e0eb6129161242990611358565b9261243390612216565b9361243d90610a05565b946124466101e2565b9182916124539183612231565b0390a4565b906124639291611cf0565b565b606090565b60209181520190565b61247d905461138f565b90565b60010190565b906124a361249d61249684610795565b809361246a565b92610799565b905f5b8181106124b35750505090565b9091926124d36124cd6001926124c887612473565b6108f9565b94612480565b91019190916124a6565b906124e791612486565b90565b9061250a612503926124fa6101e2565b938480926124dd565b03836105e1565b565b612515906124ea565b90565b61252f61253491612527612465565b506004610a11565b61250c565b90565b61254e61255391612546612465565b506002610a11565b61250c565b90565b90565b61256d61256861257292612556565b6109da565b61029d565b90565b61257d611ea7565b50612586611ea7565b5061258f611ea7565b5061259a60056113a3565b906125a45f611813565b6125ae6001612559565b5b806125cb6125c56125c060056113a3565b61029d565b9161029d565b1161260f576125e760076125e160018490611374565b0161151c565b6125fa575b6125f5906119f9565b6125af565b906126076125f5916119f9565b9190506125ec565b509061261b8284611952565b90565b606090565b600161262f910161029d565b90565b9061263c826108d9565b81101561264d576020809102010190565b610781565b67ffffffffffffffff811161266a5760208091020190565b6105cd565b9061268161267c83612652565b61060a565b918252565b5f90565b606090565b5f90565b5f90565b5f90565b6126a3611723565b90602080808080808080896126b6612686565b8152016126c161268a565b8152016126cc61268f565b8152016126d761268f565b8152016126e2612693565b8152016126ed612686565b8152016126f8612686565b815201612703612697565b81525050565b61271161269b565b90565b5f5b82811061272257505050565b60209061272d612709565b8184015201612716565b9061275c6127448361266f565b926020806127528693612652565b9201910390612714565b565b9061276882610bd6565b811015612779576020809102010190565b610781565b61279961279e919493929461279161261e565b506002610a11565b61250c565b926127a85f611813565b916127b25f611813565b5b806127ce6127c86127c3896108d9565b61029d565b9161029d565b1015612871576127fa6127f560016127ef6127ea8a8690612632565b611806565b90611374565b6117fa565b61280660a08201611806565b6128186128128661029d565b9161029d565b1015908161284a575b50612835575b61283090612623565b6127b3565b92612842612830916119f9565b939050612827565b612857915060a001611806565b6128696128638461029d565b9161029d565b11155f612821565b50909161287d90612737565b916128875f611813565b916128915f611813565b5b806128ad6128a76128a28a6108d9565b61029d565b9161029d565b1015612966576128d96128d460016128ce6128c98b8690612632565b611806565b90611374565b6117fa565b6128e560a08201611806565b6128f76128f18661029d565b9161029d565b101580612940575b612913575b5061290e90612623565b612892565b61290e91946129326129399288839161292c838361275e565b5261275e565b51506119f9565b9390612904565b5061294d60a08201611806565b61295f6129598561029d565b9161029d565b11156128ff565b5050505090915090565b61298761298c9161297f612465565b506003610775565b61250c565b90565b9061299990610a05565b5f5260205260405f2090565b6129cb915f6129c06129c6936129b96116a4565b5082611bcf565b0161298f565b61151c565b90565b5f7f496e76616c69642074696d652072616e67650000000000000000000000000000910152565b612a02601260209261159d565b612a0b816129ce565b0190565b612a249060208101905f8183039101526129f5565b90565b15612a2e57565b612a366101e2565b62461bcd60e51b815280612a4c60048201612a0f565b0390fd5b90612a5961261e565b50612a7782612a70612a6a8461029d565b9161029d565b1115612a27565b612a805f611813565b90612a8b6001612559565b5b80612aa8612aa2612a9d60056113a3565b61029d565b9161029d565b11612b3757612ac46005612abe60018490611374565b016113a3565b612ad6612ad08661029d565b9161029d565b101580612b06575b612af1575b612aec906119f9565b612a8c565b91612afe612aec916119f9565b929050612ae3565b50612b1e6005612b1860018490611374565b016113a3565b612b30612b2a8461029d565b9161029d565b1115612ade565b5090612b4290612737565b90612b4c5f611813565b90612b576001612559565b5b80612b74612b6e612b6960056113a3565b61029d565b9161029d565b11612c2f57612b906005612b8a60018490611374565b016113a3565b612ba2612b9c8761029d565b9161029d565b101580612bfe575b612bbd575b612bb8906119f9565b612b58565b91612bf6612bb891612bef612bd460018790611374565b87612bdf84926117fa565b612be9838361275e565b5261275e565b51506119f9565b929050612baf565b50612c166005612c1060018490611374565b016113a3565b612c28612c228461029d565b9161029d565b1115612baa565b505050905090565b612c3f611ea7565b50612c4a60056113a3565b90565b612c5c612c629193929361029d565b9261029d565b8201809211612c6d57565b61193e565b9190612caf612cbf91612c8361261e565b5084612c97612c918361029d565b9161029d565b111580612d38575b612ca890611915565b8490611952565b612cb96001612559565b90612c4d565b91612cc983612737565b91612cd35f611813565b5b80612ce7612ce18761029d565b9161029d565b1015612d3157612d2c90612d25612d0a6001612d04878590612c4d565b90611374565b86612d1584926117fa565b612d1f838361275e565b5261275e565b5150612623565b612cd4565b5092505090565b50612ca881612d58612d52612d4d60056113a3565b61029d565b9161029d565b11159050612c9f565b90612d7c91612d77612d7282611be5565b613500565b612d7e565b565b90612d88916135d0565b50565b90612d9591612d61565b565b90612db29291612dad612da8610dac565b613500565b612f43565b565b5190565b5190565b5190565b5f7f4172726179206c656e67746873206d757374206d617463680000000000000000910152565b612df4601860209261159d565b612dfd81612dc0565b0190565b612e169060208101905f818303910152612de7565b90565b15612e2057565b612e286101e2565b62461bcd60e51b815280612e3e60048201612e01565b0390fd5b90565b612e59612e54612e5e92612e42565b6109da565b61029d565b90565b5f7f496e76616c69642062617463682073697a650000000000000000000000000000910152565b612e95601260209261159d565b612e9e81612e61565b0190565b612eb79060208101905f818303910152612e88565b90565b15612ec157565b612ec96101e2565b62461bcd60e51b815280612edf60048201612ea2565b0390fd5b90612eed82612db4565b811015612efe576020809102010190565b610781565b90612f0d82612db8565b811015612f1e576020809102010190565b610781565b90612f2d82612dbc565b811015612f3e576020809102010190565b610781565b90612f4d82612db4565b612f67612f61612f5c84612db8565b61029d565b9161029d565b14806132ac575b612f7790612e19565b612f8082612db4565b612f92612f8c5f611813565b9161029d565b1180613283575b612fa290612eba565b612fab5f611813565b5b80612fc7612fc1612fbc86612db4565b61029d565b9161029d565b101561327d578281612fd891612ee3565b51612fe290611d0d565b612feb90611d10565b5f612ff590611813565b90612fff9061029d565b1161300990611d6d565b818161301491612f03565b61301d90612037565b5f61302790611db2565b613030906104c4565b9061303a906104c4565b141561304590611e17565b61304f60056113a3565b61305890612623565b613063906005611cb8565b61306d60056113a3565b838261307891612ee3565b51838361308491612f03565b61308d90612037565b33878561309991612f23565b6130a290612082565b429143935f956130b0611e40565b975f8901906130be916116e8565b60208801906130cc916116f6565b60408701906130da916116f9565b60608601906130e8916116f9565b60808501906130f691611707565b60a0840190613104916116e8565b60c0830190613112916116e8565b60e082019061312091611715565b600161312c60056113a3565b61313591611374565b9061313f91612191565b6002828261314c91612f03565b61315590612037565b61315e91610a11565b6131679061219d565b61317160056113a3565b61317a916121d5565b6003838261318791612ee3565b5161319191610775565b61319a9061219d565b6131a460056113a3565b6131ad916121d5565b6004336131b991610a11565b6131c29061219d565b6131cc60056113a3565b6131d5916121d5565b6131df60056113a3565b83826131ea91612ee3565b5183836131f691612f03565b6131ff90612037565b903392878561320d91612f23565b61321690612082565b937f103cd5403410d6908bdc2f851448a30f60c77a8af566d2a82b2404582e0eb6129161324290611358565b9261324c90612216565b9361325690610a05565b9461325f6101e2565b91829161326c9183612231565b0390a461327890612623565b612fac565b50505050565b50612fa261329083612db4565b6132a361329d6032612e45565b9161029d565b11159050612f99565b50612f776132b982612db8565b6132d36132cd6132c887612dbc565b61029d565b9161029d565b149050612f6e565b906132e69291612d97565b565b61330361330891949392946132fb61261e565b506003610775565b61250c565b926133125f611813565b9161331c5f611813565b5b8061333861333261332d896108d9565b61029d565b9161029d565b10156133db5761336461335f60016133596133548a8690612632565b611806565b90611374565b6117fa565b61337060a08201611806565b61338261337c8661029d565b9161029d565b101590816133b4575b5061339f575b61339a90612623565b61331d565b926133ac61339a916119f9565b939050613391565b6133c1915060a001611806565b6133d36133cd8461029d565b9161029d565b11155f61338b565b5090916133e790612737565b916133f15f611813565b916133fb5f611813565b5b8061341761341161340c8a6108d9565b61029d565b9161029d565b10156134d05761344361343e60016134386134338b8690612632565b611806565b90611374565b6117fa565b61344f60a08201611806565b61346161345b8661029d565b9161029d565b1015806134aa575b61347d575b5061347890612623565b6133fc565b613478919461349c6134a392888391613496838361275e565b5261275e565b51506119f9565b939061346e565b506134b760a08201611806565b6134c96134c38561029d565b9161029d565b1115613469565b5050505090915090565b6134e26116a4565b506134fc6134f66301ffc9a760e01b6101f4565b916101f4565b1490565b6135129061350c6135c3565b90613671565b565b61351c6116a4565b5061353161352b8284906129a5565b15610241565b5f146135b95761355860016135535f61354b818690611bcf565b01859061298f565b611a3a565b906135616135c3565b9061359e6135986135927f2f8788117e7eff1d82e926ec794901d17c78024a50270940304540a733656f0d95611bc3565b92610a05565b92610a05565b926135a76101e2565b806135b1816103e5565b0390a4600190565b50505f90565b5f90565b6135cb6135bf565b503390565b6135d86116a4565b506135e48183906129a5565b5f1461366b5761360a5f6136055f6135fd818690611bcf565b01859061298f565b611a3a565b906136136135c3565b9061365061364a6136447ff6391f5c32d9c69d2a47ea670b442974b53935d1edc7fd64eb21e047a839171b95611bc3565b92610a05565b92610a05565b926136596101e2565b80613663816103e5565b0390a4600190565b50505f90565b906136866136808383906129a5565b15610241565b61368e575050565b6136a85f92839263e2517d3f60e01b845260048401612231565b0390fdfea2646970667358221220f1513f8ff82e4a352daeb48af27d3cdab8c23c0ecf6306a4628f8f16798655d964736f6c634300081e0033","linkReferences":{}},"methodIdentifiers":{"DEFAULT_ADMIN_ROLE()":"a217fddf","LOGGER_ROLE()":"7bf0fbde","archiveLogs(uint256,uint256)":"1cd3e656","archiveThreshold()":"159daf36","batchLogEvents(string[],address[],bytes32[])":"dc7dc6ce","contractLogs(address,uint256)":"69c00cf3","eventTypeLogs(string,uint256)":"50862c2b","getContractLogs(address)":"52d5adfd","getEventTypeLogs(string)":"8f2500ce","getLogStats()":"60d479df","getLogsByEventTypeAndTimeRange(string,uint256,uint256)":"e34011ef","getLogsByTimeRange(uint256,uint256)":"a2b08f25","getLogsInRange(uint256,uint256)":"c9a9ba51","getRoleAdmin(bytes32)":"248a9ca3","getTotalLogs()":"bd628d26","getUserLogs(address)":"5de0f6f6","getUserLogsInRange(address,uint256,uint256)":"7a1138e3","grantRole(bytes32,address)":"2f2ff15d","hasRole(bytes32,address)":"91d14854","logCounter()":"ac42100f","logEvent(string,address,bytes32)":"5260590a","logs(uint256)":"e79899bd","renounceRole(bytes32,address)":"36568abe","revokeRole(bytes32,address)":"d547741f","setArchiveThreshold(uint256)":"4dea9b53","supportsInterface(bytes4)":"01ffc9a7","userLogs(address,uint256)":"57533f01","verifyLogIntegrity(uint256)":"07494b8c"},"id":75}